:02000002B0004C
:1040000000400B0044F90B00000006000D00050203
:084010000401A30F00000000F1
:044018002CE70B0086
:1040200009480A49884208B505D0094A824202D0A7
:10403000121A08F0C1FA0748074A0021121A08F0BC
:10404000E3FA014808BD00BF0CDC032028F70B0091
:1040500000DE032000DE0320EDE7032070B5074EED
:10406000074C06F00DFCA41BA4080025AC4200D1AF
:1040700070BD56F8043B98470135F7E7DCF60B00B6
:1040800000F70B0001F0FAB908B501F07FF9BDE8BF
:10409000084006F0ADBB03F07FBD03F07DBD03F02B
:1040A00083BD000008B5034A03490C2003F06EFCF1
:1040B000FEE700BFA9740B0040E70B000078B0FAE0
:1040C00080F04009704701230370704770477047C4
:1040D000006A0368DB6818477047037C13F0080325
:1040E0001EBFC36A406A1B1A002BACBF18466FF094
:1040F000004070477047000008B5134B1A78134B07
:104100001B789B0043EA4203114A12781343114A79
:10411000127843EAC203104A127843EA02130F4AA4
:10412000127843EA42130E4A127843EA82130D4A88
:1041300013700D4B01221A7006F046FFBDE80840CF
:104140000A4905F040BA00BF58DE032018DE0320FC
:1041500048DE0320E8E0032079DF032078DF032036
:104160006DDF0320B0E50320D0E5032055E70B0009
:1041700010B510210446FFF792FF204610BD10B580
:1041800034210446FFF78BFF204610BD103002F0AB
:10419000B9BB07B501228DF8071010300DF10701EA
:1041A00002F0B0FB03B05DF804FB103002F020BB5E
:1041B000103002F001BA07B501220DF107011030ED
:1041C00002F04CF901280CBF9DF807004FF0FF30BA
:1041D00003B05DF804FB436913B183690C301847E1
:1041E000704713B500210446084603F00FFA002378
:1041F000204601A9019303F021FA019C0CB101238F
:1042000023710021012003F001FA2CB1236820461C
:104210009B6898470023237102B010BD012A02D188
:10422000016000207047022A04BF0B680360F8E7B2
:104230000368184737B5044680680D4630B100233F
:10424000CDE900331A46022103F000FAA06830B12C
:104250000023CDE900531A46194603F0F7F903B0DD
:1042600030BD0368C9B29B681847000010B5054B04
:1042700000220446114640F8043B03F0A7FB204609
:1042800010BD00BF68EC0B0010B50446FFF7EEFF51
:1042900020462021FFF703FF204610BD0A4B10B532
:1042A0000446036005F08AFB214605F0C2FD06F0D6
:1042B0008BFE06F07DFE2046044B40F8043B05F0E3
:1042C00053FC204610BD00BF7CEC0B0050EC0B00F3
:1042D00010B50446FFF7E2FF20462421FFF7DFFE7A
:1042E000204610BD0EB403B503AB002153F8042BD8
:1042F000019305F090F902B05DF804EB03B070474C
:1043000073B5044608462279A36832B1A3B90B49B4
:1043100002B0BDE8704005F043B9094A267B094D5B
:104320000949647B012E18BF2946CDE900140749CD
:10433000FFF7D8FF02B070BD054AEFE77FE70B003B
:10434000E0EF0B007BE70B0077E70B0095E70B0036
:104350006EE70B000EB403B503AB012153F8042B39
:10436000019305F058F902B05DF804EB03B0704713
:1043700010B58368044613B10322014698472046CE
:1043800010BD000037B5134B036004468068C8B108
:1043900000256FF00043CDE9003502212B462A4667
:1043A00003F054F9A068294603F078F9237903F063
:1043B000FF0513B103F022F9F8E7A068294603F0DE
:1043C00035F9A56004F10C00FFF7D2FF204603B0D9
:1043D00030BD00BF3CEC0B0010B50446FFF7D2FF28
:1043E00020461C21FFF75BFE204610BDF0B58C4631
:1043F00000251449057104468560016092E80300B8
:1044000085B002AF04F10C0687E8030096E80300CC
:1044100082E8030097E8030086E803009168A0693A
:104420006161D1689560D060A161CDE90035064A2F
:104430002346614604F1080003F0F0F8204605B079
:10444000F0BD00BF3CEC0B00E3410B0010B504468F
:104450000022407C03F0F4FA637C0F2B18BF20830A
:1044600010BD0000F8B5244B244D1B785BB16B7C6C
:104470000F2B1CBF02236B74FF236B611E211F488F
:10448000FFF7E4FFF8BD1E4B1B78002B2DD11D4B11
:104490001B78002B2CD11C4B1B78002B15BF0A2638
:1044A000142602270327194B1A78194B1C78194B2D
:1044B000A40044EA42041A78144364B206F084FD6E
:1044C0002246013C1449E4B2FFF744FF062C98BF92
:1044D000124B6A7C94BF53F824304FF47F030F2AA9
:1044E00018BF6F7431466B61C9E714260227DAE7FB
:1044F00014260127D7E700BFE8E0032090E503205A
:1045000078DF03206DDF032079DF032058DE0320EE
:1045100018DE032048DE0320B2E70B0048ED0B0055
:1045200013460A460149096802F09FB910E60320C4
:1045300010B503F009FB2B4CE0B10123237002F00E
:10454000C3FF294B294C1B6847F23052C01A9042D6
:1045500023D813B30123237002F0B6FF244B254C5C
:104560001B6847F23052C01A904228D83BB301234F
:10457000237010BD2378002BE1D01F48037C2BB99A
:104580001E4944F202221030FFF7CAFF1C491A48A4
:104590001E22FFF7DFFE0023D0E723786BB1164819
:1045A000037C2BB9154944F202221030FFF7B8FF03
:1045B000134911481E22FFF7CDFE0023CBE72278D6
:1045C00072B16BB10C48037C2BB90C4944F2022246
:1045D0001030FFF7A5FF0B4907481E22FFF7BAFE70
:1045E0000023C5E748DE03205CDE032058DE0320FD
:1045F00024DE032018DE032014DF032097DE0320CF
:10460000BDE70B000EE80B0030B585B01B4B0093E7
:1046100013798DF804309368029300F58C659389C3
:10462000ADF80C3004460A466B4600F26C41284651
:1046300002F0A4FC10B9002005B030BD256004F2E2
:104640003C45284602F00AF90121204602F040FBD1
:10465000014668B12146284601F0FAFE0028EAD05A
:1046600094F83C3413F0700FE5D0054B1D60E3E780
:10467000204602F02DFB0028ECD1DCE728EC0B00F3
:1046800010E603202DE9F04784B08378412B00AF7A
:1046900004468A464BD1C378422B74D1204608F099
:1046A0003EF8013820F00700E946ADEB000D20464A
:1046B00008F035F86844002600F8096C2046FE73BF
:1046C00008F02DF820446D4610F8023C3B7020465F
:1046D00008F025F82044314610F8013C7B70102288
:1046E0003846BE7008F030FF80465FFA88F806F062
:1046F0006BFC784943464246FFF72CFE04262046D1
:1047000008F00DF80238864216D2062E9BBF07F13C
:1047100010039B19AB19A25D8CBFA25D03F8082C96
:1047200006F1010688BF03F8072CF6B2E7E7422B33
:1047300029D1C378312BB0E740452ED006F044FC98
:104740000546204607F0EBFF821E2846624D63496E
:104750004346FFF7FFFD2B7CCBB9614944F20222AF
:1047600005F11000FFF7DCFE5E4922462846FFF700
:10477000F1FD05F1100002F071F806F025FC5A4930
:1047800004F021FFCD461037BD46BDE8F0875549FE
:1047900022462846FFF7DEFDEFE7544907F10C00FB
:1047A00007F08EFF0028EDD0514907F10C0007F00B
:1047B00087FF58BB2B783B716B787B71AB78BB71F3
:1047C000EB783B722B797B72381D6B79BB7207F0EB
:1047D000D6FE484D484C287007F1080007F0CFFE80
:1047E000207006F0F1FB23782A784449FFF7B2FDE8
:1047F0002978434803F0B4FB2178424803F0B0FB2A
:10480000414A01231370414A1370BBE7404907F145
:104810000C0007F055FF18B93E4B83F800A0B1E734
:104820003D4907F10C0007F04BFFF0B92A4C06F0A8
:10483000CBFB294604F0C7FE237C83B9284944F208
:10484000022204F11000FFF76BFE34492A4620468D
:10485000FFF780FD04F1100002F000F892E72F4905
:104860002A462046FFF776FD8CE72D4907F10C001C
:1048700007F026FF20B902F027FE2A4B186081E7D7
:10488000294907F10C0007F01BFF10B9274B1870DE
:1048900078E7274907F10C0007F012FF00283FF4E2
:1048A00071AF244907F10C0007F00AFF00287FF4DC
:1048B00069AF214B214801221A70204B5A7C0F2AE4
:1048C0001CBF02225A741E21FF225A61FFF7BEFD4F
:1048D00058E700BF5DE80B0014DF032072E80B000F
:1048E00097DE03208FE80B00BBE80B00DCE80B0031
:1048F000E0E80B008CE503208DE50320E4E80B00E5
:1049000028DE032038DE0320DCE5032079DF0320E6
:1049100010E90B00E9E0032014E90B0018E90B0093
:104920003BE90B00B8DE03203FE90B00DDE5032087
:1049300043E90B0047E90B00E8E0032090E5032082
:1049400010B50C46002204212046FFF79BFE0B4BBE
:104950001B7893B10A48037C2BB90A4944F202221E
:104960001030FFF7DDFD224607490548FFF7F2FC4E
:10497000BDE81040054801F071BF10BD6CDF032099
:1049800014DF032097DE03204BE90B0024DF032014
:10499000B0B501F1080323F0070300AFADEB030D41
:1049A0000C460A460146684607F006FE0DEB040376
:1049B0006D4613F8013C13B100230DF8043006F0E6
:1049C00003FB164904F0FFFD06F0FEFA294604F049
:1049D000FAFD012211462846FFF754FE2B7803F01A
:1049E000FD03412B03D102F06FFD0D4B18600D4B01
:1049F0001B7883B10C48037C2BB90C4944F202228A
:104A00001030FFF78DFD0A4907482A46FFF7A2FC40
:104A1000084801F023FFBD46B0BD00BF6BE90B00A5
:104A200024DE03206CDF032014DF032097DE032045
:104A30007BE90B0024DF032013B50024CDE90044FB
:104A4000044905480123224603F08EF8034B1C70ED
:104A500002B010BD41490B009BE90B0048DE03206A
:104A600008B506F025FF0849FFF73CFC142005F0C7
:104A700093FE06F01DFF0549FFF734FCBDE8084032
:104A8000142005F089BE00BFDFEF0B007DE70B00AF
:104A900008B506F049FF0146064802F0A5FC0548A6
:104AA00002F0ADFC06F040FFBDE80840024906F008
:104AB000AFBB00BFB0DF0320801A060010B5084C62
:104AC00023785BB1074B0848197803F049FA074B84
:104AD0000748197803F044FA0023237010BD00BF83
:104AE000DCE503208CE5032028DE03208DE5032090
:104AF00038DE0320000000002DE9F04FB24DABB0CE
:104B000002F0E2FC2B68834280F00981DFF8E8B212
:104B10009BF80030002B00F0028106F005FF012316
:104B20001422632106F095FB06F0FEFE03685B6924
:104B3000984716AC264606F0F7FE03681B699847AF
:104B400038B106F0F1FE03685B69984704F8010B81
:104B5000F1E7304607F010FD51EC100B07F098FC20
:104B6000DFF898A2CAF8000006F0DEFE0123142246
:104B7000642106F06EFB06F0D7FE03685B69984778
:104B80001BAC264606F0D0FE03681B69984738B177
:104B900006F0CAFE03685B69984704F8010BF1E769
:104BA000304607F0E9FC06F0BFFE01231422652120
:104BB00006F04FFB06F0B8FE03685B69984720AC2F
:104BC000264606F0B1FE03681B69984738B106F027
:104BD000ABFE03685B69984704F8010BF1E73046C8
:104BE00007F0CAFC59EC108B06F09EFE012314223C
:104BF000662106F02EFB06F097FE03685B69984776
:104C000025AF3E4606F090FE03681B6998470446B0
:104C100038B106F089FE03685B69984707F8010B15
:104C2000F0E7304607F0A8FC684B8BF800401B7893
:104C300057EC106B002B72D005F084FD119005F03D
:104C400075FD044605F086FD834605F04BFD10908A
:104C500005F054FD0F9005F05DFD109A0F99119B22
:104C60000490CDE901B20391594A0094102112A891
:104C700002F0B2FF5748037C2BB9574944F2022295
:104C80001030FFF74DFC4946404607F001FC07F0A5
:104C9000EDF8CDE90C01514B186807F0E7F8CDE9C4
:104CA0000A014F4B186807F0E1F8CDE90801DAF87E
:104CB000000007F0DBF8CDE906013946304607F081
:104CC000E7FB07F0D3F8CDE90401464B186807EE7F
:104CD000900AF8EEE77A17EE900A07F0C7F838A3C3
:104CE000D3E9002307F044FACDE902013E4B1868EE
:104CF00007EE900AF8EEE77A17EE900A07F0B6F89A
:104D00002FA3D3E9002307F033FA12AACDE900015B
:104D100036493048FFF71EFB354801F09FFD354C02
:104D200002F0D2FB2368834244D202F0CDFB00F6AE
:104D3000C410206002F0C8FB00F23930286006F091
:104D4000F3FD632106F09BFA06F0EEFD7221FFF7FA
:104D500088FA06F0E9FD06F099FA06F0E5FD64210F
:104D600006F08DFA06F0E0FD7221FFF77AFA06F000
:104D7000DBFD06F08BFA06F0D7FD652106F07FFA21
:104D800006F0D2FD7221FFF76CFA06F0CDFD06F0B9
:104D90007DFA06F0C9FD662106F071FA06F0C4FD41
:104DA0007221FFF75EFA06F0BFFD06F06FFA124BB4
:104DB00001221A702BB0BDE8F08F00BFAFF3008066
:104DC0000000000080842E4174DE03206DDF03208C
:104DD000A1E90B007CDF032079DE032080E50320BE
:104DE0007CE5032074DF0320C0DE0320BAE90B005A
:104DF0008CDF032088E5032078DE032084E5032090
:104E00002DE9F04F3C4EDFF80481DFF8049189B0C2
:104E100000AF06F04DFD03681B699847002866D077
:104E200006F046FD0A220146384604F053FCBB68F2
:104E3000073323F007036D46ADEB030DEA4600236D
:104E4000B9681FFA83FB8B4503F1010407D2594669
:104E5000384603F0DFF923460AF80B00F0E7012992
:104E60000AD90139384603F0D5F90D2801BFBB68CE
:104E70005344002203F8012C012202215046FFF77F
:104E800001FC06F0A1F8314604F09DFB06F09CF809
:104E9000396804F098FB9AF80030423B012B03D8A4
:104EA00002F012FBC8F8000099F80030D3B11348A3
:104EB000037C2BB9124944F202221030FFF730FB79
:104EC000394607F1100003F05BF90E490B4807F172
:104ED0001002FFF73FFA07F1100003F0BBF80A4891
:104EE00001F0BCFC384603F0B5F8AD4691E7243735
:104EF000BD46BDE8F08F00BFD2E90B0014DF0320F0
:104F000097DE0320E4E90B0024DF03205CDE0320AE
:104F10006CDF03202DE9F043ADB006F055F8614990
:104F200004F051FB604961480022FFF7F9FA48B9E3
:104F30005F4B187006F048F85E492DB0BDE8F043AD
:104F400004F041BB06F040F85B495C4D04F03BFBCC
:104F500003F0AEFC03F00AFD044648B903F0A8FCD8
:104F60002246294603F055FD0A2005F015FCEFE71F
:104F700006F02AF852494D4F524DDFF86C8104F08B
:104F800022FB00223946284601F0F5FBF8B103F078
:104F90008FFC03F0EBFCD0B11E2201A9284600F0E3
:104FA0004EFE06F011F8414601AAFFF7D3F901A819
:104FB00007F0B5FB01AB0438184407F0B9FB4249D0
:104FC00007F0FCFBD8B9284601F048FCD9E7374880
:104FD00001F044FC2622002109A807F015FB3B49FB
:104FE00009A807F077FB0023262209A9384803F017
:104FF0004FFB2F4B00221A702DB0BDE8F083262204
:10500000002109A807F000FB3249334EDFF8C090B9
:1050100009A807F05FFB01A909A807F02BFB05F021
:10502000D3FF2E4909AAFFF795F90023262209A9E3
:10503000274803F02DFB05F0C7FF294901AAFFF718
:1050400089F9962005F0A8FB05F0E4FF3046FFF74C
:1050500044F8044688B16422002113A807F0D4FA6A
:1050600013AA64230D21304604F01BFB00236422A5
:1050700013A9484603F00CFBE8E705F0CDFF262214
:10508000214609A807F0C0FA164909A807F022FB33
:105090002346262209A90E4803F0FAFA962005F0C5
:1050A0007BFB90E705EA0B0022EA0B00F0DE032011
:1050B000E8E0032024EA0B0051EA0B0064DE032041
:1050C00071EA0B008CDF0320AFEA0B00B4EA0B009F
:1050D000E0E00320BDEA0B007CDF0320C6EA0B0002
:1050E000D9EA0B0001EB0B0086EA0B0038B5046827
:1050F00005467CB16368013B63605BB92368204669
:105100009B689847A368013BA3601BB923682046AE
:10511000DB689847284638BD2DE9F04784B002AFD8
:10512000804691461E460D4607F0F9FA093020F0F8
:105130000701ADEB010D404607F0F1FA97F828A002
:10514000254902AC03464246204602F03DFDBAF135
:10515000000F01D1042D0CD1204B21491B788DF873
:10516000003038463C23224605F0E8FC381DFFF7A6
:10517000BDFFB9F1000F01D1012D21D103F098FB42
:1051800003F0F4FBE0B1204607F0C9FA073020F045
:105190000700E846ADEB000D204607F0C0FA0DF120
:1051A000080902462146484607F006FA204607F05D
:1051B000B6FA0023024649460A4803F069FAC54692
:1051C0000EB9022D04D106F073FB214604F0FBF961
:1051D0000837BD46BDE8F0870AEB0B0060DE032010
:1051E00011EB0B00D4E5032030B5274D2B789DB093
:1051F000002B46D0412200210BA807F005FA234BD3
:105200000893234BDFED236A93ED007A224B27EEC0
:10521000267A0024BDEEC77A8DED077A93ED007AE9
:105220001E4B27EE267ABDEEC77A8DED067A93EDFA
:10523000007A1B4B27EE267ABDEEC77A8DED057AF4
:10524000D3ED007A174B67EEA67AFDEEE77ACDED47
:10525000047A186806F00AFECDE90201124B1868BC
:1052600006F004FE0122CDE9000110490BA802F06E
:10527000ABFC29780094234622460BA8FFF74CFF8D
:105280002C701DB030BD00BFE9E00320880D010087
:1052900080E5032000007A4478E5032084E50320BC
:1052A0007CE5032070DF0320BCDE032019EB0B003C
:1052B00070B52C4E337890B0002B49D02A4A2B4B36
:1052C00010681B78079306F0D1FDCDE90401284A48
:1052D000284C106806F0CAFDCDE90201264A079B5A
:1052E00012782649009209A8012202F06DFC05F00F
:1052F0006BFE09A904F067F905F066FE21880546F2
:105300000A2204F06AF9284604F051F91C4B1B7874
:1053100003BB1C4B1B78EBB92388F3B113F00303D9
:105320001BD10122009219461A4609A8FFF7F4FE84
:1053300023880BB1013B238000246420347005F0E6
:105340002BFA11480094234601222146FFF7E4FE80
:1053500010B070BD4FF4F073238000210123009141
:105360001A46E2E7D0E5032070DF032070DE032059
:10537000BCDE03204ADE0320B0E503203DEB0B003A
:1053800018DE032058DE032056EB0B0008B5FFF7AC
:10539000B3FBFFF735FDFFF78BFFFFF78FFB064BE6
:1053A0001B780BB1FFF7B6FDFFF71EFFBDE8084005
:1053B000642005F0F1B900BFE8E0032070B5D0E942
:1053C00000531426044606FB0356AE4204D028467A
:1053D00002F040FE1435F8E7206802F0E5FB2046B5
:1053E00070BDF0B516468FB00022C0E90022044619
:1053F0000D4609AF194604A803F00CF91499384674
:1054000003F008F9169B0293159B2046CDE9007323
:10541000324604AB294603F073FE20460FB0F0BDC0
:1054200013B50B4C2178BFF35B8F11F001010BD149
:1054300020460191FEF742FE019928B1054802F08D
:1054400077FC2046FEF73FFE024802B010BD00BFC9
:105450000CDE032010DE032008B5FFF7E1FF4FF656
:10546000FF72002102F082FCFFF7DAFFBDE808407E
:105470000149012202F018BD40420F002DE9F0431E
:10548000AE48AF4E037CAF4D03F0030343F0780307
:1054900093B0037400220121043002F097FA012135
:1054A000022006F0BFF900210220002406F0CBF90B
:1054B000B42702F009F85A2333702B704FF47A7234
:1054C000CDE900474FF4FA6306219F4802F084FDBE
:1054D0004FF47A724FF4FA63CDE9004705219B48F7
:1054E0009B4F02F079FD317897489A4E02F038FDD3
:1054F0002978964802F034FD4FF4FA6005F04CF933
:1055000003F0D6F903F01EFA03F0D2F9082103F0F4
:1055100020FA05F059FD4FF4165105F045FD06F04F
:10552000C7F94FF4165105F01BFEFFF795FFFFF783
:1055300097FAFFF7ADFAFFF77FFA874B01251D7049
:1055400001F0C2FF854B186001F0BEFF844B18606C
:1055500001F0BAFF834B3D701860834B35701C60BF
:10556000824B1C60824B1C70824B1C70824B1C70E7
:10557000824B4FF4F0721A80814B32221A7003F082
:1055800097F9804A01460DA803F0E4FE0DA803F048
:1055900094FA03F08DF97C4A01460DA803F0DAFE77
:1055A0000DA803F08AFA03F083F9784A01460DA8A2
:1055B00003F0D0FE0DA803F080FA754B1D70754BFB
:1055C0000DA8196803F026F80DA802F085FF05461E
:1055D0000DA8002D40F0848002F09AFF0095ADF8F0
:1055E0002400022309AA03216B4803F091FB002346
:1055F00067496948082203F0A9FB03F059F9002222
:10560000654903F006FA06F08FF905F005FE06F08D
:105610008BF9624905F0FCFD05F094F8079005F060
:1056200085F8044605F096F8054605F05BF88046D7
:1056300005F064F8814605F06DF8079B584A009420
:10564000CDE903901021CDE9015809A802F0C4FA70
:105650005449554807F03EF809A9534807F00AF89D
:105660005149524807F036F851494F4807F002F8BF
:1056700050494E4806F0FEFF05F0A6FC4A4903F0EB
:10568000A2FF05F0A1FC494903F09DFF4A486FF0D5
:105690000041FEF7CFFD49486FF00041FEF7CAFD1B
:1056A00047486FF00041FEF7C5FD464B0D930023C0
:1056B0008DF83830444B0F93444801230DAA08213C
:1056C000ADF84030FEF7A0FF044680B905F07CFC41
:1056D0003F4903F078FF3C70347013B0BDE8F083AD
:1056E00002F018FF00940246102307217CE73B7864
:1056F0007BB13848037C2BB92B4944F2022210308D
:10570000FEF70EFF3449334803F05DFF334801F0E4
:10571000A5F83378002BE0D03148037C2BB923491E
:1057200044F202221030FEF7FBFE2E492C480122E3
:10573000FEF710FE2C4801F091F8CEE790E503202B
:105740008CE503208DE5032028DE032038DE0320CE
:105750006DDF03206CDF032079DF032088E5032061
:1057600074DE0320B8DE03205CDE032024DE032089
:1057700078DE0320E8E00320E9E003204ADE03208E
:1057800070DE0320D4E50320ECE00320E0E00320FA
:1057900019DE03200CDC032064DE0320801A0600DF
:1057A000A1E90B0064EB0B0079DE032097DE0320F8
:1057B000AFEA0B006DEB0B00E0E50320C4DE032035
:1057C000B4E5032028EC0B0000127A00F4E003207B
:1057D00076EB0B007CDF03209BEB0B008CDF0320C0
:1057E00014DF0320F1EB0B0024DF03208842F8B51F
:1057F00004460D46164616D9904215D2A2F114065B
:10580000751AA1F114072C44B7421CD02CB13146B3
:10581000204602F09BFC337C2374304602F01AFCD5
:10582000143E143CF0E70ED0B5420CD02CB1294602
:10583000204602F08BFC2B7C2374284602F00AFCE5
:1058400014351434F0E7F8BD2DE9F0410023C0E928
:10585000003383604F689F4204460E4623DD4FF0BD
:10586000140808FB07F002F097F90546D8B1D4E90F
:10587000001208FB0212FFF7B9FF206802F094F94A
:105880002560A760D6E9007308FB0378B84508D007
:105890003946284602F074FC3B7C2B7414371435CF
:1058A000F4E7736863602046BDE8F0812DE9F041BC
:1058B0007C4B7D4C01251D707C4B0022C3E90022EE
:1058C000A2F580329A6092B0032002F091F87849F4
:1058D0007848642200F05EF9774801F061FD237892
:1058E000BFF35B8FDB070AD42046FEF7E7FB30B13E
:1058F0007248294602F01CFA2046FEF7E4FB704B82
:10590000704D6422C3F860246F4AC3F870240024E9
:1059100001266A4A5C60C3F83C44C3F8684483F8D3
:105920007464C3F87844A3F87C44C3F86C24674BD0
:10593000674A1A604FF47A775C609F601C61654B20
:1059400007941A60C3E901471C61634B1A60C3E9FD
:1059500001471C61CDE9054405F036FB05A98046E9
:1059600008A8FFF771FF08A90BA8FFF76DFF5B4BB5
:105970002B600BA90EA8FFF767FF0EAA1E21281D9A
:1059800004F03AFB0EA8FFF719FD0BA8FFF716FD70
:10599000534B2B60C5F8208008A8FFF70FFD514B33
:1059A0002B6005F011FB4FF4165105F0FDFA04F0E1
:1059B00005F8294604F0F6F905A8FFF7FFFC4A4868
:1059C0004A4DDFF8848102F0F3FA494802F0F0FA18
:1059D000CDE901442B680093464B47491B68474873
:1059E0004FF01002FFF7FDFC454B029401932B682A
:1059F0000093444B44491B6844484FF00402FFF7AE
:105A0000F0FCCDE901442B680093414B41491B68F0
:105A10004148424D4FF01002FFF7E3FC404803F0CD
:105A200082F9404B0E930EAA234643F698213E4836
:105A3000CDF844801095FEF7D9FC0EA8FEF798FC2F
:105A40003A4B0E930EAA234639463948CDE91058F1
:105A5000FEF7CCFC0EA8FEF78BFC364B0E930EAA7D
:105A6000234643F698213448CDE91058FEF7BEFC92
:105A70000EA8FEF77DFC22461421304601F0E0FF1F
:105A8000142203460092019632466FF07F412B4864
:105A900002F026F92A492B4812B0BDE8F04102F085
:105AA00024BB00BF60DE032000DE03204CDE0320A9
:105AB0007CE0032038E00320B0DF032004DE032075
:105AC000F4E0032048DF032028EC0B007CDF0320F8
:105AD00094EC0B0014DF0320E0DE032050EC0B00FD
:105AE00018F00B007CEC0B0028DE03200CDC0320FC
:105AF00038DE032018DC032016EC0B00D4E503206D
:105B000091490B0014DC032019EC0B00ECE003209E
:105B100010DC03201CEC0B00E0E003201D420B0016
:105B200064DE032031450B00E0E5032065440B00F3
:105B3000C4DE0320F9400B00B4E5032090E5032008
:105B4000E0EF0B00FCE5032031420B00C0E901113E
:105B5000027032B100220A70017843680B4403F8E6
:105B6000012C70470023094AC374037580F8243060
:105B70000363074B4363C0E906224FF47F434FF0B2
:105B80000042C0E90A22026203877047C0878B3B4C
:105B90006363630038B50024C0E90F440473C0F8A0
:105BA0000D40A0F81140FFF7D1FFFFF7DBFF38BD34
:105BB000042904D800EB4100B0F8010070470A291D
:105BC0009BBF01F1FF3100EB41000131C08884BF70
:105BD00000EB41008088704710B50446243000F087
:105BE00069FF28B104F50C70BDE8104000F062BFF9
:105BF00010BD411E00F10A030020420842EAC01015
:105C000011F8012F52FA80F08B42C0B2F5D17047E3
:105C100038B5CB6804460D4623B9BDE838408968DD
:105C200000F016BC2422002106F0EEFC1023012017
:105C30002370A070AB68A360EB68236238BD2DE9C8
:105C4000F04F8DB003784FF0000906460F4690469E
:105C5000CDF80C90002B5DD00C2A5BD9C37833B9FA
:105C600000F046FB044620460DB0BDE8F08F01462B
:105C700003A8FFF7CDFF00284CD007EB08034FF037
:105C8000010B4FF00D0A0093F3785FFA8BF5AB42EE
:105C900040D3B188A1EB0B01490103A800F0BEFC81
:105CA0000446002836D0002103A800F098FC0346E3
:105CB00080B3C27A0F2A2DD1027802F01F02AA42C5
:105CC00028D10BF1FF350AFB05F57A19002118469A
:105CD0000191FFF76DFF68B1A84512D90199013113
:105CE0007F28C9B228BF3F200D2902F8010B05F11A
:105CF0000105ECD1A84504D91A78520648BF07F827
:105D00000590009A02F8019C1B785B060BF1010BD1
:105D1000BAD5A8E700243C70A5E700002DE9F047BC
:105D2000064610F8013B202BFAD06A4D8E60002405
:105D3000335DC3B12F2B16D05C2B02D10020BDE800
:105D4000F087A3F12200C0B21D2803D825FA00F085
:105D5000C007F3D403F0BF003C28EFD0203B5E2BFC
:105D6000ECD80134E4E733191846074610F8015B14
:105D7000202DFAD02F2DF8D017604CB113F8012D3B
:105D80002E2A01D0202A01D1013CF6E7FF2CD5DCD8
:105D90004FF02033C1F811304C60C1F80D304B6129
:105DA0004FF0000816F808302E2B01D0202B02D11E
:105DB00008F10108F6E7B8FA88F04009651E6B1C87
:105DC00002D0735D2E2B14D14FF0000907274A46ED
:105DD000CA464FF0080EA04568DA16F80830202BA6
:105DE00003D02E2B07D1A84512D0002008F10108BE
:105DF000F1E7013DE3E7222B08D07C2B06D0A3F18D
:105E00002A0CBCF1050F0AD82D2B12D0A8455BD166
:105E10000A2F4AD00A2708224FF0100EE6E7A3F116
:105E20003A0CBCF1050FF1D9A3F15B0CBCF1020FE8
:105E3000ECD9A3F1210CBCF15D0FE7D8A845E7D060
:105E4000BA4230D8A3F1610CBCF1190F1AD8203B2B
:105E50004EEA0909DBB25FFA89F902F1010C5FFA37
:105E60008CFC0A44BCF1060F537301D881F80CC0B6
:105E70006246BBE7A84518DCA8460A2708224FF06F
:105E8000100EB2E7A3F1410CBCF1190F98BF4EEA16
:105E90000A0AE2E70B7B0120087019447E234B734A
:105EA00031238B734BE70A2FE4D100204B7B202B4F
:105EB0003FF444AF0028EDD01AEA090F18BF4FF0A5
:105EC000020981F800903AE7BA42ECD800205F233B
:105ED000C3E700BF010100312DE9F84391F80C90B0
:105EE00006460C4602257E2701F10D086168A2686E
:105EF0006B189BB21144914206D012F8010B03EBD0
:105F0000431343409BB2F6E7B9F1030F28BF4FF0AC
:105F1000030909F10402D2B203F00F01A018013AFB
:105F20000929D2B294BF30313731914541734FEADC
:105F30001313F1D104EB090300215F73304600F025
:105F40006DFB0121304600F04AFB014628B970780C
:105F5000B0FA80F04009BDE8F88303786BB1C37AEA
:105F60001B07EED40B22404606F016FB0028E8D1B2
:105F70000135ADB2642DB9D1EDE70120EBE70000AA
:105F80002DE9F04F2DED028B8BB00D4606930B786B
:105F9000079013F0700F174605D100200BB0BDEC31
:105FA000028BBDE8F08F079B1B78002BF5D153685F
:105FB000059313789C071FBF059B0C330D22B3FB81
:105FC000F2F31ABF0133DBB2012300212846039309
:105FD00000F024FB07F10D034FF0000B08EE103A20
:105FE000DA465C465E46CDF810B0D9466B690121B1
:105FF0002846C3F34F1800F0F2FA0346002871D187
:106000006B78002BC9D1069B9A05C6D503F0030314
:10601000013B012BC1D8049B002C08BF43460493CD
:10602000039B9C42C0F0F180B9F1000F40F00A815F
:10603000049B2846590100F0F1FA0028ADD0039BDB
:1060400003F1FF395FFA89F94E464FF0000A4FF02D
:106050000F08002E00F00D810021284600F0BFFA45
:106060000446002899D0AA6892F824304E4543F09F
:1060700001030CBF46F0400BB34682F8243080F891
:1060800000B080F80B8080F80CA007F10D00FFF73E
:10609000B0FD84F81AA0607384F81BA00BF01F03F6
:1060A0000D22013BD7F808C05343002205999942BD
:1060B00040F2D0801CF80310042A5FFA82FE02F13D
:1060C000010000F2CD8004EB4202A2F801100D287D
:1060D00003F101030246E9D1013EF6B2B9E74FF000
:1060E000010983E70278E52A00D07AB90499002CE7
:1060F00008BF4146049103998C423CBF0134E4B28D
:10610000002A80D0E52A05D100266FE703998C424A
:1061100038BF00242E2AF7D0D97A0F294AD116BBCE
:1061200012F040063FF462AF02F01F0693F80DB084
:10613000B2460D220AF1FF3802FB08F8059A4245E3
:10614000E2D9A2EB08020892002202EB08010991B1
:106150001846D1B2FFF72CFD08998A420DD10028CC
:1061600018BF002642E70AF1FF3A5FFA8AFA524561
:10617000CAD15A7B5A45DCD0C6E7FF28C4D85FFA9B
:1061800080FEAEF141011929B9689CBF0EF12000D3
:106190005FFA80FE08460999415CA1F1410CBCF10F
:1061A000190F9CBF2031C9B27145ADD101320D2A02
:1061B000CBD11BE70807A7D45EB1BAF1010F7FF47A
:1061C000ECAE1846FFF715FD58457FF4E6AEB14634
:1061D0000EE018EE101A0B22184606F0DDF9002822
:1061E0007FF404AF97F8009019F001097FF477AFBE
:1061F000069B19053FF5D1AE069B0798CDF8009098
:106200004246294600F04DFAC8E60021284600F033
:10621000E6F9A0B96B78002B7FF4BFAE284600F0FA
:106220009FF800283FF4B9AEAB681B79012B3FF60D
:10623000FBAE039B1034E4B2A342EFD8F4E6013482
:10624000E4B2EDE639462846FFF746FE00287FF423
:10625000EFAEA2E614BF4FF0FF31002189B22BE769
:10626000BEF10A0F94BF04EB420204EB400291809E
:106270002DE731462846D5F8148000F0B0F90446E1
:1062800000283FF48AAE2022314606F0BDF9D7F847
:106290000D302360D7F811306360B7F815302381D3
:1062A000FB7DA3723B7803F0180323730F4B1B682D
:1062B0009BB104F10E0104F110009847238A638218
:1062C0002383E389E382AA6892F8243043F0010330
:1062D000C8F34F1882F824308EE721232374282333
:1062E00063740823A673E373E8E700BF0CE603209A
:1062F00010B50C46017809B9002010BD11F06001FD
:1063000005D02F232370002363700120F5E700F0F0
:1063100065F80028F0D0214600F06FF8F5E738B5B1
:1063200004460D462422002106F06EF9A560EB79A3
:10633000102B03D0202B06D0002038BD20230120B5
:106340002370A070F9E74023F9E78378016943F0EF
:106350000403837000F11002806800F061BC00004B
:106360002DE9F041017811F02005044603D0002604
:106370003046BDE8F0814269174B9A42F7D2FFF7E9
:10638000E4FF06460028F2D02169A06800F0DDFB9A
:106390000746A06805223946243000F0B3FB80464A
:1063A0000028E4D029464FF4007206F02DF90125AB
:1063B000A3681A79AA4209D918684246E91900F077
:1063C0000EFF0028D3D00135EDB2F1E7636903EB8E
:1063D00042236361CCE700BF00FE1F0010B50446F6
:1063E00080680A462430A16900F08CFB20B1A388A4
:1063F00003F00F0300EB431010BD0023F0B504467B
:10640000451E082618462E2715F8012F202A18D0D9
:10641000082B02BF0F54421CD0B22A78A2F1410CC3
:1064200008BF1026BCF1190F06D894F80CC016EA64
:106430000C0F1CBF2032D2B200F1010C0A545FFADB
:106440008CF00133DBB20B2BDED100230B54F0BDFB
:1064500003780BB9FFF763BF002070472DE9F74FB2
:106460000378044688461546002B5DD08278D10714
:106470005AD51A072DD5C36942699B1A9D4228BF78
:106480001D462E464FF0000904F1100B002E00F0BF
:106490008F8022786369A0689706C3F3080A4FEAE1
:1064A00053211FD5006A0144A068BAF1000F42D100
:1064B000B6F5007F3FD3C36A99423CD0B6F5806FF2
:1064C00052D20068424600F001FE68B34FF40077F4
:1064D00044E09B06D5D583681A894369C3EB421310
:1064E0009BB2CBE790F8059009EA0109BAF1000FD9
:1064F00008D1B9F1000F05D15BB951064CBF036A51
:10650000236A23612169A06800F01FFB09EB0001E9
:10651000CAE721695A4600F01EFB002804DBF1D1CE
:10652000237813F0700F43D1637843F00203637054
:106530004FF0FF303DE0CAF50077B7424FF0000260
:1065400000F1240028BF374600F0DCFA0028EBD029
:1065500000EB0A013A46404606F02EF863693B44D8
:10656000B8446361F61B91E7227892064FEA562AF7
:1065700006D40279A2EB0902D2B2924528BF924614
:1065800099424FEA4A2708D2A0685346006842461B
:1065900000F0E4FD0028E1D1C6E753448B42F3D973
:1065A0002430019100F086FA01990028ECD1BBE774
:1065B000A81B03B0BDE8F08F73B501220DF10701F0
:1065C000D0E904560446FFF749FF01280ABF9DF8A9
:1065D00007004FF0FF30C4E9045602B070BD37B574
:1065E000436913F4F07F0446C3F3431500D099B90F
:1065F00001220DF107012046FFF730FF40B20128CC
:1066000002D0002003B030BD63691F33A06863610E
:10661000303000EB4510F5E72033F7E72DE9F04186
:106620000278076904460D4662B14069884202D08B
:1066300019B921616561012006E0160706D5E369F5
:106640008B420BD227610020BDE8F081910605D571
:10665000A3681B89B5EB431FECD9F3E7D4F808C056
:106660009CF80660431E06F109016E1ECB40CE4029
:10667000B34200D898B953064CBFDCF82030236AE7
:10668000236104F11008002ED4D02169A06842468D
:1066900000F061FA002806F1FF36F4DCD2E7F61AC2
:1066A000EFE7F8B50F4604461546002124221E46A2
:1066B00005F0AAFFB868A060A58005F00F053B6A49
:1066C000E3606A0100EB451595F83B301F0744D4A1
:1066D00003F01703237095F83B1011F0180F04BF57
:1066E00043F0080323709DF81830E37006F00303AD
:1066F000012B2CD0022B28D07BBB71052DD401237C
:10670000A370A1788B0704D52378DF0625D4DD0795
:1067100023D4B31123F07F0306F008052B430B436A
:10672000A370C36AA3618318B3F84420B3F84A1076
:1067300041EA0241720513D559B9A37843F0040325
:10674000A370730410D40120F8BD0323D8E70223FB
:10675000D6E700F0A0FA0028EFD100202070F3E780
:106760002162DB6CE361ECE7E1692046FFF756FF4D
:106770000028E8D1F1E72DE9F347037807460D46F5
:10678000924653BB0B7813F0700F26D04C6914F06F
:106790001F0422D1A04600212846D5F81490FFF707
:1067A0001EFFD0B10678C6B12E2E10D0E52E0ED029
:1067B000C37A1A0713D464B900945346C9F34F122D
:1067C00029463846FFF76DFF02B0BDE8F087002488
:1067D000E1E7FFF70EFA4045EED00020F4E70F2B7B
:1067E000F5D17306D7D590F80D8006F01F04D2E7D7
:1067F00038B5037804460BB9012038BD83785A07B1
:1068000023D50121FFF7EAFD054628B9637843F057
:10681000010363700020F0E70378E52BF6D02378BE
:106820001B0744BFE369C361236A4383638C83828C
:10683000094B1B682BB100F11601183098472B8BC0
:106840006B82A37823F00403A370A068FFF7C4F958
:106850000028DBD0D0E700BF0CE6032010B50446CB
:10686000FFF7C6FF0023237010BDF0B593B01F469D
:10687000002309930378019206460C4613B10020C9
:1068800013B0F0BD0B7813F0700FF8D013782F2BE6
:1068900012D1019A13782F2B02D101320192F8E71D
:1068A000A1681BB93046FFF7D3FDE9E709A8FFF758
:1068B00036FD0028E3D009AC019801AA03A9FFF72F
:1068C0002DFA0028DBD0019B1B789BB1002303AA83
:1068D00021463046FFF754FB0028D0D035460FCD77
:1068E00009AC0FC40FCD0FC42B6823603046FFF7EF
:1068F000B5FFE0E73B4603AA21463046FFF740FBE1
:10690000BEE700002DE9F0470378894619070446E1
:1069100017465BD583789A0758D51B0751D463690E
:10692000DB43BB4252D3B84604F1100A6669B8F1A2
:10693000000F00F09180A0684379C6F3080513EAC0
:1069400056260ED16DB92169002946D0524600F075
:1069500002F900283ADB04D12046FFF7F6FC0028B4
:1069600034D02169A06800F0F0F83118A06815B99A
:10697000B8F5007F3FD2C5F50076464528BF4646AC
:10698000002D36D16269E3699A4234BF01220522A3
:10699000243000F0B7F8C8B128443246494635449F
:1069A00005F00AFEB5F5007F04D1A068243000F0A0
:1069B00081F858B1636933446361B144A8EB0608B8
:1069C000B4E7C169FFF72AFE0028A8D1637843F035
:1069D000010363704FF0FF3050E0236A3BB920465B
:1069E000FFF7B3FC0028F1D023692362B9E72361E4
:1069F000B7E70122CCE7B8F5806FC26A1BD390F8E5
:106A000004C0ACEB0606F3B24FEA582E734528BF1C
:106A1000734691424FEA432607D31A448A4282BF03
:106A20004FF0FF3280F82450C262A5684A462868B9
:106A300000F04BFCBDE7914202BF4FF0FF3380F8FE
:106A40002450C362A3684A46186800F0C8FB0028B7
:106A5000BCD04FF40076ADE7E269A378B24204D22D
:106A6000E66143F00403A37003E0084A1268002AB9
:106A7000F7D194F90230002B02DB3846BDE8F087ED
:106A80002046FFF7B5FE0028F7D19FE70CE603206C
:106A900013B50446084659B1019105F040FE23683C
:106AA0000199DB680246204602B0BDE81040184755
:106AB00002B010BD37B50378DA07044620D5436825
:106AC000816800F10C021868019200F088FB019ABD
:106AD000054618B90025284603B030BD23789B072A
:106AE00004D4237823F001032370F4E7D4E90130C0
:106AF00019690144186800F072FB0028F1D1E9E738
:106B00000125E8E770B583688B4204460E461546BA
:106B100009D0FFF7CFFF08B9002070BD6B070AD579
:106B200000232370A660227805F003052046154354
:106B300000F80C5BF1E7636804F10C021868314659
:106B400000F0C4FA0028EBD1E6E783794069023906
:106B5000994008447047012970B505460C46164611
:106B600002D84FF0FF3070BDC3698B42F9D3C379AF
:106B7000202B16D18169022201EBD41100F50C7093
:106B8000FFF7C0FF0028ECD004F07F0450F8243059
:106B900023F07043EA699A4226BF33600120002047
:106BA000E1E7102BDDD1C1F30723816902221944EB
:106BB00000F50C70FFF7A6FF0028D2D0E4B230F841
:106BC0001430E7E7012938B50C46154601D80020F6
:106BD00038BDC3698B42FAD3C379202B0FD18169A9
:106BE000032201EBD41100F50C70FFF78BFF002896
:106BF000EDD004F07F0440F824500120E8E7102B8A
:106C0000E5D1C1F3072381690322194400F50C7013
:106C1000FFF778FF0028DAD0E4B220F81450ECE750
:106C20002DE9F341C4688C4205460E46904601D3D7
:106C3000012701E00C460027EB690134A34202D290
:106C4000C7B9EC68F4E7A64214D001AA2146284649
:106C5000FFF781FF00280DDBEED0019B002BEBD16D
:106C600007B1EC606FF0704221462846FFF7AAFF9B
:106C7000074620B90027384602B0BDE8F08116B9B2
:106C8000C8F80040F7E7224631462846FFF79AFF4A
:106C90000028F5D1EEE773B505460C4601AA21465A
:106CA0002846FFF758FF061E10DB00222146284623
:106CB000FFF788FF50B1EB68A34224BF04F1FF3413
:106CC000EC60019C002EE9D102B070BD0020FBE712
:106CD000012370B50022C3604FF0FF330446C27138
:106CE00000F12406806280F82420C362C0F83402D8
:106CF00080F83022C0F838320D46B9B1042901D9E4
:106D0000002070BD11463046FFF7FCFE0028F7D08A
:106D100000EB051393F8AE315B06F1D105F11B01D1
:106D200000EB0110D0F80650002DE9D000222946D2
:106D30003046FFF7E7FE0028E2D0B0F80B30B3F59D
:106D4000007FDDD1037C022BDAD1C389002BD7D0A1
:106D5000417B21714B1E63710023A371092601231E
:106D6000994207D0013ECBD0A2795B000132DBB261
:106D7000A271F5E7C18A01B9416A2161C3892B4437
:106D8000A361B0F81120228103EB41032362B0F824
:106D90001110490101F2FF1103EB51236361B0F8B7
:106DA000132002B9026AE91AA3791144D9404B1C95
:106DB000E36140F6F473994202D80C23E3719FE734
:106DC0004FF6F473994285BFC36A236210232023D0
:106DD000E371012095E700F0CBBA00F0AEBA0000F5
:106DE00070B50E4E0D46144600F066FB3368C01AAF
:106DF0000B4B984208D900F067FB0A4B186000F073
:106E00009BFE00F059FB306000F05EFB80B2401B3F
:106E1000A042D4BF0020012070BD00BF14E60320B3
:106E2000A086010040E7032038B5057A04464DB935
:106E3000406800F06BFA63682946187D04F003FD92
:106E40000123237238BD10B5037A04466BB1436841
:106E50000121187D04F0F7FC6068FF21FFF7BBFFFC
:106E6000606800F067FA0023237210BDF8B504468D
:106E70000D46164600F028FB87B26068FFF7ADFFAD
:106E8000FF2860720ED14FF47A7239462046FFF720
:106E9000A7FF0028F1D0552320462370FFF7D3FF2A
:106EA0000020F8BDFE2801D05023F5E76068324687
:106EB000294600F047FA607208B16023ECE7606889
:106EC000FFF78BFF6068FFF788FF0120E9E770B5E7
:106ED00004460E4600F0F8FA85B2324629462046AE
:106EE000FFF77EFF30B96068FFF777FFFF28F4D126
:106EF000012070BD0020FCE7F7B5037A019204463B
:106F00000D460BB9FFF790FF25B14FF4967120465F
:106F1000FFF7DDFF606845F04001FFF75CFF0326E7
:106F200001AFB95D6068FFF756FF013EF9D2002D51
:106F300060680CBF95218721FFF74DFF6068FFF760
:106F40004CFF0B256068FFF748FF0306607203D50E
:106F5000013D15F0FF05F5D103B0F0BD70B5044655
:106F60000D46164637210022FFF7C6FF3246294656
:106F70002046BDE87040FFF7BFBF00002DE9F0419B
:106F800000250572057085724160044690461E46D4
:106F900000F09AFA41460746606800F0BBF9636862
:106FA000494A1D720125DA601D822046FFF73CFF29
:106FB00063682946187D04F046FC0A256068FF21B5
:106FC000013DFFF708FF15F0FF05F7D1636829467B
:106FD000187D04F038FC0A25002211462046FFF7F0
:106FE0008BFF0128804618D0013D15F0FF0507D121
:106FF000202320462370FFF726FF0020BDE8F08104
:107000006068FD21FFF7E7FE4FF402786068FFF744
:10701000E4FEB8F10108F9D1DEE74FF4D57208219A
:107020002046FFF769FF052814D184F80A8000255F
:10703000BFB22A4629212046FFF790FF0246D8B169
:107040004FF4FA6239462046FFF7CAFE0028F0D016
:107050004323CEE704256068FFF7BFFE013D15F02E
:10706000FF056072F7D1AA2804D10223A3724FF062
:107070008045DDE72523BCE7A37A022B18D13A210E
:107080002046FFF739FF08B13723B2E76068FFF702
:10709000A4FE00F0C000C02804BF0323A3726068F0
:1070A000FFF79BFE6068FFF798FE6068FFF795FEAC
:1070B0002046FFF7C8FE63683079B168B2891A824A
:1070C0001872D960012099E790D0030038B5837A0F
:1070D000032B18BF490215460A4611210446FFF743
:1070E0000BFF30B1302323702046FFF7ACFE0025A4
:1070F0000BE029464FF400722046FFF7B7FE054625
:107100000028F1D02046FFF79EFE284638BD10B576
:10711000837A032B0A4618BF4A0212210446FFF75E
:10712000EBFE30B1312320462370FFF78CFE0020A8
:1071300010BD0120FCE710B500220C210446FFF72A
:10714000DBFE30B1282320462370FFF77CFE0020B1
:1071500010BD2046FFF777FE0120F9E7F8B5044699
:1071600016461F46FFF7D3FF68B10025ABB29F421A
:1071700006EB452109D94FF400722046FFF776FE51
:1071800001350028F2D10020F8BD2046BDE8F840C6
:10719000FFF7D1BF38B5044615464068FFF71BFE20
:1071A0004FF400726068294600F0E6F86068FF213D
:1071B000FFF711FE6068FF21FFF70DFE6068FFF723
:1071C0000CFE607200F01F00052806D057232046F1
:1071D0002370FFF738FE002038BD0120FCE770B5B2
:1071E000837A032B18BF490215460A461821044624
:1071F000FFF782FE064630B1322323702046FFF7A8
:1072000022FE00251FE02A46FE212046FFF7C2FF8E
:107210000028F3D04FF4FA612046FFF758FE0546E8
:1072200008B95A23E9E732460D212046FFF764FEEC
:1072300008B12923E1E76068FFF7CFFD0028F8D106
:107240002046FFF700FE284670BD13B501914FF4AC
:10725000FA610446FFF73BFE019A30B95B232370C5
:107260002046FFF7F0FD002005E0FC212046FFF757
:1072700091FF0028F4D002B010BD10B5837A032B23
:107280000A4618BF4A0219210446FFF735FE30B1FD
:10729000332320462370FFF7D6FD002010BD0120C8
:1072A000FCE738B54FF4FA610446FFF710FE0546D7
:1072B00030B9562323702046FFF7C5FD284638BD58
:1072C0006068FD21FFF787FDF5E7F8B5044616462F
:1072D0001F46FFF7D2FF70B10025BD4206EB4521E6
:1072E000204604D0FFF7B1FF28B10135F5E7BDE82E
:1072F000F840FFF7D6BF2046FFF7A5FD0020F8BDF8
:10730000014B01221A70704718E60320011D006826
:1073100000F05CBD10B504460175006800F012FD78
:10732000207D012104F07EFA207D0121BDE810407E
:1073300004F089BA006800F030BD0068FF2100F059
:10734000E5BD000037B51346074A00920025074CFB
:10735000006825700A46294600F0DEFD2378002BE0
:10736000FCD0002003B030BD01730B0018E60320F1
:10737000006800F0CBBD000037B51346064A009206
:107380000025064C006825702A4600F0C5FD2378CC
:10739000002BFCD003B030BD01730B0018E60320B6
:1073A00038B50025422304468560057345610376A0
:1073B000294610225C3005F027F904F119036366B1
:1073C0001022294604F16C0005F01EF904F11B039C
:1073D0006367192384F87C30C4F8805084F88450A3
:1073E000A4F88650204638BD10B504460023237308
:1073F0000846216103F010FF4223237610BD10B52B
:107400000446017E006903F036FF206903F03EFF69
:10741000B0FA80F0400910BD08B5024B1B689B68AC
:10742000019308BD6802030008B5024B1B68DB68C6
:10743000019308BD6802030008B5024B1B685B6836
:10744000019308BD2C02030008B5024B1B689B6822
:10745000019308BD2C02030008B5024B1B68DB68D2
:10746000019308BD2C02030008B5024B1B681B6981
:10747000019308BD2C02030008B5024B1B681B6A70
:10748000019308BD2C02030008B5024B1B685B6A20
:10749000019308BD2C02030008B5024B1B685B6812
:1074A000019308BD1802030008B5024B1B68DB6896
:1074B000019308BD1802030008B5024B1B681B6945
:1074C000019308BD1802030008B5024B1B685B69F5
:1074D000019308BD1802030008B5024B1B689B6DA1
:1074E000019308BD1802030008B5024B1B685B6ED0
:1074F000019308BD1802030008B5024B1B689B6886
:10750000019308BD7802030008B5024B1B681B6C91
:10751000019308BD7802030008B5024B1B681B6D80
:10752000019308BD7802030008B5024B1B689B6DF0
:10753000019308BD7802030008B5024B1B681B6E5F
:10754000019308BD7802030008B5034B1B68D3F80C
:107550009830019308BD00007802030008B5034B82
:107560001B68D3F8A830019308BD0000780203001F
:1075700008B5034B1B68D3F8B430019308BD000075
:107580007802030008B5034B1B68D3F8D830019389
:1075900008BD00007802030008B5034B1B68D3F850
:1075A000DC30019308BD00007802030008B5034BEE
:1075B0001B68D3F8EC30019308BD0000780203008B
:1075C00008B5034B1B68D3F8F030019308BD0000E9
:1075D0007802030008B5034B1B68D3F80031019310
:1075E00008BD00007802030008B5034B1B68D3F800
:1075F0000431019308BD00007802030008B5024B76
:107600001B68DB68019308BD4802030008B5024B04
:107610001B68DB69019308BD4802030008B5024BF3
:107620001B681B6A019308BD4802030008B5024BA2
:107630001B685B6A019308BD4802030008B5024B52
:107640001B689B6A019308BD4802030008B5024B02
:107650001B68DB6A019308BD4802030008B5024BB2
:107660001B685B6C019308BD4802030008B5024B20
:107670001B689B6C019308BD4802030008B5024BD0
:107680001B68DB6C019308BD4802030008B5024B80
:107690001B685B6D019308BD4802030008B5024BEF
:1076A0001B681B6F019308BD4802030008B5024B1D
:1076B0001B685B69019308BD6402030008B5024BB7
:1076C0001B689B68019308BD3C02030008B5024B90
:1076D0001B68DB68019308BD3C02030008B5024B40
:1076E0001B681B69019308BD3C02030008B5024BEF
:1076F0001B685B69019308BD3C02030008B5024B9F
:107700001B689B69019308BD3C02030008B5024B4E
:107710001B68DB69019308BD3C02030008B5024BFE
:107720001B681B6A019308BD3C02030008B5024BAD
:107730001B689B6A019308BD3C02030008B5024B1D
:107740001B68DB6A019308BD3C02030008B5024BCD
:107750001B681B6C019308BD3C02030008B5024B7B
:107760001B681B68019308BD2802030008B5024B83
:107770001B68DB68019308BD2802030008B5024BB3
:107780001B689B69019308BD2802030008B5024BE2
:107790001B68DB69019308BD2802030008B5024B92
:1077A0001B681B6A019308BD2802030008B5024B41
:1077B0001B685B6A019308BD2802030008B5024BF1
:1077C0001B689B6A019308BD2802030008B5024BA1
:1077D0001B68DB6A019308BD2802030008B5024B51
:1077E0001B681B6B019308BD2802030008B5024B00
:1077F0001B685B6B019308BD2802030008B5024BB0
:107800001B681B6C019308BD2802030008B5024BDE
:107810001B681B6D019308BD2802030008B5024BCD
:107820001B681B68019308BD3002030008B5024BBA
:107830001B681B69019308BD3002030008B5024BA9
:107840001B685B69019308BD3002030008B5024B59
:107850001B68DB69019308BD3002030008B5024BC9
:107860001B681B6A019308BD3002030008B5024B78
:107870001B685B6A019308BD3002030008B5024B28
:107880001B689B6A019308BD3002030008B5024BD8
:107890001B68DB6A019308BD3002030008B5024B88
:1078A0001B689B6B019308BD3002030008B5024BB7
:1078B0001B68DB6B019308BD3002030008B5024B67
:1078C0001B681B6C019308BD3002030008B5024B16
:1078D0001B685B6C019308BD3002030008B5024BC6
:1078E0001B681B69019308BD2402030008B5024B05
:1078F0001B685B69019308BD2402030008B5024BB5
:107900001B689B69019308BD2402030008B5024B64
:107910001B681B68019308BD4C02030008B5024BAD
:107920001B685B68019308BD4C02030008B5024B5D
:107930001B689B68019308BD4C02030008B5024B0D
:107940001B681B69019308BD4C02030008B5024B7C
:107950001B685B69019308BD4C02030008B5024B2C
:107960001B689B69019308BD4C02030008B5024BDC
:107970001B68DB69019308BD4C02030008B5024B8C
:107980001B681B6A019308BD4C02030008B5024B3B
:107990001B685B6B019308BD6002030008B5024BD6
:1079A0001B681B6D019308BD6002030008B5024B04
:1079B0001B68DB6E019308BD6002030008B5024B33
:1079C0001B681B6F019308BD6002030008B5034BE1
:1079D0001B68D3F88030019308BD000060020300EB
:1079E00008B5024B1B681B68019308BD2002030009
:1079F00008B5024B1B685B68019308BD20020300B9
:107A000008B5024B1B685B69019308BD20020300A7
:107A100008B5024B1B68DB6C019308BD2002030014
:107A200008B5024B1B685B6D019308BD2002030083
:107A300008B5024B1B689B6D019308BD2002030033
:107A400008B5024B1B68DB6F019308BD20020300E1
:107A500008B5034B1B68D3F88830019308BD0000BC
:107A60002002030008B5034B1B68D3F89430019340
:107A700008BD00002002030008B5024B1B685B68CC
:107A8000019308BD4002030008B5024B1B689B68C8
:107A9000019308BD4002030008B5024B1B68DB6878
:107AA000019308BD4002030008B5024B1B681B6927
:107AB000019308BD4002030008B5024B1B685B69D7
:107AC000019308BD4002030008B5024B1B689B6987
:107AD000019308BD4002030008B5024B1B68DB6937
:107AE000019308BD4002030008B5024B1B681B6AE6
:107AF000019308BD4002030008B5024B1B681B6BD5
:107B0000019308BD4002030008B5024B1B685B6B84
:107B1000019308BD4002030008B5024B1B681B6CB3
:107B2000019308BD4002030008B5024B1B685B6C63
:107B3000019308BD4002030008B5024B1B689B6817
:107B4000019308BD4402030008B5024B1B685B6942
:107B5000019308BD4402030008B5024B1B681B6A71
:107B6000019308BD4402030008B5024B1B685B6A21
:107B7000019308BD4402030008B5024B1B681B6B50
:107B8000019308BD4402030008B5024B1B68DB6B80
:107B9000019308BD4402030008B5024B1B681B6833
:107BA000019308BD1C02030008B5024B1B685B680B
:107BB000019308BD1C02030008B5024B1B689B68BB
:107BC000019308BD1C02030008B5024B1B68DB686B
:107BD000019308BD1C02030008B5024B1B68DB695A
:107BE000019308BD1C02030008B5024B1B685B6AC9
:107BF000019308BD1C02030008B5024B1B68DB6A39
:107C0000019308BD1C02030008B5024B1B681B6BE7
:107C1000019308BD1C02030008B5024B1B68DB6B17
:107C2000019308BD1C02030008B5024B1B681B6CC6
:107C3000019308BD1C02030008B5024B1B685B6C76
:107C4000019308BD1C02030008B5024B1B68DB6CE6
:107C5000019308BD1C020300002240681146FFF793
:107C600043BF002240681146FFF74EBF4068002224
:107C7000FFF742BF4068002281F00101FFF72CBFEF
:107C8000002340681A461946FFF71EBF00234068CC
:107C90001A461946FFF710BF002240681146FFF749
:107CA00003BF002240681146FFF7EEBE4068002285
:107CB0000221FFF7F1BE002340681A46FFF7DCBE41
:107CC000024B03225A60024A1A6070471CE60320E6
:107CD0006CED0B000A680B46926801461846104787
:107CE00070B50E4C046000251C24C0E901459DF8C8
:107CF00014409DF81060C56004F0030444EA860453
:107D0000E4B20474427485744161427C0F2A0ABF54
:107D1000034B0383C0E9063070BD00BF68EC0B0065
:107D2000D57C0B000021FFF7D1BD0021FFF7C6BDB8
:107D300010B5044608462170FFF788FD00236360F4
:107D4000204610BD13B504460078FFF7EEFF58B982
:107D5000207801904FF6FF71FFF760FD019802B0A7
:107D6000BDE81040FFF7DEBF02B010BD13B50446FA
:107D70000078CDE90021FFF7D8FFDDE900210346B7
:107D800048B920780090FFF781FD009802B0BDE867
:107D90001040FFF7C7BF02B010BD0078FFF7C2BFA9
:107DA000400830B51860002418688842E5B206D94A
:107DB0000134082C02D040081860F5E70725024B73
:107DC0005B5D137030BD00BFA0ED0B002DE9F043EB
:107DD00006468FB000780C46FFF7A7FF00281BDB94
:107DE00035781422002109A804F00EFC0B23002290
:107DF00009A92846ADF82430FFF738FD9DF82D304D
:107E000013B19DF82C5055B10027B946B84601254D
:107E100023795DB1C3B100200FB0BDE8F083DDF878
:107E200030809DF834909DF83570F1E7002B35D106
:107E3000A368434508D18DF820908DF82170BDF8D6
:107E40002020A3899A42E6D00023A1688DF80F3044
:107E50000A9804AB0DF10F02FFF7A2FF217985B953
:107E600089B9A36843450ED38DF820908DF8217011
:107E7000BDF82020A3899A4205D1049B434502D135
:107E8000C9E70029F9D100230193637B00939DF892
:107E90000F20237B3078FFF709FDBCE7CDE90055C3
:107EA0002B462A460121F5E72DE9F04188B0002351
:107EB0000446007802930E461746FFF736FF054644
:107EC00000BB94F800800146142203A804F09CFB38
:107ED0000B232A4603A94046ADF80C30FFF7C6FC39
:107EE00004988DF8075002AB0DF1070207FB06F16D
:107EF000FFF756FF20789DF80710FFF797FC2078D2
:107F0000FFF710FF029808B0BDE8F08108B50078CF
:107F1000FFF794FCC0B208BD30B587B004460A9D97
:107F200000950078FFF7AAFC3DB9207802A9FFF779
:107F3000B5FC9DF81430DB07F7D407B030BDB0F9BD
:107F40000020531C0BD0438880888B4203D8884282
:107F5000034628BF0B46194690B2FFF7CFBC7047C7
:107F600013B504460846B4F90610B4F9082088424F
:107F700010DB9042A8BF1046A3880093638802F0EC
:107F8000FFFBE168014489B2204602B0BDE8104021
:107F9000FFF7D5BF0846EFE7044A4FF41663C0E980
:107FA0000023B42303810023C3607047FFFF200236
:107FB00008B5FFF7F1FF08BD10B50446B0F90000A1
:107FC000431C07D080B2FFF791FC2046FFF7E4FF87
:107FD000012010BD0020FCE72DE9F0410D460446CC
:107FE0000221284690461F46FFF726FA022803D0B2
:107FF00000263046BDE8F081284603F0D5FB064652
:108000000028F5D0B4F90030013302D02046FFF744
:10801000D3FFBDF91830E380BDF91C302580A4F8EA
:108020000280A78023812846FFF758FCE1E7000083
:10803000054B02221A60054B054A9A600020C3E9ED
:108040000000FFF7D5BC00BF30E6032024E6032084
:108050000000FFFF10B504460068FFF7A5FD2046AD
:1080600010BD10B50446006808B1FFF79DFD002360
:10807000C4E90133236010BD38B504460D460068DD
:108080000131FFF799FD10B1C4E90005012038BDA9
:1080900010B50368044623B143688B4201D3012025
:1080A00010BD2046FFF7E8FF0028F9D0A368002B99
:1080B000F5D122681370F2E737B50D4611460192EB
:1080C0000446FFF7E5FF019A28B92046FFF7C9FFEC
:1080D000204603B030BDA2602946206804F06CFA47
:1080E0002268A3680021D154F2E7002313B5C0E948
:1080F000003304468360037341B10846019104F0E4
:108100000EFB019902462046FFF7D6FF204602B03B
:1081100010BD38B5054600680C4668B16A688B68C2
:108120009A4207D3096804F0D5FAA368AB6000232C
:10813000A36038BDFFF738FD23682B6063686B6070
:10814000A368AB600023C4E90033F1E710B5002356
:10815000C0E90033044683600373FFF7DAFF20466B
:1081600010BD884210B5044605D00B682BB18A6853
:108170001946FFF7A1FF204610BDFFF772FFFAE78F
:1081800010B500230446C0E9003383600373FFF792
:10819000E8FF204610BD13B5044659B108460191C9
:1081A00004F0BDFA019902462046FFF785FF2046FC
:1081B00002B010BDFFF755FFF9E770B505460E4652
:1081C00009B9002070BD6AB1846814442146FFF7E4
:1081D0005FFF0028F5D02868AB683146184404F0EA
:1081E00079FAAC600120EDE707B500238DF80410A3
:1081F000012201A98DF80530FFF7DFFF03B05DF81C
:1082000004FB83688B4203D9006810B1405C70475F
:1082100000207047FFF7F5BF704770477047704701
:10822000064B994210B500F10C0405D0084603F046
:10823000A7FB002808BF0024204610BD48EF0B0014
:10824000064B994210B500F10C0405D0084603F026
:1082500097FB002808BF0024204610BD48EF0B0004
:10826000064B994210B500F10C0405D0084603F006
:1082700087FB002808BF0024204610BD48EF0B00F4
:1082800010B568210446FBF70AFF204610BD10B563
:1082900028210446FBF703FF204610BD10B530210E
:1082A0000446FBF7FCFE204610BD6821FBF7F7BE35
:1082B0002821FBF7F4BE3021FBF7F1BEF0B5002515
:1082C000EC1C8C420DD86E1C445D875D974205D135
:1082D0002644B14205D31D60601CF0BD0134254425
:1082E000EEE70020F9E70000024A03490A20FFF701
:1082F0004DBB00BFA9740B00A8ED0B0030B40D46B8
:1083000011461A46036809682868D3E90043A44661
:1083100030BC6047012A38B5044602D10B6823609F
:1083200003E0022A03D0032A0DD0002038BD082024
:108330000D68FBF7B0FE03460028F0D095E8030077
:1083400083E80300EBE700680028EED00821FBF784
:10835000A6FEEAE710B504465830FCF709F804F128
:108360004800BDE81040FFF775BE10B54368013BFB
:108370000446436063B903689B689847A368013B60
:10838000A3602BB923682046DB68BDE8104018477E
:1083900010BDA0F13003DAB2092A01D8184670479F
:1083A000A0F16103052B01D857387047A0F14103B4
:1083B000052B94BF37384FF0FF30704710B50023BE
:1083C0000370044B04461868FFF758F90123237023
:1083D000204610BD3CE6032010B5037804461BB1CF
:1083E000024B1868FFF752F9204610BD3CE6032007
:1083F00082B00346086849686A4603C26A4603CAEF
:1084000018601846596002B0704708B582798B79B8
:108410009A4206D1062204F0BFF8B0FA80F0400973
:1084200008BD0020FCE74FF0FF330360838000208D
:10843000704708B50246002101604160FFF7F3FF75
:108440009171104608BD000010B501230361054B72
:10845000024603F1100153F8044B42F8044B8B42DF
:10846000F9D110BD56EF0B0010B50B460446B1B163
:10847000012A01F110020AD1014653F8040B41F818
:10848000040B9342F9D101232361204610BD411E04
:1084900012F8010D01F8010F9A42F9D1F3E7102209
:1084A00004F0B2F8F1E738B5044615461A46FFF76E
:1084B000DBFFA581204638BD08B5026922B9808955
:1084C000003818BF012008BD0249102204F064F8EA
:1084D000F6E700BF76EF0B000069704738B50C4631
:1084E00014220021054604F08FF823691BB9A389E3
:1084F0002B80284638BD01232B7421462B4604F1DE
:10850000100251F8040B43F8040B9142F9D1F0E743
:1085100080897047704708B502690B699A4206D195
:10852000102204F039F8B0FA80F0400908BD0020AC
:10853000FCE7000001232DE9F3410361344B0C46B5
:108540000646024603F1100153F8040B42F8040BEF
:108550008B42F9D144B32421204604F00FF90428BA
:108560004FF0000523D1ADF8045001AFA51C06342F
:1085700015F8020CFFF70DFFB0F1000812DB15F83B
:10858000010CFFF706FF00280CDB023540EA08105B
:10859000A54207F8010BEBD19DF8053033739DF828
:1085A000043073730023336102B0BDE8F0814FF0F3
:1085B00010082421204604F0E1F8A84207D84246DA
:1085C0000021304602B0BDE8F04104F01DB8B8F11A
:1085D000000FE9D0605DFFF7DCFE030615D4000153
:1085E00008F1FF38C7B206F808702421204604F0CD
:1085F000C5F80135A84208D9605DFFF7CAFE40B250
:108600000028A4BF384306F808000135D1E700BFB1
:1086100056EF0B0013B504460191FFF715FF2046F6
:108620000199FFF787FF204602B010BD38B54FF61D
:10863000FF730025044643800E222946057005710C
:10864000063003F0E1FF04F11400FFF7FDFE04F132
:108650002800FFF7F9FE044904F13C00FFF745FD4F
:108660006565204638BD00BFE0EF0B0010B5D0E9CE
:10867000063203EBC2029342184606D004682488EF
:108680008C4203F10803F6D110BD0020FCE7000086
:10869000F0B5064685B01F460D46002950D0002A89
:1086A0004ED004682378F42A28BFF42243B32379F8
:1086B000980709D5A08903920023FEF759FF0028E7
:1086C000039A03DA05B0F0BD6FF0770034682379C0
:1086D000D90609D5012F07D0A0890023294605B066
:1086E000BDE8F040FEF776BF9B06EBD5022FE9D040
:1086F000A0890023294605B0BDE8F040FEF774BF0D
:1087000060884FF6FF7188421CD021794E0701D551
:10871000012F04D10B0709D46FF07700D2E7A189AC
:10872000009313462A46FEF737FFCBE7022FF3D01C
:108730000023A189009313462A46FEF723FFC1E7D1
:108740000248BFE76FF0D100BCE700BFF2FEFFFFB9
:108750002DE9F04100260660074628200C46FBF76D
:108760009AFC051E05F10C080FD00123C5E9013361
:10877000084B2B604046FFF767FE0FCC2E6285F852
:10878000246046460FC623683360C7E90085384633
:10879000BDE8F08118EF0B0070B5002505600646B6
:1087A0003020FBF778FC044688B10123C0E901338F
:1087B000094B03604FF6FF7383810E30FFF739FEDC
:1087C000C4E90655C4E90855C4E90A55A57574609D
:1087D0000C343460304670BD34EF0B0037B50D46B5
:1087E000044601A8FFF7EAFD2A68D2F802302360A8
:1087F000D2F80630636001A8FFF7EEFD204603B013
:1088000030BD30B5054687B00C4601A8FFF7D6FD50
:108810002A68236812881B889A420DD1294602A82B
:10882000FFF7DCFF214604A8FFF7D8FF04A902A840
:10883000FFF7EBFD044600B9002401A8FFF7CCFDCB
:10884000204607B030BD000010B504466420FBF799
:1088500022FC68B10023C0E90033C0E90233C0E95B
:108860000433C0E906330362C362C363C364C365F0
:10887000206020B90A4A0B490A20FFF787F8002038
:10888000FEF73AFE20B1064A07490A20FFF77EF8B4
:10889000216806480022FEF793FE204610BD00BF67
:1088A000A9740B00A8ED0B00E6ED0B006D8E0B001C
:1088B00010B50A4C2378BFF35B8FDB070CD420463E
:1088C000FBF7FCFB40B10648FFF7BEFF2046FBF775
:1088D000FAFB044803F04AFE014810BD34E60320C9
:1088E00040E60320258B0B0030B50368093B012BC4
:1088F0008DB004460D4611D8FFF7DAFFA188006855
:10890000FFF7B4FE034658B92022CDE904200B4AF4
:1089100000920B4904AA3220FFF740F80DB030BD99
:108920006A6D002AFAD0D4E9032105F14C00CDE9A3
:108930000312AC6D04AA03A9A047EFE728EE0B00D1
:10894000BFED0B0008B50020FEF7D6FD00EAE07091
:1089500008BD08460021FEF7D7BD19B90A460846EA
:10896000FEF7DABDD1E900010022F9E70368D86912
:108970000028D4BF00200120704770B5D0E9005313
:10898000044605EB0316AE4204D02846FFF762FB0F
:108990001035F8E72068FFF707F9204670BD38B5B5
:1089A000141E4368054602DB62189A4200DD5C1A19
:1089B0002A68501801191A44521A03F00BFE6A680B
:1089C000121B6A6038BD37B50A4604460D4601AB36
:1089D000D0E90001FFF772FC024638B10199204648
:1089E000FFF7DDFF29462046FFF7EDFF03B030BD5E
:1089F00010B50C4629B90A460846BDE81040FEF7F6
:108A000093BD01212046FFF7DEFFD4E900010022DB
:108A1000F3E738B504461546FFF79FFF00280ADB49
:108A200029462046FFF7E4FF002804DBBDE8384074
:108A30000020FEF781BD38BD38B5002304468360B1
:108A400008200D46FBF727FB18B12B6803606B6805
:108A50004360034BE360034B2060A360204638BDB6
:108A6000FD820B0015830B000B68036013B15A687D
:108A700001325A60704710B551F8043B044640F883
:108A8000043BFFF7F1FF23680BB9FFF72DFC2046ED
:108A900010BD10B551F8043B044640F8043BFFF705
:108AA000E3FF204610BD10B551F8043B044640F8E2
:108AB000043BFFF7D9FF204610BD10B50446043033
:108AC000FCF714FB204610BD70B5D0E900530446F6
:108AD00005EBC306AE4204D0281DFCF707FB0835A2
:108AE000F8E72068FFF760F8204670BD70B5D0E960
:108AF0000053044605EBC306AE4204D0281DFCF724
:108B0000F5FA0835F8E72068FFF74EF8204670BD03
:108B100010B504462430FFF7E9FF04F11800FFF711
:108B2000D3FF10BD70B5174B1C6854B304F154004B
:108B3000FBF71EFC04F14400FBF71AFC04F13400BF
:108B4000FBF716FC04F12400FBF712FCD4E90653F2
:108B500005EBC306AE4204D0281DFCF7C7FA083562
:108B6000F8E7A069FFF720F804F10C00FFF7BEFF5B
:108B70002046FFF7A9FF20466421BDE87040FBF7BF
:108B80008EBA70BD40E6032013B50023D1E9004240
:108B9000C1E900330368009304604368426001A8A0
:108BA0000193FCF7A3FA02B010BD826810B50AB9B0
:108BB00002F0E2FEBDE81040C368184738B50D1E4C
:108BC0000446006803DDFEF7F7FF18B938BDFEF76D
:108BD000EBFF00202060A5600120F7E708B583685F
:108BE0008B4202DAFFF7EAFF08BD0120FCE72DE91E
:108BF000F0410F4641681D46194483689942044676
:108C0000904612DC266862683E44D21B31467019D9
:108C100003F0E0FC2A464146304603F0CDFC636891
:108C20002B4463600120BDE8F081FFF7C7FF0028F7
:108C3000E8D1F8E7F8B50D46D0E9011399420446AA
:108C400016460BDA276862687919521B481C03F034
:108C5000C1FC7E55636801336360F8BD0131FFF7E5
:108C6000ADFF0028EED1F8E70A464168FFF7E2BF02
:108C70002DE9F74304461D460F4601AB90460A46D0
:108C8000D0E900019DF82890FFF718FBAE1C63683F
:108C90000246B9F1000F26D128B333441B1AFF2B2B
:108CA00009D801992046FFF77AFE616820463144D1
:108CB000FFF794FF18B9606803B0BDE8F0836A1C41
:108CC0000199D2B22046FFF7B5FF01993A4601312A
:108CD0002046FFF7AFFF01992B464246023120465E
:108CE000FFF785FFE7E7F118FF29E4D82046FFF7F3
:108CF00075FF0028DFD0691CC9B22046FFF7B4FF1A
:108D000039462046FFF7B0FF61682B464246E6E74A
:108D100030B49DF808501AB1029530BCFFF7A8BFD7
:108D2000406830BC70471FB50023C0E90033836042
:108D30000622009301238DF80F2019460DF10F0232
:108D40000446FFF7E5FF204604B010BD07B50093C9
:108D500013460A46FF21FFF7DBFF03B05DF804FB73
:108D60008842F8B504460D46164614D9904213D2EF
:108D7000A2F10806751AA1F108072C44B74218D0D1
:108D80001CB131462046FFF78EFE301DFCF7AEF9D0
:108D9000083E083CF2E70CD0B5420AD01CB1294687
:108DA0002046FFF780FE281DFCF7A0F9083508349F
:108DB000F2E7F8BDF7B5044646686846FFF773FE6C
:108DC000D4E901739F4212DB0137002F29DDF8003F
:108DD000FEF7E2FE0546F0B1D4E9001201EBC20253
:108DE000FFF7BEFF2068FEF7DFFE2560A76023685F
:108DF000626803EBC60603EBC202314606F10800C7
:108E0000FFF7AEFF1EB169463046FFF74CFE6368C0
:108E100001336360012501A8FCF768F9284603B017
:108E2000F0BD0025DEE7F8B5D0E9004305460F4662
:108E300004EBC306A64205D039462046FFF7E1FC05
:108E400008B114B9F8BD0834F4E7201DFCF74EF959
:108E5000D5E9003204F1080103EBC2022046FFF716
:108E60007FFF6B68013B6B60ECE700002DE9F04190
:108E700005468EB003A80C46FFF7A0FA2E68F31E35
:108E80000D2B3CD8DFE813F00E0053003B00D1005F
:108E90003B003B003B003B003B009B009B009B00DA
:108EA0009B009B0004A8FFF777FC049BAA891A800B
:108EB0006968049808310230FFF79AFA04A906A8F5
:108EC000FFF7F1FD06A904F11800FFF773FF05464F
:108ED00007A8FCF70BF920230693B5B95D4B5E4953
:108EE000009332202B4606AA0795FEF757FD049BF8
:108EF00029461888FEF728FB05A8FCF7F7F803A811
:108F0000FFF76AFA0EB0BDE8F081544A00920023E0
:108F10005149079306AA0120FEF740FDE36A002BA2
:108F2000EAD004A904F12400FFF73FFEE4E7A98991
:108F30002046FFF79BFB06460028E0D00568D5E9F0
:108F400006324FF6FF71298003EBC2029A4203D02A
:108F500053F8080B4180F9E7D5E9037307EBC30821
:108F6000B84504D0381DFCF7C1F80837F8E70023EE
:108F70002B61D5E9067307EBC308B84504D0381D4B
:108F8000FCF7B4F80837F8E70023EB61AB72E36B4A
:108F900023B1314604F13400FFF707FE00232022FD
:108FA000CDE906232E4A00922B4906AA0120FEF79E
:108FB000F5FC314604F11800FFF735FF9FE7A9895A
:108FC0002046FFF753FB002899D0E36C002B96D086
:108FD00000230D2EADF8163001D0102E17D100232E
:108FE00069681A4606258DF8153004918DF814200D
:108FF0000690DDE9040109AB8DF81C60089583E853
:109000000300236D06A904F14400984777E70F2E6B
:1090100001BF2B7A696803F0010208250FBFC3F373
:1090200040031A4619461D46DDE7A9892046FFF789
:109030001DFB014600283FF462AFE36D002B3FF4B7
:109040005EAF6B68069306AA236E04F1540098473E
:1090500055E700BF40EE0B00BFED0B0066EE0B00C6
:1090600083EE0B0013B50B460246D0E900016C46B7
:1090700084E8030093E8030082E8030094E8030017
:1090800083E8030002B010BD38B505460C46FFF773
:10909000E9FFAB68A268AA60A360EB68E268EA60D7
:1090A000E36038BD70B504468CB00E4601921D4693
:1090B000FFF7BCFA2671019904F13C00FFF76BF849
:1090C00004F14C06CDB1109B029502A904A80393AC
:1090D000FFF7B2FC002308A904A80A93FFF7D4FF06
:1090E000314608A8FFF7D0FF08A8FBF741F904A80C
:1090F000FBF73EF920460CB070BD0695EAE700008C
:109100002DE9F04F87B01D46DDE9104380468B46C0
:109110009246129903930022682002910492FAF772
:10912000BAFF061E06F10C0918D001223746C6E91F
:1091300001220299154A47F8202B039B00915A46B9
:1091400051464846FFF7AEFF0FCD0FC72B683B6077
:109150000FCC06F134050FC523682B6004A94046E7
:10916000CDE90496FFF710FD05A8FBF7BFFFD8F87F
:1091700000303BB9064A07490A2007B0BDE8F04F66
:10918000FEF704BC07B0BDE8F08F00BFFCEE0B009B
:10919000A9740B00A8ED0B008842F8B504460D46F3
:1091A000164614D9904213D2A2F10806751AA1F1FD
:1091B00008072C44B74218D01CB131462046FFF7AF
:1091C00068FC301DFBF792FF083E083CF2E70CD02C
:1091D000B5420AD01CB129462046FFF75AFC281D8B
:1091E000FBF784FF08350834F2E7F8BD70B50E1EB2
:1091F000054611DDF000FEF7CFFC044658B1D5E975
:10920000001201EBC202FFF7C7FF2868FEF7CCFC93
:109210002C60AE60012070BD0024F6E773B50446F3
:1092200045686846FFF735FCD4E90113994210DA26
:109230002368626803EBC50503EBC202294605F10A
:109240000800FFF7A9FF8DB9636801336360012649
:1092500006E001312046FFF7C9FF06460028E7D1A6
:1092600001A8FBF743FF304602B070BD69462846AF
:10927000FFF70FFCE8E78842F8B504460D461646AE
:1092800014D9904213D2A2F10806751AA1F1080769
:109290002C44B74218D01CB131462046FFF7EBFBF7
:1092A000301DFBF723FF083E083CF2E70CD0B54227
:1092B0000AD01CB129462046FFF7DDFB281DFBF72D
:1092C00015FF08350834F2E7F8BD70B50E1E0546E7
:1092D00011DDF000FEF760FC044658B1D5E900123C
:1092E00001EBC202FFF7C7FF2868FEF75DFC2C60A8
:1092F000AE60012070BD0024F6E773B504464568F2
:109300006846FFF7B8FBD4E90113994210DA2368E5
:10931000626803EBC50503EBC202294605F10800AC
:10932000FFF7A9FF8DB9636801336360012606E08A
:1093300001312046FFF7C9FF06460028E7D101A802
:10934000FBF7D4FE304602B070BD69462846FFF7F1
:1093500092FBE8E72DE9F04F1746A1B080460AA836
:109360000E46FFF72BF83C68237953B9394640463F
:10937000FFF781FB0AA8FFF72FF8404621B0BDE8B0
:10938000F08F3368D3E9035305EBC303039304F170
:10939000280A04F1140B039B9D4221D0D5F80090BC
:1093A000584609F11401FFF7B6F8B8B109F12801E0
:1093B0005046FFF7B0F888B12368D9F80020534031
:1093C00033F47F430AD12022CDE915235E4A00926F
:1093D00015AA5E493220FEF7E1FAC7E70835DAE759
:1093E0005046FFF769F860B95949012215A815AD33
:1093F000FFF73AF80FCDD446ACE80F002B68CCF855
:1094000000303368D3E9005305EBC30B5D45A94633
:1094100051466ED055F8080BFFF77DF80028F5D0BF
:1094200004F1140A5046FFF747F888B9494B4849F8
:109430001A88013292B21A8015A8012315ADFFF7E0
:1094400032F80FCDD446ACE80F002B68CCF80030D2
:10945000414B15932822002116A803F0D5F8514658
:1094600004A8FFF73BF804AB18AA0DF1200C18680C
:109470005968154603C5083363452A46F7D118686D
:10948000286023798DF85830D9F800309B8AADF8E0
:109490007430E36B1793314B0022A11D15A8CDE961
:1094A0001E34FEF783F800287FF460AF0123237099
:1094B000346839460C340DA8FFF7DDFA20460DA9B3
:1094C000FFF71BFF04460EA8FBF710FE002C7FF4ED
:1094D0004DAF2023CDE90D34214B00930DAA234637
:1094E00077E739464046FFF7C6FA0CA8FBF7FEFDC2
:1094F00040E70BA8FFF72CF9514615A8FEF7EEFF41
:109500000B9A0023143215A90120FEF727F8002832
:10951000E7D135680BA90DA8FFF7BBFA28460DA9BE
:10952000FFF77CFE05460EA8FBF7E0FD002DD8D026
:1095300032685368126803F10053013B0CA802EB38
:10954000C309FBF7D3FD6BE7A2EE0B00BFED0B00E9
:1095500066EF0B0038E6032003002C00E9880B00BF
:10956000CDEE0B00024800230360FEF777B800BF82
:109570003CE60320F8B506460D468F180024BD4290
:109580000CD0336815F8011B9B6830469847031EC2
:1095900001DB1C44F3E7002C08BF1C462046F8BD45
:1095A00008B5FDF775FA08BD03689B68184738B51C
:1095B0000D210546FFF7F8FF0A2104462846FFF76C
:1095C000F3FF204438BD38B50546FDF761FA04467F
:1095D0002846FFF7ECFF204438BD30B58BB00023A0
:1095E000012A8DF8243098BF0A2209AC0D46B1FB40
:1095F000F2F101FB125303F0FF03092B94BF303348
:109600003733DBB2AA4204F8013DEFD92146FDF71A
:109610003FFA0BB030BD2DE9F04186B000AF0546F2
:109620000E46381D142114463B60FEF7DDFA132860
:109630000ED8391D2846FDF72BFA04461EB12846E0
:10964000FFF7B5FF044420461837BD46BDE8F0815A
:1096500000F1080323F00703E846ADEB030D2246B3
:10966000411C3B686846FEF7BFFA69462846FDF78D
:109670000FFA0446C546E1E710B50446FDF724FF9E
:10968000E060236820465B699847002808DAFDF708
:109690001BFFE368C01AA3689842F2D34FF0FF3073
:1096A00010BD2DE9F0410746884616461D4673B1A8
:1096B00000243846FFF7E0FF031E05DB434503D0D7
:1096C00033550134A542F4D12046BDE8F0811C4653
:1096D000FAE7000070B50D46094904461646FEF744
:1096E00004FD2846FFF7C8FF002806DB864204D0A9
:1096F000C1B22046FEF778FDF3E7204670BD00BFFB
:10970000E0EF0B0080680368DB6818477047084685
:1097100011B10B685B681847704770477047704716
:10972000704738B504460D4600682E2102F0BEFF92
:109730002368C31A2B6023B1037803B10130236877
:109740002060184638BD10B50C210446FAF7A7FC76
:10975000204610BD10B504210446FAF7A0FC2046AF
:1097600010BD10B504210446FAF799FC204610BD3F
:10977000FDF784BF08B502F0A3FFB0FA80F04009FE
:1097800008BD704710B50C4601F01EFC844210D095
:1097900002F08EF8844205D102F08AF8BDE810404C
:1097A00001F0E1BC2CB1236820465B68BDE81040A5
:1097B000184710BD0B6803604B68436013B15A68CB
:1097C00001325A60704713B504460846019102F011
:1097D000A6FF01990246204602B0BDE8104001F004
:1097E000D3BF13B504460846019102F098FF2368E1
:1097F0000199DB680246204602B0BDE810401847D8
:1098000007B503688DF80710DB6801220DF1070129
:10981000984703B05DF804FB0EB403B503AB002119
:1098200053F8042B006A0193FFF7F5FE02B05DF8D0
:1098300004EB03B070470A6802604A684260002285
:10984000C0E9022210B502618C688460CC68C460F3
:109850000C698A60CA6004610A6110BD2DE9F74F86
:10986000D0E900844FF0140A00930AFB04F4184B6B
:10987000A41017465C434546002C21DD66100AFB08
:1098800006F005EB00093A46B9F804B028580191F2
:109890005F4528BF5A4602F05DFF002801994FF04E
:1098A00001030BD15F4503D1009A13703446E3E7FF
:1098B000FCD9A61B09F11405013EF7E7F9DBF5E732
:1098C000A5EB08050248AD10684303B0BDE8F08F72
:1098D000CDCCCCCC7FB50369057E019103B3F9B142
:1098E000002600F10C04039603A901A8FFF719FF55
:1098F0000146A8B10DF10B03039A8DF80B602046C9
:10990000FFF7ACFF9DF80B3053B12368142404FB20
:109910000034083434F9023C002BA8BFDDB2E3E781
:10992000284604B070BD000010B5094C2378BFF381
:109930005B8FDB0709D42046FAF7C0FB28B120462D
:10994000FAF7C1FB034802F011FE034810BD00BF47
:1099500048E603201B970B001CDC032010B5094CC4
:109960002378BFF35B8FDB0709D42046FAF7A6FB09
:1099700028B12046FAF7A7FB034802F0F7FD034899
:1099800010BD00BF4CE6032083970B0020DC0320B2
:1099900038B500250446C0E90055C0E90455856086
:1099A000856140F8245FFDF759FEFFF7BDFFE061D8
:1099B000FFF7D4FF25732062204638BD10B50A4C4E
:1099C0002378BFF35B8FDB070CD42046FAF776FBD6
:1099D00040B10648FFF7DCFF2046FAF774FB044865
:1099E00002F0C4FD014810BD44E6032054E6032004
:1099F000119F0B00024A034903480023FDF7DEBF15
:109A0000F59C0B00819C0B00019C0B0000231A4667
:109A100019461846FDF7D2BF37B58D68044668462B
:109A2000FFF7C8FE6A462946204601F0CDFD01A891
:109A3000FBF75CFB204603B030BD37B5CD6804466C
:109A40006846FFF7B7FE6A462946204601F098FDB2
:109A500001A8FBF74BFB204603B030BD37B50D69BD
:109A600004466846FFF7A6FE6A462946204601F0EE
:109A700030FD01A8FBF73AFB204603B030BD0000E3
:109A800070B58AB00D46014604A8FFF7C5FF144E15
:109A900004A801F0B1FDE8B104A96846FFF7CDFFC5
:109AA00002983146FFF766FE044610B12C1E18BF1F
:109AB000012401A8FBF71AFB002CE9D004A9684691
:109AC000FFF7CCFF684601F03AFD286001A8FBF7DC
:109AD0000DFBDDE705A8FBF709FB0AB070BD00BF71
