:02000002B0004C
:1040000000400B00E4620C000000060017000502EF
:084010000401A30F00000000F1
:04401800BC420C009A
:1040200009480A49884208B505D0094A824202D0A7
:10403000121A0EF075F80748074A0021121A0EF0FE
:1040400097F8014808BD00BF7CDB0320C8600C0066
:1040500070DD032070DD0320EDE7032070B5074E0F
:10406000074C0DF0E5F8A41BA4080025AC4200D1D4
:1040700070BD56F8043B98470135F7E774600C00B3
:1040800098600C0001F056BB08B501F06FFABDE86E
:1040900008400DF085B809F0EDBA09F0EBBA09F067
:1040A000F1BA09F0EFBA000008B5034A03490C2041
:1040B00009F0DAF9FEE700BFA9D00B00D0420C00EE
:1040C0000078B0FA80F04009704701230370704710
:1040D00070477047006A0368DB6818477047037CC5
:1040E00013F008031EBFC36A406A1B1A002BACBF43
:1040F00018466FF0004070477047000008B5134B3A
:104100001A78134B1B789B0043EA4203114A12783A
:104110001343114A127843EAC203104A127843EA61
:1041200002130F4A127843EA82130E4A127843EAC6
:10413000C2130D4A13700D4B01221A700CF0E8FFE8
:10414000BDE808400A490CF03ABB00BFBCDD0320C3
:104150007CDD0320ACDD0320E4E00320E5DD03206B
:1041600010DF032005DF0320B0E50320D0E50320A6
:10417000E5420C0010B510210446FFF792FF2046DF
:1041800010BD10B534210446FFF78BFF204610BD4B
:10419000103002F07DB907B501228DF807101030FC
:1041A0000DF1070102F074F903B05DF804FB103063
:1041B00002F0E4B8103001F0C5BF07B501220DF1DF
:1041C0000701103001F010FF01280CBF9DF8070017
:1041D0004FF0FF3003B05DF804FB436913B183690E
:1041E0000C301847704713B500210446084608F004
:1041F00003FF0023204601A9019308F015FF019C4D
:104200000CB1012323710021012008F0F5FE2CB12F
:10421000236820469B6898470023237102B010BD95
:10422000012A02D1016000207047022A04BF0B68F6
:104230000360F8E7036818470368C9B29B6818472A
:1042400010B5054B00220446114640F8043B09F026
:104250002BF9204610BD00BFFC480C0010B50446E9
:10426000FFF7EEFF20462021FFF71BFF204610BD81
:104270000A4B10B5044603600BF0AAFB21460BF075
:10428000E2FD0CF045FF0CF037FF2046044B40F8F0
:10429000043B0BF073FC204610BD00BF10490C001E
:1042A000E4480C0010B50446FFF7E2FF2046242145
:1042B000FFF7F7FE204610BD37B5044680680D466F
:1042C00030B10023CDE900331A46022108F0B4FED4
:1042D000A06830B10023CDE900531A46194608F012
:1042E000ABFE03B030BD0EB403B503AB002153F8F1
:1042F000042B01930CF08DFA02B05DF804EB03B0CF
:104300007047000073B5044608462279A36832B1AD
:10431000A3B90B4902B0BDE870400CF039BA094AA4
:10432000267B094D0949647B012E18BF2946CDE93A
:1043300000140749FFF7D7FF02B070BD054AEFE749
:104340000F430C00835A0C000B430C0007430C0076
:1043500025430C00FE420C000EB403B503AB012153
:1043600053F8042B01930CF054FA02B05DF804EBFF
:1043700003B0704710B5114B1B78EBB908F0A4FEE1
:104380000F4B1B68C01AB0F57A6F15D90D4B0E4C48
:104390000E485A2119700E4B217001221A700CF030
:1043A00080FA21780B480CF07CFA0CF0B1FE0A4937
:1043B0004FF47A62FFF7D0FF10BD00BFE5DD0320A8
:1043C00024DE032088E5032089E503208CDD03201B
:1043D000DCE503209CDD032042430C0010B583681C
:1043E000044613B1032201469847204610BD000041
:1043F00037B5134B036004468068C8B100256FF0E1
:104400000043CDE9003502212B462A4608F014FE70
:10441000A068294608F038FE237903F0FF0513B1A0
:1044200008F0E2FDF8E7A068294608F0F5FDA56070
:1044300004F10C00FFF7D2FF204603B030BD00BFEF
:10444000D0480C0010B50446FFF7D2FF20461C21CF
:10445000FFF727FE204610BDF0B58C460025144915
:10446000057104468560016092E8030085B002AFE3
:1044700004F10C0687E8030096E8030082E80300D5
:1044800097E8030086E803009168A0696161D1683C
:104490009560D060A161CDE90035064A23466146AA
:1044A00004F1080008F0B0FD204605B0F0BD00BFE3
:1044B000D0480C00E7410B0010B504460022407CB8
:1044C00009F02CF8637C0F2B18BF208310BD00006F
:1044D000F8B5244B244D1B785BB16B7C0F2B1CBFB4
:1044E00002236B74FF236B611E211F48FFF7E4FF5B
:1044F000F8BD1E4B1B78002B2DD11D4B1B78002BBC
:104500002CD11C4B1B78002B0BBF0A26142602272C
:104510000327194B1A78194B1C78194BA40044EA4D
:1045200042041A78144364B20CF0F2FD2246013CB6
:104530001449E4B2FFF710FF062C98BF124B6A7CB7
:1045400094BF53F824304FF47F030F2A18BF6F74C1
:1045500031466B61C9E714260227DAE714260127E2
:10456000D7E700BFE4E0032090E5032010DF03203D
:1045700005DF0320E5DD0320BCDD03207CDD032017
:10458000ACDD03208C430C00DC490C0013460A46CA
:104590000149096801F02FBF10E6032010B508F0AB
:1045A000E1FF2B4CE0B10123237008F08DFD294B76
:1045B000294C1B6847F23052C01A904223D813B3DB
:1045C0000123237008F080FD244B254C1B6847F223
:1045D0003052C01A904228D83BB30123237010BD3B
:1045E0002378002BE1D01F48037C2BB91E4944F2ED
:1045F00002221030FFF7CAFF1C491A481E22FFF79B
:10460000ABFE0023D0E723786BB11648037C2BB9AF
:10461000154944F202221030FFF7B8FF1349114840
:104620001E22FFF799FE0023CBE7227872B16BB10F
:104630000C48037C2BB90C4944F202221030FFF7DE
:10464000A5FF0B4907481E22FFF786FE0023C5E79A
:10465000ACDD0320C0DD0320BCDD032088DD0320AA
:104660007CDD0320ACDE032004DE032097430C0036
:10467000E8430C0030B585B01B4B009313798DF8DF
:1046800004309368029300F58C659389ADF80C3083
:1046900004460A466B4600F26C41284602F0DCFDF7
:1046A00010B9002005B030BD256004F23C45284615
:1046B00001F09AFE0121204602F079FC014668B122
:1046C0002146284601F08AFC0028EAD094F83C34C0
:1046D00013F0700FE5D0054B1D60E3E7204602F0B4
:1046E00066FC0028ECD1DCE7BC480C0010E6032097
:1046F0002DE9F04784B08378412B00AF04468A4609
:104700004BD1C378422B74D120460DF0BCFD01384B
:1047100020F00700E946ADEB000D20460DF0B3FD9B
:104720006844002600F8096C2046FE730DF0ABFDCE
:1047300020446D4610F8023C3B7020460DF0A3FD6E
:104740002044314610F8013C7B7010223846BE7080
:104750000EF0C2FC80465FFA88F80CF0D9FC7B4969
:1047600043464246FFF7F8FD042620460DF08BFD38
:104770000238864216D2062E9BBF07F110039B1902
:10478000AB19A25D8CBFA25D03F8082C06F10106EF
:1047900088BF03F8072CF6B2E7E7422B29D1C3788C
:1047A000312BB0E740452ED00CF0B2FC0546204638
:1047B0000DF069FD821E2846654D66494346FFF7A8
:1047C000CBFD2B7CCBB9644944F2022205F11000E9
:1047D000FFF7DCFE614922462846FFF7BDFD05F1E3
:1047E000100001F001FE0CF093FC5D490BF0E7FFB7
:1047F000CD461037BD46BDE8F087584922462846C9
:10480000FFF7AAFDEFE7574907F10C000DF00CFD8B
:104810000028EDD0544907F10C000DF005FD0446C9
:1048200000282FD12B783B716B787B71AB78BB71F3
:10483000EB783B722B797B72381D6B79BB720DF074
:1048400052FC4A4E4A4D307007F108000DF04BFC07
:1048500028700CF05DFC2B7832784649FFF77CFD20
:10486000317845480CF01DF8297844480CF019F8C7
:10487000434B01221A7008F027FC424B1860424B50
:104880001C70B5E7414907F10C000DF0CDFC18B9DB
:104890003F4B83F800A0ABE73E4907F10C000DF059
:1048A000C3FCF0B92A4C0CF033FC29460BF087FF0F
:1048B000237C83B9284944F2022204F11000FFF757
:1048C00065FE35492A462046FFF746FD04F11000F3
:1048D00001F08AFD8CE730492A462046FFF73CFD6F
:1048E00086E72E4907F10C000DF09EFC20B908F078
:1048F000EBFB2B4B18607BE72A4907F10C000DF00E
:1049000093FC10B9284B187072E7284907F10C0086
:104910000DF08AFC00283FF46BAF254907F10C002D
:104920000DF082FC00287FF463AF224B2248012265
:104930001A70214B5A7C0F2A1CBF02225A741E2166
:10494000FF225A61FFF7B8FD52E700BF37440C0061
:10495000ACDE03204C440C0004DE032069440C0050
:1049600095440C00B6440C00BA440C0088E50320C2
:1049700089E50320BE440C008CDD03209CDD032070
:10498000DCE5032024DE0320E5DD0320EA440C00FF
:10499000E5E00320EE440C00F2440C0015450C0049
:1049A00028DE032019450C00DDE503201D450C0021
:1049B00021450C00E4E0032090E5032010B50C46EF
:1049C000002204212046FFF793FE0B4B1B7893B186
:1049D0000A48037C2BB90A4944F202221030FFF73F
:1049E000D5FD224607490548FFF7B6FCBDE8104053
:1049F000054801F0F9BC10BD04DF0320ACDE032044
:104A000004DE032025450C00BCDE0320B0B501F117
:104A1000080323F0070300AFADEB030D0C460A4675
:104A2000014668460DF07CFB0DEB04036D4613F860
:104A3000013C13B100230DF804300CF069FB16495A
:104A40000BF0BDFE0CF064FB29460BF0B8FE012212
:104A500011462846FFF74CFE2B7803F0FD03412B4F
:104A600003D108F031FB0D4B18600D4B1B7883B15F
:104A70000C48037C2BB90C4944F202221030FFF79A
:104A800085FD0A4907482A46FFF766FC084801F0F9
:104A9000ABFCBD46B0BD00BF45450C0088DD032022
:104AA00004DF0320ACDE032004DE032055450C00A8
:104AB000BCDE032013B50024CDE9004404490548B9
:104AC0000123224608F05EFD034B1C7002B010BDAE
:104AD000BD490B0075450C00ACDD032008B50CF09A
:104AE000AFFC0849FFF7FFFB142008F02FFE0CF085
:104AF000A7FC0549FFF7F7FBBDE80840142008F0C4
:104B000025BE00BF825A0C000D430C0007B50CF007
:104B100057FC002301460093124840F24C434222C6
:104B200007F06CFE40B94FF47A7008F00FFE0CF0FD
:104B3000EFFA0D490BF043FE40F24C4201210948C7
:104B400007F090FD40F24C4301220021054807F098
:104B500069FD0CF035FC054903B05DF804EB0AF083
:104B60001BBB00BF64DF03207B450C00801A0600DE
:104B700010B515200CF0F6FB07EE900AF8EEE77A78
:104B8000334C17EE900A0CF0FDFE29A3D3E9002365
:104B90000CF050FF0DF030FA2E4B18600CF0F2FEC6
:104BA00025A3D3E900230CF08DFD2B4B00220CF044
:104BB00041FF23A3D3E900230DF066F80DF0D4F9EB
:104BC0006428A8BF642020EAE070207010200CF058
:104BD000C9FB07EE900AF8EEE77A17EE900A0CF0A0
:104BE000D1FE1E4B00220CF025FF17A3D3E90023B2
:104BF0000DF04AF80DF000FA194B186011200CF076
:104C0000B1FB07EE900AF8EEE77A17EE900A0CF087
:104C1000B9FE144B00220CF00DFF0BA3D3E90023C7
:104C20000DF032F80DF0E8F90F4B1860207810BD48
:104C300059C0046EDDCD733F6666666666662A40BF
:104C400098999999999909400000000000FEAF4099
:104C5000D8DD0320DCDD0320000059400080404007
:104C6000D4DD0320008030408CE5032010B5084CD3
:104C700040F24C41204607F040FE064B40F24C41CA
:104C80001860204607F016FE034B1860012010BD87
:104C900064DF032030DE03200CDF032010B5084C56
:104CA00023785BB1074B084819780BF0FAFD074BE6
:104CB000074819780BF0F5FD0023237010BD00BFE5
:104CC000DCE5032088E503208CDD032089E5032053
:104CD0009CDD0320000000002DE9F04FB24DABB089
:104CE00008F0F2F92B68834280F00981DFF8E8B21E
:104CF0009BF80030002B00F002810CF061FB0123D7
:104D0000142263210AF069FA0CF05AFB03685B690C
:104D1000984716AC26460CF053FB03681B6998476E
:104D200038B10CF04DFB03685B69984704F8010B40
:104D3000F1E730460DF0D4F951EC100B0DF05CF9B1
:104D4000DFF898A2CAF800000CF03AFB0123142205
:104D500064210AF042FA0CF033FB03685B69984760
:104D60001BAC26460CF02CFB03681B69984738B136
:104D70000CF026FB03685B69984704F8010BF1E728
:104D800030460DF0ADF90CF01BFB01231422652118
:104D90000AF023FA0CF014FB03685B69984720AC17
:104DA00026460CF00DFB03681B69984738B10CF0E0
:104DB00007FB03685B69984704F8010BF1E730468D
:104DC0000DF08EF959EC108B0CF0FAFA0123142235
:104DD00066210AF002FA0CF0F3FA03685B6998475F
:104DE00025AF3E460CF0ECFA03681B699847044671
:104DF00038B10CF0E5FA03685B69984707F8010BD6
:104E0000F0E730460DF06CF9684B8BF800401B78EA
:104E100057EC106B002B72D00CF09EF811900CF038
:104E20008FF804460CF0A0F883460CF065F810905B
:104E30000CF06EF80F900CF077F8109A0F99119B08
:104E40000490CDE901B20391594A0094102112A8AF
:104E500008F030FC5748037C2BB9574944F2022232
:104E60001030FFF793FB494640460DF0C5F80CF0B3
:104E700089FDCDE90C01514B18680CF083FDCDE99B
:104E80000A014F4B18680CF07DFDCDE90801DAF8F6
:104E900000000CF077FDCDE90601394630460DF0F3
:104EA000ABF80CF06FFDCDE90401464B186807EE36
:104EB000900AF8EEE77A17EE900A0CF063FD38A33B
:104EC000D3E900230CF0E0FECDE902013E4B186867
:104ED00007EE900AF8EEE77A17EE900A0CF052FD12
:104EE0002FA3D3E900230CF0CFFE12AACDE90001D5
:104EF00036493048FFF730FA354801F075FA354C3D
:104F000008F0E2F82368834244D208F0DDF800F6A6
:104F1000C410206008F0D8F800F2393028600CF096
:104F20004FFA63210AF072F90CF04AFA7221FFF786
:104F300083F90CF045FA0AF070F90CF041FA64219B
:104F40000AF064F90CF03CFA7221FFF775F90CF0E5
:104F500037FA0AF062F90CF033FA65210AF056F9D3
:104F60000CF02EFA7221FFF767F90CF029FA0AF01B
:104F700054F90CF025FA66210AF048F90CF020FAF1
:104F80007221FFF759F90CF01BFA0AF046F9124B9F
:104F900001221A702BB0BDE8F08F00BFAFF3008084
:104FA0000000000080842E41E0DD032005DF0320A7
:104FB0009B450C0030DF0320E6DD03207CE5032069
:104FC00078E503200CDF032030DE0320B4450C001D
:104FD00040DF032084E50320E4DD032080E5032097
:104FE0002DE9F04F3C4EDFF80481DFF8049189B0E1
:104FF00000AF0CF025FA03681B699847002866D0BB
:105000000CF01EFA0A22014638460BF0EDFDBB6893
:10501000073323F007036D46ADEB030DEA4600238B
:10502000B9681FFA83FB8B4503F1010407D2594687
:1050300038460BF0D1FE23460AF80B00F0E70129B1
:105040000AD9013938460BF0C7FE0D2801BFBB68ED
:105050005344002203F8012C012202215046FFF79D
:1050600047FB0CF055F831460BF0A9FB0CF050F85B
:1050700039680BF0A4FB9AF80030423B012B03D8AF
:1050800008F022F8C8F8000099F80030D3B11348AE
:10509000037C2BB9124944F202221030FFF776FA52
:1050A000394607F110000BF04DFE0E490B4807F191
:1050B0001002FFF751F907F110000BF0ADFD0A489F
:1050C00001F092F938460BF0A7FDAD4691E7243781
:1050D000BD46BDE8F08F00BFCC450C00ACDE032020
:1050E00004DE0320DE450C00BCDE0320C0DD03200F
:1050F00004DF03202DE9F043ADB00CF009F861495D
:105100000BF05DFB604961480022FFF73FFA48B9A8
:105110005F4B18700BF0FCFF5E492DB0BDE8F0430B
:105120000BF04DBB0BF0F4FF5B495C4D0BF047FB04
:1051300008F070FE08F0CCFE044648B908F06AFE9C
:105140002246294608F017FF0A2008F0FFFAEFE789
:105150000BF0DEFF52494D4F524DDFF86C810BF0E2
:105160002EFB00223946284601F0CBF8F8B108F0B2
:1051700051FE08F0ADFED0B11E2201A9284601F073
:1051800087FA0BF0C5FF414601AAFFF7E5F801A831
:105190000DF079F801AB043818440DF07DF8424960
:1051A0000DF0D3F8D8B9284601F01EF9D9E73748F1
:1051B00001F01AF92622002109A80CF0D9FF3B4979
:1051C00009A80DF03BF80023262209A9384808F069
:1051D00011FD2F4B00221A702DB0BDE8F08326225E
:1051E000002109A80CF0C4FF3249334EDFF8C0900B
:1051F00009A80DF023F801A909A80CF0EFFF0BF0A6
:1052000087FF2E4909AAFFF7A7F80023262209A93C
:10521000274808F0EFFC0BF07BFF294901AAFFF7B4
:105220009BF8962008F092FA09F0FAFF3046FEF754
:1052300056FF044688B16422002113A80CF098FFA1
:1052400013AA64230D2130460BF0B6FC0023642220
:1052500013A9484608F0CEFCE8E709F0E3FF262250
:10526000214609A80CF084FF164909A80CF0E6FFB6
:105270002346262209A90E4808F0BCFC962008F017
:1052800065FA90E7FF450C001C460C0088DE032001
:10529000E4E003201E460C004B460C00C8DD032052
:1052A0006B460C0040DF0320A9460C00AE460C0004
:1052B000DCE00320B7460C0030DF0320C0460C00C2
:1052C000D3460C00FB460C0080460C0038B5046841
:1052D00005467CB16368013B63605BB92368204687
:1052E0009B689847A368013BA3601BB923682046CD
:1052F000DB689847284638BD2DE9F04784B002AFF7
:10530000804691461E460D460CF0BDFF093020F048
:105310000701ADEB010D40460CF0B5FF97F828A052
:10532000254902AC03464246204608F0BBF9BAF1D3
:10533000000F01D1042D0CD1204B21491B788DF891
:10534000003038463C23224609F03EFD381DFFF769
:10535000BDFFB9F1000F01D1012D21D108F05AFD97
:1053600008F0B6FDE0B120460CF08DFF073020F0CC
:105370000700E846ADEB000D20460CF084FF0DF170
:1053800008090246214648460CF0CAFE20460CF0A9
:105390007AFF0023024649460A4808F02BFCC5461E
:1053A0000EB9022D04D10CF04BF821460BF007FA90
:1053B0000837BD46BDE8F08704470C00C4DD032074
:1053C0000B470C00D4E5032030B5274D2B789DB05A
:1053D000002B46D0412200210BA80CF0C9FE234B24
:1053E0000893234BDFED236A93ED007A224B27EEDF
:1053F000267A0024BDEEC77A8DED077A93ED007A08
:105400001E4B27EE267ABDEEC77A8DED067A93ED18
:10541000007A1B4B27EE267ABDEEC77A8DED057A12
:10542000D3ED007A174B67EEA67AFDEEE77ACDED65
:10543000047A18680CF0A6FACDE90201124B18683C
:105440000CF0A0FA0122CDE9000110490BA808F0E8
:1054500029F929780094234622460BA8FFF74CFF30
:105460002C701DB030BD00BFE5E00320880D0100A9
:105470007CE5032000007A4474E5032080E50320E6
:1054800078E5032008DF03202CDE032013470C00FF
:1054900070B52C4E337890B0002B49D02A4A2B4B54
:1054A00010681B7807930CF06DFACDE90401284AC7
:1054B000284C10680CF066FACDE90201264A079BD9
:1054C00012782649009209A8012208F0EBF80BF0A7
:1054D0001FFE09A90BF073F90BF01AFE218805468F
:1054E0000A220BF078F928460BF05DF91C4B1B786B
:1054F00003BB1C4B1B78EBB92388F3B113F00303F8
:105500001BD10122009219461A4609A8FFF7F4FEA2
:1055100023880BB1013B238000246420347008F001
:1055200015F911480094234601222146FFF7E4FEB5
:1055300010B070BD4FF4F07323800021012300915F
:105540001A46E2E7D0E5032008DF0320D8DD032078
:105550002CDE0320AEDD0320B0E5032037470C002E
:105560007CDD0320BCDD032050470C0010B52DED81
:10557000028B90B0FFF77AFB70B3324BDFED326AEB
:10558000D3ED007A314BF8EEE77A87EEA67A83ED19
:10559000007A2F4BD3ED007A2E4BF8EEE77A17EE18
:1055A000100A87EEA68A83ED008A0CF0EBF902461A
:1055B0000B4618EE100ACDE906230CF0E3F9DDE9FD
:1055C0000623CDE90001244908A808F06BF80BF088
:1055D0009FFD08A90BF0F3F8FFF7CAFA0BF098FD4E
:1055E0001E4B1A781E4B0692044618680CF0CAF936
:1055F000CDE904011B4B18680CF0C4F9CDE9020198
:10560000194B18680CF0BEF9069ACDE9000117494C
:105610002046FEF7A1FEFFF75FFBFFF7E1FCFFF777
:1056200037FFFFF73BFB124B1B780BB1FFF762FD17
:10563000FFF7CAFE642010B0BDEC028BBDE810403D
:1056400008F084B830DE03208096184B2CDE03204F
:105650000CDF032008DF03205E470C00D8DD0320A9
:105660008CE50320D4DD0320DCDD03207D470C0026
:10567000E4E0032070B5D0E900531426044606FB8D
:105680000356AE4204D028460BF0C6FA1435F8E7AC
:10569000206807F0F7FF204670BDF0B516468FB0C2
:1056A0000022C0E9002204460D4609AF194604A8AD
:1056B00008F062FA1499384608F05EFA169B0293D5
:1056C000159B2046CDE90073324604AB294608F00D
:1056D000C9FF20460FB0F0BD13B50B4C2178BFF3C6
:1056E0005B8F11F001010BD120460191FEF7E8FC20
:1056F000019928B105480BF042F92046FEF7E5FC78
:10570000024802B010BD00BF70DD032074DD03202D
:1057100008B5FFF7E1FF4FF6FF7200210BF04DF9DE
:10572000FFF7DAFFBDE80840014901220BF0E4B9B8
:1057300040420F002DE9F04FBC48BD4E037CBD4DEB
:1057400003F0030343F0780393B0037400220121B4
:10575000043007F0A9FE012102200BF0D9FD012140
:105760001C200BF0D5FD00211D200BF0D1FD0021E8
:1057700002200BF0DEFD00211C2000240BF0D9FDDF
:10578000B42707F0A1FC5A2333702B704FF47A72C0
:10579000CDE900474FF4FA630621A7480BF0BEF8A5
:1057A0004FF47A724FF4FA63CDE900470521A3481C
:1057B000A34F0BF0B3F831789F48A24E0BF071F86D
:1057C00029789E480BF06DF84FF4FA6007F0BEFFA1
:1057D00008F020FB08F068FB08F01CFB082108F02B
:1057E0006AFB0BF095FC4FF416510BF081FC0BF0AB
:1057F00027FE4FF416510BF023FCFFF789FFFFF74C
:105800006DF9FFF783F9FFF755F907F05DFC8E4B53
:10581000186007F059FC8D4B186007F055FC8C4B55
:1058200018608C4B1C608C4B1C608C4B1C708C4B20
:105830001C708C4B1C708C4B4FF4F0721A808B4B8D
:10584000012532221A703D70357008F0E3FA884A5B
:1058500001460DA809F030F80DA808F0E0FB08F0AB
:10586000D9FA844A01460DA809F026F80DA808F0D7
:10587000D6FB08F0CFFA804A01460DA809F01CF8C3
:105880000DA808F0CCFB7D4B1D707D4B0DA8196851
:1058900008F072F90DA808F0D1F805460DA8002D02
:1058A00040F0B88008F0E6F80095ADF82400022337
:1058B00009AA0321734808F0DDFC00236F497148F1
:1058C000082208F0F5FC08F0A5FA00226D4908F05E
:1058D00052FB0BF075FD09F063FC0BF071FD6A499A
:1058E00009F05AFC0BF06CFD1C210246674802F0DF
:1058F00076F8002840F095800BF00AFC64490AF025
:105900005EFF6248012101F063FF6048002101F061
:10591000C3FF5E48012101F08DFF5C48002101F0CA
:10592000D6FF0124002559484FF4FA7102F076F8A9
:1059300023462A462946CDE901545448009402F0F2
:1059400085F80BF009FB07900BF0FAFA80460BF094
:105950000BFB81460BF0D0FA82460BF0D9FA834656
:105960000BF0E2FA079B4B4ACDF80080CDE903B07B
:105970001021CDE9019A09A807F09CFE4649474845
:105980000CF05CFC09A945480CF028FC434944484C
:105990000CF054FC434941480CF020FC424940487B
:1059A0000CF01CFC0BF0B4FB3C490AF008FF0BF0B8
:1059B000AFFB3B490AF003FF3C486FF00041FEF7A4
:1059C0007BFC3B486FF00041FEF776FC39486FF0F6
:1059D0000041FEF771FC38486FF00041FEF76CFCA7
:1059E000364B0D933648374BADF840400DAA082191
:1059F0008DF838500F93FEF73DFE0446002867D11E
:105A00000BF086FB30490AF0DAFE3C70347013B0BC
:105A1000BDE8F08F08F030F800940246102307210B
:105A200048E70BF075FB294969E700BF90E50320C3
:105A300088E5032089E503208CDD03209CDD03201D
:105A400005DF032004DF032084E50320E0DD0320DD
:105A500028DE0320C0DD032088DD0320E4DD0320F1
:105A6000E4E00320E5E00320AEDD0320D8DD0320E1
:105A7000D4E50320E8E00320DCE003207DDD032003
:105A80007CDB0320C8DD0320801A060050DE0320E3
:105A9000CB470C009B450C00F6470C00E6DD0320CD
:105AA00004DE0320A9460C00FF470C00E0E50320BC
:105AB00014DF032034DE0320B4E50320BC480C00CF
:105AC000F0E0032000127A0008480C00E7470C00C1
:105AD0003B787BB11248037C2BB9124944F2022275
:105AE0001030FEF753FD10490D480AF068FE0F48CC
:105AF00000F07AFC3378002B89D00D48037C2BB959
:105B00000C4944F202221030FEF740FD0A490848D1
:105B10000122FEF721FC094800F066FC77E700BF90
:105B200030DF0320E6DD03202D480C0040DF03209A
:105B3000ACDE032004DE032083480C00BCDE03201F
:105B40008842F8B504460D46164616D9904215D23D
:105B5000A2F11406751AA1F114072C44B7421CD007
:105B60002CB1314620460BF0D3F8337C23743046F9
:105B70000BF052F8143E143CF0E70ED0B5420CD0B6
:105B80002CB1294620460BF0C3F82B7C2374284601
:105B90000BF042F814351434F0E7F8BD2DE9F0416C
:105BA0000023C0E9003383604F689F4204460E46DD
:105BB00023DD4FF0140808FB07F007F05BFD0546F6
:105BC000D8B1D4E9001208FB0212FFF7B9FF206830
:105BD00007F058FD2560A760D6E9007308FB03783D
:105BE000B84508D0394628460BF0ACF83B7C2B74FE
:105BF00014371435F4E7736863602046BDE8F0811C
:105C0000F0B5794B794A7A4C01261E70794B002504
:105C1000C3E900559A6093B0032007F057FC76481B
:105C200001F070FF754801F057FDFFF755FD642343
:105C3000C4F86034724B6560C4F83C54C4F86854CE
:105C4000C4F8703484F87464C4F87854A4F87C54AC
:105C500008B9FFF741FD6B4B6B4AC4F86C044FF475
:105C60007A7700241A60C3E901471C61674B0794E7
:105C70001A60C3E901471C61654B664D1A60C3E9B0
:105C800001471C61CDE905440BF042FA05A906461F
:105C900008A8FFF783FF08A90BA8FFF77FFF5E4B5B
:105CA0002B600BA90EA8FFF779FF0EAA1E21281D55
:105CB0000AF0ACF90EA8FFF7DDFC0BA8FFF7DAFC41
:105CC000564B2B602E6208A8FFF7D4FC544B2B6078
:105CD0000BF01EFA4FF416510BF00AFA09F078FE99
:105CE00029460AF069F805A8FFF7C4FC4D484E4D57
:105CF0004E4E0AF0FFFD4E480AF0FCFDCDE901448E
:105D00002B6800934B4B4C491B684C484FF01002DA
:105D1000FFF7C3FC4A4B029401932B680093494B55
:105D200049491B6849484FF00402FFF7B6FCCDE92A
:105D300001442B680093464B46491B684648474D33
:105D40004FF01002FFF7A9FC454808F09EFA454BBA
:105D50000E930EAA234643F69821434811961095B8
:105D6000FEF77AFB0EA8FEF739FB404B0E930EAA06
:105D7000234639463E48CDE91056FEF76DFB0EA886
:105D8000FEF72CFB3B4B0E930EAA234640F6C411A4
:105D90003948CDE91056FEF75FFB0EA8FEF71EFB53
:105DA000364B0E930EAA234643F698213448CDE98C
:105DB0001056FEF751FB0EA8FEF710FB22461421E9
:105DC000012007F0ABFB01221421CDE900120346AC
:105DD0006FF07F412B4809F07DFC2B492B4813B015
:105DE000BDE8F0400AF063BFC4DD03200000FFFF00
:105DF000F0E00320B0DD032064DF032050DE032049
:105E0000BC480C0030DF032028490C00ACDE032026
:105E100078DE0320E0DE0320E4480C00B85A0C00D2
:105E200010490C008CDD03207CDB032035420B0085
:105E30009CDD032088DB0320A8480C00D4E5032068
:105E40000D4A0B0084DB0320AB480C00E8E0032084
:105E500080DB0320AE480C00DCE0032021420B0075
:105E6000C8DD03209D450B00E0E50320D1440B0075
:105E700034DE032075430B0014DF0320FD400B00CC
:105E8000B4E5032090E50320835A0C00FCE50320D1
:105E900038B504460D46242200210CF069F9A560AE
:105EA000EB79102B03D0202B06D0002038BD202307
:105EB00001202370A070F9E74023F9E710B50446EC
:105EC000243000F066FF28B104F50C70BDE81040E6
:105ED00000F05FBF10BD8378016943F00403837055
:105EE00000F11002806801F00AB800002DE9F041CD
:105EF000017811F02005044603D000263046BDE8A5
:105F0000F0814269174B9A42F7D2FFF7E4FF064649
:105F10000028F2D02169A06800F086FF0746A0683B
:105F200005223946243000F05CFF80460028E4D08A
:105F300029464FF400720CF01BF90125A3681A7969
:105F4000AA4209D918684246E91901F0B6FA0028B0
:105F5000D3D00135EDB2F1E7636903EB422363610E
:105F6000CCE700BF00FE1F0010B5044680680A465B
:105F70002430A16900F035FF20B1A38803F00F039E
:105F800000EB431010BD0023F0B50446451E082663
:105F900018462E2715F8012F202A18D0082B02BFEB
:105FA0000F54421CD0B22A78A2F1410C08BF10262F
:105FB000BCF1190F06D894F80CC016EA0C0F1CBFE0
:105FC0002032D2B200F1010C0A545FFA8CF0013396
:105FD000DBB20B2BDED100230B54F0BD03780BB9E1
:105FE000FFF756BF002070472DE9F74F03780446AE
:105FF00088461546002B5DD08278D1075AD51A07FE
:106000002DD5C36942699B1A9D4228BF1D462E4665
:106010004FF0000904F1100B002E00F08F80227861
:106020006369A0689706C3F3080A4FEA53211FD596
:10603000006A0144A068BAF1000F42D1B6F5007FB2
:106040003FD3C36A99423CD0B6F5806F52D2006804
:10605000424601F0A9F968B34FF4007744E09B068B
:10606000D5D583681A894369C3EB42139BB2CBE74A
:1060700090F8059009EA0109BAF1000F08D1B9F1C9
:10608000000F05D15BB951064CBF036A236A236137
:106090002169A06800F0C8FE09EB0001CAE7216988
:1060A0005A4600F0C7FE002804DBF1D1237813F034
:1060B000700F43D1637843F0020363704FF0FF30F9
:1060C0003DE0CAF50077B7424FF0000200F124002E
:1060D00028BF374600F085FE0028EBD000EB0A0110
:1060E0003A4640460CF01CF863693B44B84463618F
:1060F000F61B91E7227892064FEA562A06D40279D7
:10610000A2EB0902D2B2924528BF924699424FEAC9
:106110004A2708D2A06853460068424601F08CF92D
:106120000028E1D1C6E753448B42F3D924300191D2
:1061300000F02FFE01990028ECD1BBE7A81B03B0AB
:10614000BDE8F08F73B501220DF10701D0E90456C7
:106150000446FFF749FF01280ABF9DF807004FF0EA
:10616000FF30C4E9045602B070BD37B5436913F47B
:10617000F07F0446C3F3431500D099B901220DF115
:1061800007012046FFF730FF40B2012802D000206F
:1061900003B030BD63691F33A0686361303000EB2A
:1061A0004510F5E72033F7E72DE9F041027807695C
:1061B00004460D4662B14069884202D019B9216196
:1061C0006561012006E0160706D5E3698B420BD214
:1061D00027610020BDE8F081910605D5A3681B89E1
:1061E000B5EB431FECD9F3E7D4F808C09CF8066080
:1061F000431E06F109016E1ECB40CE40B34200D8CB
:1062000098B953064CBFDCF82030236A236104F1AF
:106210001008002ED4D02169A068424600F00AFE82
:10622000002806F1FF36F4DCD2E7F61AEFE7F8B5FE
:106230000F4604461546002124221E460BF098FF07
:10624000B868A060A58005F00F053B6AE3606A01AD
:1062500000EB451595F83B301F0744D403F01703B6
:10626000237095F83B1011F0180F04BF43F008039A
:1062700023709DF81830E37006F00303012B2CD037
:10628000022B28D07BBB71052DD40123A370A178EC
:106290008B0704D52378DF0625D4DD0723D4B3117B
:1062A00023F07F0306F008052B430B43A370C36A5A
:1062B000A3618318B3F84420B3F84A1041EA0241BD
:1062C000720513D559B9A37843F00403A37073047E
:1062D00010D40120F8BD0323D8E70223D6E700F04D
:1062E00049FE0028EFD100202070F3E72162DB6C2B
:1062F000E361ECE7E1692046FFF756FF0028E8D1AB
:10630000F1E72DE9F347037807460D46924653BB64
:106310000B7813F0700F26D04C6914F01F0422D1B3
:10632000A04600212846D5F81490FFF71EFFD0B1F3
:106330000678C6B12E2E10D0E52E0ED0C37A1A07DD
:1063400013D464B900945346C9F34F122946384612
:10635000FFF76DFF02B0BDE8F0870024E1E700F031
:1063600071F94045EED00020F4E70F2BF5D173060C
:10637000D7D590F80D8006F01F04D2E738B5037822
:1063800004460BB9012038BD83785A0723D5012173
:10639000FFF7EAFD054628B9637843F0010363700F
:1063A0000020F0E70378E52BF6D023781B0744BFE5
:1063B000E369C361236A4383638C8382094B1B684F
:1063C0002BB100F11601183098472B8B6B82A37804
:1063D00023F00403A370A068FFF770FD0028DBD052
:1063E000D0E700BF0CE6032010B50446FFF7C6FF58
:1063F0000023237010BDF0B593B01F46002309930E
:106400000378019206460C4613B1002013B0F0BD8C
:106410000B7813F0700FF8D013782F2B12D1019A4C
:1064200013782F2B02D101320192F8E7A1681BB932
:106430003046FFF7D3FDE9E709A8FFF729FD00285B
:10644000E3D009AC019801AA03A900F08FF9002854
:10645000DBD0019B1B789BB1002303AA2146304669
:1064600000F0B6FA0028D0D035460FCD09AC0FC4E5
:106470000FCD0FC42B6823603046FFF7B5FFE0E770
:106480003B4603AA2146304600F0A2FABEE70000D0
:106490002DE9F047037889461907044617465BD56E
:1064A00083789A0758D51B0751D46369DB43BB42F5
:1064B00052D3B84604F1100A6669B8F1000F00F033
:1064C0009180A0684379C6F3080513EA56260ED1D9
:1064D0006DB92169002946D0524600F0ABFC002876
:1064E0003ADB04D12046FFF7F6FC002834D02169BE
:1064F000A06800F099FC3118A06815B9B8F5007FC4
:106500003FD2C5F50076464528BF4646002D36D118
:106510006269E3699A4234BF01220522243000F007
:1065200060FCC8B128443246494635440BF0F8FDBA
:10653000B5F5007F04D1A068243000F02AFC58B1E2
:10654000636933446361B144A8EB0608B4E7C169E9
:10655000FFF72AFE0028A8D1637843F00103637097
:106560004FF0FF3050E0236A3BB92046FFF7B3FC01
:106570000028F1D023692362B9E72361B7E701223C
:10658000CCE7B8F5806FC26A1BD390F804C0ACEBBF
:106590000606F3B24FEA582E734528BF7346914260
:1065A0004FEA432607D31A448A4282BF4FF0FF3294
:1065B00080F82450C262A5684A46286800F0F3FFBC
:1065C000BDE7914202BF4FF0FF3380F82450C36211
:1065D000A3684A46186800F070FF0028BCD04FF44A
:1065E0000076ADE7E269A378B24204D2E66143F0F7
:1065F0000403A37003E0084A1268002AF7D194F953
:106600000230002B02DB3846BDE8F0872046FFF75A
:10661000B5FE0028F7D19FE70CE60320042904D833
:1066200000EB4100B0F8010070470A299BBF01F15F
:10663000FF3100EB41000131C08884BF00EB410015
:1066400080887047411E00F10A030020420842EA98
:10665000C01011F8012F52FA80F08B42C0B2F5D170
:10666000704738B5CB6804460D4623B9BDE83840BD
:106670008968FFF7B3BC242200210BF079FD1023B9
:1066800001202370A070AB68A360EB68236238BD63
:106690002DE9F04F8DB003784FF0000906460F4604
:1066A0009046CDF80C90002B5DD00C2A5BD9C378B6
:1066B00033B900F057FB044620460DB0BDE8F08F1B
:1066C000014603A8FFF7CDFF00284CD007EB0803D5
:1066D0004FF0010B4FF00D0A0093F3785FFA8BF542
:1066E000AB4240D3B188A1EB0B01490103A8FFF7EE
:1066F0005BFD0446002836D0002103A8FFF735FDD6
:10670000034680B3C27A0F2A2DD1027802F01F020D
:10671000AA4228D10BF1FF350AFB05F57A190021B1
:1067200018460191FFF77AFF68B1A84512D901997F
:1067300001317F28C9B228BF3F200D2902F8010B83
:1067400005F10105ECD1A84504D91A78520648BFD5
:1067500007F80590009A02F8019C1B785B060BF184
:10676000010BBAD5A8E700243C70A5E72DE9F04756
:10677000064610F8013B202BFAD06A4D8E600024AB
:10678000335DC3B12F2B16D05C2B02D10020BDE8A6
:10679000F087A3F12200C0B21D2803D825FA00F02B
:1067A000C007F3D403F0BF003C28EFD0203B5E2BA2
:1067B000ECD80134E4E733191846074610F8015BBA
:1067C000202DFAD02F2DF8D017604CB113F8012DE1
:1067D0002E2A01D0202A01D1013CF6E7FF2CD5DC7E
:1067E0004FF02033C1F811304C60C1F80D304B61CF
:1067F0004FF0000816F808302E2B01D0202B02D1C4
:1068000008F10108F6E7B8FA88F04009651E6B1C2C
:1068100002D0735D2E2B14D14FF0000907274A4692
:10682000CA464FF0080EA04568DA16F80830202B4B
:1068300003D02E2B07D1A84512D0002008F1010863
:10684000F1E7013DE3E7222B08D07C2B06D0A3F132
:106850002A0CBCF1050F0AD82D2B12D0A8455BD10C
:106860000A2F4AD00A2708224FF0100EE6E7A3F1BC
:106870003A0CBCF1050FF1D9A3F15B0CBCF1020F8E
:10688000ECD9A3F1210CBCF15D0FE7D8A845E7D006
:10689000BA4230D8A3F1610CBCF1190F1AD8203BD1
:1068A0004EEA0909DBB25FFA89F902F1010C5FFADD
:1068B0008CFC0A44BCF1060F537301D881F80CC05C
:1068C0006246BBE7A84518DCA8460A2708224FF015
:1068D000100EB2E7A3F1410CBCF1190F98BF4EEABC
:1068E0000A0AE2E70B7B0120087019447E234B73F0
:1068F00031238B734BE70A2FE4D100204B7B202BF5
:106900003FF444AF0028EDD01AEA090F18BF4FF04A
:10691000020981F800903AE7BA42ECD800205F23E0
:10692000C3E700BF010100312DE9F84391F80C9055
:1069300006460C4602257E2701F10D086168A26813
:106940006B189BB21144914206D012F8010B03EB75
:10695000431343409BB2F6E7B9F1030F28BF4FF052
:10696000030909F10402D2B203F00F01A018013AA1
:106970000929D2B294BF30313731914541734FEA82
:106980001313F1D104EB090300215F733046FFF7C5
:106990000BFC01213046FFF7E8FB014628B970786F
:1069A000B0FA80F04009BDE8F88303786BB1C37A90
:1069B0001B07EED40B2240460BF0A2FB0028E8D1C7
:1069C0000135ADB2642DB9D1EDE70120EBE7000050
:1069D0002DE9F04F2DED028B8BB00D4606930B7811
:1069E000079013F0700F174605D100200BB0BDECD7
:1069F000028BBDE8F08F079B1B78002BF5D1536805
:106A0000059313789C071FBF059B0C330D22B3FB26
:106A1000F2F31ABF0133DBB20123002128460393AE
:106A2000FFF7C2FB07F10D034FF0000B08EE103A21
:106A3000DA465C465E46CDF810B0D9466B69012156
:106A40002846C3F34F18FFF790FB0346002871D187
:106A50006B78002BC9D1069B9A05C6D503F00303BA
:106A6000013B012BC1D8049B002C08BF4346049373
:106A7000039B9C42C0F0F180B9F1000F40F00A8105
:106A8000049B28465901FFF78FFB0028ADD0039BDC
:106A900003F1FF395FFA89F94E464FF0000A4FF0D3
:106AA0000F08002E00F00D8100212846FFF75DFB46
:106AB0000446002899D0AA6892F824304E4543F045
:106AC00001030CBF46F0400BB34682F8243080F837
:106AD00000B080F80B8080F80CA007F10D00FFF7E4
:106AE000B1FD84F81AA0607384F81BA00BF01F039B
:106AF0000D22013BD7F808C0534300220599994263
:106B000040F2D0801CF80310042A5FFA82FE02F1E2
:106B1000010000F2CD8004EB4202A2F801100D2822
:106B200003F101030246E9D1013EF6B2B9E74FF0A5
:106B3000010983E70278E52A00D07AB90499002C8C
:106B400008BF4146049103998C423CBF0134E4B232
:106B5000002A80D0E52A05D100266FE703998C42F0
:106B600038BF00242E2AF7D0D97A0F294AD116BB74
:106B700012F040063FF462AF02F01F0693F80DB02A
:106B8000B2460D220AF1FF3802FB08F8059A424589
:106B9000E2D9A2EB08020892002202EB0801099157
:106BA0001846D1B2FFF73AFD08998A420DD1002864
:106BB00018BF002642E70AF1FF3A5FFA8AFA524507
:106BC000CAD15A7B5A45DCD0C6E7FF28C4D85FFA41
:106BD00080FEAEF141011929B9689CBF0EF1200079
:106BE0005FFA80FE08460999415CA1F1410CBCF1B5
:106BF000190F9CBF2031C9B27145ADD101320D2AA8
:106C0000CBD11BE70807A7D45EB1BAF1010F7FF41F
:106C1000ECAE1846FFF716FD58457FF4E6AEB146D8
:106C20000EE018EE101A0B2218460BF069FA002835
:106C30007FF404AF97F8009019F001097FF477AF63
:106C4000069B19053FF5D1AE069B0798CDF800903D
:106C500042462946FFF7EBFAC8E600212846FFF72F
:106C600084FAA0B96B78002B7FF4BFAE2846FFF7FB
:106C70003DF900283FF4B9AEAB681B79012B3FF614
:106C8000FBAE039B1034E4B2A342EFD8F4E6013428
:106C9000E4B2EDE639462846FFF746FE00287FF4C9
:106CA000EFAEA2E614BF4FF0FF31002189B22BE70F
:106CB000BEF10A0F94BF04EB420204EB4002918044
:106CC0002DE731462846D5F81480FFF74EFA0446E2
:106CD00000283FF48AAE202231460BF049FAD7F85B
:106CE0000D302360D7F811306360B7F81530238179
:106CF000FB7DA3723B7803F0180323730F4B1B68D3
:106D00009BB104F10E0104F110009847238A6382BD
:106D10002383E389E382AA6892F8243043F00103D5
:106D2000C8F34F1882F824308EE7212323742823D8
:106D300063740823A673E373E8E700BF0CE603203F
:106D400013B50446084659B101910BF09CFA23682B
:106D50000199DB680246204602B0BDE810401847A2
:106D600002B010BD10B50C46017809B9002010BD65
:106D700011F0600105D02F232370002363700120E0
:106D8000F5E7FFF7F1F80028F0D02146FFF7FBF810
:106D9000F5E737B50378DA07044620D543688168FC
:106DA00000F10C021868019200F087FB019A054679
:106DB00018B90025284603B030BD23789B0704D4BA
:106DC000237823F001032370F4E7D4E90130196933
:106DD0000144186800F071FB0028F1D1E9E70125B2
:106DE000E8E770B583688B4204460E46154609D025
:106DF000FFF7CFFF08B9002070BD6B070AD500234D
:106E00002370A660227805F003052046154300F89C
:106E10000C5BF1E7636804F10C021868314600F07E
:106E2000C3FA0028EBD1E6E783794069023999403B
:106E300008447047012970B505460C46164602D82D
:106E40004FF0FF3070BDC3698B42F9D3C379202B5B
:106E500016D18169022201EBD41100F50C70FFF705
:106E6000C0FF0028ECD004F07F0450F8243023F059
:106E70007043EA699A4226BF336001200020E1E7AF
:106E8000102BDDD1C1F3072381690222194400F5DB
:106E90000C70FFF7A6FF0028D2D0E4B230F814300F
:106EA000E7E7012938B50C46154601D8002038BD62
:106EB000C3698B42FAD3C379202B0FD18169032296
:106EC00001EBD41100F50C70FFF78BFF0028EDD01B
:106ED00004F07F0440F824500120E8E7102BE5D1AE
:106EE000C1F3072381690322194400F50C70FFF7F1
:106EF00078FF0028DAD0E4B220F81450ECE72DE94E
:106F0000F341C4688C4205460E46904601D30127E2
:106F100001E00C460027EB690134A34202D2C7B955
:106F2000EC68F4E7A64214D001AA21462846FFF7F0
:106F300081FF00280DDBEED0019B002BEBD107B1C8
:106F4000EC606FF0704221462846FFF7AAFF074623
:106F500020B90027384602B0BDE8F08116B9C8F85C
:106F60000040F7E7224631462846FFF79AFF0028FF
:106F7000F5D1EEE773B505460C4601AA2146284631
:106F8000FFF758FF061E10DB002221462846FFF7B8
:106F900088FF50B1EB68A34224BF04F1FF34EC60DA
:106FA000019C002EE9D102B070BD0020FBE7012357
:106FB00070B50022C3604FF0FF330446C27100F188
:106FC0002406806280F82420C362C0F8340280F86E
:106FD0003022C0F838320D46B9B1042901D9002059
:106FE00070BD11463046FFF7FCFE0028F7D000EBDD
:106FF000051393F8AE315B06F1D105F11B0100EBEF
:107000000110D0F80650002DE9D000222946304664
:10701000FFF7E7FE0028E2D0B0F80B30B3F5007FB1
:10702000DDD1037C022BDAD1C389002BD7D0417B81
:1070300021714B1E63710023A3710926012399421C
:1070400007D0013ECBD0A2795B000132DBB2A27146
:10705000F5E7C18A01B9416A2161C3892B44A36163
:10706000B0F81120228103EB41032362B0F8111024
:10707000490101F2FF1103EB51236361B0F81320C2
:1070800002B9026AE91AA3791144D9404B1CE361A1
:1070900040F6F473994202D80C23E3719FE74FF650
:1070A000F473994285BFC36A236210232023E371DE
:1070B000012095E700F0CABA00F0ADBA70B50E4EE7
:1070C0000D46144605F0F8FF3368C01A0B4B984282
:1070D00008D905F0F9FF0A4B186006F03BFA05F0F5
:1070E000EBFF306005F0F0FF80B2401BA042D4BF40
:1070F0000020012070BD00BF14E60320A08601001F
:1071000028E7032038B5057A04464DB9406800F0F9
:107110006BFA63682946187D0AF00BF90123237284
:1071200038BD10B5037A04466BB143680121187D60
:107130000AF0FFF86068FF21FFF7BCFF606800F00D
:1071400067FA0023237210BDF8B504460D461646B3
:1071500005F0BAFF87B26068FFF7AEFFFF286072E4
:107160000ED14FF47A7239462046FFF7A7FF002868
:10717000F1D0552320462370FFF7D3FF0020F8BD40
:10718000FE2801D05023F5E760683246294600F01A
:1071900047FA607208B16023ECE76068FFF78CFF84
:1071A0006068FFF789FF0120E9E770B504460E46E5
:1071B00005F08AFF85B2324629462046FFF77EFF5A
:1071C00030B96068FFF778FFFF28F4D1012070BD67
:1071D0000020FCE7F7B5037A019204460D460BB98F
:1071E000FFF790FF25B14FF496712046FFF7DDFFC2
:1071F000606845F04001FFF75DFF032601AFB95D10
:107200006068FFF757FF013EF9D2002D60680CBFA0
:1072100095218721FFF74EFF6068FFF74DFF0B2593
:107220006068FFF749FF0306607203D5013D15F062
:10723000FF05F5D103B0F0BD70B504460D46164606
:1072400037210022FFF7C6FF324629462046BDE817
:107250007040FFF7BFBF00002DE9F0410025057227
:10726000057085724160044690461E4605F02CFF6D
:1072700041460746606800F0BBF96368494A1D72E1
:107280000125DA601D822046FFF73CFF636829462E
:10729000187D0AF04EF80A256068FF21013DFFF7CE
:1072A00009FF15F0FF05F7D163682946187D0AF03C
:1072B00040F80A25002211462046FFF78BFF0128DF
:1072C000804618D0013D15F0FF0507D12023204648
:1072D0002370FFF726FF0020BDE8F0816068FD21E4
:1072E000FFF7E8FE4FF402786068FFF7E5FEB8F1BB
:1072F0000108F9D1DEE74FF4D57208212046FFF7E7
:1073000069FF052814D184F80A800025BFB22A46F7
:1073100029212046FFF790FF0246D8B14FF4FA62C8
:1073200039462046FFF7CAFE0028F0D04323CEE7B7
:1073300004256068FFF7C0FE013D15F0FF0560728F
:10734000F7D1AA2804D10223A3724FF08045DDE7CC
:107350002523BCE7A37A022B18D13A212046FFF758
:1073600039FF08B13723B2E76068FFF7A5FE00F0E8
:10737000C000C02804BF0323A3726068FFF79CFE0F
:107380006068FFF799FE6068FFF796FE2046FFF7FA
:10739000C8FE63683079B168B2891A821872D96000
:1073A000012099E790D0030038B5837A032B18BFEA
:1073B000490215460A4611210446FFF70BFF30B17A
:1073C000302323702046FFF7ACFE00250BE0294652
:1073D0004FF400722046FFF7B7FE05460028F1D0B3
:1073E0002046FFF79EFE284638BD10B5837A032B52
:1073F0000A4618BF4A0212210446FFF7EBFE30B1DD
:10740000312320462370FFF78CFE002010BD0120A1
:10741000FCE710B500220C210446FFF7DBFE30B17B
:10742000282320462370FFF77CFE002010BD204655
:10743000FFF777FE0120F9E7F8B5044616461F4628
:10744000FFF7D3FF68B10025ABB29F4206EB4521A1
:1074500009D94FF400722046FFF776FE0135002867
:10746000F2D10020F8BD2046BDE8F840FFF7D1BFBB
:1074700038B5044615464068FFF71CFE4FF400720D
:107480006068294600F0E6F86068FF21FFF712FE09
:107490006068FF21FFF70EFE6068FFF70DFE607267
:1074A00000F01F00052806D0572320462370FFF761
:1074B00038FE002038BD0120FCE770B5837A032B2D
:1074C00018BF490215460A4618210446FFF782FEF6
:1074D000064630B1322323702046FFF722FE0025F6
:1074E0001FE02A46FE212046FFF7C2FF0028F3D006
:1074F0004FF4FA612046FFF758FE054608B95A23B3
:10750000E9E732460D212046FFF764FE08B1292342
:10751000E1E76068FFF7D0FD0028F8D12046FFF7CB
:1075200000FE284670BD13B501914FF4FA61044680
:10753000FFF73BFE019A30B95B2323702046FFF72B
:10754000F0FD002005E0FC212046FFF791FF002818
:10755000F4D002B010BD10B5837A032B0A4618BFD1
:107560004A0219210446FFF735FE30B13323204685
:107570002370FFF7D6FD002010BD0120FCE738B5D1
:107580004FF4FA610446FFF710FE054630B9562362
:1075900023702046FFF7C5FD284638BD6068FD21F1
:1075A000FFF788FDF5E7F8B5044616461F46FFF7D6
:1075B000D2FF70B10025BD4206EB4521204604D024
:1075C000FFF7B1FF28B10135F5E7BDE8F840FFF757
:1075D000D6BF2046FFF7A5FD0020F8BD014B0122D4
:1075E0001A70704718E60320011D006809F016BAEA
:1075F00010B504460175006809F0CBF9207D012122
:1076000009F086FE207D0121BDE8104009F091BE01
:10761000006809F0E9B90068FF2109F09FBA00008D
:1076200037B51346074A00920025074C00682570BD
:107630000A46294609F098FA2378002BFCD000204E
:1076400003B030BDDD750B0018E60320006809F0BB
:1076500085BA000037B51346064A00920025064C4D
:10766000006825702A4609F07FFA2378002BFCD0A9
:1076700003B030BDDD750B0018E60320704770477E
:1076800038B50C4605462022002104F108000AF016
:107690006FFD09490B2220460AF024FE0123E36016
:1076A0006B6A236102236361044BE361044BA361B2
:1076B000044B236238BD00BFF8490C000000C8C469
:1076C0000000C8448FC2753C10B528210446FCF761
:1076D000E8FC204610BD0000034A02600022C0E919
:1076E00007220276704700BF184A0C0030B501230C
:1076F0008DB00022CDE9022306252822CDE9002500
:107700000446D0E9071206A805F01AF92A4604A98A
:1077100006A805F093F9257EBDF91010BDF91220D9
:10772000BDF91430E180032D98BF1248228107EE85
:10773000101A9CBF00EB8500D0ED007A6381B8EE93
:10774000C77A88BFF7EE007AC7EE276A07EE102ADD
:10775000B8EEC77AC4ED036AC7EE276A07EE103A9F
:10776000B8EEC77AC4ED046AC7EE276AC4ED056AAD
:107770000DB030BD004A0C0038B50C46054620223D
:107780000021201D0AF0F4FC242323606B6A63604F
:107790000223A36005F098FC20612846FFF7A6FFAE
:1077A000D5ED037A9FED097A67EE877A0120C4ED63
:1077B000057AD5ED047A67EE877AC4ED067AD5EDC1
:1077C000057A67EE877AC4ED077A38BD0000C842B3
:1077D000F0B5012595B00027CDE90275202300936F
:1077E00001950E460446D0E907122B4608A805F07D
:1077F000A7F80523022208A904A805F07DF931465F
:1078000004A805F08BF92323D4E907120093CDE9EE
:1078100002752B4601950EA805F092F802231A4630
:107820000EA906A805F068F9314606A805F076F914
:1078300015B0F0BD70B501298CB006460C4603D1D9
:107840000321FFF7C5FF09E0032903D0052903D170
:107850000121F6E70221F4E707291BD00A2005F0F1
:1078600075FF01250023CDE902352023D6E9071253
:10787000009301952B4606A805F062F82B460422DA
:1078800006A904A805F038F9214604A805F046F930
:107890000CB070BD0021D4E730B501238DB00025B8
:1078A000CDE902532222019300920C46D0E907123F
:1078B00006A805F045F82B46022206A904A805F003
:1078C0001BF9214604A805F029F90DB030BD30B5EB
:1078D00001238DB00022CDE90223212201930092E1
:1078E0000D460446D0E9071206A805F029F805233D
:1078F000022206A904A805F0FFF8294604A805F00D
:107900000DF925760DB030BD10B501238CB00022E5
:10791000CDE90223212201930092D0E90712044607
:1079200006A805F00DF80523022206A904A805F013
:10793000E3F804A805F0E5F8C0B220760CB010BD5D
:1079400030B500238DB00125CDE902352123009308
:107950000195D0E9071204462B4606A804F0F0FF73
:1079600002232A4606A904A805F0C6F8294604A859
:1079700005F0D4F80A2005F0E9FE2046FFF7C4FF21
:107980000DB030BD70B501268AB00025CDE9025694
:107990000F2300930196D0E907123346044604A84A
:1079A00004F0CEFF04A805F08BF83D2815D1204641
:1079B000FFF7C6FF03212046FFF70AFF31462046A6
:1079C000FFF738FF29462046FFF781FF204629466A
:1079D000FFF762FF30460AB070BD2846FBE737B5B7
:1079E000C36904465BB91020CDE90012FCF753FBD4
:1079F000054618B1DDE9001205F0A9F8E56100239C
:107A0000E0692362012105F0BEF828B1204603B0E9
:107A1000BDE83040FFF7B6BF03B030BD30B501233D
:107A20008BB00C46002532220221CDE90253CDE96C
:107A30000021D0E9071204A804F082FF2A46C4F30B
:107A40000E0104A804F0DCFF0BB030BD30B58BB0E4
:107A500000259DF83C40640044EAC1119DF838407F
:107A600041EA840141EA431343EA82129DF840400F
:107A7000012342F00802CDE90253D2B2144330226E
:107A800001930092D0E9071204A804F059FF2A4696
:107A9000214604A804F0B4FF0BB030BD10B5421865
:107AA000405C937854781B0443EA04230343D07862
:107AB00043EA006010BD4318405C5A7840EA022057
:107AC000704710B42AB902685DF8044B9268C9B2D5
:107AD00010475DF8044BD2B208F07DBE12B90368BE
:107AE0009B681847D2B208F076BE10B50446FFF77F
:107AF000F5FF2046BDE8104008F055BE0368C9B246
:107B00009B6818474FF4005202804221002210B5B2
:107B1000C0E90122C0E90322C0E90522C0E9072229
:107B2000C0E90922C0E90B22C0E90D22C0E90F22F9
:107B3000C0E91122C0E91322C0E91522C0E91722C9
:107B4000C0E91922C0E91B22C0E91D22C0E91F2299
:107B5000C0F8E810802180F8091100F1F401C0F8A4
:107B600014112549C0F8C42000F1F604C0E94612FA
:107B7000C0E92122C0E92322C0E92522C0E9272249
:107B8000C0E92922C0E92B22C0E92D22C0E92F2219
:107B9000C0E93E22C0E94022C0E94322C0F8D0201B
:107BA000C0F8D82080F80821C0F82021C0E9494158
:107BB000C0E94D21C0E951211049C0F84C1140F6EF
:107BC0006411A0F85011582180F85D110121C0E91D
:107BD0004B22C0E94F22C0F8542180F86421C0F83C
:107BE0006821A0F86C21C0F8EC20C0F8F010A0F8D3
:107BF0007221A0F8742110BD00000202000264642A
:107C0000F8B504460D46D0F8FC00A9B9A8B1FCF7B8
:107C100046FA94F8E930C4F8FC50C4F83451C4F87A
:107C2000F85013B994F8EA3023B12049D4F8D400BD
:107C300008F0CFFD012011E0B8B92846FCF72DFA75
:107C4000C4F8FC00C4F8340160BB94F8E930C4F80F
:107C5000F80023B994F8EA300BB90020F8BD1449B4
:107C6000D4F8D40008F0B5FDF7E70846FCF715FA9C
:107C7000064640B994F8E9301BB994F8EA30002B75
:107C8000EBD00C49ECE7D4E93E27AA4228BF2A46AC
:107C900039460AF045FA3846FCF701FAC4F8FC60A8
:107CA000C4F83461C4F8F850C4E700BF2C4A0C0093
:107CB000574A0C00824A0C000D2900F0CD8009D8EB
:107CC000022900F0A780062900F0BE80012916D005
:107CD00000207047132900F0D480282900F0DC80B0
:107CE0001029F5D1102A00F0C98000F2BA80022ACA
:107CF00000F0C180032AEBD1D0F8880066E0262A84
:107D000054D8002AE4D0013A252AE1D801A353F837
:107D100022F000BFCB7D0B00D17C0B00D57D0B008A
:107D2000D97D0B00DD7D0B00D17C0B00E17D0B00CC
:107D3000D17C0B00E57D0B00D17C0B00D17C0B00CE
:107D4000D17C0B00D17C0B00D17C0B00D17C0B00D3
:107D5000D17C0B00E97D0B00ED7D0B00F17D0B006C
:107D6000F57D0B00D17C0B00D17C0B00F97D0B0065
:107D7000D17C0B00D17C0B00D17C0B00D17C0B00A3
:107D8000D17C0B00D17C0B00D17C0B00D17C0B0093
:107D9000D17C0B00FD7D0B00017E0B00D17C0B0024
:107DA000D17C0B00D17C0B00057E0B003C2A2DD032
:107DB00005D8352A28D03B2A8AD1806C06E0602A73
:107DC00026D0612A84D1806900E0C068003818BFDD
:107DD000012070470069F9E74069F7E7C069F5E7F6
:107DE000006AF3E7406AF1E7C06AEFE7006BEDE78E
:107DF000406BEBE7806BE9E7C06BE7E7806AE5E79C
:107E0000006CE3E7406CE1E7C06CDFE7006DDDE7A5
:107E1000406DDBE7342A15D006D8132A0BD0152A7B
:107E20007FF456AFC06ED1E7722A06D0732A7FF472
:107E30004FAF006ECAE7806EC8E7836D002B3BD161
:107E4000C06DC3E7406EC1E722B1082A7FF440AF9E
:107E5000406FBBE7006FB9E7032A7FF439AF806F4B
:107E6000B4E7142A05D0152A7FF432AFD0F8800089
:107E7000ACE7C06FAAE7D0F88400A7E7D0F88C0081
:107E8000A4E7602A05D0802A7FF422AFD0F8A000B2
:107E90009CE7D0F89C0099E7012A07D0022A08D075
:107EA000002A7FF415AFD0F890008FE7D0F8940047
:107EB0008CE7D0F8980089E7012070470D2935D06C
:107EC00007D8022919D006292AD001290DD000206F
:107ED000704713292FD0282934D01029F7D1023A1E
:107EE000D2B2132AF3D81F4B04E0013AD2B2602A6F
:107EF000EDD81D4B33F812007047342A27D007D82D
:107F0000132A26D0152A14BF00204FF43960704779
:107F1000722A20D0732A14BF00204FF48470704757
:107F2000E2B1082A14BF002006207047032A14BFBC
:107F300000201C207047602A12D0802A14BF002025
:107F4000A4207047022AC2D8084B985C70470C20C6
:107F50007047482070474FF40470704714207047F2
:107F60000820704742570C0080560C006A570C00DE
:107F700010B590F8EC10CA0715D4D0F86021594B11
:107F800022F0FF029A4201D18B070CD490F86131A4
:107F9000472B74D1B0F8623145F24114A34204D1A9
:107FA00011F0040F6BD0012070E045F24214A3429F
:107FB00002D111F0080FF5E745F24234A34202D195
:107FC00011F0100FEEE744F24714A34202D111F072
:107FD000200FE7E744F64C44A34202D111F0400FD2
:107FE000E0E745F24C14A34202D111F0800FD9E72B
:107FF00045F24E118B4204D190F8ED3013F0010F91
:10800000D0E745F24E318B4204D190F8ED3013F0B9
:10801000020FC7E745F250118B4204D190F8ED30C2
:1080200013F0040FBEE745F251118B4204D190F8D2
:10803000ED3013F0080FB5E745F252318B4204D111
:1080400090F8ED3013F0100FACE744F253118B426F
:1080500004D190F8ED3013F0200FA3E745F253411F
:108060008B4204D190F8ED3013F0400F9AE745F2BF
:1080700053618B4203D190F9ED30002B93DB1A4B07
:108080009A4204D190F8EE0000F0010010BD174BA9
:108090009A4204D190F8EE00C0F34000F6E7144B8A
:1080A0009A4204D190F8EE00C0F38000EEE7114B45
:1080B0009A4204D190F8EE00C0F3C000E6E70E4B00
:1080C0009A4204D190F8EE00C0F30010DEE70B4BAB
:1080D0009A4204D190F8EE00C0F34010D6E7002099
:1080E000D4E700BF0044544D00524C4D00524D4364
:1080F0000054585400564C5700565447005A4441B7
:1081000090F85E312A2B57D190F85F31472B53D12D
:10811000D0F86031294A23F0FF03934211D090F840
:108120006121472A1AD1B0F86221A2F5A241413952
:1081300089B2102907D922F0100145F2423081425C
:1081400029D1012070471E4820FA01F1C907F8D44F
:1081500022F4007245F253418A42F2D0194A934206
:10816000EFD002F1764202F580329342E9D0164A0E
:108170009342E6D002F1022202F574029342E0D06B
:1081800002F1704202F500229342DAD00F481B1A26
:1081900058425841704744F247118A42D1D044F6C0
:1081A0004C418A42CDD045F24E318A42C9D044F288
:1081B00053118A42C5D0CBE7002070470044544D8C
:1081C00003A8010000524C4D00545854005A444139
:1081D00010B590F8F010CA0715D4D0F86021594BAB
:1081E00022F0FF029A4201D18B070CD490F8613142
:1081F000472B74D1B0F8623145F24114A34204D147
:1082000011F0040F6BD0012070E045F24214A3423C
:1082100002D111F0080FF5E745F24234A34202D132
:1082200011F0100FEEE744F24714A34202D111F00F
:10823000200FE7E744F64C44A34202D111F0400F6F
:10824000E0E745F24C14A34202D111F0800FD9E7C8
:1082500045F24E118B4204D190F8F13013F0010F2A
:10826000D0E745F24E318B4204D190F8F13013F053
:10827000020FC7E745F250118B4204D190F8F1305C
:1082800013F0040FBEE745F251118B4204D190F870
:10829000F13013F0080FB5E745F252318B4204D1AB
:1082A00090F8F13013F0100FACE744F253118B4209
:1082B00004D190F8F13013F0200FA3E745F25341B9
:1082C0008B4204D190F8F13013F0400F9AE745F259
:1082D00053618B4203D190F9F130002B93DB1A4BA1
:1082E0009A4204D190F8F20000F0010010BD174B43
:1082F0009A4204D190F8F200C0F34000F6E7144B24
:108300009A4204D190F8F200C0F38000EEE7114BDE
:108310009A4204D190F8F200C0F3C000E6E70E4B99
:108320009A4204D190F8F200C0F30010DEE70B4B44
:108330009A4204D190F8F200C0F34010D6E7002032
:10834000D4E700BF0044544D00524C4D00524D4301
:108350000054585400564C5700565447005A444154
:10836000D0F8D00010B103689B6818477047000030
:1083700037B53D4B044604F25F15186800909B88A2
:10838000ADF8043005222946684609F0B9FE28B93F
:10839000D4F8A43013B1012003B030BD334968468E
:1083A00009F04CFF05222946684609F0A9FE18B9D4
:1083B000D4F8A830002BEED12D49684609F03EFFD5
:1083C00005222946684609F09BFE18B9D4F8AC305E
:1083D000002BE0D12749684609F030FF05222946E5
:1083E000684609F08DFE18B9D4F8B030002BD2D110
:1083F0002149684609F022FF05222946684609F00E
:108400007FFE18B9D4F8B430002BC4D11B4968469C
:1084100009F014FF05222946684609F071FE18B9D3
:10842000D4F8B830002BB6D11549684609F006FFDC
:1084300005222946684609F063FE18B9D4F8BC3015
:10844000002BA8D10F49684609F0F8FE05222946FD
:10845000684609F055FE28B9D4F8C000003818BFA6
:10846000012099E7002097E7D84A0C00AE4A0C009B
:10847000B44A0C00BA4A0C00C04A0C00C64A0C00B0
:10848000CC4A0C00D24A0C0037B5624B044604F2C9
:108490005F15186800909B88ADF8043005222946C6
:1084A000684609F02DFE78B9D4F8A43063B1D3F84A
:1084B000D4204AB1D3F8CC20002A40F0A380D3F8CE
:1084C000D030002B40F09E805349684609F0B6FE3C
:1084D00005222946684609F013FE78B9D4F8A83079
:1084E00063B1D3F8D4204AB1D3F8CC20002A40F0AD
:1084F0008980D3F8D030002B40F08480474968460B
:1085000009F09CFE05222946684609F0F9FD68B984
:10851000D4F8AC3053B1D3F8D4203AB1D3F8CC204E
:10852000002A6FD1D3F8D030002B6BD13C4968467C
:1085300009F084FE05222946684609F0E1FD68B984
:10854000D4F8B03053B1D3F8D4203AB1D3F8CC201A
:10855000002A57D1D3F8D030002B53D13149684687
:1085600009F06CFE05222946684609F0C9FD68B984
:10857000D4F8B43053B1D3F8D4203AB1D3F8CC20E6
:10858000002A3FD1D3F8D030002B3BD12649684692
:1085900009F054FE05222946684609F0B1FD58B994
:1085A000D4F8B83043B1D3F8D4202AB1D3F8CC20D2
:1085B00042BBD3F8D0302BBB1C49684609F03EFEC5
:1085C00005222946684609F09BFD40B9D4F8BC3025
:1085D0002BB11A6F1AB19A6EA2B9DB6E93B9144916
:1085E000684609F02BFE05222946684609F088FDF9
:1085F00058B9D4F8C03053B1186F20B19A6E0AB987
:10860000D86E00B1012003B030BD0020FBE7184652
:10861000F9E700BFD84A0C00AE4A0C00B44A0C007F
:10862000BA4A0C00C04A0C00C64A0C00CC4A0C00E6
:10863000D24A0C0037B5384B044604F25F1518686F
:1086400000909B88ADF8043005222946684609F061
:1086500057FD20B9D4F8A400013003B030BD2F4934
:10866000684609F0EBFD05222946684609F048FDF9
:1086700010B9D4F8A800EFE72949684609F0DEFDF3
:1086800005222946684609F03BFD10B9D4F8AC0034
:10869000E2E72449684609F0D1FD052229466846EB
:1086A00009F02EFD10B9D4F8B000D5E71E49684690
:1086B00009F0C4FD05222946684609F021FD10B9DC
:1086C000D4F8B400C8E71949684609F0B7FD052297
:1086D0002946684609F014FD10B9D4F8B800BBE784
:1086E0001349684609F0AAFD05222946684609F0A3
:1086F00007FD10B9D4F8BC00AEE70E49684609F092
:108700009DFD05222946684609F0FAFC10B9D4F807
:10871000C000A1E70020A0E7D84A0C00AE4A0C0038
:10872000B44A0C00BA4A0C00C04A0C00C64A0C00FD
:10873000CC4A0C00D24A0C0037B5384B044604F240
:108740005F15186800909B88ADF804300522294613
:10875000684609F0D5FC20B9D4F8A400023003B073
:1087600030BD2F49684609F069FD05222946684653
:1087700009F0C6FC10B9D4F8A800EFE7294968460B
:1087800009F05CFD05222946684609F0B9FC10B9DC
:10879000D4F8AC00E2E72449684609F04FFD052211
:1087A0002946684609F0ACFC10B9D4F8B000D5E70A
:1087B0001E49684609F042FD05222946684609F02F
:1087C0009FFC10B9D4F8B400C8E71949684609F00D
:1087D00035FD05222946684609F092FC10B9D4F807
:1087E000B800BBE71349684609F028FD0522294671
:1087F000684609F085FC10B9D4F8BC00AEE70E4914
:10880000684609F01BFD05222946684609F078FCF8
:1088100010B9D4F8C000A1E70020A0E7D84A0C00A6
:10882000AE4A0C00B44A0C00BA4A0C00C04A0C0014
:10883000C64A0C00CC4A0C00D24A0C0037B5394B62
:10884000044604F25F15186800909B88ADF8043068
:1088500005222946684609F053FC20B9D4F8A40043
:10886000663003B030BD3049684609F0E7FC0522A8
:108870002946684609F044FC10B9D4F8A800EFE78F
:108880002A49684609F0DAFC05222946684609F0BB
:1088900037FC10B9D4F8AC00E2E72549684609F086
:1088A000CDFC05222946684609F02AFC10B9D4F807
:1088B000B000D5E71F49684609F0C0FC05222946EB
:1088C000684609F01DFC10B9D4F8B400C8E71A498D
:1088D000684609F0B3FC05222946684609F010FCF9
:1088E00010B9D4F8B800BBE71449684609F0A6FCF3
:1088F00005222946684609F003FC18B9D4F8BC00E3
:108900003430AEE70E49684609F098FC0522294646
:10891000684609F0F5FB10B9D4F8C000F0E7002074
:108920009FE700BFD84A0C00AE4A0C00B44A0C00C6
:10893000BA4A0C00C04A0C00C64A0C00CC4A0C00D3
:10894000D24A0C0037B5394B044604F25F1518685B
:1089500000909B88ADF8043005222946684609F04E
:10896000CFFB20B9D4F8A400673003B030BD304944
:10897000684609F063FC05222946684609F0C0FBF9
:1089800010B9D4F8A800EFE72A49684609F056FC68
:1089900005222946684609F0B3FB10B9D4F8AC00AB
:1089A000E2E72549684609F049FC05222946684660
:1089B00009F0A6FB10B9D4F8B000D5E71F49684606
:1089C00009F03CFC05222946684609F099FB10B9DC
:1089D000D4F8B400C8E71A49684609F02FFC05220C
:1089E0002946684609F08CFB10B9D4F8B800BBE7FB
:1089F0001449684609F022FC05222946684609F018
:108A00007FFB18B9D4F8BC003530AEE70E49684694
:108A100009F014FC05222946684609F071FB10B9DB
:108A2000D4F8C000F0E700209FE700BFD84A0C0050
:108A3000AE4A0C00B44A0C00BA4A0C00C04A0C0002
:108A4000C64A0C00CC4A0C00D24A0C0037B5394B50
:108A5000044604F25F15186800909B88ADF8043056
:108A600005222946684609F04BFB28B9D4F8A43002
:108A7000D3F8D40003B030BD2F49684609F0DEFBBF
:108A800005222946684609F03BFB10B9D4F8A83006
:108A9000EEE72A49684609F0D1FB052229466846D7
:108AA00009F02EFB10B9D4F8AC30E1E72449684650
:108AB00009F0C4FB05222946684609F021FB10B9DC
:108AC000D4F8B030D4E71F49684609F0B7FB052257
:108AD0002946684609F014FB10B9D4F8B430C7E74A
:108AE0001949684609F0AAFB05222946684609F09B
:108AF00007FB10B9D4F8B830BAE71449684609F052
:108B00009DFB05222946684609F0FAFA18B9D4F8FF
:108B1000BC30186FAEE70E49684609F08FFB05229E
:108B20002946684609F0ECFA10B9D4F8C030F0E7ED
:108B300000209FE7D84A0C00AE4A0C00B44A0C0053
:108B4000BA4A0C00C04A0C00C64A0C00CC4A0C00C1
:108B5000D24A0C0037B53A4B044604F25F15186848
:108B600000909B88ADF8043005222946684609F03C
:108B7000C7FA30B9D4F8A430D3F8D400013003B028
:108B800030BD3049684609F059FB05222946684640
:108B900009F0B6FA10B9D4F8A830EDE72A496846CA
:108BA00009F04CFB05222946684609F0A9FA10B9DC
:108BB000D4F8AC30E0E72549684609F03FFB0522D0
:108BC0002946684609F09CFA10B9D4F8B030D3E7CA
:108BD0001F49684609F032FB05222946684609F01C
:108BE0008FFA10B9D4F8B430C6E71A49684609F0CC
:108BF00025FB05222946684609F082FA10B9D4F807
:108C0000B830B9E71449684609F018FB052229462F
:108C1000684609F075FA18B9D4F8BC30186FADE79A
:108C20000E49684609F00AFB05222946684609F004
:108C300067FA10B9D4F8C030F0E700209FE700BF12
:108C4000D84A0C00AE4A0C00B44A0C00BA4A0C00D8
:108C5000C04A0C00C64A0C00CC4A0C00D24A0C0098
:108C600013B5304B044604F25F14186800909B88DB
:108C7000ADF8043005222146684609F041FA10B9E2
:108C8000642002B010BD2849684609F0D7FA0522D1
:108C90002146684609F034FA0028F1D02349684695
:108CA00009F0CCFA05222146684609F029FA002885
:108CB000E6D01F49684609F0C1FA052221466846F8
:108CC00009F01EFA0028DBD01A49684609F0B6FA06
:108CD00005222146684609F013FA0028D0D016492B
:108CE000684609F0ABFA05222146684609F008FA01
:108CF0000028C5D01149684609F0A0FA052221468E
:108D0000684609F0FDF948B10D49684609F096FA40
:108D100005222146684609F0F3F908B93220B0E788
:108D20000020AEE7D84A0C00AE4A0C00B44A0C0052
:108D3000BA4A0C00C04A0C00C64A0C00CC4A0C00CF
:108D4000D24A0C0037B5384B044604F25F15186858
:108D500000909B88ADF8043005222946684609F04A
:108D6000CFF918B9D4F8A40003B030BD2F49684634
:108D700009F064FA05222946684609F0C1F910B9DC
:108D8000D4F8A800F0E72A49684609F057FA052206
:108D90002946684609F0B4F910B9D4F8AC00E3E705
:108DA0002449684609F04AFA05222946684609F02E
:108DB000A7F910B9D4F8B000D6E71F49684609F002
:108DC0003DFA05222946684609F09AF910B9D4F807
:108DD000B400C9E71949684609F030FA0522294666
:108DE000684609F08DF910B9D4F8B800BCE7144909
:108DF000684609F023FA05222946684609F080F9F9
:108E000010B9D4F8BC00AFE70E49684609F016FA6D
:108E100005222946684609F073F910B9D4F8C00054
:108E2000A2E70020A0E700BFD84A0C00AE4A0C0021
:108E3000B44A0C00BA4A0C00C04A0C00C64A0C00E6
:108E4000CC4A0C00D24A0C007047000038B5138899
:108E50000C4D012B14460ED10A0202F440722A80F6
:108E600001332380FFF7F0FF20882B88984214BF3E
:108E70000320002038BD022BF2D12A880A43063293
:108E8000EDE700BF1AE6032030B54A780D784C882C
:108E90002A4454FA82F000EB142355FA82F203F0CC
:108EA000FF0352FA80F20B7313444B73002293B208
:108EB0009C420AD98B68087B9B5C0344487BDBB2ED
:108EC0000B7303444B730132F1E730BD90F85A3114
:108ED000194490F85B31C9B280F85A11194480F8EE
:108EE0005B1170472DE9F74FB1F802B00BF1080B99
:108EF0001FFA8BFB4FF00008ABF1020304460D464E
:108F0000DA46C1460093BAF1000F00F0A6806678F9
:108F100094F8E810D4F8C800564528BF5646AAEB86
:108F2000060A1FFA8AFABAF1010F02BF06F1FF36EC
:108F3000B6B24FF0020A06F065F9B9F1000F5CD144
:108F4000D4F8C8000368B5219B689847D4F8C800D6
:108F5000036862219B689847D4F8C80029780368A1
:108F60009B689847D4F8C800697803689B6898475D
:108F7000A978D4F8C800FEF7C1FD6988D4F8C80004
:108F8000090AFEF7BBFD4B466A88D4F8C8001FFAF1
:108F900083F909F106074A45BFB20DD9BE420BD984
:108FA000AA680168019342448F68D15CB847019B6D
:108FB0000133E9E7B946A6E7023EC844B7421FFAC3
:108FC00088F80CD10368297B9B689847D4F8C800BF
:108FD000697B03689B68984709F10807BFB25F4542
:108FE000E8D294F87411D4F8C80006F012F90028F9
:108FF000E0D00C2003B0BDE8F08F002291B219FA46
:1090000082F78E42D4F8C800BFB210D9B5F802E09A
:1090100008EB020C531CF445019308DAA9680268B6
:1090200011F80C1092689047019B1A46E6E7009BE6
:1090300088449F421FFA88F8D1D1023EB242CED175
:109040000368297B9B689847D4F8C800697B03684C
:109050009B6898471FFA8BF7C1E7D4F8C80006F061
:10906000DCF80028C6D0C4E770B50546D0F8CC00BF
:1090700003680C469B68B5219847D5F8CC00036877
:1090800062219B689847D5F8CC00217803689B68DB
:109090009847D5F8CC00617803689B689847D5F865
:1090A000CC00A17803689B689847D5F8CC0061880C
:1090B0000368090A9B6898470026D5F8CC006188A8
:1090C0000368B2B291429B6804D9A168895C984751
:1090D0000136F2E7217B9847D5F8CC00617B036825
:1090E000BDE870409B68184710B50446D0F8DC0016
:1090F00007F034FD94F8083194F809219A420BD90D
:10910000FF2801D122783AB1D4F80421D05494F840
:109110000831013384F8083110BD00002DE9FF410A
:10912000D0F8043104460D467BB990F8E93023B9F4
:1091300090F8EA30002B00F0CA806649D4F8D400D9
:1091400004B0BDE8F04107F02ABBD0F8E430624A31
:1091500002930026012380F808616946D0F8DC00FC
:10916000ADF80C3000928DF8046007F057FC94F8CD
:10917000E000314608F0DDF8B5212046FFF7B4FFE6
:1091800062212046FFF7B0FF29782046FFF7ACFFA9
:1091900069782046FFF7A8FFA9782046FFF7A4FFCB
:1091A00069882046090AFFF79FFF94F8E930002BF1
:1091B00042D04A49D4F8D40007F0F1FA1022D4F88A
:1091C000D400B521FEF78AFC4549D4F8D40007F055
:1091D000E6FA1022D4F8D4006221FEF77FFC404961
:1091E000D4F8D40007F0DBFA10222978D4F8D400A0
:1091F000FEF774FC3A49D4F8D40007F0D0FA1022F4
:109200006978D4F8D400FEF769FC3549D4F8D40065
:1092100007F0C5FA1022A978D4F8D40007F0DBFAD9
:109220002F49D4F8D40007F0BAFA6988D4F8D400EA
:109230001022090A07F0CFFADFF8A48000266A8816
:10924000B3B29A4216D91F46AB682046D95DFFF7E4
:109250004BFF94F8E9305BB14146D4F8D40007F0F5
:109260009EFAAB68D4F8D400D95D1022FEF736FC24
:109270000136E4E7297B2046FFF736FF697B20466D
:10928000FFF732FF94F8E000012108F052F8D4F81B
:10929000DC0007F0A9FB94F8E930C3B11049D4F819
:1092A000D40007F07CFA297BD4F8D4001022FEF712
:1092B00015FC0B49D4F8D40007F071FA697BD4F897
:1092C000D400102204B0BDE8F041FEF70EBC04B09B
:1092D000BDE8F081DE4A0C00BC480C00134B0C00CA
:1092E000615A0C00F8B590F8E93004460D46164670
:1092F000002B00F0828090F84C714049D0F8D400E7
:1093000007F04DFA2B78012B3CD13D49D4F8D4001D
:1093100007F045FA3B49D4F8D40007F040FA2B880F
:1093200040F20172934245D13749D4F8D40007F096
:1093300036FA3649D4F8D40007F031FA6988D4F8FF
:10934000D400102207F047FA012F01D1002E49D096
:109350002F49D4F8D4002F4F07F021FA00266A884D
:10936000D4F8D400B3B29A4241D9394607F017FA7B
:10937000B3B2A968D4F8D400C95C1022FEF7AEFBE2
:109380000136ECE7052BD4F8D40001D12249BFE720
:10939000062B01D12149BBE70A2B01D12049B7E7B0
:1093A000204907F0FCF92978D4F8D4001022FEF700
:1093B00095FBAFE740F606029342D4F8D40001D102
:1093C0001949B4E740F60612934201D11749AEE7B6
:1093D000144907F0E4F96978D4F8D4001022FEF7B4
:1093E0007DFBA6E71249D4F8D40007F0D8F9D4F8E9
:1093F000D400BDE8F84007F0D6B9F8BD244B0C0006
:10940000294B0C00394B0C003E4B0C004C4B0C0014
:10941000554B0C00615A0C002D4B0C00314B0C00CD
:10942000354B0C00AA4D0C00424B0C00474B0C0076
:109430005F4B0C0038B5B0F86C51044655B990F844
:10944000E9300BB9002038BD1A49D4F8D40007F030
:10945000C0F9F7E7D0F868312BB190F8E930002B6C
:10946000F0D01549F1E72846FAF717FE94F8E930ED
:10947000C4F8680130B91BB994F8EA30002BE1D088
:109480000E49E2E77BB10E49D4F8D40007F087F922
:10949000D4F8D450B4F86C110A22284607F09BF98E
:1094A000284607F080F90023A4F86E31A4F8703143
:1094B0000120C8E7714B0C00C24B0C00054C0C009E
:1094C000294C0C00B0F86E31B0F8702193423BBFCC
:1094D000B0F86C01C018981A801A80B2704708B5AD
:1094E0000146FFF7EFFFB1F86C31181A80B208BDE2
:1094F0002DE9F041B0F86E31B0F86C51ED1AADB213
:10950000954228BF154616460446D0F86801771BD9
:109510002A461844BFB2884608F002FE9FB1D4F82C
:1095200068013A4608EB050108F0FAFDA4F86E71EF
:109530002046FFF7C7FFB4F87231834238BFA4F862
:109540007201BDE8F081B4F86E211644A4F86E6192
:10955000EEE7000037B5D0F8683104460D4613B188
:10956000B0F86C3153B994F8E90028B12449D4F823
:10957000D40007F02EF9002003B030BDFFF7AFFF95
:109580006B8808339BB2834208D994F8E9301BB941
:1095900094F8EA000028EFD01A49E8E746F2B5232C
:1095A000022269462046ADF80030FFF7A1FF0122F4
:1095B00029462046FFF79CFF0122A9182046FFF705
:1095C00097FF6B888DF8043002221B0A01A9204600
:1095D0008DF80530FFF78CFF6A88A9682046FFF7F1
:1095E00087FF012205F10C012046FFF781FF20468D
:1095F000012205F10D01FFF77BFF0120BCE700BF51
:109600004F4C0C00774C0C002DE9F84F0E780D2EC6
:1096100004460D4601F0288209D8022E00F09A87F0
:10962000062E01F0CC81012E4FD0BDE8F88F132E0D
:1096300001F0EB83282E01F0CA84102EF5D10B68BF
:109640008E4A23F0FF03934241F06A82C66F002ED8
:10965000EBD0A8680021FEF721FA7060AA68E36FDA
:1096600012791A72AA68E36F52795A72AA68E36F84
:1096700092799A72A868E66F0821FEF70FFAF060F7
:10968000A868E66F0C21FEF716FA3082A868E66F2C
:109690000E21FEF710FA7082E36F4FF0FF325A612D
:1096A000E36F1A6A7AB1197808070CD4191D1433BC
:1096B00051F8040B42F8040B9942F9D1E26F137888
:1096C00043F008031370E36F3DE00B686C4A23F02E
:1096D000FF03934241D1C668002EA6D0A86800219E
:1096E000FEF7DCF97060A868E6680421FEF7D6F999
:1096F000B060A868E6680821FEF7D0F9F060A868B5
:10970000E6680C21FEF7CAF93061A868E668102106
:10971000FEF7C4F97061E3684FF0FF329A61E368C5
:109720005A6A7AB1197809070CD4191D183351F8FF
:10973000040B42F8040B9942F9D1E268137843F024
:1097400008031370E3681B785F077FF56EAF294647
:109750002046BDE8F84FFFF7FDBE4A4A93423DD18F
:109760000669002E3FF461AFA8680021FEF796F964
:109770007060AA68236912791A72AA6823695279FB
:109780005A72AA68236992799A72AA682369D2796F
:10979000DA72A86826690821FEF780F9F060A868E7
:1097A00026690C21FEF77AF9306123694FF0FF3208
:1097B0005A6123691A6A7AB119780E070CD4191DF7
:1097C000143351F8040B42F8040B9942F9D1226981
:1097D000137843F0080313702369B4E72A4A9342CD
:1097E00054D14669002E3FF420AFA8680021FEF74F
:1097F00055F97060A86866690421FEF75CF930814C
:10980000A86866690621FEF756F97081A86866693E
:109810000821FEF750F9B081A86866690A21FEF7B1
:109820004AF9F081A86866690C21FEF744F9308294
:10983000A86866690E21FEF73EF97082A86866691D
:109840001021FEF738F9B08263694FF0FF329A6158
:1098500063695A6A7AB1197808070CD4191D18334C
:1098600051F8040B42F8040B9942F9D1626913785C
:1098700043F008031370636965E700BF001410002C
:109880000001140000031000000412008C4A9342EF
:1098900049D1C669002E3FF4C8AEA8680021FEF782
:1098A000FDF87060AA68E36912791A72A868E6691F
:1098B0000821FEF7F3F8F060A868E6690C21FEF7CE
:1098C000EDF83061A868E6691021FEF7E7F87061ED
:1098D000A868E6691421FEF7E1F8B061A868E669B6
:1098E0001821FEF7DBF8F061A868E6691C21FEF795
:1098F000D5F83062E3694FF0FF325A62E3691A6BC0
:109900007AB1197809070CD4191D243351F8040BC6
:1099100042F8040B9942F9D1E269137843F0080345
:109920001370E3690FE7674A934240F0CD80066AFF
:10993000002E3FF47AAEA8680021FEF7AFF8706001
:10994000A868266A0421FEF7B6F83081AA68236A5F
:1099500092799A72AA68236AD279DA72AA68236A1B
:10996000127A1A73AA68236A527A5A73AA68236A07
:10997000927A9A73AA68236AD27ADA730C21A86859
:10998000266AFEF78BF83061A868266A1021FEF778
:1099900085F87061AA68236A127D1A76AA68236A1C
:1099A000527D5A76AA68236A927D9A76AA68236ABB
:1099B000D27DDA76A868266A1821FEF76FF8F06182
:1099C000A868266A1C21FEF769F83062A868266A32
:1099D0002021FEF763F87062A868266A2421FEF74A
:1099E0005DF8B062A868266A2821FEF757F8F06291
:1099F000266AA8682C21FEF751F83063A868266A09
:109A00003021FEF74BF87063A868266A3421FEF710
:109A100045F8B063A868266A3821FEF73FF8F0637E
:109A2000A868266A3C21FEF739F83064A868266ADF
:109A30004021FEF733F87064A868266A4421FEF7D7
:109A40002DF8B064A868266A4821FEF727F8F0646C
:109A5000A868266A4C21FEF72EF8A6F85000AA68DE
:109A6000236A92F84E2083F85220266AA86854216F
:109A7000FEF714F8B065A868266A5821FEF71BF8AF
:109A8000A6F85C00A868266A5A21FEF714F8A6F822
:109A90005E00226A4FF0FF331366226A5366216A22
:109AA000086F58B10B781B0708D45C22043108F00A
:109AB00037FB226A137843F008031370236A42E6E7
:109AC0000005200000075C008E4A934237D1436AAC
:109AD000002B3FF4AAAD8A6812781A71466AA8680A
