:02000002B0004C
:1040000000400B00387E0C0000000600170005027F
:084010000401A30F00000000F1
:044018001C5A0C0022
:1040200009480A49884208B505D0094A824202D0A7
:10403000121A0FF025FC0748074A0021121A0FF048
:1040400047FC014808BD00BF70DB0320187C0C0052
:1040500068DD032068DD0320EDE7032070B5074E1F
:10406000074C0DF0DFF8A41BA4080025AC4200D1DA
:1040700070BD56F8043B98470135F7E7C47B0C0048
:10408000E87B0C0001F0EEBB08B501F06FFBBDE86A
:1040900008400DF07FB809F0E7BA09F0E5BA09F079
:1040A000EBBA09F0E9BA000008B5034A03490C204D
:1040B00009F0D4F9FEE700BF9DD00B00305A0C0088
:1040C0000078B0FA80F04009704701230370704710
:1040D00070477047006A0368DB6818477047037CC5
:1040E00013F008031EBFC36A406A1B1A002BACBF43
:1040F00018466FF0004070477047000008B5134B3A
:104100001A78134B1B789B0043EA4203114A12783A
:104110001343114A127843EAC203104A127843EA61
:1041200002130F4A127843EA82130E4A127843EAC6
:10413000C2130D4A13700D4B01221A700CF0E2FFEE
:10414000BDE808400A490CF034BB00BFB4DD0320D1
:1041500074DD0320A4DD0320D8E00320E1DD03208B
:1041600004DF0320FDDE0320A4E50320C4E50320D3
:10417000455A0C0010B510210446FFF792FF204667
:1041800010BD10B534210446FFF78BFF204610BD4B
:10419000103002F015BA07B501228DF80710103063
:1041A0000DF1070102F00CFA03B05DF804FB1030CA
:1041B00002F07CB9103002F05DB807B501220DF1B4
:1041C0000701103001F0A8FF01280CBF9DF807007F
:1041D0004FF0FF3003B05DF804FB436913B183690E
:1041E0000C301847704713B500210446084608F004
:1041F000FDFE0023204601A9019308F00FFF019C5A
:104200000CB1012323710021012008F0EFFE2CB135
:10421000236820469B6898470023237102B010BD95
:10422000012A02D1016000207047022A04BF0B68F6
:104230000360F8E7036818470368C9B29B6818472A
:1042400010B5054B00220446114640F8043B09F026
:1042500025F9204610BD00BFFC5F0C0010B50446D8
:10426000FFF7EEFF20462021FFF71BFF204610BD81
:104270000A4B10B5044603600BF0A4FB21460BF07B
:10428000DCFD0CF03FFF0CF031FF2046044B40F802
:10429000043B0BF06DFC204610BD00BF10600C000D
:1042A000E45F0C0010B50446FFF7E2FF204624212E
:1042B000FFF7F7FE204610BD37B5044680680D466F
:1042C00030B10023CDE900331A46022108F0AEFEDA
:1042D000A06830B10023CDE900531A46194608F012
:1042E000A5FE03B030BD0EB403B503AB002153F8F7
:1042F000042B01930CF087FA02B05DF804EB03B0D5
:104300007047000073B5044608462279A36832B1AD
:10431000A3B90B4902B0BDE870400CF033BA094AAA
:10432000267B094D0949647B012E18BF2946CDE93A
:1043300000140749FFF7D7FF02B070BD054AEFE749
:104340006F5A0C005B710C006B5A0C00675A0C0022
:10435000855A0C005E5A0C000EB403B503AB012164
:1043600053F8042B01930CF04EFA02B05DF804EB05
:1043700003B0704710B5114B1B78EBB908F09EFEE7
:104380000F4B1B68C01AB0F57A6F15D90D4B0E4C48
:104390000E485A2119700E4B217001221A700CF030
:1043A0007AFA21780B480CF076FA0CF0ABFE0A4949
:1043B0004FF47A62FFF7D0FF10BD00BFE1DD0320AC
:1043C00020DE03207CE503207DE5032084DD03203F
:1043D000E0E5032094DD0320A25A0C0010B58368A9
:1043E000044613B1032201469847204610BD000041
:1043F00037B5134B036004468068C8B100256FF0E1
:104400000043CDE9003502212B462A4608F00EFE76
:10441000A068294608F032FE237903F0FF0513B1A6
:1044200008F0DCFDF8E7A068294608F0EFFDA5607C
:1044300004F10C00FFF7D2FF204603B030BD00BFEF
:10444000D05F0C0010B50446FFF7D2FF20461C21B8
:10445000FFF727FE204610BDF0B58C460025144915
:10446000057104468560016092E8030085B002AFE3
:1044700004F10C0687E8030096E8030082E80300D5
:1044800097E8030086E803009168A0696161D1683C
:104490009560D060A161CDE90035064A23466146AA
:1044A00004F1080008F0AAFD204605B0F0BD00BFE9
:1044B000D05F0C00E7410B0010B504460022407CA1
:1044C00009F026F8637C0F2B18BF208310BD000075
:1044D000F8B5244B244D1B785BB16B7C0F2B1CBFB4
:1044E00002236B74FF236B611E211F48FFF7E4FF5B
:1044F000F8BD1E4B1B78002B2DD11D4B1B78002BBC
:104500002CD11C4B1B78002B0BBF0A26142602272C
:104510000327194B1A78194B1C78194BA40044EA4D
:1045200042041A78144364B20CF0ECFD2246013CBC
:104530001449E4B2FFF710FF062C98BF124B6A7CB7
:1045400094BF53F824304FF47F030F2A18BF6F74C1
:1045500031466B61C9E714260227DAE714260127E2
:10456000D7E700BFD8E0032084E5032004DF032061
:10457000FDDE0320E1DD0320B4DD032074DD032034
:10458000A4DD0320EC5A0C00DC600C0013460A4644
:104590000149096801F0C7BF14E6032010B508F00F
:1045A000DBFF2B4CE0B10123237008F087FD294B82
:1045B000294C1B6847F23052C01A904223D813B3DB
:1045C0000123237008F07AFD244B254C1B6847F229
:1045D0003052C01A904228D83BB30123237010BD3B
:1045E0002378002BE1D01F48037C2BB91E4944F2ED
:1045F00002221030FFF7CAFF1C491A481E22FFF79B
:10460000ABFE0023D0E723786BB11648037C2BB9AF
:10461000154944F202221030FFF7B8FF1349114840
:104620001E22FFF799FE0023CBE7227872B16BB10F
:104630000C48037C2BB90C4944F202221030FFF7DE
:10464000A5FF0B4907481E22FFF786FE0023C5E79A
:10465000A4DD0320B8DD0320B4DD032080DD0320CA
:1046600074DD0320A4DE032000DE0320F75A0C00D3
:10467000485B0C0030B585B01B4B009313798DF867
:1046800004309368029300F58C659389ADF80C3083
:1046900004460A466B4600F26C41284602F074FE5E
:1046A00010B9002005B030BD256004F23C45284615
:1046B00001F032FF0121204602F011FD014668B1F0
:1046C0002146284601F022FD0028EAD094F83C3427
:1046D00013F0700FE5D0054B1D60E3E7204602F0B4
:1046E000FEFC0028ECD1DCE7BC5F0C0014E60320E4
:1046F0002DE9F04784B08378412B00AF04468A4609
:104700004BD1C378422B74D120460FF06CF901389D
:1047100020F00700E946ADEB000D20460FF063F9ED
:104720006844002600F8096C2046FE730FF05BF920
:1047300020446D4610F8023C3B7020460FF053F9C0
:104740002044314610F8013C7B7010223846BE7080
:1047500010F072F880465FFA88F80CF0D3FC7B49C1
:1047600043464246FFF7F8FD042620460FF03BF98A
:104770000238864216D2062E9BBF07F110039B1902
:10478000AB19A25D8CBFA25D03F8082C06F10106EF
:1047900088BF03F8072CF6B2E7E7422B29D1C3788C
:1047A000312BB0E740452ED00CF0ACFC054620463E
:1047B0000FF019F9821E2846654D66494346FFF7FA
:1047C000CBFD2B7CCBB9644944F2022205F11000E9
:1047D000FFF7DCFE614922462846FFF7BDFD05F1E3
:1047E000100001F099FE0CF08DFC5D490BF0E1FF2B
:1047F000CD461037BD46BDE8F087584922462846C9
:10480000FFF7AAFDEFE7574907F10C000FF0BCF8DE
:104810000028EDD0544907F10C000FF0B5F804461C
:1048200000282FD12B783B716B787B71AB78BB71F3
:10483000EB783B722B797B72381D6B79BB720FF072
:1048400002F84A4E4A4D307007F108000EF0FBFFA7
:1048500028700CF057FC2B7832784649FFF77CFD26
:10486000317845480CF017F8297844480CF013F8D3
:10487000434B01221A7008F021FC424B1860424B56
:104880001C70B5E7414907F10C000FF07DF818B92D
:104890003F4B83F800A0ABE73E4907F10C000FF057
:1048A00073F8F0B92A4C0CF02DFC29460BF081FF6F
:1048B000237C83B9284944F2022204F11000FFF757
:1048C00065FE35492A462046FFF746FD04F11000F3
:1048D00001F022FE8CE730492A462046FFF73CFDD6
:1048E00086E72E4907F10C000FF04EF820B908F0CA
:1048F000E5FB2B4B18607BE72A4907F10C000FF012
:1049000043F810B9284B187072E7284907F10C00DA
:104910000FF03AF800283FF46BAF254907F10C007F
:104920000FF032F800287FF463AF224B22480122B7
:104930001A70214B5A7C0F2A1CBF02225A741E2166
:10494000FF225A61FFF7B8FD52E700BF975B0C00EA
:10495000A4DE0320AC5B0C0000DE0320C95B0C006E
:10496000F55B0C00165C0C001A5C0C007CE5032067
:104970007DE503201E5C0C0084DD032094DD032014
:10498000E0E5032020DE0320E1DD03204A5C0C008B
:10499000D9E003204E5C0C00525C0C00755C0C00EE
:1049A00024DE0320795C0C00E1E503207D5C0C0033
:1049B000815C0C00D8E0032084E5032010B50C4690
:1049C000002204212046FFF793FE0B4B1B7893B186
:1049D0000A48037C2BB90A4944F202221030FFF73F
:1049E000D5FD224607490548FFF7B6FCBDE8104053
:1049F000054801F091BD10BDFCDE0320A4DE0320BC
:104A000000DE0320855C0C00B4DE0320B0B501F1AC
:104A1000080323F0070300AFADEB030D0C460A4675
:104A2000014668460EF02CFF0DEB04036D4613F8AB
:104A3000013C13B100230DF804300CF063FB164960
:104A40000BF0B7FE0CF05EFB29460BF0B2FE012224
:104A500011462846FFF74CFE2B7803F0FD03412B4F
:104A600003D108F02BFB0D4B18600D4B1B7883B165
:104A70000C48037C2BB90C4944F202221030FFF79A
:104A800085FD0A4907482A46FFF766FC084801F0F9
:104A900043FDBD46B0BD00BFA55C0C0080DD03201A
:104AA000FCDE0320A4DE032000DE0320B55C0C0046
:104AB000B4DE032013B50024CDE9004404490548C1
:104AC0000123224608F058FD034B1C7002B010BDB4
:104AD000BD490B00D55C0C00A4DD032008B50CF02B
:104AE000A9FC0849FFF7FFFB142008F029FE0CF091
:104AF000A1FC0549FFF7F7FBBDE80840142008F0CA
:104B00001FBE00BF5A710C006D5A0C0007B50CF0A7
:104B100051FC002301460093124840F24C434222CC
:104B200007F0ACFE40B94FF47A7008F009FE0CF0C3
:104B3000E9FA0D490BF03DFE40F24C4201210948D3
:104B400007F028FE40F24C4301220021054807F0FF
:104B500001FE0CF02FFC054903B05DF804EB0AF0F0
:104B600015BB00BF58DF0320DB5C0C00801A060079
:104B700010B515200CF0F0FB07EE900AF8EEE77A7E
:104B8000334C17EE900A0EF097FA29A3D3E90023CD
:104B90000EF0EAFA0EF0E0FD2E4B18600EF08CFAE3
:104BA00025A3D3E900230EF027F92B4B00220EF0AA
:104BB000DBFA23A3D3E900230EF000FC0EF084FD02
:104BC0006428A8BF642020EAE070207010200CF058
:104BD000C3FB07EE900AF8EEE77A17EE900A0EF0A4
:104BE0006BFA1E4B00220EF0BFFA17A3D3E9002385
:104BF0000EF0E4FB0EF0B0FD194B186011200CF024
:104C0000ABFB07EE900AF8EEE77A17EE900A0EF08B
:104C100053FA144B00220EF0A7FA0BA3D3E900239A
:104C20000EF0CCFB0EF098FD0F4B1860207810BDF5
:104C300059C0046EDDCD733F6666666666662A40BF
:104C400098999999999909400000000000FEAF4099
:104C5000D0DD0320D4DD0320000059400080404017
:104C6000CCDD03200080304080E503200000000000
:104C7000F0B5874E874B884C884F33602DED048B01
:104C8000874B2360874D884B88483B608DB0884BAD
:104C90002B6002F0C3FD03A984489FED868A02F0D1
:104CA00003FEDDED090A9DED080A0CF0AFFD60EE94
:104CB000087A17EE900A0EF0FFF971A3D3E90023EA
:104CC0000EF07CFB0EF000FDD7ED007A9FED7A6AC6
:104CD0007A4BF4EEC67AF1EE10FA1860C0F2C88092
:104CE000DFED776AF4EEE67AF1EE10FA00F2C080BA
:104CF00095ED007AB4EEC67AF1EE10FAC0F2B88003
:104D0000B4EEE67AF1EE10FA00F2B280D4ED000AC9
:104D100096ED000A77EE600A37EEC00A0CF076FDD9
:104D200060EE087AB6EE008A17EE900A0EF0C4F92B
:104D300053A3D3E900230EF041FB0EF0C5FCD7EDE1
:104D4000009AD6ED008A5F4B79EEE87A186017EE8C
:104D5000900A0EF0B1F94CA3D3E900230EF004FA47
:104D60000EF0FAFC07EE900A27EE880A0CF0D8FC49
:104D700018EE900AB0EE409A0EF09EF942A3D3E9E5
:104D800000230EF0F1F90EF0E7FC00EE100A0CF033
:104D90008FFC19EE900AF0EE408A0EF08DF93AA3DE
:104DA000D3E900230EF0E0F90EF0D6FC00EE100A75
:104DB0000CF07EFC95ED007AD4ED007A424D77EE52
:104DC000677AF0EE409A17EE900A0EF075F92EA36E
:104DD000D3E900230EF0C8F90EF0BEFC07EE900AEE
:104DE00027EE880A0CF09CFC68EEA98A68EE808A9F
:104DF00028EE808AA9EE098AB0EE480A0CF008FD78
:104E000018EE100A10EE104A0EF056F902460B4644
:104E100000202E490DF0F0FF41EC100B0CF0BCFC13
:104E200020468DED000B0EF047F99DED001B41EC87
:104E3000100B0CF0AFFC53EC102B10EE100A1946BF
:104E40000DF0DCFF0EF088FCDFED217A07EE100A92
:104E500067EE277AC5ED007A0CF054F9044628680D
:104E60000EF02AF902460B4620461A49FFF774FA5B
:104E700001200DB0BDEC048BF0BD00BFAFF300808E
:104E8000182D4454FB21094070E20DA545DF913FE8
:104E900028DE032053160F4200DF0320C8E503205D
:104EA0001E599DC2CCE5032061190F4248DE032044
:104EB0002B599DC2000034430000B4C2D8DD03204A
:104EC0000000B442D4E50320D0E503200000F03F09
:104ED0000018C745FB5C0C0010B5084C23785BB18B
:104EE000074B084819780BF0D6FC074B0748197890
:104EF0000BF0D1FC0023237010BD00BFE0E50320C0
:104F00007CE5032084DD03207DE5032094DD032080
:104F10002DE9F04FA44DABB008F0D0F82B688342D8
:104F200080F0F380DFF8B0B29BF80030002B00F087
:104F3000EC800CF03FFA0123142263210AF047F9B8
:104F40000CF038FA03685B69984716AC26460CF0FB
:104F500031FA03681B69984738B10CF02BFA0368E3
:104F60005B69984704F8010BF1E730460EF068FCE6
:104F700051EC100B0EF0F0FBDFF860A2CAF8000055
:104F80000CF018FA0123142264210AF020F90CF025
:104F900011FA03685B6998471BAC26460CF00AFAC5
:104FA00003681B69984738B10CF004FA03685B6921
:104FB000984704F8010BF1E730460EF041FC0CF085
:104FC000F9F90123142265210AF001F90CF0F2F934
:104FD00003685B69984720AC26460CF0EBF9036840
:104FE0001B69984738B10CF0E5F903685B6998478D
:104FF00004F8010BF1E730460EF022FC59EC108B5F
:105000000CF0D8F90123142266210AF0E0F80CF024
:10501000D1F903685B69984725AF3E460CF0CAF9A1
:1050200003681B699847044638B10CF0C3F903685C
:105030005B69984707F8010BF0E730460EF000FC7B
:105040005A4B8BF800401B7857EC106B002B5CD050
:105050000BF07CFF11900BF06DFF04460BF07EFF10
:1050600083460BF043FF10900BF04CFF0F900BF0BA
:1050700055FF109A0F99119B0490CDE901B203914D
:105080004B4A0094102112A808F00EFB4948037CFB
:105090002BB9494944F202221030FFF777FA49460A
:1050A00040460EF059FB0EF007F8CDE90C01434BDA
:1050B00018680EF001F8CDE90A01414B18680DF0AF
:1050C000FBFFCDE90801DAF800000DF0F5FFCDE9AE
:1050D0000601394630460EF03FFB0DF0EDFFCDE9FD
:1050E0000401384B18680DF0E7FFCDE90201364B9B
:1050F00018680DF0E1FF12AACDE9000133492D48EF
:10510000FFF72AF9324801F007FA324C07F0D6FFD0
:105110002368834244D207F0D1FF00F6C410206018
:1051200007F0CCFF00F2393028600CF043F963211E
:105130000AF066F80CF03EF97221FFF77DF80CF0EA
:1051400039F90AF064F80CF035F964210AF058F8DE
:105150000CF030F97221FFF76FF80CF02BF90AF020
:1051600056F80CF027F965210AF04AF80CF022F9FC
:105170007221FFF761F80CF01DF90AF048F80CF005
:1051800019F966210AF03CF80CF014F97221FFF7C6
:1051900053F80CF00FF90AF03AF80F4B01221A708D
:1051A0002BB0BDE8F08F00BFDCDD0320FDDE032067
:1051B000085D0C0024DF0320E2DD032070E50320FE
:1051C0006CE5032000DF032028DE0320215D0C00B6
:1051D00034DF032078E50320E0DD032074E50320BD
:1051E0002DE9F04F3C4EDFF80481DFF8049189B0DF
:1051F00000AF0CF01FF903681B699847002866D0C0
:105200000CF018F90A22014638460BF0E7FCBB689F
:10521000073323F007036D46ADEB030DEA46002389
:10522000B9681FFA83FB8B4503F1010407D2594685
:1052300038460BF0CBFD23460AF80B00F0E70129B6
:105240000AD9013938460BF0C1FD0D2801BFBB68F2
:105250005344002203F8012C012202215046FFF79B
:1052600047FA0BF04FFF31460BF0A3FA0BF04AFF61
:1052700039680BF09EFA9AF80030423B012B03D8B4
:1052800007F01CFFC8F8000099F80030D3B11348AC
:10529000037C2BB9124944F202221030FFF776F951
:1052A000394607F110000BF047FD0E490B4807F196
:1052B0001002FFF751F807F110000BF0A7FC0A48A5
:1052C00001F02AF938460BF0A1FCAD4691E72437EE
:1052D000BD46BDE8F08F00BF395D0C00A4DE0320A1
:1052E00000DE03204B5D0C00B4DE0320B8DD03209C
:1052F000FCDE03202DE9F043ADB00BF003FF614964
:105300000BF057FA604961480022FFF73FF948B9AE
:105310005F4B18700BF0F6FE5E492DB0BDE8F04310
:105320000BF047BA0BF0EEFE5B495C4D0BF041FA17
:1053300008F06AFD08F0C6FD044648B908F064FDAF
:105340002246294608F011FE0A2008F0F9F9EFE795
:105350000BF0D8FE52494D4F524DDFF86C810BF0E7
:1053600028FA00223946284601F063F8F8B108F01F
:105370004BFD08F0A7FDD0B11E2201A9284601F07F
:105380001FFA0BF0BFFE414601AAFEF7E5FF01A898
:105390000EF029FB01AB043818440EF02DFB4249F6
:1053A0000EF083FBD8B9284601F0B6F8D9E73748A4
:1053B00001F0B2F82622002109A80EF089FA3B4933
:1053C00009A80EF0EBFA0023262209A9384808F0B4
:1053D0000BFC2F4B00221A702DB0BDE8F083262263
:1053E000002109A80EF074FA3249334EDFF8C0905C
:1053F00009A80EF0D3FA01A909A80EF09FFA0BF044
:1054000081FE2E4909AAFEF7A7FF0023262209A93B
:10541000274808F0E9FB0BF075FE294901AAFEF7C1
:105420009BFF962008F08CF909F0F4FE3046FEF759
:1054300056FE044688B16422002113A80EF048FAF3
:1054400013AA64230D2130460BF0B0FB0023642225
:1054500013A9484608F0C8FBE8E709F0DDFE26225C
:10546000214609A80EF034FA164909A80EF096FA5A
:105470002346262209A90E4808F0B6FB962008F01C
:105480005FF990E76C5D0C00895D0C0080DE032005
:10549000D8E003208B5D0C00B85D0C00C0DD03205C
:1054A000D85D0C0034DF0320165E0C001B5E0C0080
:1054B000D0E00320245E0C0024DF03202D5E0C00CE
:1054C000405E0C00685E0C00ED5D0C0038B50468B1
:1054D00005467CB16368013B63605BB92368204685
:1054E0009B689847A368013BA3601BB923682046CB
:1054F000DB689847284638BD2DE9F04784B002AFF5
:10550000804691461E460D460EF06DFA093020F099
:105510000701ADEB010D40460EF065FA97F828A0A3
:10552000254902AC03464246204608F0B5F8BAF1D8
:10553000000F01D1042D0CD1204B21491B788DF88F
:10554000003038463C23224609F038FC381DFFF76E
:10555000BDFFB9F1000F01D1012D21D108F054FC9C
:1055600008F0B0FCE0B120460EF03DFA073020F024
:105570000700E846ADEB000D20460EF034FA0DF1C1
:1055800008090246214648460EF07AF920460EF0F8
:105590002AFA0023024649460A4808F025FBC54678
:1055A0000EB9022D04D10BF045FF21460BF001F995
:1055B0000837BD46BDE8F087715E0C00BCDD0320F6
:1055C000785E0C00D8E5032030B5274D2B789DB0D0
:1055D000002B46D0412200210BA80EF079F9234B75
:1055E0000893234BDFED236A93ED007A224B27EEDD
:1055F000267A0024BDEEC77A8DED077A93ED007A06
:105600001E4B27EE267ABDEEC77A8DED067A93ED16
:10561000007A1B4B27EE267ABDEEC77A8DED057A10
:10562000D3ED007A174B67EEA67AFDEEE77ACDED63
:10563000047A18680DF040FDCDE90201124B18689C
:105640000DF03AFD0122CDE9000110490BA808F048
:1056500023F829780094234622460BA8FFF74CFF35
:105660002C701DB030BD00BFD9E00320880D0100B3
:1056700070E5032000007A4468E5032074E5032008
:105680006CE5032000DF032028DE0320805E0C0091
:1056900070B52C4E337890B0002B49D02A4A2B4B52
:1056A00010681B7807930DF007FDCDE90401284A27
:1056B000284C10680DF000FDCDE90201264A079B39
:1056C00012782649009209A8012207F0E5FF0BF0A5
:1056D00019FD09A90BF06DF80BF014FD21880546A2
:1056E0000A220BF072F828460BF057F81C4B1B7877
:1056F00003BB1C4B1B78EBB92388F3B113F00303F6
:105700001BD10122009219461A4609A8FFF7F4FEA0
:1057100023880BB1013B238000246420347008F0FF
:105720000FF811480094234601222146FFF7E4FEBA
:1057300010B070BD4FF4F07323800021012300915D
:105740001A46E2E7C4E5032000DF0320D0DD032092
:1057500028DE0320A6DD0320A4E50320A45E0C00C0
:1057600074DD0320B4DD0320BD5E0C0008B5FFF737
:105770007FFAFFF7FDF9FFF7CBFBFFF731FDFFF7EE
:1057800087FFFFF7A9FB064B1B780BB1FFF7B2FDB4
:10579000FFF71AFFBDE808404FF4FA7007F0D0BFDA
:1057A000D8E0032070B5D0E900531426044606FB68
:1057B0000356AE4204D028460BF028FA1435F8E719
:1057C000206807F059FF204670BDF0B516468FB02F
:1057D0000022C0E9002204460D4609AF194604A87C
:1057E00008F0C4F91499384608F0C0F9169B0293E2
:1057F000159B2046CDE90073324604AB294608F0DC
:105800002BFF20460FB0F0BD13B50B4C2178BFF332
:105810005B8F11F001010BD120460191FEF750FC86
:10582000019928B105480BF0A4F82046FEF74DFC7D
:10583000024802B010BD00BF68DD03206CDD03200C
:1058400008B5FFF7E1FF4FF6FF7200210BF0AFF84C
:10585000FFF7DAFFBDE80840014901220BF046B925
:1058600040420F002DE9F04FBC48BD4E037CBD4DBA
:1058700003F0030343F0780393B003740022012183
:10588000043007F00BFE012102200BF03BFD01214B
:105890001C200BF037FD00211D200BF033FD0021F3
:1058A00002200BF040FD00211C2000240BF03BFDEA
:1058B000B42707F003FC5A2333702B704FF47A722D
:1058C000CDE900474FF4FA630621A7480BF020F812
:1058D0004FF47A724FF4FA63CDE900470521A348EB
:1058E000A34F0BF015F831789F48A24E0AF0D3FF72
:1058F00029789E480AF0CFFF4FF4FA6007F020FFA6
:1059000008F082FA08F0CAFA08F07EFA082108F0D6
:10591000CCFA0BF0F7FB4FF416510BF0E3FB0BF056
:1059200089FD4FF416510BF085FBFFF789FFFFF758
:10593000D5F8FFF7EBF8FFF7BDF807F0BFFB8E4B8C
:10594000186007F0BBFB8D4B186007F0B7FB8C4B62
:1059500018608C4B1C608C4B1C608C4B1C708C4BEF
:105960001C708C4B1C708C4B4FF4F0721A808B4B5C
:10597000012532221A703D70357008F045FA884AC8
:1059800001460DA808F092FF0DA808F042FB08F0B0
:105990003BFA844A01460DA808F088FF0DA808F0DC
:1059A00038FB08F031FA804A01460DA808F07EFF66
:1059B0000DA808F02EFB7D4B1D707D4B0DA81968BE
:1059C00008F0D4F80DA808F033F805460DA8002D0E
:1059D00040F0B88008F048F80095ADF824000223A4
:1059E00009AA0321734808F03FFC00236F4971485E
:1059F000082208F057FC08F007FA00226D4908F069
:105A0000B4FA0BF0D7FC09F0C5FB0BF0D3FC6A49E4
:105A100009F0BCFB0BF0CEFC1C210246674802F0EB
:105A200076F8002840F095800BF06CFB64490AF092
:105A3000C0FE6248012101F063FF6048002101F0CF
:105A4000C3FF5E48012101F08DFF5C48002101F099
:105A5000D6FF0124002559484FF4FA7102F076F878
:105A600023462A462946CDE901545448009402F0C1
:105A700085F80BF06BFA07900BF05CFA80460BF0A0
:105A80006DFA81460BF032FA82460BF03BFA834600
:105A90000BF044FA079B4B4ACDF80080CDE903B0E8
:105AA0001021CDE9019A09A807F0FEFD46494748B3
:105AB0000DF074FF09A945480DF040FF43494448E3
:105AC0000DF06CFF434941480DF038FF4249404812
:105AD0000DF034FF0BF016FB3C490AF06AFE0BF0A8
:105AE00011FB3B490AF065FE3C486FF00041FEF7B0
:105AF000E3FB3B486FF00041FEF7DEFB39486FF0F7
:105B00000041FEF7D9FB38486FF00041FEF7D4FBA7
:105B1000364B0D933648374BADF840400DAA08215F
:105B20008DF838500F93FEF7A5FD0446002867D185
:105B30000BF0E8FA30490AF03CFE3C70347013B0C8
:105B4000BDE8F08F07F092FF009402461023072172
:105B500048E70BF0D7FA294969E700BF84E503203D
:105B60007CE503207DE5032084DD032094DD032014
:105B7000FDDE0320FCDE032078E50320DCDD0320CE
:105B800024DE0320B8DD032080DD0320E0DD0320D8
:105B9000D8E00320D9E00320A6DD0320D0DD0320D8
:105BA000D8E50320DCE00320D0E0032075DD0320EE
:105BB00070DB0320C0DD0320801A060048DE0320CE
:105BC000CB5E0C00085D0C00F65E0C00E2DD0320ED
:105BD00000DE0320165E0C00FF5E0C00E4E50320EF
:105BE00008DF03202CDE0320A8E50320BC5F0C00A7
:105BF000E4E0032000127A00085F0C00E75E0C006E
:105C00003B787BB11248037C2BB9124944F2022243
:105C10001030FEF7BBFC10490D480AF0CAFD0F48D2
:105C200000F07AFC3378002B89D00D48037C2BB927
:105C30000C4944F202221030FEF7A8FC0A49084839
:105C40000122FEF789FB094800F066FC77E700BFF8
:105C500024DF0320E2DD03202D5F0C0034DF03206E
:105C6000A4DE032000DE0320835F0C00B4DE0320EB
:105C70008842F8B504460D46164616D9904215D20C
:105C8000A2F11406751AA1F114072C44B7421CD0D6
:105C90002CB1314620460BF035F8337C2374304666
:105CA0000AF0B4FF143E143CF0E70ED0B5420CD01D
:105CB0002CB1294620460BF025F82B7C237428466E
:105CC0000AF0A4FF14351434F0E7F8BD2DE9F041D3
:105CD0000023C0E9003383604F689F4204460E46AC
:105CE00023DD4FF0140808FB07F007F0BDFC054664
:105CF000D8B1D4E9001208FB0212FFF7B9FF2068FF
:105D000007F0BAFC2560A760D6E9007308FB0378AA
:105D1000B84508D0394628460BF00EF83B7C2B746A
:105D200014371435F4E7736863602046BDE8F081EA
:105D3000F0B5794B794A7A4C01261E70794B0025D3
:105D4000C3E900559A6093B0032007F0B9FB764889
:105D500001F070FF754801F057FDFFF755FD642312
:105D6000C4F86034724B6560C4F83C54C4F868549D
:105D7000C4F8703484F87464C4F87854A4F87C547B
:105D800008B9FFF741FD6B4B6B4AC4F86C044FF444
:105D90007A7700241A60C3E901471C61674B0794B6
:105DA0001A60C3E901471C61654B664D1A60C3E97F
:105DB00001471C61CDE905440BF0A4F905A906468D
:105DC00008A8FFF783FF08A90BA8FFF77FFF5E4B2A
:105DD0002B600BA90EA8FFF779FF0EAA1E21281D24
:105DE0000AF00EF90EA8FFF7DDFC0BA8FFF7DAFCAE
:105DF000564B2B602E6208A8FFF7D4FC544B2B6047
:105E00000BF080F94FF416510BF06CF909F0DAFD44
:105E1000294609F0CBFF05A8FFF7C4FC4D484E4DBD
:105E20004E4E0AF061FD4E480AF05EFDCDE9014498
:105E30002B6800934B4B4C491B684C484FF01002A9
:105E4000FFF7C3FC4A4B029401932B680093494B24
:105E500049491B6849484FF00402FFF7B6FCCDE9F9
:105E600001442B680093464B46491B684648474D02
:105E70004FF01002FFF7A9FC454808F000FA454B27
:105E80000E930EAA234643F6982143481196109587
:105E9000FEF7E2FA0EA8FEF7A1FA404B0E930EAA07
:105EA000234639463E48CDE91056FEF7D5FA0EA8EE
:105EB000FEF794FA3B4B0E930EAA234640F6C4110C
:105EC0003948CDE91056FEF7C7FA0EA8FEF786FA54
:105ED000364B0E930EAA234643F698213448CDE95B
:105EE0001056FEF7B9FA0EA8FEF778FA22461421EA
:105EF000012007F00DFB01221421CDE90012034619
:105F00006FF07F412B4809F0DFFB2B492B4813B082
:105F1000BDE8F0400AF0C5BEBCDD03200000FFFF75
:105F2000E4E00320A8DD032058DF032048DE03203F
:105F3000BC5F0C0024DF032028600C00A4DE0320DB
:105F400070DE0320D8DE0320E45F0C0090710C00AB
:105F500010600C0084DD032070DB032035420B0051
:105F600094DD03207CDB0320A85F0C00D8E5032030
:105F70000D4A0B0078DB0320AB5F0C00DCE0032054
:105F800074DB0320AE5F0C00D0E0032021420B0045
:105F9000C0DD03209D450B00E4E50320D1440B0048
:105FA0002CDE032075430B0008DF0320FD400B00AF
:105FB000A8E5032084E503205B710C0000E60320C4
:105FC00038B504460D46242200210DF081FCA56061
:105FD000EB79102B03D0202B06D0002038BD2023D6
:105FE00001202370A070F9E74023F9E710B50446BB
:105FF000243000F066FF28B104F50C70BDE81040B5
:1060000000F05FBF10BD8378016943F00403837023
:1060100000F11002806801F00AB800002DE9F0419B
:10602000017811F02005044603D000263046BDE873
:10603000F0814269174B9A42F7D2FFF7E4FF064618
:106040000028F2D02169A06800F086FF0746A0680A
:1060500005223946243000F05CFF80460028E4D059
:1060600029464FF400720DF033FC0125A3681A791C
:10607000AA4209D918684246E91901F0B6FA00287F
:10608000D3D00135EDB2F1E7636903EB42236361DD
:10609000CCE700BF00FE1F0010B5044680680A462A
:1060A0002430A16900F035FF20B1A38803F00F036D
:1060B00000EB431010BD0023F0B50446451E082632
:1060C00018462E2715F8012F202A18D0082B02BFBA
:1060D0000F54421CD0B22A78A2F1410C08BF1026FE
:1060E000BCF1190F06D894F80CC016EA0C0F1CBFAF
:1060F0002032D2B200F1010C0A545FFA8CF0013365
:10610000DBB20B2BDED100230B54F0BD03780BB9AF
:10611000FFF756BF002070472DE9F74F037804467C
:1061200088461546002B5DD08278D1075AD51A07CC
:106130002DD5C36942699B1A9D4228BF1D462E4634
:106140004FF0000904F1100B002E00F08F80227830
:106150006369A0689706C3F3080A4FEA53211FD565
:10616000006A0144A068BAF1000F42D1B6F5007F81
:106170003FD3C36A99423CD0B6F5806F52D20068D3
:10618000424601F0A9F968B34FF4007744E09B065A
:10619000D5D583681A894369C3EB42139BB2CBE719
:1061A00090F8059009EA0109BAF1000F08D1B9F198
:1061B000000F05D15BB951064CBF036A236A236106
:1061C0002169A06800F0C8FE09EB0001CAE7216957
:1061D0005A4600F0C7FE002804DBF1D1237813F003
:1061E000700F43D1637843F0020363704FF0FF30C8
:1061F0003DE0CAF50077B7424FF0000200F12400FD
:1062000028BF374600F085FE0028EBD000EB0A01DE
:106210003A4640460DF034FB63693B44B844636141
:10622000F61B91E7227892064FEA562A06D40279A5
:10623000A2EB0902D2B2924528BF924699424FEA98
:106240004A2708D2A06853460068424601F08CF9FC
:106250000028E1D1C6E753448B42F3D924300191A1
:1062600000F02FFE01990028ECD1BBE7A81B03B07A
:10627000BDE8F08F73B501220DF10701D0E9045696
:106280000446FFF749FF01280ABF9DF807004FF0B9
:10629000FF30C4E9045602B070BD37B5436913F44A
:1062A000F07F0446C3F3431500D099B901220DF1E4
:1062B00007012046FFF730FF40B2012802D000203E
:1062C00003B030BD63691F33A0686361303000EBF9
:1062D0004510F5E72033F7E72DE9F041027807692B
:1062E00004460D4662B14069884202D019B9216165
:1062F0006561012006E0160706D5E3698B420BD2E3
:1063000027610020BDE8F081910605D5A3681B89AF
:10631000B5EB431FECD9F3E7D4F808C09CF806604E
:10632000431E06F109016E1ECB40CE40B34200D899
:1063300098B953064CBFDCF82030236A236104F17E
:106340001008002ED4D02169A068424600F00AFE51
:10635000002806F1FF36F4DCD2E7F61AEFE7F8B5CD
:106360000F4604461546002124221E460DF0B0FAC1
:10637000B868A060A58005F00F053B6AE3606A017C
:1063800000EB451595F83B301F0744D403F0170385
:10639000237095F83B1011F0180F04BF43F0080369
:1063A00023709DF81830E37006F00303012B2CD006
:1063B000022B28D07BBB71052DD40123A370A178BB
:1063C0008B0704D52378DF0625D4DD0723D4B3114A
:1063D00023F07F0306F008052B430B43A370C36A29
:1063E000A3618318B3F84420B3F84A1041EA02418C
:1063F000720513D559B9A37843F00403A37073044D
:1064000010D40120F8BD0323D8E70223D6E700F01B
:1064100049FE0028EFD100202070F3E72162DB6CF9
:10642000E361ECE7E1692046FFF756FF0028E8D179
:10643000F1E72DE9F347037807460D46924653BB33
:106440000B7813F0700F26D04C6914F01F0422D182
:10645000A04600212846D5F81490FFF71EFFD0B1C2
:106460000678C6B12E2E10D0E52E0ED0C37A1A07AC
:1064700013D464B900945346C9F34F1229463846E1
:10648000FFF76DFF02B0BDE8F0870024E1E700F000
:1064900071F94045EED00020F4E70F2BF5D17306DB
:1064A000D7D590F80D8006F01F04D2E738B50378F1
:1064B00004460BB9012038BD83785A0723D5012142
:1064C000FFF7EAFD054628B9637843F001036370DE
:1064D0000020F0E70378E52BF6D023781B0744BFB4
:1064E000E369C361236A4383638C8382094B1B681E
:1064F0002BB100F11601183098472B8B6B82A378D3
:1065000023F00403A370A068FFF770FD0028DBD020
:10651000D0E700BF10E6032010B50446FFF7C6FF22
:106520000023237010BDF0B593B01F4600230993DC
:106530000378019206460C4613B1002013B0F0BD5B
:106540000B7813F0700FF8D013782F2B12D1019A1B
:1065500013782F2B02D101320192F8E7A1681BB901
:106560003046FFF7D3FDE9E709A8FFF729FD00282A
:10657000E3D009AC019801AA03A900F08FF9002823
:10658000DBD0019B1B789BB1002303AA2146304638
:1065900000F0B6FA0028D0D035460FCD09AC0FC4B4
:1065A0000FCD0FC42B6823603046FFF7B5FFE0E73F
:1065B0003B4603AA2146304600F0A2FABEE700009F
:1065C0002DE9F047037889461907044617465BD53D
:1065D00083789A0758D51B0751D46369DB43BB42C4
:1065E00052D3B84604F1100A6669B8F1000F00F002
:1065F0009180A0684379C6F3080513EA56260ED1A8
:106600006DB92169002946D0524600F0ABFC002844
:106610003ADB04D12046FFF7F6FC002834D021698C
:10662000A06800F099FC3118A06815B9B8F5007F92
:106630003FD2C5F50076464528BF4646002D36D1E7
:106640006269E3699A4234BF01220522243000F0D6
:1066500060FCC8B128443246494635440DF010F973
:10666000B5F5007F04D1A068243000F02AFC58B1B1
:10667000636933446361B144A8EB0608B4E7C169B8
:10668000FFF72AFE0028A8D1637843F00103637066
:106690004FF0FF3050E0236A3BB92046FFF7B3FCD0
:1066A0000028F1D023692362B9E72361B7E701220B
:1066B000CCE7B8F5806FC26A1BD390F804C0ACEB8E
:1066C0000606F3B24FEA582E734528BF734691422F
:1066D0004FEA432607D31A448A4282BF4FF0FF3263
:1066E00080F82450C262A5684A46286800F0F3FF8B
:1066F000BDE7914202BF4FF0FF3380F82450C362E0
:10670000A3684A46186800F070FF0028BCD04FF418
:106710000076ADE7E269A378B24204D2E66143F0C5
:106720000403A37003E0084A1268002AF7D194F921
:106730000230002B02DB3846BDE8F0872046FFF729
:10674000B5FE0028F7D19FE710E60320042904D8FE
:1067500000EB4100B0F8010070470A299BBF01F12E
:10676000FF3100EB41000131C08884BF00EB4100E4
:1067700080887047411E00F10A030020420842EA67
:10678000C01011F8012F52FA80F08B42C0B2F5D13F
:10679000704738B5CB6804460D4623B9BDE838408C
:1067A0008968FFF7B3BC242200210DF091F8102373
:1067B00001202370A070AB68A360EB68236238BD32
:1067C0002DE9F04F8DB003784FF0000906460F46D3
:1067D0009046CDF80C90002B5DD00C2A5BD9C37885
:1067E00033B900F057FB044620460DB0BDE8F08FEA
:1067F000014603A8FFF7CDFF00284CD007EB0803A4
:106800004FF0010B4FF00D0A0093F3785FFA8BF510
:10681000AB4240D3B188A1EB0B01490103A8FFF7BC
:106820005BFD0446002836D0002103A8FFF735FDA4
:10683000034680B3C27A0F2A2DD1027802F01F02DC
:10684000AA4228D10BF1FF350AFB05F57A19002180
:1068500018460191FFF77AFF68B1A84512D901994E
:1068600001317F28C9B228BF3F200D2902F8010B52
:1068700005F10105ECD1A84504D91A78520648BFA4
:1068800007F80590009A02F8019C1B785B060BF153
:10689000010BBAD5A8E700243C70A5E72DE9F04725
:1068A000064610F8013B202BFAD06A4D8E6000247A
:1068B000335DC3B12F2B16D05C2B02D10020BDE875
:1068C000F087A3F12200C0B21D2803D825FA00F0FA
:1068D000C007F3D403F0BF003C28EFD0203B5E2B71
:1068E000ECD80134E4E733191846074610F8015B89
:1068F000202DFAD02F2DF8D017604CB113F8012DB0
:106900002E2A01D0202A01D1013CF6E7FF2CD5DC4C
:106910004FF02033C1F811304C60C1F80D304B619D
:106920004FF0000816F808302E2B01D0202B02D192
:1069300008F10108F6E7B8FA88F04009651E6B1CFB
:1069400002D0735D2E2B14D14FF0000907274A4661
:10695000CA464FF0080EA04568DA16F80830202B1A
:1069600003D02E2B07D1A84512D0002008F1010832
:10697000F1E7013DE3E7222B08D07C2B06D0A3F101
:106980002A0CBCF1050F0AD82D2B12D0A8455BD1DB
:106990000A2F4AD00A2708224FF0100EE6E7A3F18B
:1069A0003A0CBCF1050FF1D9A3F15B0CBCF1020F5D
:1069B000ECD9A3F1210CBCF15D0FE7D8A845E7D0D5
:1069C000BA4230D8A3F1610CBCF1190F1AD8203BA0
:1069D0004EEA0909DBB25FFA89F902F1010C5FFAAC
:1069E0008CFC0A44BCF1060F537301D881F80CC02B
:1069F0006246BBE7A84518DCA8460A2708224FF0E4
:106A0000100EB2E7A3F1410CBCF1190F98BF4EEA8A
:106A10000A0AE2E70B7B0120087019447E234B73BE
:106A200031238B734BE70A2FE4D100204B7B202BC3
:106A30003FF444AF0028EDD01AEA090F18BF4FF019
:106A4000020981F800903AE7BA42ECD800205F23AF
:106A5000C3E700BF010100312DE9F84391F80C9024
:106A600006460C4602257E2701F10D086168A268E2
:106A70006B189BB21144914206D012F8010B03EB44
:106A8000431343409BB2F6E7B9F1030F28BF4FF021
:106A9000030909F10402D2B203F00F01A018013A70
:106AA0000929D2B294BF30313731914541734FEA51
:106AB0001313F1D104EB090300215F733046FFF794
:106AC0000BFC01213046FFF7E8FB014628B970783E
:106AD000B0FA80F04009BDE8F88303786BB1C37A5F
:106AE0001B07EED40B2240460CF0BAFE0028E8D17A
:106AF0000135ADB2642DB9D1EDE70120EBE700001F
:106B00002DE9F04F2DED028B8BB00D4606930B78DF
:106B1000079013F0700F174605D100200BB0BDECA5
:106B2000028BBDE8F08F079B1B78002BF5D15368D3
:106B3000059313789C071FBF059B0C330D22B3FBF5
:106B4000F2F31ABF0133DBB201230021284603937D
:106B5000FFF7C2FB07F10D034FF0000B08EE103AF0
:106B6000DA465C465E46CDF810B0D9466B69012125
:106B70002846C3F34F18FFF790FB0346002871D156
:106B80006B78002BC9D1069B9A05C6D503F0030389
:106B9000013B012BC1D8049B002C08BF4346049342
:106BA000039B9C42C0F0F180B9F1000F40F00A81D4
:106BB000049B28465901FFF78FFB0028ADD0039BAB
:106BC00003F1FF395FFA89F94E464FF0000A4FF0A2
:106BD0000F08002E00F00D8100212846FFF75DFB15
:106BE0000446002899D0AA6892F824304E4543F014
:106BF00001030CBF46F0400BB34682F8243080F806
:106C000000B080F80B8080F80CA007F10D00FFF7B2
:106C1000B1FD84F81AA0607384F81BA00BF01F0369
:106C20000D22013BD7F808C0534300220599994231
:106C300040F2D0801CF80310042A5FFA82FE02F1B1
:106C4000010000F2CD8004EB4202A2F801100D28F1
:106C500003F101030246E9D1013EF6B2B9E74FF074
:106C6000010983E70278E52A00D07AB90499002C5B
:106C700008BF4146049103998C423CBF0134E4B201
:106C8000002A80D0E52A05D100266FE703998C42BF
:106C900038BF00242E2AF7D0D97A0F294AD116BB43
:106CA00012F040063FF462AF02F01F0693F80DB0F9
:106CB000B2460D220AF1FF3802FB08F8059A424558
:106CC000E2D9A2EB08020892002202EB0801099126
:106CD0001846D1B2FFF73AFD08998A420DD1002833
:106CE00018BF002642E70AF1FF3A5FFA8AFA5245D6
:106CF000CAD15A7B5A45DCD0C6E7FF28C4D85FFA10
:106D000080FEAEF141011929B9689CBF0EF1200047
:106D10005FFA80FE08460999415CA1F1410CBCF183
:106D2000190F9CBF2031C9B27145ADD101320D2A76
:106D3000CBD11BE70807A7D45EB1BAF1010F7FF4EE
:106D4000ECAE1846FFF716FD58457FF4E6AEB146A7
:106D50000EE018EE101A0B2218460CF081FD0028E8
:106D60007FF404AF97F8009019F001097FF477AF32
:106D7000069B19053FF5D1AE069B0798CDF800900C
:106D800042462946FFF7EBFAC8E600212846FFF7FE
:106D900084FAA0B96B78002B7FF4BFAE2846FFF7CA
:106DA0003DF900283FF4B9AEAB681B79012B3FF6E3
:106DB000FBAE039B1034E4B2A342EFD8F4E60134F7
:106DC000E4B2EDE639462846FFF746FE00287FF498
:106DD000EFAEA2E614BF4FF0FF31002189B22BE7DE
:106DE000BEF10A0F94BF04EB420204EB4002918013
:106DF0002DE731462846D5F81480FFF74EFA0446B1
:106E000000283FF48AAE202231460CF061FDD7F80D
:106E10000D302360D7F811306360B7F81530238147
:106E2000FB7DA3723B7803F0180323730F4B1B68A1
:106E30009BB104F10E0104F110009847238A63828C
:106E40002383E389E382AA6892F8243043F00103A4
:106E5000C8F34F1882F824308EE7212323742823A7
:106E600063740823A673E373E8E700BF10E603200A
:106E700013B50446084659B101910CF0B4FD2368DE
:106E80000199DB680246204602B0BDE81040184771
:106E900002B010BD10B50C46017809B9002010BD34
:106EA00011F0600105D02F232370002363700120AF
:106EB000F5E7FFF7F1F80028F0D02146FFF7FBF8DF
:106EC000F5E737B50378DA07044620D543688168CB
:106ED00000F10C021868019200F087FB019A054648
:106EE00018B90025284603B030BD23789B0704D489
:106EF000237823F001032370F4E7D4E90130196902
:106F00000144186800F071FB0028F1D1E9E7012580
:106F1000E8E770B583688B4204460E46154609D0F3
:106F2000FFF7CFFF08B9002070BD6B070AD500231B
:106F30002370A660227805F003052046154300F86B
:106F40000C5BF1E7636804F10C021868314600F04D
:106F5000C3FA0028EBD1E6E783794069023999400A
:106F600008447047012970B505460C46164602D8FC
:106F70004FF0FF3070BDC3698B42F9D3C379202B2A
:106F800016D18169022201EBD41100F50C70FFF7D4
:106F9000C0FF0028ECD004F07F0450F8243023F028
:106FA0007043EA699A4226BF336001200020E1E77E
:106FB000102BDDD1C1F3072381690222194400F5AA
:106FC0000C70FFF7A6FF0028D2D0E4B230F81430DE
:106FD000E7E7012938B50C46154601D8002038BD31
:106FE000C3698B42FAD3C379202B0FD18169032265
:106FF00001EBD41100F50C70FFF78BFF0028EDD0EA
:1070000004F07F0440F824500120E8E7102BE5D17C
:10701000C1F3072381690322194400F50C70FFF7BF
:1070200078FF0028DAD0E4B220F81450ECE72DE91C
:10703000F341C4688C4205460E46904601D30127B1
:1070400001E00C460027EB690134A34202D2C7B924
:10705000EC68F4E7A64214D001AA21462846FFF7BF
:1070600081FF00280DDBEED0019B002BEBD107B197
:10707000EC606FF0704221462846FFF7AAFF0746F2
:1070800020B90027384602B0BDE8F08116B9C8F82B
:107090000040F7E7224631462846FFF79AFF0028CE
:1070A000F5D1EEE773B505460C4601AA2146284600
:1070B000FFF758FF061E10DB002221462846FFF787
:1070C00088FF50B1EB68A34224BF04F1FF34EC60A9
:1070D000019C002EE9D102B070BD0020FBE7012326
:1070E00070B50022C3604FF0FF330446C27100F157
:1070F0002406806280F82420C362C0F8340280F83D
:107100003022C0F838320D46B9B1042901D9002027
:1071100070BD11463046FFF7FCFE0028F7D000EBAB
:10712000051393F8AE315B06F1D105F11B0100EBBD
:107130000110D0F80650002DE9D000222946304633
:10714000FFF7E7FE0028E2D0B0F80B30B3F5007F80
:10715000DDD1037C022BDAD1C389002BD7D0417B50
:1071600021714B1E63710023A371092601239942EB
:1071700007D0013ECBD0A2795B000132DBB2A27115
:10718000F5E7C18A01B9416A2161C3892B44A36132
:10719000B0F81120228103EB41032362B0F81110F3
:1071A000490101F2FF1103EB51236361B0F8132091
:1071B00002B9026AE91AA3791144D9404B1CE36170
:1071C00040F6F473994202D80C23E3719FE74FF61F
:1071D000F473994285BFC36A236210232023E371AD
:1071E000012095E700F0CABA00F0ADBA70B50E4EB6
:1071F0000D46144605F05AFF3368C01A0B4B9842EF
:1072000008D905F05BFF0A4B186006F09DF905F000
:107210004DFF306005F052FF80B2401BA042D4BF4A
:107220000020012070BD00BF18E60320A0860100E9
:1072300028E7032038B5057A04464DB9406800F0C8
:107240006BFA63682946187D0AF06DF801232372F2
:1072500038BD10B5037A04466BB143680121187D2F
:107260000AF061F86068FF21FFF7BCFF606800F07A
:1072700067FA0023237210BDF8B504460D46164682
:1072800005F01CFF87B26068FFF7AEFFFF28607251
:107290000ED14FF47A7239462046FFF7A7FF002837
:1072A000F1D0552320462370FFF7D3FF0020F8BD0F
:1072B000FE2801D05023F5E760683246294600F0E9
:1072C00047FA607208B16023ECE76068FFF78CFF53
:1072D0006068FFF789FF0120E9E770B504460E46B4
:1072E00005F0ECFE85B2324629462046FFF77EFFC8
:1072F00030B96068FFF778FFFF28F4D1012070BD36
:107300000020FCE7F7B5037A019204460D460BB95D
:10731000FFF790FF25B14FF496712046FFF7DDFF90
:10732000606845F04001FFF75DFF032601AFB95DDE
:107330006068FFF757FF013EF9D2002D60680CBF6F
:1073400095218721FFF74EFF6068FFF74DFF0B2562
:107350006068FFF749FF0306607203D5013D15F031
:10736000FF05F5D103B0F0BD70B504460D461646D5
:1073700037210022FFF7C6FF324629462046BDE8E6
:107380007040FFF7BFBF00002DE9F04100250572F6
:10739000057085724160044690461E4605F08EFEDB
:1073A00041460746606800F0BBF96368494A1D72B0
:1073B0000125DA601D822046FFF73CFF63682946FD
:1073C000187D09F0B0FF0A256068FF21013DFFF735
:1073D00009FF15F0FF05F7D163682946187D09F00C
:1073E000A2FF0A25002211462046FFF78BFF012845
:1073F000804618D0013D15F0FF0507D12023204617
:107400002370FFF726FF0020BDE8F0816068FD21B2
:10741000FFF7E8FE4FF402786068FFF7E5FEB8F189
:107420000108F9D1DEE74FF4D57208212046FFF7B5
:1074300069FF052814D184F80A800025BFB22A46C6
:1074400029212046FFF790FF0246D8B14FF4FA6297
:1074500039462046FFF7CAFE0028F0D04323CEE786
:1074600004256068FFF7C0FE013D15F0FF0560725E
:10747000F7D1AA2804D10223A3724FF08045DDE79B
:107480002523BCE7A37A022B18D13A212046FFF727
:1074900039FF08B13723B2E76068FFF7A5FE00F0B7
:1074A000C000C02804BF0323A3726068FFF79CFEDE
:1074B0006068FFF799FE6068FFF796FE2046FFF7C9
:1074C000C8FE63683079B168B2891A821872D960CF
:1074D000012099E790D0030038B5837A032B18BFB9
:1074E000490215460A4611210446FFF70BFF30B149
:1074F000302323702046FFF7ACFE00250BE0294621
:107500004FF400722046FFF7B7FE05460028F1D081
:107510002046FFF79EFE284638BD10B5837A032B20
:107520000A4618BF4A0212210446FFF7EBFE30B1AB
:10753000312320462370FFF78CFE002010BD012070
:10754000FCE710B500220C210446FFF7DBFE30B14A
:10755000282320462370FFF77CFE002010BD204624
:10756000FFF777FE0120F9E7F8B5044616461F46F7
:10757000FFF7D3FF68B10025ABB29F4206EB452170
:1075800009D94FF400722046FFF776FE0135002836
:10759000F2D10020F8BD2046BDE8F840FFF7D1BF8A
:1075A00038B5044615464068FFF71CFE4FF40072DC
:1075B0006068294600F0E6F86068FF21FFF712FED8
:1075C0006068FF21FFF70EFE6068FFF70DFE607236
:1075D00000F01F00052806D0572320462370FFF730
:1075E00038FE002038BD0120FCE770B5837A032BFC
:1075F00018BF490215460A4618210446FFF782FEC5
:10760000064630B1322323702046FFF722FE0025C4
:107610001FE02A46FE212046FFF7C2FF0028F3D0D4
:107620004FF4FA612046FFF758FE054608B95A2381
:10763000E9E732460D212046FFF764FE08B1292311
:10764000E1E76068FFF7D0FD0028F8D12046FFF79A
:1076500000FE284670BD13B501914FF4FA6104464F
:10766000FFF73BFE019A30B95B2323702046FFF7FA
:10767000F0FD002005E0FC212046FFF791FF0028E7
:10768000F4D002B010BD10B5837A032B0A4618BFA0
:107690004A0219210446FFF735FE30B13323204654
:1076A0002370FFF7D6FD002010BD0120FCE738B5A0
:1076B0004FF4FA610446FFF710FE054630B9562331
:1076C00023702046FFF7C5FD284638BD6068FD21C0
:1076D000FFF788FDF5E7F8B5044616461F46FFF7A5
:1076E000D2FF70B10025BD4206EB4521204604D0F3
:1076F000FFF7B1FF28B10135F5E7BDE8F840FFF726
:10770000D6BF2046FFF7A5FD0020F8BD014B0122A2
:107710001A7070471CE60320011D006809F078B953
:1077200010B504460175006809F02DF9207D01218E
:1077300009F0E8FD207D0121BDE8104009F0F3BD0E
:10774000006809F04BB90068FF2109F001BA000098
:1077500037B51346074A00920025074C006825708C
:107760000A46294609F0FAF92378002BFCD00020BC
:1077700003B030BD0D770B001CE60320006809F054
:10778000E7B9000037B51346064A00920025064CBB
:10779000006825702A4609F0E1F92378002BFCD017
:1077A00003B030BD0D770B001CE603207047704717
:1077B00038B50C4605462022002104F108000CF0E3
:1077C00087F809490B2220460CF03CF90123E360BD
:1077D0006B6A236102236361044BE361044BA36181
:1077E000044B236238BD00BFF8600C000000C8C421
:1077F0000000C8448FC2753C10B528210446FCF730
:1078000050FC204610BD0000034A02600022C0E97F
:1078100007220276704700BF18610C0030B50123C3
:107820008DB00022CDE9022306252822CDE90025CE
:107830000446D0E9071206A805F07CF82A4604A9F8
:1078400006A805F0F5F8257EBDF91010BDF9122047
:10785000BDF91430E180032D98BF1248228107EE54
:10786000101A9CBF00EB8500D0ED007A6381B8EE62
:10787000C77A88BFF7EE007AC7EE276A07EE102AAC
:10788000B8EEC77AC4ED036AC7EE276A07EE103A6E
:10789000B8EEC77AC4ED046AC7EE276AC4ED056A7C
:1078A0000DB030BD00610C0038B50C4605462022F5
:1078B0000021201D0CF00CF8242323606B6A636008
:1078C0000223A36005F0FAFB20612846FFF7A6FF1C
:1078D000D5ED037A9FED097A67EE877A0120C4ED32
:1078E000057AD5ED047A67EE877AC4ED067AD5ED90
:1078F000057A67EE877AC4ED077A38BD0000C84282
:10790000F0B5012595B00027CDE90275202300933D
:1079100001950E460446D0E907122B4608A805F04B
:1079200009F80523022208A904A805F0DFF831466A
:1079300004A805F0EDF82323D4E907120093CDE95C
:1079400002752B4601950EA804F0F4FF02231A4697
:107950000EA906A805F0CAF8314606A805F0D8F821
:1079600015B0F0BD70B501298CB006460C4603D1A8
:107970000321FFF7C5FF09E0032903D0052903D13F
:107980000121F6E70221F4E707291BD00A2005F0C0
:10799000D7FE01250023CDE902352023D6E90712C1
:1079A000009301952B4606A804F0C4FF2B46042241
:1079B00006A904A805F09AF8214604A805F0A8F83D
:1079C0000CB070BD0021D4E730B501238DB0002587
:1079D000CDE902532222019300920C46D0E907120E
:1079E00006A804F0A7FF2B46022206A904A805F06A
:1079F0007DF8214604A805F08BF80DB030BD30B5F8
:107A000001238DB00022CDE90223212201930092AF
:107A10000D460446D0E9071206A804F08BFF0523A3
:107A2000022206A904A805F061F8294604A805F079
:107A30006FF825760DB030BD10B501238CB0002253
:107A4000CDE90223212201930092D0E907120446D6
:107A500006A804F06FFF0523022206A904A805F07A
:107A600045F804A805F047F8C0B220760CB010BD68
:107A700030B500238DB00125CDE9023521230093D7
:107A80000195D0E9071204462B4606A804F052FFE0
:107A900002232A4606A904A805F028F8294604A8C6
:107AA00005F036F80A2005F04BFE2046FFF7C4FF2C
:107AB0000DB030BD70B501268AB00025CDE9025663
:107AC0000F2300930196D0E907123346044604A819
:107AD00004F030FF04A804F0EDFF3D2815D1204646
:107AE000FFF7C6FF03212046FFF70AFF3146204675
:107AF000FFF738FF29462046FFF781FF2046294639
:107B0000FFF762FF30460AB070BD2846FBE737B585
:107B1000C36904465BB91020CDE90012FCF7BBFA3B
:107B2000054618B1DDE9001205F00BF8E561002308
:107B3000E0692362012105F020F828B1204603B056
:107B4000BDE83040FFF7B6BF03B030BD30B501230C
:107B50008BB00C46002532220221CDE90253CDE93B
:107B60000021D0E9071204A804F0E4FE2A46C4F379
:107B70000E0104A804F03EFF0BB030BD30B58BB051
:107B800000259DF83C40640044EAC1119DF838404E
:107B900041EA840141EA431343EA82129DF84040DE
:107BA000012342F00802CDE90253D2B2144330223D
:107BB00001930092D0E9071204A804F0BBFE2A4604
:107BC000214604A804F016FF0BB030BD10B54218D2
:107BD000405C937854781B0443EA04230343D07831
:107BE00043EA006010BD4318405C5A7840EA022026
:107BF000704710B42AB902685DF8044B9268C9B2A4
:107C000010475DF8044BD2B208F0DFBD12B903682B
:107C10009B681847D2B208F0D8BD10B50446FFF7EC
:107C2000F5FF2046BDE8104008F0B7BD0368C9B2B3
:107C30009B6818474FF4005202804221002210B581
:107C4000C0E90122C0E90322C0E90522C0E90722F8
:107C5000C0E90922C0E90B22C0E90D22C0E90F22C8
:107C6000C0E91122C0E91322C0E91522C0E9172298
:107C7000C0E91922C0E91B22C0E91D22C0E91F2268
:107C8000C0F8E810802180F8091100F1F401C0F873
:107C900014112549C0F8C42000F1F604C0E94612C9
:107CA000C0E92122C0E92322C0E92522C0E9272218
:107CB000C0E92922C0E92B22C0E92D22C0E92F22E8
:107CC000C0E93E22C0E94022C0E94322C0F8D020EA
:107CD000C0F8D82080F80821C0F82021C0E9494127
:107CE000C0E94D21C0E951211049C0F84C1140F6BE
:107CF0006411A0F85011582180F85D110121C0E9EC
:107D00004B22C0E94F22C0F8542180F86421C0F80A
:107D10006821A0F86C21C0F8EC20C0F8F010A0F8A1
:107D20007221A0F8742110BD0000020200026464F8
:107D3000F8B504460D46D0F8FC00A9B9A8B1FCF787
:107D4000AEF994F8E930C4F8FC50C4F83451C4F8E2
:107D5000F85013B994F8EA3023B12049D4F8D4008C
:107D600008F031FD012011E0B8B92846FCF795F97B
:107D7000C4F8FC00C4F8340160BB94F8E930C4F8DE
:107D8000F80023B994F8EA300BB90020F8BD144983
:107D9000D4F8D40008F017FDF7E70846FCF77DF9A2
:107DA000064640B994F8E9301BB994F8EA30002B44
:107DB000EBD00C49ECE7D4E93E27AA4228BF2A467B
:107DC00039460BF05DFD3846FCF769F9C4F8FC60F4
:107DD000C4F83461C4F8F850C4E700BF2C610C004B
:107DE00057610C0082610C000D2900F0CD8009D88C
:107DF000022900F0A780062900F0BE80012916D0D4
:107E000000207047132900F0D480282900F0DC807E
:107E10001029F5D1102A00F0C98000F2BA80022A98
:107E200000F0C180032AEBD1D0F8880066E0262A52
:107E300054D8002AE4D0013A252AE1D801A353F806
:107E400022F000BFFB7E0B00017E0B00057F0B00C4
:107E5000097F0B000D7F0B00017E0B00117F0B00D3
:107E6000017E0B00157F0B00017E0B00017E0B00D5
:107E7000017E0B00017E0B00017E0B00017E0B00DA
:107E8000017E0B00197F0B001D7F0B00217F0B0073
:107E9000257F0B00017E0B00017E0B00297F0B006C
:107EA000017E0B00017E0B00017E0B00017E0B00AA
:107EB000017E0B00017E0B00017E0B00017E0B009A
:107EC000017E0B002D7F0B00317F0B00017E0B002C
:107ED000017E0B00017E0B00357F0B003C2A2DD06C
:107EE00005D8352A28D03B2A8AD1806C06E0602A42
:107EF00026D0612A84D1806900E0C068003818BFAC
:107F0000012070470069F9E74069F7E7C069F5E7C4
:107F1000006AF3E7406AF1E7C06AEFE7006BEDE75C
:107F2000406BEBE7806BE9E7C06BE7E7806AE5E76A
:107F3000006CE3E7406CE1E7C06CDFE7006DDDE774
:107F4000406DDBE7342A15D006D8132A0BD0152A4A
:107F50007FF456AFC06ED1E7722A06D0732A7FF441
:107F60004FAF006ECAE7806EC8E7836D002B3BD130
:107F7000C06DC3E7406EC1E722B1082A7FF440AF6D
:107F8000406FBBE7006FB9E7032A7FF439AF806F1A
:107F9000B4E7142A05D0152A7FF432AFD0F8800058
:107FA000ACE7C06FAAE7D0F88400A7E7D0F88C0050
:107FB000A4E7602A05D0802A7FF422AFD0F8A00081
:107FC0009CE7D0F89C0099E7012A07D0022A08D044
:107FD000002A7FF415AFD0F890008FE7D0F8940016
:107FE0008CE7D0F8980089E7012070470D2935D03B
:107FF00007D8022919D006292AD001290DD000203E
:10800000704713292FD0282934D01029F7D1023AEC
:10801000D2B2132AF3D81F4B04E0013AD2B2602A3D
:10802000EDD81D4B33F812007047342A27D007D8FB
:10803000132A26D0152A14BF00204FF43960704748
:10804000722A20D0732A14BF00204FF48470704726
:10805000E2B1082A14BF002006207047032A14BF8B
:1080600000201C207047602A12D0802A14BF0020F4
:10807000A4207047022AC2D8084B985C70470C2095
:108080007047482070474FF40470704714207047C1
:10809000082070471A6E0C00586D0C00426E0C00E0
:1080A00010B590F8EC10CA0715D4D0F86021594BE0
:1080B00022F0FF029A4201D18B070CD490F8613173
:1080C000472B74D1B0F8623145F24114A34204D178
:1080D00011F0040F6BD0012070E045F24214A3426E
:1080E00002D111F0080FF5E745F24234A34202D164
:1080F00011F0100FEEE744F24714A34202D111F041
:10810000200FE7E744F64C44A34202D111F0400FA0
:10811000E0E745F24C14A34202D111F0800FD9E7F9
:1081200045F24E118B4204D190F8ED3013F0010F5F
:10813000D0E745F24E318B4204D190F8ED3013F088
:10814000020FC7E745F250118B4204D190F8ED3091
:1081500013F0040FBEE745F251118B4204D190F8A1
:10816000ED3013F0080FB5E745F252318B4204D1E0
:1081700090F8ED3013F0100FACE744F253118B423E
:1081800004D190F8ED3013F0200FA3E745F25341EE
:108190008B4204D190F8ED3013F0400F9AE745F28E
:1081A00053618B4203D190F9ED30002B93DB1A4BD6
:1081B0009A4204D190F8EE0000F0010010BD174B78
:1081C0009A4204D190F8EE00C0F34000F6E7144B59
:1081D0009A4204D190F8EE00C0F38000EEE7114B14
:1081E0009A4204D190F8EE00C0F3C000E6E70E4BCF
:1081F0009A4204D190F8EE00C0F30010DEE70B4B7A
:108200009A4204D190F8EE00C0F34010D6E7002067
:10821000D4E700BF0044544D00524C4D00524D4332
:108220000054585400564C5700565447005A444185
:1082300090F85E312A2B57D190F85F31472B53D1FC
:10824000D0F86031294A23F0FF03934211D090F80F
:108250006121472A1AD1B0F86221A2F5A241413921
:1082600089B2102907D922F0100145F2423081422B
:1082700029D1012070471E4820FA01F1C907F8D41E
:1082800022F4007245F253418A42F2D0194A9342D5
:10829000EFD002F1764202F580329342E9D0164ADD
:1082A0009342E6D002F1022202F574029342E0D03A
:1082B00002F1704202F500229342DAD00F481B1AF5
:1082C00058425841704744F247118A42D1D044F68F
:1082D0004C418A42CDD045F24E318A42C9D044F257
:1082E00053118A42C5D0CBE7002070470044544D5B
:1082F00003A8010000524C4D00545854005A444108
:1083000010B590F8F010CA0715D4D0F86021594B79
:1083100022F0FF029A4201D18B070CD490F8613110
:10832000472B74D1B0F8623145F24114A34204D115
:1083300011F0040F6BD0012070E045F24214A3420B
:1083400002D111F0080FF5E745F24234A34202D101
:1083500011F0100FEEE744F24714A34202D111F0DE
:10836000200FE7E744F64C44A34202D111F0400F3E
:10837000E0E745F24C14A34202D111F0800FD9E797
:1083800045F24E118B4204D190F8F13013F0010FF9
:10839000D0E745F24E318B4204D190F8F13013F022
:1083A000020FC7E745F250118B4204D190F8F1302B
:1083B00013F0040FBEE745F251118B4204D190F83F
:1083C000F13013F0080FB5E745F252318B4204D17A
:1083D00090F8F13013F0100FACE744F253118B42D8
:1083E00004D190F8F13013F0200FA3E745F2534188
:1083F0008B4204D190F8F13013F0400F9AE745F228
:1084000053618B4203D190F9F130002B93DB1A4B6F
:108410009A4204D190F8F20000F0010010BD174B11
:108420009A4204D190F8F200C0F34000F6E7144BF2
:108430009A4204D190F8F200C0F38000EEE7114BAD
:108440009A4204D190F8F200C0F3C000E6E70E4B68
:108450009A4204D190F8F200C0F30010DEE70B4B13
:108460009A4204D190F8F200C0F34010D6E7002001
:10847000D4E700BF0044544D00524C4D00524D43D0
:108480000054585400564C5700565447005A444123
:10849000D0F8D00010B103689B68184770470000FF
:1084A00037B53D4B044604F25F15186800909B8871
:1084B000ADF804300522294668460BF0D1F928B9F9
:1084C000D4F8A43013B1012003B030BD334968465D
:1084D0000BF064FA0522294668460BF0C1F918B979
:1084E000D4F8A830002BEED12D4968460BF056FA8F
:1084F0000522294668460BF0B3F918B9D4F8AC3018
:10850000002BE0D1274968460BF048FA052229469E
:1085100068460BF0A5F918B9D4F8B030002BD2D1C9
:10852000214968460BF03AFA0522294668460BF0C5
:1085300097F918B9D4F8B430002BC4D11B49684658
:108540000BF02CFA0522294668460BF089F918B978
:10855000D4F8B830002BB6D1154968460BF01EFA96
:108560000522294668460BF07BF918B9D4F8BC30CF
:10857000002BA8D10F4968460BF010FA05222946B6
:1085800068460BF06DF928B9D4F8C000003818BF60
:10859000012099E7002097E7D8610C00AE610C003C
:1085A000B4610C00BA610C00C0610C00C6610C0023
:1085B000CC610C00D2610C0037B5624B044604F26A
:1085C0005F15186800909B88ADF804300522294695
:1085D00068460BF045F978B9D4F8A43063B1D3F804
:1085E000D4204AB1D3F8CC20002A40F0A380D3F89D
:1085F000D030002B40F09E80534968460BF0CEF9F6
:108600000522294668460BF02BF978B9D4F8A83032
:1086100063B1D3F8D4204AB1D3F8CC20002A40F07B
:108620008980D3F8D030002B40F0848047496846D9
:108630000BF0B4F90522294668460BF011F968B928
:10864000D4F8AC3053B1D3F8D4203AB1D3F8CC201D
:10865000002A6FD1D3F8D030002B6BD13C4968464B
:108660000BF09CF90522294668460BF0F9F868B929
:10867000D4F8B03053B1D3F8D4203AB1D3F8CC20E9
:10868000002A57D1D3F8D030002B53D13149684656
:108690000BF084F90522294668460BF0E1F868B929
:1086A000D4F8B43053B1D3F8D4203AB1D3F8CC20B5
:1086B000002A3FD1D3F8D030002B3BD12649684661
:1086C0000BF06CF90522294668460BF0C9F858B939
:1086D000D4F8B83043B1D3F8D4202AB1D3F8CC20A1
:1086E00042BBD3F8D0302BBB1C4968460BF056F97F
:1086F0000522294668460BF0B3F840B9D4F8BC30DF
:108700002BB11A6F1AB19A6EA2B9DB6E93B91449E4
:1087100068460BF043F90522294668460BF0A0F89D
:1087200058B9D4F8C03053B1186F20B19A6E0AB955
:10873000D86E00B1012003B030BD0020FBE7184621
:10874000F9E700BFD8610C00AE610C00B4610C0009
:10875000BA610C00C0610C00C6610C00CC610C0059
:10876000D2610C0037B5384B044604F25F15186827
:1087700000909B88ADF804300522294668460BF02E
:108780006FF820B9D4F8A400013003B030BD2F49F0
:1087900068460BF003F90522294668460BF060F89D
:1087A00010B9D4F8A800EFE7294968460BF0F6F8AD
:1087B0000522294668460BF053F810B9D4F8AC00EE
:1087C000E2E7244968460BF0E9F8052229466846A5
:1087D0000BF046F810B9D4F8B000D5E71E4968464A
:1087E0000BF0DCF80522294668460BF039F810B981
:1087F000D4F8B400C8E7194968460BF0CFF8052251
:10880000294668460BF02CF810B9D4F8B800BBE73D
:10881000134968460BF0C2F80522294668460BF05A
:108820001FF810B9D4F8BC00AEE70E4968460BF04B
:10883000B5F80522294668460BF012F810B9D4F8AD
:10884000C000A1E70020A0E7D8610C00AE610C00D9
:10885000B4610C00BA610C00C0610C00C6610C0070
:10886000CC610C00D2610C0037B5384B044604F2E1
:108870005F15186800909B88ADF8043005222946E2
:1088800068460AF0EDFF20B9D4F8A400023003B026
:1088900030BD2F4968460BF081F80522294668460D
:1088A0000AF0DEFF10B9D4F8A800EFE729496846BE
:1088B0000BF074F80522294668460AF0D1FF10B97A
:1088C000D4F8AC00E2E7244968460BF067F80522CB
:1088D000294668460AF0C4FF10B9D4F8B000D5E7BD
:1088E0001E4968460BF05AF80522294668460AF0E8
:1088F000B7FF10B9D4F8B400C8E7194968460BF0BF
:108900004DF80522294668460AF0AAFF10B9D4F8A6
:10891000B800BBE7134968460BF040F8052229462A
:1089200068460AF09DFF10B9D4F8BC00AEE70E49C6
:1089300068460BF033F80522294668460AF090FF96
:1089400010B9D4F8C000A1E70020A0E7D8610C005E
:10895000AE610C00B4610C00BA610C00C0610C0087
:10896000C6610C00CC610C00D2610C0037B5394BEC
:10897000044604F25F15186800909B88ADF8043037
:108980000522294668460AF06BFF20B9D4F8A400F6
:10899000663003B030BD304968460AF0FFFF05225B
:1089A000294668460AF05CFF10B9D4F8A800EFE742
:1089B0002A4968460AF0F2FF0522294668460AF06D
:1089C0004FFF10B9D4F8AC00E2E7254968460AF039
:1089D000E5FF0522294668460AF042FF10B9D4F89F
:1089E000B000D5E71F4968460AF0D8FF052229469E
:1089F00068460AF035FF10B9D4F8B400C8E71A4940
:108A000068460AF0CBFF0522294668460AF028FF8F
:108A100010B9D4F8B800BBE7144968460AF0BEFFA5
:108A20000522294668460AF01BFF18B9D4F8BC0095
:108A30003430AEE70E4968460AF0B0FF05222946F9
:108A400068460AF00DFF10B9D4F8C000F0E7002026
:108A50009FE700BFD8610C00AE610C00B4610C0050
:108A6000BA610C00C0610C00C6610C00CC610C0046
:108A7000D2610C0037B5394B044604F25F15186813
:108A800000909B88ADF804300522294668460AF01C
:108A9000E7FE20B9D4F8A400673003B030BD3049F8
:108AA00068460AF07BFF0522294668460AF0D8FE90
:108AB00010B9D4F8A800EFE72A4968460AF06EFF1B
:108AC0000522294668460AF0CBFE10B9D4F8AC005E
:108AD000E2E7254968460AF061FF05222946684613
:108AE0000AF0BEFE10B9D4F8B000D5E71F496846B9
:108AF0000AF054FF0522294668460AF0B1FE10B973
:108B0000D4F8B400C8E71A4968460AF047FF0522BE
:108B1000294668460AF0A4FE10B9D4F8B800BBE7AD
:108B2000144968460AF03AFF0522294668460AF0C9
:108B300097FE18B9D4F8BC003530AEE70E49684648
:108B40000AF02CFF0522294668460AF089FE10B972
:108B5000D4F8C000F0E700209FE700BFD8610C0008
:108B6000AE610C00B4610C00BA610C00C0610C0075
:108B7000C6610C00CC610C00D2610C0037B5394BDA
:108B8000044604F25F15186800909B88ADF8043025
:108B90000522294668460AF063FE28B9D4F8A430B5
:108BA000D3F8D40003B030BD2F4968460AF0F6FE72
:108BB0000522294668460AF053FE10B9D4F8A830B9
:108BC000EEE72A4968460AF0E9FE0522294668468A
:108BD0000AF046FE10B9D4F8AC30E1E72449684603
:108BE0000AF0DCFE0522294668460AF039FE10B973
:108BF000D4F8B030D4E71F4968460AF0CFFE05220A
:108C0000294668460AF02CFE10B9D4F8B430C7E7FC
:108C1000194968460AF0C2FE0522294668460AF04C
:108C20001FFE10B9D4F8B830BAE7144968460AF004
:108C3000B5FE0522294668460AF012FE18B9D4F896
:108C4000BC30186FAEE70E4968460AF0A7FE052251
:108C5000294668460AF004FE10B9D4F8C030F0E79F
:108C600000209FE7D8610C00AE610C00B4610C00DD
:108C7000BA610C00C0610C00C6610C00CC610C0034
:108C8000D2610C0037B53A4B044604F25F15186800
:108C900000909B88ADF804300522294668460AF00A
:108CA000DFFD30B9D4F8A430D3F8D400013003B0DC
:108CB00030BD304968460AF071FE052229466846F3
:108CC0000AF0CEFD10B9D4F8A830EDE72A4968467D
:108CD0000AF064FE0522294668460AF0C1FD10B973
:108CE000D4F8AC30E0E7254968460AF057FE052283
:108CF000294668460AF0B4FD10B9D4F8B030D3E77D
:108D00001F4968460AF04AFE0522294668460AF0CD
:108D1000A7FD10B9D4F8B430C6E71A4968460AF07E
:108D20003DFE0522294668460AF09AFD10B9D4F89E
:108D3000B830B9E7144968460AF030FE05222946E2
:108D400068460AF08DFD18B9D4F8BC30186FADE74D
:108D50000E4968460AF022FE0522294668460AF0B6
:108D60007FFD10B9D4F8C030F0E700209FE700BFC6
:108D7000D8610C00AE610C00B4610C00BA610C004B
:108D8000C0610C00C6610C00CC610C00D2610C000B
:108D900013B5304B044604F25F14186800909B88AA
:108DA000ADF804300522214668460AF059FD10B995
:108DB000642002B010BD284968460AF0EFFD052284
:108DC000214668460AF04CFD0028F1D02349684648
:108DD0000AF0E4FD0522214668460AF041FD00281C
:108DE000E6D01F4968460AF0D9FD052221466846AB
:108DF0000AF036FD0028DBD01A4968460AF0CEFD9D
:108E00000522214668460AF02BFD0028D0D01649DD
:108E100068460AF0C3FD0522214668460AF020FD97
:108E20000028C5D0114968460AF0B8FD0522214640
:108E300068460AF015FD48B10D4968460AF0AEFDD6
:108E40000522214668460AF00BFD08B93220B0E73A
:108E50000020AEE7D8610C00AE610C00B4610C00DC
:108E6000BA610C00C0610C00C6610C00CC610C0042
:108E7000D2610C0037B5384B044604F25F15186810
:108E800000909B88ADF804300522294668460AF018
:108E9000E7FC18B9D4F8A40003B030BD2F496846E8
:108EA0000AF07CFD0522294668460AF0D9FC10B973
:108EB000D4F8A800F0E72A4968460AF06FFD0522B9
:108EC000294668460AF0CCFC10B9D4F8AC00E3E7B8
:108ED000244968460AF062FD0522294668460AF0E0
:108EE000BFFC10B9D4F8B000D6E71F4968460AF0B5
:108EF00055FD0522294668460AF0B2FC10B9D4F89F
:108F0000B400C9E7194968460AF048FD0522294618
:108F100068460AF0A5FC10B9D4F8B800BCE71449BB
:108F200068460AF03BFD0522294668460AF098FC8F
:108F300010B9D4F8BC00AFE70E4968460AF02EFD20
:108F40000522294668460AF08BFC10B9D4F8C00007
:108F5000A2E70020A0E700BFD8610C00AE610C00C2
:108F6000B4610C00BA610C00C0610C00C6610C0059
:108F7000CC610C00D2610C007047000038B513883A
:108F80000C4D012B14460ED10A0202F440722A80C5
:108F900001332380FFF7F0FF20882B88984214BF0D
:108FA0000320002038BD022BF2D12A880A43063262
:108FB000EDE700BF1EE6032030B54A780D784C88F7
:108FC0002A4454FA82F000EB142355FA82F203F09B
:108FD000FF0352FA80F20B7313444B73002293B2D7
:108FE0009C420AD98B68087B9B5C0344487BDBB2BC
:108FF0000B7303444B730132F1E730BD90F85A31E3
:10900000194490F85B31C9B280F85A11194480F8BC
:109010005B1170472DE9F74FB1F802B00BF1080B67
:109020001FFA8BFB4FF00008ABF1020304460D461C
:10903000DA46C1460093BAF1000F00F0A6806678C8
:1090400094F8E810D4F8C800564528BF5646AAEB55
:10905000060A1FFA8AFABAF1010F02BF06F1FF36BB
:10906000B6B24FF0020A06F0C7F8B9F1000F5CD1B2
:10907000D4F8C8000368B5219B689847D4F8C800A5
:10908000036862219B689847D4F8C8002978036870
:109090009B689847D4F8C800697803689B6898472C
:1090A000A978D4F8C800FEF7C1FD6988D4F8C800D3
:1090B000090AFEF7BBFD4B466A88D4F8C8001FFAC0
:1090C00083F909F106074A45BFB20DD9BE420BD953
:1090D000AA680168019342448F68D15CB847019B3C
:1090E0000133E9E7B946A6E7023EC844B7421FFA92
:1090F00088F80CD10368297B9B689847D4F8C8008E
:10910000697B03689B68984709F10807BFB25F4510
:10911000E8D294F87411D4F8C80006F074F8002866
:10912000E0D00C2003B0BDE8F08F002291B219FA14
:1091300082F78E42D4F8C800BFB210D9B5F802E069
:1091400008EB020C531CF445019308DAA968026885
:1091500011F80C1092689047019B1A46E6E7009BB5
:1091600088449F421FFA88F8D1D1023EB242CED144
:109170000368297B9B689847D4F8C800697B03681B
:109180009B6898471FFA8BF7C1E7D4F8C80006F030
:109190003EF80028C6D0C4E770B50546D0F8CC002C
:1091A00003680C469B68B5219847D5F8CC00036846
:1091B00062219B689847D5F8CC00217803689B68AA
:1091C0009847D5F8CC00617803689B689847D5F834
:1091D000CC00A17803689B689847D5F8CC006188DB
:1091E0000368090A9B6898470026D5F8CC00618877
:1091F0000368B2B291429B6804D9A168895C984720
:109200000136F2E7217B9847D5F8CC00617B0368F3
:10921000BDE870409B68184710B50446D0F8DC00E4
:1092200007F096FC94F8083194F809219A420BD97A
:10923000FF2801D122783AB1D4F80421D05494F80F
:109240000831013384F8083110BD00002DE9FF41D9
:10925000D0F8043104460D467BB990F8E93023B9C3
:1092600090F8EA30002B00F0CA806649D4F8D400A8
:1092700004B0BDE8F04107F08CBAD0F8E430624A9F
:1092800002930026012380F808616946D0F8DC00CB
:10929000ADF80C3000928DF8046007F0B9FB94F83B
:1092A000E000314608F03FF8B5212046FFF7B4FF53
:1092B00062212046FFF7B0FF29782046FFF7ACFF78
:1092C00069782046FFF7A8FFA9782046FFF7A4FF9A
:1092D00069882046090AFFF79FFF94F8E930002BC0
:1092E00042D04A49D4F8D40007F053FA1022D4F8F7
:1092F000D400B521FEF78AFC4549D4F8D40007F024
:1093000048FA1022D4F8D4006221FEF77FFC4049CD
:10931000D4F8D40007F03DFA10222978D4F8D4000C
:10932000FEF774FC3A49D4F8D40007F032FA102260
:109330006978D4F8D400FEF769FC3549D4F8D40034
:1093400007F027FA1022A978D4F8D40007F03DFAE4
:109350002F49D4F8D40007F01CFA6988D4F8D40057
:109360001022090A07F031FADFF8A48000266A8883
:10937000B3B29A4216D91F46AB682046D95DFFF7B3
:109380004BFF94F8E9305BB14146D4F8D40007F0C4
:1093900000FAAB68D4F8D400D95D1022FEF736FC91
:1093A0000136E4E7297B2046FFF736FF697B20463C
:1093B000FFF732FF94F8E000012107F0B4FFD4F882
:1093C000DC0007F00BFB94F8E930C3B11049D4F886
:1093D000D40007F0DEF9297BD4F8D4001022FEF780
:1093E00015FC0B49D4F8D40007F0D3F9697BD4F805
:1093F000D400102204B0BDE8F041FEF70EBC04B06A
:10940000BDE8F081DE610C00BC5F0C0013620C0053
:1094100039710C00F8B590F8E93004460D4616464F
:10942000002B00F0828090F84C714049D0F8D400B5
:1094300007F0AFF92B78012B3CD13D49D4F8D4008B
:1094400007F0A7F93B49D4F8D40007F0A2F92B881C
:1094500040F20172934245D13749D4F8D40007F065
:1094600098F93649D4F8D40007F093F96988D4F80C
:10947000D400102207F0A9F9012F01D1002E49D004
:109480002F49D4F8D4002F4F07F083F900266A88BB
:10949000D4F8D400B3B29A4241D9394607F079F9E9
:1094A000B3B2A968D4F8D400C95C1022FEF7AEFBB1
:1094B0000136ECE7052BD4F8D40001D12249BFE7EF
:1094C000062B01D12149BBE70A2B01D12049B7E77F
:1094D000204907F05EF92978D4F8D4001022FEF76D
:1094E00095FBAFE740F606029342D4F8D40001D1D1
:1094F0001949B4E740F60612934201D11749AEE785
:10950000144907F046F96978D4F8D4001022FEF720
:109510007DFBA6E71249D4F8D40007F03AF9D4F855
:10952000D400BDE8F84007F038B9F8BD24620C005B
:1095300029620C0039620C003E620C004C620C0087
:1095400055620C0039710C002D620C0031620C0068
:1095500035620C00AA640C0042620C0047620C00E9
:109560005F620C0038B5B0F86C51044655B990F8FC
:10957000E9300BB9002038BD1A49D4F8D40007F0FF
:1095800022F9F7E7D0F868312BB190F8E930002BD9
:10959000F0D01549F1E72846FAF77FFD94F8E93055
:1095A000C4F8680130B91BB994F8EA30002BE1D057
:1095B0000E49E2E77BB10E49D4F8D40007F0E9F890
:1095C000D4F8D450B4F86C110A22284607F0FDF8FC
:1095D000284607F0E2F80023A4F86E31A4F87031B1
:1095E0000120C8E771620C00C2620C0005630C0028
:1095F00029630C00B0F86E31B0F8702193423BBF84
:10960000B0F86C01C018981A801A80B2704708B57B
:109610000146FFF7EFFFB1F86C31181A80B208BDB0
:109620002DE9F041B0F86E31B0F86C51ED1AADB2E1
:10963000954228BF154616460446D0F86801771BA8
:109640002A461844BFB288460AF01AF99FB1D4F8E6
:1096500068013A4608EB05010AF012F9A4F86E71A8
:109660002046FFF7C7FFB4F87231834238BFA4F831
:109670007201BDE8F081B4F86E211644A4F86E6161
:10968000EEE7000037B5D0F8683104460D4613B157
:10969000B0F86C3153B994F8E90028B12449D4F8F2
:1096A000D40007F090F8002003B030BDFFF7AFFF03
:1096B0006B8808339BB2834208D994F8E9301BB910
:1096C00094F8EA000028EFD01A49E8E746F2B523FB
:1096D000022269462046ADF80030FFF7A1FF0122C3
:1096E00029462046FFF79CFF0122A9182046FFF7D4
:1096F00097FF6B888DF8043002221B0A01A92046CF
:109700008DF80530FFF78CFF6A88A9682046FFF7BF
:1097100087FF012205F10C012046FFF781FF20465B
:10972000012205F10D01FFF77BFF0120BCE700BF1F
:109730004F630C0077630C002DE9F84F0E780D2E67
:1097400004460D4601F0288209D8022E00F09A87BF
:10975000062E01F0CC81012E4FD0BDE8F88F132EDC
:1097600001F0EB83282E01F0CA84102EF5D10B688E
:109770008E4A23F0FF03934241F06A82C66F002EA7
:10978000EBD0A8680021FEF721FA7060AA68E36FA9
:1097900012791A72AA68E36F52795A72AA68E36F53
:1097A00092799A72A868E66F0821FEF70FFAF060C6
:1097B000A868E66F0C21FEF716FA3082A868E66FFB
:1097C0000E21FEF710FA7082E36F4FF0FF325A61FC
:1097D000E36F1A6A7AB1197808070CD4191D14338B
:1097E00051F8040B42F8040B9942F9D1E26F137857
:1097F00043F008031370E36F3DE00B686C4A23F0FD
:10980000FF03934241D1C668002EA6D0A86800216C
:10981000FEF7DCF97060A868E6680421FEF7D6F967
:10982000B060A868E6680821FEF7D0F9F060A86883
:10983000E6680C21FEF7CAF93061A868E6681021D5
:10984000FEF7C4F97061E3684FF0FF329A61E36894
:109850005A6A7AB1197809070CD4191D183351F8CE
:10986000040B42F8040B9942F9D1E268137843F0F3
:1098700008031370E3681B785F077FF56EAF294616
:109880002046BDE8F84FFFF7FDBE4A4A93423DD15E
:109890000669002E3FF461AFA8680021FEF796F933
:1098A0007060AA68236912791A72AA6823695279CA
:1098B0005A72AA68236992799A72AA682369D2793E
:1098C000DA72A86826690821FEF780F9F060A868B6
:1098D00026690C21FEF77AF9306123694FF0FF32D7
:1098E0005A6123691A6A7AB119780E070CD4191DC6
:1098F000143351F8040B42F8040B9942F9D1226950
:10990000137843F0080313702369B4E72A4A93429B
:1099100054D14669002E3FF420AFA8680021FEF71D
:1099200055F97060A86866690421FEF75CF930811A
:10993000A86866690621FEF756F97081A86866690D
:109940000821FEF750F9B081A86866690A21FEF780
:109950004AF9F081A86866690C21FEF744F9308263
:10996000A86866690E21FEF73EF97082A8686669EC
:109970001021FEF738F9B08263694FF0FF329A6127
:1099800063695A6A7AB1197808070CD4191D18331B
:1099900051F8040B42F8040B9942F9D1626913782B
:1099A00043F008031370636965E700BF00141000FB
:1099B0000001140000031000000412008C4A9342BE
:1099C00049D1C669002E3FF4C8AEA8680021FEF751
:1099D000FDF87060AA68E36912791A72A868E669EE
:1099E0000821FEF7F3F8F060A868E6690C21FEF79D
:1099F000EDF83061A868E6691021FEF7E7F87061BC
:109A0000A868E6691421FEF7E1F8B061A868E66984
:109A10001821FEF7DBF8F061A868E6691C21FEF763
:109A2000D5F83062E3694FF0FF325A62E3691A6B8E
:109A30007AB1197809070CD4191D243351F8040B95
:109A400042F8040B9942F9D1E269137843F0080314
:109A50001370E3690FE7674A934240F0CD80066ACE
:109A6000002E3FF47AAEA8680021FEF7AFF87060D0
:109A7000A868266A0421FEF7B6F83081AA68236A2E
:109A800092799A72AA68236AD279DA72AA68236AEA
:109A9000127A1A73AA68236A527A5A73AA68236AD6
:109AA000927A9A73AA68236AD27ADA730C21A86828
:109AB000266AFEF78BF83061A868266A1021FEF747
:109AC00085F87061AA68236A127D1A76AA68236AEB
:109AD000527D5A76AA68236A927D9A76AA68236A8A
