:02000002B0004C
:1040000000400B008C800C00000006001700050229
:084010000401A30F00000000F1
:04401800DC5B0C0061
:1040200009480A49884208B505D0094A824202D0A7
:10403000121A0FF005FD0748074A0021121A0FF067
:1040400027FD014808BD00BF74DB0320687E0C001B
:1040500070DD032070DD0320EDE7032070B5074E0F
:10406000074C0DF0BFF9A41BA4080025AC4200D1F9
:1040700070BD56F8043B98470135F7E7147E0C00F5
:10408000387E0C0001F0B0BC08B501F031FCBDE891
:1040900008400DF05FB909F0BFBB09F0BDBB09F0E6
:1040A000C3BB09F0C1BB000008B5034A03490C209B
:1040B00009F0ACFAFEE700BF4DD20B00F05B0C003C
:1040C0000078B0FA80F04009704701230370704710
:1040D00070477047006A0368DB6818477047037CC5
:1040E00013F008031EBFC36A406A1B1A002BACBF43
:1040F00018466FF0004070477047000008B5134B3A
:104100001A78134B1B789B0043EA4203114A12783A
:104110001343114A127843EAC203104A127843EA61
:1041200002130F4A127843EA82130E4A127843EAC6
:10413000C2130D4A13700D4B01221A700DF0C2F814
:10414000BDE808400A490CF014BC00BFBCDD0320E8
:104150007CDD0320ACDD0320E8E00320F1DD03205B
:1041600014DF03200DDF0320B4E50320D4E5032092
:10417000055C0C0010B510210446FFF792FF2046A5
:1041800010BD10B534210446FFF78BFF204610BD4B
:10419000103002F0EDBA07B501228DF8071010308B
:1041A0000DF1070102F0E4FA03B05DF804FB1030F2
:1041B00002F054BA103002F035B907B501220DF102
:1041C0000701103002F080F801280CBF9DF80700AD
:1041D0004FF0FF3003B05DF804FB436913B183690E
:1041E0000C301847704713B500210446084608F004
:1041F000D5FF0023204601A9019308F0E7FF019CA9
:104200000CB1012323710021012008F0C7FF2CB15C
:10421000236820469B6898470023237102B010BD95
:10422000012A02D1016000207047022A04BF0B68F6
:104230000360F8E7036818470368C9B29B6818472A
:1042400010B5054B00220446114640F8043B09F026
:10425000FDF9204610BD00BF20620C0010B50446D9
:10426000FFF7EEFF20462021FFF71BFF204610BD81
:104270000A4B10B5044603600BF084FC21460BF09A
:10428000BCFE0DF01FF80DF011F82046044B40F86D
:10429000043B0BF04DFD204610BD00BF34620C0006
:1042A00008620C0010B50446FFF7E2FF2046242107
:1042B000FFF7F7FE204610BD37B5044680680D466F
:1042C00030B10023CDE900331A46022108F086FF01
:1042D000A06830B10023CDE900531A46194608F012
:1042E0007DFF03B030BD0EB403B503AB002153F81E
:1042F000042B01930CF067FB02B05DF804EB03B0F4
:104300007047000073B5044608462279A36832B1AD
:10431000A3B90B4902B0BDE870400CF013BB094AC9
:10432000267B094D0949647B012E18BF2946CDE93A
:1043300000140749FFF7D7FF02B070BD054AEFE749
:104340002F5C0C00A7730C002B5C0C00275C0C008E
:10435000455C0C001E5C0C000EB403B503AB0121E0
:1043600053F8042B01930CF02EFB02B05DF804EB24
:1043700003B0704710B5114B1B78EBB908F076FF0E
:104380000F4B1B68C01AB0F57A6F15D90D4B0E4C48
:104390000E485A2119700E4B217001221A700CF030
:1043A0005AFB21780B480CF056FB0CF08BFF0A49A6
:1043B0004FF47A62FFF7D0FF10BD00BFF1DD03209C
:1043C00030DE03208CE503208DE503208CDD032007
:1043D000F0E503209CDD0320625C0C0010B58368CF
:1043E000044613B1032201469847204610BD000041
:1043F00037B5134B036004468068C8B100256FF0E1
:104400000043CDE9003502212B462A4608F0E6FE9E
:10441000A068294608F00AFF237903F0FF0513B1CD
:1044200008F0B4FEF8E7A068294608F0C7FEA560CA
:1044300004F10C00FFF7D2FF204603B030BD00BFEF
:10444000F4610C0010B50446FFF7D2FF20461C2192
:10445000FFF727FE204610BDF0B58C460025144915
:10446000057104468560016092E8030085B002AFE3
:1044700004F10C0687E8030096E8030082E80300D5
:1044800097E8030086E803009168A0696161D1683C
:104490009560D060A161CDE90035064A23466146AA
:1044A00004F1080008F082FE204605B0F0BD00BF10
:1044B000F4610C00E7410B0010B504460022407C7B
:1044C00009F0FEF8637C0F2B18BF208310BD00009D
:1044D000F8B5294B294D1B785BB16B7C0F2B1CBFAA
:1044E00002236B74264B6B611E212448FFF7E4FF07
:1044F000F8BD244B1B7833B16B7C0F2B1CBF022300
:104500006B74FF23EFE7204B1B78002B2DD11F4B43
:104510001B78002B2CD11E4B1B78002B0BBF0A26BF
:104520001426022703271B4B1A781B4B1C781B4BA6
:10453000A40044EA42041A78144364B20CF0C2FEA8
:104540002246013C1649E4B2FFF706FF062C98BF4D
:10455000144B6A7C94BF53F824304FF47F030F2A26
:1045600018BF6F7431466B61BFE714260227DAE784
:1045700014260127D7E700BF8EE5032094E503202A
:104580000060FF00E8E0032014DF03200DDF0320BC
:10459000F1DD0320BCDD03207CDD0320ACDD032046
:1045A000AC5C0C0028630C0013460A4601490968FC
:1045B00002F091B814E6032010B509F0A5F82B4CD1
:1045C000E0B10123237008F051FE294B294C1B68F0
:1045D00047F23052C01A904223D813B301232370FC
:1045E00008F044FE244B254C1B6847F23052C01A99
:1045F000904228D83BB30123237010BD2378002BB1
:10460000E1D01F48037C2BB91E4944F2022210302E
:10461000FFF7CAFF1C491A481E22FFF79DFE002320
:10462000D0E723786BB11648037C2BB9154944F2C7
:1046300002221030FFF7B8FF134911481E22FFF77E
:104640008BFE0023CBE7227872B16BB10C48037C60
:104650002BB90C4944F202221030FFF7A5FF0B4999
:1046600007481E22FFF778FE0023C5E7ACDD0320D4
:10467000C0DD0320BCDD032088DD03207CDD0320BA
:10468000B4DE032010DE0320B75C0C00085D0C00D4
:1046900030B585B01B4B009313798DF804309368C7
:1046A000029300F58C659389ADF80C3004460A46F8
:1046B0006B4600F26C41284602F03EFF10B9002024
:1046C00005B030BD256004F23C45284601F0FCFFF2
:1046D0000121204602F0DBFD014668B12146284653
:1046E00001F0ECFD0028EAD094F83C3413F0700F90
:1046F000E5D0054B1D60E3E7204602F0C8FD002829
:10470000ECD1DCE7E0610C0014E603202DE9F04772
:104710008AB08378412B04AF04468A464CD1C378D3
:10472000422B75D120460FF03EFA013820F00700E9
:10473000E946ADEB000D20460FF035FA04AD2844F4
:10474000002600F8096C2046FE713E80BE700FF016
:104750002AFA204410F8023C3B7020460FF023FA5E
:104760002044314610F8013C7B701022384610F08E
:1047700043F980465FFA88F80CF0A4FD8649434669
:104780004246FFF7E9FD042620460FF00CFA0238F6
:10479000864216D2062E9BBF07F118039B19AB1950
:1047A000A25D8CBFA25D03F8182C06F1010688BF3C
:1047B00003F8072CF6B2E7E7422B29D1C378312B57
:1047C000AFE740452ED00CF07DFD054620460FF0AA
:1047D000EAF9821E2846714D71494346FFF7BCFD38
:1047E0002B7CCBB96F4944F2022205F11000FFF790
:1047F000DBFE6D4922462846FFF7AEFD05F11000AD
:1048000001F062FF0CF05EFD68490CF0B2F8CD4695
:104810001837BD46BDE8F087634922462846FFF7B2
:104820009BFDEFE76249381D0FF08EF90028EED0AE
:104830006049381D0FF088F968B95F4B02935F4BF0
:1048400001935F4B00935F4907F1100307F10802E2
:10485000284609F001F85C49381D0FF075F9002869
:104860003DD12B783B726B787B72AB78BB72EB7867
:104870003B742B797B7407F108006B79BB740FF0E4
:10488000C2F8524D524C287007F110000FF0BBF8DF
:1048900020700CF017FD2A7823784E49FFF75CFD55
:1048A0002B784D485B3B202B9CBF7B232B702378C0
:1048B00029785B3B202B9CBF7B2323700CF0CBF82B
:1048C000217846480CF0C7F8454B01221A7008F0D1
:1048D000CDFC444B18603A4B00221A7097E74249CE
:1048E000381D0FF031F918B9404B83F800A08EE75E
:1048F0003F49381D0FF028F9F0B9284C0CF0E2FCC4
:1049000029460CF036F8237C83B9264944F202226A
:1049100004F11000FFF748FE36492A462046FFF70B
:104920001BFD04F1100001F0CFFE70E731492A466B
:104930002046FFF711FD6AE72F49381D0FF004F9F3
:1049400020B908F093FC2D4B186060E72C49381D06
:104950000FF0FAF810B92B4B187058E72A49381D98
:104960000FF0F2F800283FF452AF2849381D0FF03D
:10497000EBF800287FF44BAF254B264801221A7034
:10498000244B5A7C0F2A1CBF02225A741E21FF227C
:104990005A61FFF791FD3AE7575D0C00B4DE032042
:1049A0006C5D0C0010DE0320895D0C00B55D0C0011
:1049B000D65D0C00DA5D0C008EE503200DDF0320D0
:1049C000F1DD0320DE5D0C00ED5D0C008CE50320C5
:1049D0008DE50320F15D0C008CDD03209CDD0320C0
:1049E000F0E5032030DE03201D5E0C00E9E003202B
:1049F000215E0C00255E0C00485E0C0034DE0320B6
:104A00004C5E0C00F1E50320505E0C00545E0C007F
:104A1000E8E0032094E5032010B50C4600220421B1
:104A20002046FFF773FE0B4B1B7893B10A48037CBB
:104A30002BB90A4944F202221030FFF7B5FD224695
:104A400007490548FFF788FCBDE81040054801F01C
:104A50003BBE10BD0CDF0320B4DE032010DE0320BC
:104A6000585E0C00C4DE0320B0B501F1080323F04A
:104A7000070300AFADEB030D0C460A46014668463E
:104A80000EF0DEFF0DEB04036D4613F8013C13B18D
:104A900000230DF804300CF015FC16490BF069FFEB
:104AA0000CF010FC29460BF064FF01221146284649
:104AB000FFF72CFE2B7803F0FD03412B03D108F008
:104AC000D5FB0D4B18600D4B1B7883B10C48037C54
:104AD0002BB90C4944F202221030FFF765FD0A4958
:104AE00007482A46FFF738FC084801F0EDFDBD46AF
:104AF000B0BD00BF785E0C0088DD03200CDF032012
:104B0000B4DE032010DE0320885E0C00C4DE032028
:104B100013B50024CDE90044044905480123224689
:104B200008F002FE034B1C7002B010BD194A0B00C6
:104B3000A85E0C00ACDD032008B50CF05BFD084955
:104B4000FFF7D1FB142008F0DBFE0CF053FD054904
:104B5000FFF7C9FBBDE80840142008F0D1BE00BF34
:104B6000A6730C002D5C0C0007B50CF003FD0023B0
:104B700001460093124840F24C43422207F056FF90
:104B800040B94FF47A7008F0BBFE0CF09BFB0D4966
:104B90000BF0EFFE40F24C420121094807F0D2FE33
:104BA00040F24C4301220021054807F0ABFE0CF017
:104BB000E1FC054903B05DF804EB0AF0C7BB00BF98
:104BC00068DF0320AE5E0C00801A060000000000C3
:104BD00010B515200CF0A0FC07EE900AF8EEE77A6D
:104BE000374C17EE900A0EF047FB2DA3D3E90023B4
:104BF0000EF09AFB0EF090FE324B18600EF03CFB6C
:104C000029A3D3E900230EF0D7F92F4B00220EF091
:104C10008BFB27A3D3E900230EF0B0FC0EF034FE8B
:104C200064280346A8BF642323EAE373142823708F
:104C3000264BCCBF00200120187010200CF06CFC1B
:104C400007EE900AF8EEE77A17EE900A0EF014FBE2
:104C50001F4B00220EF068FB17A3D3E900230EF0D0
:104C60008DFC0EF059FE1B4B186011200CF054FC0B
:104C700007EE900AF8EEE77A17EE900A0EF0FCFACB
:104C8000154B00220EF050FB0BA3D3E900230EF0CE
:104C900075FC0EF041FE114B1860207810BD00BF6E
:104CA00059C0046EDDCD733F6666666666662A404F
:104CB00098999999999909400000000000FEAF4029
:104CC000D8DD0320DCDD03200000594014DF032081
:104CD00000804040D4DD03200080304090E5032078
:104CE000F0EE607A08B5F0EE400AB0EE670A0CF01C
:104CF0006DFE10EE100A0EF0BFFA094B00220EF006
:104D000013FB05A3D3E900230EF038FC0EF004FEDC
:104D100000EE100A08BD00BF182D4454FB210940C5
:104D20000080664038B50E4D2B78BBB10D4B0E4C54
:104D30001A780E485B3A202A9CBF7B221A70227890
:104D400019785B3A202A9CBF7B2222700BF083FEED
:104D5000217807480BF07FFE00232B7038BD00BF81
:104D6000F0E503208CE503208DE503208CDD032096
:104D70009CDD032098B500AF04460EF014FF073009
:104D800020F00700ADEB000D20460EF00CFF214691
:104D9000024668460EF054FE20460EF004FF002343
:104DA00002466946024808F0FFFFBD4698BD00BFB5
:104DB000E0DD0320000000002DE9F043DFF8CC9295
:104DC000A14BA24DC9F800302DED048BA04BA14E94
:104DD0002B60A14CA14BA2483360AFB0A14B236024
:104DE00002F0F4FD0CA99E48DFF8A48202F034FE24
:104DF0000CF068FA074611980EF03EFA02460B4690
:104E00001298CDE90A230EF037FADDE90A23CDE93D
:104E1000000195493846FFF79FFADDED120A9DED36
:104E2000110AFFF75DFF99ED007A9FED906A88ED1A
:104E3000000AB4EEC67AF1EE10FAC0F2F580DFEDAA
:104E40008C6AB4EEE67AF1EE10FA00F2ED80D5ED60
:104E5000007AF4EEC67AF1EE10FAC0F2E580F4EED4
:104E6000E67AF1EE10FA00F2DF8094ED000AD6ED5A
:104E7000000A804F77EE600A37EEC00A0CF0A6FDFC
:104E8000DFED7D7A60EE277AB6EE008A17EE900AA3
:104E90000EF0F2F968A3D3E900230EF06FFB0EF0D9
:104EA0003BFDD9ED009AD6ED008A386079EEE87ABC
:104EB00017EE900A0EF0E0F961A3D3E900230EF09B
:104EC00033FA0EF029FD07EE900A27EE880A0CF05F
:104ED00007FD18EE900AB0EE409A0EF0CDF958A3F7
:104EE000D3E900230EF020FA0EF016FD00EE100AB2
:104EF0000CF0BEFC19EE900AF0EE408A0EF0BCF900
:104F00004FA3D3E900230EF00FFA0EF005FD00EEDB
:104F1000100A0CF0ADFC95ED007AD4ED007A77EE36
:104F2000677AF0EE409A17EE900A0EF0A5F944A3C6
:104F3000D3E900230EF0F8F90EF0EEFC07EE900A2C
:104F400027EE880A0CF0CCFC68EEA98A68EE808A0D
:104F500028EE808AA9EE098AB0EE480A0CF038FDE6
:104F600018EE100A10EE104A0EF086F902460B46B3
:104F7000002042490EF020F841EC100B0CF0ECFC44
:104F800020468DED0A0B0EF077F99DED0A1B41ECE2
:104F9000100B0CF0DFFC53EC102B10EE100A19462E
:104FA0000EF00CF80EF0B8FCDFED357A354BD7ED8E
:104FB000008A98ED008A07EE100A67EE277A1198AA
:104FC000C3ED007A0EF058F978EE687A02460B4687
:104FD00017EE900ACDE90A230EF04EF9CDE908014B
:104FE00018EE900A0EF048F9CDE9060118EE100A05
:104FF0000EF042F9CDE9040113980EF03DF9CDE928
:10500000020112980EF038F9DDE90A23CDE900011A
:105010001D4915A808F018FC15A8FFF7ABFE0CF009
:1050200051F915A90BF0A5FC01202FB0BDEC048BA4
:10503000BDE8F083AFF30080182D4454FB210940F4
:1050400070E20DA545DF913F5E140F42DCE50320C1
:10505000FF589DC238DE032010DF032053160F4295
:1050600058DE032048599DC2CE5E0C000000B4C239
:105070000000B442E4E50320000034430000F03FA8
:105080000018C745E0E50320DB5E0C00D8E50320EF
:10509000E8DD03202DE9F04FA44DABB008F0E6F8B1
:1050A0002B68834280F0F380DFF8B0B29BF80030C9
:1050B000002B00F0EC800CF05DFA01231422632138
:1050C0000AF065F90CF056FA03685B69984716AC6C
:1050D00026460CF04FFA03681B69984738B10CF06C
:1050E00049FA03685B69984704F8010BF1E7304619
:1050F0000EF086FC51EC100B0EF00EFCDFF860A2F7
:10510000CAF800000CF036FA0123142264210AF0D8
:105110003EF90CF02FFA03685B6998471BAC2646F2
:105120000CF028FA03681B69984738B10CF022FA92
:1051300003685B69984704F8010BF1E730460EF00D
:105140005FFC0CF017FA0123142265210AF01FF905
:105150000CF010FA03685B69984720AC26460CF007
:1051600009FA03681B69984738B10CF003FA036821
:105170005B69984704F8010BF1E730460EF040FCFC
:1051800059EC108B0CF0F6F90123142266210AF079
:10519000FEF80CF0EFF903685B69984725AF3E46CF
:1051A0000CF0E8F903681B699847044638B10CF025
:1051B000E1F903685B69984707F8010BF0E73046AF
:1051C0000EF01EFC5A4B8BF800401B7857EC106B0E
:1051D000002B5CD00BF09AFF11900BF08BFF044674
:1051E0000BF09CFF83460BF061FF10900BF06AFF01
:1051F0000F900BF073FF109A0F99119B0490CDE95B
:1052000001B203914B4A0094102112A808F02CFB24
:105210004948037C2BB9494944F202221030FFF778
:10522000C3F9494640460EF077FB0EF025F8CDE96C
:105230000C01434B18680EF01FF8CDE90A01414BF1
:1052400018680EF019F8CDE90801DAF800000EF040
:1052500013F8CDE90601394630460EF05DFB0EF03D
:105260000BF8CDE90401384B18680EF005F8CDE9CC
:105270000201364B18680DF0FFFF12AACDE90001BC
:1052800033492D48FFF768F8324801F01DFA324CD7
:1052900007F0ECFF2368834244D207F0E7FF00F6F3
:1052A000C410206007F0E2FF00F2393028600CF0F3
:1052B00061F963210AF084F80CF05CF97221FEF7C1
:1052C000BBFF0CF057F90AF082F80CF053F9642197
:1052D0000AF076F80CF04EF97221FEF7ADFF0CF0F3
:1052E00049F90AF074F80CF045F965210AF068F8FC
:1052F0000CF040F97221FEF79FFF0CF03BF90AF029
:1053000066F80CF037F966210AF05AF80CF032F919
:105310007221FEF791FF0CF02DF90AF058F80F4BAF
:1053200001221A702BB0BDE8F08F00BFECDD032026
:105330000DDF03202A5F0C0034DF0320F2DD0320A1
:1053400080E503207CE5032010DF032038DE032006
:10535000435F0C0044DF032088E50320F0DD0320D9
:1053600084E503202DE9F04F3C4EDFF80481DFF89F
:10537000049189B000AF0CF03DF903681B699847B0
:10538000002866D00CF036F90A22014638460BF0A8
:1053900005FDBB68073323F007036D46ADEB030D36
:1053A000EA460023B9681FFA83FB8B4503F1010429
:1053B00007D2594638460BF0E9FD23460AF80B00A0
:1053C000F0E701290AD9013938460BF0DFFD0D2835
:1053D00001BFBB685344002203F8012C01220221C3
:1053E0005046FFF793F90BF06DFF31460BF0C1FA11
:1053F0000BF068FF39680BF0BCFA9AF80030423BBA
:10540000012B03D807F032FFC8F8000099F80030EC
:10541000D3B11348037C2BB9124944F20222103055
:10542000FFF7C2F8394607F110000BF065FD0E4991
:105430000B4807F11002FEF78FFF07F110000BF089
:10544000C5FC0A4801F040F938460BF0BFFCAD46F8
:1054500091E72437BD46BDE8F08F00BF5B5F0C00CD
:10546000B4DE032010DE03206D5F0C00C4DE0320D9
:10547000C0DD03200CDF03202DE9F043ADB00BF0BD
:1054800021FF61490BF075FA604961480022FFF77E
:105490008BF848B95F4B18700BF014FF5E492DB0C4
:1054A000BDE8F0430BF065BA0BF00CFF5B495C4DB7
:1054B0000BF05FFA08F088FD08F0E4FD044648B9F7
:1054C00008F082FD2246294608F02FFE0A2008F047
:1054D00017FAEFE70BF0F6FE52494D4F524DDFF849
:1054E0006C810BF046FA00223946284601F079F823
:1054F000F8B108F069FD08F0C5FDD0B11E2201A980
:10550000284601F035FA0BF0DDFE414601AAFEF710
:1055100023FF01A80EF047FB01AB043818440EF03E
:105520004BFB42490EF0A1FBD8B9284601F0CCF85C
:10553000D9E7374801F0C8F82622002109A80EF063
:10554000A7FA3B4909A80EF009FB0023262209A966
:10555000384808F029FC2F4B00221A702DB0BDE806
:10556000F0832622002109A80EF092FA3249334E28
:10557000DFF8C09009A80EF0F1FA01A909A80EF011
:10558000BDFA0BF09FFE2E4909AAFEF7E5FE0023A7
:10559000262209A9274808F007FC0BF093FE2949A9
:1055A00001AAFEF7D9FE962008F0AAF909F012FF29
:1055B0003046FEF794FD044688B16422002113A80A
:1055C0000EF066FA13AA64230D2130460BF0CEFBD1
:1055D0000023642213A9484608F0E6FBE8E709F037
:1055E000FBFE2622214609A80EF052FA164909A808
:1055F0000EF0B4FA2346262209A90E4808F0D4FB7F
:10560000962008F07DF990E78E5F0C00AB5F0C00F0
:1056100090DE0320E8E00320AD5F0C00DA5F0C00B1
:10562000C8DD0320FA5F0C0044DF032038600C0063
:105630003D600C00E0E0032046600C0034DF0320F6
:105640004F600C0062600C008A600C000F600C0060
:1056500038B5046805467CB16368013B63605BB99B
:10566000236820469B689847A368013BA3601BB949
:1056700023682046DB689847284638BD2DE9F04767
:1056800084B002AF804691461E460D460EF08BFA5E
:10569000093020F00701ADEB010D40460EF083FA12
:1056A00097F828A0254902AC03464246204608F058
:1056B000CBF8BAF1000F01D1042D0CD1204B2149B8
:1056C0001B788DF8003038463C23224609F056FC02
:1056D000381DFFF7BDFFB9F1000F01D1012D21D118
:1056E00008F072FC08F0CEFCE0B120460EF05BFA48
:1056F000073020F00700E846ADEB000D20460EF025
:1057000052FA0DF108090246214648460EF098F972
:1057100020460EF048FA0023024649460A4808F09F
:1057200043FBC5460EB9022D04D10BF063FF2146A1
:105730000BF01FF90837BD46BDE8F08793600C00F9
:10574000C4DD03209A600C00E8E5032030B5274D46
:105750002B789DB0002B46D0412200210BA80EF0E3
:1057600097F9234B0893234BDFED236A93ED007ADF
:10577000224B27EE267A0024BDEEC77A8DED077AFC
:1057800093ED007A1E4B27EE267ABDEEC77A8DED9B
:10579000067A93ED007A1B4B27EE267ABDEEC77A88
:1057A0008DED057AD3ED007A174B67EEA67AFDEE04
:1057B000E77ACDED047A18680DF05EFDCDE90201BF
:1057C000124B18680DF058FD0122CDE90001104977
:1057D0000BA808F039F829780094234622460BA834
:1057E000FFF74CFF2C701DB030BD00BFE9E0032077
:1057F000880D010080E5032000007A4478E503204D
:1058000084E503207CE5032010DF032038DE03203D
:10581000A2600C0070B52C4E337890B0002B49D0AC
:105820002A4A2B4B10681B7807930DF025FDCDE914
:105830000401284A284C10680DF01EFDCDE9020134
:10584000264A079B12782649009209A8012207F0F0
:10585000FBFF0BF037FD09A90BF08BF80BF032FDC5
:10586000218805460A220BF090F828460BF075F8BF
:105870001C4B1B7803BB1C4B1B78EBB92388F3B183
:1058800013F003031BD10122009219461A4609A8FE
:10589000FFF7F4FE23880BB1013B23800024642032
:1058A000347008F02DF81148009423460122214657
:1058B000FFF7E4FE10B070BD4FF4F07323800021B9
:1058C000012300911A46E2E7D4E5032010DF03200C
:1058D000D8DD032038DE0320AEDD0320B4E503204D
:1058E000C6600C007CDD0320BCDD0320DF600C0003
:1058F00008B5FFF761FAFFF76BF9FFF7CBFBFFF78E
:1059000031FDFFF787FFFFF70DFA064B1B780BB150
:10591000FFF7B2FDFFF71AFFBDE808404FF4FA7039
:1059200007F0EEBFE8E0032070B5D0E9005314267D
:10593000044606FB0356AE4204D028460BF046FA56
:105940001435F8E7206807F06FFF204670BDF0B50A
:1059500016468FB00022C0E9002204460D4609AF6A
:10596000194604A808F0E2F91499384608F0DEF95F
:10597000169B0293159B2046CDE90073324604AB7B
:10598000294608F049FF20460FB0F0BD13B50B4C77
:105990002178BFF35B8F11F001010BD120460191FB
:1059A000FEF78EFB019928B105480BF0C2F820469E
:1059B000FEF78BFB024802B010BD00BF70DD032074
:1059C00074DD032008B5FFF7E1FF4FF6FF720021F9
:1059D0000BF0CDF8FFF7DAFFBDE8084001490122DE
:1059E0000BF064B940420F002DE9F04FC148C24EA0
:1059F000037CC24D03F0030343F0780393B00374B8
:105A000000220121043007F021FE012102200BF0C9
:105A100059FD01211C200BF055FD00211D200BF02C
:105A200051FD002102200BF05EFD00211C2000240E
:105A30000BF059FDB42707F019FC5A2333702B7073
:105A40004FF47A72CDE900474FF4FA630621AC486F
:105A50000BF03EF84FF47A724FF4FA63CDE9004749
:105A60000521A848A84F0BF033F83178A448A74E79
:105A70000AF0F1FF2978A3480AF0EDFF4FF4FA602D
:105A800007F03EFF08F0A0FA08F0E8FA08F09CFAE8
:105A9000082108F0EAFA0BF015FC4FF416510BF050
:105AA00001FC0BF0A7FD4FF416510BF0A3FBFFF721
:105AB00089FFFFF741F8FFF757F8FFF729F807F0DC
:105AC000D5FB934B186007F0D1FB924B186007F0A1
:105AD000CDFB914B1860914B1C60914B1C60914B1E
:105AE0001C70914B1C70914B1C70914B4FF4F072D9
:105AF0001A80904B012532221A703D70357008F0E3
:105B000063FA8D4A01460DA808F0B0FF0DA808F011
:105B100060FB08F059FA894A01460DA808F0A6FF73
:105B20000DA808F056FB08F04FFA854A01460DA86B
:105B300008F09CFF0DA808F04CFB08F045FA814ADC
:105B400001460DA808F092FF0DA808F042FB7E4B1D
:105B50001D707E4B0DA8196808F0E8F80DA808F034
:105B600047F805460DA8002D40F0B88008F05CF815
:105B70000095ADF82400022309AA0321744808F017
:105B800053FC002370497248082208F06BFC08F0AF
:105B90001BFA00226E4908F0C8FA0BF0EBFC09F082
:105BA000D9FB0BF0E7FC6B4909F0D0FB0BF0E2FCF2
:105BB0001C210246684802F082F8002840F09580D7
:105BC0000BF080FB65490AF0D4FE6348022101F026
:105BD0006FFF6148002101F0CFFF5F48012101F014
:105BE00099FF5D48012101F0E2FF012400255A4898
:105BF0004FF4FA7102F082F823462A462946CDE98D
:105C000001545548009402F091F80BF07FFA079088
:105C10000BF070FA80460BF081FA81460BF046FAE1
:105C200082460BF04FFA83460BF058FA079B4C4A1A
:105C3000CDF80080CDE903B01021CDE9019A09A883
:105C400007F012FE474948480DF088FF09A9464869
:105C50000DF054FF444945480DF080FF4449424847
:105C60000DF04CFF434941480DF048FF0BF02AFB73
:105C70003D490AF07EFE0BF025FB3C490AF079FE17
:105C80003D486FF00041FEF717FB3C486FF00041C4
:105C9000FEF712FB3A486FF00041FEF70DFB394862
:105CA0006FF00041FEF708FB374B0D933748384B38
:105CB000ADF840400DAA08218DF838500F93FEF73B
:105CC000E7FC0446002869D10BF0FCFA31490AF0E0
:105CD00050FE3C70347013B0BDE8F08F07F0A6FFA3
:105CE000009402461023072148E70BF0EBFA2A49FB
:105CF00069E700BF94E503208CE503208DE50320D0
:105D00008CDD03209CDD03200DDF03200CDF03204E
:105D100088E50320ECDD032034DE0320C0DD032012
:105D200088DD0320F0DD0320E8E00320E9E0032024
:105D3000AEDD0320D8DD0320E8E50320ECE00320FE
:105D4000E0E00320E0DD03207DDD032074DB0320A1
:105D5000C8DD0320801A060058DE0320ED600C0029
:105D60002A5F0C0018610C00F2DD032010DE032016
:105D700038600C0021610C00F4E5032018DF0320DB
:105D80003CDE0320B8E50320E0610C00F4E00320D2
:105D900000127A002A610C0009610C003B787BB18B
:105DA0001248037C2BB9124944F202221030FEF74C
:105DB000FBFB10490D480AF0DCFD0F4800F084FCA5
:105DC0003378002B87D00D48037C2BB90C4944F263
:105DD00002221030FEF7E8FB0A4908480122FEF7CC
:105DE000BBFA094800F070FC75E700BF34DF032000
:105DF000F2DD03204F610C0044DF0320B4DE0320FA
:105E000010DE0320A5610C00C4DE03208842F8B533
:105E100004460D46164616D9904215D2A2F1140634
:105E2000751AA1F114072C44B7421CD02CB131468D
:105E300020460BF047F8337C237430460AF0C6FF47
:105E4000143E143CF0E70ED0B5420CD02CB12946DC
:105E500020460BF037F82B7C237428460AF0B6FF57
:105E600014351434F0E7F8BD2DE9F0410023C0E902
:105E7000003383604F689F4204460E4623DD4FF097
:105E8000140808FB07F007F0C7FC0546D8B1D4E9B1
:105E9000001208FB0212FFF7B9FF206807F0C4FCEC
:105EA0002560A760D6E9007308FB0378B84508D0E1
:105EB000394628460BF020F83B7C2B7414371435F8
:105EC000F4E7736863602046BDE8F081F0B57D4B70
:105ED0007D4A7E4C01261E707D4B0025C3E900558E
:105EE0009A6093B0032007F0C3FB7A4801F07AFF71
:105EF000794801F061FDFFF749FD6423C4F860347F
:105F0000764B6560C4F83C54C4F86854C4F87034E7
:105F100084F87464C4F87854A4F87C5408B9FFF782
:105F200035FD6F4B6F4AC4F86C044FF47A77002448
:105F30001A60C3E901471C616B4B07941A60C3E9FF
:105F400001471C61694B6A4D1A60C3E901471C6136
:105F5000CDE905440BF0B6F905A9064608A8FFF7F8
:105F600083FF08A90BA8FFF77FFF624B2B600BA9EB
:105F70000EA8FFF779FF0EAA1E21281D0AF020F9AE
:105F80000EA8FFF7D1FC0BA8FFF7CEFC5A4B2B60F5
:105F90002E6208A8FFF7C8FC584B2B600BF092F953
:105FA0004FF416510BF07EF909F0ECFD294609F08B
:105FB000DDFF05A8FFF7B8FC5148524D524E0AF0DC
:105FC00073FD52480AF070FDCDE901442B6800933F
:105FD0004F4B50491B6850484FF01002FFF7B7FC79
:105FE0004E4B029401932B6800934D4B4D491B6817
:105FF0004D484FF00402FFF7AAFCCDE901442B689D
:1060000000934A4B4A491B684A484FF01002FFF779
:106010009EFCCDE901442B680093474B47491B6820
:106020004748484D4FF01002FFF791FC464808F0F2
:1060300006FA464B0E930EAA234643F6982144488F
:1060400011961095FEF708FA0EA8FEF7C7F9414B16
:106050000E930EAA234639463F48CDE91056FEF767
:10606000FBF90EA8FEF7BAF93C4B0E930EAA234695
:1060700040F6C4113A48CDE91056FEF7EDF90EA8E6
:10608000FEF7ACF9374B0E930EAA234643F6982140
:106090003548CDE91056FEF7DFF90EA8FEF79EF958
:1060A00022461421012007F00BFB01221421CDE927
:1060B000001203466FF07F412C4809F0E5FB13B056
:1060C000F0BD00BFC4DD03200000FFFFF4E00320AB
:1060D000B0DD032068DF032058DE0320E0610C0000
:1060E00034DF03204C620C00B4DE032080DE03208A
:1060F000E8DE032008620C00DC730C0034620C0044
:106100008CDD032074DB032035420B009CDD032073
:1061100084DB0320CA610C00E8E50320694A0B0018
:1061200080DB0320CD610C00ECE003207CDB03204E
:10613000D0610C00E0E0032078DB0320D4610C0088
:10614000E0DD032021420B00C8DD0320B9450B0030
:10615000F4E50320D1440B003CDE032075430B0023
:1061600018DF0320FD400B00B8E5032094E5032071
:1061700038B504460D46242200210DF089FCA560A7
:10618000EB79102B03D0202B06D0002038BD202324
:1061900001202370A070F9E74023F9E710B5044609
:1061A000243000F066FF28B104F50C70BDE8104003
:1061B00000F05FBF10BD8378016943F00403837072
:1061C00000F11002806801F00AB800002DE9F041EA
:1061D000017811F02005044603D000263046BDE8C2
:1061E000F0814269174B9A42F7D2FFF7E4FF064667
:1061F0000028F2D02169A06800F086FF0746A06859
:1062000005223946243000F05CFF80460028E4D0A7
:1062100029464FF400720DF03BFC0125A3681A7962
:10622000AA4209D918684246E91901F0B6FA0028CD
:10623000D3D00135EDB2F1E7636903EB422363612B
:10624000CCE700BF00FE1F0010B5044680680A4678
:106250002430A16900F035FF20B1A38803F00F03BB
:1062600000EB431010BD0023F0B50446451E082680
:1062700018462E2715F8012F202A18D0082B02BF08
:106280000F54421CD0B22A78A2F1410C08BF10264C
:10629000BCF1190F06D894F80CC016EA0C0F1CBFFD
:1062A0002032D2B200F1010C0A545FFA8CF00133B3
:1062B000DBB20B2BDED100230B54F0BD03780BB9FE
:1062C000FFF756BF002070472DE9F74F03780446CB
:1062D00088461546002B5DD08278D1075AD51A071B
:1062E0002DD5C36942699B1A9D4228BF1D462E4683
:1062F0004FF0000904F1100B002E00F08F8022787F
:106300006369A0689706C3F3080A4FEA53211FD5B3
:10631000006A0144A068BAF1000F42D1B6F5007FCF
:106320003FD3C36A99423CD0B6F5806F52D2006821
:10633000424601F0A9F968B34FF4007744E09B06A8
:10634000D5D583681A894369C3EB42139BB2CBE767
:1063500090F8059009EA0109BAF1000F08D1B9F1E6
:10636000000F05D15BB951064CBF036A236A236154
:106370002169A06800F0C8FE09EB0001CAE72169A5
:106380005A4600F0C7FE002804DBF1D1237813F051
:10639000700F43D1637843F0020363704FF0FF3016
:1063A0003DE0CAF50077B7424FF0000200F124004B
:1063B00028BF374600F085FE0028EBD000EB0A012D
:1063C0003A4640460DF03CFB63693B44B844636188
:1063D000F61B91E7227892064FEA562A06D40279F4
:1063E000A2EB0902D2B2924528BF924699424FEAE7
:1063F0004A2708D2A06853460068424601F08CF94B
:106400000028E1D1C6E753448B42F3D924300191EF
:1064100000F02FFE01990028ECD1BBE7A81B03B0C8
:10642000BDE8F08F73B501220DF10701D0E90456E4
:106430000446FFF749FF01280ABF9DF807004FF007
:10644000FF30C4E9045602B070BD37B5436913F498
:10645000F07F0446C3F3431500D099B901220DF132
:1064600007012046FFF730FF40B2012802D000208C
:1064700003B030BD63691F33A0686361303000EB47
:106480004510F5E72033F7E72DE9F0410278076979
:1064900004460D4662B14069884202D019B92161B3
:1064A0006561012006E0160706D5E3698B420BD231
:1064B00027610020BDE8F081910605D5A3681B89FE
:1064C000B5EB431FECD9F3E7D4F808C09CF806609D
:1064D000431E06F109016E1ECB40CE40B34200D8E8
:1064E00098B953064CBFDCF82030236A236104F1CD
:1064F0001008002ED4D02169A068424600F00AFEA0
:10650000002806F1FF36F4DCD2E7F61AEFE7F8B51B
:106510000F4604461546002124221E460DF0B8FA07
:10652000B868A060A58005F00F053B6AE3606A01CA
:1065300000EB451595F83B301F0744D403F01703D3
:10654000237095F83B1011F0180F04BF43F00803B7
:1065500023709DF81830E37006F00303012B2CD054
:10656000022B28D07BBB71052DD40123A370A17809
:106570008B0704D52378DF0625D4DD0723D4B31198
:1065800023F07F0306F008052B430B43A370C36A77
:10659000A3618318B3F84420B3F84A1041EA0241DA
:1065A000720513D559B9A37843F00403A37073049B
:1065B00010D40120F8BD0323D8E70223D6E700F06A
:1065C00049FE0028EFD100202070F3E72162DB6C48
:1065D000E361ECE7E1692046FFF756FF0028E8D1C8
:1065E000F1E72DE9F347037807460D46924653BB82
:1065F0000B7813F0700F26D04C6914F01F0422D1D1
:10660000A04600212846D5F81490FFF71EFFD0B110
:106610000678C6B12E2E10D0E52E0ED0C37A1A07FA
:1066200013D464B900945346C9F34F12294638462F
:10663000FFF76DFF02B0BDE8F0870024E1E700F04E
:1066400071F94045EED00020F4E70F2BF5D1730629
:10665000D7D590F80D8006F01F04D2E738B503783F
:1066600004460BB9012038BD83785A0723D5012190
:10667000FFF7EAFD054628B9637843F0010363702C
:106680000020F0E70378E52BF6D023781B0744BF02
:10669000E369C361236A4383638C8382094B1B686C
:1066A0002BB100F11601183098472B8B6B82A37821
:1066B00023F00403A370A068FFF770FD0028DBD06F
:1066C000D0E700BF10E6032010B50446FFF7C6FF71
:1066D0000023237010BDF0B593B01F46002309932B
:1066E0000378019206460C4613B1002013B0F0BDAA
:1066F0000B7813F0700FF8D013782F2B12D1019A6A
:1067000013782F2B02D101320192F8E7A1681BB94F
:106710003046FFF7D3FDE9E709A8FFF729FD002878
:10672000E3D009AC019801AA03A900F08FF9002871
:10673000DBD0019B1B789BB1002303AA2146304686
:1067400000F0B6FA0028D0D035460FCD09AC0FC402
:106750000FCD0FC42B6823603046FFF7B5FFE0E78D
:106760003B4603AA2146304600F0A2FABEE70000ED
:106770002DE9F047037889461907044617465BD58B
:1067800083789A0758D51B0751D46369DB43BB4212
:1067900052D3B84604F1100A6669B8F1000F00F050
:1067A0009180A0684379C6F3080513EA56260ED1F6
:1067B0006DB92169002946D0524600F0ABFC002893
:1067C0003ADB04D12046FFF7F6FC002834D02169DB
:1067D000A06800F099FC3118A06815B9B8F5007FE1
:1067E0003FD2C5F50076464528BF4646002D36D136
:1067F0006269E3699A4234BF01220522243000F025
:1068000060FCC8B128443246494635440DF018F9B9
:10681000B5F5007F04D1A068243000F02AFC58B1FF
:10682000636933446361B144A8EB0608B4E7C16906
:10683000FFF72AFE0028A8D1637843F001036370B4
:106840004FF0FF3050E0236A3BB92046FFF7B3FC1E
:106850000028F1D023692362B9E72361B7E7012259
:10686000CCE7B8F5806FC26A1BD390F804C0ACEBDC
:106870000606F3B24FEA582E734528BF734691427D
:106880004FEA432607D31A448A4282BF4FF0FF32B1
:1068900080F82450C262A5684A46286800F0F3FFD9
:1068A000BDE7914202BF4FF0FF3380F82450C3622E
:1068B000A3684A46186800F070FF0028BCD04FF467
:1068C0000076ADE7E269A378B24204D2E66143F014
:1068D0000403A37003E0084A1268002AF7D194F970
:1068E0000230002B02DB3846BDE8F0872046FFF778
:1068F000B5FE0028F7D19FE710E60320042904D84D
:1069000000EB4100B0F8010070470A299BBF01F17C
:10691000FF3100EB41000131C08884BF00EB410032
:1069200080887047411E00F10A030020420842EAB5
:10693000C01011F8012F52FA80F08B42C0B2F5D18D
:10694000704738B5CB6804460D4623B9BDE83840DA
:106950008968FFF7B3BC242200210DF099F81023B9
:1069600001202370A070AB68A360EB68236238BD80
:106970002DE9F04F8DB003784FF0000906460F4621
:106980009046CDF80C90002B5DD00C2A5BD9C378D3
:1069900033B900F057FB044620460DB0BDE8F08F38
:1069A000014603A8FFF7CDFF00284CD007EB0803F2
:1069B0004FF0010B4FF00D0A0093F3785FFA8BF55F
:1069C000AB4240D3B188A1EB0B01490103A8FFF70B
:1069D0005BFD0446002836D0002103A8FFF735FDF3
:1069E000034680B3C27A0F2A2DD1027802F01F022B
:1069F000AA4228D10BF1FF350AFB05F57A190021CF
:106A000018460191FFF77AFF68B1A84512D901999C
:106A100001317F28C9B228BF3F200D2902F8010BA0
:106A200005F10105ECD1A84504D91A78520648BFF2
:106A300007F80590009A02F8019C1B785B060BF1A1
:106A4000010BBAD5A8E700243C70A5E72DE9F04773
:106A5000064610F8013B202BFAD06A4D8E600024C8
:106A6000335DC3B12F2B16D05C2B02D10020BDE8C3
:106A7000F087A3F12200C0B21D2803D825FA00F048
:106A8000C007F3D403F0BF003C28EFD0203B5E2BBF
:106A9000ECD80134E4E733191846074610F8015BD7
:106AA000202DFAD02F2DF8D017604CB113F8012DFE
:106AB0002E2A01D0202A01D1013CF6E7FF2CD5DC9B
:106AC0004FF02033C1F811304C60C1F80D304B61EC
:106AD0004FF0000816F808302E2B01D0202B02D1E1
:106AE00008F10108F6E7B8FA88F04009651E6B1C4A
:106AF00002D0735D2E2B14D14FF0000907274A46B0
:106B0000CA464FF0080EA04568DA16F80830202B68
:106B100003D02E2B07D1A84512D0002008F1010880
:106B2000F1E7013DE3E7222B08D07C2B06D0A3F14F
:106B30002A0CBCF1050F0AD82D2B12D0A8455BD129
:106B40000A2F4AD00A2708224FF0100EE6E7A3F1D9
:106B50003A0CBCF1050FF1D9A3F15B0CBCF1020FAB
:106B6000ECD9A3F1210CBCF15D0FE7D8A845E7D023
:106B7000BA4230D8A3F1610CBCF1190F1AD8203BEE
:106B80004EEA0909DBB25FFA89F902F1010C5FFAFA
:106B90008CFC0A44BCF1060F537301D881F80CC079
:106BA0006246BBE7A84518DCA8460A2708224FF032
:106BB000100EB2E7A3F1410CBCF1190F98BF4EEAD9
:106BC0000A0AE2E70B7B0120087019447E234B730D
:106BD00031238B734BE70A2FE4D100204B7B202B12
:106BE0003FF444AF0028EDD01AEA090F18BF4FF068
:106BF000020981F800903AE7BA42ECD800205F23FE
:106C0000C3E700BF010100312DE9F84391F80C9072
:106C100006460C4602257E2701F10D086168A26830
:106C20006B189BB21144914206D012F8010B03EB92
:106C3000431343409BB2F6E7B9F1030F28BF4FF06F
:106C4000030909F10402D2B203F00F01A018013ABE
:106C50000929D2B294BF30313731914541734FEA9F
:106C60001313F1D104EB090300215F733046FFF7E2
:106C70000BFC01213046FFF7E8FB014628B970788C
:106C8000B0FA80F04009BDE8F88303786BB1C37AAD
:106C90001B07EED40B2240460CF0C2FE0028E8D1C0
:106CA0000135ADB2642DB9D1EDE70120EBE700006D
:106CB0002DE9F04F2DED028B8BB00D4606930B782E
:106CC000079013F0700F174605D100200BB0BDECF4
:106CD000028BBDE8F08F079B1B78002BF5D1536822
:106CE000059313789C071FBF059B0C330D22B3FB44
:106CF000F2F31ABF0133DBB20123002128460393CC
:106D0000FFF7C2FB07F10D034FF0000B08EE103A3E
:106D1000DA465C465E46CDF810B0D9466B69012173
:106D20002846C3F34F18FFF790FB0346002871D1A4
:106D30006B78002BC9D1069B9A05C6D503F00303D7
:106D4000013B012BC1D8049B002C08BF4346049390
:106D5000039B9C42C0F0F180B9F1000F40F00A8122
:106D6000049B28465901FFF78FFB0028ADD0039BF9
:106D700003F1FF395FFA89F94E464FF0000A4FF0F0
:106D80000F08002E00F00D8100212846FFF75DFB63
:106D90000446002899D0AA6892F824304E4543F062
:106DA00001030CBF46F0400BB34682F8243080F854
:106DB00000B080F80B8080F80CA007F10D00FFF701
:106DC000B1FD84F81AA0607384F81BA00BF01F03B8
:106DD0000D22013BD7F808C0534300220599994280
:106DE00040F2D0801CF80310042A5FFA82FE02F100
:106DF000010000F2CD8004EB4202A2F801100D2840
:106E000003F101030246E9D1013EF6B2B9E74FF0C2
:106E1000010983E70278E52A00D07AB90499002CA9
:106E200008BF4146049103998C423CBF0134E4B24F
:106E3000002A80D0E52A05D100266FE703998C420D
:106E400038BF00242E2AF7D0D97A0F294AD116BB91
:106E500012F040063FF462AF02F01F0693F80DB047
:106E6000B2460D220AF1FF3802FB08F8059A4245A6
:106E7000E2D9A2EB08020892002202EB0801099174
:106E80001846D1B2FFF73AFD08998A420DD1002881
:106E900018BF002642E70AF1FF3A5FFA8AFA524524
:106EA000CAD15A7B5A45DCD0C6E7FF28C4D85FFA5E
:106EB00080FEAEF141011929B9689CBF0EF1200096
:106EC0005FFA80FE08460999415CA1F1410CBCF1D2
:106ED000190F9CBF2031C9B27145ADD101320D2AC5
:106EE000CBD11BE70807A7D45EB1BAF1010F7FF43D
:106EF000ECAE1846FFF716FD58457FF4E6AEB146F6
:106F00000EE018EE101A0B2218460CF089FD00282E
:106F10007FF404AF97F8009019F001097FF477AF80
:106F2000069B19053FF5D1AE069B0798CDF800905A
:106F300042462946FFF7EBFAC8E600212846FFF74C
:106F400084FAA0B96B78002B7FF4BFAE2846FFF718
:106F50003DF900283FF4B9AEAB681B79012B3FF631
:106F6000FBAE039B1034E4B2A342EFD8F4E6013445
:106F7000E4B2EDE639462846FFF746FE00287FF4E6
:106F8000EFAEA2E614BF4FF0FF31002189B22BE72C
:106F9000BEF10A0F94BF04EB420204EB4002918061
:106FA0002DE731462846D5F81480FFF74EFA0446FF
:106FB00000283FF48AAE202231460CF069FDD7F854
:106FC0000D302360D7F811306360B7F81530238196
:106FD000FB7DA3723B7803F0180323730F4B1B68F0
:106FE0009BB104F10E0104F110009847238A6382DB
:106FF0002383E389E382AA6892F8243043F00103F3
:10700000C8F34F1882F824308EE7212323742823F5
:1070100063740823A673E373E8E700BF10E6032058
:1070200013B50446084659B101910CF0BCFD236824
:107030000199DB680246204602B0BDE810401847BF
:1070400002B010BD10B50C46017809B9002010BD82
:1070500011F0600105D02F232370002363700120FD
:10706000F5E7FFF7F1F80028F0D02146FFF7FBF82D
:10707000F5E737B50378DA07044620D54368816819
:1070800000F10C021868019200F087FB019A054696
:1070900018B90025284603B030BD23789B0704D4D7
:1070A000237823F001032370F4E7D4E90130196950
:1070B0000144186800F071FB0028F1D1E9E70125CF
:1070C000E8E770B583688B4204460E46154609D042
:1070D000FFF7CFFF08B9002070BD6B070AD500236A
:1070E0002370A660227805F003052046154300F8BA
:1070F0000C5BF1E7636804F10C021868314600F09C
:10710000C3FA0028EBD1E6E7837940690239994058
:1071100008447047012970B505460C46164602D84A
:107120004FF0FF3070BDC3698B42F9D3C379202B78
:1071300016D18169022201EBD41100F50C70FFF722
:10714000C0FF0028ECD004F07F0450F8243023F076
:107150007043EA699A4226BF336001200020E1E7CC
:10716000102BDDD1C1F3072381690222194400F5F8
:107170000C70FFF7A6FF0028D2D0E4B230F814302C
:10718000E7E7012938B50C46154601D8002038BD7F
:10719000C3698B42FAD3C379202B0FD181690322B3
:1071A00001EBD41100F50C70FFF78BFF0028EDD038
:1071B00004F07F0440F824500120E8E7102BE5D1CB
:1071C000C1F3072381690322194400F50C70FFF70E
:1071D00078FF0028DAD0E4B220F81450ECE72DE96B
:1071E000F341C4688C4205460E46904601D3012700
:1071F00001E00C460027EB690134A34202D2C7B973
:10720000EC68F4E7A64214D001AA21462846FFF70D
:1072100081FF00280DDBEED0019B002BEBD107B1E5
:10722000EC606FF0704221462846FFF7AAFF074640
:1072300020B90027384602B0BDE8F08116B9C8F879
:107240000040F7E7224631462846FFF79AFF00281C
:10725000F5D1EEE773B505460C4601AA214628464E
:10726000FFF758FF061E10DB002221462846FFF7D5
:1072700088FF50B1EB68A34224BF04F1FF34EC60F7
:10728000019C002EE9D102B070BD0020FBE7012374
:1072900070B50022C3604FF0FF330446C27100F1A5
:1072A0002406806280F82420C362C0F8340280F88B
:1072B0003022C0F838320D46B9B1042901D9002076
:1072C00070BD11463046FFF7FCFE0028F7D000EBFA
:1072D000051393F8AE315B06F1D105F11B0100EB0C
:1072E0000110D0F80650002DE9D000222946304682
:1072F000FFF7E7FE0028E2D0B0F80B30B3F5007FCF
:10730000DDD1037C022BDAD1C389002BD7D0417B9E
:1073100021714B1E63710023A37109260123994239
:1073200007D0013ECBD0A2795B000132DBB2A27163
:10733000F5E7C18A01B9416A2161C3892B44A36180
:10734000B0F81120228103EB41032362B0F8111041
:10735000490101F2FF1103EB51236361B0F81320DF
:1073600002B9026AE91AA3791144D9404B1CE361BE
:1073700040F6F473994202D80C23E3719FE74FF66D
:10738000F473994285BFC36A236210232023E371FB
:10739000012095E700F0CABA00F0ADBA70B50E4E04
:1073A0000D46144605F05AFF3368C01A0B4B98423D
:1073B00008D905F05BFF0A4B186006F09DF905F04F
:1073C0004DFF306005F052FF80B2401BA042D4BF99
:1073D0000020012070BD00BF18E60320A086010038
:1073E00028E7032038B5057A04464DB9406800F017
:1073F0006BFA63682946187D0AF075F80123237239
:1074000038BD10B5037A04466BB143680121187D7D
:107410000AF069F86068FF21FFF7BCFF606800F0C0
:1074200067FA0023237210BDF8B504460D461646D0
:1074300005F01CFF87B26068FFF7AEFFFF2860729F
:107440000ED14FF47A7239462046FFF7A7FF002885
:10745000F1D0552320462370FFF7D3FF0020F8BD5D
:10746000FE2801D05023F5E760683246294600F037
:1074700047FA607208B16023ECE76068FFF78CFFA1
:107480006068FFF789FF0120E9E770B504460E4602
:1074900005F0ECFE85B2324629462046FFF77EFF16
:1074A00030B96068FFF778FFFF28F4D1012070BD84
:1074B0000020FCE7F7B5037A019204460D460BB9AC
:1074C000FFF790FF25B14FF496712046FFF7DDFFDF
:1074D000606845F04001FFF75DFF032601AFB95D2D
:1074E0006068FFF757FF013EF9D2002D60680CBFBE
:1074F00095218721FFF74EFF6068FFF74DFF0B25B1
:107500006068FFF749FF0306607203D5013D15F07F
:10751000FF05F5D103B0F0BD70B504460D46164623
:1075200037210022FFF7C6FF324629462046BDE834
:107530007040FFF7BFBF00002DE9F0410025057244
:10754000057085724160044690461E4605F08EFE29
:1075500041460746606800F0BBF96368494A1D72FE
:107560000125DA601D822046FFF73CFF636829464B
:10757000187D09F0B8FF0A256068FF21013DFFF77B
:1075800009FF15F0FF05F7D163682946187D09F05A
:10759000AAFF0A25002211462046FFF78BFF01288B
:1075A000804618D0013D15F0FF0507D12023204665
:1075B0002370FFF726FF0020BDE8F0816068FD2101
:1075C000FFF7E8FE4FF402786068FFF7E5FEB8F1D8
:1075D0000108F9D1DEE74FF4D57208212046FFF704
:1075E00069FF052814D184F80A800025BFB22A4615
:1075F00029212046FFF790FF0246D8B14FF4FA62E6
:1076000039462046FFF7CAFE0028F0D04323CEE7D4
:1076100004256068FFF7C0FE013D15F0FF056072AC
:10762000F7D1AA2804D10223A3724FF08045DDE7E9
:107630002523BCE7A37A022B18D13A212046FFF775
:1076400039FF08B13723B2E76068FFF7A5FE00F005
:10765000C000C02804BF0323A3726068FFF79CFE2C
:107660006068FFF799FE6068FFF796FE2046FFF717
:10767000C8FE63683079B168B2891A821872D9601D
:10768000012099E790D0030038B5837A032B18BF07
:10769000490215460A4611210446FFF70BFF30B197
:1076A000302323702046FFF7ACFE00250BE029466F
:1076B0004FF400722046FFF7B7FE05460028F1D0D0
:1076C0002046FFF79EFE284638BD10B5837A032B6F
:1076D0000A4618BF4A0212210446FFF7EBFE30B1FA
:1076E000312320462370FFF78CFE002010BD0120BF
:1076F000FCE710B500220C210446FFF7DBFE30B199
:10770000282320462370FFF77CFE002010BD204672
:10771000FFF777FE0120F9E7F8B5044616461F4645
:10772000FFF7D3FF68B10025ABB29F4206EB4521BE
:1077300009D94FF400722046FFF776FE0135002884
:10774000F2D10020F8BD2046BDE8F840FFF7D1BFD8
:1077500038B5044615464068FFF71CFE4FF400722A
:107760006068294600F0E6F86068FF21FFF712FE26
:107770006068FF21FFF70EFE6068FFF70DFE607284
:1077800000F01F00052806D0572320462370FFF77E
:1077900038FE002038BD0120FCE770B5837A032B4A
:1077A00018BF490215460A4618210446FFF782FE13
:1077B000064630B1322323702046FFF722FE002513
:1077C0001FE02A46FE212046FFF7C2FF0028F3D023
:1077D0004FF4FA612046FFF758FE054608B95A23D0
:1077E000E9E732460D212046FFF764FE08B1292360
:1077F000E1E76068FFF7D0FD0028F8D12046FFF7E9
:1078000000FE284670BD13B501914FF4FA6104469D
:10781000FFF73BFE019A30B95B2323702046FFF748
:10782000F0FD002005E0FC212046FFF791FF002835
:10783000F4D002B010BD10B5837A032B0A4618BFEE
:107840004A0219210446FFF735FE30B133232046A2
:107850002370FFF7D6FD002010BD0120FCE738B5EE
:107860004FF4FA610446FFF710FE054630B956237F
:1078700023702046FFF7C5FD284638BD6068FD210E
:10788000FFF788FDF5E7F8B5044616461F46FFF7F3
:10789000D2FF70B10025BD4206EB4521204604D041
:1078A000FFF7B1FF28B10135F5E7BDE8F840FFF774
:1078B000D6BF2046FFF7A5FD0020F8BD014B0122F1
:1078C0001A7070471CE60320011D006809F080B99A
:1078D00010B504460175006809F035F9207D0121D5
:1078E00009F0F0FD207D0121BDE8104009F0FBBD4D
:1078F000006809F053B90068FF2109F009BA0000D7
:1079000037B51346074A00920025074C00682570DA
:107910000A46294609F002FA2378002BFCD0002001
:1079200003B030BDBD780B001CE60320006809F0F1
:10793000EFB9000037B51346064A00920025064C01
:10794000006825702A4609F0E9F92378002BFCD05D
:1079500003B030BDBD780B001CE6032070477047B4
:1079600038B50C4605462022002104F108000CF031
:107970008FF809490B2220460CF044F90123E360FB
:107980006B6A236102236361044BE361044BA361CF
:10799000044B236238BD00BF44630C000000C8C420
:1079A0000000C8448FC2753C10B528210446FCF77E
:1079B00078FB204610BD0000034A02600022C0E9A7
:1079C00007220276704700BF64630C0030B50123C4
:1079D0008DB00022CDE9022306252822CDE900251D
:1079E0000446D0E9071206A805F07CF82A4604A947
:1079F00006A805F0F5F8257EBDF91010BDF9122096
:107A0000BDF91430E180032D98BF1248228107EEA2
:107A1000101A9CBF00EB8500D0ED007A6381B8EEB0
:107A2000C77A88BFF7EE007AC7EE276A07EE102AFA
:107A3000B8EEC77AC4ED036AC7EE276A07EE103ABC
:107A4000B8EEC77AC4ED046AC7EE276AC4ED056ACA
:107A50000DB030BD4C630C0038B50C4605462022F5
:107A60000021201D0CF014F8242323606B6A63604E
:107A70000223A36005F0FAFB20612846FFF7A6FF6A
:107A8000D5ED037A9FED097A67EE877A0120C4ED80
:107A9000057AD5ED047A67EE877AC4ED067AD5EDDE
:107AA000057A67EE877AC4ED077A38BD0000C842D0
:107AB000F0B5012595B00027CDE90275202300938C
:107AC00001950E460446D0E907122B4608A805F09A
:107AD00009F80523022208A904A805F0DFF83146B9
:107AE00004A805F0EDF82323D4E907120093CDE9AB
:107AF00002752B4601950EA804F0F4FF02231A46E6
:107B00000EA906A805F0CAF8314606A805F0D8F86F
:107B100015B0F0BD70B501298CB006460C4603D1F6
:107B20000321FFF7C5FF09E0032903D0052903D18D
:107B30000121F6E70221F4E707291BD00A2005F00E
:107B4000DFFE01250023CDE902352023D6E9071207
:107B5000009301952B4606A804F0C4FF2B4604228F
:107B600006A904A805F09AF8214604A805F0A8F88B
:107B70000CB070BD0021D4E730B501238DB00025D5
:107B8000CDE902532222019300920C46D0E907125C
:107B900006A804F0A7FF2B46022206A904A805F0B8
:107BA0007DF8214604A805F08BF80DB030BD30B546
:107BB00001238DB00022CDE90223212201930092FE
:107BC0000D460446D0E9071206A804F08BFF0523F2
:107BD000022206A904A805F061F8294604A805F0C8
:107BE0006FF825760DB030BD10B501238CB00022A2
:107BF000CDE90223212201930092D0E90712044625
:107C000006A804F06FFF0523022206A904A805F0C8
:107C100045F804A805F047F8C0B220760CB010BDB6
:107C200030B500238DB00125CDE902352123009325
:107C30000195D0E9071204462B4606A804F052FF2E
:107C400002232A4606A904A805F028F8294604A814
:107C500005F036F80A2005F053FE2046FFF7C4FF72
:107C60000DB030BD70B501268AB00025CDE90256B1
:107C70000F2300930196D0E907123346044604A867
:107C800004F030FF04A804F0EDFF3D2815D1204694
:107C9000FFF7C6FF03212046FFF70AFF31462046C3
:107CA000FFF738FF29462046FFF781FF2046294687
:107CB000FFF762FF30460AB070BD2846FBE737B5D4
:107CC000C36904465BB91020CDE90012FCF7E3F963
:107CD000054618B1DDE9001205F00BF8E561002357
:107CE000E0692362012105F020F828B1204603B0A5
:107CF000BDE83040FFF7B6BF03B030BD30B501235B
:107D00008BB00C46002532220221CDE90253CDE989
:107D10000021D0E9071204A804F0E4FE2A46C4F3C7
:107D20000E0104A804F03EFF0BB030BD30B58BB09F
:107D300000259DF83C40640044EAC1119DF838409C
:107D400041EA840141EA431343EA82129DF840402C
:107D5000012342F00802CDE90253D2B2144330228B
:107D600001930092D0E9071204A804F0BBFE2A4652
:107D7000214604A804F016FF0BB030BD10B5421820
:107D8000405C937854781B0443EA04230343D0787F
:107D900043EA006010BD4318405C5A7840EA022074
:107DA000704710B42AB902685DF8044B9268C9B2F2
:107DB00010475DF8044BD2B208F0E7BD12B9036872
:107DC0009B681847D2B208F0E0BD10B50446FFF733
:107DD000F5FF2046BDE8104008F0BFBD0368C9B2FA
:107DE0009B6818474FF4005202804221002210B5D0
:107DF000C0E90122C0E90322C0E90522C0E9072247
:107E0000C0E90922C0E90B22C0E90D22C0E90F2216
:107E1000C0E91122C0E91322C0E91522C0E91722E6
:107E2000C0E91922C0E91B22C0E91D22C0E91F22B6
:107E3000C0F8E810802180F8091100F1F401C0F8C1
:107E400014112549C0F8C42000F1F604C0E9461217
:107E5000C0E92122C0E92322C0E92522C0E9272266
:107E6000C0E92922C0E92B22C0E92D22C0E92F2236
:107E7000C0E93E22C0E94022C0E94322C0F8D02038
:107E8000C0F8D82080F80821C0F82021C0E9494175
:107E9000C0E94D21C0E951211049C0F84C1140F60C
:107EA0006411A0F85011582180F85D110121C0E93A
:107EB0004B22C0E94F22C0F8542180F86421C0F859
:107EC0006821A0F86C21C0F8EC20C0F8F010A0F8F0
:107ED0007221A0F8742110BD000002020002646447
:107EE000F8B504460D46D0F8FC00A9B9A8B1FCF7D6
:107EF000D6F894F8E930C4F8FC50C4F83451C4F80A
:107F0000F85013B994F8EA3023B12049D4F8D400DA
:107F100008F039FD012011E0B8B92846FCF7BDF89A
:107F2000C4F8FC00C4F8340160BB94F8E930C4F82C
:107F3000F80023B994F8EA300BB90020F8BD1449D1
:107F4000D4F8D40008F01FFDF7E70846FCF7A5F8C1
:107F5000064640B994F8E9301BB994F8EA30002B92
:107F6000EBD00C49ECE7D4E93E27AA4228BF2A46C9
:107F700039460BF065FD3846FCF791F8C4F8FC6013
:107F8000C4F83461C4F8F850C4E700BF78630C004B
:107F9000A3630C00CE630C000D2900F0CD8009D83E
:107FA000022900F0A780062900F0BE80012916D022
:107FB00000207047132900F0D480282900F0DC80CD
:107FC0001029F5D1102A00F0C98000F2BA80022AE7
:107FD00000F0C180032AEBD1D0F8880066E0262AA1
:107FE00054D8002AE4D0013A252AE1D801A353F855
:107FF00022F000BFAB800B00B17F0B00B5800B00FF
:10800000B9800B00BD800B00B17F0B00C1800B005D
:10801000B17F0B00C5800B00B17F0B00B17F0B005F
:10802000B17F0B00B17F0B00B17F0B00B17F0B0064
:10803000B17F0B00C9800B00CD800B00D1800B00FD
:10804000D5800B00B17F0B00B17F0B00D9800B00F6
:10805000B17F0B00B17F0B00B17F0B00B17F0B0034
:10806000B17F0B00B17F0B00B17F0B00B17F0B0024
:10807000B17F0B00DD800B00E1800B00B17F0B00B6
:10808000B17F0B00B17F0B00E5800B003C2A2DD0A7
:1080900005D8352A28D03B2A8AD1806C06E0602A90
:1080A00026D0612A84D1806900E0C068003818BFFA
:1080B000012070470069F9E74069F7E7C069F5E713
:1080C000006AF3E7406AF1E7C06AEFE7006BEDE7AB
:1080D000406BEBE7806BE9E7C06BE7E7806AE5E7B9
:1080E000006CE3E7406CE1E7C06CDFE7006DDDE7C3
:1080F000406DDBE7342A15D006D8132A0BD0152A99
:108100007FF456AFC06ED1E7722A06D0732A7FF48F
:108110004FAF006ECAE7806EC8E7836D002B3BD17E
:10812000C06DC3E7406EC1E722B1082A7FF440AFBB
:10813000406FBBE7006FB9E7032A7FF439AF806F68
:10814000B4E7142A05D0152A7FF432AFD0F88000A6
:10815000ACE7C06FAAE7D0F88400A7E7D0F88C009E
:10816000A4E7602A05D0802A7FF422AFD0F8A000CF
:108170009CE7D0F89C0099E7012A07D0022A08D092
:10818000002A7FF415AFD0F890008FE7D0F8940064
:108190008CE7D0F8980089E7012070470D2935D089
:1081A00007D8022919D006292AD001290DD000208C
:1081B000704713292FD0282934D01029F7D1023A3B
:1081C000D2B2132AF3D81F4B04E0013AD2B2602A8C
:1081D000EDD81D4B33F812007047342A27D007D84A
:1081E000132A26D0152A14BF00204FF43960704797
:1081F000722A20D0732A14BF00204FF48470704775
:10820000E2B1082A14BF002006207047032A14BFD9
:1082100000201C207047602A12D0802A14BF002042
:10822000A4207047022AC2D8084B985C70470C20E3
:108230007047482070474FF404707047142070470F
:108240000820704766700C00A46F0C008E700C0044
:1082500010B590F8EC10CA0715D4D0F86021594B2E
:1082600022F0FF029A4201D18B070CD490F86131C1
:10827000472B74D1B0F8623145F24114A34204D1C6
:1082800011F0040F6BD0012070E045F24214A342BC
:1082900002D111F0080FF5E745F24234A34202D1B2
:1082A00011F0100FEEE744F24714A34202D111F08F
:1082B000200FE7E744F64C44A34202D111F0400FEF
:1082C000E0E745F24C14A34202D111F0800FD9E748
:1082D00045F24E118B4204D190F8ED3013F0010FAE
:1082E000D0E745F24E318B4204D190F8ED3013F0D7
:1082F000020FC7E745F250118B4204D190F8ED30E0
:1083000013F0040FBEE745F251118B4204D190F8EF
:10831000ED3013F0080FB5E745F252318B4204D12E
:1083200090F8ED3013F0100FACE744F253118B428C
:1083300004D190F8ED3013F0200FA3E745F253413C
:108340008B4204D190F8ED3013F0400F9AE745F2DC
:1083500053618B4203D190F9ED30002B93DB1A4B24
:108360009A4204D190F8EE0000F0010010BD174BC6
:108370009A4204D190F8EE00C0F34000F6E7144BA7
:108380009A4204D190F8EE00C0F38000EEE7114B62
:108390009A4204D190F8EE00C0F3C000E6E70E4B1D
:1083A0009A4204D190F8EE00C0F30010DEE70B4BC8
:1083B0009A4204D190F8EE00C0F34010D6E70020B6
:1083C000D4E700BF0044544D00524C4D00524D4381
:1083D0000054585400564C5700565447005A4441D4
:1083E00090F85E312A2B57D190F85F31472B53D14B
:1083F000D0F86031294A23F0FF03934211D090F85E
:108400006121472A1AD1B0F86221A2F5A24141396F
:1084100089B2102907D922F0100145F24230814279
:1084200029D1012070471E4820FA01F1C907F8D46C
:1084300022F4007245F253418A42F2D0194A934223
:10844000EFD002F1764202F580329342E9D0164A2B
:108450009342E6D002F1022202F574029342E0D088
:1084600002F1704202F500229342DAD00F481B1A43
:1084700058425841704744F247118A42D1D044F6DD
:108480004C418A42CDD045F24E318A42C9D044F2A5
:1084900053118A42C5D0CBE7002070470044544DA9
:1084A00003A8010000524C4D00545854005A444156
:1084B00010B590F8F010CA0715D4D0F86021594BC8
:1084C00022F0FF029A4201D18B070CD490F861315F
:1084D000472B74D1B0F8623145F24114A34204D164
:1084E00011F0040F6BD0012070E045F24214A3425A
:1084F00002D111F0080FF5E745F24234A34202D150
:1085000011F0100FEEE744F24714A34202D111F02C
:10851000200FE7E744F64C44A34202D111F0400F8C
:10852000E0E745F24C14A34202D111F0800FD9E7E5
:1085300045F24E118B4204D190F8F13013F0010F47
:10854000D0E745F24E318B4204D190F8F13013F070
:10855000020FC7E745F250118B4204D190F8F13079
:1085600013F0040FBEE745F251118B4204D190F88D
:10857000F13013F0080FB5E745F252318B4204D1C8
:1085800090F8F13013F0100FACE744F253118B4226
:1085900004D190F8F13013F0200FA3E745F25341D6
:1085A0008B4204D190F8F13013F0400F9AE745F276
:1085B00053618B4203D190F9F130002B93DB1A4BBE
:1085C0009A4204D190F8F20000F0010010BD174B60
:1085D0009A4204D190F8F200C0F34000F6E7144B41
:1085E0009A4204D190F8F200C0F38000EEE7114BFC
:1085F0009A4204D190F8F200C0F3C000E6E70E4BB7
:108600009A4204D190F8F200C0F30010DEE70B4B61
:108610009A4204D190F8F200C0F34010D6E700204F
:10862000D4E700BF0044544D00524C4D00524D431E
:108630000054585400564C5700565447005A444171
:10864000D0F8D00010B103689B681847704700004D
:1086500037B53D4B044604F25F15186800909B88BF
:10866000ADF804300522294668460BF0D9F928B93F
:10867000D4F8A43013B1012003B030BD33496846AB
:108680000BF06CFA0522294668460BF0C9F918B9B7
:10869000D4F8A830002BEED12D4968460BF05EFAD5
:1086A0000522294668460BF0BBF918B9D4F8AC305E
:1086B000002BE0D1274968460BF050FA05222946E5
:1086C00068460BF0ADF918B9D4F8B030002BD2D110
:1086D000214968460BF042FA0522294668460BF00C
:1086E0009FF918B9D4F8B430002BC4D11B4968469F
:1086F0000BF034FA0522294668460BF091F918B9B7
:10870000D4F8B830002BB6D1154968460BF026FADC
:108710000522294668460BF083F918B9D4F8BC3015
:10872000002BA8D10F4968460BF018FA05222946FC
:1087300068460BF075F928B9D4F8C000003818BFA6
:10874000012099E7002097E724640C00FA630C00ED
:1087500000640C0006640C000C640C0012640C0035
:1087600018640C001E640C0037B5624B044604F21A
:108770005F15186800909B88ADF8043005222946E3
:1087800068460BF04DF978B9D4F8A43063B1D3F84A
:10879000D4204AB1D3F8CC20002A40F0A380D3F8EB
:1087A000D030002B40F09E80534968460BF0D6F93C
:1087B0000522294668460BF033F978B9D4F8A83079
:1087C00063B1D3F8D4204AB1D3F8CC20002A40F0CA
:1087D0008980D3F8D030002B40F084804749684628
:1087E0000BF0BCF90522294668460BF019F968B967
:1087F000D4F8AC3053B1D3F8D4203AB1D3F8CC206C
:10880000002A6FD1D3F8D030002B6BD13C49684699
:108810000BF0A4F90522294668460BF001F968B966
:10882000D4F8B03053B1D3F8D4203AB1D3F8CC2037
:10883000002A57D1D3F8D030002B53D131496846A4
:108840000BF08CF90522294668460BF0E9F868B967
:10885000D4F8B43053B1D3F8D4203AB1D3F8CC2003
:10886000002A3FD1D3F8D030002B3BD126496846AF
:108870000BF074F90522294668460BF0D1F858B977
:10888000D4F8B83043B1D3F8D4202AB1D3F8CC20EF
:1088900042BBD3F8D0302BBB1C4968460BF05EF9C5
:1088A0000522294668460BF0BBF840B9D4F8BC3025
:1088B0002BB11A6F1AB19A6EA2B9DB6E93B9144933
:1088C00068460BF04BF90522294668460BF0A8F8DC
:1088D00058B9D4F8C03053B1186F20B19A6E0AB9A4
:1088E000D86E00B1012003B030BD0020FBE7184670
:1088F000F9E700BF24640C00FA630C0000640C006C
:1089000006640C000C640C0012640C0018640C006B
:108910001E640C0037B5384B044604F25F15186826
:1089200000909B88ADF804300522294668460BF07C
:1089300077F820B9D4F8A400013003B030BD2F4936
:1089400068460BF00BF90522294668460BF068F8DB
:1089500010B9D4F8A800EFE7294968460BF0FEF8F3
:108960000522294668460BF05BF810B9D4F8AC0034
:10897000E2E7244968460BF0F1F8052229466846EB
:108980000BF04EF810B9D4F8B000D5E71E49684690
:108990000BF0E4F80522294668460BF041F810B9BF
:1089A000D4F8B400C8E7194968460BF0D7F8052297
:1089B000294668460BF034F810B9D4F8B800BBE784
:1089C000134968460BF0CAF80522294668460BF0A1
:1089D00027F810B9D4F8BC00AEE70E4968460BF092
:1089E000BDF80522294668460BF01AF810B9D4F8EC
:1089F000C000A1E70020A0E724640C00FA630C008B
:108A000000640C0006640C000C640C0012640C0082
:108A100018640C001E640C0037B5384B044604F291
:108A20005F15186800909B88ADF804300522294630
:108A300068460AF0F5FF20B9D4F8A400023003B06C
:108A400030BD2F4968460BF089F805222946684653
:108A50000AF0E6FF10B9D4F8A800EFE72949684604
:108A60000BF07CF80522294668460AF0D9FF10B9B8
:108A7000D4F8AC00E2E7244968460BF06FF8052211
:108A8000294668460AF0CCFF10B9D4F8B000D5E703
:108A90001E4968460BF062F80522294668460AF02E
:108AA000BFFF10B9D4F8B400C8E7194968460BF005
:108AB00055F80522294668460AF0B2FF10B9D4F8E5
:108AC000B800BBE7134968460BF048F80522294671
:108AD00068460AF0A5FF10B9D4F8BC00AEE70E490D
:108AE00068460BF03BF80522294668460AF098FFD5
:108AF00010B9D4F8C000A1E70020A0E724640C005E
:108B0000FA630C0000640C0006640C000C640C009A
:108B100012640C0018640C001E640C0037B5394B4D
:108B2000044604F25F15186800909B88ADF8043085
:108B30000522294668460AF073FF20B9D4F8A4003C
:108B4000663003B030BD304968460BF007F80522A7
:108B5000294668460AF064FF10B9D4F8A800EFE788
:108B60002A4968460AF0FAFF0522294668460AF0B3
:108B700057FF10B9D4F8AC00E2E7254968460AF07F
:108B8000EDFF0522294668460AF04AFF10B9D4F8DD
:108B9000B000D5E71F4968460AF0E0FF05222946E4
:108BA00068460AF03DFF10B9D4F8B400C8E71A4986
:108BB00068460AF0D3FF0522294668460AF030FFCE
:108BC00010B9D4F8B800BBE7144968460AF0C6FFEC
:108BD0000522294668460AF023FF18B9D4F8BC00DC
:108BE0003430AEE70E4968460AF0B8FF0522294640
:108BF00068460AF015FF10B9D4F8C000F0E700206D
:108C00009FE700BF24640C00FA630C0000640C00B2
:108C100006640C000C640C0012640C0018640C0058
:108C20001E640C0037B5394B044604F25F15186812
:108C300000909B88ADF804300522294668460AF06A
:108C4000EFFE20B9D4F8A400673003B030BD30493E
:108C500068460AF083FF0522294668460AF0E0FECE
:108C600010B9D4F8A800EFE72A4968460AF076FF61
:108C70000522294668460AF0D3FE10B9D4F8AC00A4
:108C8000E2E7254968460AF069FF05222946684659
:108C90000AF0C6FE10B9D4F8B000D5E71F496846FF
:108CA0000AF05CFF0522294668460AF0B9FE10B9B1
:108CB000D4F8B400C8E71A4968460AF04FFF052205
:108CC000294668460AF0ACFE10B9D4F8B800BBE7F4
:108CD000144968460AF042FF0522294668460AF010
:108CE0009FFE18B9D4F8BC003530AEE70E4968468F
:108CF0000AF034FF0522294668460AF091FE10B9B1
:108D0000D4F8C000F0E700209FE700BF24640C0007
:108D1000FA630C0000640C0006640C000C640C0088
:108D200012640C0018640C001E640C0037B5394B3B
:108D3000044604F25F15186800909B88ADF8043073
:108D40000522294668460AF06BFE28B9D4F8A430FB
:108D5000D3F8D40003B030BD2F4968460AF0FEFEB8
:108D60000522294668460AF05BFE10B9D4F8A830FF
:108D7000EEE72A4968460AF0F1FE052229466846D0
:108D80000AF04EFE10B9D4F8AC30E1E72449684649
:108D90000AF0E4FE0522294668460AF041FE10B9B1
:108DA000D4F8B030D4E71F4968460AF0D7FE052250
:108DB000294668460AF034FE10B9D4F8B430C7E743
:108DC000194968460AF0CAFE0522294668460AF093
:108DD00027FE10B9D4F8B830BAE7144968460AF04B
:108DE000BDFE0522294668460AF01AFE18B9D4F8D5
:108DF000BC30186FAEE70E4968460AF0AFFE052298
:108E0000294668460AF00CFE10B9D4F8C030F0E7E5
:108E100000209FE724640C00FA630C0000640C003F
:108E200006640C000C640C0012640C0018640C0046
:108E30001E640C0037B53A4B044604F25F151868FF
:108E400000909B88ADF804300522294668460AF058
:108E5000E7FD30B9D4F8A430D3F8D400013003B022
:108E600030BD304968460AF079FE05222946684639
:108E70000AF0D6FD10B9D4F8A830EDE72A496846C3
:108E80000AF06CFE0522294668460AF0C9FD10B9B1
:108E9000D4F8AC30E0E7254968460AF05FFE0522C9
:108EA000294668460AF0BCFD10B9D4F8B030D3E7C3
:108EB0001F4968460AF052FE0522294668460AF014
:108EC000AFFD10B9D4F8B430C6E71A4968460AF0C5
:108ED00045FE0522294668460AF0A2FD10B9D4F8DD
:108EE000B830B9E7144968460AF038FE0522294629
:108EF00068460AF095FD18B9D4F8BC30186FADE794
:108F00000E4968460AF02AFE0522294668460AF0FC
:108F100087FD10B9D4F8C030F0E700209FE700BF0C
:108F200024640C00FA630C0000640C0006640C005E
:108F30000C640C0012640C0018640C001E640C001D
:108F400013B5304B044604F25F14186800909B88F8
:108F5000ADF804300522214668460AF061FD10B9DB
:108F6000642002B010BD284968460AF0F7FD0522CA
:108F7000214668460AF054FD0028F1D0234968468E
:108F80000AF0ECFD0522214668460AF049FD00285A
:108F9000E6D01F4968460AF0E1FD052221466846F1
:108FA0000AF03EFD0028DBD01A4968460AF0D6FDDB
:108FB0000522214668460AF033FD0028D0D0164924
:108FC00068460AF0CBFD0522214668460AF028FDD6
:108FD0000028C5D0114968460AF0C0FD0522214687
:108FE00068460AF01DFD48B10D4968460AF0B6FD15
:108FF0000522214668460AF013FD08B93220B0E781
:109000000020AEE724640C00FA630C0000640C003E
:1090100006640C000C640C0012640C0018640C0054
:109020001E640C0037B5384B044604F25F1518680F
:1090300000909B88ADF804300522294668460AF066
:10904000EFFC18B9D4F8A40003B030BD2F4968462E
:109050000AF084FD0522294668460AF0E1FC10B9B1
:10906000D4F8A800F0E72A4968460AF077FD0522FF
:10907000294668460AF0D4FC10B9D4F8AC00E3E7FE
:10908000244968460AF06AFD0522294668460AF026
:10909000C7FC10B9D4F8B000D6E71F4968460AF0FB
:1090A0005DFD0522294668460AF0BAFC10B9D4F8DD
:1090B000B400C9E7194968460AF050FD052229465F
:1090C00068460AF0ADFC10B9D4F8B800BCE7144902
:1090D00068460AF043FD0522294668460AF0A0FCCE
:1090E00010B9D4F8BC00AFE70E4968460AF036FD67
:1090F0000522294668460AF093FC10B9D4F8C0004E
:10910000A2E70020A0E700BF24640C00FA630C0073
:1091100000640C0006640C000C640C0012640C006B
:1091200018640C001E640C007047000038B51388EA
:109130000C4D012B14460ED10A0202F440722A8013
:1091400001332380FFF7F0FF20882B88984214BF5B
:109150000320002038BD022BF2D12A880A430632B0
:10916000EDE700BF1EE6032030B54A780D784C8845
:109170002A4454FA82F000EB142355FA82F203F0E9
:10918000FF0352FA80F20B7313444B73002293B225
:109190009C420AD98B68087B9B5C0344487BDBB20A
:1091A0000B7303444B730132F1E730BD90F85A3131
:1091B000194490F85B31C9B280F85A11194480F80B
:1091C0005B1170472DE9F74FB1F802B00BF1080BB6
:1091D0001FFA8BFB4FF00008ABF1020304460D466B
:1091E000DA46C1460093BAF1000F00F0A680667817
:1091F00094F8E810D4F8C800564528BF5646AAEBA4
:10920000060A1FFA8AFABAF1010F02BF06F1FF3609
:10921000B6B24FF0020A06F0CFF8B9F1000F5CD1F8
:10922000D4F8C8000368B5219B689847D4F8C800F3
:10923000036862219B689847D4F8C80029780368BE
:109240009B689847D4F8C800697803689B6898477A
:10925000A978D4F8C800FEF7C1FD6988D4F8C80021
:10926000090AFEF7BBFD4B466A88D4F8C8001FFA0E
:1092700083F909F106074A45BFB20DD9BE420BD9A1
:10928000AA680168019342448F68D15CB847019B8A
:109290000133E9E7B946A6E7023EC844B7421FFAE0
:1092A00088F80CD10368297B9B689847D4F8C800DC
:1092B000697B03689B68984709F10807BFB25F455F
:1092C000E8D294F87411D4F8C80006F07CF80028AD
:1092D000E0D00C2003B0BDE8F08F002291B219FA63
:1092E00082F78E42D4F8C800BFB210D9B5F802E0B8
:1092F00008EB020C531CF445019308DAA9680268D4
:1093000011F80C1092689047019B1A46E6E7009B03
:1093100088449F421FFA88F8D1D1023EB242CED192
:109320000368297B9B689847D4F8C800697B036869
:109330009B6898471FFA8BF7C1E7D4F8C80006F07E
:1093400046F80028C6D0C4E770B50546D0F8CC0072
:1093500003680C469B68B5219847D5F8CC00036894
:1093600062219B689847D5F8CC00217803689B68F8
:109370009847D5F8CC00617803689B689847D5F882
:10938000CC00A17803689B689847D5F8CC00618829
:109390000368090A9B6898470026D5F8CC006188C5
:1093A0000368B2B291429B6804D9A168895C98476E
:1093B0000136F2E7217B9847D5F8CC00617B036842
:1093C000BDE870409B68184710B50446D0F8DC0033
:1093D00007F09EFC94F8083194F809219A420BD9C1
:1093E000FF2801D122783AB1D4F80421D05494F85E
:1093F0000831013384F8083110BD00002DE9FF4128
:10940000D0F8043104460D467BB990F8E93023B911
:1094100090F8EA30002B00F0CA806649D4F8D400F6
:1094200004B0BDE8F04107F094BAD0F8E430624AE5
:1094300002930026012380F808616946D0F8DC0019
:10944000ADF80C3000928DF8046007F0C1FB94F881
:10945000E000314608F047F8B5212046FFF7B4FF99
:1094600062212046FFF7B0FF29782046FFF7ACFFC6
:1094700069782046FFF7A8FFA9782046FFF7A4FFE8
:1094800069882046090AFFF79FFF94F8E930002B0E
:1094900042D04A49D4F8D40007F05BFA1022D4F83D
:1094A000D400B521FEF78AFC4549D4F8D40007F072
:1094B00050FA1022D4F8D4006221FEF77FFC404914
:1094C000D4F8D40007F045FA10222978D4F8D40053
:1094D000FEF774FC3A49D4F8D40007F03AFA1022A7
:1094E0006978D4F8D400FEF769FC3549D4F8D40083
:1094F00007F02FFA1022A978D4F8D40007F045FA23
:109500002F49D4F8D40007F024FA6988D4F8D4009D
:109510001022090A07F039FADFF8A48000266A88C9
:10952000B3B29A4216D91F46AB682046D95DFFF701
:109530004BFF94F8E9305BB14146D4F8D40007F012
:1095400008FAAB68D4F8D400D95D1022FEF736FCD7
:109550000136E4E7297B2046FFF736FF697B20468A
:10956000FFF732FF94F8E000012107F0BCFFD4F8C8
:10957000DC0007F013FB94F8E930C3B11049D4F8CC
:10958000D40007F0E6F9297BD4F8D4001022FEF7C6
:1095900015FC0B49D4F8D40007F0DBF9697BD4F84B
:1095A000D400102204B0BDE8F041FEF70EBC04B0B8
:1095B000BDE8F0812A640C00E0610C005F640C00DF
:1095C00085730C00F8B590F8E93004460D46164650
:1095D000002B00F0828090F84C714049D0F8D40004
:1095E00007F0B7F92B78012B3CD13D49D4F8D400D2
:1095F00007F0AFF93B49D4F8D40007F0AAF92B885B
:1096000040F20172934245D13749D4F8D40007F0B3
:10961000A0F93649D4F8D40007F09BF96988D4F84A
:10962000D400102207F0B1F9012F01D1002E49D04A
:109630002F49D4F8D4002F4F07F08BF900266A8801
:10964000D4F8D400B3B29A4241D9394607F081F92F
:10965000B3B2A968D4F8D400C95C1022FEF7AEFBFF
:109660000136ECE7052BD4F8D40001D12249BFE73D
:10967000062B01D12149BBE70A2B01D12049B7E7CD
:10968000204907F066F92978D4F8D4001022FEF7B3
:1096900095FBAFE740F606029342D4F8D40001D11F
:1096A0001949B4E740F60612934201D11749AEE7D3
:1096B000144907F04EF96978D4F8D4001022FEF767
:1096C0007DFBA6E71249D4F8D40007F042F9D4F89C
:1096D000D400BDE8F84007F040B9F8BD70640C0054
:1096E00075640C0085640C008A640C0098640C009E
:1096F000A1640C0085730C0079640C007D640C007F
:1097000081640C00F6660C008E640C0093640C00FF
:10971000AB640C0038B5B0F86C51044655B990F8FC
:10972000E9300BB9002038BD1A49D4F8D40007F04D
:109730002AF9F7E7D0F868312BB190F8E930002B1F
:10974000F0D01549F1E72846FAF7A7FC94F8E9307C
:10975000C4F8680130B91BB994F8EA30002BE1D0A5
:109760000E49E2E77BB10E49D4F8D40007F0F1F8D6
:10977000D4F8D450B4F86C110A22284607F005F941
:10978000284607F0EAF80023A4F86E31A4F87031F7
:109790000120C8E7BD640C000E650C0051650C008B
:1097A00075650C00B0F86E31B0F8702193423BBF84
:1097B000B0F86C01C018981A801A80B2704708B5CA
:1097C0000146FFF7EFFFB1F86C31181A80B208BDFF
:1097D0002DE9F041B0F86E31B0F86C51ED1AADB230
:1097E000954228BF154616460446D0F86801771BF7
:1097F0002A461844BFB288460AF022F99FB1D4F82D
:1098000068013A4608EB05010AF01AF9A4F86E71EE
:109810002046FFF7C7FFB4F87231834238BFA4F87F
:109820007201BDE8F081B4F86E211644A4F86E61AF
:10983000EEE7000037B5D0F8683104460D4613B1A5
:10984000B0F86C3153B994F8E90028B12449D4F840
:10985000D40007F098F8002003B030BDFFF7AFFF49
:109860006B8808339BB2834208D994F8E9301BB95E
:1098700094F8EA000028EFD01A49E8E746F2B52349
:10988000022269462046ADF80030FFF7A1FF012211
:1098900029462046FFF79CFF0122A9182046FFF722
:1098A00097FF6B888DF8043002221B0A01A920461D
:1098B0008DF80530FFF78CFF6A88A9682046FFF70E
:1098C00087FF012205F10C012046FFF781FF2046AA
:1098D000012205F10D01FFF77BFF0120BCE700BF6E
:1098E0009B650C00C3650C002DE9F84F0E780D2E1A
:1098F00004460D4601F0288209D8022E00F09A870E
:10990000062E01F0CC81012E4FD0BDE8F88F132E2A
:1099100001F0EB83282E01F0CA84102EF5D10B68DC
:109920008E4A23F0FF03934241F06A82C66F002EF5
:10993000EBD0A8680021FEF721FA7060AA68E36FF7
:1099400012791A72AA68E36F52795A72AA68E36FA1
:1099500092799A72A868E66F0821FEF70FFAF06014
:10996000A868E66F0C21FEF716FA3082A868E66F49
:109970000E21FEF710FA7082E36F4FF0FF325A614A
:10998000E36F1A6A7AB1197808070CD4191D1433D9
:1099900051F8040B42F8040B9942F9D1E26F1378A5
:1099A00043F008031370E36F3DE00B686C4A23F04B
:1099B000FF03934241D1C668002EA6D0A8680021BB
:1099C000FEF7DCF97060A868E6680421FEF7D6F9B6
:1099D000B060A868E6680821FEF7D0F9F060A868D2
:1099E000E6680C21FEF7CAF93061A868E668102124
:1099F000FEF7C4F97061E3684FF0FF329A61E368E3
:109A00005A6A7AB1197809070CD4191D183351F81C
:109A1000040B42F8040B9942F9D1E268137843F041
:109A200008031370E3681B785F077FF56EAF294664
:109A30002046BDE8F84FFFF7FDBE4A4A93423DD1AC
:109A40000669002E3FF461AFA8680021FEF796F981
:109A50007060AA68236912791A72AA682369527918
:109A60005A72AA68236992799A72AA682369D2798C
:109A7000DA72A86826690821FEF780F9F060A86804
:109A800026690C21FEF77AF9306123694FF0FF3225
:109A90005A6123691A6A7AB119780E070CD4191D14
:109AA000143351F8040B42F8040B9942F9D122699E
:109AB000137843F0080313702369B4E72A4A9342EA
:109AC00054D14669002E3FF420AFA8680021FEF76C
:109AD00055F97060A86866690421FEF75CF9308169
