:02000002B0004C
:1040000000400B0054630C0000000600170005027E
:084010000401A30F00000000F1
:04401800C4420C0092
:1040200009480A49884208B505D0094A824202D0A7
:10403000121A0EF077F80748074A0021121A0EF0FC
:1040400099F8014808BD00BF7CDB032038610C00F3
:1040500070DD032070DD0320EDE7032070B5074E0F
:10406000074C0CF083F9A41BA4080025AC4200D136
:1040700070BD56F8043B98470135F7E7E4600C0043
:1040800008610C0001F056BB08B501F06FFABDE8FD
:1040900008400CF023B909F0EFBA09F0EDBA09F0C5
:1040A000F3BA09F0F1BA000008B5034A03490C203D
:1040B00009F0DCF9FEE700BF89CF0B00D8420C0005
:1040C0000078B0FA80F04009704701230370704710
:1040D00070477047006A0368DB6818477047037CC5
:1040E00013F008031EBFC36A406A1B1A002BACBF43
:1040F00018466FF0004070477047000008B5134B3A
:104100001A78134B1B789B0043EA4203114A12783A
:104110001343114A127843EAC203104A127843EA61
:1041200002130F4A127843EA82130E4A127843EAC6
:10413000C2130D4A13700D4B01221A700CF0BAFC19
:10414000BDE808400A490AF0B2BF00BFBCDD032049
:104150007CDD0320ACDD0320E4E00320E5DD03206B
:1041600010DF032005DF0320B0E50320D0E50320A6
:10417000ED420C0010B510210446FFF792FF2046D7
:1041800010BD10B534210446FFF78BFF204610BD4B
:10419000103002F027BD07B501228DF8071010304E
:1041A0000DF1070102F01EFD03B05DF804FB1030B5
:1041B00002F08EBC103002F06FBB07B501220DF18A
:1041C0000701103002F0BAFA01280CBF9DF8070071
:1041D0004FF0FF3003B05DF804FB436913B183690E
:1041E0000C301847704713B500210446084608F004
:1041F0007DFF0023204601A9019308F08FFF019C59
:104200000CB1012323710021012008F06FFF2CB1B4
:10421000236820469B6898470023237102B010BD95
:10422000012A02D1016000207047022A04BF0B68F6
:104230000360F8E7036818470368C9B29B6818472A
:1042400010B5054B00220446114640F8043B09F026
:104250002DF9204610BD00BF04490C0010B50446DE
:10426000FFF7EEFF20462021FFF71BFF204610BD81
:104270000A4B10B5044603600BF016F921460BF00B
:104280004EFB0CF017FC0CF009FC2046044B40F8E8
:10429000043B0BF0DFF9204610BD00BF18490C00AD
:1042A000EC480C0010B50446FFF7E2FF204624213D
:1042B000FFF7F7FE204610BD37B5044680680D466F
:1042C00030B10023CDE900331A46022108F02EFF59
:1042D000A06830B10023CDE900531A46194608F012
:1042E00025FF03B030BD0EB403B503AB002153F876
:1042F000042B01930AF005FF02B05DF804EB03B054
:104300007047000073B5044608462279A36832B1AD
:10431000A3B90B4902B0BDE870400AF0B1BE094A2A
:10432000267B094D0949647B012E18BF2946CDE93A
:1043300000140749FFF7D7FF02B070BD054AEFE749
:1043400017430C00F4590C0013430C000F430C00EE
:104350002D430C0006430C000EB403B503AB012142
:1043600053F8042B01930AF0CCFE02B05DF804EB85
:1043700003B0704738B5114B1C78ECB908F014FE47
:104380000F4B1B68C01AB0F57A6F15D90D4B0E4D47
:104390001C700E4B0E482C70012221461A7009F039
:1043A0004FFB29780B4809F04BFB0CF083FB0A49C3
:1043B0004FF47A62FFF7D0FF38BD00BFE5DD032080
:1043C00024DE032088E5032089E50320DCE50320C3
:1043D0008CDD03209CDD03204A430C0010B583686C
:1043E000044613B1032201469847204610BD000041
:1043F00037B5134B036004468068C8B100256FF0E1
:104400000043CDE9003502212B462A4608F08EFEF6
:10441000A068294608F0B2FE237903F0FF0513B126
:1044200008F05CFEF8E7A068294608F06FFEA5607A
:1044300004F10C00FFF7D2FF204603B030BD00BFEF
:10444000D8480C0010B50446FFF7D2FF20461C21C7
:10445000FFF727FE204610BDF0B58C460025144915
:10446000057104468560016092E8030085B002AFE3
:1044700004F10C0687E8030096E8030082E80300D5
:1044800097E8030086E803009168A0696161D1683C
:104490009560D060A161CDE90035064A23466146AA
:1044A00004F1080008F02AFE204605B0F0BD00BF68
:1044B000D8480C00E7410B0010B504460022407CB0
:1044C00009F02EF8637C0F2B18BF208310BD00006D
:1044D000F8B5244B244D1B785BB16B7C0F2B1CBFB4
:1044E00002236B74FF236B611E211F48FFF7E4FF5B
:1044F000F8BD1E4B1B78002B2DD11D4B1B78002BBC
:104500002CD11C4B1B78002B0BBF0A26142602272C
:104510000327194B1A78194B1C78194BA40044EA4D
:1045200042041A78144364B20CF0C4FA2246013CE7
:104530001449E4B2FFF710FF062C98BF124B6A7CB7
:1045400094BF53F824304FF47F030F2A18BF6F74C1
:1045500031466B61C9E714260227DAE714260127E2
:10456000D7E700BFE4E0032090E5032010DF03203D
:1045700005DF0320E5DD0320BCDD03207CDD032017
:10458000ACDD032094430C00E4490C0013460A46BA
:104590000149096802F0D9BA10E6032010B509F004
:1045A00043F82B4CE0B10123237008F0FDFC294BAC
:1045B000294C1B6847F23052C01A904223D813B3DB
:1045C0000123237008F0F0FC244B254C1B6847F2B4
:1045D0003052C01A904228D83BB30123237010BD3B
:1045E0002378002BE1D01F48037C2BB91E4944F2ED
:1045F00002221030FFF7CAFF1C491A481E22FFF79B
:10460000ABFE0023D0E723786BB11648037C2BB9AF
:10461000154944F202221030FFF7B8FF1349114840
:104620001E22FFF799FE0023CBE7227872B16BB10F
:104630000C48037C2BB90C4944F202221030FFF7DE
:10464000A5FF0B4907481E22FFF786FE0023C5E79A
:10465000ACDD0320C0DD0320BCDD032088DD0320AA
:104660007CDD0320ACDE032004DE03209F430C002E
:10467000F0430C0030B585B01B4B009313798DF8D7
:1046800004309368029300F58C659389ADF80C3083
:1046900004460A466B4600F26C41284602F0DEFDF5
:1046A00010B9002005B030BD256004F23C45284615
:1046B00002F044FA0121204602F07AFC014668B17A
:1046C0002146284602F034F80028EAD094F83C3419
:1046D00013F0700FE5D0054B1D60E3E7204602F0B4
:1046E00067FC0028ECD1DCE7C4480C0010E603208E
:1046F0002DE9F04784B08378412B00AF04468A4609
:104700004BD1C378422B74D120460DF0BEFD013849
:1047100020F00700E946ADEB000D20460DF0B5FD99
:104720006844002600F8096C2046FE730DF0ADFDCC
:1047300020446D4610F8023C3B7020460DF0A5FD6C
:104740002044314610F8013C7B7010223846BE7080
:104750000EF0C6FC80465FFA88F80CF0ABF97B4996
:1047600043464246FFF7F8FD042620460DF08DFD36
:104770000238864216D2062E9BBF07F110039B1902
:10478000AB19A25D8CBFA25D03F8082C06F10106EF
:1047900088BF03F8072CF6B2E7E7422B29D1C3788C
:1047A000312BB0E740452ED00CF084F90546204669
:1047B0000DF06BFD821E2846654D66494346FFF7A6
:1047C000CBFD2B7CCBB9644944F2022205F11000E9
:1047D000FFF7DCFE614922462846FFF7BDFD05F1E3
:1047E000100002F0ABF90CF065F95D490AF05FFCCE
:1047F000CD461037BD46BDE8F087584922462846C9
:10480000FFF7AAFDEFE7574907F10C000DF00EFD89
:104810000028EDD0544907F10C000DF007FD0446C7
:1048200000282FD12B783B716B787B71AB78BB71F3
:10483000EB783B722B797B72381D6B79BB720DF074
:1048400054FC4A4E4A4D307007F108000DF04DFC03
:1048500028700CF02FF92B7832784649FFF77CFD51
:104860003178454809F0ECF82978444809F0E8F82F
:10487000434B01221A7008F097FB424B1860424BE1
:104880001C70B5E7414907F10C000DF0CFFC18B9D9
:104890003F4B83F800A0ABE73E4907F10C000DF059
:1048A000C5FCF0B92A4C0CF005F929460AF0FFFBCB
:1048B000237C83B9284944F2022204F11000FFF757
:1048C00065FE35492A462046FFF746FD04F11000F3
:1048D00002F034F98CE730492A462046FFF73CFDC8
:1048E00086E72E4907F10C000DF0A0FC20B908F076
:1048F0005BFB2B4B18607BE72A4907F10C000DF09E
:1049000095FC10B9284B187072E7284907F10C0084
:104910000DF08CFC00283FF46BAF254907F10C002B
:104920000DF084FC00287FF463AF224B2248012263
:104930001A70214B5A7C0F2A1CBF02225A741E2166
:10494000FF225A61FFF7B8FD52E700BF3F440C0059
:10495000ACDE032054440C0004DE032071440C0040
:104960009D440C00BE440C00C2440C0088E50320AA
:1049700089E50320C6440C008CDD03209CDD032068
:10498000DCE5032024DE0320E5DD0320F2440C00F7
:10499000E5E00320F6440C00FA440C001D450C0031
:1049A00028DE032021450C00DDE5032025450C0011
:1049B00029450C00E4E0032090E5032010B50C46E7
:1049C000002204212046FFF793FE0B4B1B7893B186
:1049D0000A48037C2BB90A4944F202221030FFF73F
:1049E000D5FD224607490548FFF7B6FCBDE8104053
:1049F000054802F0A3B810BD04DF0320ACDE03209D
:104A000004DE03202D450C00BCDE0320B0B501F10F
:104A1000080323F0070300AFADEB030D0C460A4675
:104A2000014668460DF07EFB0DEB04036D4613F85E
:104A3000013C13B100230DF804300CF03BF816498B
:104A40000AF035FB0CF036F829460AF030FB01225B
:104A500011462846FFF74CFE2B7803F0FD03412B4F
:104A600003D108F0A1FA0D4B18600D4B1B7883B1F0
:104A70000C48037C2BB90C4944F202221030FFF79A
:104A800085FD0A4907482A46FFF766FC084802F0F8
:104A900055F8BD46B0BD00BF4D450C0088DD032074
:104AA00004DF0320ACDE032004DE03205D450C00A0
:104AB000BCDE032013B50024CDE9004404490548B9
:104AC0000123224608F0C0FD034B1C7002B010BD4C
:104AD000BD490B007D450C00ACDD032008B50CF092
:104AE00075FC0849FFF7FFFB14200BF0CBFB0CF023
:104AF0006DFC0549FFF7F7FBBDE8084014200BF0FB
:104B0000C1BB00BFF3590C0015430C0007B50CF0F6
:104B100099FC002301460093124840F24C43422284
:104B200007F05EFC40B94FF47A700BF0ABFB0BF072
:104B3000C1FF0D490AF0BBFA40F24C42012109487D
:104B400007F082FB40F24C4301220021054807F0A8
:104B50005BFB0CF077FC054903B05DF804EB0CF04F
:104B6000CDB800BF64DF032083450C00801A060027
:104B700010B515200CF0F8FB07EE900AF8EEE77A76
:104B8000334C17EE900A0CF0FFFE29A3D3E9002363
:104B90000CF052FF0DF032FA2E4B18600CF0F4FEC0
:104BA00025A3D3E900230CF08FFD2B4B00220CF042
:104BB00043FF23A3D3E900230DF068F80DF0D6F9E5
:104BC0006428A8BF642020EAE070207010200CF058
:104BD000CBFB07EE900AF8EEE77A17EE900A0CF09E
:104BE000D3FE1E4B00220CF027FF17A3D3E90023AE
:104BF0000DF04CF80DF002FA194B186011200CF072
:104C0000B3FB07EE900AF8EEE77A17EE900A0CF085
:104C1000BBFE144B00220CF00FFF0BA3D3E90023C3
:104C20000DF034F80DF0EAF90F4B1860207810BD44
:104C300059C0046EDDCD733F6666666666662A40BF
:104C400098999999999909400000000000FEAF4099
:104C5000D8DD0320DCDD0320000059400080404007
:104C6000D4DD0320008030408CE5032010B5084CD3
:104C700040F24C41204607F032FC064B40F24C41DA
:104C80001860204607F008FC034B1860012010BD97
:104C900064DF032030DE03200CDF032010B5084C56
:104CA00023785BB1074B0848197808F0C9FE074B19
:104CB0000748197808F0C4FE0023237010BD00BF18
:104CC000DCE5032088E503208CDD032089E5032053
:104CD0009CDD0320000000002DE9F04FB24DABB089
:104CE00008F062F92B68834280F00981DFF8E8B2AE
:104CF0009BF80030002B00F002810CF0A3FB012395
:104D0000142263210CF01BF80CF09CFB03685B6918
:104D1000984716AC26460CF095FB03681B6998472C
:104D200038B10CF08FFB03685B69984704F8010BFE
:104D3000F1E730460DF0D6F951EC100B0DF05EF9AD
:104D4000DFF898A2CAF800000CF07CFB01231422C3
:104D500064210BF0F4FF0CF075FB03685B69984766
:104D60001BAC26460CF06EFB03681B69984738B1F4
:104D70000CF068FB03685B69984704F8010BF1E7E6
:104D800030460DF0AFF90CF05DFB012314226521D4
:104D90000BF0D5FF0CF056FB03685B69984720AC1D
:104DA00026460CF04FFB03681B69984738B10CF09E
:104DB00049FB03685B69984704F8010BF1E730464B
:104DC0000DF090F959EC108B0CF03CFB01231422F0
:104DD00066210BF0B4FF0CF035FB03685B69984764
:104DE00025AF3E460CF02EFB03681B69984704462E
:104DF00038B10CF027FB03685B69984707F8010B93
:104E0000F0E730460DF06EF9684B8BF800401B78E8
:104E100057EC106B002B72D00BF00AFA11900BF0CC
:104E2000FBF904460BF00CFA83460BF0D1F9109015
:104E30000BF0DAF90F900BF0E3F9109A0F99119B30
:104E40000490CDE901B20391594A0094102112A8AF
:104E500008F032FC5748037C2BB9574944F2022230
:104E60001030FFF793FB494640460DF0C7F80CF0B1
:104E70008BFDCDE90C01514B18680CF085FDCDE997
:104E80000A014F4B18680CF07FFDCDE90801DAF8F4
:104E900000000CF079FDCDE90601394630460DF0F1
:104EA000ADF80CF071FDCDE90401464B186807EE32
:104EB000900AF8EEE77A17EE900A0CF065FD38A339
:104EC000D3E900230CF0E2FECDE902013E4B186865
:104ED00007EE900AF8EEE77A17EE900A0CF054FD10
:104EE0002FA3D3E900230CF0D1FE12AACDE90001D3
:104EF00036493048FFF730FA354801F01FFE354C8F
:104F000008F052F82368834244D208F04DF800F6C6
:104F1000C410206008F048F800F2393028600CF026
:104F200091FA63210BF024FF0CF08CFA7221FFF749
:104F300083F90CF087FA0BF022FF0CF083FA64215E
:104F40000BF016FF0CF07EFA7221FFF775F90CF0EA
:104F500079FA0BF014FF0CF075FA65210BF008FFDD
:104F60000CF070FA7221FFF767F90CF06BFA0BF096
:104F700006FF0CF067FA66210BF0FAFE0CF062FAFD
:104F80007221FFF759F90CF05DFA0BF0F8FE124BA5
:104F900001221A702BB0BDE8F08F00BFAFF3008084
:104FA0000000000080842E41E0DD032005DF0320A7
:104FB000A3450C0030DF0320E6DD03207CE5032061
:104FC00078E503200CDF032030DE0320BC450C0015
:104FD00040DF032084E50320E4DD032080E5032097
:104FE0002DE9F04F3C4EDFF80481DFF8049189B0E1
:104FF00000AF0CF0EBF903681B699847002866D0F6
:105000000CF0E4F90A22014638460AF0D9F8BB68E8
:10501000073323F007036D46ADEB030DEA4600238B
:10502000B9681FFA83FB8B4503F1010407D2594687
:10503000384608F05FFE23460AF80B00F0E7012926
:105040000AD90139384608F055FE0D2801BFBB6862
:105050005344002203F8012C012202215046FFF79D
:1050600047FB0BF027FD31460AF021F80BF022FD3B
:1050700039680AF01CF89AF80030423B012B03D83B
:1050800007F092FFC8F8000099F80030D3B1134838
:10509000037C2BB9124944F202221030FFF776FA52
:1050A000394607F1100008F0DBFD0E490B4807F107
:1050B0001002FFF751F907F1100008F03BFD0A4814
:1050C00001F03CFD384608F035FDAD4691E7243748
:1050D000BD46BDE8F08F00BFD4450C00ACDE032018
:1050E00004DE0320E6450C00BCDE0320C0DD032007
:1050F00004DF03202DE9F043ADB00BF0DBFC614988
:1051000009F0D5FF604961480022FFF73FFA48B92E
:105110005F4B18700BF0CEFC5E492DB0BDE8F0433C
:1051200009F0C5BF0BF0C6FC5B495C4D09F0BFFF41
:1051300009F02EF909F08AF9044648B909F028F96E
:105140002246294609F0D5F90A200BF09BF8EFE733
:105150000BF0B0FC52494D4F524DDFF86C8109F015
:10516000A6FF00223946284601F075FCF8B109F087
:105170000FF909F06BF9D0B11E2201A9284600F001
:10518000CEFE0BF097FC414601AAFFF7E5F801A817
:105190000DF07BF801AB043818440DF07FF842495C
:1051A0000DF0D5F8D8B9284601F0C8FCD9E7374842
:1051B00001F0C4FC2622002109A80CF0DBFF3B49CA
:1051C00009A80DF03DF80023262209A9384808F067
:1051D000CFFF2F4B00221A702DB0BDE8F08326229E
:1051E000002109A80CF0C6FF3249334EDFF8C09009
:1051F00009A80DF025F801A909A80CF0F1FF0BF0A2
:1052000059FC2E4909AAFFF7A7F80023262209A96D
:10521000274808F0ADFF0BF04DFC294901AAFFF724
:105220009BF896200BF02EF80BF06AFC3046FEF748
:1052300056FF044688B16422002113A80CF09AFF9F
:1052400013AA64230D21304609F0A1FF0023642234
:1052500013A9484608F08CFFE8E70BF053FC262220
:10526000214609A80CF086FF164909A80CF0E8FFB2
:105270002346262209A90E4808F07AFF96200BF053
:1052800001F890E707460C0024460C0088DE032056
:10529000E4E0032026460C0053460C00C8DD032042
:1052A00073460C0040DF0320B1460C00B6460C00EC
:1052B000DCE00320BF460C0030DF0320C8460C00B2
:1052C000DB460C0003470C0088460C0038B5046828
:1052D00005467CB16368013B63605BB92368204687
:1052E0009B689847A368013BA3601BB923682046CD
:1052F000DB689847284638BD2DE9F04784B002AFF7
:10530000804691461E460D460CF0BFFF093020F046
:105310000701ADEB010D40460CF0B7FF97F828A050
:10532000254902AC03464246204608F0BDF9BAF1D1
:10533000000F01D1042D0CD1204B21491B788DF891
:10534000003038463C2322460BF06EF9381DFFF73B
:10535000BDFFB9F1000F01D1012D21D109F018F8DD
:1053600009F074F8E0B120460CF08FFF073020F010
:105370000700E846ADEB000D20460CF086FF0DF16E
:1053800008090246214648460CF0CCFE20460CF0A7
:105390007CFF0023024649460A4808F0E9FEC5465C
:1053A0000EB9022D04D10CF011F8214609F07FFE50
:1053B0000837BD46BDE8F0870C470C00C4DD03206C
:1053C00013470C00D4E5032030B5274D2B789DB052
:1053D000002B46D0412200210BA80CF0CBFE234B22
:1053E0000893234BDFED236A93ED007A224B27EEDF
:1053F000267A0024BDEEC77A8DED077A93ED007A08
:105400001E4B27EE267ABDEEC77A8DED067A93ED18
:10541000007A1B4B27EE267ABDEEC77A8DED057A12
:10542000D3ED007A174B67EEA67AFDEEE77ACDED65
:10543000047A18680CF0A8FACDE90201124B18683A
:105440000CF0A2FA0122CDE9000110490BA808F0E6
:105450002BF929780094234622460BA8FFF74CFF2E
:105460002C701DB030BD00BFE5E00320880D0100A9
:105470007CE5032000007A4474E5032080E50320E6
:1054800078E5032008DF03202CDE03201B470C00F7
:1054900070B52C4E337890B0002B49D02A4A2B4B54
:1054A00010681B7807930CF06FFACDE90401284AC5
:1054B000284C10680CF068FACDE90201264A079BD7
:1054C00012782649009209A8012208F0EDF80BF0A5
:1054D000F1FA09A909F0EBFD0BF0ECFA2188054679
:1054E0000A2209F0F0FD284609F0D5FD1C4B1B7877
:1054F00003BB1C4B1B78EBB92388F3B113F00303F8
:105500001BD10122009219461A4609A8FFF7F4FEA2
:1055100023880BB1013B23800024642034700AF0FF
:10552000B1FE11480094234601222146FFF7E4FE14
:1055300010B070BD4FF4F07323800021012300915F
:105540001A46E2E7D0E5032008DF0320D8DD032078
:105550002CDE0320AEDD0320B0E503203F470C0026
:105560007CDD0320BCDD032058470C0010B52DED79
:10557000028B90B0FFF77AFB70B3324BDFED326AEB
:10558000D3ED007A314BF8EEE77A87EEA67A83ED19
:10559000007A2F4BD3ED007A2E4BF8EEE77A17EE18
:1055A000100A87EEA68A83ED008A0CF0EDF9024618
:1055B0000B4618EE100ACDE906230CF0E5F9DDE9FB
:1055C0000623CDE90001244908A808F06DF80BF086
:1055D00071FA08A909F06BFDFFF7CAFA0BF06AFA35
:1055E0001E4B1A781E4B0692044618680CF0CCF934
:1055F000CDE904011B4B18680CF0C6F9CDE9020196
:10560000194B18680CF0C0F9069ACDE9000117494A
:105610002046FEF7A1FEFFF75FFBFFF7E1FCFFF777
:1056200037FFFFF73BFB124B1B780BB1FFF762FD17
:10563000FFF7CAFE642010B0BDEC028BBDE810403D
:105640000AF020BE30DE03208096184B2CDE0320AB
:105650000CDF032008DF032066470C00D8DD0320A1
:105660008CE50320D4DD0320DCDD032085470C001E
:10567000E4E0032070B5D0E900531426044606FB8D
:105680000356AE4204D0284608F054FA1435F8E721
:10569000206807F0F9FF204670BDF0B516468FB0C0
:1056A0000022C0E9002204460D4609AF194604A8AD
:1056B00008F020FD1499384608F01CFD169B029353
:1056C000159B2046CDE90073324604AB294609F00C
:1056D00087FA20460FB0F0BD13B50B4C2178BFF30D
:1056E0005B8F11F001010BD120460191FEF7E8FC20
:1056F000019928B1054808F08BF82046FEF7E5FC33
:10570000024802B010BD00BF70DD032074DD03202D
:1057100008B5FFF7E1FF4FF6FF72002108F096F899
:10572000FFF7DAFFBDE808400149012208F02CB973
:1057300040420F002DE9F04FBC48BD4E037CBD4DEB
:1057400003F0030343F0780393B0037400220121B4
:10575000043007F0ABFE012102200BF0DBFD01213C
:105760001C200BF0D7FD00211D200BF0D3FD0021E4
:1057700002200BF0E0FD00211C2000240BF0DBFDDB
:10578000B42707F011FC5A2333702B704FF47A7250
:10579000CDE900474FF4FA630621A74808F08CF9D9
:1057A0004FF47A724FF4FA63CDE900470521A3481C
:1057B000A34F08F081F931789F48A24E08F040F9D4
:1057C00029789E4808F03CF94FF4FA600AF05AFD37
:1057D00008F0DEFD08F026FE08F0DAFD082108F0EA
:1057E00028FE0BF067F94FF416510BF053F90BF04C
:1057F000EDFD4FF416510BF029FAFFF789FFFFF783
:105800006DF9FFF783F9FFF755F907F0CDFB8E4BE4
:10581000186007F0C9FB8D4B186007F0C5FB8C4B77
:1058200018608C4B1C608C4B1C608C4B1C708C4B20
:105830001C708C4B1C708C4B4FF4F0721A808B4B8D
:10584000012532221A703D70357008F0A1FD884A9A
:1058500001460DA809F0EEFA0DA808F09EFE08F02A
:1058600097FD844A01460DA809F0E4FA0DA808F056
:1058700094FE08F08DFD804A01460DA809F0DAFA81
:105880000DA808F08AFE7D4B1D707D4B0DA8196890
:1058900008F030FC0DA808F08FFB05460DA8002D80
:1058A00040F0B88008F0A4FB0095ADF82400022376
:1058B00009AA0321734808F09BFF00236F49714830
:1058C000082208F0B3FF08F063FD00226D4908F0DC
:1058D00010FE0BF0B7FD0BF015FA0BF0B3FD6A49A3
:1058E0000BF00CFA0BF0AEFD1C210246674806F0E7
:1058F000CAFF002840F095800BF0DCF8644909F0FD
:10590000D6FB6248012106F0B7FE6048002106F090
:1059100017FF5E48012106F0E1FE5C48002106F019
:105920002AFF0124002559484FF4FA7106F0CAFFF6
:1059300023462A462946CDE901545448009406F0EE
:10594000D9FF0AF075FC07900AF066FC80460AF061
:1059500077FC81460AF03CFC82460AF045FC83460F
:105960000AF04EFC079B4B4ACDF80080CDE903B00E
:105970001021CDE9019A09A807F09EFE4649474843
:105980000CF05EFC09A945480CF02AFC4349444848
:105990000CF056FC434941480CF022FC4249404877
:1059A0000CF01EFC0BF086F83C4909F080FB0BF074
:1059B00081F83B4909F07BFB3C486FF00041FEF762
:1059C0007BFC3B486FF00041FEF776FC39486FF0F6
:1059D0000041FEF771FC38486FF00041FEF76CFCA7
:1059E000364B0D933648374BADF840400DAA082191
:1059F0008DF838500F93FEF73DFE0446002867D11E
:105A00000BF058F8304909F052FB3C70347013B079
:105A1000BDE8F08F08F0EEFA00940246102307214B
:105A200048E70BF047F8294969E700BF90E50320F4
:105A300088E5032089E503208CDD03209CDD03201D
:105A400005DF032004DF032084E50320E0DD0320DD
:105A500028DE0320C0DD032088DD0320E4DD0320F1
:105A6000E4E00320E5E00320AEDD0320D8DD0320E1
:105A7000D4E50320E8E00320DCE003207DDD032003
:105A80007CDB0320C8DD0320801A060050DE0320E3
:105A9000D3470C00A3450C00FE470C00E6DD0320B5
:105AA00004DE0320B1460C0007480C00E0E50320AB
:105AB00014DF032034DE0320B4E50320C4480C00C7
:105AC000F0E0032000127A0010480C00EF470C00B1
:105AD0003B787BB11248037C2BB9124944F2022275
:105AE0001030FEF753FD10490D4809F0E0FA0F4859
:105AF00001F024F83378002B89D00D48037C2BB9B2
:105B00000C4944F202221030FEF740FD0A490848D1
:105B10000122FEF721FC094801F010F877E700BFE9
:105B200030DF0320E6DD032035480C0040DF032092
:105B3000ACDE032004DE03208B480C00BCDE032017
:105B40008842F8B504460D46164616D9904215D23D
:105B5000A2F11406751AA1F114072C44B7421CD007
:105B60002CB13146204608F061F8337C237430466E
:105B700007F0E0FF143E143CF0E70ED0B5420CD025
:105B80002CB12946204608F051F82B7C2374284676
:105B900007F0D0FF14351434F0E7F8BD2DE9F041DB
:105BA0000023C0E9003383604F689F4204460E46DD
:105BB00023DD4FF0140808FB07F007F05DFD0546F4
:105BC000D8B1D4E9001208FB0212FFF7B9FF206830
:105BD00007F05AFD2560A760D6E9007308FB03783B
:105BE000B84508D03946284608F03AF83B7C2B7473
:105BF00014371435F4E7736863602046BDE8F0811C
:105C0000F0B5794B794A7A4C01261E70794B002504
:105C1000C3E900559A6093B0032007F059FC764819
:105C200001F062FD754806F0ABFCFFF755FD6423FB
:105C3000C4F86034724B6560C4F83C54C4F86854CE
:105C4000C4F8703484F87464C4F87854A4F87C54AC
:105C500008B9FFF741FD6B4B6B4AC4F86C044FF475
:105C60007A7700241A60C3E901471C61674B0794E7
:105C70001A60C3E901471C61654B664D1A60C3E9B0
:105C800001471C61CDE905440AF014FF05A9064649
:105C900008A8FFF783FF08A90BA8FFF77FFF5E4B5B
:105CA0002B600BA90EA8FFF779FF0EAA1E21281D55
:105CB00009F018FF0EA8FFF7DDFC0BA8FFF7DAFCD0
:105CC000564B2B602E6208A8FFF7D4FC544B2B6078
:105CD0000AF0F0FE4FF416510AF0DCFE09F0E4FB86
:105CE000294609F0D5FD05A8FFF7C4FC4D484E4DE7
:105CF0004E4E07F0CDFE4E4807F0CAFECDE90144F6
:105D00002B6800934B4B4C491B684C484FF01002DA
:105D1000FFF7C3FC4A4B029401932B680093494B55
:105D200049491B6849484FF00402FFF7B6FCCDE92A
:105D300001442B680093464B46491B684648474D33
:105D40004FF01002FFF7A9FC454808F05CFD454BF9
:105D50000E930EAA234643F69821434811961095B8
:105D6000FEF77AFB0EA8FEF739FB404B0E930EAA06
:105D7000234639463E48CDE91056FEF76DFB0EA886
:105D8000FEF72CFB3B4B0E930EAA234640F6C411A4
:105D90003948CDE91056FEF75FFB0EA8FEF71EFB53
:105DA000364B0E930EAA234643F698213448CDE98C
:105DB0001056FEF751FB0EA8FEF710FB22461421E9
:105DC000012007F0ADFB01221421CDE900120346AA
:105DD0006FF07F412B4807F0F3FC2B492B4813B0A1
:105DE000BDE8F04007F0F1BEC4DD03200000FFFF76
:105DF000F0E00320B0DD032064DF032050DE032049
:105E0000C4480C0030DF032030490C00ACDE032016
:105E100078DE0320E0DE0320EC480C002C5A0C0056
:105E200018490C008CDD03207CDB032035420B007D
:105E30009CDD032088DB0320B0480C00D4E5032060
:105E40000D4A0B0084DB0320B3480C00E8E003207C
:105E500080DB0320B6480C00DCE0032021420B006D
:105E6000C8DD03209D450B00E0E50320D1440B0075
:105E700034DE032075430B0014DF0320FD400B00CC
:105E8000B4E5032090E50320F4590C00FCE5032061
:105E9000042904D800EB4100B0F8010070470A293A
:105EA0009BBF01F1FF3100EB41000131C08884BF8D
:105EB00000EB41008088704710B50446243000F0A4
:105EC00069FF28B104F50C70BDE8104000F062BF16
:105ED00010BD411E00F10A030020420842EAC01032
:105EE00011F8012F52FA80F08B42C0B2F5D1704701
:105EF00038B5CB6804460D4623B9BDE838408968FB
:105F000000F016BC242200210CF034F910230120EB
:105F10002370A070AB68A360EB68236238BD2DE9E5
:105F2000F04F8DB003784FF0000906460F469046BB
:105F3000CDF80C90002B5DD00C2A5BD9C37833B917
:105F400000F046FB044620460DB0BDE8F08F014648
:105F500003A8FFF7CDFF00284CD007EB08034FF054
:105F6000010B4FF00D0A0093F3785FFA8BF5AB420B
:105F700040D3B188A1EB0B01490103A800F0BEFC9E
:105F80000446002836D0002103A800F098FC034600
:105F900080B3C27A0F2A2DD1027802F01F02AA42E2
:105FA00028D10BF1FF350AFB05F57A1900211846B7
:105FB0000191FFF76DFF68B1A84512D90199013130
:105FC0007F28C9B228BF3F200D2902F8010B05F137
:105FD0000105ECD1A84504D91A78520648BF07F844
:105FE0000590009A02F8019C1B785B060BF1010BEF
:105FF000BAD5A8E700243C70A5E700002DE9F047DA
:10600000064610F8013B202BFAD06A4D8E60002422
:10601000335DC3B12F2B16D05C2B02D10020BDE81D
:10602000F087A3F12200C0B21D2803D825FA00F0A2
:10603000C007F3D403F0BF003C28EFD0203B5E2B19
:10604000ECD80134E4E733191846074610F8015B31
:10605000202DFAD02F2DF8D017604CB113F8012D58
:106060002E2A01D0202A01D1013CF6E7FF2CD5DCF5
:106070004FF02033C1F811304C60C1F80D304B6146
:106080004FF0000816F808302E2B01D0202B02D13B
:1060900008F10108F6E7B8FA88F04009651E6B1CA4
:1060A00002D0735D2E2B14D14FF0000907274A460A
:1060B000CA464FF0080EA04568DA16F80830202BC3
:1060C00003D02E2B07D1A84512D0002008F10108DB
:1060D000F1E7013DE3E7222B08D07C2B06D0A3F1AA
:1060E0002A0CBCF1050F0AD82D2B12D0A8455BD184
:1060F0000A2F4AD00A2708224FF0100EE6E7A3F134
:106100003A0CBCF1050FF1D9A3F15B0CBCF1020F05
:10611000ECD9A3F1210CBCF15D0FE7D8A845E7D07D
:10612000BA4230D8A3F1610CBCF1190F1AD8203B48
:106130004EEA0909DBB25FFA89F902F1010C5FFA54
:106140008CFC0A44BCF1060F537301D881F80CC0D3
:106150006246BBE7A84518DCA8460A2708224FF08C
:10616000100EB2E7A3F1410CBCF1190F98BF4EEA33
:106170000A0AE2E70B7B0120087019447E234B7367
:1061800031238B734BE70A2FE4D100204B7B202B6C
:106190003FF444AF0028EDD01AEA090F18BF4FF0C2
:1061A000020981F800903AE7BA42ECD800205F2358
:1061B000C3E700BF010100312DE9F84391F80C90CD
:1061C00006460C4602257E2701F10D086168A2688B
:1061D0006B189BB21144914206D012F8010B03EBED
:1061E000431343409BB2F6E7B9F1030F28BF4FF0CA
:1061F000030909F10402D2B203F00F01A018013A19
:106200000929D2B294BF30313731914541734FEAF9
:106210001313F1D104EB090300215F73304600F042
:106220006DFB0121304600F04AFB014628B9707829
:10623000B0FA80F04009BDE8F88303786BB1C37A07
:106240001B07EED40B2240460BF05CFF0028E8D180
:106250000135ADB2642DB9D1EDE70120EBE70000C7
:106260002DE9F04F2DED028B8BB00D4606930B7888
:10627000079013F0700F174605D100200BB0BDEC4E
:10628000028BBDE8F08F079B1B78002BF5D153687C
:10629000059313789C071FBF059B0C330D22B3FB9E
:1062A000F2F31ABF0133DBB2012300212846039326
:1062B00000F024FB07F10D034FF0000B08EE103A3D
:1062C000DA465C465E46CDF810B0D9466B690121CE
:1062D0002846C3F34F1800F0F2FA0346002871D1A4
:1062E0006B78002BC9D1069B9A05C6D503F0030332
:1062F000013B012BC1D8049B002C08BF43460493EB
:10630000039B9C42C0F0F180B9F1000F40F00A817C
:10631000049B2846590100F0F1FA0028ADD0039BF8
:1063200003F1FF395FFA89F94E464FF0000A4FF04A
:106330000F08002E00F00D810021284600F0BFFA62
:106340000446002899D0AA6892F824304E4543F0BC
:1063500001030CBF46F0400BB34682F8243080F8AE
:1063600000B080F80B8080F80CA007F10D00FFF75B
:10637000B0FD84F81AA0607384F81BA00BF01F0313
:106380000D22013BD7F808C05343002205999942DA
:1063900040F2D0801CF80310042A5FFA82FE02F15A
:1063A000010000F2CD8004EB4202A2F801100D289A
:1063B00003F101030246E9D1013EF6B2B9E74FF01D
:1063C000010983E70278E52A00D07AB90499002C04
:1063D00008BF4146049103998C423CBF0134E4B2AA
:1063E000002A80D0E52A05D100266FE703998C4268
:1063F00038BF00242E2AF7D0D97A0F294AD116BBEC
:1064000012F040063FF462AF02F01F0693F80DB0A1
:10641000B2460D220AF1FF3802FB08F8059A424500
:10642000E2D9A2EB08020892002202EB08010991CE
:106430001846D1B2FFF72CFD08998A420DD10028E9
:1064400018BF002642E70AF1FF3A5FFA8AFA52457E
:10645000CAD15A7B5A45DCD0C6E7FF28C4D85FFAB8
:1064600080FEAEF141011929B9689CBF0EF12000F0
:106470005FFA80FE08460999415CA1F1410CBCF12C
:10648000190F9CBF2031C9B27145ADD101320D2A1F
:10649000CBD11BE70807A7D45EB1BAF1010F7FF497
:1064A000ECAE1846FFF715FD58457FF4E6AEB14651
:1064B0000EE018EE101A0B2218460BF023FE0028EF
:1064C0007FF404AF97F8009019F001097FF477AFDB
:1064D000069B19053FF5D1AE069B0798CDF80090B5
:1064E0004246294600F04DFAC8E60021284600F051
:1064F000E6F9A0B96B78002B7FF4BFAE284600F018
:106500009FF800283FF4B9AEAB681B79012B3FF62A
:10651000FBAE039B1034E4B2A342EFD8F4E601349F
:10652000E4B2EDE639462846FFF746FE00287FF440
:10653000EFAEA2E614BF4FF0FF31002189B22BE786
:10654000BEF10A0F94BF04EB420204EB40029180BB
:106550002DE731462846D5F8148000F0B0F90446FE
:1065600000283FF48AAE202231460BF003FED7F814
:106570000D302360D7F811306360B7F815302381F0
:10658000FB7DA3723B7803F0180323730F4B1B684A
:106590009BB104F10E0104F110009847238A638235
:1065A0002383E389E382AA6892F8243043F001034D
:1065B000C8F34F1882F824308EE721232374282350
:1065C00063740823A673E373E8E700BF0CE60320B7
:1065D00010B50C46017809B9002010BD11F060011A
:1065E00005D02F232370002363700120F5E700F00E
:1065F00065F80028F0D0214600F06FF8F5E738B5CF
:1066000004460D46242200210BF0B4FDA560EB7971
:10661000102B03D0202B06D0002038BD20230120D2
:106620002370A070F9E74023F9E78378016943F00C
:106630000403837000F11002806800F061BC000068
:106640002DE9F041017811F02005044603D0002621
:106650003046BDE8F0814269174B9A42F7D2FFF706
:10666000E4FF06460028F2D02169A06800F0DDFBB7
:106670000746A06805223946243000F0B3FB804667
:106680000028E4D029464FF400720BF073FD012579
:10669000A3681A79AA4209D918684246E91900F094
:1066A0000EFF0028D3D00135EDB2F1E7636903EBAB
:1066B00042236361CCE700BF00FE1F0010B5044613
:1066C00080680A462430A16900F08CFB20B1A388C1
:1066D00003F00F0300EB431010BD0023F0B5044698
:1066E000451E082618462E2715F8012F202A18D0F7
:1066F000082B02BF0F54421CD0B22A78A2F1410CE1
:1067000008BF1026BCF1190F06D894F80CC016EA81
:106710000C0F1CBF2032D2B200F1010C0A545FFAF8
:106720008CF00133DBB20B2BDED100230B54F0BD18
:1067300003780BB9FFF763BF002070472DE9F74FCF
:106740000378044688461546002B5DD08278D10731
:106750005AD51A072DD5C36942699B1A9D4228BF95
:106760001D462E464FF0000904F1100B002E00F0DC
:106770008F8022786369A0689706C3F3080A4FEAFE
:1067800053211FD5006A0144A068BAF1000F42D11D
:10679000B6F5007F3FD3C36A99423CD0B6F5806F0F
:1067A00052D20068424600F001FE68B34FF4007711
:1067B00044E09B06D5D583681A894369C3EB42132D
:1067C0009BB2CBE790F8059009EA0109BAF1000FF6
:1067D00008D1B9F1000F05D15BB951064CBF036A6E
:1067E000236A23612169A06800F01FFB09EB000107
:1067F000CAE721695A4600F01EFB002804DBF1D1EC
:10680000237813F0700F43D1637843F00203637071
:106810004FF0FF303DE0CAF50077B7424FF000027D
:1068200000F1240028BF374600F0DCFA0028EBD046
:1068300000EB0A013A4640460BF074FC63693B44A6
:10684000B8446361F61B91E7227892064FEA562A14
:1068500006D40279A2EB0902D2B2924528BF924631
:1068600099424FEA4A2708D2A06853460068424638
:1068700000F0E4FD0028E1D1C6E753448B42F3D990
:106880002430019100F086FA01990028ECD1BBE791
:10689000A81B03B0BDE8F08F73B501220DF107010D
:1068A000D0E904560446FFF749FF01280ABF9DF8C6
:1068B00007004FF0FF30C4E9045602B070BD37B591
:1068C000436913F4F07F0446C3F3431500D099B92C
:1068D00001220DF107012046FFF730FF40B20128E9
:1068E00002D0002003B030BD63691F33A06863612C
:1068F000303000EB4510F5E72033F7E72DE9F041A4
:106900000278076904460D4662B14069884202D0A8
:1069100019B921616561012006E0160706D5E36912
:106920008B420BD227610020BDE8F081910605D58E
:10693000A3681B89B5EB431FECD9F3E7D4F808C073
:106940009CF80660431E06F109016E1ECB40CE4046
:10695000B34200D898B953064CBFDCF82030236A04
:10696000236104F11008002ED4D02169A0684246AA
:1069700000F061FA002806F1FF36F4DCD2E7F61ADF
:10698000EFE7F8B50F4604461546002124221E46BF
:106990000BF0F0FBB868A060A58005F00F053B6A1E
:1069A000E3606A0100EB451595F83B301F0744D4BE
:1069B00003F01703237095F83B1011F0180F04BF74
:1069C00043F0080323709DF81830E37006F00303CA
:1069D000012B2CD0022B28D07BBB71052DD4012399
:1069E000A370A1788B0704D52378DF0625D4DD07B3
:1069F00023D4B31123F07F0306F008052B430B4388
:106A0000A370C36AA3618318B3F84420B3F84A1093
:106A100041EA0241720513D559B9A37843F0040342
:106A2000A370730410D40120F8BD0323D8E7022318
:106A3000D6E700F0A0FA0028EFD100202070F3E79D
:106A40002162DB6CE361ECE7E1692046FFF756FF6A
:106A50000028E8D1F1E72DE9F347037807460D4612
:106A6000924653BB0B7813F0700F26D04C6914F08C
:106A70001F0422D1A04600212846D5F81490FFF724
:106A80001EFFD0B10678C6B12E2E10D0E52E0ED046
:106A9000C37A1A0713D464B900945346C9F34F124A
:106AA00029463846FFF76DFF02B0BDE8F0870024A5
:106AB000E1E7FFF70EFA4045EED00020F4E70F2B98
:106AC000F5D17306D7D590F80D8006F01F04D2E7F4
:106AD00038B5037804460BB9012038BD83785A07CE
:106AE00023D50121FFF7EAFD054628B9637843F075
:106AF000010363700020F0E70378E52BF6D02378DC
:106B00001B0744BFE369C361236A4383638C8382A9
:106B1000094B1B682BB100F11601183098472B8BDD
:106B20006B82A37823F00403A370A068FFF7C4F975
:106B30000028DBD0D0E700BF0CE6032010B50446E8
:106B4000FFF7C6FF0023237010BDF0B593B01F46BA
:106B5000002309930378019206460C4613B10020E6
:106B600013B0F0BD0B7813F0700FF8D013782F2B03
:106B700012D1019A13782F2B02D101320192F8E73A
:106B8000A1681BB93046FFF7D3FDE9E709A8FFF775
:106B900036FD0028E3D009AC019801AA03A9FFF74C
:106BA0002DFA0028DBD0019B1B789BB1002303AAA0
:106BB00021463046FFF754FB0028D0D035460FCD94
:106BC00009AC0FC40FCD0FC42B6823603046FFF70C
:106BD000B5FFE0E73B4603AA21463046FFF740FBFE
:106BE000BEE700002DE9F0470378894619070446FF
:106BF00017465BD583789A0758D51B0751D463692C
:106C0000DB43BB4252D3B84604F1100A6669B8F1BF
:106C1000000F00F09180A0684379C6F3080513EADD
:106C200056260ED16DB92169002946D0524600F092
:106C300002F900283ADB04D12046FFF7F6FC0028D1
:106C400034D02169A06800F0F0F83118A06815B9B7
:106C5000B8F5007F3FD2C5F50076464528BF4646C9
:106C6000002D36D16269E3699A4234BF01220522C0
:106C7000243000F0B7F8C8B12844324649463544BC
:106C80000BF050FAB5F5007F04D1A068243000F075
:106C900081F858B1636933446361B144A8EB0608D5
:106CA000B4E7C169FFF72AFE0028A8D1637843F052
:106CB000010363704FF0FF3050E0236A3BB9204678
:106CC000FFF7B3FC0028F1D023692362B9E7236101
:106CD000B7E70122CCE7B8F5806FC26A1BD390F802
:106CE00004C0ACEB0606F3B24FEA582E734528BF3A
:106CF000734691424FEA432607D31A448A4282BF21
:106D00004FF0FF3280F82450C262A5684A462868D6
:106D100000F04BFCBDE7914202BF4FF0FF3380F81B
:106D20002450C362A3684A46186800F0C8FB0028D4
:106D3000BCD04FF40076ADE7E269A378B24204D24A
:106D4000E66143F00403A37003E0084A1268002AD6
:106D5000F7D194F90230002B02DB3846BDE8F0870A
:106D60002046FFF7B5FE0028F7D19FE70CE6032089
:106D700013B50446084659B101910BF086FA236811
:106D80000199DB680246204602B0BDE81040184772
:106D900002B010BD37B50378DA07044620D5436842
:106DA000816800F10C021868019200F088FB019ADA
:106DB000054618B90025284603B030BD23789B0747
:106DC00004D4237823F001032370F4E7D4E90130DD
:106DD00019690144186800F072FB0028F1D1E9E755
:106DE0000125E8E770B583688B4204460E461546D8
:106DF00009D0FFF7CFFF08B9002070BD6B070AD597
:106E000000232370A660227805F003052046154371
:106E100000F80C5BF1E7636804F10C021868314676
:106E200000F0C4FA0028EBD1E6E783794069023923
:106E3000994008447047012970B505460C4616462E
:106E400002D84FF0FF3070BDC3698B42F9D3C379CC
:106E5000202B16D18169022201EBD41100F50C70B0
:106E6000FFF7C0FF0028ECD004F07F0450F8243076
:106E700023F07043EA699A4226BF33600120002064
:106E8000E1E7102BDDD1C1F3072381690222194408
:106E900000F50C70FFF7A6FF0028D2D0E4B230F85E
:106EA0001430E7E7012938B50C46154601D8002013
:106EB00038BDC3698B42FAD3C379202B0FD18169C6
:106EC000032201EBD41100F50C70FFF78BFF0028B3
:106ED000EDD004F07F0440F824500120E8E7102BA7
:106EE000E5D1C1F3072381690322194400F50C7031
:106EF000FFF778FF0028DAD0E4B220F81450ECE76E
:106F00002DE9F341C4688C4205460E46904601D3F4
:106F1000012701E00C460027EB690134A34202D2AD
:106F2000C7B9EC68F4E7A64214D001AA2146284666
:106F3000FFF781FF00280DDBEED0019B002BEBD18A
:106F400007B1EC606FF0704221462846FFF7AAFFB8
:106F5000074620B90027384602B0BDE8F08116B9CF
:106F6000C8F80040F7E7224631462846FFF79AFF67
:106F70000028F5D1EEE773B505460C4601AA214677
:106F80002846FFF758FF061E10DB00222146284640
:106F9000FFF788FF50B1EB68A34224BF04F1FF3430
:106FA000EC60019C002EE9D102B070BD0020FBE72F
:106FB000012370B50022C3604FF0FF330446C27155
:106FC00000F12406806280F82420C362C0F83402F5
:106FD00080F83022C0F838320D46B9B1042901D901
:106FE000002070BD11463046FFF7FCFE0028F7D0A8
:106FF00000EB051393F8AE315B06F1D105F11B01EF
:1070000000EB0110D0F80650002DE9D000222946EF
:107010003046FFF7E7FE0028E2D0B0F80B30B3F5BA
:10702000007FDDD1037C022BDAD1C389002BD7D0BE
:10703000417B21714B1E63710023A371092601233B
:10704000994207D0013ECBD0A2795B000132DBB27E
:10705000A271F5E7C18A01B9416A2161C3892B4454
:10706000A361B0F81120228103EB41032362B0F841
:107070001110490101F2FF1103EB51236361B0F8D4
:10708000132002B9026AE91AA3791144D9404B1CB2
:10709000E36140F6F473994202D80C23E3719FE751
:1070A0004FF6F473994285BFC36A236210232023ED
:1070B000E371012095E700F0CBBA00F0AEBA000012
:1070C00070B50E4E0D46144605F066FF3368C01AC3
:1070D0000B4B984208D905F067FF0A4B186006F081
:1070E0009BFA05F059FF306005F05EFF80B2401B4F
:1070F000A042D4BF0020012070BD00BF14E60320D1
:10710000A086010040E7032038B5057A04464DB952
:10711000406800F06BFA63682946187D0AF00BF9A5
:107120000123237238BD10B5037A04466BB143685E
:107130000121187D0AF0FFF86068FF21FFF7BBFF0F
:10714000606800F067FA0023237210BDF8B50446AA
:107150000D46164605F028FF87B26068FFF7ADFFC1
:10716000FF2860720ED14FF47A7239462046FFF73D
:10717000A7FF0028F1D0552320462370FFF7D3FF47
:107180000020F8BDFE2801D05023F5E760683246A4
:10719000294600F047FA607208B16023ECE76068A6
:1071A000FFF78BFF6068FFF788FF0120E9E770B504
:1071B00004460E4605F0F8FE85B2324629462046C2
:1071C000FFF77EFF30B96068FFF777FFFF28F4D143
:1071D000012070BD0020FCE7F7B5037A0192044658
:1071E0000D460BB9FFF790FF25B14FF4967120467D
:1071F000FFF7DDFF606845F04001FFF75CFF032605
:1072000001AFB95D6068FFF756FF013EF9D2002D6E
:1072100060680CBF95218721FFF74DFF6068FFF77D
:107220004CFF0B256068FFF748FF0306607203D52B
:10723000013D15F0FF05F5D103B0F0BD70B5044672
:107240000D46164637210022FFF7C6FF3246294673
:107250002046BDE87040FFF7BFBF00002DE9F041B8
:1072600000250572057085724160044690461E46F1
:1072700005F09AFE41460746606800F0BBF9636876
:10728000494A1D720125DA601D822046FFF73CFF46
:1072900063682946187D0AF04EF80A256068FF21C8
:1072A000013DFFF708FF15F0FF05F7D16368294698
:1072B000187D0AF040F80A25002211462046FFF703
:1072C0008BFF0128804618D0013D15F0FF0507D13E
:1072D000202320462370FFF726FF0020BDE8F08121
:1072E0006068FD21FFF7E7FE4FF402786068FFF762
:1072F000E4FEB8F10108F9D1DEE74FF4D5720821B8
:107300002046FFF769FF052814D184F80A8000257C
:10731000BFB22A4629212046FFF790FF0246D8B186
:107320004FF4FA6239462046FFF7CAFE0028F0D033
:107330004323CEE704256068FFF7BFFE013D15F04B
:10734000FF056072F7D1AA2804D10223A3724FF07F
:107350008045DDE72523BCE7A37A022B18D13A212B
:107360002046FFF739FF08B13723B2E76068FFF71F
:10737000A4FE00F0C000C02804BF0323A37260680D
:10738000FFF79BFE6068FFF798FE6068FFF795FEC9
:107390002046FFF7C8FE63683079B168B2891A8267
:1073A0001872D960012099E790D0030038B5837A2C
:1073B000032B18BF490215460A4611210446FFF760
:1073C0000BFF30B1302323702046FFF7ACFE0025C1
:1073D0000BE029464FF400722046FFF7B7FE054642
:1073E0000028F1D02046FFF79EFE284638BD10B594
:1073F000837A032B0A4618BF4A0212210446FFF77C
:10740000EBFE30B1312320462370FFF78CFE0020C5
:1074100010BD0120FCE710B500220C210446FFF747
:10742000DBFE30B1282320462370FFF77CFE0020CE
:1074300010BD2046FFF777FE0120F9E7F8B50446B6
:1074400016461F46FFF7D3FF68B10025ABB29F4237
:1074500006EB452109D94FF400722046FFF776FE6E
:1074600001350028F2D10020F8BD2046BDE8F840E3
:10747000FFF7D1BF38B5044615464068FFF71BFE3D
:107480004FF400726068294600F0E6F86068FF215A
:10749000FFF711FE6068FF21FFF70DFE6068FFF740
:1074A0000CFE607200F01F00052806D0572320460E
:1074B0002370FFF738FE002038BD0120FCE770B5CF
:1074C000837A032B18BF490215460A461821044641
:1074D000FFF782FE064630B1322323702046FFF7C5
:1074E00022FE00251FE02A46FE212046FFF7C2FFAC
:1074F0000028F3D04FF4FA612046FFF758FE054606
:1075000008B95A23E9E732460D212046FFF764FE09
:1075100008B12923E1E76068FFF7CFFD0028F8D123
:107520002046FFF700FE284670BD13B501914FF4C9
:10753000FA610446FFF73BFE019A30B95B232370E2
:107540002046FFF7F0FD002005E0FC212046FFF774
:1075500091FF0028F4D002B010BD10B5837A032B40
:107560000A4618BF4A0219210446FFF735FE30B11A
:10757000332320462370FFF7D6FD002010BD0120E5
:10758000FCE738B54FF4FA610446FFF710FE0546F4
:1075900030B9562323702046FFF7C5FD284638BD75
:1075A0006068FD21FFF787FDF5E7F8B5044616464C
:1075B0001F46FFF7D2FF70B10025BD4206EB452103
:1075C000204604D0FFF7B1FF28B10135F5E7BDE84B
:1075D000F840FFF7D6BF2046FFF7A5FD0020F8BD15
:1075E000014B01221A70704718E60320011D006844
:1075F00006F05CB910B504460175006806F012F992
:10760000207D012109F086FE207D0121BDE810408A
:1076100009F091BE006806F030B90068FF2106F05D
:10762000E5B9000037B51346074A00920025074C1C
:10763000006825700A46294606F0DEF92378002BFB
:10764000FCD0002003B030BDE1750B0018E603202C
:10765000006806F0CBB9000037B51346064A009221
:107660000025064C006825702A4606F0C5F92378E7
:10767000002BFCD003B030BDE1750B0018E60320F1
:1076800010B54218405C937854781B0443EA0423F5
:107690000343D07843EA006010BD4318405C5A7839
:1076A00040EA0220704710B42AB902685DF8044B22
:1076B0009268C9B210475DF8044BD2B207F003BD1F
:1076C00012B903689B681847D2B207F0FCBC10B52A
:1076D0000446FFF7F5FF2046BDE8104007F0DBBC8D
:1076E0000368C9B29B6818474FF4005202804221D8
:1076F000002210B5C0E90122C0E90322C0E9052239
:10770000C0E90722C0E90922C0E90B22C0E90D2225
:10771000C0E90F22C0E91122C0E91322C0E91522F5
:10772000C0E91722C0E91922C0E91B22C0E91D22C5
:10773000C0E91F22C0F8E810802180F8091100F18B
:10774000F401C0F814112549C0F8C42000F1F60472
:10775000C0E94612C0E92122C0E92322C0E925225E
:10776000C0E92722C0E92922C0E92B22C0E92D2245
:10777000C0E92F22C0E93E22C0E94022C0E94322ED
:10778000C0F8D020C0F8D82080F80821C0F8202107
:10779000C0E94941C0E94D21C0E951211049C0F873
:1077A0004C1140F66411A0F85011582180F85D1179
:1077B0000121C0E94B22C0E94F22C0F8542180F8D2
:1077C0006421C0F86821A0F86C21C0F8EC20C0F852
:1077D000F010A0F87221A0F8742110BD0000020280
:1077E00000026464F8B504460D46D0F8FC00A9B95F
:1077F000A8B1FCF754FC94F8E930C4F8FC50C4F884
:107800003451C4F8F85013B994F8EA3023B1204940
:10781000D4F8D40007F055FC012011E0B8B928468F
:10782000FCF73BFCC4F8FC00C4F8340160BB94F8DE
:10783000E930C4F8F80023B994F8EA300BB9002015
:10784000F8BD1449D4F8D40007F03BFCF7E708462C
:10785000FCF723FC064640B994F8E9301BB994F8CC
:10786000EA30002BEBD00C49ECE7D4E93E27AA42E2
:1078700028BF2A4639460AF055FC3846FCF70FFC6B
:10788000C4F8FC60C4F83461C4F8F850C4E700BF21
:10789000004A0C002B4A0C00564A0C000D2900F03F
:1078A000CD8009D8022900F0A780062900F0BE800B
:1078B000012916D000207047132900F0D480282910
:1078C00000F0DC801029F5D1102A00F0C98000F208
:1078D000BA80022A00F0C180032AEBD1D0F88800D8
:1078E00066E0262A54D8002AE4D0013A252AE1D8B5
:1078F00001A353F822F000BFAF790B00B5780B005D
:10790000B9790B00BD790B00C1790B00B5780B007C
:10791000C5790B00B5780B00C9790B00B5780B0061
:10792000B5780B00B5780B00B5780B00B5780B0077
:10793000B5780B00B5780B00CD790B00D1790B0031
:10794000D5790B00D9790B00B5780B00B5780B0011
:10795000DD790B00B5780B00B5780B00B5780B001E
:10796000B5780B00B5780B00B5780B00B5780B0037
:10797000B5780B00B5780B00E1790B00E5790B00C9
:10798000B5780B00B5780B00B5780B00E9790B00E2
:107990003C2A2DD005D8352A28D03B2A8AD1806CA4
:1079A00006E0602A26D0612A84D1806900E0C068A0
:1079B000003818BF012070470069F9E74069F7E710
:1079C000C069F5E7006AF3E7406AF1E7C06AEFE7EC
:1079D000006BEDE7406BEBE7806BE9E7C06BE7E737
:1079E000806AE5E7006CE3E7406CE1E7C06CDFE745
:1079F000006DDDE7406DDBE7342A15D006D8132A89
:107A00000BD0152A7FF456AFC06ED1E7722A06D08C
:107A1000732A7FF44FAF006ECAE7806EC8E7836DAC
:107A2000002B3BD1C06DC3E7406EC1E722B1082AED
:107A30007FF440AF406FBBE7006FB9E7032A7FF4E4
:107A400039AF806FB4E7142A05D0152A7FF432AF1E
:107A5000D0F88000ACE7C06FAAE7D0F88400A7E7B1
:107A6000D0F88C00A4E7602A05D0802A7FF422AFEA
:107A7000D0F8A0009CE7D0F89C0099E7012A07D035
:107A8000022A08D0002A7FF415AFD0F890008FE7C3
:107A9000D0F894008CE7D0F8980089E7012070476F
:107AA0000D2935D007D8022919D006292AD0012955
:107AB0000DD00020704713292FD0282934D0102949
:107AC000F7D1023AD2B2132AF3D81F4B04E0013A9D
:107AD000D2B2602AEDD81D4B33F812007047342A19
:107AE00027D007D8132A26D0152A14BF00204FF418
:107AF00039607047722A20D0732A14BF00204FF4D7
:107B000084707047E2B1082A14BF00200620704735
:107B1000032A14BF00201C207047602A12D0802A3C
:107B200014BF0020A4207047022AC2D8084B985CDA
:107B300070470C207047482070474FF4047070471E
:107B4000142070470820704716570C0054560C003C
:107B50003E570C0010B590F8EC10CA0715D4D0F8B9
:107B60006021594B22F0FF029A4201D18B070CD4BD
:107B700090F86131472B74D1B0F8623145F241146D
:107B8000A34204D111F0040F6BD0012070E045F244
:107B90004214A34202D111F0080FF5E745F2423436
:107BA000A34202D111F0100FEEE744F24714A342B2
:107BB00002D111F0200FE7E744F64C44A34202D172
:107BC00011F0400FE0E745F24C14A34202D111F04E
:107BD000800FD9E745F24E118B4204D190F8ED3079
:107BE00013F0010FD0E745F24E318B4204D190F8EB
:107BF000ED3013F0020FC7E745F250118B4204D16C
:107C000090F8ED3013F0040FBEE745F251118B42AE
:107C100004D190F8ED3013F0080FB5E745F252317A
:107C20008B4204D190F8ED3013F0100FACE744F222
:107C300053118B4204D190F8ED3013F0200FA3E7DD
:107C400045F253418B4204D190F8ED3013F0400FD0
:107C50009AE745F253618B4203D190F9ED30002B46
:107C600093DB1A4B9A4204D190F8EE0000F0010029
:107C700010BD174B9A4204D190F8EE00C0F34000BB
:107C8000F6E7144B9A4204D190F8EE00C0F380005E
:107C9000EEE7114B9A4204D190F8EE00C0F3C00019
:107CA000E6E70E4B9A4204D190F8EE00C0F30010C4
:107CB000DEE70B4B9A4204D190F8EE00C0F340107F
:107CC000D6E70020D4E700BF0044544D00524C4D8D
:107CD00000524D430054585400564C5700565447D8
:107CE000005A444190F85E312A2B57D190F85F3109
:107CF000472B53D1D0F86031294A23F0FF03934238
:107D000011D090F86121472A1AD1B0F86221A2F56A
:107D1000A241413989B2102907D922F0100145F258
:107D20004230814229D1012070471E4820FA01F1DA
:107D3000C907F8D422F4007245F253418A42F2D0C6
:107D4000194A9342EFD002F1764202F58032934213
:107D5000E9D0164A9342E6D002F1022202F57402FB
:107D60009342E0D002F1704202F500229342DAD051
:107D70000F481B1A58425841704744F247118A4233
:107D8000D1D044F64C418A42CDD045F24E318A42A0
:107D9000C9D044F253118A42C5D0CBE700207047C6
:107DA0000044544D03A8010000524C4D0054585457
:107DB000005A444110B590F8F010CA0715D4D0F815
:107DC0006021594B22F0FF029A4201D18B070CD45B
:107DD00090F86131472B74D1B0F8623145F241140B
:107DE000A34204D111F0040F6BD0012070E045F2E2
:107DF0004214A34202D111F0080FF5E745F24234D4
:107E0000A34202D111F0100FEEE744F24714A3424F
:107E100002D111F0200FE7E744F64C44A34202D10F
:107E200011F0400FE0E745F24C14A34202D111F0EB
:107E3000800FD9E745F24E118B4204D190F8F13012
:107E400013F0010FD0E745F24E318B4204D190F888
:107E5000F13013F0020FC7E745F250118B4204D105
:107E600090F8F13013F0040FBEE745F251118B4248
:107E700004D190F8F13013F0080FB5E745F2523114
:107E80008B4204D190F8F13013F0100FACE744F2BC
:107E900053118B4204D190F8F13013F0200FA3E777
:107EA00045F253418B4204D190F8F13013F0400F6A
:107EB0009AE745F253618B4203D190F9F130002BE0
:107EC00093DB1A4B9A4204D190F8F20000F00100C3
:107ED00010BD174B9A4204D190F8F200C0F3400055
:107EE000F6E7144B9A4204D190F8F200C0F38000F8
:107EF000EEE7114B9A4204D190F8F200C0F3C000B3
:107F0000E6E70E4B9A4204D190F8F200C0F300105D
:107F1000DEE70B4B9A4204D190F8F200C0F3401018
:107F2000D6E70020D4E700BF0044544D00524C4D2A
:107F300000524D430054585400564C570056544775
:107F4000005A4441D0F8D00010B103689B6818472C
:107F50007047000037B53D4B044604F25F151868C2
:107F600000909B88ADF804300522294668460AF047
:107F7000C9F828B9D4F8A43013B1012003B030BD3A
:107F8000334968460AF05CF90522294668460AF03A
:107F9000B9F818B9D4F8A830002BEED12D496846AD
:107FA0000AF04EF90522294668460AF0ABF818B9DE
:107FB000D4F8AC30002BE0D1274968460AF040F9EC
:107FC0000522294668460AF09DF818B9D4F8B03061
:107FD000002BD2D1214968460AF032F90522294600
:107FE00068460AF08FF818B9D4F8B430002BC4D121
:107FF0001B4968460AF024F90522294668460AF01A
:1080000081F818B9D4F8B830002BB6D115496846B4
:108010000AF016F90522294668460AF073F818B9DD
:10802000D4F8BC30002BA8D10F4968460AF008F9F3
:108030000522294668460AF065F828B9D4F8C00038
:10804000003818BF012099E7002097E7AC4A0C00E0
:10805000824A0C00884A0C008E4A0C00944A0C009C
:108060009A4A0C00A04A0C00A64A0C0037B5624B95
:10807000044604F25F15186800909B88ADF8043040
:108080000522294668460AF03DF878B9D4F8A430AC
:1080900063B1D3F8D4204AB1D3F8CC20002A40F001
:1080A000A380D3F8D030002B40F09E80534968461F
:1080B0000AF0C6F80522294668460AF023F878B97E
:1080C000D4F8A83063B1D3F8D4204AB1D3F8CC2087
:1080D000002A40F08980D3F8D030002B40F0848013
:1080E000474968460AF0ACF80522294668460AF076
:1080F00009F868B9D4F8AC3053B1D3F8D4203AB108
:10810000D3F8CC20002A6FD1D3F8D030002B6BD11C
:108110003C4968460AF094F805222946684609F069
:10812000F1FF68B9D4F8B03053B1D3F8D4203AB1E4
:10813000D3F8CC20002A57D1D3F8D030002B53D11C
:10814000314968460AF07CF805222946684609F05C
:10815000D9FF68B9D4F8B43053B1D3F8D4203AB1C8
:10816000D3F8CC20002A3FD1D3F8D030002B3BD11C
:10817000264968460AF064F805222946684609F04F
:10818000C1FF58B9D4F8B83043B1D3F8D4202AB1DC
:10819000D3F8CC2042BBD3F8D0302BBB1C49684667
:1081A0000AF04EF805222946684609F0ABFF40B9AF
:1081B000D4F8BC302BB11A6F1AB19A6EA2B9DB6E2B
:1081C00093B9144968460AF03BF8052229466846E7
:1081D00009F098FF58B9D4F8C03053B1186F20B1E6
:1081E0009A6E0AB9D86E00B1012003B030BD0020EC
:1081F000FBE71846F9E700BFAC4A0C00824A0C00C6
:10820000884A0C008E4A0C00944A0C009A4A0C00D2
:10821000A04A0C00A64A0C0037B5384B044604F2BD
:108220005F15186800909B88ADF804300522294638
:10823000684609F067FF20B9D4F8A400013003B004
:1082400030BD2F49684609F0FBFF052229466846E4
:1082500009F058FF10B9D4F8A800EFE7294968469B
:1082600009F0EEFF05222946684609F04BFF10B9D8
:10827000D4F8AC00E2E72449684609F0E1FF0522A2
:108280002946684609F03EFF10B9D4F8B000D5E79A
:108290001E49684609F0D4FF05222946684609F0C0
:1082A00031FF10B9D4F8B400C8E71949684609F09D
:1082B000C7FF05222946684609F024FF10B9D4F803
:1082C000B800BBE71349684609F0BAFF0522294602
:1082D000684609F017FF10B9D4F8BC00AEE70E49A4
:1082E000684609F0ADFF05222946684609F00AFFF5
:1082F00010B9D4F8C000A1E70020A0E7AC4A0C00F8
:10830000824A0C00884A0C008E4A0C00944A0C00E9
:108310009A4A0C00A04A0C00A64A0C0037B5384B0C
:10832000044604F25F15186800909B88ADF804308D
:1083300005222946684609F0E5FE20B9D4F8A400D4
:10834000023003B030BD2F49684609F079FF05229D
:108350002946684609F0D6FE10B9D4F8A800EFE720
:108360002949684609F06CFF05222946684609F04C
:10837000C9FE10B9D4F8AC00E2E72449684609F018
:108380005FFF05222946684609F0BCFE10B9D4F803
:10839000B000D5E71E49684609F052FF052229467C
:1083A000684609F0AFFE10B9D4F8B400C8E719491F
:1083B000684609F045FF05222946684609F0A2FEF5
:1083C00010B9D4F8B800BBE71349684609F038FF84
:1083D00005222946684609F095FE10B9D4F8BC007C
:1083E000AEE70E49684609F02BFF0522294668468C
:1083F00009F088FE10B9D4F8C000A1E70020A0E77A
:10840000AC4A0C00824A0C00884A0C008E4A0C00D0
:10841000944A0C009A4A0C00A04A0C00A64A0C0090
:1084200037B5394B044604F25F15186800909B88F5
:10843000ADF8043005222946684609F063FE20B9EC
:10844000D4F8A400663003B030BD3049684609F066
:10845000F7FE05222946684609F054FE10B9D4F803
:10846000A800EFE72A49684609F0EAFE05222946F6
:10847000684609F047FE10B9D4F8AC00E2E7254998
:10848000684609F0DDFE05222946684609F03AFEF5
:1084900010B9D4F8B000D5E71F49684609F0D0FEFE
:1084A00005222946684609F02DFE10B9D4F8B4001B
:1084B000C8E71A49684609F0C3FE052229466846FE
:1084C00009F020FE10B9D4F8B800BBE7144968469B
:1084D00009F0B6FE05222946684609F013FE18B9D0
:1084E000D4F8BC003430AEE70E49684609F0A8FE67
:1084F00005222946684609F005FE10B9D4F8C000E7
:10850000F0E700209FE700BFAC4A0C00824A0C0055
:10851000884A0C008E4A0C00944A0C009A4A0C00BF
:10852000A04A0C00A64A0C0037B5394B044604F2A9
:108530005F15186800909B88ADF804300522294625
:10854000684609F0DFFD20B9D4F8A400673003B015
:1085500030BD3049684609F073FE05222946684659
:1085600009F0D0FD10B9D4F8A800EFE72A49684611
:1085700009F066FE05222946684609F0C3FD10B9D8
:10858000D4F8AC00E2E72549684609F059FE052217
:108590002946684609F0B6FD10B9D4F8B000D5E711
:1085A0001F49684609F04CFE05222946684609F035
:1085B000A9FD10B9D4F8B400C8E71A49684609F013
:1085C0003FFE05222946684609F09CFD10B9D4F803
:1085D000B800BBE71449684609F032FE0522294677
:1085E000684609F08FFD18B9D4F8BC003530AEE705
:1085F0000E49684609F024FE05222946684609F01E
:1086000081FD10B9D4F8C000F0E700209FE700BF5B
:10861000AC4A0C00824A0C00884A0C008E4A0C00BE
:10862000944A0C009A4A0C00A04A0C00A64A0C007E
:1086300037B5394B044604F25F15186800909B88E3
:10864000ADF8043005222946684609F05BFD28B9DB
:10865000D4F8A430D3F8D40003B030BD2F49684615
:1086600009F0EEFD05222946684609F04BFD10B9D8
:10867000D4F8A830EEE72A49684609F0E1FD052262
:108680002946684609F03EFD10B9D4F8AC30E1E760
:108690002449684609F0D4FD05222946684609F0B8
:1086A00031FD10B9D4F8B030D4E71F49684609F05D
:1086B000C7FD05222946684609F024FD10B9D4F803
:1086C000B430C7E71949684609F0BAFD05222946C2
:1086D000684609F017FD10B9D4F8B830BAE7144964
:1086E000684609F0ADFD05222946684609F00AFDF5
:1086F00018B9D4F8BC30186FAEE70E49684609F0D7
:108700009FFD05222946684609F0FCFC10B9D4F803
:10871000C030F0E700209FE7AC4A0C00824A0C0012
:10872000884A0C008E4A0C00944A0C009A4A0C00AD
:10873000A04A0C00A64A0C0037B53A4B044604F296
:108740005F15186800909B88ADF804300522294613
:10875000684609F0D7FC30B9D4F8A430D3F8D40077
:10876000013003B030BD3049684609F069FD05228B
:108770002946684609F0C6FC10B9D4F8A830EDE7E0
:108780002A49684609F05CFD05222946684609F039
:10879000B9FC10B9D4F8AC30E0E72549684609F0D7
:1087A0004FFD05222946684609F0ACFC10B9D4F803
:1087B000B030D3E71F49684609F042FD052229463B
:1087C000684609F09FFC10B9D4F8B430C6E71A49DE
:1087D000684609F035FD05222946684609F092FCF5
:1087E00010B9D4F8B830B9E71449684609F028FD43
:1087F00005222946684609F085FC18B9D4F8BC3032
:10880000186FADE70E49684609F01AFD05222946A2
:10881000684609F077FC10B9D4F8C030F0E70020C2
:108820009FE700BFAC4A0C00824A0C00884A0C004B
:108830008E4A0C00944A0C009A4A0C00A04A0C0084
:10884000A64A0C0013B5304B044604F25F141868B6
:1088500000909B88ADF8043005222146684609F057
:1088600051FC10B9642002B010BD2849684609F0D7
:10887000E7FC05222146684609F044FC0028F1D0B7
:108880002349684609F0DCFC05222146684609F0C8
:1088900039FC0028E6D01F49684609F0D1FC0522C2
:1088A0002146684609F02EFC0028DBD01A496846AC
:1088B00009F0C6FC05222146684609F023FC002881
:1088C000D0D01649684609F0BBFC0522214668460F
:1088D00009F018FC0028C5D01149684609F0B0FC21
:1088E00005222146684609F00DFC48B10D4968464D
:1088F00009F0A6FC05222146684609F003FC08B9E8
:108900003220B0E70020AEE7AC4A0C00824A0C00EF
:10891000884A0C008E4A0C00944A0C009A4A0C00BB
:10892000A04A0C00A64A0C0037B5384B044604F2A6
:108930005F15186800909B88ADF804300522294621
:10894000684609F0DFFB18B9D4F8A40003B030BDC5
:108950002F49684609F074FC05222946684609F04B
:10896000D1FB10B9D4F8A800F0E72A49684609F00D
:1089700067FC05222946684609F0C4FB10B9D4F803
:10898000AC00E3E72449684609F05AFC0522294671
:10899000684609F0B7FB10B9D4F8B000D6E71F4914
:1089A000684609F04DFC05222946684609F0AAFBF5
:1089B00010B9D4F8B400C9E71949684609F040FC79
:1089C00005222946684609F09DFB10B9D4F8B80085
:1089D000BCE71449684609F033FC0522294668467D
:1089E00009F090FB10B9D4F8BC00AFE70E49684617
:1089F00009F026FC05222946684609F083FB10B9D8
:108A0000D4F8C000A2E70020A0E700BFAC4A0C00E9
:108A1000824A0C00884A0C008E4A0C00944A0C00D2
:108A20009A4A0C00A04A0C00A64A0C0070470000AD
:108A300038B513880C4D012B14460ED10A0202F4EE
:108A400040722A8001332380FFF7F0FF20882B88B3
:108A5000984214BF0320002038BD022BF2D12A888F
:108A60000A430632EDE700BF1AE6032030B54A7824
:108A70000D784C882A4454FA82F000EB142355FAFE
:108A800082F203F0FF0352FA80F20B7313444B732C
:108A9000002293B29C420AD98B68087B9B5C0344FA
:108AA000487BDBB20B7303444B730132F1E730BDFB
:108AB00090F85A31194490F85B31C9B280F85A11D4
:108AC000194480F85B1170472DE9F74FB1F802B0F7
:108AD0000BF1080B1FFA8BFB4FF00008ABF1020300
:108AE00004460D46DA46C1460093BAF1000F00F085
:108AF000A680667894F8E810D4F8C800564528BFD8
:108B00005646AAEB060A1FFA8AFABAF1010F02BF0B
:108B100006F1FF36B6B24FF0020A08F025F9B9F1B6
:108B2000000F5CD1D4F8C8000368B5219B68984752
:108B3000D4F8C800036862219B689847D4F8C8003D
:108B4000297803689B689847D4F8C8006978036857
:108B50009B689847A978D4F8C800FEF7C1FD6988DA
:108B6000D4F8C800090AFEF7BBFD4B466A88D4F862
:108B7000C8001FFA83F909F106074A45BFB20DD9AB
:108B8000BE420BD9AA680168019342448F68D15C48
:108B9000B847019B0133E9E7B946A6E7023EC8445E
:108BA000B7421FFA88F80CD10368297B9B68984765
:108BB000D4F8C800697B03689B68984709F10807E7
:108BC000BFB25F45E8D294F87411D4F8C80008F039
:108BD000D2F80028E0D00C2003B0BDE8F08F0022CE
:108BE00091B219FA82F78E42D4F8C800BFB210D9F8
:108BF000B5F802E008EB020C531CF445019308DAC7
:108C0000A968026811F80C1092689047019B1A46F7
:108C1000E6E7009B88449F421FFA88F8D1D1023EC4
:108C2000B242CED10368297B9B689847D4F8C8002C
:108C3000697B03689B6898471FFA8BF7C1E7D4F8F4
:108C4000C80008F09CF80028C6D0C4E770B50546F7
:108C5000D0F8CC0003680C469B68B5219847D5F83E
:108C6000CC00036862219B689847D5F8CC00217836
:108C700003689B689847D5F8CC00617803689B68C7
:108C80009847D5F8CC00A17803689B689847D5F839
:108C9000CC0061880368090A9B6898470026D5F8CC
:108CA000CC0061880368B2B291429B6804D9A16884
:108CB000895C98470136F2E7217B9847D5F8CC00CC
:108CC000617B0368BDE870409B68184710B5044697
:108CD000D0F8DC0004F08AFE94F8083194F80921F9
:108CE0009A420BD9FF2801D122783AB1D4F8042155
:108CF000D05494F80831013384F8083110BD0000D5
:108D00002DE9FF41D0F8043104460D467BB990F8B7
:108D1000E93023B990F8EA30002B00F0CA806649A8
:108D2000D4F8D40004B0BDE8F04106F0B0B9D0F8F2
:108D3000E430624A02930026012380F80861694604
:108D4000D0F8DC00ADF80C3000928DF8046004F02F
:108D5000ADFD94F8E000314608F0EDFAB52120466B
:108D6000FFF7B4FF62212046FFF7B0FF29782046C5
:108D7000FFF7ACFF69782046FFF7A8FFA9782046E7
:108D8000FFF7A4FF69882046090AFFF79FFF94F8C0
:108D9000E930002B42D04A49D4F8D40006F077F9E4
:108DA0001022D4F8D400B521FEF78AFC4549D4F846
:108DB000D40006F06CF91022D4F8D4006221FEF73A
:108DC0007FFC4049D4F8D40006F061F910222978DC
:108DD000D4F8D400FEF774FC3A49D4F8D40006F075
:108DE00056F910226978D4F8D400FEF769FC3549A9
:108DF000D4F8D40006F04BF91022A978D4F8D400A6
:108E000006F061F92F49D4F8D40006F040F96988DA
:108E1000D4F8D4001022090A06F055F9DFF8A4802E
:108E200000266A88B3B29A4216D91F46AB6820461C
:108E3000D95DFFF74BFF94F8E9305BB14146D4F8B8
:108E4000D40006F024F9AB68D4F8D400D95D102220
:108E5000FEF736FC0136E4E7297B2046FFF736FFB4
:108E6000697B2046FFF732FF94F8E000012108F00B
:108E700062FAD4F8DC0004F000FD94F8E930C3B1E4
:108E80001049D4F8D40006F002F9297BD4F8D400B4
:108E90001022FEF715FC0B49D4F8D40006F0F7F8C1
:108EA000697BD4F8D400102204B0BDE8F041FEF78D
:108EB0000EBC04B0BDE8F081B24A0C00C4480C00FE
:108EC000E74A0C00D2590C00F8B590F8E930044696
:108ED0000D461646002B00F0828090F84C714049F8
:108EE000D0F8D40006F0D3F82B78012B3CD13D49C3
:108EF000D4F8D40006F0CBF83B49D4F8D40006F0FF
:108F0000C6F82B8840F20172934245D13749D4F814
:108F1000D40006F0BCF83649D4F8D40006F0B7F80F
:108F20006988D4F8D400102206F0CDF8012F01D1C1
:108F3000002E49D02F49D4F8D4002F4F06F0A7F8BF
:108F400000266A88D4F8D400B3B29A4241D939468F
:108F500006F09DF8B3B2A968D4F8D400C95C102219
:108F6000FEF7AEFB0136ECE7052BD4F8D40001D1B7
:108F70002249BFE7062B01D12149BBE70A2B01D1CA
:108F80002049B7E7204906F082F82978D4F8D400C0
:108F90001022FEF795FBAFE740F606029342D4F8A5
:108FA000D40001D11949B4E740F60612934201D129
:108FB0001749AEE7144906F06AF86978D4F8D40086
:108FC0001022FEF77DFBA6E71249D4F8D40006F084
:108FD0005EF8D4F8D400BDE8F84006F05CB8F8BDFF
:108FE000F84A0C00FD4A0C000D4B0C00124B0C0013
:108FF000204B0C00294B0C00D2590C00014B0C00EB
:10900000054B0C00094B0C007E4D0C00164B0C0060
:109010001B4B0C00334B0C0038B5B0F86C510446B8
:1090200055B990F8E9300BB9002038BD1A49D4F889
:10903000D40006F046F8F7E7D0F868312BB190F885
:10904000E930002BF0D01549F1E72846FBF725F869
:1090500094F8E930C4F8680130B91BB994F8EA30E3
:10906000002BE1D00E49E2E77BB10E49D4F8D400E1
:1090700006F00DF8D4F8D450B4F86C110A22284642
:1090800006F021F8284606F006F80023A4F86E3111
:10909000A4F870310120C8E7454B0C00964B0C003A
:1090A000D94B0C00FD4B0C00B0F86E31B0F87021BC
:1090B00093423BBFB0F86C01C018981A801A80B276
:1090C000704708B50146FFF7EFFFB1F86C31181A89
:1090D00080B208BD2DE9F041B0F86E31B0F86C51A6
:1090E000ED1AADB2954228BF154616460446D0F893
:1090F0006801771B2A461844BFB2884609F012F867
:109100009FB1D4F868013A4608EB050109F00AF866
:10911000A4F86E712046FFF7C7FFB4F8723183429E
:1091200038BFA4F87201BDE8F081B4F86E2116448E
:10913000A4F86E61EEE7000037B5D0F86831044658
:109140000D4613B1B0F86C3153B994F8E90028B169
:109150002449D4F8D40005F0B4FF002003B030BD9A
:10916000FFF7AFFF6B8808339BB2834208D994F8AE
:10917000E9301BB994F8EA000028EFD01A49E8E773
:1091800046F2B523022269462046ADF80030FFF7CB
:10919000A1FF012229462046FFF79CFF0122A918C2
:1091A0002046FFF797FF6B888DF8043002221B0AD8
:1091B00001A920468DF80530FFF78CFF6A88A96861
:1091C0002046FFF787FF012205F10C012046FFF73B
:1091D00081FF2046012205F10D01FFF77BFF0120F1
:1091E000BCE700BF234C0C004B4C0C002DE9F84FA2
:1091F0000E780D2E04460D4601F0288209D8022E65
:1092000000F09A87062E01F0CC81012E4FD0BDE8E8
:10921000F88F132E01F0EB83282E01F0CA84102E54
:10922000F5D10B688E4A23F0FF03934241F06A8226
:10923000C66F002EEBD0A8680021FEF721FA7060FF
:10924000AA68E36F12791A72AA68E36F52795A72A8
:10925000AA68E36F92799A72A868E66F0821FEF710
:109260000FFAF060A868E66F0C21FEF716FA30825C
:10927000A868E66F0E21FEF710FA7082E36F4FF0D8
:10928000FF325A61E36F1A6A7AB1197808070CD471
:10929000191D143351F8040B42F8040B9942F9D10B
:1092A000E26F137843F008031370E36F3DE00B683F
:1092B0006C4A23F0FF03934241D1C668002EA6D02A
:1092C000A8680021FEF7DCF97060A868E668042150
:1092D000FEF7D6F9B060A868E6680821FEF7D0F975
:1092E000F060A868E6680C21FEF7CAF93061A8684A
:1092F000E6681021FEF7C4F97061E3684FF0FF32B1
:109300009A61E3685A6A7AB1197809070CD4191D71
:10931000183351F8040B42F8040B9942F9D1E26872
:10932000137843F008031370E3681B785F077FF539
:109330006EAF29462046BDE8F84FFFF7FDBE4A4A0A
:1093400093423DD10669002E3FF461AFA868002129
:10935000FEF796F97060AA68236912791A72AA68F2
:10936000236952795A72AA68236992799A72AA6813
:109370002369D279DA72A86826690821FEF780F994
:10938000F060A86826690C21FEF77AF9306123693C
:109390004FF0FF325A6123691A6A7AB119780E07C1
:1093A0000CD4191D143351F8040B42F8040B9942E4
:1093B000F9D12269137843F0080313702369B4E7E5
:1093C0002A4A934254D14669002E3FF420AFA86840
:1093D0000021FEF755F97060A86866690421FEF760
:1093E0005CF93081A86866690621FEF756F970813C
:1093F000A86866690821FEF750F9B081A868666917
:109400000A21FEF74AF9F081A86866690C21FEF787
:1094100044F93082A86866690E21FEF73EF9708231
:10942000A86866691021FEF738F9B08263694FF0C9
:10943000FF329A6163695A6A7AB1197808070CD4C5
:10944000191D183351F8040B42F8040B9942F9D155
:109450006269137843F008031370636965E700BF1E
:10946000001410000001140000031000000412009A
:109470008C4A934249D1C669002E3FF4C8AEA86811
:109480000021FEF7FDF87060AA68E36912791A728C
:10949000A868E6690821FEF7F3F8F060A868E669B5
:1094A0000C21FEF7EDF83061A868E6691021FEF79F
:1094B000E7F87061A868E6691421FEF7E1F8B06189
:1094C000A868E6691821FEF7DBF8F061A868E6698C
:1094D0001C21FEF7D5F83062E3694FF0FF325A6283
:1094E000E3691A6B7AB1197809070CD4191D243372
:1094F00051F8040B42F8040B9942F9D1E269137850
:1095000043F008031370E3690FE7674A934240F0A2
:10951000CD80066A002E3FF47AAEA8680021FEF7DF
:10952000AFF87060A868266A0421FEF7B6F83081AB
:10953000AA68236A92799A72AA68236AD279DA723F
:10954000AA68236A127A1A73AA68236A527A5A732B
:10955000AA68236A927A9A73AA68236AD27ADA731B
:109560000C21A868266AFEF78BF83061A868266A85
:109570001021FEF785F87061AA68236A127D1A76B9
:10958000AA68236A527D5A76AA68236A927D9A76DF
:10959000AA68236AD27DDA76A868266A1821FEF7BF
:1095A0006FF8F061A868266A1C21FEF769F830623E
:1095B000A868266A2021FEF763F87062A868266A08
:1095C0002421FEF75DF8B062A868266A2821FEF71C
:1095D00057F8F062266AA8682C21FEF751F830632C
:1095E000A868266A3021FEF74BF87063A868266ADF
:1095F0003421FEF745F8B063A868266A3821FEF7E3
:109600003FF8F063A868266A3C21FEF739F8306419
:10961000A868266A4021FEF733F87064A868266AB5
:109620004421FEF72DF8B064A868266A4821FEF7A9
:1096300027F8F064A868266A4C21FEF72EF8A6F8F1
:109640005000AA68236A92F84E2083F85220266AB6
:10965000A8685421FEF714F8B065A868266A582156
:10966000FEF71BF8A6F85C00A868266A5A21FEF7E8
:1096700014F8A6F85E00226A4FF0FF331366226AE0
:109680005366216A086F58B10B781B0708D45C2217
:10969000043108F047FD226A137843F00803137081
:1096A000236A42E60005200000075C008E4A9342D0
:1096B00037D1436A002B3FF4AAAD8A6812781A7139
:1096C000466AA8680421FDF7DBFFB060A868666AF7
:1096D0000821FDF7D5FFF060A868666A0C21FDF748
:1096E000CFFF3061A868666A1021FDF7C9FF70617D
:1096F000636A4FF0FF329A61636A5A6A7AB11978E5
:109700000F070CD4191D183351F8040B42F8040B41
:109710009942F9D1626A137843F008031370636ABF
:1097200003E6724A934239D1C66A002E3FF46FAD08
:10973000A8680021FDF7A4FF7060A868E66A04210C
:10974000FDF79EFFB060A868E66A0821FDF798FF64
:10975000F060A868E66A0C21FDF792FF3061A86806
:10976000E66A1021FDF78CFF7061E36A4FF0FF326B
:109770009A61E36A5A6A7AB119780E070CD4191DF6
:10978000183351F8040B42F8040B9942F9D1E26AFC
:10979000137843F008031370E36AC6E5544A934212
:1097A00051D1066B002E3FF432ADA8680021FDF7C1
:1097B00067FF7060A868266B0421FDF761FFB06049
:1097C000A868266B0821FDF75BFFF060A868266B90
:1097D0000C21FDF755FF3061A868266B1021FDF7BD
:1097E0004FFF7061A868266B1421FDF749FFB06137
:1097F000A868266B1821FDF743FFF061A868266B67
:109800001C21FDF73DFF3062A868266B2021FDF783
:1098100037FF7062236B4FF0FF329A62236B5A6BF3
:109820007AB1197808070CD4191D283351F8040BA4
:1098300042F8040B9942F9D1226B137843F00803E4
:109840001370236B71E52B4A934255D1436B002B68
:109850003FF4DDAC8A6812781A71466BA86804215F
:10986000FDF70EFFB060A868666B0821FDF708FFE2
:10987000F060A868666B0C21FDF702FF3061A868F4
:10988000666B1021FDF7FCFE7061AA68636B127DA8
:109890001A76AA68636B527D5A76AA68636B927DCA
:1098A0009A76AA68636BD27DDA76666BA86818210F
:1098B000FDF7E6FEF061636B4FF0FF321A62636BF7
:1098C000DA6A7AB1197809070CD4191D203351F8D6
:1098D000040B42F8040B9942F9D1626B137843F000
:1098E00008031370636B20E50009140000111400D5
:1098F0000012240000131C00304A934260D1836B95
:10990000002B3FF484AC8A6812781A718A68836BE2
:10991000D278DA71866BA8680421FDF7B1FEB060D9
:10992000A868A66B0821FDF7ABFEF060A868A66BDF
:109930000C21FDF7A5FE3061A868A66B1021FDF78C
:109940009FFE7061A868A66B1421FDF799FEB061B7
:10995000AA68A36B127E1A77AA68A36B527E5A7705
:10996000AA68A36B927E9A77AA68A36BD27EDA77F5
:10997000A868A66B1C21FDF783FE3062A868A66B61
:109980002021FDF77DFE7062A36B4FF0FF329A62DB
:10999000A36B5A6B7AB119780F070CD4191D2833B1
:1099A00051F8040B42F8040B9942F9D1A26B1378D9
:1099B00043F008031370A36BB7E400BF0014240046
:1099C000A14A934240F0F080C66B002E3FF41FACDA
:1099D000A8680021FDF754FE7060AA68E36B127955
:1099E0001A72AA68E36B52795A72A868E66B06216C
:1099F000FDF753FE7081AA68E36B127A1A73AA68A6
:109A0000E36B527A5A73AA68E36B927A9A73AA68E4
:109A1000E36BD27ADA73AA68E36B127B1A74E66B93
:109A2000A8681021FDF72CFE7061A868E66B142170
:109A3000FDF726FEB061AA68E36B127E1A77AA686A
:109A4000E36B527E5A77AA68E36B927E9A77AA6894
:109A5000E36BD27EDA77A868E66B1C21FDF710FE77
:109A60003062A868E66B2021FDF70AFE7062A868E4
:109A7000E66B2421FDF704FEB062A868E66B28219E
:109A8000FDF7FEFDF062E66BA8682C21FDF7F8FDFE
:109A90003063A868E66B3021FDF7F2FD7063A868BB
:109AA000E66B3421FDF7ECFDB063A868E66B382166
:109AB000FDF7E6FDF063A868E66B3C21FDF7E0FDED
:109AC0003064A868E66B4021FDF7DAFD7064A86891
:109AD000E66B4421FDF7D4FDB064A868E66B48212D
