:02000002B0004C
:1040000000400B00CC680C00000006001700050201
:084010000401A30F00000000F1
:0440180074480C00DC
:1040200009480A49884208B505D0094A824202D0A7
:10403000121A0EF04FFB0748074A0021121A0EF021
:1040400071FB014808BD00BF14DB0320A8660C000B
:1040500010DD032010DD0320EDE7032070B5074ECF
:10406000074C0DF0ABFBA41BA4080025AC4200D10B
:1040700070BD56F8043B98470135F7E75C660C00C5
:1040800080660C0000F098BE08B501F0E7FFBDE8BF
:1040900008400DF04BBB09F083BD09F081BD09F06C
:1040A00087BD09F085BD000008B5034A03490C200F
:1040B00009F060FCFEE700BFA5D50B0088480C00A6
:1040C0000078B0FA80F04009704701230370704710
:1040D00070477047006A0368DB6818477047037CC5
:1040E00013F008031EBFC36A406A1B1A002BACBF43
:1040F00018466FF000407047154B1A78154B1B7827
:104100009B0043EA4202144B1B781343134A127874
:1041100043EAC203124A127843EA0213114A1278A0
:1041200043EA8213104A127843EAC2130F4A127804
:1041300043EA02230E4A127843EA42230D4A1278D8
:1041400043EA82230C4A13800C4B01221A707047F9
:1041500064DD03201CDD032051DD0320A0E00320EB
:1041600099DD0320C8DE0320C1DE032050DD0320DB
:104170002CDD032054DD0320A0E50320C0E503204F
:10418000704710B510210446FFF78BFF204610BD85
:1041900010B534210446FFF784FF204610BD436963
:1041A00013B183690C301847704713B500210446DA
:1041B000084609F09FF90023204601A9019309F060
:1041C000B1F9019C0CB1012323710021012009F0F8
:1041D00091F92CB1236820469B68984700232371EE
:1041E00002B010BD103002F0E5BB103002F0C6BACC
:1041F00007B501220DF10701103002F011FA012874
:104200000CBF9DF807004FF0FF3003B05DF804FBD2
:10421000103002F059BC07B501228DF8071010309C
:104220000DF1070102F050FC03B05DF804FB012A18
:1042300002D1016000207047022A04BF0B680360AE
:10424000F8E70368184707B5806828B10023CDE96F
:104250000013022109F06EF903B05DF804FB036856
:10426000C9B29B681847000010B5054B00220446F0
:10427000114640F8043B09F09DFB204610BD00BFED
:10428000E44E0C0010B50446FFF7EEFF2046202157
:10429000FFF707FF204610BD0A4B10B50446036028
:1042A0000BF08EFE21460CF0C6F80DF0F7F90DF07C
:1042B000E9F92046044B40F8043B0BF057FF204639
:1042C00010BD00BFF84E0C00CC4E0C0010B50446DB
:1042D000FFF7E2FF20462421FFF7E3FE204610BD52
:1042E00073B5064614460D4600222146FFF7ABFF84
:1042F000B06830B10023CDE900532246194609F0D9
:1043000019F902B070BD000038B512200DF0F0FAB6
:10431000084D0446012230B107480021FFF7E0FFB5
:1043200001232B7038BD01460348FFF78CFF2C702A
:10433000F8E700BF5AE503205CE5032008B512202A
:104340000DF0D6FA18B100211C200DF0B8FABDE826
:104350000840024801220021FFF775BF5CE50320F9
:104360000EB403B503AB002153F8042B01930CF0FA
:1043700048FD02B05DF804EB03B0704773B5044626
:1043800008462279A36832B1A3B90B4902B0BDE84F
:1043900070400CF0F5BC094A267B094D0949647B45
:1043A000012E18BF2946CDE900140749FFF7D8FFB1
:1043B00002B070BD054AEFE7AE480C006B600C0020
:1043C000AA480C00A6480C00C4480C009D480C00EC
:1043D0000EB403B503AB012153F8042B01930CF089
:1043E00010FD02B05DF804EB03B0704770B52B4DC3
:1043F0002B783BBB2A4E33785A2B23D0294C237879
:104400005A2B1FD009F0DEF8274B1B68C01AB0F5F5
:104410007A6F17D9254B26485A211970254B3170D0
:104420001970254B217001221A700CF032FD217891
:1044300022480CF02EFD0DF031F921494FF47A623B
:10444000FFF7C6FF1F4E34783CBB2B782BB309F027
:10445000B9F81D4B1B68C01AB0F57A6F1DD91B4BFC
:104460002C701C700E4B34705A2119700F4B0D4C70
:104470001970104B0E4819700F4B217001221A70E1
:104480000CF007FD21780D480CF003FD0DF006F946
:104490000F494FF47A62FFF79BFF70BD99DD03204F
:1044A00058E5032059E50320DCDD032008DE032066
:1044B00030DD0320B1E00320E4E5032040DD0320EC
:1044C000E1480C00D4E50320E4DD0320A1E0032053
:1044D0002B490C0010B58368044613B10322014632
:1044E0009847204610BD000038B5104B0360836824
:1044F0000446A3B16FF000410022FFF7A4FEA068BC
:10450000002109F03FF8237903F0FF0513B108F00B
:10451000E9FFF8E7A068294608F0FCFFA56004F170
:104520000C00FFF7D7FF204638BD00BFB84E0C0087
:1045300010B50446FFF7D8FF20461C21FFF7B1FD58
:10454000204610BDF0B58C4600251449057104467F
:104550008560016092E8030085B002AF04F10C06AB
:1045600087E8030096E8030082E8030097E8030069
:1045700086E803009168A0696161D1689560D060A8
:10458000A161CDE90035064A2346614604F10800E1
:1045900008F0B8FF204605B0F0BD00BFB84E0C00D3
:1045A000AB410B0010B504460022407C09F03CFAF8
:1045B000637C0F2B18BF208310BD000010B52E4B5D
:1045C0001A782E4B62B15A7C0F2A1CBF02225A74F1
:1045D0004FF47F425A611E212848FFF7E3FF10BDC8
:1045E000274A127832B15A7C0F2A1CBF02225A7411
:1045F000244AEFE7244A127832B15A7C0F2A1CBFB2
:1046000002225A74FF22E5E7204A127832B15A7C1E
:104610000F2A1CBF02225A741D4ADBE71D4A12787A
:104620001ABB1D4A1278022A22D0012A0BBF0A2186
:10463000142102200120194A1478194A1278920094
:1046400042EA4402174C24782243013AD2B2062AA5
:104650009CBF154C54F822205C7C88BF4FF47F022D
:104660000F2C18BF58745A61B6E714210220E2E7F4
:1046700014210320DFE700BF5AE5032080E5032073
:10468000C1E5032000FFFF00A0E0032078E5032040
:104690000060FF00C8DE032099DD032064DD0320F5
:1046A0001CDD032051DD0320EC4F0C0013460A46AD
:1046B0000149096802F0BBB914E6032038B509F0D6
:1046C000E7F9374C58B30123237008F07BFF354BD3
:1046D000354C1B6841F28832C01A904232D8002B08
:1046E00030D00123237008F06DFF304B304D1B6834
:1046F00041F28832C01A904236D8002B34D00123C0
:104700002C4C2B7023784BB108F05CFF2378C01A37
:1047100042F21073984284BF0023237038BD23787F
:10472000002BD2D02448037C2BB9244944F2022226
:104730001030FFF7BBFF22491F480522FFF748FE54
:104740000023C1E723786BB11B48037C2BB91B49BD
:1047500044F202221030FFF7A9FF1A491648052239
:10476000FFF736FE0023BDE72A7872B16BB112481D
:10477000037C2BB9114944F202221030FFF796FF57
:1047800011490D480522FFF723FE09F0E1FD09F06C
:104790003DFE10B12378002BB1D10023B0E700BF5C
:1047A00051DD032068DD032064DD032028DD0320C4
:1047B0001CDD0320C1E5032068DE0320BADD0320F1
:1047C00085490C00D5490C00264A0C0030B585B04F
:1047D0001B4B009313798DF804309368029300F516
:1047E0008C659389ADF80C3004460A466B4600F29E
:1047F0006C41284603F04CF810B9002005B030BDDC
:10480000256004F23C45284602F00AF901212046C1
:1048100002F0E9FE014668B12146284601F0FAFEA1
:104820000028EAD094F83C3413F0700FE5D0054B23
:104830001D60E3E7204602F0D6FE0028ECD1DCE75D
:10484000A44E0C0014E603202DE9F0478EB08378C7
:10485000422B04AF04468A4645D1C378312B40F041
:10486000D48020460DF0E9FF013820F00700E8462B
:10487000ADEB000D20460DF0E0FF04AD284400260E
:1048800000F8096C2046FE733E81BE720DF0D5FF24
:10489000204410F8023C3B7220460DF0CEFF20442D
:1048A000314610F8013C7B72102207F108000EF02F
:1048B000EFFE0426814620460DF0BFFF02388642F7
:1048C00017D2062E9BBF07F128039B19AB19A25DD7
:1048D0008CBFA25D03F8202C06F1010688BF03F807
:1048E000072CF6B2E7E7412B40F08F80C378422BCC
:1048F000B5E75FFA89F9484519D0934D2B7C83B908
:10490000924944F2022205F11000FFF7CFFE9049D0
:1049100022462846FFF75CFD05F1100002F080F802
:1049200072E08B4922462846FFF752FD6CE0894928
:1049300007F10C000DF052FF002839D1864B02938D
:10494000864B0193864B8749009307F1100207F1CC
:104950001C03284609F044F907F110000DF09AFEF7
:1049600051EC100B0DF022FEDFF870927E4EC9F86C
:10497000000007F11C000DF08DFE51EC100B0DF046
:1049800015FE30600CF08AFE0446D9F800000DF0E8
:10499000D3FA02460B463068C7E900230DF0CCFA83
:1049A000CDE90001D7E9002370492046FFF710FD4B
:1049B0006F4907F10C000DF011FF044648BB2B783E
:1049C0003B746B787B74AB78BB74EB783B772B795B
:1049D0007B7707F110006B79BB770DF05EFE654DBC
:1049E000654E287007F11C000DF057FE30700CF07A
:1049F00055FE33782A786149FFF7EAFC08F0E2FDBA
:104A00005F4B1860564B1C70C5462837BD46BDE845
:104A1000F0875C4907F10C000DF0E0FE18B95A4B25
:104A200083F800A0F0E7594907F10C000DF0D6FE1D
:104A3000D0B9454C0CF032FE29460CF0B8F9237C75
:104A400073B9424944F2022204F11000FFF72EFE2E
:104A50004F492A462046FFF7BBFC04F110005DE7F2
:104A60004B492A4620465FE74A4907F10C000DF002
:104A7000B5FE20B908F0A6FD474B1860C4E74749CA
:104A800007F10C000DF0AAFE10B9454B1870BBE7FA
:104A9000444907F10C000DF0A1FE78B9424B4348A0
:104AA00001221A70414B5A7C0F2A1CBF02225A74F1
:104AB0001E21FF225A61FFF775FDA5E73C4907F16A
:104AC0000C000DF08BFEE0B907F1100207F11C039A
:104AD0003849284609F084F807F110000DF0DAFD96
:104AE00051EC100B0DF062FD334B186007F11C0008
:104AF0000DF0D0FD51EC100B0DF058FD2F4B186050
:104B000082E72F4907F10C000DF068FE00287FF4C2
:104B10007BAF134B1870174B2A485A241C70164B46
:104B20001C70294B1C70294B21461C700CF0B1F9EC
:104B3000274821460CF0ADF908F044FD254B1860DC
:104B4000254B01221A705FE768DE0320BADD0320DF
:104B5000754A0C00A14A0C0078E50320C1DE032051
:104B600099DD0320A54A0C00D0E50320B44A0C00CF
:104B7000D44A0C0058E5032059E50320D84A0C001C
:104B8000DCDD0320044B0C00B0E00320084B0C00DC
:104B90000C4B0C002F4B0C00E0DD0320334B0C00C2
:104BA000F0E50320374B0C00A0E0032080E5032054
:104BB0003B4B0C003F4B0C00E8DD0320C4DE032020
:104BC000454B0C0030DD032008DE0320B1E003205C
:104BD00040DD0320C4E50320C1E50320CCE503202C
:104BE00010B50C46002204212046FFF72DFE0B4B8A
:104BF0001B7893B10A48037C2BB90A4944F202227C
:104C00001030FFF753FD224607490548FFF7E0FB48
:104C1000BDE81040054801F003BF10BDC0DE032011
:104C200068DE0320BADD0320494B0C0078DE032048
:104C300000B59BB00023642201A90CF07DFB042188
:104C400000220DEB0100FFF7FFFD0C4B1B7883B139
:104C50000B48037C2BB90B4944F202221030FFF7BA
:104C600025FD0949064801AAFFF7B2FB074801F0F4
:104C7000D7FE01201BB05DF804FB00BFC0DE03209F
:104C800068DE0320BADD0320494B0C0078DE0320E8
:104C9000B0B501F1080323F0070300AFADEB030D3E
:104CA0000C460A46014668460DF014FD0DEB040360
:104CB0006D4613F8013C13B100230DF804300122B6
:104CC00011462846FFF7C0FD2B7803F0FD03412B6A
:104CD00003D108F077FC0C4B18600C4B1B7883B1A8
:104CE0000B48037C2BB90B4944F202221030FFF72A
:104CF000DDFC094906482A46FFF76AFB074801F030
:104D00008FFEBD46B0BD00BF28DD0320C0DE0320FE
:104D100068DE0320BADD0320694B0C0078DE032037
:104D200008B50CF067FE0849FFF71AFB142008F0DD
:104D3000ABFF0CF05FFE0549FFF712FBBDE8084032
:104D4000142008F0A1BF00BF6A600C00AC480C0042
:104D500013B5154C012323700CF00CFE0023014603
:104D60000093124840F24C43422208F00BF828B955
:104D700020700CF093FC0E490CF019F840F24C42F4
:104D800001210A4807F08AFF40F24C43012200212A
:104D9000064807F063FF0CF0EDFD064902B0BDE8E0
:104DA00010400AF0C5BC00BF50DD032020DF032007
:104DB000894B0C00801A06002DE9F04FC64BC748FE
:104DC0001A7CC74FC74E02F0030242F078021A74F1
:104DD0004FF47F425A615A7C0F2A18BF012295B0C6
:104DE00018BF5A740121002208F0E4FD01210220BD
:104DF0000CF054FD0021022000240CF060FD002185
:104E000012200CF04BFD4FF0FF332246B6490094C0
:104E100012200AF0D3FC21461D200CF03FFD214654
:104E20000F200CF03BFD01211C200CF037FD01216F
:104E30001C200CF044FD21461D200CF02FFD08F035
:104E4000C1FBAA4A5A231370A94A3B704FF0B40819
:104E5000337013700621CDE900484FF4FA634FF424
:104E60007A720546A3480CF051F84FF4FA634FF4F8
:104E70007A72CDE9004807219F48DFF834830CF0AF
:104E800045F839789B489D4F0CF003F831789A48E3
:104E90009B4E0BF0FEFF4FF4FA6008F0F5FE09F0B0
:104EA00057FA09F09FFA09F053FA082109F0A1FA1C
:104EB0000CF0F4FB4FF4E1310CF0E0FB0CF09AFD48
:104EC0004FF416510CF082FBFFF72AFFFFF740FF6B
:104ED0008C498D482346092208F0C2FD8B498C4835
:104EE0002346092208F0BCFD01238A498A4822464C
:104EF000CDE9004408F0DCFD8849894A89480AF078
:104F000038F9894B4FF001091C7086F8009008F0C1
:104F100059FB864B88F800901860854B87F8009005
:104F20001860844B1860844B1860844B1860844B65
:104F30001860844B1860844B1C60844B1C60844B4D
:104F40001C70844B1C70844B1C70844B4FF4F072AB
:104F50001A80834B1C70834B1C70834B1C70834BDB
:104F60001C70834B1C70834B32221A7009F0F0F9CD
:104F7000814A01460FA809F045FF0FA809F0F5FA8C
:104F800009F0E6F97D4A01460FA809F03BFF0FA89A
:104F900009F0EBFA09F0DCF9794A01460FA809F0AB
:104FA00031FF0FA809F0E1FA09F0D2F9754A01467C
:104FB0000FA809F027FF0FA809F0D7FA724B83F862
:104FC0000090724B0FA8196809F074F80FA808F048
:104FD000D3FF81460FA8B9F1000F40F0388108F0E7
:104FE000E7FFCDF80090ADF82C0002230BAA0321B7
:104FF0006748684C09F0E4FB0023634964480822D1
:1050000009F0FCFB09F0A4F90022614909F051FA0A
:105010000CF0B0FC0AF090FB0CF0ACFC5E490AF01E
:1050200087FB012323700CF0A5FC1C2102465B4882
:1050300002F0F1FF002840F0118120700CF02EFBEF
:1050400057490BF0B4FE5548022102F0DDFE5348EB
:10505000002102F03DFF5148012102F007FF4F48B7
:105060000121002402F04FFF4FF001094B484FF49B
:10507000FA7102F0EFFF224621464B46CDE9014985
:105080004648CDF8009002F0FDFF0CF02BFA824666
:105090000CF01CFA83460CF02DFA09900CF0F2F992
:1050A00008900CF0FBF907900CF004FA099B0799A3
:1050B000089A0590CDE901B304914B460392102163
:1050C000384ACDF800A00BA808F092FD36493748C1
:1050D0000DF08EFB0BA96DE080E5032084E5032035
:1050E00058E5032059E5032009430B0008DE03209F
:1050F000B1E0032030DD032040DD0320C0DE0320CB
:1051000054DD0320E8E50320A94B0C00A8E00320B0
:10511000B14B0C00E14B0B00B94B0C00314C0B00B8
:10512000BF4B0C0047F10B0051DD032054E5032079
:1051300094DD0320E0DD0320E4DD0320A4E0032070
:10514000C4E50320CCDE032068DD032028DD032036
:1051500098DD0320A0E00320B0E0032052DD03200F
:10516000D4E503205AE50320C1E50320F1E503203F
:10517000F2E5032080DD0320DCE50320B4E003201A
:1051800098E0032088DD03201DDD032014DB0320CD
:1051900070DD03202CDD0320801A06000CDE0320C6
:1051A000CD4B0C00F84B0C00144C0C009ADD032086
:1051B000C1DE03203F480DF0EBFA3E493E480DF0BA
:1051C00017FB3E493B480DF0E3FA3D493A480DF0E4
:1051D000DFFA0CF063FA37490BF0E9FD0CF05EFAE8
:1051E00035490BF0E4FD224636486FF00041FFF7E9
:1051F00077F8224634486FF00041FFF771F82246F5
:1052000032486FF00041FFF76BF8314B0F93314894
:10521000314B8DF840400FAA08211193ADF848900A
:10522000FFF7D4FA0446E8B90CF038FA2B490BF032
:10523000BEFD88F800403C70347008F0C3F9401B94
:10524000B0F5FA6F33D2052008F01EFDF5E708F03F
:10525000B1FE0094024610230721C9E60CF01EFAA5
:105260001F49EEE698F8003063B112491D4844F238
:105270000222FFF71BFA1C491C480BF098FD194845
:1052800001F0CEFB3B78002BD7D01948037C2BB91B
:10529000094944F202221030FFF708FA1549144870
:1052A0000122FFF795F8144801F0BAFBC5E715B0E5
:1052B000BDE8F08F9ADD0320BADD03201D4C0C0001
:1052C000224C0C00F4E50320ECDD0320A4E50320D0
:1052D000A44E0C00BCE0032000127A002B4C0C0002
:1052E000E94B0C00FCDE0320504C0C00ECDE0320EC
:1052F00068DE0320A64C0C0078DE03202DE9F04F79
:105300002DED048B894CDFF864A285B008F05AF9C2
:105310002368C01A322805D901238AF8003008F022
:1053200051F920609AF80030002B5AD0804B814C04
:105330001B78814F814D824E013B012B00F2A680EC
:10534000804BD3ED007A804BB7EE087AF4EEC77A43
:10535000F1EE10FA4AD501221A705A2323703B70DD
:105360002B7033702378503B092B9CBF5023237044
:105370002B782278503B092B9CBF50232B703B7815
:10538000934280F0C080D11A032940F3C3800333D5
:105390003B7033782A78934280F0BE80D11A03297B
:1053A00040F3C18003333370684B1B78B3B939784D
:1053B0006748C1F1B4010BF06CFD317865480BF022
:1053C00068FD0CF06BF9064608F0FCF823780093B2
:1053D00002462B7860493046FEF7FAFF00238AF830
:1053E000003005B0BDEC048BBDE8F08FB1EE007A63
:1053F000F4EEC77AF1EE10FA5ED51B7803931BB179
:105400005A2323702B70ADE7544BDFED558A93ED93
:10541000008A544BE8EE288A93ED007A17EE900A42
:1054200028EE078A0CF088FD4F4B00220CF0DCFDC3
:1054300078EE887A8046894617EE900A0CF07CFD5B
:1054400042464B460CF0D0FD0DF068F8834618EE4E
:10545000900A0CF071FD41EC190B18EE100A0CF0DB
:105460006BFD42464B460CF0BFFD02460B4651EC2D
:10547000190B0CF001FC0DF051F8BBF1000F12DA22
:10548000039B2370002813DA00232B7023785B3BE7
:10549000092B9CBF642323702B785B3B092B3FF6C1
:1054A00061AF6423AEE7BBF1B40FEBDDB423E8E7F3
:1054B000B428EBDDB423E8E700211970274BDFEDBA
:1054C000287AD3ED006A274BE6EEA77A93ED006ABF
:1054D000B0EE677AA6EE867AE6EEC67ABDEEC77AB9
:1054E000FDEEE77A17EE102A8A4217EE903A05DAB7
:1054F0002170002BC8DBB42BDCDCC6E7B42AC8BFA4
:10550000B4222270F5E77FF644AF991A032901DD32
:10551000033B3DE73A703CE77FF646AF991A032913
:1055200001DD033B3FE732703EE700BFCCDE0320E6
:1055300099DD032058E5032008DE032059E5032008
:10554000B1E00320D8E50320A1E00320C1E503205A
:1055500030DD032040DD0320CB4C0C0018DB0320A2
:105560000000B442C8E503200000D03FE4E503207A
:105570002DE9F04784B002AF04460E4691469846A6
:105580000DF05BF9093020F00703ADEB030D204669
:105590000DF053F997F828A02E4902AD0346224694
:1055A000284608F015FBBAF1000F01D1042E1BD1DB
:1055B000294B2A491B788DF800302A463C2338466F
:1055C00009F0CEFE7C687CB16368013B63605BB927
:1055D000236820469B689847A368013BA3601BB9DA
:1055E00023682046DB689847B9F1000F01D1012EEE
:1055F00021D108F0ADFE08F009FFE0B128460DF01A
:105600001CF9073020F007006C46ADEB000D284672
:105610000DF013F90DF108090246294648460DF030
:1056200059F828460DF009F90023024649460C486E
:1056300008F07EFDA546B8F1000F01D1022E04D17D
:105640000CF0D8F929460BF0B2FB0837BD46BDE88F
:10565000F08700BFEC4C0C006CDD0320F34C0C0019
:10566000DCE5032000000000F0B5152087B00CF049
:1056700052F907EE900AF8EEE77A534E17EE900AC9
:105680000CF05AFC48A3D3E900230CF0ADFC0CF05D
:105690008DFF4E4B18600CF04FFC45A3D3E900235F
:1056A0000CF0EAFA4A4B00220CF09EFC42A3D3E92C
:1056B00000230CF0C3FD0CF031FF64280346A8BFA3
:1056C000642323EAE37314283370424BCCBF0020D9
:1056D0000120187010200CF01EF907EE900AF8EE69
:1056E000E77A17EE900A0CF027FC3B4B00220CF0F7
:1056F0007BFC33A3D3E900230CF0A0FD0CF056FF94
:10570000364B186011200CF006F907EE900AF8EEFF
:10571000E77A17EE900A0CF00FFC314B00220CF0E8
:1057200063FC27A3D3E900230CF088FD0CF03EFFB7
:105730002C4B18601D200CF0DBF8B8B92A4F3D78CF
:10574000A5B901242949012203A808F041FA2346FA
:105750002246294603A80094FFF70AFF322008F0EA
:1057600093FA29461C200CF0AAF83C700F200CF08C
:10577000BFF898B91E4D2F7887B901241D49012221
:1057800003A808F025FA23462246394603A80094C8
:10579000FFF7EEFE322008F077FA2C70307807B071
:1057A000F0BD00BFAFF3008059C0046EDDCD733F84
:1057B0006666666666662440CCCCCCCCCCCC184001
:1057C0000000000000FEAF4080DD032084DD0320E8
:1057D00000005940C8DE0320008040407CDD0320EB
:1057E000008030407CE50320F2E50320FB4C0C00F8
:1057F000F1E50320044D0C0030B52A4D2B789DB007
:10580000002B4DD0412200210BA80CF08BFF264B22
:105810009FED267AD3ED007A254B67EE877A002438
:10582000FDEEE77ACDED087AD3ED007A214B67EEF5
:10583000877AFDEEE77ACDED077AD3ED007A1E4B3D
:1058400067EE877AFDEEE77ACDED067AD3ED007A42
:105850001A4B67EE877AFDEEE77ACDED057AD3ED48
:10586000007A174B67EE877AFDEEE77ACDED047A82
:1058700018680CF061FBCDE90201124B18680CF0BE
:105880005BFB0122CDE900010F490BA808F0A0F94C
:1058900029780094234622460BA8FFF769FE2C7056
:1058A0001DB030BDB0E0032050E5032000007A4475
:1058B00048E5032040E503204CE5032044E50320B0
:1058C000C4DE0320E8DD03200D4D0C0070B52D4D26
:1058D0002B7898B0002B4AD02B4B2C4AD3ED007A72
:1058E00092ED007A2A4B2B4A1B78099327EE877A90
:1058F000294E2A4CBDEEC77A8DED077A92ED007ADB
:10590000274A67EE877AFDEEE77ACDED067A1068D2
:105910000CF012FBCDE90401224A10680CF00CFBDC
:10592000CDE90201204A099B128800921F490122F9
:105930000AA808F04DF93378DBB91D4B1B78C3B9C1
:105940002388CBB113F0030316D10122009219462C
:105950001A460AA8FFF70CFE337833B9144B1B78AC
:105960001BB923880BB1013B238000232B7018B097
:1059700070BD4FF4F07323800021012300911A467B
:10598000E7E700BFC0E5032084DD03207CE50320BA
:1059900080DD03207CDD03201CDD032052DD03209D
:1059A000C4DE0320E8DD0320A0E50320314D0C0018
:1059B00064DD03202DE9F04F604D97B007F002FE43
:1059C0002B68834280F039815D4E3378002B00F0E4
:1059D00034810BF0CFFF01231422632109F0C9FEAB
:1059E000E8B10BF0C7FF03685B69984711AC274625
:1059F0000BF0C0FF03681B69984738B10BF0BAFF82
:105A000003685B69984704F8010BF1E738460CF02E
:105A100041FE51EC100B0CF0C9FD4A4B18600BF025
:105A2000A9FF01231422642109F0A3FEE8B10BF0C1
:105A3000A1FF03685B69984711AC27460BF09AFFFA
:105A400003681B69984738B10BF094FF03685B69E2
:105A5000984704F8010BF1E738460CF01BFE51ECB7
:105A6000100B0CF0A3FD384B18600BF083FF0123E3
:105A70001422652109F07DFEE8B10BF07BFF03687D
:105A80005B69984711AC27460BF074FF03681B69EC
:105A9000984738B10BF06EFF03685B69984704F8CC
:105AA000010BF1E738460CF0F5FD51EC100B0CF052
:105AB0007DFD264B18600BF05DFF0123142266214B
:105AC00009F057FEE8B10BF055FF03685B69984792
:105AD00011AC27460BF04EFF03681B69984738B19D
:105AE0000BF048FF03685B69984704F8010BF1E786
:105AF00038460CF0CFFD51EC100B0CF057FD144B59
:105B000018600BF037FF01231422612109F031FEE8
:105B100048B30BF02FFF03685B69984711AC274629
:105B20000BF028FF03681B69984798B10BF022FF20
:105B300003685B69984704F8010BF1E794DD0320E3
:105B400098DD03204CE5032048E5032040E50320D1
:105B500050E5032038460CF09DFD51EC100B0CF085
:105B600025FD7A4B186000233370794B1B78002B8E
:105B700063D00BF0B7FC0F900BF0A8FC04460BF0C1
:105B8000B9FC06460BF07EFC07460BF087FC80460E
:105B90000BF090FC00946F4C0F9B6F4ADFF8D8918C
:105BA000DFF8D8B1DFF8A4A1CDE90380CDE9016722
:105BB000102111A808F01CF8227C684BDFF8C08186
:105BC000674F684E002A40F0948044F202226649F2
:105BD00004F11000FEF76AFD604B18680CF0ACF998
:105BE000CDE90C01DBF800000CF0A6F9CDE90A01C3
:105BF000DAF800000CF0A0F9CDE90801D9F80000AE
:105C00000CF09AF9CDE90601D8F800000CF094F9EF
:105C1000CDE9040138680CF08FF9CDE90201306854
:105C20000CF08AF911AACDE9000150492046FEF78F
:105C3000CFFB04F1100000F0F3FE4D4C07F0C2FC66
:105C40002368834252D207F0BDFC00F6C4102060E6
:105C500007F0B8FC00F2393028600BF08BFE6321AE
:105C600009F0A0FD0BF086FE7221FEF7F8FA0BF0AA
:105C700081FE09F09EFD0BF07DFE642109F092FD8E
:105C80000BF078FE7221FEF7EAFA0BF073FE09F0D2
:105C900090FD0BF06FFE652109F084FD0BF06AFEAC
:105CA0007221FEF7DCFA0BF065FE09F082FD0BF0C5
:105CB00061FE662109F076FD0BF05CFE7221FEF7B5
:105CC000CEFA0BF057FE09F074FD0BF053FE612184
:105CD00009F068FD0BF04EFE7221FEF7C0FA0BF0E2
:105CE00049FE09F066FD234B01221A7017B0BDE88A
:105CF000F08F18680CF020F9CDE90C01DBF80000FA
:105D00000CF01AF9CDE90A01DAF800000CF014F9E8
:105D1000CDE90801D9F800000CF00EF9CDE9060133
:105D2000D8F800000CF008F9CDE9040138680CF04F
:105D300003F9CDE9020130680CF0FEF811AACDE9B3
:105D400000010A492046FEF743FB76E744E50320BD
:105D5000C1DE0320ECDE0320FB4B0C0040E50320FA
:105D6000C4DE0320E8DD03209ADD0320524D0C0041
:105D700054E5032098DD03204CE5032048E503208B
:105D800050E503202DE9F04FDFF8E880DFF8E890D8
:105D9000344D89B000AF0BF02DFE03681B699847A6
:105DA00000285BD00BF026FE0A22014638460BF095
:105DB000C9F9BB68073323F007036E46ADEB030D4B
:105DC000EA460023B9681FFA83FB8B4503F10104FF
:105DD00007D2594638460BF0ADFA23460AF80B00B5
:105DE000F0E701290AD9013938460BF0A3FA0D284A
:105DF00001BFBB685344002203F8012C0122022199
:105E00005046FEF721FD9AF80030423B012B03D8A3
:105E100007F0D8FBC8F8000099F80030CBB12B7C14
:105E20002BB91149114844F20222FEF73FFC3946D2
:105E300007F110000BF034FA0D4907F11002284663
:105E4000FEF7C6FA07F110000BF094F9074800F0CE
:105E5000E7FD38460BF08EF9B5469CE72437BD4682
:105E6000BDE8F08F68DE0320BADD032078DE032072
:105E70006A4D0C0068DD0320C0DE03202DE9F043ED
:105E8000ADB00BF00BFC63490AF091FF624800F0E3
:105E9000C7FD624962480022FEF708FC48B9614B21
:105EA00018700BF0FBFB60492DB0BDE8F0430AF021
:105EB0007EBF0BF0F3FB5D495D4D0AF078FF08F003
:105EC00047FA08F0A3FA044648B908F041FA224616
:105ED000294608F0EEFA0A2007F0D6FEEFE70BF0AD
:105EE000DDFB54494E4F4C4DDFF86C810AF05FFFEB
:105EF00000223946284600F020FDF8B108F028FAC3
:105F000008F084FAD0B1202201A9284600F0DCFE76
:105F10000BF0C4FB414601AAFEF75AFA01A80CF0A7
:105F20008CFC01AB043818440CF090FC42490CF096
:105F3000E6FCD8B9284600F073FDD9E7384800F0F0
:105F40006FFD2822002109A80CF0ECFB3B4909A8B1
:105F50000CF04EFC0023282209A9394808F0E8F883
:105F6000304B00221A702DB0BDE8F08328220021AA
:105F700009A80CF0D7FB3349334EDFF8C49009A8C9
:105F80000CF036FC01A909A80CF002FC0BF086FB12
:105F90002E4909AAFEF71CFA0023282209A928483D
:105FA00008F0C6F80BF07AFB294901AAFEF710FAAF
:105FB000962007F069FE09F02BFC3046FEF78FF8BB
:105FC000044688B16422002113A80CF0ABFB13AA8D
:105FD00064230D2130460BF09DF80023642213A9A1
:105FE000484608F0A5F8E8E709F014FC2822214605
:105FF00009A80CF097FB174909A80CF0F9FB2346F8
:10600000282209A90E4808F093F8962007F03CFED4
:1060100090E700BF8B4D0C00FCDE0320A84D0C0068
:1060200044DE0320A0E00320AA4D0C00D74D0C0055
:1060300070DD0320F74D0C001D4C0C00354E0C009C
:1060400098E003203E4E0C00ECDE0320474E0C008F
:106050005A4E0C00824E0C000C4E0C0008B5FFF797
:1060600003FBFFF7A7FCFFF78DFEFFF72FFCFFF701
:1060700045F9094B1B780BB1FFF700FFFFF7BCFB9D
:10608000064B18680BF058FF054BC3E900010320CD
:10609000BDE8084007F0F8BDA0E0032090DD032034
:1060A000E8E5032070B5D0E900531426044606FB4A
:1060B0000356AE4204D028460BF05CF81435F8E7DE
:1060C000206807F075FD204670BDF0B516468FB00C
:1060D0000022C0E9002204460D4609AF194604A873
:1060E00007F0E8FF1499384607F0E4FF169B029387
:1060F000159B2046CDE90073324604AB294608F0D3
:1061000057FD20460FB0F0BD13B50B4C2178BFF3FF
:106110005B8F11F001010BD120460191FDF7D0FFFB
:10612000019928B105480AF022FF2046FDF7CDFF6E
:10613000024802B010BD00BF10DD032014DD0320B3
:106140008842F8B504460D46164616D9904215D237
:10615000A2F11406751AA1F114072C44B7421CD001
:106160002CB1314620460BF081F8337C2374304645
:106170000BF000F8143E143CF0E70ED0B5420CD002
:106180002CB1294620460BF071F82B7C237428464D
:106190000AF0F0FF14351434F0E7F8BD2DE9F041B2
:1061A0000023C0E9003383604F689F4204460E46D7
:1061B00023DD4FF0140808FB07F007F0F1FC05465B
:1061C000D8B1D4E9001208FB0212FFF7B9FF20682A
:1061D00007F0EEFC2560A760D6E9007308FB0378A2
:1061E000B84508D0394628460BF05AF83B7C2B744A
:1061F00014371435F4E7736863602046BDE8F08116
:10620000F0B5844B844A854D854F01261E70854B21
:10621000002493B09A60C3E90044022007F0DCFB3D
:10622000CDE901442B6800937F4B80491B6880486F
:106230004FF01002FFF749FF7E4B029401932B6849
:1062400000937D4B7D491B687D484FF00402FFF7AA
:106250003CFFCDE901442B6800937A4B7A491B68D7
:106260007A484FF01002FFF730FFCDE901442B6868
:106270000093774B77491B687748784D4FF01002B1
:10628000FFF723FF764808F0A6FA764B0E930EAA86
:1062900023464FF47A71744810951197FEF752F91E
:1062A0000EA8FEF717F9714B0E930EAA23464FF472
:1062B00096716F48CDE91057FEF744F90EA8FEF726
:1062C00009F96C4B0E930EAA2346FA216A48CDE9D0
:1062D0001057FEF737F90EA8FEF7FCF8674B0E9340
:1062E0000EAA234642F210716548CDE91057FEF719
:1062F00029F90EA8FEF7EEF8624B0E930EAA23467C
:1063000040F6B8316048CDE91057FEF71BF90EA8EA
:10631000FEF7E0F85D485E4D01F010FF5D4801F0CA
:10632000F7FC22461421304607F07EFB1422034678
:1063300000926FF07F4132465748019609F0C2FC47
:10634000FFF7E2FE6423C5F86034544B6C60C5F877
:106350003C44C5F86844C5F8703485F87464C5F8E1
:106360007844A5F87C4408B9FFF7CEFE4C4A4D4965
:10637000C5F86C0400234FF47A70C2E90130136150
:106380001160494A0793C2E9013013611160474A1D
:10639000474C1361C2E901301160CDE905330BF0C0
:1063A0007DF905A9054608A8FFF7F8FE08A90BA87E
:1063B000FFF7F4FE3F4B23600BA90EA8FFF7EEFE9C
:1063C0000EAA1E21201D0AF019F90EA8FFF76AFE79
:1063D0000BA8FFF767FE384B2360256208A8FFF77C
:1063E00061FE364B23600BF059F94FF416510BF058
:1063F00045F909F0E5FD214609F0D6FF05A8FFF7AC
:1064000051FE2F480AF06EFD2E4813B0BDE8F04053
:106410000AF068BD6CDD03200000FFFF14DB0320E1
:1064200043420B0058DD032028DB03208B4E0C0079
:10643000DCE50320914C0B0024DB03208E4E0C0086
:10644000B4E0032020DB0320914E0C0098E00320F1
:106450001CDB0320954E0C0088DD03202F420B002F
:1064600070DD0320BD460B00F4E50320BD450B00A5
:10647000ECDD0320ED430B00D0DE0320F9400B00E0
:10648000A4E503203D430B005CE5032020DF03204F
:10649000BCE003200CDE032080E50320A44E0C00AA
:1064A000ECDE0320104F0C0068DE032034DE0320F6
:1064B0009CDE0320CC4E0C00A0600C00F84E0C00BB
:1064C00030DD032040DD032038B504460D4624228C
:1064D00000210CF027F9A560EB79102B03D0202BBD
:1064E00006D0002038BD202301202370A070F9E7DA
:1064F0004023F9E710B50446243000F066FF28B1C8
:1065000004F50C70BDE8104000F05FBF10BD83784B
:10651000016943F00403837000F11002806801F008
:106520000AB800002DE9F041017811F02005044679
:1065300003D000263046BDE8F0814269174B9A42ED
:10654000F7D2FFF7E4FF06460028F2D02169A068E1
:1065500000F086FF0746A06805223946243000F087
:106560005CFF80460028E4D029464FF400720CF00E
:10657000D9F80125A3681A79AA4209D918684246B0
:10658000E91901F0B6FA0028D3D00135EDB2F1E7F0
:10659000636903EB42236361CCE700BF00FE1F0089
:1065A00010B5044680680A462430A16900F035FF22
:1065B00020B1A38803F00F0300EB431010BD0023AC
:1065C000F0B50446451E082618462E2715F8012F5B
:1065D000202A18D0082B02BF0F54421CD0B22A78B0
:1065E000A2F1410C08BF1026BCF1190F06D894F88F
:1065F0000CC016EA0C0F1CBF2032D2B200F1010C05
:106600000A545FFA8CF00133DBB20B2BDED100238E
:106610000B54F0BD03780BB9FFF756BF002070474D
:106620002DE9F74F0378044688461546002B5DD0C8
:106630008278D1075AD51A072DD5C36942699B1AAA
:106640009D4228BF1D462E464FF0000904F1100B55
:10665000002E00F08F8022786369A0689706C3F34C
:10666000080A4FEA53211FD5006A0144A068BAF115
:10667000000F42D1B6F5007F3FD3C36A99423CD0A8
:10668000B6F5806F52D20068424601F0A9F968B3AE
:106690004FF4007744E09B06D5D583681A89436997
:1066A000C3EB42139BB2CBE790F8059009EA0109CE
:1066B000BAF1000F08D1B9F1000F05D15BB951064D
:1066C0004CBF036A236A23612169A06800F0C8FEF9
:1066D00009EB0001CAE721695A4600F0C7FE00280D
:1066E00004DBF1D1237813F0700F43D1637843F0CA
:1066F000020363704FF0FF303DE0CAF50077B74208
:106700004FF0000200F1240028BF374600F085FE5C
:106710000028EBD000EB0A013A4640460BF0DAFFC6
:1067200063693B44B8446361F61B91E722789206A3
:106730004FEA562A06D40279A2EB0902D2B2924558
:1067400028BF924699424FEA4A2708D2A06853468A
:106750000068424601F08CF90028E1D1C6E75344B5
:106760008B42F3D92430019100F02FFE01990028CB
:10677000ECD1BBE7A81B03B0BDE8F08F73B50122D5
:106780000DF10701D0E904560446FFF749FF01283F
:106790000ABF9DF807004FF0FF30C4E9045602B06D
:1067A00070BD37B5436913F4F07F0446C3F3431556
:1067B00000D099B901220DF107012046FFF730FF03
:1067C00040B2012802D0002003B030BD63691F33FE
:1067D000A0686361303000EB4510F5E72033F7E740
:1067E0002DE9F0410278076904460D4662B140691F
:1067F000884202D019B921616561012006E01607BF
:1068000006D5E3698B420BD227610020BDE8F081F9
:10681000910605D5A3681B89B5EB431FECD9F3E7B7
:10682000D4F808C09CF80660431E06F109016E1EEC
:10683000CB40CE40B34200D898B953064CBFDCF8E9
:106840002030236A236104F11008002ED4D021697E
:10685000A068424600F00AFE002806F1FF36F4DC8C
:10686000D2E7F61AEFE7F8B50F46044615460021C1
:1068700024221E460BF056FFB868A060A58005F0E4
:106880000F053B6AE3606A0100EB451595F83B3064
:106890001F0744D403F01703237095F83B1011F041
:1068A000180F04BF43F0080323709DF81830E370FD
:1068B00006F00303012B2CD0022B28D07BBB7105E3
:1068C0002DD40123A370A1788B0704D52378DF068C
:1068D00025D4DD0723D4B31123F07F0306F0080588
:1068E0002B430B43A370C36AA3618318B3F84420FE
:1068F000B3F84A1041EA0241720513D559B9A37899
:1069000043F00403A370730410D40120F8BD0323E3
:10691000D8E70223D6E700F049FE0028EFD1002097
:106920002070F3E72162DB6CE361ECE7E16920466C
:10693000FFF756FF0028E8D1F1E72DE9F347037888
:1069400007460D46924653BB0B7813F0700F26D0C6
:106950004C6914F01F0422D1A04600212846D5F826
:106960001490FFF71EFFD0B10678C6B12E2E10D0BE
:10697000E52E0ED0C37A1A0713D464B90094534697
:10698000C9F34F1229463846FFF76DFF02B0BDE844
:10699000F0870024E1E700F071F94045EED00020D7
:1069A000F4E70F2BF5D17306D7D590F80D8006F0DC
:1069B0001F04D2E738B5037804460BB9012038BD6F
:1069C00083785A0723D50121FFF7EAFD054628B948
:1069D000637843F0010363700020F0E70378E52B50
:1069E000F6D023781B0744BFE369C361236A43835E
:1069F000638C8382094B1B682BB100F116011830A0
:106A000098472B8B6B82A37823F00403A370A068B4
:106A1000FFF770FD0028DBD0D0E700BF10E60320B1
:106A200010B50446FFF7C6FF0023237010BDF0B574
:106A300093B01F46002309930378019206460C4643
:106A400013B1002013B0F0BD0B7813F0700FF8D025
:106A500013782F2B12D1019A13782F2B02D10132E8
:106A60000192F8E7A1681BB93046FFF7D3FDE9E7CB
:106A700009A8FFF729FD0028E3D009AC019801AA75
:106A800003A900F08FF90028DBD0019B1B789BB194
:106A9000002303AA2146304600F0B6FA0028D0D0E1
:106AA00035460FCD09AC0FC40FCD0FC42B68236042
:106AB0003046FFF7B5FFE0E73B4603AA21463046E4
:106AC00000F0A2FABEE700002DE9F04703788946FE
:106AD0001907044617465BD583789A0758D51B07D4
:106AE00051D46369DB43BB4252D3B84604F1100A68
:106AF0006669B8F1000F00F09180A0684379C6F391
:106B0000080513EA56260ED16DB92169002946D031
:106B1000524600F0ABFC00283ADB04D12046FFF7D8
:106B2000F6FC002834D02169A06800F099FC3118E7
:106B3000A06815B9B8F5007F3FD2C5F50076464587
:106B400028BF4646002D36D16269E3699A4234BFB8
:106B500001220522243000F060FCC8B128443246EE
:106B6000494635440BF0B6FDB5F5007F04D1A06869
:106B7000243000F02AFC58B1636933446361B144A6
:106B8000A8EB0608B4E7C169FFF72AFE0028A8D1E0
:106B9000637843F0010363704FF0FF3050E0236AE5
:106BA0003BB92046FFF7B3FC0028F1D023692362EC
:106BB000B9E72361B7E70122CCE7B8F5806FC26A75
:106BC0001BD390F804C0ACEB0606F3B24FEA582E84
:106BD000734528BF734691424FEA432607D31A44B0
:106BE0008A4282BF4FF0FF3280F82450C262A5680B
:106BF0004A46286800F0F3FFBDE7914202BF4FF01C
:106C0000FF3380F82450C362A3684A46186800F036
:106C100070FF0028BCD04FF40076ADE7E269A3789E
:106C2000B24204D2E66143F00403A37003E0084AD1
:106C30001268002AF7D194F90230002B02DB3846A3
:106C4000BDE8F0872046FFF7B5FE0028F7D19FE7A3
:106C500010E60320042904D800EB4100B0F801003D
:106C600070470A299BBF01F1FF3100EB4100013160
:106C7000C08884BF00EB410080887047411E00F14E
:106C80000A030020420842EAC01011F8012F52FA0C
:106C900080F08B42C0B2F5D1704738B5CB6804465E
:106CA0000D4623B9BDE838408968FFF7B3BC2422FC
:106CB00000210BF037FD102301202370A070AB687A
:106CC000A360EB68236238BD2DE9F04F8DB00378E7
:106CD0004FF0000906460F469046CDF80C90002B69
:106CE0005DD00C2A5BD9C37833B900F057FB04465A
:106CF00020460DB0BDE8F08F014603A8FFF7CDFF99
:106D000000284CD007EB08034FF0010B4FF00D0AA1
:106D10000093F3785FFA8BF5AB4240D3B188A1EBD7
:106D20000B01490103A8FFF75BFD0446002836D09C
:106D3000002103A8FFF735FD034680B3C27A0F2A6E
:106D40002DD1027802F01F02AA4228D10BF1FF35A3
:106D50000AFB05F57A19002118460191FFF77AFF21
:106D600068B1A84512D9019901317F28C9B228BF5D
:106D70003F200D2902F8010B05F10105ECD1A845D2
:106D800004D91A78520648BF07F80590009A02F80D
:106D9000019C1B785B060BF1010BBAD5A8E7002418
:106DA0003C70A5E72DE9F047064610F8013B202B83
:106DB000FAD06A4D8E600024335DC3B12F2B16D0FC
:106DC0005C2B02D10020BDE8F087A3F12200C0B205
:106DD0001D2803D825FA00F0C007F3D403F0BF0044
:106DE0003C28EFD0203B5E2BECD80134E4E733198C
:106DF0001846074610F8015B202DFAD02F2DF8D049
:106E000017604CB113F8012D2E2A01D0202A01D190
:106E1000013CF6E7FF2CD5DC4FF02033C1F81130F0
:106E20004C60C1F80D304B614FF0000816F8083087
:106E30002E2B01D0202B02D108F10108F6E7B8FA79
:106E400088F04009651E6B1C02D0735D2E2B14D197
:106E50004FF0000907274A46CA464FF0080EA045E2
:106E600068DA16F80830202B03D02E2B07D1A8455E
:106E700012D0002008F10108F1E7013DE3E7222BE1
:106E800008D07C2B06D0A3F12A0CBCF1050F0AD840
:106E90002D2B12D0A8455BD10A2F4AD00A270822F1
:106EA0004FF0100EE6E7A3F13A0CBCF1050FF1D953
:106EB000A3F15B0CBCF1020FECD9A3F1210CBCF1E6
:106EC0005D0FE7D8A845E7D0BA4230D8A3F1610CEE
:106ED000BCF1190F1AD8203B4EEA0909DBB25FFA60
:106EE00089F902F1010C5FFA8CFC0A44BCF1060F2F
:106EF000537301D881F80CC06246BBE7A84518DC83
:106F0000A8460A2708224FF0100EB2E7A3F1410C61
:106F1000BCF1190F98BF4EEA0A0AE2E70B7B012089
:106F2000087019447E234B7331238B734BE70A2F70
:106F3000E4D100204B7B202B3FF444AF0028EDD060
:106F40001AEA090F18BF4FF0020981F800903AE7DA
:106F5000BA42ECD800205F23C3E700BF0101003133
:106F60002DE9F84391F80C9006460C4602257E2741
:106F700001F10D086168A2686B189BB2114491423F
:106F800006D012F8010B03EB431343409BB2F6E724
:106F9000B9F1030F28BF4FF0030909F10402D2B27F
:106FA00003F00F01A018013A0929D2B294BF303181
:106FB0003731914541734FEA1313F1D104EB0903C3
:106FC00000215F733046FFF70BFC01213046FFF7CD
:106FD000E8FB014628B97078B0FA80F04009BDE8B6
:106FE000F88303786BB1C37A1B07EED40B224046BB
:106FF0000BF060FB0028E8D10135ADB2642DB9D1AA
:10700000EDE70120EBE700002DE9F04F2DED028BBD
:107010008BB00D4606930B78079013F0700F174650
:1070200005D100200BB0BDEC028BBDE8F08F079BB3
:107030001B78002BF5D15368059313789C071FBF6D
:10704000059B0C330D22B3FBF2F31ABF0133DBB205
:107050000123002128460393FFF7C2FB07F10D032C
:107060004FF0000B08EE103ADA465C465E46CDF86B
:1070700010B0D9466B6901212846C3F34F18FFF7BA
:1070800090FB0346002871D16B78002BC9D1069B79
:107090009A05C6D503F00303013B012BC1D8049B1D
:1070A000002C08BF43460493039B9C42C0F0F18030
:1070B000B9F1000F40F00A81049B28465901FFF7FF
:1070C0008FFB0028ADD0039B03F1FF395FFA89F9EC
:1070D0004E464FF0000A4FF00F08002E00F00D81D1
:1070E00000212846FFF75DFB0446002899D0AA68D6
:1070F00092F824304E4543F001030CBF46F0400B9C
:10710000B34682F8243080F800B080F80B8080F815
:107110000CA007F10D00FFF7B1FD84F81AA0607311
:1071200084F81BA00BF01F030D22013BD7F808C009
:10713000534300220599994240F2D0801CF8031075
:10714000042A5FFA82FE02F1010000F2CD8004EB16
:107150004202A2F801100D2803F101030246E9D111
:10716000013EF6B2B9E74FF0010983E70278E52A5C
:1071700000D07AB90499002C08BF414604910399C4
:107180008C423CBF0134E4B2002A80D0E52A05D10C
:1071900000266FE703998C4238BF00242E2AF7D0CF
:1071A000D97A0F294AD116BB12F040063FF462AFDC
:1071B00002F01F0693F80DB0B2460D220AF1FF3817
:1071C00002FB08F8059A4245E2D9A2EB08020892B0
:1071D000002202EB080109911846D1B2FFF73AFDEF
:1071E00008998A420DD1002818BF002642E70AF10B
:1071F000FF3A5FFA8AFA5245CAD15A7B5A45DCD027
:10720000C6E7FF28C4D85FFA80FEAEF14101192914
:10721000B9689CBF0EF120005FFA80FE084609990C
:10722000415CA1F1410CBCF1190F9CBF2031C9B2E6
:107230007145ADD101320D2ACBD11BE70807A7D488
:107240005EB1BAF1010F7FF4ECAE1846FFF716FD00
:1072500058457FF4E6AEB1460EE018EE101A0B2248
:1072600018460BF027FA00287FF404AF97F8009037
:1072700019F001097FF477AF069B19053FF5D1AEF0
:10728000069B0798CDF8009042462946FFF7EBFA97
:10729000C8E600212846FFF784FAA0B96B78002BD6
:1072A0007FF4BFAE2846FFF73DF900283FF4B9AEA2
:1072B000AB681B79012B3FF6FBAE039B1034E4B2A5
:1072C000A342EFD8F4E60134E4B2EDE639462846AD
:1072D000FFF746FE00287FF4EFAEA2E614BF4FF0A2
:1072E000FF31002189B22BE7BEF10A0F94BF04EBF6
:1072F000420204EB400291802DE731462846D5F842
:107300001480FFF74EFA044600283FF48AAE20228C
:1073100031460BF007FAD7F80D302360D7F811305B
:107320006360B7F815302381FB7DA3723B7803F0CF
:10733000180323730F4B1B689BB104F10E0104F17A
:1073400010009847238A63822383E389E382AA6833
:1073500092F8243043F00103C8F34F1882F8243028
:107360008EE721232374282363740823A673E37311
:10737000E8E700BF10E6032013B50446084659B1FC
:1073800001910BF05AFA23680199DB680246204606
:1073900002B0BDE81040184702B010BD10B50C4651
:1073A000017809B9002010BD11F0600105D02F232C
:1073B0002370002363700120F5E7FFF7F1F8002840
:1073C000F0D02146FFF7FBF8F5E737B50378DA0789
:1073D000044620D54368816800F10C0218680192C8
:1073E00000F087FB019A054618B90025284603B02E
:1073F00030BD23789B0704D4237823F00103237046
:10740000F4E7D4E9013019690144186800F071FB10
:107410000028F1D1E9E70125E8E770B583688B42E0
:1074200004460E46154609D0FFF7CFFF08B90020E5
:1074300070BD6B070AD500232370A660227805F083
:1074400003052046154300F80C5BF1E7636804F17F
:107450000C021868314600F0C3FA0028EBD1E6E7C9
:10746000837940690239994008447047012970B511
:1074700005460C46164602D84FF0FF3070BDC36972
:107480008B42F9D3C379202B16D18169022201EBFB
:10749000D41100F50C70FFF7C0FF0028ECD004F009
:1074A0007F0450F8243023F07043EA699A4226BFE3
:1074B000336001200020E1E7102BDDD1C1F3072369
:1074C00081690222194400F50C70FFF7A6FF00281D
:1074D000D2D0E4B230F81430E7E7012938B50C46D1
:1074E000154601D8002038BDC3698B42FAD3C37951
:1074F000202B0FD18169032201EBD41100F50C7010
:10750000FFF78BFF0028EDD004F07F0440F82450F3
:107510000120E8E7102BE5D1C1F30723816903229D
:10752000194400F50C70FFF778FF0028DAD0E4B2B8
:1075300020F81450ECE72DE9F341C4688C4205466D
:107540000E46904601D3012701E00C460027EB6967
:107550000134A34202D2C7B9EC68F4E7A64214D0C2
:1075600001AA21462846FFF781FF00280DDBEED057
:10757000019B002BEBD107B1EC606FF0704221460C
:107580002846FFF7AAFF074620B90027384602B071
:10759000BDE8F08116B9C8F80040F7E72246314649
:1075A0002846FFF79AFF0028F5D1EEE773B50546A8
:1075B0000C4601AA21462846FFF758FF061E10DB9D
:1075C000002221462846FFF788FF50B1EB68A3420E
:1075D00024BF04F1FF34EC60019C002EE9D102B01D
:1075E00070BD0020FBE7012370B50022C3604FF09F
:1075F000FF330446C27100F12406806280F8242023
:10760000C362C0F8340280F83022C0F838320D4628
:10761000B9B1042901D9002070BD11463046FFF7E9
:10762000FCFE0028F7D000EB051393F8AE315B06A3
:10763000F1D105F11B0100EB0110D0F80650002D2F
:10764000E9D0002229463046FFF7E7FE0028E2D0C5
:10765000B0F80B30B3F5007FDDD1037C022BDAD11B
:10766000C389002BD7D0417B21714B1E637100234E
:10767000A37109260123994207D0013ECBD0A279FC
:107680005B000132DBB2A271F5E7C18A01B9416A40
:107690002161C3892B44A361B0F81120228103EB3F
:1076A00041032362B0F81110490101F2FF1103EB0D
:1076B00051236361B0F8132002B9026AE91AA37971
:1076C0001144D9404B1CE36140F6F473994202D84F
:1076D0000C23E3719FE74FF6F473994285BFC36AA9
:1076E000236210232023E371012095E700F0CABA3A
:1076F00000F0ADBA70B50E4E0D46144605F05AFFB7
:107700003368C01A0B4B984208D905F05BFF0A4B4F
:10771000186006F0B5F905F04DFF306005F052FF36
:1077200080B2401BA042D4BF0020012070BD00BF2A
:1077300018E60320A086010028E7032038B5057A63
:1077400004464DB9406800F06BFA63682946187D1D
:107750000AF0B5F80123237238BD10B5037A044648
:107760006BB143680121187D0AF0A9F86068FF2118
:10777000FFF7BCFF606800F067FA0023237210BDBA
:10778000F8B504460D46164605F01CFF87B2606842
:10779000FFF7AEFFFF2860720ED14FF47A723946C0
:1077A0002046FFF7A7FF0028F1D05523204623707D
:1077B000FFF7D3FF0020F8BDFE2801D05023F5E7E6
:1077C00060683246294600F047FA607208B16023CB
:1077D000ECE76068FFF78CFF6068FFF789FF012026
:1077E000E9E770B504460E4605F0ECFE85B2324678
:1077F00029462046FFF77EFF30B96068FFF778FF23
:10780000FF28F4D1012070BD0020FCE7F7B5037A12
:10781000019204460D460BB9FFF790FF25B14FF4D6
:1078200096712046FFF7DDFF606845F04001FFF7E5
:107830005DFF032601AFB95D6068FFF757FF013EAA
:10784000F9D2002D60680CBF95218721FFF74EFF0C
:107850006068FFF74DFF0B256068FFF749FF0306DF
:10786000607203D5013D15F0FF05F5D103B0F0BD01
:1078700070B504460D46164637210022FFF7C6FFB5
:10788000324629462046BDE87040FFF7BFBF0000E2
:107890002DE9F041002505720570857241600446AE
:1078A00090461E4605F08EFE41460746606800F091
:1078B000BBF96368494A1D720125DA601D822046C2
:1078C000FFF73CFF63682946187D09F0F8FF0A2599
:1078D0006068FF21013DFFF709FF15F0FF05F7D1B3
:1078E00063682946187D09F0EAFF0A25002211463F
:1078F0002046FFF78BFF0128804618D0013D15F088
:10790000FF0507D1202320462370FFF726FF002024
:10791000BDE8F0816068FD21FFF7E8FE4FF40278D2
:107920006068FFF7E5FEB8F10108F9D1DEE74FF432
:10793000D57208212046FFF769FF052814D184F885
:107940000A800025BFB22A4629212046FFF790FF72
:107950000246D8B14FF4FA6239462046FFF7CAFE14
:107960000028F0D04323CEE704256068FFF7C0FE6F
:10797000013D15F0FF056072F7D1AA2804D102235A
:10798000A3724FF08045DDE72523BCE7A37A022BE5
:1079900018D13A212046FFF739FF08B13723B2E763
:1079A0006068FFF7A5FE00F0C000C02804BF0323F5
:1079B000A3726068FFF79CFE6068FFF799FE60683D
:1079C000FFF796FE2046FFF7C8FE63683079B1687E
:1079D000B2891A821872D960012099E790D0030009
:1079E00038B5837A032B18BF490215460A46112180
:1079F0000446FFF70BFF30B1302323702046FFF71A
:107A0000ACFE00250BE029464FF400722046FFF73C
:107A1000B7FE05460028F1D02046FFF79EFE284617
:107A200038BD10B5837A032B0A4618BF4A021221CB
:107A30000446FFF7EBFE30B1312320462370FFF7F9
:107A40008CFE002010BD0120FCE710B500220C21A7
:107A50000446FFF7DBFE30B1282320462370FFF7F2
:107A60007CFE002010BD2046FFF777FE0120F9E7DD
:107A7000F8B5044616461F46FFF7D3FF68B1002548
:107A8000ABB29F4206EB452109D94FF40072204664
:107A9000FFF776FE01350028F2D10020F8BD204620
:107AA000BDE8F840FFF7D1BF38B504461546406839
:107AB000FFF71CFE4FF400726068294600F0E6F8FC
:107AC0006068FF21FFF712FE6068FF21FFF70EFEDE
:107AD0006068FFF70DFE607200F01F00052806D0F9
:107AE000572320462370FFF738FE002038BD0120C1
:107AF000FCE770B5837A032B18BF490215460A4686
:107B000018210446FFF782FE064630B13223237067
:107B10002046FFF722FE00251FE02A46FE212046D0
:107B2000FFF7C2FF0028F3D04FF4FA612046FFF7B9
:107B300058FE054608B95A23E9E732460D2120468A
:107B4000FFF764FE08B12923E1E76068FFF7D0FD85
:107B50000028F8D12046FFF700FE284670BD13B577
:107B600001914FF4FA610446FFF73BFE019A30B9E8
:107B70005B2323702046FFF7F0FD002005E0FC2189
:107B80002046FFF791FF0028F4D002B010BD10B5D9
:107B9000837A032B0A4618BF4A0219210446FFF7CD
:107BA00035FE30B1332320462370FFF7D6FD002089
:107BB00010BD0120FCE738B54FF4FA610446FFF729
:107BC00010FE054630B9562323702046FFF7C5FD49
:107BD000284638BD6068FD21FFF788FDF5E7F8B558
:107BE000044616461F46FFF7D2FF70B10025BD427E
:107BF00006EB4521204604D0FFF7B1FF28B101353F
:107C0000F5E7BDE8F840FFF7D6BF2046FFF7A5FD32
:107C10000020F8BD014B01221A7070471CE60320BA
:107C2000011D006809F0DAB910B504460175006855
:107C300009F0A7F9207D012109F030FE207D012106
:107C4000BDE8104009F03BBE006809F0AEB900681D
:107C5000FF2109F031BA000037B51346074A0092F8
:107C60000025074C006825700A46294609F02AFAC3
:107C70002378002BFCD0002003B030BD157C0B0016
:107C80001CE60320006809F017BA000037B5134658
:107C9000064A00920025064C006825702A4609F025
:107CA00011FA2378002BFCD003B030BD157C0B00FB
:107CB0001CE603207047704738B50C460546202265
:107CC000002104F108000AF02DFD09490B2220468D
:107CD0000AF0E2FD0123E3606B6A23610223636122
:107CE000044BE361044BA361044B236238BD00BF26
:107CF00008500C000000C8C40000C8448FC2753C86
:107D000010B528210446FCF7CCF9204610BD000030
:107D1000034A02600022C0E907220276704700BFD2
:107D200028500C0030B501238DB00022CDE902238C
:107D300006252822CDE900250446D0E9071206A829
:107D400005F07CF82A4604A906A805F0F5F8257E7A
:107D5000BDF91010BDF91220BDF91430E180032DDA
:107D600098BF1248228107EE101A9CBF00EB8500D5
:107D7000D0ED007A6381B8EEC77A88BFF7EE007A5B
:107D8000C7EE276A07EE102AB8EEC77AC4ED036A79
:107D9000C7EE276A07EE103AB8EEC77AC4ED046A58
:107DA000C7EE276AC4ED056A0DB030BD10500C0057
:107DB00038B50C46054620220021201D0AF0B2FCF1
:107DC000242323606B6A63600223A36005F0FAFB3F
:107DD00020612846FFF7A6FFD5ED037A9FED097ACB
:107DE00067EE877A0120C4ED057AD5ED047A67EE57
:107DF000877AC4ED067AD5ED057A67EE877AC4ED09
:107E0000077A38BD0000C842F0B5012595B00027BB
:107E1000CDE902752023009301950E460446D0E972
:107E200007122B4608A805F009F80523022208A925
:107E300004A805F0DFF8314604A805F0EDF8232387
:107E4000D4E907120093CDE902752B4601950EA8DF
:107E500004F0F4FF02231A460EA906A805F0CAF89A
:107E6000314606A805F0D8F815B0F0BD70B5012967
:107E70008CB006460C4603D10321FFF7C5FF09E08D
:107E8000032903D0052903D10121F6E70221F4E7F4
:107E900007291BD00A2005F0F7FE01250023CDE9B4
:107EA00002352023D6E90712009301952B4606A838
:107EB00004F0C4FF2B46042206A904A805F09AF892
:107EC000214604A805F0A8F80CB070BD0021D4E745
:107ED00030B501238DB00025CDE902532222019354
:107EE00000920C46D0E9071206A804F0A7FF2B4623
:107EF000022206A904A805F07DF8214604A805F091
:107F00008BF80DB030BD30B501238DB00022CDE926
:107F100002232122019300920D460446D0E9071264
:107F200006A804F08BFF0523022206A904A805F089
:107F300061F8294604A805F06FF825760DB030BD2C
:107F400010B501238CB00022CDE902232122019338
:107F50000092D0E90712044606A804F06FFF05233B
:107F6000022206A904A805F045F804A805F047F880
:107F7000C0B220760CB010BD30B500238DB0012505
:107F8000CDE90235212300930195D0E9071204467B
:107F90002B4606A804F052FF02232A4606A904A88D
:107FA00005F028F8294604A805F036F80A2005F05F
:107FB0006BFE2046FFF7C4FF0DB030BD70B5012643
:107FC0008AB00025CDE902560F2300930196D0E92F
:107FD00007123346044604A804F030FF04A804F056
:107FE000EDFF3D2815D12046FFF7C6FF03212046AF
:107FF000FFF70AFF31462046FFF738FF29462046A3
:10800000FFF781FF20462946FFF762FF30460AB09E
:1080100070BD2846FBE737B5C36904465BB910203D
:10802000CDE90012FCF737F8054618B1DDE900127A
:1080300005F00BF8E5610023E0692362012105F0FA
:1080400020F828B1204603B0BDE83040FFF7B6BFA6
:1080500003B030BD30B501238BB00C460025322271
:108060000221CDE90253CDE90021D0E9071204A88D
:1080700004F0E4FE2A46C4F30E0104A804F03EFF17
:108080000BB030BD30B58BB000259DF83C4064008E
:1080900044EAC1119DF8384041EA840141EA4313A2
:1080A00043EA82129DF84040012342F00802CDE9E4
:1080B0000253D2B21443302201930092D0E9071246
:1080C00004A804F0BBFE2A46214604A804F016FFCB
:1080D0000BB030BD10B54218405C937854781B0447
:1080E00043EA04230343D07843EA006010BD4318F9
:1080F000405C5A7840EA0220704710B42AB90268FE
:108100005DF8044B9268C9B210475DF8044BD2B2D7
:1081100008F059BE12B903689B681847D2B208F03C
:1081200052BE10B50446FFF7F5FF2046BDE81040EB
:1081300008F031BE0368C9B29B6818474FF400527B
:1081400002804221002210B5C0E90122C0E90322C9
:10815000C0E90522C0E90722C0E90922C0E90B22D3
:10816000C0E90D22C0E90F22C0E91122C0E91322A3
:10817000C0E91522C0E91722C0E91922C0E91B2273
:10818000C0E91D22C0E91F22C0F8E810802180F854
:10819000091100F1F401C0F814112549C0F8C420F8
:1081A00000F1F604C0E94612C0E92122C0E9232209
:1081B000C0E92522C0E92722C0E92922C0E92B22F3
:1081C000C0E92D22C0E92F22C0E93E22C0E94022A9
:1081D000C0E94322C0F8D020C0F8D82080F8082198
:1081E000C0F82021C0E94941C0E94D21C0E9512131
:1081F0001049C0F84C1140F66411A0F850115821F4
:1082000080F85D110121C0E94B22C0E94F22C0F87E
:10821000542180F86421C0F86821A0F86C21C0F8CE
:10822000EC20C0F8F010A0F87221A0F8742110BD65
:108230000000020200026464F8B504460D46D0F85E
:10824000FC00A9B9A8B1FBF72AFF94F8E930C4F8FB
:10825000FC50C4F83451C4F8F85013B994F8EA301B
:1082600023B12049D4F8D40008F0ABFD012011E07F
:10827000B8B92846FBF711FFC4F8FC00C4F8340174
:1082800060BB94F8E930C4F8F80023B994F8EA30F8
:108290000BB90020F8BD1449D4F8D40008F091FDC2
:1082A000F7E70846FBF7F9FE064640B994F8E930CF
:1082B0001BB994F8EA30002BEBD00C49ECE7D4E979
:1082C0003E27AA4228BF2A4639460AF003FA384612
:1082D000FBF7E5FEC4F8FC60C4F83461C4F8F8505C
:1082E000C4E700BF3C500C0067500C0092500C00DB
:1082F0000D2900F0CD8009D8022900F0A7800629B9
:1083000000F0BE80012916D000207047132900F02C
:10831000D480282900F0DC801029F5D1102A00F043
:10832000C98000F2BA80022A00F0C180032AEBD192
:10833000D0F8880066E0262A54D8002AE4D0013A12
:10834000252AE1D801A353F822F000BF03840B00D3
:1083500009830B000D840B0011840B0015840B00A6
:1083600009830B0019840B0009830B001D840B008B
:1083700009830B0009830B0009830B0009830B00A1
:1083800009830B0009830B0009830B0021840B0078
:1083900025840B0029840B002D840B0009830B001E
:1083A00009830B0031840B0009830B0009830B0048
:1083B00009830B0009830B0009830B0009830B0061
:1083C00009830B0009830B0009830B0035840B0024
:1083D00039840B0009830B0009830B0009830B0010
:1083E0003D840B003C2A2DD005D8352A28D03B2AC5
:1083F0008AD1806C06E0602A26D0612A84D1806907
:1084000000E0C068003818BF012070470069F9E734
:108410004069F7E7C069F5E7006AF3E7406AF1E70A
:10842000C06AEFE7006BEDE7406BEBE7806BE9E7D5
:10843000C06BE7E7806AE5E7006CE3E7406CE1E7E3
:10844000C06CDFE7006DDDE7406DDBE7342A15D057
:1084500006D8132A0BD0152A7FF456AFC06ED1E789
:10846000722A06D0732A7FF44FAF006ECAE7806E7F
:10847000C8E7836D002B3BD1C06DC3E7406EC1E7F9
:1084800022B1082A7FF440AF406FBBE7006FB9E725
:10849000032A7FF439AF806FB4E7142A05D0152A78
:1084A0007FF432AFD0F88000ACE7C06FAAE7D0F815
:1084B0008400A7E7D0F88C00A4E7602A05D0802AC2
:1084C0007FF422AFD0F8A0009CE7D0F89C0099E799
:1084D000012A07D0022A08D0002A7FF415AFD0F86D
:1084E00090008FE7D0F894008CE7D0F8980089E7E7
:1084F000012070470D2935D007D8022919D0062947
:108500002AD001290DD00020704713292FD0282907
:1085100034D01029F7D1023AD2B2132AF3D81F4B24
:1085200004E0013AD2B2602AEDD81D4B33F81200B4
:108530007047342A27D007D8132A26D0152A14BF0B
:1085400000204FF439607047722A20D0732A14BF7C
:1085500000204FF484707047E2B1082A14BF002055
:1085600006207047032A14BF00201C207047602A91
:1085700012D0802A14BF0020A4207047022AC2D83B
:10858000084B985C70470C207047482070474FF4A8
:108590000470704714207047082070472A5D0C0053
:1085A000685C0C00525D0C0010B590F8EC10CA0726
:1085B00015D4D0F86021594B22F0FF029A4201D124
:1085C0008B070CD490F86131472B74D1B0F862312D
:1085D00045F24114A34204D111F0040F6BD00120E5
:1085E00070E045F24214A34202D111F0080FF5E702
:1085F00045F24234A34202D111F0100FEEE744F2EB
:108600004714A34202D111F0200FE7E744F64C448F
:10861000A34202D111F0400FE0E745F24C14A3420F
:1086200002D111F0800FD9E745F24E118B4204D1EF
:1086300090F8ED3013F0010FD0E745F24E318B4248
:1086400004D190F8ED3013F0020FC7E745F2501156
:108650008B4204D190F8ED3013F0040FBEE745F2E1
:1086600051118B4204D190F8ED3013F0080FB5E7AB
:1086700045F252318B4204D190F8ED3013F0100FD7
:10868000ACE744F253118B4204D190F8ED3013F073
:10869000200FA3E745F253418B4204D190F8ED300F
:1086A00013F0400F9AE745F253618B4203D190F9E2
:1086B000ED30002B93DB1A4B9A4204D190F8EE0078
:1086C00000F0010010BD174B9A4204D190F8EE0063
:1086D000C0F34000F6E7144B9A4204D190F8EE0044
:1086E000C0F38000EEE7114B9A4204D190F8EE00FF
:1086F000C0F3C000E6E70E4B9A4204D190F8EE00BA
:10870000C0F30010DEE70B4B9A4204D190F8EE0064
:10871000C0F34010D6E70020D4E700BF0044544D1A
:1087200000524C4D00524D430054585400564C5783
:1087300000565447005A444190F85E312A2B57D1D5
:1087400090F85F31472B53D1D0F86031294A23F09C
:10875000FF03934211D090F86121472A1AD1B0F853
:108760006221A2F5A241413989B2102907D922F02C
:10877000100145F24230814229D1012070471E4844
:1087800020FA01F1C907F8D422F4007245F25341EE
:108790008A42F2D0194A9342EFD002F1764202F5B2
:1087A00080329342E9D0164A9342E6D002F1022287
:1087B00002F574029342E0D002F1704202F5002209
:1087C0009342DAD00F481B1A58425841704744F27E
:1087D00047118A42D1D044F64C418A42CDD045F26D
:1087E0004E318A42C9D044F253118A42C5D0CBE7F8
:1087F000002070470044544D03A8010000524C4D26
:1088000000545854005A444110B590F8F010CA076B
:1088100015D4D0F86021594B22F0FF029A4201D1C1
:108820008B070CD490F86131472B74D1B0F86231CA
:1088300045F24114A34204D111F0040F6BD0012082
:1088400070E045F24214A34202D111F0080FF5E79F
:1088500045F24234A34202D111F0100FEEE744F288
:108860004714A34202D111F0200FE7E744F64C442D
:10887000A34202D111F0400FE0E745F24C14A342AD
:1088800002D111F0800FD9E745F24E118B4204D18D
:1088900090F8F13013F0010FD0E745F24E318B42E2
:1088A00004D190F8F13013F0020FC7E745F25011F0
:1088B0008B4204D190F8F13013F0040FBEE745F27B
:1088C00051118B4204D190F8F13013F0080FB5E745
:1088D00045F252318B4204D190F8F13013F0100F71
:1088E000ACE744F253118B4204D190F8F13013F00D
:1088F000200FA3E745F253418B4204D190F8F130A9
:1089000013F0400F9AE745F253618B4203D190F97F
:10891000F130002B93DB1A4B9A4204D190F8F2000D
:1089200000F0010010BD174B9A4204D190F8F200FC
:10893000C0F34000F6E7144B9A4204D190F8F200DD
:10894000C0F38000EEE7114B9A4204D190F8F20098
:10895000C0F3C000E6E70E4B9A4204D190F8F20053
:10896000C0F30010DEE70B4B9A4204D190F8F200FE
:10897000C0F34010D6E70020D4E700BF0044544DB8
:1089800000524C4D00524D430054585400564C5721
:1089900000565447005A4441D0F8D00010B1036843
:1089A0009B6818477047000037B53D4B044604F2FA
:1089B0005F15186800909B88ADF8043005222946A1
:1089C000684609F077FE28B9D4F8A43013B1012025
:1089D00003B030BD3349684609F00AFF0522294635
:1089E000684609F067FE18B9D4F8A830002BEED11C
:1089F0002D49684609F0FCFE05222946684609F023
:108A000059FE18B9D4F8AC30002BE0D1274968469C
:108A100009F0EEFE05222946684609F04BFE18B91A
:108A2000D4F8B030002BD2D12149684609F0E0FEDD
:108A300005222946684609F03DFE18B9D4F8B4303D
:108A4000002BC4D11B49684609F0D2FE05222946F5
:108A5000684609F02FFE18B9D4F8B830002BB6D10B
:108A60001549684609F0C4FE05222946684609F002
:108A700021FE18B9D4F8BC30002BA8D10F496846A4
:108A800009F0B6FE05222946684609F013FE28B90A
:108A9000D4F8C000003818BF012099E7002097E7FC
:108AA000E8500C00BE500C00C4500C00CA500C0022
:108AB000D0500C00D6500C00DC500C00E2500C00E2
:108AC00037B5624B044604F25F15186800909B8826
:108AD000ADF8043005222946684609F0EBFD78B967
:108AE000D4F8A43063B1D3F8D4204AB1D3F8CC2061
:108AF000002A40F0A380D3F8D030002B40F09E80B5
:108B00005349684609F074FE05222946684609F073
:108B1000D1FD78B9D4F8A83063B1D3F8D4204AB1E4
:108B2000D3F8CC20002A40F08980D3F8D030002B35
:108B300040F084804749684609F05AFE05222946DC
:108B4000684609F0B7FD68B9D4F8AC3053B1D3F832
:108B5000D4203AB1D3F8CC20002A6FD1D3F8D0304A
:108B6000002B6BD13C49684609F042FE052229469C
:108B7000684609F09FFD68B9D4F8B03053B1D3F816
:108B8000D4203AB1D3F8CC20002A57D1D3F8D03032
:108B9000002B53D13149684609F02AFE05222946A7
:108BA000684609F087FD68B9D4F8B43053B1D3F8FA
:108BB000D4203AB1D3F8CC20002A3FD1D3F8D0301A
:108BC000002B3BD12649684609F012FE05222946B2
:108BD000684609F06FFD58B9D4F8B83043B1D3F8FE
:108BE000D4202AB1D3F8CC2042BBD3F8D0302BBB51
:108BF0001C49684609F0FCFD05222946684609F033
:108C000059FD40B9D4F8BC302BB11A6F1AB19A6E25
:108C1000A2B9DB6E93B91449684609F0E9FD052253
:108C20002946684609F046FD58B9D4F8C03053B11A
:108C3000186F20B19A6E0AB9D86E00B1012003B046
:108C400030BD0020FBE71846F9E700BFE8500C00F4
:108C5000BE500C00C4500C00CA500C00D0500C0088
:108C6000D6500C00DC500C00E2500C0037B5384BED
:108C7000044604F25F15186800909B88ADF8043034
:108C800005222946684609F015FD20B9D4F8A4004C
:108C9000013003B030BD2F49684609F0A9FD052217
:108CA0002946684609F006FD10B9D4F8A800EFE798
:108CB0002949684609F09CFD05222946684609F0C5
:108CC000F9FC10B9D4F8AC00E2E72449684609F091
:108CD0008FFD05222946684609F0ECFC10B9D4F84E
:108CE000B000D5E71E49684609F082FD05222946F5
:108CF000684609F0DFFC10B9D4F8B400C8E7194998
:108D0000684609F075FD05222946684609F0D2FC3F
:108D100010B9D4F8B800BBE71349684609F068FDFC
:108D200005222946684609F0C5FC10B9D4F8BC00F4
:108D3000AEE70E49684609F05BFD05222946684604
:108D400009F0B8FC10B9D4F8C000A1E70020A0E7F2
:108D5000E8500C00BE500C00C4500C00CA500C006F
:108D6000D0500C00D6500C00DC500C00E2500C002F
:108D700037B5384B044604F25F15186800909B889D
:108D8000ADF8043005222946684609F093FC20B965
:108D9000D4F8A400023003B030BD2F49684609F072
:108DA00027FD05222946684609F084FC10B9D4F84D
:108DB000A800EFE72949684609F01AFD052229466F
:108DC000684609F077FC10B9D4F8AC00E2E7244912
:108DD000684609F00DFD05222946684609F06AFC3F
:108DE00010B9D4F8B000D5E71E49684609F000FD77
:108DF00005222946684609F05DFC10B9D4F8B40094
:108E0000C8E71949684609F0F3FC05222946684677
:108E100009F050FC10B9D4F8B800BBE71349684614
:108E200009F0E6FC05222946684609F043FC10B922
:108E3000D4F8BC00AEE70E49684609F0D9FC05221B
:108E40002946684609F036FC10B9D4F8C000A1E7FD
:108E50000020A0E7E8500C00BE500C00C4500C00ED
:108E6000CA500C00D0500C00D6500C00DC500C0046
:108E7000E2500C0037B5394B044604F25F15186810
:108E800000909B88ADF8043005222946684609F019
:108E900011FC20B9D4F8A400663003B030BD3049CD
:108EA000684609F0A5FC05222946684609F002FC3F
:108EB00010B9D4F8A800EFE72A49684609F098FCF1
:108EC00005222946684609F0F5FB10B9D4F8AC0034
:108ED000E2E72549684609F08BFC052229466846E9
:108EE00009F0E8FB10B9D4F8B000D5E71F4968468F
:108EF00009F07EFC05222946684609F0DBFB10B923
:108F0000D4F8B400C8E71A49684609F071FC052294
:108F10002946684609F0CEFB10B9D4F8B800BBE783
:108F20001449684609F064FC05222946684609F0A0
:108F3000C1FB18B9D4F8BC003430AEE70E4968461E
:108F400009F056FC05222946684609F0B3FB10B922
:108F5000D4F8C000F0E700209FE700BFE8500C0005
:108F6000BE500C00C4500C00CA500C00D0500C0075
:108F7000D6500C00DC500C00E2500C0037B5394BD9
:108F8000044604F25F15186800909B88ADF8043021
:108F900005222946684609F08DFB20B9D4F8A400C3
:108FA000673003B030BD3049684609F021FC052226
:108FB0002946684609F07EFB10B9D4F8A800EFE70F
:108FC0002A49684609F014FC05222946684609F03A
:108FD00071FB10B9D4F8AC00E2E72549684609F006
:108FE00007FC05222946684609F064FB10B9D4F84D
:108FF000B000D5E71F49684609F0FAFB052229466B
:10900000684609F057FB10B9D4F8B400C8E71A490C
:10901000684609F0EDFB05222946684609F04AFB3F
:1090200010B9D4F8B800BBE71449684609F0E0FB72
:1090300005222946684609F03DFB18B9D4F8BC0062
:109040003530AEE70E49684609F0D2FB05222946C5
:10905000684609F02FFB10B9D4F8C000F0E70020F3
:109060009FE700BFE8500C00BE500C00C4500C003D
:10907000CA500C00D0500C00D6500C00DC500C0034
:10908000E2500C0037B5394B044604F25F151868FE
:1090900000909B88ADF8043005222946684609F007
:1090A00009FB28B9D4F8A430D3F8D40003B030BDFC
:1090B0002F49684609F09CFB05222946684609F0BD
:1090C000F9FA10B9D4F8A830EEE72A49684609F051
:1090D0008FFB05222946684609F0ECFA10B9D4F84E
:1090E000AC30E1E72449684609F082FB05222946B5
:1090F000684609F0DFFA10B9D4F8B030D4E71F4958
:10910000684609F075FB05222946684609F0D2FA3F
:1091100010B9D4F8B430C7E71949684609F068FBBC
:1091200005222946684609F0C5FA10B9D4F8B830C6
:10913000BAE71449684609F05BFB052229466846F0
:1091400009F0B8FA18B9D4F8BC30186FAEE70E4978
:10915000684609F04DFB05222946684609F0AAFA3F
:1091600010B9D4F8C030F0E700209FE7E8500C00B9
:10917000BE500C00C4500C00CA500C00D0500C0063
:10918000D6500C00DC500C00E2500C0037B53A4BC6
:10919000044604F25F15186800909B88ADF804300F
:1091A00005222946684609F085FA30B9D4F8A4307A
:1091B000D3F8D400013003B030BD3049684609F01F
:1091C00017FB05222946684609F074FA10B9D4F84D
:1091D000A830EDE72A49684609F00AFB052229462E
:1091E000684609F067FA10B9D4F8AC30E0E72549D1
:1091F000684609F0FDFA05222946684609F05AFA40
:1092000010B9D4F8B030D3E71F49684609F0F0FA36
:1092100005222946684609F04DFA10B9D4F8B43051
:10922000C6E71A49684609F0E3FA05222946684666
:1092300009F040FA10B9D4F8B830B9E714496846D3
:1092400009F0D6FA05222946684609F033FA18B91A
:10925000D4F8BC30186FADE70E49684609F0C8FA7B
:1092600005222946684609F025FA10B9D4F8C0301D
:10927000F0E700209FE700BFE8500C00BE500C0054
:10928000C4500C00CA500C00D0500C00D6500C003A
:10929000DC500C00E2500C0013B5304B044604F2D5
:1092A0005F14186800909B88ADF8043005222146B1
:1092B000684609F0FFF910B9642002B010BD2849D2
:1092C000684609F095FA05222146684609F0F2F948
:1092D0000028F1D02349684609F08AFA0522214680
:1092E000684609F0E7F90028E6D01F49684609F00A
:1092F0007FFA05222146684609F0DCF90028DBD018
:109300001A49684609F074FA05222146684609F0B0
:10931000D1F90028D0D01649684609F069FA05222B
:109320002146684609F0C6F90028C5D011496846AB
:1093300009F05EFA05222146684609F0BBF948B1FA
:109340000D49684609F054FA05222146684609F09D
:10935000B1F908B93220B0E70020AEE7E8500C00C0
:10936000BE500C00C4500C00CA500C00D0500C0071
:10937000D6500C00DC500C00E2500C0037B5384BD6
:10938000044604F25F15186800909B88ADF804301D
:1093900005222946684609F08DF918B9D4F8A400C9
:1093A00003B030BD2F49684609F022FA052229464C
:1093B000684609F07FF910B9D4F8A800F0E72A4907
:1093C000684609F015FA05222946684609F072F93F
:1093D00010B9D4F8AC00E3E72449684609F008FA6C
:1093E00005222946684609F065F910B9D4F8B0009D
:1093F000D6E71F49684609F0FBF905222946684669
:1094000009F058F910B9D4F8B400C9E71949684609
:1094100009F0EEF905222946684609F04BF910B922
:10942000D4F8B800BCE71449684609F0E1F9052210
:109430002946684609F03EF910B9D4F8BC00AFE7F8
:109440000E49684609F0D4F905222946684609F014
:1094500031F910B9D4F8C000A2E70020A0E700BF9E
:10946000E8500C00BE500C00C4500C00CA500C0058
:10947000D0500C00D6500C00DC500C00E2500C0018
:109480007047000038B513880C4D012B14460ED1DF
:109490000A0202F440722A8001332380FFF7F0FFB2
:1094A00020882B88984214BF0320002038BD022B4F
:1094B000F2D12A880A430632EDE700BF1EE60320F8
:1094C00030B54A780D784C882A4454FA82F000EB83
:1094D000142355FA82F203F0FF0352FA80F20B7361
:1094E00013444B73002293B29C420AD98B68087BC9
:1094F0009B5C0344487BDBB20B7303444B73013228
:10950000F1E730BD90F85A31194490F85B31C9B297
:1095100080F85A11194480F85B1170472DE9F74F14
:10952000B1F802B00BF1080B1FFA8BFB4FF00008EB
:10953000ABF1020304460D46DA46C1460093BAF188
:10954000000F00F0A680667894F8E810D4F8C80000
:10955000564528BF5646AAEB060A1FFA8AFABAF100
:10956000010F02BF06F1FF36B6B24FF0020A06F055
:1095700015F9B9F1000F5CD1D4F8C8000368B52122
:109580009B689847D4F8C800036862219B68984795
:10959000D4F8C800297803689B689847D4F8C800B5
:1095A000697803689B689847A978D4F8C800FEF7E3
:1095B000C1FD6988D4F8C800090AFEF7BBFD4B4617
:1095C0006A88D4F8C8001FFA83F909F106074A45EA
:1095D000BFB20DD9BE420BD9AA68016801934244BB
:1095E0008F68D15CB847019B0133E9E7B946A6E72C
:1095F000023EC844B7421FFA88F80CD10368297BA1
:109600009B689847D4F8C800697B03689B689847B3
:1096100009F10807BFB25F45E8D294F87411D4F895
:10962000C80006F0C2F80028E0D00C2003B0BDE866
:10963000F08F002291B219FA82F78E42D4F8C80056
:10964000BFB210D9B5F802E008EB020C531CF44588
:10965000019308DAA968026811F80C109268904723
:10966000019B1A46E6E7009B88449F421FFA88F850
:10967000D1D1023EB242CED10368297B9B68984784
:10968000D4F8C800697B03689B6898471FFA8BF77A
:10969000C1E7D4F8C80006F08CF80028C6D0C4E7AB
:1096A00070B50546D0F8CC0003680C469B68B52120
:1096B0009847D5F8CC00036862219B689847D5F895
:1096C000CC00217803689B689847D5F8CC00617876
:1096D00003689B689847D5F8CC00A17803689B681D
:1096E0009847D5F8CC0061880368090A9B689847B9
:1096F0000026D5F8CC0061880368B2B291429B681D
:1097000004D9A168895C98470136F2E7217B984724
:10971000D5F8CC00617B0368BDE870409B681847B2
:1097200010B50446D0F8DC0007F0C6FC94F8083108
:1097300094F809219A420BD9FF2801D122783AB135
:10974000D4F80421D05494F80831013384F8083156
:1097500010BD00002DE9FF41D0F8043104460D464C
:109760007BB990F8E93023B990F8EA30002B00F08B
:10977000CA806649D4F8D40004B0BDE8F04107F0CF
:1097800006BBD0F8E430624A02930026012380F839
:1097900008616946D0F8DC00ADF80C3000928DF815
:1097A000046007F01BFC94F8E000314608F087F8ED
:1097B000B5212046FFF7B4FF62212046FFF7B0FF36
:1097C00029782046FFF7ACFF69782046FFF7A8FF0D
:1097D000A9782046FFF7A4FF69882046090AFFF709
:1097E0009FFF94F8E930002B42D04A49D4F8D400C6
:1097F00007F0CDFA1022D4F8D400B521FEF78AFC88
:109800004549D4F8D40007F0C2FA1022D4F8D400A5
:109810006221FEF77FFC4049D4F8D40007F0B7FA84
:1098200010222978D4F8D400FEF774FC3A49D4F811
:10983000D40007F0ACFA10226978D4F8D400FEF70F
:1098400069FC3549D4F8D40007F0A1FA1022A978B0
:10985000D4F8D40007F0B7FA2F49D4F8D40007F0B1
:1098600096FA6988D4F8D4001022090A07F0ABFAF6
:10987000DFF8A48000266A88B3B29A4216D91F4640
:10988000AB682046D95DFFF74BFF94F8E9305BB138
:109890004146D4F8D40007F07AFAAB68D4F8D40083
:1098A000D95D1022FEF736FC0136E4E7297B20461D
:1098B000FFF736FF697B2046FFF732FF94F8E000A0
:1098C000012107F0FCFFD4F8DC0007F06EFB94F8F0
:1098D000E930C3B11049D4F8D40007F058FA297B15
:1098E000D4F8D4001022FEF715FC0B49D4F8D400AC
:1098F00007F04DFA697BD4F8D400102204B0BDE81B
:10990000F041FEF70EBC04B0BDE8F081EE500C0053
:10991000A44E0C0023510C0049600C00F8B590F8DF
:10992000E93004460D461646002B00F0828090F880
:109930004C714049D0F8D40007F029FA2B78012B5C
:109940003CD13D49D4F8D40007F021FA3B49D4F882
:10995000D40007F01CFA2B8840F20172934245D1E3
:109960003749D4F8D40007F012FA3649D4F8D400B5
:1099700007F00DFA6988D4F8D400102207F023FA12
:10998000012F01D1002E49D02F49D4F8D4002F4FF8
:1099900007F0FDF900266A88D4F8D400B3B29A42E1
:1099A00041D9394607F0F3F9B3B2A968D4F8D40025
:1099B000C95C1022FEF7AEFB0136ECE7052BD4F8AC
:1099C000D40001D12249BFE7062B01D12149BBE7D1
:1099D0000A2B01D12049B7E7204907F0D8F92978A7
:1099E000D4F8D4001022FEF795FBAFE740F606024C
:1099F0009342D4F8D40001D11949B4E740F60612D5
:109A0000934201D11749AEE7144907F0C0F96978CC
:109A1000D4F8D4001022FEF77DFBA6E71249D4F853
:109A2000D40007F0B4F9D4F8D400BDE8F84007F04A
:109A3000B2B9F8BD34510C0039510C0049510C0039
:109A40004E510C005C510C0065510C0049600C003B
:109A50003D510C0041510C0045510C00BA530C0013
:109A600052510C0057510C006F510C0038B5B0F832
:109A70006C51044655B990F8E9300BB9002038BD57
:109A80001A49D4F8D40007F09CF9F7E7D0F8683108
:109A90002BB190F8E930002BF0D01549F1E72846BA
:109AA000FAF7FBFA94F8E930C4F8680130B91BB949
:109AB00094F8EA30002BE1D00E49E2E77BB10E4981
:109AC000D4F8D40007F063F9D4F8D450B4F86C118A
:109AD0000A22284607F077F9284607F05CF90023A8
