:02000002B0004C
:1040000000400B00D4860C000000060017000502DB
:084010000401A30F00000000F1
:04401800CC610C006B
:1040200009480A49884208B505D0094A824202D0A7
:10403000121A0FF0FDFF0748074A0021121A10F06C
:104040001FF8014808BD00BF54DB0320A8840C0002
:1040500058DD032058DD0320EDE7032070B5074E3F
:10406000074C0DF0B7FCA41BA4080025AC4200D1FE
:1040700070BD56F8043B98470135F7E75C840C00A7
:1040800080840C0001F0A4BF08B501F025FFBDE855
:1040900008400DF057BC09F0B7BE09F0B5BE09F0F5
:1040A000BBBE09F0B9BE000008B5034A03490C20A5
:1040B00009F0A4FDFEE700BF3DD80B00E0610C0055
:1040C0000078B0FA80F04009704701230370704710
:1040D00070477047006A0368DB6818477047037CC5
:1040E00013F008031EBFC36A406A1B1A002BACBF43
:1040F00018466FF0004070477047000008B5134B3A
:104100001A78134B1B789B0043EA4203114A12783A
:104110001343114A127843EAC203104A127843EA61
:1041200002130F4A127843EA82130E4A127843EAC6
:10413000C2130D4A13700D4B01221A700DF0BAFB19
:10414000BDE808400A490CF00CBF00BFA4DD032005
:1041500064DD032094DD0320D8E0032060DB03202E
:1041600004DF0320FDDE0320A8E50320C8E50320CB
:10417000F5610C0010B510210446FFF792FF2046B0
:1041800010BD10B534210446FFF78BFF204610BD4B
:10419000103002F0E5BD07B501228DF80710103090
:1041A0000DF1070102F0DCFD03B05DF804FB1030F7
:1041B00002F04CBD103002F02DBC07B501220DF10C
:1041C0000701103002F078FB01280CBF9DF80700B2
:1041D0004FF0FF3003B05DF804FB436913B183690E
:1041E0000C301847704713B500210446084609F003
:1041F000CDFA0023204601A9019309F0DFFA019CC2
:104200000CB1012323710021012009F0BFFA2CB168
:10421000236820469B6898470023237102B010BD95
:10422000012A02D1016000207047022A04BF0B68F6
:104230000360F8E7036818470368C9B29B6818472A
:1042400010B5054B00220446114640F8043B09F026
:10425000F5FC204610BD00BF6C680C0010B504468C
:10426000FFF7EEFF20462021FFF71BFF204610BD81
:104270000A4B10B5044603600BF07CFF21460CF09E
:10428000B4F90DF017FB0DF009FB2046044B40F884
:10429000043B0CF045F8204610BD00BF80680C00C0
:1042A00054680C0010B50446FFF7E2FF20462421B5
:1042B000FFF7F7FE204610BD37B5044680680D466F
:1042C00030B10023CDE900331A46022109F07EFA0D
:1042D000A06830B10023CDE900531A46194609F011
:1042E00075FA03B030BD0EB403B503AB002153F82B
:1042F000042B01930CF05FFE02B05DF804EB03B0F9
:104300007047000073B5044608462279A36832B1AD
:10431000A3B90B4902B0BDE870400CF00BBE094ACE
:10432000267B094D0949647B012E18BF2946CDE93A
:1043300000140749FFF7D7FF02B070BD054AEFE749
:104340001F620C00F3790C001B620C0017620C005A
:1043500035620C000E620C000EB403B503AB0121F4
:1043600053F8042B01930CF026FE02B05DF804EB29
:1043700003B0704770B52B4D2B783BBB2A4E33787A
:104380005A2B23D0294C23785A2B1FD009F066FAD8
:10439000274B1B68C01AB0F57A6F17D9254B2648F2
:1043A0005A211970254B31701970254B217001224B
:1043B0001A700CF048FE217822480CF044FE0DF0F3
:1043C00079FA21494FF47A62FFF7C6FF1F4E34781D
:1043D0003CBB2B782BB309F041FA1D4B1B68C01A6C
:1043E000B0F57A6F1DD91B4B2C701C700E4B3470BE
:1043F0005A2119700F4B0D4C1970104B0E48197043
:104400000F4B217001221A700CF01DFE21780D480F
:104410000CF019FE0DF04EFA0F494FF47A62FFF7D7
:104420009BFF70BD60DB032080E5032081E5032056
:1044300018DE032044DE032074DD0320DBE00320CC
:10444000ECE5032084DD032052620C00D8E5032054
:1044500020DE0320D9E003209C620C0010B58368A5
:10446000044613B1032201469847204610BD0000C0
:1044700037B5134B036004468068C8B100256FF060
:104480000043CDE9003502212B462A4609F09EF96A
:10449000A068294609F0C2F9237903F0FF0513B19A
:1044A00009F06CF9F8E7A068294609F07FF9A560E2
:1044B00004F10C00FFF7D2FF204603B030BD00BF6F
:1044C00040680C0010B50446FFF7D2FF20461C21BF
:1044D000FFF7E7FD204610BDF0B58C4600251449D6
:1044E000057104468560016092E8030085B002AF63
:1044F00004F10C0687E8030096E8030082E8030055
:1045000097E8030086E803009168A0696161D168BB
:104510009560D060A161CDE90035064A2346614629
:1045200004F1080009F03AF9204605B0F0BD00BFDB
:1045300040680C00E7410B0010B504460022407CA7
:1045400009F0B6FB637C0F2B18BF208310BD000061
:1045500010B5244B244A1B785BB1537C0F2B1CBF36
:1045600002235374214B53611E211F48FFF7E4FFC0
:1045700010BD1F4B1B7833B1537C0F2B1CBF022384
:104580005374FF23EFE71B4B1B7823BB1A4B1B789D
:1045900023BB1A4B1B78002B0BBF0A2114210220CE
:1045A0000320174B1C78174B1B789B0043EA4403EE
:1045B000154C24782343013BDBB2062B9CBF134CE4
:1045C00054F82330547C88BF4FF47F030F2C18BF5E
:1045D00050745361C9E714210220E2E7142101203D
:1045E000DFE700BF82E5032088E503200060FF00CD
:1045F000D8E0032004DF0320FDDE032060DB03207E
:10460000A4DD032064DD032094DD032074690C0025
:1046100013460A460149096802F055BB10E603201B
:1046200010B509F069FB2B4CE0B10123237009F0B0
:1046300015F9294B294C1B6847F23052C01A904299
:1046400023D813B30123237009F008F9244B254C18
:104650001B6847F23052C01A904228D83BB301235E
:10466000237010BD2378002BE1D01F48037C2BB9A9
:104670001E4944F202221030FFF7CAFF1C491A48B3
:104680001E22FFF769FE0023D0E723786BB116489E
:10469000037C2BB9154944F202221030FFF7B8FF12
:1046A000134911481E22FFF757FE0023CBE722785B
:1046B00072B16BB10C48037C2BB90C4944F2022255
:1046C0001030FFF7A5FF0B4907481E22FFF744FEF5
:1046D0000023C5E794DD0320A8DD0320A4DD03202B
:1046E00070DD032064DD0320A4DE0320F7DD03205A
:1046F000F6620C0047630C0030B585B01B4B00938D
:1047000013798DF804309368029300F58C659389D2
:10471000ADF80C3004460A466B4600F26C41284660
:1047200003F002FA10B9002005B030BD256004F294
:104730003C45284602F0C0FA0121204603F09FF8CC
:10474000014668B12146284602F0B0F80028EAD0B8
:1047500094F83C3413F0700FE5D0054B1D60E3E78F
:10476000204603F08CF80028ECD1DCE72C680C0024
:1047700010E603202DE9F0478AB08378412B04AF7F
:1047800004468A464CD1C378422B75D120460FF09F
:1047900002FD013820F00700E946ADEB000D204690
:1047A0000FF0F9FC04AD2844002600F8096C2046FF
:1047B000FE713E80BE700FF0EEFC204410F8023C0B
:1047C0003B7020460FF0E7FC2044314610F8013CD6
:1047D0007B701022384610F007FC80465FFA88F89C
:1047E0000DF068F8864943464246FFF7B5FD0426BA
:1047F00020460FF0D0FC0238864216D2062E9BBF10
:1048000007F118039B19AB19A25D8CBFA25D03F8D9
:10481000182C06F1010688BF03F8072CF6B2E7E76B
:10482000422B29D1C378312BAFE740452ED00DF074
:1048300041F8054620460FF0AEFC821E2846714D19
:1048400071494346FFF788FD2B7CCBB96F4944F291
:10485000022205F11000FFF7DBFE6D4922462846D3
:10486000FFF77AFD05F1100002F026FA0DF022F8AC
:1048700068490CF076FBCD461837BD46BDE8F08799
:10488000634922462846FFF767FDEFE76249381D76
:104890000FF052FC0028EED06049381D0FF04CFCA0
:1048A00068B95F4B02935F4B01935F4B00935F4985
:1048B00007F1100307F10802284609F0C5FA5C4920
:1048C000381D0FF039FC00283DD12B783B726B78F6
:1048D0007B72AB78BB72EB783B742B797B7407F1FE
:1048E00008006B79BB740FF086FB524D524C287058
:1048F00007F110000FF07FFB20700CF0DBFF2A782F
:1049000023784E49FFF728FD2B784D485B3B202B41
:104910009CBF7B232B70237829785B3B202B9CBF8B
:104920007B2323700CF08FFB217846480CF08BFB27
:10493000454B01221A7008F091FF444B18603A4B26
:1049400000221A7097E74249381D0FF0F5FB18B99D
:10495000404B83F800A08EE73F49381D0FF0ECFB79
:10496000F0B9284C0CF0A6FF29460CF0FAFA237C8B
:1049700083B9264944F2022204F11000FFF748FEF1
:1049800036492A462046FFF7E7FC04F1100002F002
:1049900093F970E731492A462046FFF7DDFC6AE7C4
:1049A0002F49381D0FF0C8FB20B908F057FF2D4BD9
:1049B000186060E72C49381D0FF0BEFB10B92B4B77
:1049C000187058E72A49381D0FF0B6FB00283FF44D
:1049D00052AF2849381D0FF0AFFB00287FF44BAFD2
:1049E000254B264801221A70244B5A7C0F2A1CBFE3
:1049F00002225A741E21FF225A61FFF79DFD3AE7F9
:104A000096630C00A4DE0320AB630C00F7DD0320EB
:104A1000C8630C00F4630C0015640C0019640C00EE
:104A200082E50320FDDE032060DB03201D640C0013
:104A30002C640C0080E5032081E5032030640C0029
:104A400074DD032084DD0320ECE5032018DE032061
:104A50005C640C00DAE0032060640C0064640C0009
:104A600087640C001CDE03208B640C00EDE5032042
:104A70008F640C0093640C00D8E0032088E50320C9
:104A800010B50C46002204212046FFF773FE0B4BA5
:104A90001B7893B10A48037C2BB90A4944F20222DD
:104AA0001030FFF7B5FD224607490548FFF754FCD3
:104AB000BDE81040054802F0FFB810BDFCDE032041
:104AC000A4DE0320F7DD032097640C00B4DE03208E
:104AD000B0B501F1080323F0070300AFADEB030D00
:104AE0000C460A46014668460FF0A2FA0DEB040395
:104AF0006D4613F8013C13B100230DF804300CF09F
:104B0000D9FE16490CF02DFA0CF0D4FE29460CF013
:104B100028FA012211462846FFF72CFE2B7803F0D5
:104B2000FD03412B03D108F099FE0D4B18600D4B8E
:104B30001B7883B10C48037C2BB90C4944F2022248
:104B40001030FFF765FD0A4907482A46FFF704FCC5
:104B5000084802F0B1F8BD46B0BD00BFB7640C0014
:104B600070DD0320FCDE0320A4DE0320F7DD03203C
:104B7000C7640C00B4DE032013B50024CDE9004463
:104B8000044905480123224609F0C6F8034B1C706E
:104B900002B010BD814A0B00E7640C0094DD0320D5
:104BA00008B50DF01FF80849FFF79DFB142009F028
:104BB0009FF90DF017F80549FFF795FBBDE8084090
:104BC000142009F095B900BFF2790C001D620C00A9
:104BD00007B50CF0C7FF002301460093124840F2CE
:104BE0004C43422208F01AFA40B94FF47A7009F0A7
:104BF0007FF90CF05FFE0D490CF0B3F940F24C4226
:104C00000121094808F096F940F24C4301220021A5
:104C1000054808F06FF90CF0A5FF054903B05DF8F1
:104C200004EB0AF08BBE00BF58DF0320ED640C00DC
:104C3000801A06000000000010B515200CF064FF7B
:104C400007EE900AF8EEE77A374C17EE900A0EF06E
:104C50000BFE2DA3D3E900230EF05EFE0FF054F9F6
:104C6000324B18600EF000FE29A3D3E900230EF0AA
:104C70009BFC2F4B00220EF04FFE27A3D3E900230D
:104C80000EF074FF0FF0F8F864280346A8BF642301
:104C900023EAE37314282370264BCCBF00200120A5
:104CA000187010200CF030FF07EE900AF8EEE77A4B
:104CB00017EE900A0EF0D8FD1F4B00220EF02CFECE
:104CC00017A3D3E900230EF051FF0FF01DF91B4B82
:104CD000186011200CF018FF07EE900AF8EEE77A42
:104CE00017EE900A0EF0C0FD154B00220EF014FED8
:104CF0000BA3D3E900230EF039FF0FF005F9114B98
:104D00001860207810BD00BF59C0046EDDCD733F20
:104D10006666666666662A409899999999990940E7
:104D20000000000000FEAF40C0DD0320C4DD032012
:104D30000000594004DF032000804040BCDD032018
:104D40000080304084E5032038B5F0EE607A2DED28
:104D5000048BF0EE400AB0EE670A0DF02FF910EE6A
:104D6000100A0EF081FD8E4B00220EF0D5FD84A3BB
:104D7000D3E900230EF0FAFE0FF0C6F808EE100A91
:104D8000F1EE088AB4EEE88AF1EE10FAB3EE0F9A6B
:104D900013DBB4EEC98AF1EE10FA0ED50EF064FD05
:104DA000804B00220EF000FC7F4B00220EF0B4FD81
:104DB0007E4B00220EF0DAFE21E018EE100A0EF013
:104DC00053FDB4EEC98AF1EE10FADFED797A0446AC
:104DD0000D461BDBB4EEE78AF1EE10FA16D5754BE3
:104DE00000220EF0E1FB704B00220EF095FD724B9D
:104DF00000220EF0BBFE6C4B00220EF0D7FB0FF032
:104E000083F8BDEC048B00EE100A38BDB4EEE78ADF
:104E1000F1EE10FADFED697A15DBB4EEE78AF1EE18
:104E200010FA10D5664B0022204629460EF0BCFB36
:104E30005D4B00220EF070FD624B00220EF096FEDC
:104E4000614B0022D9E7B4EEE78AF1EE10FA18DBE5
:104E5000DFED5E7AB4EEE78AF1EE10FA11D55C4B25
:104E60000022204629460EF09FFB4F4B00220EF0F9
:104E700053FD584B00220EF079FE43A3D3E90023E3
:104E8000BBE7BBEE027AB4EEC78AF1EE10FA11DB93
:104E9000B4EEE88AF1EE10FA0CD5424B002220461F
:104EA00029460EF081FB4C4B00220EF035FD4B4B9A
:104EB00000227FE7DFED4A7AB4EEE78AF1EE10FADE
:104EC00017DBB4EEC78AF1EE10FA12D5454B00227B
:104ED000204629460EF06AFB3F4B00220EF01CFDD7
:104EE000414B00220EF042FE2F4B00220EF05CFBE5
:104EF00085E79FED3E7AB4EEC78AF1EE10FA15DB36
:104F0000B4EEE78AF1EE10FA10D5394B00222046B4
:104F100029460EF04BFB304B00220EF0FDFC354BCA
:104F200000220EF023FE284B0022DFE7B5EEC08AF8
:104F3000F1EE10FA4FF0000210DD2F4B204629460B
:104F40000EF032FB184B00220EF0E6FC10A3D3E962
:104F500000230EF00BFE124B0022C7E7274B204622
:104F600029460EF023FB0CA3D3E900230EF0D4FC5A
:104F7000234B00220EF0FAFD03A3D3E90023B5E78B
:104F8000182D4454FB2109400000000000E060405F
:104F90000000000000A06340000000BB543C3D4006
:104FA0000080664000001840008046400000394004
:104FB0000000684200003F4000003B400000AC425F
:104FC00000004D4000003C40008056400000FA4286
:104FD0000080554000804340008046C0000038C03B
:104FE000000020C200003240000036C000009CC219
:104FF00000004440000043C000405F400080534038
:10500000008059400000000010B52DED088B70EEB7
:10501000607A82B017EE900AF0EE41AAB0EE61AA73
:10502000F0EE608AB0EE408A0EF01EFC42A3D3E997
:1050300000230EF071FC0EF067FF07EE900AB6EE4B
:1050400000BA27EE8B0A0CF043FF18EE900AB0EE80
:10505000409A0EF009FC38A3D3E900230EF05CFC63
:105060000EF052FF00EE100A0CF0FAFE18EE100AD5
:10507000F0EE408A0EF0F8FB2FA3D3E900230EF0E8
:105080004BFC0EF041FF00EE100A0CF0E9FE7AEE48
:10509000CA7AF0EE409A17EE900A0EF0E5FB26A3CE
:1050A000D3E900230EF038FC0EF02EFF07EE900A35
:1050B00027EE8B0A0CF00CFF68EEA98A68EE808A56
:1050C00028EE808AA9EE098AB0EE480A0CF078FF33
:1050D00018EE100A10EE104A0EF0C6FB02460B4600
:1050E000002013490EF060FA41EC100B0CF02CFF7D
:1050F00020468DED000B0EF0B7FB9DED001B41EC43
:10510000100B0CF01FFF53EC102B10EE100A194679
:105110000EF04CFA0EF0F8FE9FED060A07EE900A2C
:1051200027EE800A02B0BDEC088B10BDAFF3008003
:105130000000F03F706DC24A70E20DA545DF913F5F
:1051400038B5F5EEC00AF1EE10FA2DED028BB5EE92
:10515000C00AB0EE608A37DDF1EE10FA04DD38EEF9
:10516000400ABDEC028B38BDDFED2B7A77EEE07A9A
:10517000F1EE677AB4EEE70AF1EE10FAEFDC10EE2A
:10518000100A0EF071FB254B00220EF00FFA0246BA
:105190000B46002000210EF007FA044618EE100A14
:1051A0000D460EF061FB02460B4600201B490EF037
:1051B000FBF902460B46204629460EF0F5F90EF0A3
:1051C000A3FE00EE100ACCE7F1EE10FAC7DDDFED2A
:1051D000127A70EEA77AB4EEE70AF1EE10FABED4B6
:1051E00010EE100A0EF040FB02460B4600200B4961
:1051F0000EF0DAF9044618EE100A0D460EF034FBF4
:10520000064B00220EF0D2F902460B4620462946F4
:105210000EF0CCF9D3E700BF0000344300806640B5
:105220002DE9F04F2DED048B844B854C1B78854D7B
:10523000DFF840A2844F013B012B89B000F2B0801F
:10524000824BD3ED007A824BB7EE087AF4EEC77A40
:10525000F1EE10FA59D501221A705A2323702B70DF
:1052600023787C4E433B162B9CBF432323702B7823
:105270002278433B162B9CBF43232B7033789342F9
:1052800080F0C980D11A032940F3CC8003333370F6
:10529000714C2A782378934280F0C680D11A032972
:1052A00040F3C980033323700CF004FB3278237879
:1052B00006920546DAF8000007930EF0D5FACDE91C
:1052C0000401624B18680EF0CFFAD7ED007AFDEEBC
:1052D000E77ADDE90623CDE90201CDED007A5F49E9
:1052E0002846FFF739F831785D480BF0ACFE21789D
:1052F0005C48C1F1B4010BF0A6FE5B4B00221A70B2
:1053000009B0BDEC048BBDE8F08FB1EE007AF4EE8D
:10531000C77AF1EE10FA59D593F800B0BBF1000F3F
:105320009BD19AED008ADFED518A97ED007AE8EE85
:10533000288A17EE900A28EE078A0EF095FA4C4B51
:1053400000220EF0E9FA78EE887A8046894617EE58
:10535000900A0EF089FA42464B460EF0DDFA0EF046
:105360008BFD064618EE900A0EF07EFA41EC190B02
:1053700018EE100A0EF078FA42464B460EF0CCFAC0
:1053800002460B4651EC190B0EF00EF90EF074FDAF
:10539000002E12DA84F800B0002813DA00232B70F4
:1053A00023785B3B202B9CBF7B2323702B785B3BBC
:1053B000202B3FF655AF7B2351E7B42EC4BFB42357
:1053C0002370E9E7B428EBDDB423E8E7DAED006AFF
:1053D000DFED267A97ED006AE6EEA77A00211970D4
:1053E000B0EE677AA6EE867AE6EEC67ABDEEC77AAA
:1053F000FDEEE77A17EE102A8A4217EE903A05DAA8
:105400002170002BCADBB42BDEDCC8E7B42AC8BF8E
:10541000B4222270F5E77FF63BAF991A032901DD2C
:10542000033B34E7327033E77FF63EAF991A032926
:1054300001DD033B37E7227036E700BF60DB032066
:1054400080E5032081E50320CCE50320DCE5032093
:10545000D9E0032044DE0320DBE003200D650C00CF
:1054600074DD032084DD0320ECE503200000B4425A
:105470000000D03F58DB032098B500AF04460EF083
:105480008AFE073020F00700ADEB000D20460EF03D
:1054900082FE2146024668460EF0CAFD20460EF006
:1054A0007AFE002302466946024808F075FFBD46B1
:1054B00098BD00BFC8DD03202DE9F043584E594B7D
:1054C000DFF8A4813360584F584BC8F80030DFF83C
:1054D0009C91574B57483B60ABB0574BC9F80030D5
:1054E00002F06CFD534808A902F0AEFD044640B13D
:1054F000DDED0E0A9DED0D0AFFF726FC4F4B83ED07
:10550000000A96ED007A9FED4E6AB4EEC67AF1EE8F
:1055100010FA7BDBDFED4B6AB4EEE67AF1EE10FABF
:1055200074D8D8ED007AF4EEC67AF1EE10FA6DDB9D
:10553000F4EEE67AF1EE10FA68D8D7ED000A99EDAC
:10554000000A414D77EE600A37EEC00A0CF036FDD6
:10555000DFED3E7A60EE277A17EE900A0EF084F9BE
:105560002DA3D3E900230EF001FB0EF0CDFCD9ED05
:10557000001A98ED001AD7ED000A96ED000A28608F
:10558000FFF742FD2D4E324BD5ED000A83ED000AA8
:1055900096ED000A2F4FFFF7D3FD87ED000A08F0C4
:1055A0005DF92D4B186014B12C4B01221A70DDED02
:1055B0000D0A9DED0E0A0CF001FD10EE100A0EF022
:1055C00053F9274B00220EF0A7F913A3D3E90023C8
:1055D0000EF0CCFA02460B463868CDE906230EF0F1
:1055E00043F9CDE9040128680EF03EF9CDE9020146
:1055F00030680EF039F9DDE90623CDE900011949DB
:1056000011A808F019FC11A8FFF736FF01202BB0F4
:10561000BDE8F083AFF30080182D4454FB2109400E
:10562000D0E503205E140F4224DE0320FF589DC204
:1056300053160F4248DE032048599DC2D0DD032097
:105640000000B4C20000B442E0E50320000034438F
:10565000DCE50320CCE5032020DE0320D8E5032091
:105660000080664040650C00D4E5032000DF032085
:105670002DE9F04FA44DABB008F0F0F82B68834251
:1056800080F0F380DFF8B0B29BF80030002B00F020
:10569000EC800CF067FA0123142263210AF06FF901
:1056A0000CF060FA03685B69984716AC26460CF06C
:1056B00059FA03681B69984738B10CF053FA03682C
:1056C0005B69984704F8010BF1E730460EF090FC57
:1056D00051EC100B0EF018FCDFF860A2CAF80000C5
:1056E0000CF040FA0123142264210AF048F90CF06E
:1056F00039FA03685B6998471BAC26460CF032FA0E
:1057000003681B69984738B10CF02CFA03685B6991
:10571000984704F8010BF1E730460EF069FC0CF0F5
:1057200021FA0123142265210AF029F90CF01AFA52
:1057300003685B69984720AC26460CF013FA0368AF
:105740001B69984738B10CF00DFA03685B699847FC
:1057500004F8010BF1E730460EF04AFC59EC108BCF
:105760000CF000FA0123142266210AF008F90CF06B
:10577000F9F903685B69984725AF3E460CF0F2F9EA
:1057800003681B699847044638B10CF0EBF90368CD
:105790005B69984707F8010BF0E730460EF028FCEC
:1057A0005A4B8BF800401B7857EC106B002B5CD0E9
:1057B0000BF0A4FF11900BF095FF04460BF0A6FF31
:1057C00083460BF06BFF10900BF074FF0F900BF003
:1057D0007DFF109A0F99119B0490CDE901B20391BE
:1057E0004B4A0094102112A808F036FB4948037C6C
:1057F0002BB9494944F202221030FEF709FF49460D
:1058000040460EF081FB0EF02FF8CDE90C01434B22
:1058100018680EF029F8CDE90A01414B18680EF01E
:1058200023F8CDE90801DAF800000EF01DF8CDE903
:105830000601394630460EF067FB0EF015F8CDE94B
:105840000401384B18680EF00FF8CDE90201364B11
:1058500018680EF009F812AACDE9000133492D4865
:10586000FEF77AFD324801F027FA324C07F0F6FFD6
:105870002368834244D207F0F1FF00F6C410206091
:1058800007F0ECFF00F2393028600CF06BF963216F
:105890000AF08EF80CF066F97221FEF7CDFC0CF0E0
:1058A00061F90AF08CF80CF05DF964210AF080F8D7
:1058B0000CF058F97221FEF7BFFC0CF053F90AF016
:1058C0007EF80CF04FF965210AF072F80CF04AF9F5
:1058D0007221FEF7B1FC0CF045F90AF070F80CF0FB
:1058E00041F966210AF064F80CF03CF97221FEF7E8
:1058F000A3FC0CF037F90AF062F80F4B01221A7082
:105900002BB0BDE8F08F00BFD4DD0320FDDE032007
:1059100073650C0024DF0320D9DD032070E503202C
:105920006CE5032000DF032024DE03208C650C00DF
:1059300034DF03207CE50320D8DD032074E5032059
:105940002DE9F04F3C4EDFF80481DFF8049189B077
:1059500000AF0CF047F903681B699847002866D030
:105960000CF040F90A22014638460BF00FFDBB68E7
:10597000073323F007036D46ADEB030DEA46002322
:10598000B9681FFA83FB8B4503F1010407D259461E
:1059900038460BF0F3FD23460AF80B00F0E7012927
:1059A0000AD9013938460BF0E9FD0D2801BFBB6863
:1059B0005344002203F8012C012202215046FEF735
:1059C000D9FE0BF077FF31460BF0CBFA0BF072FFEC
:1059D00039680BF0C6FA9AF80030423B012B03D825
:1059E00007F03CFFC8F8000099F80030D3B1134825
:1059F000037C2BB9124944F202221030FEF708FE54
:105A0000394607F110000BF06FFD0E490B4807F106
:105A10001002FEF7A1FC07F110000BF0CFFC0A48C2
:105A200001F04AF938460BF0C9FCAD4691E724373E
:105A3000BD46BDE8F08F00BFA4650C00A4DE0320C6
:105A4000F7DD0320B6650C00B4DE0320A8DD0320DB
:105A5000FCDE03202DE9F043ADB00BF02BFF6149D4
:105A60000BF07FFA604961480022FEF7D1FD48B98A
:105A70005F4B18700BF01EFF5E492DB0BDE8F04380
:105A80000BF06FBA0BF016FF5B495C4D0BF069FA37
:105A900008F092FD08F0EEFD044648B908F08CFDD0
:105AA0002246294608F039FE0A2008F021FAEFE7DD
:105AB0000BF000FF52494D4F524DDFF86C810BF057
:105AC00050FA00223946284601F083F8F8B108F070
:105AD00073FD08F0CFFDD0B11E2201A9284601F0C8
:105AE0003FFA0BF0E7FE414601AAFEF735FC01A89C
:105AF0000EF051FB01AB043818440EF055FB42493F
:105B00000EF0ABFBD8B9284601F0D6F8D9E73748F4
:105B100001F0D2F82622002109A80EF0B1FA3B4983
:105B200009A80EF013FB0023262209A9384808F023
:105B300033FC2F4B00221A702DB0BDE8F0832622D3
:105B4000002109A80EF09CFA3249334EDFF8C090CC
:105B500009A80EF0FBFA01A909A80EF0C7FA0BF08C
:105B6000A9FE2E4909AAFEF7F7FB0023262209A960
:105B7000274808F011FC0BF09DFE294901AAFEF709
:105B8000EBFB962008F0B4F909F01CFF3046FEF755
:105B9000A6FA044688B16422002113A80EF070FA18
:105BA00013AA64230D2130460BF0D8FB0023642296
:105BB00013A9484608F0F0FBE8E709F005FF2622A4
:105BC000214609A80EF05CFA164909A80EF0BEFAA3
:105BD0002346262209A90E4808F0DEFB962008F08D
:105BE00087F990E7D7650C00F4650C0080DE032090
:105BF000D8E00320F6650C0023660C00B0DD03201E
:105C000043660C0034DF032081660C0086660C00BE
:105C1000D0E003208F660C0024DF032098660C0080
:105C2000AB660C00D3660C0058660C0038B50468EF
:105C300005467CB16368013B63605BB9236820461D
:105C40009B689847A368013BA3601BB92368204663
:105C5000DB689847284638BD2DE9F04784B002AF8D
:105C6000804691461E460D460EF095FA093020F00A
:105C70000701ADEB010D40460EF08DFA97F828A014
:105C8000254902AC03464246204608F0D5F8BAF151
:105C9000000F01D1042D0CD1204B21491B788DF828
:105CA000003038463C23224609F060FC381DFFF7DF
:105CB000BDFFB9F1000F01D1012D21D108F07CFC0D
:105CC00008F0D8FCE0B120460EF065FA073020F06D
:105CD0000700E846ADEB000D20460EF05CFA0DF132
:105CE00008090246214648460EF0A2F920460EF069
:105CF00052FA0023024649460A4808F04DFBC546C1
:105D00000EB9022D04D10BF06DFF21460BF029F9DD
:105D10000837BD46BDE8F087DC660C00ACDD03202B
:105D2000E3660C00E4E5032030B52A4D2B789DB0E6
:105D3000002B4DD0412200210BA80EF0A1F9264BDB
:105D40009FED267AD3ED007A254B67EE877A002403
:105D5000FDEEE77ACDED087AD3ED007A214B67EEC0
:105D6000877AFDEEE77ACDED077AD3ED007A1E4B08
:105D700067EE877AFDEEE77ACDED067AD3ED007A0D
:105D80001A4B67EE877AFDEEE77ACDED057AD3ED13
:105D9000007A174B67EE877AFDEEE77ACDED047A4D
:105DA00018680DF061FDCDE90201124B18680DF085
:105DB0005BFD0122CDE900010F490BA808F03CF87A
:105DC00029780094234622460BA8FFF745FF2C7044
:105DD0001DB030BDDAE0032078E5032000007A44EE
:105DE00070E5032068E5032074E503206CE50320DB
:105DF00000DF032024DE0320EB660C0070B52C4E80
:105E0000337890B0002B49D02A4A2B4B10681B786E
:105E100007930DF029FDCDE90401284A284C1068AC
:105E20000DF022FDCDE90201264A079B1278264992
:105E3000009209A8012207F0FFFF0BF03BFD09A922
:105E40000BF08FF80BF036FD218805460A220BF087
:105E500094F828460BF079F81C4B1B7803BB1C4BBD
:105E60001B78EBB92388F3B113F003031BD1012294
:105E7000009219461A4609A8FFF7EEFE23880BB1D7
:105E8000013B238000246420347008F031F811486D
:105E90000094234601222146FFF7DEFE10B070BDBC
:105EA0004FF4F07323800021012300911A46E2E7AA
:105EB000C8E5032000DF0320C0DD032024DE03202B
:105EC00096DD0320A8E503200F670C0064DD0320A6
:105ED000A4DD032028670C0008B5FFF7EDFAFEF7F4
:105EE000ABFEFFF7C5FBFFF72BFDFFF787FFFFF7C3
:105EF00097F9064B1B780BB1FFF7ACFDFFF714FFCA
:105F0000BDE808404FF4FA7007F0F2BFD8E0032074
:105F100070B5D0E900531426044606FB0356AE4282
:105F200004D028460BF04AFA1435F8E7206807F049
:105F300073FF204670BDF0B516468FB00022C0E951
:105F4000002204460D4609AF194604A808F0E6F9F8
:105F50001499384608F0E2F9169B0293159B2046E7
:105F6000CDE90073324604AB294608F04DFF2046C8
:105F70000FB0F0BD13B50B4C2178BFF35B8F11F060
:105F800001010BD120460191FEF79AF8019928B141
:105F900005480BF0C6F82046FEF797F8024802B015
:105FA00010BD00BF58DD03205CDD032008B5FFF7FE
:105FB000E1FF4FF6FF7200210BF0D1F8FFF7DAFF97
:105FC000BDE80840014901220BF068B940420F00CA
:105FD0002DE9F04FC048C14E037CC14D03F00303CF
:105FE00043F0780393B0037400220121043007F0DA
:105FF00025FE012102200BF05DFD01211C200BF08C
:1060000059FD00211D200BF055FD002102200BF051
:1060100062FD00211C200BF05EFD07F01FFCB14A61
:10602000B1485A231370B14A33700024B4272B703F
:1060300013700621CDE900474FF4FA634FF47A72EA
:106040000BF03EF84FF4FA634FF47A72CDE9004753
:106050000521A748A74F0BF033F83178A248A64E88
:106060000AF0F1FF2978A2480AF0EDFF4FF4FA6038
:1060700007F03EFF08F0A0FA08F0E8FA08F09CFAF2
:10608000082108F0EAFA0BF015FC4FF416510BF05A
:1060900001FC0BF0A7FD4FF416510BF0A3FBFFF72B
:1060A00085FFFEF77DFDFEF793FDFEF765FD07F02A
:1060B000D5FB924B1860924B1860924B1860924B34
:1060C0001860924B1C60924B1C60924B1C70924B60
:1060D0001C70924B1C70924B4FF4F0721A80914BD3
:1060E0001C70914B012532221A703D70357008F0FA
:1060F00063FA8E4A01460DA808F0B0FF0DA808F01B
:1061000060FB08F059FA8A4A01460DA808F0A6FF7C
:106110000DA808F056FB08F04FFA864A01460DA874
:1061200008F09CFF0DA808F04CFB08F045FA824AE5
:1061300001460DA808F092FF0DA808F042FB7F4B26
:106140001D707F4B0DA8196808F0E8F80DA808F03D
:1061500047F805460DA8002D40F0B38008F05CF824
:106160000095ADF82400022309AA0321754808F020
:1061700053FC002371497348082208F06BFC08F0B7
:106180001BFA00226F4908F0C8FA0BF0EBFC09F08B
:10619000D9FB0BF0E7FC6C4909F0D0FB0BF0E2FCFB
:1061A0001C210246694802F082F8002840F09080E5
:1061B0000BF080FB66490AF0D4FE6448022101F02E
:1061C0006FFF6248002101F0CFFF6048012101F01C
:1061D00099FF5E48012101F0E2FF012400255B48A0
:1061E0004FF4FA7102F082F823462A462946CDE997
:1061F00001545648009402F091F80BF07FFA079092
:106200000BF070FA80460BF081FA81460BF046FAEB
:1062100082460BF04FFA83460BF058FA079B4D4A23
:10622000CDF80080CDE903B01021CDE9019A09A88D
:1062300007F012FE484949480DF088FF09A9474870
:106240000DF054FF454946480DF080FF454943484D
:106250000DF04CFF444942480DF048FF0BF02AFB7B
:106260003E490AF07EFE0BF025FB3D490AF079FE1F
:106270003E486FF00041FEF71FF83D486FF00041C7
:10628000FEF71AF83B486FF00041FEF715F83A4B5D
:106290000D933A483A4BADF840400DAA08218DF8CD
:1062A00038500F93FEF728FA044600286ED10BF001
:1062B00001FB34490AF055FE3C70347013B0BDE860
:1062C000F08F07F0ABFF00940246102307214DE743
:1062D0000BF0F0FA2C496EE788E5032080E50320F7
:1062E00081E5032044DE032074DD0320DBE003208E
:1062F00084DD0320FDDE0320FCDE03207CE503209B
:10630000D4DD03201CDE032020DE0320A8DD0320D3
:1063100070DD0320D8DD0320D8E00320DAE003207D
:1063200096DD0320D8E50320C0DD0320E4E503204B
:10633000DCE00320D0E00320C8DD032065DD03207E
:1063400054DB0320B0DD0320801A060048DE032062
:1063500036670C0073650C0061670C00D9DD032003
:10636000F7DD032081660C006A670C00F0E503206E
:1063700028DE0320ACE503202C680C00E4E00320B9
:1063800000127A0073670C0052670C003B787BB1F7
:106390001248037C2BB9124944F202221030FEF756
:1063A00037F910490D480AF0DCFD0F4800F084FC75
:1063B0003378002B82D00D48037C2BB90C4944F272
:1063C00002221030FEF724F90A4908480122FDF79D
:1063D000C3FF094800F070FC70E700BF24DF032012
:1063E000D9DD032098670C0034DF0320A4DE0320EE
:1063F000F7DD0320EE670C00B4DE03208842F8B519
:1064000004460D46164616D9904215D2A2F114063E
:10641000751AA1F114072C44B7421CD02CB1314697
:1064200020460BF047F8337C237430460AF0C6FF51
:10643000143E143CF0E70ED0B5420CD02CB12946E6
:1064400020460BF037F82B7C237428460AF0B6FF61
:1064500014351434F0E7F8BD2DE9F0410023C0E90C
:10646000003383604F689F4204460E4623DD4FF0A1
:10647000140808FB07F007F0C7FC0546D8B1D4E9BB
:10648000001208FB0212FFF7B9FF206807F0C4FCF6
:106490002560A760D6E9007308FB0378B84508D0EB
:1064A000394628460BF020F83B7C2B741437143502
:1064B000F4E7736863602046BDE8F081F0B57D4B7A
:1064C0007D4A7E4C01261E707D4B0025C3E9005598
:1064D0009A6093B0032007F0C3FB7A4801F07AFF7B
:1064E000794801F061FDFFF745FD6423C4F860348D
:1064F000764B6560C4F83C54C4F86854C4F87034F2
:1065000084F87464C4F87854A4F87C5408B9FFF78C
:1065100031FD6F4B6F4AC4F86C044FF47A77002456
:106520001A60C3E901471C616B4B07941A60C3E909
:1065300001471C61694B6A4D1A60C3E901471C6140
:10654000CDE905440BF0B6F905A9064608A8FFF702
:1065500083FF08A90BA8FFF77FFF624B2B600BA9F5
:106560000EA8FFF779FF0EAA1E21281D0AF020F9B8
:106570000EA8FFF7CDFC0BA8FFF7CAFC5A4B2B6007
:106580002E6208A8FFF7C4FC584B2B600BF092F961
:106590004FF416510BF07EF909F0ECFD294609F095
:1065A000DDFF05A8FFF7B4FC5148524D524E0AF0EA
:1065B00073FD52480AF070FDCDE901442B68009349
:1065C0004F4B50491B6850484FF01002FFF7B3FC87
:1065D0004E4B029401932B6800934D4B4D491B6821
:1065E0004D484FF00402FFF7A6FCCDE901442B68AB
:1065F00000934A4B4A491B684A484FF01002FFF784
:106600009AFCCDE901442B680093474B47491B682E
:106610004748484D4FF01002FFF78DFC464808F000
:1066200006FA464B0E930EAA234643F69821444899
:1066300011961095FDF750FF0EA8FDF70FFF414B87
:106640000E930EAA234639463F48CDE91056FDF772
:1066500043FF0EA8FDF702FF3C4B0E930EAA234604
:1066600040F6C4113A48CDE91056FDF735FF0EA8A3
:10667000FDF7F4FE374B0E930EAA234643F69821FE
:106680003548CDE91056FDF727FF0EA8FDF7E6FEC9
:1066900022461421012007F00BFB01221421CDE931
:1066A000001203466FF07F412C4809F0E5FB13B060
:1066B000F0BD00BFACDD03200000FFFFE4E00320DD
:1066C00098DD032058DF032048DE03202C680C00EF
:1066D00024DF032098680C00A4DE032070DE032072
:1066E000D8DE032054680C00287A0C0080680C0067
:1066F00074DD032054DB032035420B0084DD0320CE
:106700006CDB032013680C00E4E50320D14A0B0086
:1067100068DB032016680C00DCE0032064DB032048
:1067200019680C00D0E003205CDB03201D680C001E
:10673000C8DD032021420B00B0DD032021460B0001
:10674000F0E5032051450B0028DE032075430B00C4
:1067500008DF0320FD400B00ACE5032088E50320A3
:1067600038B504460D46242200210DF089FCA560B1
:10677000EB79102B03D0202B06D0002038BD20232E
:1067800001202370A070F9E74023F9E710B5044613
:10679000243000F066FF28B104F50C70BDE810400D
:1067A00000F05FBF10BD8378016943F0040383707C
:1067B00000F11002806801F00AB800002DE9F041F4
:1067C000017811F02005044603D000263046BDE8CC
:1067D000F0814269174B9A42F7D2FFF7E4FF064671
:1067E0000028F2D02169A06800F086FF0746A06863
:1067F00005223946243000F05CFF80460028E4D0B2
:1068000029464FF400720DF03BFC0125A3681A796C
:10681000AA4209D918684246E91901F0B6FA0028D7
:10682000D3D00135EDB2F1E7636903EB4223636135
:10683000CCE700BF00FE1F0010B5044680680A4682
:106840002430A16900F035FF20B1A38803F00F03C5
:1068500000EB431010BD0023F0B50446451E08268A
:1068600018462E2715F8012F202A18D0082B02BF12
:106870000F54421CD0B22A78A2F1410C08BF102656
:10688000BCF1190F06D894F80CC016EA0C0F1CBF07
:106890002032D2B200F1010C0A545FFA8CF00133BD
:1068A000DBB20B2BDED100230B54F0BD03780BB908
:1068B000FFF756BF002070472DE9F74F03780446D5
:1068C00088461546002B5DD08278D1075AD51A0725
:1068D0002DD5C36942699B1A9D4228BF1D462E468D
:1068E0004FF0000904F1100B002E00F08F80227889
:1068F0006369A0689706C3F3080A4FEA53211FD5BE
:10690000006A0144A068BAF1000F42D1B6F5007FD9
:106910003FD3C36A99423CD0B6F5806F52D200682B
:10692000424601F0A9F968B34FF4007744E09B06B2
:10693000D5D583681A894369C3EB42139BB2CBE771
:1069400090F8059009EA0109BAF1000F08D1B9F1F0
:10695000000F05D15BB951064CBF036A236A23615E
:106960002169A06800F0C8FE09EB0001CAE72169AF
:106970005A4600F0C7FE002804DBF1D1237813F05B
:10698000700F43D1637843F0020363704FF0FF3020
:106990003DE0CAF50077B7424FF0000200F1240055
:1069A00028BF374600F085FE0028EBD000EB0A0137
:1069B0003A4640460DF03CFB63693B44B844636192
:1069C000F61B91E7227892064FEA562A06D40279FE
:1069D000A2EB0902D2B2924528BF924699424FEAF1
:1069E0004A2708D2A06853460068424601F08CF955
:1069F0000028E1D1C6E753448B42F3D924300191FA
:106A000000F02FFE01990028ECD1BBE7A81B03B0D2
:106A1000BDE8F08F73B501220DF10701D0E90456EE
:106A20000446FFF749FF01280ABF9DF807004FF011
:106A3000FF30C4E9045602B070BD37B5436913F4A2
:106A4000F07F0446C3F3431500D099B901220DF13C
:106A500007012046FFF730FF40B2012802D0002096
:106A600003B030BD63691F33A0686361303000EB51
:106A70004510F5E72033F7E72DE9F0410278076983
:106A800004460D4662B14069884202D019B92161BD
:106A90006561012006E0160706D5E3698B420BD23B
:106AA00027610020BDE8F081910605D5A3681B8908
:106AB000B5EB431FECD9F3E7D4F808C09CF80660A7
:106AC000431E06F109016E1ECB40CE40B34200D8F2
:106AD00098B953064CBFDCF82030236A236104F1D7
:106AE0001008002ED4D02169A068424600F00AFEAA
:106AF000002806F1FF36F4DCD2E7F61AEFE7F8B526
:106B00000F4604461546002124221E460DF0B8FA11
:106B1000B868A060A58005F00F053B6AE3606A01D4
:106B200000EB451595F83B301F0744D403F01703DD
:106B3000237095F83B1011F0180F04BF43F00803C1
:106B400023709DF81830E37006F00303012B2CD05E
:106B5000022B28D07BBB71052DD40123A370A17813
:106B60008B0704D52378DF0625D4DD0723D4B311A2
:106B700023F07F0306F008052B430B43A370C36A81
:106B8000A3618318B3F84420B3F84A1041EA0241E4
:106B9000720513D559B9A37843F00403A3707304A5
:106BA00010D40120F8BD0323D8E70223D6E700F074
:106BB00049FE0028EFD100202070F3E72162DB6C52
:106BC000E361ECE7E1692046FFF756FF0028E8D1D2
:106BD000F1E72DE9F347037807460D46924653BB8C
:106BE0000B7813F0700F26D04C6914F01F0422D1DB
:106BF000A04600212846D5F81490FFF71EFFD0B11B
:106C00000678C6B12E2E10D0E52E0ED0C37A1A0704
:106C100013D464B900945346C9F34F122946384639
:106C2000FFF76DFF02B0BDE8F0870024E1E700F058
:106C300071F94045EED00020F4E70F2BF5D1730633
:106C4000D7D590F80D8006F01F04D2E738B5037849
:106C500004460BB9012038BD83785A0723D501219A
:106C6000FFF7EAFD054628B9637843F00103637036
:106C70000020F0E70378E52BF6D023781B0744BF0C
:106C8000E369C361236A4383638C8382094B1B6876
:106C90002BB100F11601183098472B8B6B82A3782B
:106CA00023F00403A370A068FFF770FD0028DBD079
:106CB000D0E700BF0CE6032010B50446FFF7C6FF7F
:106CC0000023237010BDF0B593B01F460023099335
:106CD0000378019206460C4613B1002013B0F0BDB4
:106CE0000B7813F0700FF8D013782F2B12D1019A74
:106CF00013782F2B02D101320192F8E7A1681BB95A
:106D00003046FFF7D3FDE9E709A8FFF729FD002882
:106D1000E3D009AC019801AA03A900F08FF900287B
:106D2000DBD0019B1B789BB1002303AA2146304690
:106D300000F0B6FA0028D0D035460FCD09AC0FC40C
:106D40000FCD0FC42B6823603046FFF7B5FFE0E797
:106D50003B4603AA2146304600F0A2FABEE70000F7
:106D60002DE9F047037889461907044617465BD595
:106D700083789A0758D51B0751D46369DB43BB421C
:106D800052D3B84604F1100A6669B8F1000F00F05A
:106D90009180A0684379C6F3080513EA56260ED100
:106DA0006DB92169002946D0524600F0ABFC00289D
:106DB0003ADB04D12046FFF7F6FC002834D02169E5
:106DC000A06800F099FC3118A06815B9B8F5007FEB
:106DD0003FD2C5F50076464528BF4646002D36D140
:106DE0006269E3699A4234BF01220522243000F02F
:106DF00060FCC8B128443246494635440DF018F9C4
:106E0000B5F5007F04D1A068243000F02AFC58B109
:106E1000636933446361B144A8EB0608B4E7C16910
:106E2000FFF72AFE0028A8D1637843F001036370BE
:106E30004FF0FF3050E0236A3BB92046FFF7B3FC28
:106E40000028F1D023692362B9E72361B7E7012263
:106E5000CCE7B8F5806FC26A1BD390F804C0ACEBE6
:106E60000606F3B24FEA582E734528BF7346914287
:106E70004FEA432607D31A448A4282BF4FF0FF32BB
:106E800080F82450C262A5684A46286800F0F3FFE3
:106E9000BDE7914202BF4FF0FF3380F82450C36238
:106EA000A3684A46186800F070FF0028BCD04FF471
:106EB0000076ADE7E269A378B24204D2E66143F01E
:106EC0000403A37003E0084A1268002AF7D194F97A
:106ED0000230002B02DB3846BDE8F0872046FFF782
:106EE000B5FE0028F7D19FE70CE60320042904D85B
:106EF00000EB4100B0F8010070470A299BBF01F187
:106F0000FF3100EB41000131C08884BF00EB41003C
:106F100080887047411E00F10A030020420842EABF
:106F2000C01011F8012F52FA80F08B42C0B2F5D197
:106F3000704738B5CB6804460D4623B9BDE83840E4
:106F40008968FFF7B3BC242200210DF099F81023C3
:106F500001202370A070AB68A360EB68236238BD8A
:106F60002DE9F04F8DB003784FF0000906460F462B
:106F70009046CDF80C90002B5DD00C2A5BD9C378DD
:106F800033B900F057FB044620460DB0BDE8F08F42
:106F9000014603A8FFF7CDFF00284CD007EB0803FC
:106FA0004FF0010B4FF00D0A0093F3785FFA8BF569
:106FB000AB4240D3B188A1EB0B01490103A8FFF715
:106FC0005BFD0446002836D0002103A8FFF735FDFD
:106FD000034680B3C27A0F2A2DD1027802F01F0235
:106FE000AA4228D10BF1FF350AFB05F57A190021D9
:106FF00018460191FFF77AFF68B1A84512D90199A7
:1070000001317F28C9B228BF3F200D2902F8010BAA
:1070100005F10105ECD1A84504D91A78520648BFFC
:1070200007F80590009A02F8019C1B785B060BF1AB
:10703000010BBAD5A8E700243C70A5E72DE9F0477D
:10704000064610F8013B202BFAD06A4D8E600024D2
:10705000335DC3B12F2B16D05C2B02D10020BDE8CD
:10706000F087A3F12200C0B21D2803D825FA00F052
:10707000C007F3D403F0BF003C28EFD0203B5E2BC9
:10708000ECD80134E4E733191846074610F8015BE1
:10709000202DFAD02F2DF8D017604CB113F8012D08
:1070A0002E2A01D0202A01D1013CF6E7FF2CD5DCA5
:1070B0004FF02033C1F811304C60C1F80D304B61F6
:1070C0004FF0000816F808302E2B01D0202B02D1EB
:1070D00008F10108F6E7B8FA88F04009651E6B1C54
:1070E00002D0735D2E2B14D14FF0000907274A46BA
:1070F000CA464FF0080EA04568DA16F80830202B73
:1071000003D02E2B07D1A84512D0002008F101088A
:10711000F1E7013DE3E7222B08D07C2B06D0A3F159
:107120002A0CBCF1050F0AD82D2B12D0A8455BD133
:107130000A2F4AD00A2708224FF0100EE6E7A3F1E3
:107140003A0CBCF1050FF1D9A3F15B0CBCF1020FB5
:10715000ECD9A3F1210CBCF15D0FE7D8A845E7D02D
:10716000BA4230D8A3F1610CBCF1190F1AD8203BF8
:107170004EEA0909DBB25FFA89F902F1010C5FFA04
:107180008CFC0A44BCF1060F537301D881F80CC083
:107190006246BBE7A84518DCA8460A2708224FF03C
:1071A000100EB2E7A3F1410CBCF1190F98BF4EEAE3
:1071B0000A0AE2E70B7B0120087019447E234B7317
:1071C00031238B734BE70A2FE4D100204B7B202B1C
:1071D0003FF444AF0028EDD01AEA090F18BF4FF072
:1071E000020981F800903AE7BA42ECD800205F2308
:1071F000C3E700BF010100312DE9F84391F80C907D
:1072000006460C4602257E2701F10D086168A2683A
:107210006B189BB21144914206D012F8010B03EB9C
:10722000431343409BB2F6E7B9F1030F28BF4FF079
:10723000030909F10402D2B203F00F01A018013AC8
:107240000929D2B294BF30313731914541734FEAA9
:107250001313F1D104EB090300215F733046FFF7EC
:107260000BFC01213046FFF7E8FB014628B9707896
:10727000B0FA80F04009BDE8F88303786BB1C37AB7
:107280001B07EED40B2240460CF0C2FE0028E8D1CA
:107290000135ADB2642DB9D1EDE70120EBE7000077
:1072A0002DE9F04F2DED028B8BB00D4606930B7838
:1072B000079013F0700F174605D100200BB0BDECFE
:1072C000028BBDE8F08F079B1B78002BF5D153682C
:1072D000059313789C071FBF059B0C330D22B3FB4E
:1072E000F2F31ABF0133DBB20123002128460393D6
:1072F000FFF7C2FB07F10D034FF0000B08EE103A49
:10730000DA465C465E46CDF810B0D9466B6901217D
:107310002846C3F34F18FFF790FB0346002871D1AE
:107320006B78002BC9D1069B9A05C6D503F00303E1
:10733000013B012BC1D8049B002C08BF434604939A
:10734000039B9C42C0F0F180B9F1000F40F00A812C
:10735000049B28465901FFF78FFB0028ADD0039B03
:1073600003F1FF395FFA89F94E464FF0000A4FF0FA
:107370000F08002E00F00D8100212846FFF75DFB6D
:107380000446002899D0AA6892F824304E4543F06C
:1073900001030CBF46F0400BB34682F8243080F85E
:1073A00000B080F80B8080F80CA007F10D00FFF70B
:1073B000B1FD84F81AA0607384F81BA00BF01F03C2
:1073C0000D22013BD7F808C053430022059999428A
:1073D00040F2D0801CF80310042A5FFA82FE02F10A
:1073E000010000F2CD8004EB4202A2F801100D284A
:1073F00003F101030246E9D1013EF6B2B9E74FF0CD
:10740000010983E70278E52A00D07AB90499002CB3
:1074100008BF4146049103998C423CBF0134E4B259
:10742000002A80D0E52A05D100266FE703998C4217
:1074300038BF00242E2AF7D0D97A0F294AD116BB9B
:1074400012F040063FF462AF02F01F0693F80DB051
:10745000B2460D220AF1FF3802FB08F8059A4245B0
:10746000E2D9A2EB08020892002202EB080109917E
:107470001846D1B2FFF73AFD08998A420DD100288B
:1074800018BF002642E70AF1FF3A5FFA8AFA52452E
:10749000CAD15A7B5A45DCD0C6E7FF28C4D85FFA68
:1074A00080FEAEF141011929B9689CBF0EF12000A0
:1074B0005FFA80FE08460999415CA1F1410CBCF1DC
:1074C000190F9CBF2031C9B27145ADD101320D2ACF
:1074D000CBD11BE70807A7D45EB1BAF1010F7FF447
:1074E000ECAE1846FFF716FD58457FF4E6AEB14600
:1074F0000EE018EE101A0B2218460CF089FD002839
:107500007FF404AF97F8009019F001097FF477AF8A
:10751000069B19053FF5D1AE069B0798CDF8009064
:1075200042462946FFF7EBFAC8E600212846FFF756
:1075300084FAA0B96B78002B7FF4BFAE2846FFF722
:107540003DF900283FF4B9AEAB681B79012B3FF63B
:10755000FBAE039B1034E4B2A342EFD8F4E601344F
:10756000E4B2EDE639462846FFF746FE00287FF4F0
:10757000EFAEA2E614BF4FF0FF31002189B22BE736
:10758000BEF10A0F94BF04EB420204EB400291806B
:107590002DE731462846D5F81480FFF74EFA044609
:1075A00000283FF48AAE202231460CF069FDD7F85E
:1075B0000D302360D7F811306360B7F815302381A0
:1075C000FB7DA3723B7803F0180323730F4B1B68FA
:1075D0009BB104F10E0104F110009847238A6382E5
:1075E0002383E389E382AA6892F8243043F00103FD
:1075F000C8F34F1882F824308EE721232374282300
:1076000063740823A673E373E8E700BF0CE6032066
:1076100013B50446084659B101910CF0BCFD23682E
:107620000199DB680246204602B0BDE810401847C9
:1076300002B010BD10B50C46017809B9002010BD8C
:1076400011F0600105D02F23237000236370012007
:10765000F5E7FFF7F1F80028F0D02146FFF7FBF837
:10766000F5E737B50378DA07044620D54368816823
:1076700000F10C021868019200F087FB019A0546A0
:1076800018B90025284603B030BD23789B0704D4E1
:10769000237823F001032370F4E7D4E9013019695A
:1076A0000144186800F071FB0028F1D1E9E70125D9
:1076B000E8E770B583688B4204460E46154609D04C
:1076C000FFF7CFFF08B9002070BD6B070AD5002374
:1076D0002370A660227805F003052046154300F8C4
:1076E0000C5BF1E7636804F10C021868314600F0A6
:1076F000C3FA0028EBD1E6E7837940690239994063
:1077000008447047012970B505460C46164602D854
:107710004FF0FF3070BDC3698B42F9D3C379202B82
:1077200016D18169022201EBD41100F50C70FFF72C
:10773000C0FF0028ECD004F07F0450F8243023F080
:107740007043EA699A4226BF336001200020E1E7D6
:10775000102BDDD1C1F3072381690222194400F502
:107760000C70FFF7A6FF0028D2D0E4B230F8143036
:10777000E7E7012938B50C46154601D8002038BD89
:10778000C3698B42FAD3C379202B0FD181690322BD
:1077900001EBD41100F50C70FFF78BFF0028EDD042
:1077A00004F07F0440F824500120E8E7102BE5D1D5
:1077B000C1F3072381690322194400F50C70FFF718
:1077C00078FF0028DAD0E4B220F81450ECE72DE975
:1077D000F341C4688C4205460E46904601D301270A
:1077E00001E00C460027EB690134A34202D2C7B97D
:1077F000EC68F4E7A64214D001AA21462846FFF718
:1078000081FF00280DDBEED0019B002BEBD107B1EF
:10781000EC606FF0704221462846FFF7AAFF07464A
:1078200020B90027384602B0BDE8F08116B9C8F883
:107830000040F7E7224631462846FFF79AFF002826
:10784000F5D1EEE773B505460C4601AA2146284658
:10785000FFF758FF061E10DB002221462846FFF7DF
:1078600088FF50B1EB68A34224BF04F1FF34EC6001
:10787000019C002EE9D102B070BD0020FBE701237E
:1078800070B50022C3604FF0FF330446C27100F1AF
:107890002406806280F82420C362C0F8340280F895
:1078A0003022C0F838320D46B9B1042901D9002080
:1078B00070BD11463046FFF7FCFE0028F7D000EB04
:1078C000051393F8AE315B06F1D105F11B0100EB16
:1078D0000110D0F80650002DE9D00022294630468C
:1078E000FFF7E7FE0028E2D0B0F80B30B3F5007FD9
:1078F000DDD1037C022BDAD1C389002BD7D0417BA9
:1079000021714B1E63710023A37109260123994243
:1079100007D0013ECBD0A2795B000132DBB2A2716D
:10792000F5E7C18A01B9416A2161C3892B44A3618A
:10793000B0F81120228103EB41032362B0F811104B
:10794000490101F2FF1103EB51236361B0F81320E9
:1079500002B9026AE91AA3791144D9404B1CE361C8
:1079600040F6F473994202D80C23E3719FE74FF677
:10797000F473994285BFC36A236210232023E37105
:10798000012095E700F0CABA00F0ADBA70B50E4E0E
:107990000D46144605F05AFF3368C01A0B4B984247
:1079A00008D905F05BFF0A4B186006F09DF905F059
:1079B0004DFF306005F052FF80B2401BA042D4BFA3
:1079C0000020012070BD00BF14E60320A086010046
:1079D00028E7032038B5057A04464DB9406800F021
:1079E0006BFA63682946187D0AF075F80123237243
:1079F00038BD10B5037A04466BB143680121187D88
:107A00000AF069F86068FF21FFF7BCFF606800F0CA
:107A100067FA0023237210BDF8B504460D461646DA
:107A200005F01CFF87B26068FFF7AEFFFF286072A9
:107A30000ED14FF47A7239462046FFF7A7FF00288F
:107A4000F1D0552320462370FFF7D3FF0020F8BD67
:107A5000FE2801D05023F5E760683246294600F041
:107A600047FA607208B16023ECE76068FFF78CFFAB
:107A70006068FFF789FF0120E9E770B504460E460C
:107A800005F0ECFE85B2324629462046FFF77EFF20
:107A900030B96068FFF778FFFF28F4D1012070BD8E
:107AA0000020FCE7F7B5037A019204460D460BB9B6
:107AB000FFF790FF25B14FF496712046FFF7DDFFE9
:107AC000606845F04001FFF75DFF032601AFB95D37
:107AD0006068FFF757FF013EF9D2002D60680CBFC8
:107AE00095218721FFF74EFF6068FFF74DFF0B25BB
:107AF0006068FFF749FF0306607203D5013D15F08A
:107B0000FF05F5D103B0F0BD70B504460D4616462D
:107B100037210022FFF7C6FF324629462046BDE83E
:107B20007040FFF7BFBF00002DE9F041002505724E
:107B3000057085724160044690461E4605F08EFE33
:107B400041460746606800F0BBF96368494A1D7208
:107B50000125DA601D822046FFF73CFF6368294655
:107B6000187D09F0B8FF0A256068FF21013DFFF785
:107B700009FF15F0FF05F7D163682946187D09F064
:107B8000AAFF0A25002211462046FFF78BFF012895
:107B9000804618D0013D15F0FF0507D1202320466F
:107BA0002370FFF726FF0020BDE8F0816068FD210B
:107BB000FFF7E8FE4FF402786068FFF7E5FEB8F1E2
:107BC0000108F9D1DEE74FF4D57208212046FFF70E
:107BD00069FF052814D184F80A800025BFB22A461F
:107BE00029212046FFF790FF0246D8B14FF4FA62F0
:107BF00039462046FFF7CAFE0028F0D04323CEE7DF
:107C000004256068FFF7C0FE013D15F0FF056072B6
:107C1000F7D1AA2804D10223A3724FF08045DDE7F3
:107C20002523BCE7A37A022B18D13A212046FFF77F
:107C300039FF08B13723B2E76068FFF7A5FE00F00F
:107C4000C000C02804BF0323A3726068FFF79CFE36
:107C50006068FFF799FE6068FFF796FE2046FFF721
:107C6000C8FE63683079B168B2891A821872D96027
:107C7000012099E790D0030038B5837A032B18BF11
:107C8000490215460A4611210446FFF70BFF30B1A1
:107C9000302323702046FFF7ACFE00250BE0294679
:107CA0004FF400722046FFF7B7FE05460028F1D0DA
:107CB0002046FFF79EFE284638BD10B5837A032B79
:107CC0000A4618BF4A0212210446FFF7EBFE30B104
:107CD000312320462370FFF78CFE002010BD0120C9
:107CE000FCE710B500220C210446FFF7DBFE30B1A3
:107CF000282320462370FFF77CFE002010BD20467D
:107D0000FFF777FE0120F9E7F8B5044616461F464F
:107D1000FFF7D3FF68B10025ABB29F4206EB4521C8
:107D200009D94FF400722046FFF776FE013500288E
:107D3000F2D10020F8BD2046BDE8F840FFF7D1BFE2
:107D400038B5044615464068FFF71CFE4FF4007234
:107D50006068294600F0E6F86068FF21FFF712FE30
:107D60006068FF21FFF70EFE6068FFF70DFE60728E
:107D700000F01F00052806D0572320462370FFF788
:107D800038FE002038BD0120FCE770B5837A032B54
:107D900018BF490215460A4618210446FFF782FE1D
:107DA000064630B1322323702046FFF722FE00251D
:107DB0001FE02A46FE212046FFF7C2FF0028F3D02D
:107DC0004FF4FA612046FFF758FE054608B95A23DA
:107DD000E9E732460D212046FFF764FE08B129236A
:107DE000E1E76068FFF7D0FD0028F8D12046FFF7F3
:107DF00000FE284670BD13B501914FF4FA610446A8
:107E0000FFF73BFE019A30B95B2323702046FFF752
:107E1000F0FD002005E0FC212046FFF791FF00283F
:107E2000F4D002B010BD10B5837A032B0A4618BFF8
:107E30004A0219210446FFF735FE30B133232046AC
:107E40002370FFF7D6FD002010BD0120FCE738B5F8
:107E50004FF4FA610446FFF710FE054630B9562389
:107E600023702046FFF7C5FD284638BD6068FD2118
:107E7000FFF788FDF5E7F8B5044616461F46FFF7FD
:107E8000D2FF70B10025BD4206EB4521204604D04B
:107E9000FFF7B1FF28B10135F5E7BDE8F840FFF77E
:107EA000D6BF2046FFF7A5FD0020F8BD014B0122FB
:107EB0001A70704718E60320011D006809F080B9A8
:107EC00010B504460175006809F035F9207D0121DF
:107ED00009F0F0FD207D0121BDE8104009F0FBBD57
:107EE000006809F053B90068FF2109F009BA0000E1
:107EF00037B51346074A00920025074C00682570E5
:107F00000A46294609F002FA2378002BFCD000200B
:107F100003B030BDAD7E0B0018E60320006809F009
:107F2000EFB9000037B51346064A00920025064C0B
:107F3000006825702A4609F0E9F92378002BFCD067
:107F400003B030BDAD7E0B0018E6032070477047CC
:107F500038B50C4605462022002104F108000CF03B
:107F60008FF809490B2220460CF044F90123E36005
:107F70006B6A236102236361044BE361044BA361D9
:107F8000044B236238BD00BF90690C000000C8C4D8
:107F90000000C8448FC2753C10B528210446FCF788
:107FA00080F8204610BD0000034A02600022C0E9AC
:107FB00007220276704700BFB0690C0030B501237C
:107FC0008DB00022CDE9022306252822CDE9002527
:107FD0000446D0E9071206A805F07CF82A4604A951
:107FE00006A805F0F5F8257EBDF91010BDF91220A0
:107FF000BDF91430E180032D98BF1248228107EEAD
:10800000101A9CBF00EB8500D0ED007A6381B8EEBA
:10801000C77A88BFF7EE007AC7EE276A07EE102A04
:10802000B8EEC77AC4ED036AC7EE276A07EE103AC6
:10803000B8EEC77AC4ED046AC7EE276AC4ED056AD4
:108040000DB030BD98690C0038B50C4605462022AD
:108050000021201D0CF014F8242323606B6A636058
:108060000223A36005F0FAFB20612846FFF7A6FF74
:10807000D5ED037A9FED097A67EE877A0120C4ED8A
:10808000057AD5ED047A67EE877AC4ED067AD5EDE8
:10809000057A67EE877AC4ED077A38BD0000C842DA
:1080A000F0B5012595B00027CDE902752023009396
:1080B00001950E460446D0E907122B4608A805F0A4
:1080C00009F80523022208A904A805F0DFF83146C3
:1080D00004A805F0EDF82323D4E907120093CDE9B5
:1080E00002752B4601950EA804F0F4FF02231A46F0
:1080F0000EA906A805F0CAF8314606A805F0D8F87A
:1081000015B0F0BD70B501298CB006460C4603D100
:108110000321FFF7C5FF09E0032903D0052903D197
:108120000121F6E70221F4E707291BD00A2005F018
:10813000DFFE01250023CDE902352023D6E9071211
:10814000009301952B4606A804F0C4FF2B46042299
:1081500006A904A805F09AF8214604A805F0A8F895
:108160000CB070BD0021D4E730B501238DB00025DF
:10817000CDE902532222019300920C46D0E9071266
:1081800006A804F0A7FF2B46022206A904A805F0C2
:108190007DF8214604A805F08BF80DB030BD30B550
:1081A00001238DB00022CDE9022321220193009208
:1081B0000D460446D0E9071206A804F08BFF0523FC
:1081C000022206A904A805F061F8294604A805F0D2
:1081D0006FF825760DB030BD10B501238CB00022AC
:1081E000CDE90223212201930092D0E9071204462F
:1081F00006A804F06FFF0523022206A904A805F0D3
:1082000045F804A805F047F8C0B220760CB010BDC0
:1082100030B500238DB00125CDE90235212300932F
:108220000195D0E9071204462B4606A804F052FF38
:1082300002232A4606A904A805F028F8294604A81E
:1082400005F036F80A2005F053FE2046FFF7C4FF7C
:108250000DB030BD70B501268AB00025CDE90256BB
:108260000F2300930196D0E907123346044604A871
:1082700004F030FF04A804F0EDFF3D2815D120469E
:10828000FFF7C6FF03212046FFF70AFF31462046CD
:10829000FFF738FF29462046FFF781FF2046294691
:1082A000FFF762FF30460AB070BD2846FBE737B5DE
:1082B000C36904465BB91020CDE90012FBF7EBFE61
:1082C000054618B1DDE9001205F00BF8E561002361
:1082D000E0692362012105F020F828B1204603B0AF
:1082E000BDE83040FFF7B6BF03B030BD30B5012365
:1082F0008BB00C46002532220221CDE90253CDE994
:108300000021D0E9071204A804F0E4FE2A46C4F3D1
:108310000E0104A804F03EFF0BB030BD30B58BB0A9
:1083200000259DF83C40640044EAC1119DF83840A6
:1083300041EA840141EA431343EA82129DF8404036
:10834000012342F00802CDE90253D2B21443302295
:1083500001930092D0E9071204A804F0BBFE2A465C
:10836000214604A804F016FF0BB030BD10B542182A
:10837000405C937854781B0443EA04230343D07889
:1083800043EA006010BD4318405C5A7840EA02207E
:10839000704710B42AB902685DF8044B9268C9B2FC
:1083A00010475DF8044BD2B208F0E7BD12B903687C
:1083B0009B681847D2B208F0E0BD10B50446FFF73D
:1083C000F5FF2046BDE8104008F0BFBD0368C9B204
:1083D0009B6818474FF4005202804221002210B5DA
:1083E000C0E90122C0E90322C0E90522C0E9072251
:1083F000C0E90922C0E90B22C0E90D22C0E90F2221
:10840000C0E91122C0E91322C0E91522C0E91722F0
:10841000C0E91922C0E91B22C0E91D22C0E91F22C0
:10842000C0F8E810802180F8091100F1F401C0F8CB
:1084300014112549C0F8C42000F1F604C0E9461221
:10844000C0E92122C0E92322C0E92522C0E9272270
:10845000C0E92922C0E92B22C0E92D22C0E92F2240
:10846000C0E93E22C0E94022C0E94322C0F8D02042
:10847000C0F8D82080F80821C0F82021C0E949417F
:10848000C0E94D21C0E951211049C0F84C1140F616
:108490006411A0F85011582180F85D110121C0E944
:1084A0004B22C0E94F22C0F8542180F86421C0F863
:1084B0006821A0F86C21C0F8EC20C0F8F010A0F8FA
:1084C0007221A0F8742110BD000002020002646451
:1084D000F8B504460D46D0F8FC00A9B9A8B1FBF7E1
:1084E000DEFD94F8E930C4F8FC50C4F83451C4F807
:1084F000F85013B994F8EA3023B12049D4F8D400E5
:1085000008F039FD012011E0B8B92846FBF7C5FD98
:10851000C4F8FC00C4F8340160BB94F8E930C4F836
:10852000F80023B994F8EA300BB90020F8BD1449DB
:10853000D4F8D40008F01FFDF7E70846FBF7ADFDBF
:10854000064640B994F8E9301BB994F8EA30002B9C
:10855000EBD00C49ECE7D4E93E27AA4228BF2A46D3
:1085600039460BF065FD3846FBF799FDC4F8FC6011
:10857000C4F83461C4F8F850C4E700BFC4690C0003
:10858000EF690C001A6A0C000D2900F0CD8009D8A3
:10859000022900F0A780062900F0BE80012916D02C
:1085A00000207047132900F0D480282900F0DC80D7
:1085B0001029F5D1102A00F0C98000F2BA80022AF1
:1085C00000F0C180032AEBD1D0F8880066E0262AAB
:1085D00054D8002AE4D0013A252AE1D801A353F85F
:1085E00022F000BF9B860B00A1850B00A5860B0027
:1085F000A9860B00AD860B00A1850B00B1860B0090
:10860000A1850B00B5860B00A1850B00A1850B0091
:10861000A1850B00A1850B00A1850B00A1850B0096
:10862000A1850B00B9860B00BD860B00C1860B002F
:10863000C5860B00A1850B00A1850B00C9860B0028
:10864000A1850B00A1850B00A1850B00A1850B0066
:10865000A1850B00A1850B00A1850B00A1850B0056
:10866000A1850B00CD860B00D1860B00A1850B00E8
:10867000A1850B00A1850B00D5860B003C2A2DD0CF
:1086800005D8352A28D03B2A8AD1806C06E0602A9A
:1086900026D0612A84D1806900E0C068003818BF04
:1086A000012070470069F9E74069F7E7C069F5E71D
:1086B000006AF3E7406AF1E7C06AEFE7006BEDE7B5
:1086C000406BEBE7806BE9E7C06BE7E7806AE5E7C3
:1086D000006CE3E7406CE1E7C06CDFE7006DDDE7CD
:1086E000406DDBE7342A15D006D8132A0BD0152AA3
:1086F0007FF456AFC06ED1E7722A06D0732A7FF49A
:108700004FAF006ECAE7806EC8E7836D002B3BD188
:10871000C06DC3E7406EC1E722B1082A7FF440AFC5
:10872000406FBBE7006FB9E7032A7FF439AF806F72
:10873000B4E7142A05D0152A7FF432AFD0F88000B0
:10874000ACE7C06FAAE7D0F88400A7E7D0F88C00A8
:10875000A4E7602A05D0802A7FF422AFD0F8A000D9
:108760009CE7D0F89C0099E7012A07D0022A08D09C
:10877000002A7FF415AFD0F890008FE7D0F894006E
:108780008CE7D0F8980089E7012070470D2935D093
:1087900007D8022919D006292AD001290DD0002096
:1087A000704713292FD0282934D01029F7D1023A45
:1087B000D2B2132AF3D81F4B04E0013AD2B2602A96
:1087C000EDD81D4B33F812007047342A27D007D854
:1087D000132A26D0152A14BF00204FF439607047A1
:1087E000722A20D0732A14BF00204FF4847070477F
:1087F000E2B1082A14BF002006207047032A14BFE4
:1088000000201C207047602A12D0802A14BF00204C
:10881000A4207047022AC2D8084B985C70470C20ED
:108820007047482070474FF4047070471420704719
:1088300008207047B2760C00F0750C00DA760C0058
:1088400010B590F8EC10CA0715D4D0F86021594B38
:1088500022F0FF029A4201D18B070CD490F86131CB
:10886000472B74D1B0F8623145F24114A34204D1D0
:1088700011F0040F6BD0012070E045F24214A342C6
:1088800002D111F0080FF5E745F24234A34202D1BC
:1088900011F0100FEEE744F24714A34202D111F099
:1088A000200FE7E744F64C44A34202D111F0400FF9
:1088B000E0E745F24C14A34202D111F0800FD9E752
:1088C00045F24E118B4204D190F8ED3013F0010FB8
:1088D000D0E745F24E318B4204D190F8ED3013F0E1
:1088E000020FC7E745F250118B4204D190F8ED30EA
:1088F00013F0040FBEE745F251118B4204D190F8FA
:10890000ED3013F0080FB5E745F252318B4204D138
:1089100090F8ED3013F0100FACE744F253118B4296
:1089200004D190F8ED3013F0200FA3E745F2534146
:108930008B4204D190F8ED3013F0400F9AE745F2E6
:1089400053618B4203D190F9ED30002B93DB1A4B2E
:108950009A4204D190F8EE0000F0010010BD174BD0
:108960009A4204D190F8EE00C0F34000F6E7144BB1
:108970009A4204D190F8EE00C0F38000EEE7114B6C
:108980009A4204D190F8EE00C0F3C000E6E70E4B27
:108990009A4204D190F8EE00C0F30010DEE70B4BD2
:1089A0009A4204D190F8EE00C0F34010D6E70020C0
:1089B000D4E700BF0044544D00524C4D00524D438B
:1089C0000054585400564C5700565447005A4441DE
:1089D00090F85E312A2B57D190F85F31472B53D155
:1089E000D0F86031294A23F0FF03934211D090F868
:1089F0006121472A1AD1B0F86221A2F5A24141397A
:108A000089B2102907D922F0100145F24230814283
:108A100029D1012070471E4820FA01F1C907F8D476
:108A200022F4007245F253418A42F2D0194A93422D
:108A3000EFD002F1764202F580329342E9D0164A35
:108A40009342E6D002F1022202F574029342E0D092
:108A500002F1704202F500229342DAD00F481B1A4D
:108A600058425841704744F247118A42D1D044F6E7
:108A70004C418A42CDD045F24E318A42C9D044F2AF
:108A800053118A42C5D0CBE7002070470044544DB3
:108A900003A8010000524C4D00545854005A444160
:108AA00010B590F8F010CA0715D4D0F86021594BD2
:108AB00022F0FF029A4201D18B070CD490F8613169
:108AC000472B74D1B0F8623145F24114A34204D16E
:108AD00011F0040F6BD0012070E045F24214A34264
:108AE00002D111F0080FF5E745F24234A34202D15A
:108AF00011F0100FEEE744F24714A34202D111F037
:108B0000200FE7E744F64C44A34202D111F0400F96
:108B1000E0E745F24C14A34202D111F0800FD9E7EF
:108B200045F24E118B4204D190F8F13013F0010F51
:108B3000D0E745F24E318B4204D190F8F13013F07A
:108B4000020FC7E745F250118B4204D190F8F13083
:108B500013F0040FBEE745F251118B4204D190F897
:108B6000F13013F0080FB5E745F252318B4204D1D2
:108B700090F8F13013F0100FACE744F253118B4230
:108B800004D190F8F13013F0200FA3E745F25341E0
:108B90008B4204D190F8F13013F0400F9AE745F280
:108BA00053618B4203D190F9F130002B93DB1A4BC8
:108BB0009A4204D190F8F20000F0010010BD174B6A
:108BC0009A4204D190F8F200C0F34000F6E7144B4B
:108BD0009A4204D190F8F200C0F38000EEE7114B06
:108BE0009A4204D190F8F200C0F3C000E6E70E4BC1
:108BF0009A4204D190F8F200C0F30010DEE70B4B6C
:108C00009A4204D190F8F200C0F34010D6E7002059
:108C1000D4E700BF0044544D00524C4D00524D4328
:108C20000054585400564C5700565447005A44417B
:108C3000D0F8D00010B103689B6818477047000057
:108C400037B53D4B044604F25F15186800909B88C9
:108C5000ADF804300522294668460BF0D9F928B949
:108C6000D4F8A43013B1012003B030BD33496846B5
:108C70000BF06CFA0522294668460BF0C9F918B9C1
:108C8000D4F8A830002BEED12D4968460BF05EFADF
:108C90000522294668460BF0BBF918B9D4F8AC3068
:108CA000002BE0D1274968460BF050FA05222946EF
:108CB00068460BF0ADF918B9D4F8B030002BD2D11A
:108CC000214968460BF042FA0522294668460BF016
:108CD0009FF918B9D4F8B430002BC4D11B496846A9
:108CE0000BF034FA0522294668460BF091F918B9C1
:108CF000D4F8B830002BB6D1154968460BF026FAE7
:108D00000522294668460BF083F918B9D4F8BC301F
:108D1000002BA8D10F4968460BF018FA0522294606
:108D200068460BF075F928B9D4F8C000003818BFB0
:108D3000012099E7002097E7706A0C00466A0C0052
:108D40004C6A0C00526A0C00586A0C005E6A0C00F7
:108D5000646A0C006A6A0C0037B5624B044604F280
:108D60005F15186800909B88ADF8043005222946ED
:108D700068460BF04DF978B9D4F8A43063B1D3F854
:108D8000D4204AB1D3F8CC20002A40F0A380D3F8F5
:108D9000D030002B40F09E80534968460BF0D6F946
:108DA0000522294668460BF033F978B9D4F8A83083
:108DB00063B1D3F8D4204AB1D3F8CC20002A40F0D4
:108DC0008980D3F8D030002B40F084804749684632
:108DD0000BF0BCF90522294668460BF019F968B971
:108DE000D4F8AC3053B1D3F8D4203AB1D3F8CC2076
:108DF000002A6FD1D3F8D030002B6BD13C496846A4
:108E00000BF0A4F90522294668460BF001F968B970
:108E1000D4F8B03053B1D3F8D4203AB1D3F8CC2041
:108E2000002A57D1D3F8D030002B53D131496846AE
:108E30000BF08CF90522294668460BF0E9F868B971
:108E4000D4F8B43053B1D3F8D4203AB1D3F8CC200D
:108E5000002A3FD1D3F8D030002B3BD126496846B9
:108E60000BF074F90522294668460BF0D1F858B981
:108E7000D4F8B83043B1D3F8D4202AB1D3F8CC20F9
:108E800042BBD3F8D0302BBB1C4968460BF05EF9CF
:108E90000522294668460BF0BBF840B9D4F8BC302F
:108EA0002BB11A6F1AB19A6EA2B9DB6E93B914493D
:108EB00068460BF04BF90522294668460BF0A8F8E6
:108EC00058B9D4F8C03053B1186F20B19A6E0AB9AE
:108ED000D86E00B1012003B030BD0020FBE718467A
:108EE000F9E700BF706A0C00466A0C004C6A0C007F
:108EF000526A0C00586A0C005E6A0C00646A0C002E
:108F00006A6A0C0037B5384B044604F25F151868DE
:108F100000909B88ADF804300522294668460BF086
:108F200077F820B9D4F8A400013003B030BD2F4940
:108F300068460BF00BF90522294668460BF068F8E5
:108F400010B9D4F8A800EFE7294968460BF0FEF8FD
:108F50000522294668460BF05BF810B9D4F8AC003E
:108F6000E2E7244968460BF0F1F8052229466846F5
:108F70000BF04EF810B9D4F8B000D5E71E4968469A
:108F80000BF0E4F80522294668460BF041F810B9C9
:108F9000D4F8B400C8E7194968460BF0D7F80522A1
:108FA000294668460BF034F810B9D4F8B800BBE78E
:108FB000134968460BF0CAF80522294668460BF0AB
:108FC00027F810B9D4F8BC00AEE70E4968460BF09C
:108FD000BDF80522294668460BF01AF810B9D4F8F6
:108FE000C000A1E70020A0E7706A0C00466A0C00F0
:108FF0004C6A0C00526A0C00586A0C005E6A0C0045
:10900000646A0C006A6A0C0037B5384B044604F2F7
:109010005F15186800909B88ADF80430052229463A
:1090200068460AF0F5FF20B9D4F8A400023003B076
:1090300030BD2F4968460BF089F80522294668465D
:109040000AF0E6FF10B9D4F8A800EFE7294968460E
:109050000BF07CF80522294668460AF0D9FF10B9C2
:10906000D4F8AC00E2E7244968460BF06FF805221B
:10907000294668460AF0CCFF10B9D4F8B000D5E70D
:109080001E4968460BF062F80522294668460AF038
:10909000BFFF10B9D4F8B400C8E7194968460BF00F
:1090A00055F80522294668460AF0B2FF10B9D4F8EF
:1090B000B800BBE7134968460BF048F8052229467B
:1090C00068460AF0A5FF10B9D4F8BC00AEE70E4917
:1090D00068460BF03BF80522294668460AF098FFDF
:1090E00010B9D4F8C000A1E70020A0E7706A0C0016
:1090F000466A0C004C6A0C00526A0C00586A0C005C
:109100005E6A0C00646A0C006A6A0C0037B5394B61
:10911000044604F25F15186800909B88ADF804308F
:109120000522294668460AF073FF20B9D4F8A40046
:10913000663003B030BD304968460BF007F80522B1
:10914000294668460AF064FF10B9D4F8A800EFE792
:109150002A4968460AF0FAFF0522294668460AF0BD
:1091600057FF10B9D4F8AC00E2E7254968460AF089
:10917000EDFF0522294668460AF04AFF10B9D4F8E7
:10918000B000D5E71F4968460AF0E0FF05222946EE
:1091900068460AF03DFF10B9D4F8B400C8E71A4990
:1091A00068460AF0D3FF0522294668460AF030FFD8
:1091B00010B9D4F8B800BBE7144968460AF0C6FFF6
:1091C0000522294668460AF023FF18B9D4F8BC00E6
:1091D0003430AEE70E4968460AF0B8FF052229464A
:1091E00068460AF015FF10B9D4F8C000F0E7002077
:1091F0009FE700BF706A0C00466A0C004C6A0C00C6
:10920000526A0C00586A0C005E6A0C00646A0C001A
:109210006A6A0C0037B5394B044604F25F151868CA
:1092200000909B88ADF804300522294668460AF074
:10923000EFFE20B9D4F8A400673003B030BD304948
:1092400068460AF083FF0522294668460AF0E0FED8
:1092500010B9D4F8A800EFE72A4968460AF076FF6B
:109260000522294668460AF0D3FE10B9D4F8AC00AE
:10927000E2E7254968460AF069FF05222946684663
:109280000AF0C6FE10B9D4F8B000D5E71F49684609
:109290000AF05CFF0522294668460AF0B9FE10B9BB
:1092A000D4F8B400C8E71A4968460AF04FFF05220F
:1092B000294668460AF0ACFE10B9D4F8B800BBE7FE
:1092C000144968460AF042FF0522294668460AF01A
:1092D0009FFE18B9D4F8BC003530AEE70E49684699
:1092E0000AF034FF0522294668460AF091FE10B9BB
:1092F000D4F8C000F0E700209FE700BF706A0C00C0
:10930000466A0C004C6A0C00526A0C00586A0C0049
:109310005E6A0C00646A0C006A6A0C0037B5394B4F
:10932000044604F25F15186800909B88ADF804307D
:109330000522294668460AF06BFE28B9D4F8A43005
:10934000D3F8D40003B030BD2F4968460AF0FEFEC2
:109350000522294668460AF05BFE10B9D4F8A83009
:10936000EEE72A4968460AF0F1FE052229466846DA
:109370000AF04EFE10B9D4F8AC30E1E72449684653
:109380000AF0E4FE0522294668460AF041FE10B9BB
:10939000D4F8B030D4E71F4968460AF0D7FE05225A
:1093A000294668460AF034FE10B9D4F8B430C7E74D
:1093B000194968460AF0CAFE0522294668460AF09D
:1093C00027FE10B9D4F8B830BAE7144968460AF055
:1093D000BDFE0522294668460AF01AFE18B9D4F8DF
:1093E000BC30186FAEE70E4968460AF0AFFE0522A2
:1093F000294668460AF00CFE10B9D4F8C030F0E7F0
:1094000000209FE7706A0C00466A0C004C6A0C0052
:10941000526A0C00586A0C005E6A0C00646A0C0008
:109420006A6A0C0037B53A4B044604F25F151868B7
:1094300000909B88ADF804300522294668460AF062
:10944000E7FD30B9D4F8A430D3F8D400013003B02C
:1094500030BD304968460AF079FE05222946684643
:109460000AF0D6FD10B9D4F8A830EDE72A496846CD
:109470000AF06CFE0522294668460AF0C9FD10B9BB
:10948000D4F8AC30E0E7254968460AF05FFE0522D3
:10949000294668460AF0BCFD10B9D4F8B030D3E7CD
:1094A0001F4968460AF052FE0522294668460AF01E
:1094B000AFFD10B9D4F8B430C6E71A4968460AF0CF
:1094C00045FE0522294668460AF0A2FD10B9D4F8E7
:1094D000B830B9E7144968460AF038FE0522294633
:1094E00068460AF095FD18B9D4F8BC30186FADE79E
:1094F0000E4968460AF02AFE0522294668460AF007
:1095000087FD10B9D4F8C030F0E700209FE700BF16
:10951000706A0C00466A0C004C6A0C00526A0C001F
:10952000586A0C005E6A0C00646A0C006A6A0C00DF
:1095300013B5304B044604F25F14186800909B8802
:10954000ADF804300522214668460AF061FD10B9E5
:10955000642002B010BD284968460AF0F7FD0522D4
:10956000214668460AF054FD0028F1D02349684698
:109570000AF0ECFD0522214668460AF049FD002864
:10958000E6D01F4968460AF0E1FD052221466846FB
:109590000AF03EFD0028DBD01A4968460AF0D6FDE5
:1095A0000522214668460AF033FD0028D0D016492E
:1095B00068460AF0CBFD0522214668460AF028FDE0
:1095C0000028C5D0114968460AF0C0FD0522214691
:1095D00068460AF01DFD48B10D4968460AF0B6FD1F
:1095E0000522214668460AF013FD08B93220B0E78B
:1095F0000020AEE7706A0C00466A0C004C6A0C0052
:10960000526A0C00586A0C005E6A0C00646A0C0016
:109610006A6A0C0037B5384B044604F25F151868C7
:1096200000909B88ADF804300522294668460AF070
:10963000EFFC18B9D4F8A40003B030BD2F49684638
:109640000AF084FD0522294668460AF0E1FC10B9BB
:10965000D4F8A800F0E72A4968460AF077FD052209
:10966000294668460AF0D4FC10B9D4F8AC00E3E708
:10967000244968460AF06AFD0522294668460AF030
:10968000C7FC10B9D4F8B000D6E71F4968460AF005
:109690005DFD0522294668460AF0BAFC10B9D4F8E7
:1096A000B400C9E7194968460AF050FD0522294669
:1096B00068460AF0ADFC10B9D4F8B800BCE714490C
:1096C00068460AF043FD0522294668460AF0A0FCD8
:1096D00010B9D4F8BC00AFE70E4968460AF036FD71
:1096E0000522294668460AF093FC10B9D4F8C00058
:1096F000A2E70020A0E700BF706A0C00466A0C00D9
:109700004C6A0C00526A0C00586A0C005E6A0C002D
:10971000646A0C006A6A0C007047000038B5138850
:109720000C4D012B14460ED10A0202F440722A801D
:1097300001332380FFF7F0FF20882B88984214BF65
:109740000320002038BD022BF2D12A880A430632BA
:10975000EDE700BF1AE6032030B54A780D784C8853
:109760002A4454FA82F000EB142355FA82F203F0F3
:10977000FF0352FA80F20B7313444B73002293B22F
:109780009C420AD98B68087B9B5C0344487BDBB214
:109790000B7303444B730132F1E730BD90F85A313B
:1097A000194490F85B31C9B280F85A11194480F815
:1097B0005B1170472DE9F74FB1F802B00BF1080BC0
:1097C0001FFA8BFB4FF00008ABF1020304460D4675
:1097D000DA46C1460093BAF1000F00F0A680667821
:1097E00094F8E810D4F8C800564528BF5646AAEBAE
:1097F000060A1FFA8AFABAF1010F02BF06F1FF3614
:10980000B6B24FF0020A06F0CFF8B9F1000F5CD102
:10981000D4F8C8000368B5219B689847D4F8C800FD
:10982000036862219B689847D4F8C80029780368C8
:109830009B689847D4F8C800697803689B68984784
:10984000A978D4F8C800FEF7C1FD6988D4F8C8002B
:10985000090AFEF7BBFD4B466A88D4F8C8001FFA18
:1098600083F909F106074A45BFB20DD9BE420BD9AB
:10987000AA680168019342448F68D15CB847019B94
:109880000133E9E7B946A6E7023EC844B7421FFAEA
:1098900088F80CD10368297B9B689847D4F8C800E6
:1098A000697B03689B68984709F10807BFB25F4569
:1098B000E8D294F87411D4F8C80006F07CF80028B7
:1098C000E0D00C2003B0BDE8F08F002291B219FA6D
:1098D00082F78E42D4F8C800BFB210D9B5F802E0C2
:1098E00008EB020C531CF445019308DAA9680268DE
:1098F00011F80C1092689047019B1A46E6E7009B0E
:1099000088449F421FFA88F8D1D1023EB242CED19C
:109910000368297B9B689847D4F8C800697B036873
:109920009B6898471FFA8BF7C1E7D4F8C80006F088
:1099300046F80028C6D0C4E770B50546D0F8CC007C
:1099400003680C469B68B5219847D5F8CC0003689E
:1099500062219B689847D5F8CC00217803689B6802
:109960009847D5F8CC00617803689B689847D5F88C
:10997000CC00A17803689B689847D5F8CC00618833
:109980000368090A9B6898470026D5F8CC006188CF
:109990000368B2B291429B6804D9A168895C984778
:1099A0000136F2E7217B9847D5F8CC00617B03684C
:1099B000BDE870409B68184710B50446D0F8DC003D
:1099C00007F09EFC94F8083194F809219A420BD9CB
:1099D000FF2801D122783AB1D4F80421D05494F868
:1099E0000831013384F8083110BD00002DE9FF4132
:1099F000D0F8043104460D467BB990F8E93023B91C
:109A000090F8EA30002B00F0CA806649D4F8D40000
:109A100004B0BDE8F04107F094BAD0F8E430624AEF
:109A200002930026012380F808616946D0F8DC0023
:109A3000ADF80C3000928DF8046007F0C1FB94F88B
:109A4000E000314608F047F8B5212046FFF7B4FFA3
:109A500062212046FFF7B0FF29782046FFF7ACFFD0
:109A600069782046FFF7A8FFA9782046FFF7A4FFF2
:109A700069882046090AFFF79FFF94F8E930002B18
:109A800042D04A49D4F8D40007F05BFA1022D4F847
:109A9000D400B521FEF78AFC4549D4F8D40007F07C
:109AA00050FA1022D4F8D4006221FEF77FFC40491E
:109AB000D4F8D40007F045FA10222978D4F8D4005D
:109AC000FEF774FC3A49D4F8D40007F03AFA1022B1
:109AD0006978D4F8D400FEF769FC3549D4F8D4008D
