:02000002B0004C
:1040000000400B00548A0C00000006001700050257
:084010000401A30F00000000F1
:0440180004650C002F
:1040200009480A49884208B505D0094A824202D0A7
:10403000121A10F099F90748074A0021121A10F0D5
:10404000BBF9014808BD00BF44DB032028880C00F1
:1040500048DD032048DD0320EDE7032070B5074E5F
:10406000074C0DF051FEA41BA4080025AC4200D162
:1040700070BD56F8043B98470135F7E7DC870C0024
:1040800000880C0002F014B808B501F095FFBDE8F7
:1040900008400DF0F1BD0AF013B80AF011B80AF0AB
:1040A00017B80AF015B8000008B5034A03490C20F8
:1040B00009F0F8FEFEE700BFE5DA0B0018650C001A
:1040C0000078B0FA80F04009704701230370704710
:1040D00070477047006A0368DB6818477047037CC5
:1040E00013F008031EBFC36A406A1B1A002BACBF43
:1040F00018466FF0004070477047000008B5174B36
:104100001A78174B1B789B0043EA4202154B1B7829
:104110001343154A127843EAC203144A127843EA59
:104120000213134A127843EA8213124A127843EABE
:10413000C213114A127843EA0223104A127843EA62
:1041400042230F4A13800F4B01221A700DF04CFDD1
:10415000BDE808400C490DF086B800BFA4DD03207F
:1041600060DD032095DD0320D8E0032050DB032031
:1041700004DF0320FDDE032094DD032070DD032037
:10418000A8E50320C8E503202D650C0010B510211B
:104190000446FFF786FF204610BD10B534210446C3
:1041A000FFF77FFF204610BD103002F08FBE07B52D
:1041B00001228DF8071010300DF1070102F086FE84
:1041C00003B05DF804FB103002F0F6BD103002F0D1
:1041D000D7BC07B501220DF10701103002F022FC17
:1041E00001280CBF9DF807004FF0FF3003B05DF8C9
:1041F00004FB436913B183690C301847704713B54A
:1042000000210446084609F015FC0023204601A9B8
:10421000019309F027FC019C0CB1012323710021BB
:10422000012009F007FC2CB1236820469B689847C1
:104230000023237102B010BD012A02D101600020C9
:104240007047022A04BF0B680360F8E70368184749
:1042500037B5044680680D4630B10023CDE9003300
:104260001A46022109F006FCA06830B10023CDE90E
:1042700000531A46194609F0FDFB03B030BD036830
:10428000C9B29B681847000010B5054B00220446D0
:10429000114640F8043B09F025FE204610BD00BF42
:1042A000C06B0C0010B50446FFF7EEFF204620213E
:1042B000FFF7F7FE204610BD0A4B10B50446036019
:1042C0000CF0DAF821460CF012FB0DF08DFC0DF02D
:1042D0007FFC2046044B40F8043B0CF0A3F9204639
:1042E00010BD00BFD46B0C00A86B0C0010B50446C9
:1042F000FFF7E2FF20462421FFF7D3FE204610BD42
:104300000EB403B503AB002153F8042B01930CF05A
:10431000D4FF02B05DF804EB03B0704773B50446F8
:1043200008462279A36832B1A3B90B4902B0BDE8AF
:1043300070400CF081BF094A267B094D0949647B16
:10434000012E18BF2946CDE900140749FFF7D8FF11
:1043500002B070BD054AEFE757650C006F7D0C0099
:1043600053650C004F650C006D650C0046650C0034
:104370000EB403B503AB012153F8042B01930CF0E9
:104380009CFF02B05DF804EB03B0704770B52B4D95
:104390002B783BBB2A4E33785A2B23D0294C2378D9
:1043A0005A2B1FD009F0AEFB274B1B68C01AB0F583
:1043B0007A6F17D9254B26485A211970254B317031
:1043C0001970254B217001221A700CF0BEFF217864
:1043D00022480CF0BAFF0DF007FC21494FF47A6235
:1043E000FFF7C6FF1F4E34783CBB2B782BB309F088
:1043F00089FB1D4B1B68C01AB0F57A6F1DD91B4B8A
:104400002C701C700E4B34705A2119700F4B0D4CD0
:104410001970104B0E4819700F4B217001221A7041
:104420000CF093FF21780D480CF08FFF0DF0DCFBB2
:104430000F494FF47A62FFF79BFF70BD50DB0320FA
:1044400080E5032081E5032018DE032044DE0320FD
:1044500074DD0320DBE00320ECE5032084DD032092
:104460008A650C00D8E5032020DE0320D9E0032074
:10447000D4650C0010B58368044613B103220146CD
:104480009847204610BD000037B5134B0360044623
:104490008068C8B100256FF00043CDE900350221E6
:1044A0002B462A4609F0E6FAA068294609F00AFBDD
:1044B000237903F0FF0513B109F0B4FAF8E7A06817
:1044C000294609F0C7FAA56004F10C00FFF7D2FFF6
:1044D000204603B030BD00BF946B0C0010B50446FD
:1044E000FFF7D2FF20461C21FFF7DBFD204610BD61
:1044F000F0B58C46002514490571044685600160BD
:1045000092E8030085B002AF04F10C0687E80300CF
:1045100096E8030082E8030097E8030086E80300BA
:104520009168A0696161D1689560D060A161CDE9B1
:104530000035064A2346614604F1080009F082FA74
:10454000204605B0F0BD00BF946B0C00FF410B008E
:1045500010B504460022407C09F0FEFC637C0F2B62
:1045600018BF208310BD000010B5244B244A1B78CF
:104570005BB1537C0F2B1CBF02235374FF23536189
:104580001E211F48FFF7E4FF10BD1E4B1B7833B1FF
:10459000537C0F2B1CBF022353741B4BEFE71B4BA9
:1045A0001B7823BB1A4B1B7823BB1A4B1B78002BA1
:1045B0000BBF0A21142102200320174B1C78174B34
:1045C0001B789B0043EA4403154C24782343013BAA
:1045D000DBB2062B9CBF134C54F82330547C88BFAD
:1045E0004FF47F030F2C18BF50745361C9E7142197
:1045F0000220E2E714210120DFE700BFD8E003201A
:1046000088E5032082E503200060FF0004DF03202B
:10461000FDDE032050DB0320A4DD032060DD03204A
:1046200095DD0320C86C0C0013460A460149096851
:1046300002F0FFBB10E6032010B509F0B9FC2B4CCB
:10464000E0B10123237009F05DFA294B294C1B6866
:1046500047F23052C01A904223D813B3012323707B
:1046600009F050FA244B254C1B6847F23052C01A0F
:10467000904228D83BB30123237010BD2378002B30
:10468000E1D01F48037C2BB91E4944F202221030AE
:10469000FFF7CAFF1C491A481E22FFF769FE0023D4
:1046A000D0E723786BB11648037C2BB9154944F247
:1046B00002221030FFF7B8FF134911481E22FFF7FE
:1046C00057FE0023CBE7227872B16BB10C48037C14
:1046D0002BB90C4944F202221030FFF7A5FF0B4919
:1046E00007481E22FFF744FE0023C5E795DD03209F
:1046F000A8DD0320A4DD03206CDD032060DD0320A2
:10470000A4DE0320F7DD03202E660C007F660C007C
:1047100030B585B01B4B009313798DF80430936846
:10472000029300F58C659389ADF80C3004460A4677
:104730006B4600F26C41284603F0ACFA10B9002039
:1047400005B030BD256004F23C45284602F06AFB06
:104750000121204603F049F9014668B12146284667
:1047600002F05AF90028EAD094F83C3413F0700FA4
:10477000E5D0054B1D60E3E7204603F036F900283D
:10478000ECD1DCE7806B0C0010E603202DE9F0474C
:104790008EB08378412B04AF04468A464DD1C3784E
:1047A000422B76D120460FF092FE013820F0070010
:1047B000E946ADEB000D20460FF089FE04AD28441C
:1047C000002600F8096C2046FE733E81BE720FF091
:1047D0007EFE204410F8023C3B7220460FF077FE2C
:1047E0002044314610F8013C7B72102207F108008A
:1047F00010F096FD80465FFA88F80DF0F5F9AC49A7
:1048000043464246FFF7B4FD042620460FF05FFE04
:104810000238864216D2062E9BBF07F128039B1949
:10482000AB19A25D8CBFA25D03F8202C06F1010636
:1048300088BF03F8072CF6B2E7E7422B29D1C378EB
:10484000312BAEE740452ED00DF0CEF9054620467F
:104850000FF03DFE821E2846964D97494346FFF7CE
:1048600087FD2B7CCBB9954944F2022205F110005B
:10487000FFF7DAFE924922462846FFF779FD05F157
:10488000100002F0CFFA0DF0AFF98E490CF0EBFCFE
:10489000CD462837BD46BDE8F087894922462846DF
:1048A000FFF766FDEFE7884907F10C000FF0E0FD28
:1048B000002839D1854B0293854B0193854B86495E
:1048C000009307F1100207F11C03284609F018FCB9
:1048D00007F110000FF028FD51EC100B0FF0B0FCA9
:1048E000DFF85C827D4EC8F8000007F11C000FF075
:1048F0001BFD51EC100B0FF0A3FC30600DF074F9B0
:104900000446D8F800000FF04BF902460B46306819
:10491000C7E900230FF044F9CDE90001D7E90023EE
:104920006F492046FFF724FD6E4907F10C000FF098
:104930009FFD00283DD12B783B746B787B74AB785E
:10494000BB74EB783B772B797B7707F110006B79A1
:10495000BB770FF0ECFC644D644C287007F11C0031
:104960000FF0E5FC20700DF03FF92A7823786049BC
:10497000FFF7FEFC2B785F485B3B202B9CBF7B2323
:104980002B70237829785B3B202B9CBF7B232370E3
:104990000CF0DBFC217858480CF0D7FC574B012277
:1049A0001A7009F0AFF8564B18604A4B00221A7083
:1049B0006EE7544907F10C000FF05AFD18B9524B3D
:1049C00083F800A064E7514907F10C000FF050FD97
:1049D000F0B9384C0DF008F929460CF044FC237C62
:1049E00083B9364944F2022204F11000FFF71CFE9D
:1049F00047492A462046FFF7BBFC04F1100002F0AD
:104A000011FA45E742492A462046FFF7B1FC3FE745
:104A1000404907F10C000FF02BFD20B909F072F8A6
:104A20003D4B186034E73D4907F10C000FF020FDC5
:104A300010B93B4B18702BE73A4907F10C000FF007
:104A400017FD78B9384B394801221A70374B5A7C18
:104A50000F2A1CBF02225A741E21FF225A61FFF73F
:104A600077FD15E7324907F10C000FF001FD002832
:104A70007FF40EAF07F1100207F11C032D49284601
:104A800009F03EFB07F110000FF04EFC51EC100B4B
:104A90000FF0D6FB284B186007F11C000FF044FC08
:104AA00051EC100B0FF0CCFB244B1860F0E600BF6C
:104AB000CE660C00A4DE0320E3660C00F7DD0320C5
:104AC00000670C002C670C004D670C0082E503208A
:104AD000FDDE032050DB032051670C00D4E50320EA
:104AE00060670C0080670C0080E5032081E50320EF
:104AF00084670C0074DD032084DD0320ECE50320D3
:104B000018DE0320B0670C00DAE00320B4670C0065
:104B1000B8670C00DB670C001CDE0320DF670C00AD
:104B2000EDE50320E3670C00D8E0032088E50320CF
:104B3000E7670C00EB670C0024DE032000DF032096
:104B4000D0E5032010B50C46002204212046FFF7D3
:104B50001DFE0B4B1B7893B10A48037C2BB90A4905
:104B600044F202221030FFF75FFD22460749054854
:104B7000FFF7FEFBBDE81040054802F053B910BD39
:104B8000FCDE0320A4DE0320F7DD0320F1670C0028
:104B9000B4DE032000B59BB00023642201A90CF011
:104BA00071FE042100220DEB0100FFF7EFFD0C4B1D
:104BB0001B7883B10B48037C2BB90B4944F20222CA
:104BC0001030FFF731FD0949064801AAFFF7D0FB75
:104BD000074802F027F901201BB05DF804FB00BF75
:104BE000FCDE0320A4DE0320F7DD0320F1670C00C8
:104BF000B4DE0320B0B501F1080323F0070300AFD2
:104C0000ADEB030D0C460A46014668460FF0ACFBBF
:104C10000DEB04036D4613F8013C13B100230DF8AE
:104C200004300CF0E1FF16490CF01DFB0CF0DCFF2A
:104C300029460CF018FB012211462846FFF7A6FD75
:104C40002B7803F0FD03412B03D108F05BFF0D4BE4
:104C500018600D4B1B7883B10C48037C2BB90C49B1
:104C600044F202221030FFF7DFFC0A4907482A46C7
:104C7000FFF77EFB084802F0D5F8BD46B0BD00BF87
:104C800011680C006CDD0320FCDE0320A4DE032091
:104C9000F7DD032021680C00B4DE032008B50DF019
:104CA0003BF90849FFF72CFB142009F07DFA0DF0C1
:104CB00033F90549FFF724FBBDE80840142009F04B
:104CC00073BA00BF6E7D0C0055650C0007B50DF082
:104CD000E3F8002301460093124840F24C4342227D
:104CE00008F0AAFA40B94FF47A7009F05DFA0CF0B6
:104CF0007BFF0D490CF0B7FA40F24C420121094804
:104D000008F0CEF940F24C4301220021054808F09A
:104D1000A7F90DF0C1F8054903B05DF804EB0AF0FE
:104D20008FBF00BF58DF032041680C00801A0600C7
:104D300010B515200DF082F807EE900AF8EEE77A2C
:104D4000374C17EE900A0EF02BFF2DA3D3E900236A
:104D50000EF07EFF0FF074FA324B18600EF020FF59
:104D600029A3D3E900230EF0BBFD2F4B00220EF048
:104D70006FFF27A3D3E900230FF094F80FF018FA80
:104D800064280346A8BF642323EAE373142823702E
:104D9000264BCCBF00200120187010200DF04EF8DB
:104DA00007EE900AF8EEE77A17EE900A0EF0F8FE9A
:104DB0001F4B00220EF04CFF17A3D3E900230FF086
:104DC00071F80FF03DFA1B4B186011200DF036F80A
:104DD00007EE900AF8EEE77A17EE900A0EF0E0FE82
:104DE000154B00220EF034FF0BA3D3E900230FF084
:104DF00059F80FF025FA114B1860207810BD00BF4C
:104E000059C0046EDDCD733F6666666666662A40ED
:104E100098999999999909400000000000FEAF40C7
:104E2000C0DD0320C4DD03200000594004DF03205F
:104E300000804040BCDD03200080304084E503203A
:104E400038B5F0EE607A2DED048BF0EE400AB0EE4E
:104E5000670A0DF04DFA10EE100A0EF0A1FE8E4B0F
:104E600000220EF0F5FE84A3D3E900230FF01AF818
:104E70000FF0E6F908EE100AF1EE088AB4EEE88ABF
:104E8000F1EE10FAB3EE0F9A13DBB4EEC98AF1EE2D
:104E900010FA0ED50EF084FE804B00220EF020FD9D
:104EA0007F4B00220EF0D4FE7E4B00220EF0FAFF64
:104EB00021E018EE100A0EF073FEB4EEC98AF1EE8E
:104EC00010FADFED797A04460D461BDBB4EEE78A73
:104ED000F1EE10FA16D5754B00220EF001FD704B65
:104EE00000220EF0B5FE724B00220EF0DBFF6C4B81
:104EF00000220EF0F7FC0FF0A3F9BDEC048B00EEDE
:104F0000100A38BDB4EEE78AF1EE10FADFED697AE7
:104F100015DBB4EEE78AF1EE10FA10D5664B0022ED
:104F2000204629460EF0DCFC5D4B00220EF090FE80
:104F3000624B00220EF0B6FF614B0022D9E7B4EEBF
:104F4000E78AF1EE10FA18DBDFED5E7AB4EEE78A5D
:104F5000F1EE10FA11D55C4B0022204629460EF0E6
:104F6000BFFC4F4B00220EF073FE584B00220EF098
:104F700099FF43A3D3E90023BBE7BBEE027AB4EE6B
:104F8000C78AF1EE10FA11DBB4EEE88AF1EE10FAFE
:104F90000CD5424B0022204629460EF0A1FC4C4B7A
:104FA00000220EF055FE4B4B00227FE7DFED4A7AE0
:104FB000B4EEE78AF1EE10FA17DBB4EEC78AF1EE31
:104FC00010FA12D5454B0022204629460EF08AFCE5
:104FD0003F4B00220EF03CFE414B00220EF062FFE0
:104FE0002F4B00220EF07CFC85E79FED3E7AB4EE5D
:104FF000C78AF1EE10FA15DBB4EEE78AF1EE10FA8B
:1050000010D5394B0022204629460EF06BFC304B60
:1050100000220EF01DFE354B00220EF043FF284B00
:105020000022DFE7B5EEC08AF1EE10FA4FF0000281
:1050300010DD2F4B204629460EF052FC184B002263
:105040000EF006FE10A3D3E900230EF02BFF124B47
:105050000022C7E7274B204629460EF043FC0CA34D
:10506000D3E900230EF0F4FD234B00220EF01AFFCB
:1050700003A3D3E90023B5E7182D4454FB210940CD
:105080000000000000E060400000000000A063405D
:10509000000000BB543C3D400080664000001840CA
:1050A00000804640000039400000684200003F4058
:1050B00000003B400000AC4200004D4000003C407E
:1050C000008056400000FA42008055400080434076
:1050D000008046C0000038C0000020C200003240FE
:1050E000000036C000009CC200004440000043C0E5
:1050F00000405F40008053400080594000000000A5
:1051000010B52DED088B70EE607A82B017EE900A24
:10511000F0EE41AAB0EE61AAF0EE608AB0EE408AED
:105120000EF03EFD42A3D3E900230EF091FD0FF0F7
:1051300087F807EE900AB6EE00BA27EE8B0A0DF05C
:1051400061F818EE900AB0EE409A0EF029FD38A3EF
:10515000D3E900230EF07CFD0FF072F800EE100A88
:105160000DF018F818EE100AF0EE408A0EF018FD57
:105170002FA3D3E900230EF06BFD0FF061F800EED2
:10518000100A0DF007F87AEECA7AF0EE409A17EEA0
:10519000900A0EF005FD26A3D3E900230EF058FD7A
:1051A0000FF04EF807EE900A27EE8B0A0DF02AF862
:1051B00068EEA98A68EE808A28EE808AA9EE098ABC
:1051C000B0EE480A0DF096F818EE100A10EE104AEC
:1051D0000EF0E6FC02460B46002013490EF080FB61
:1051E00041EC100B0DF04AF820468DED000B0EF04F
:1051F000D7FC9DED001B41EC100B0DF03DF853EC7E
:10520000102B10EE100A19460EF06CFB0FF018F878
:105210009FED060A07EE900A27EE800A02B0BDEC69
:10522000088B10BDAFF300800000F03F706DC24AE4
:1052300070E20DA545DF913F38B5F5EEC00AF1EEFD
:1052400010FA2DED028BB5EEC00AB0EE608A37DDA4
:10525000F1EE10FA04DD38EE400ABDEC028B38BDE9
:10526000DFED2B7A77EEE07AF1EE677AB4EEE70ABB
:10527000F1EE10FAEFDC10EE100A0EF091FC254B67
:1052800000220EF02FFB02460B46002000210EF0FC
:1052900027FB044618EE100A0D460EF081FC02466C
:1052A0000B4600201B490EF01BFB02460B46204616
:1052B00029460EF015FB0EF0C3FF00EE100ACCE7F6
:1052C000F1EE10FAC7DDDFED127A70EEA77AB4EED8
:1052D000E70AF1EE10FABED410EE100A0EF060FCF0
:1052E00002460B4600200B490EF0FAFA044618EE6F
:1052F000100A0D460EF054FC064B00220EF0F2FA96
:1053000002460B46204629460EF0ECFAD3E700BFD2
:1053100000003443008066402DE9F04F2DED028BF4
:105320007148724CCDB040F24C4107F061FF00284B
:1053300000F0D28040F24C416B489FED6D8A07F03F
:10534000FAFF07EE900AF8EEE77A6A4B664887EEB6
:10535000887A40F24C4183ED007A07F0C9FF07EEEE
:10536000900AF8EEE77A644B87EE887A83ED007A4C
:1053700001232370614802F0D7FE604811A902F0B2
:1053800019FF044640B1DDED170A9DED160AFFF73F
:1053900057FD5B4B83ED000A5A4E9FED5B6A96ED1D
:1053A000007AB4EEC67AF1EE10FAC0F29080DFED2A
:1053B000576AB4EEE67AF1EE10FA00F28880544FA4
:1053C000D7ED007AF4EEC67AF1EE10FA7FDBF4EE58
:1053D000E67AF1EE10FA7AD8DFF81891464DD9ED59
:1053E000000A95ED000ADFF83C81DFF83CB1DFF8F8
:1053F0003CA177EE600A37EEC00A0CF079FFDFEDD2
:10540000457A60EE277A17EE900A0EF0C9FB34A3B6
:10541000D3E900230EF046FD0EF012FFD5ED001A81
:1054200097ED001AD9ED000A96ED000AC8F80000C1
:10543000FFF766FE324BD8ED000A8BED000A93EDC4
:10544000000AFFF7F9FE8AED000A08F05BFB324B19
:10545000186014B1314B01221A70D9F800000EF017
:105460009FFB02460B46DBF80000CDE90E230EF051
:1054700097FBCDE90C01DAF800000EF091FBCDE9C5
:105480000A01D8F800000EF08BFBCDE908011C4B97
:1054900018680EF085FBCDE9060138680EF080FB38
:1054A000CDE9040130680EF07BFBCDE902012868EC
:1054B0000EF076FBDDE90E23CDE9000118491AA8AC
:1054C00008F016FE0CF090FB1AA90BF0CCFE4DB0C4
:1054D000BDEC028BBDE8F08F20704BE7AFF300808E
:1054E000182D4454FB21094058DF032094DD03208C
:1054F0000024744924DE032000DF032048DE03205B
:10550000D0DD0320D0E503200000B4C20000B44287
:10551000D4E503200000344320DE0320D8E5032037
:1055200061680C00E0E50320DCE50320CCE5032006
:105530002DE9F84F2DED028B754B764C1B78764D8F
:10554000013B012B00F29380744BD3ED007A744B36
:10555000B7EE087AF4EEC77AF1EE10FA39D50122E7
:105560001A705A2323702B7023786E4A433B162BF4
:105570009CBF432323702B782178433B162B9CBF81
:1055800043232B7013788B4280F0AF80C81A032816
:1055900040F3B28003331370634C297823788B4235
:1055A00080F0AC80C81A032840F3AF800333237027
:1055B00011785E480BF0C9FE21785D48C1F1B40155
:1055C0000BF0C3FE5B4B00221A70BDEC028BBDE8F2
:1055D000F88FB1EE007AF4EEC77AF1EE10FA5DD5ED
:1055E00093F800B0BBF1000FBBD1534BDFED538AF2
:1055F00093ED008A524BE8EE288A93ED007A17EE7D
:10560000900A28EE078A0EF0CBFA4E4B00220EF0DD
:105610001FFB78EE887A06460F4617EE900A0EF0CA
:10562000BFFA32463B460EF013FB0EF0C1FD824638
:1056300018EE900A0EF0B4FA804618EE100A894669
:105640000EF0AEFA32463B460EF002FB02460B4627
:10565000404649460EF044F90EF0AAFDBAF1000F9B
:1056600012DA84F800B0002814DA00232B702378B3
:105670005B3B202B9CBF7B2323702B785B3B202B39
:105680003FF672AF7B236EE7BAF1B40FC4BFB42309
:105690002370E8E7B428EADDB423E7E700211970B6
:1056A000254BDFED267AD3ED006A254BE6EEA77A8F
:1056B00093ED006AB0EE677AA6EE867AE6EEC67AD9
:1056C000BDEEC77AFDEEE77A17EE102A8A4217EE92
:1056D000903A05DA2170002BC7DBB42BDCDCC5E780
:1056E000B42AC8BFB4222270F5E77FF655AF581A26
:1056F000032801DD033B4EE711704DE77FF658AFFD
:10570000581A032801DD033B51E7217050E700BF21
:1057100050DB032080E5032081E50320DCE5032046
:10572000D9E0032044DE0320DBE0032074DD032006
:1057300084DD0320ECE5032048DB03200000B442B5
:10574000CCE503200000D03F2DE9F04FA44DABB0D5
:1057500008F0D8F92B68834280F0F380DFF8B0B20C
:105760009BF80030002B00F0EC800CF095FB01233F
:10577000142263210AF085FA0CF08EFB03685B6942
:10578000984716AC26460CF087FB03681B699847C0
:1057900038B10CF081FB03685B69984704F8010B92
:1057A000F1E730460EF0C0FD51EC100B0EF048FD55
:1057B000DFF860A2CAF800000CF06EFB012314228F
:1057C00064210AF05EFA0CF067FB03685B69984796
:1057D0001BAC26460CF060FB03681B69984738B188
:1057E0000CF05AFB03685B69984704F8010BF1E77A
:1057F00030460EF099FD0CF04FFB01231422652179
:105800000AF03FFA0CF048FB03685B69984720AC4C
:1058100026460CF041FB03681B69984738B10CF031
:105820003BFB03685B69984704F8010BF1E73046DE
:105830000EF07AFD59EC108B0CF02EFB0123142294
:1058400066210AF01EFA0CF027FB03685B69984793
:1058500025AF3E460CF020FB03681B6998470446C1
:1058600038B10CF019FB03685B69984707F8010B26
:10587000F0E730460EF058FD5A4B8BF800401B788D
:1058800057EC106B002B5CD00CF0D2F811900CF0A0
:10589000C3F804460CF0D4F883460CF099F8109045
:1058A0000CF0A2F80F900CF0ABF8109A0F99119B26
:1058B0000490CDE901B203914B4A0094102112A843
:1058C00008F026FC4948037C2BB9494944F20222DE
:1058D0001030FEF7A9FE494640460EF0B1FC0EF02E
:1058E0005FF9CDE90C01434B18680EF059F9CDE989
:1058F0000A01414B18680EF053F9CDE90801DAF8B6
:1059000000000EF04DF9CDE90601394630460EF0A3
:1059100097FC0EF045F9CDE90401384B18680EF0FC
:105920003FF9CDE90201364B18680EF039F912AA99
:10593000CDE9000133492D48FEF71AFD324801F048
:1059400071FA324C08F0DEF82368834244D208F042
:10595000D9F800F6C410206008F0D4F800F239300D
:1059600028600CF099FA63210AF0A4F90CF094FA7B
:105970007221FEF784FC0CF08FFA0AF0A2F90CF009
:105980008BFA64210AF096F90CF086FA7221FEF780
:1059900076FC0CF081FA0AF094F90CF07DFA65219E
:1059A0000AF088F90CF078FA7221FEF768FC0CF026
:1059B00073FA0AF086F90CF06FFA66210AF07AF9A8
:1059C0000CF06AFA7221FEF75AFC0CF065FA0AF044
:1059D00078F90F4B01221A702BB0BDE8F08F00BF91
:1059E000D4DD0320FDDE0320B5680C0024DF032096
:1059F000D9DD032070E503206CE5032000DF0320E0
:105A000024DE0320CE680C0034DF03207CE5032075
:105A1000D8DD032074E503202DE9F04F3C4EDFF87C
:105A20000481DFF8049189B000AF0CF075FA0368C7
:105A30001B699847002866D00CF06EFA0A220146CE
:105A400038460BF025FEBB68073323F007036D468D
:105A5000ADEB030DEA460023B9681FFA83FB8B45C3
:105A600003F1010407D2594638460BF009FF2346DB
:105A70000AF80B00F0E701290AD9013938460BF082
:105A8000FFFE0D2801BFBB685344002203F8012C20
:105A9000012202215046FEF779FE0CF0A5F83146AE
:105AA0000BF0E1FB0CF0A0F839680BF0DCFB9AF886
:105AB0000030423B012B03D808F024F8C8F800005E
:105AC00099F80030D3B11348037C2BB9124944F242
:105AD00002221030FEF7A8FD394607F110000BF046
:105AE00085FE0E490B4807F11002FEF741FC07F155
:105AF00010000BF0E5FD0A4801F094F938460BF070
:105B0000DFFDAD4691E72437BD46BDE8F08F00BF0D
:105B1000E6680C00A4DE0320F7DD0320F8680C0023
:105B2000B4DE0320A8DD0320FCDE03202DE9F043D2
:105B3000ADB00CF059F863490BF095FB624801F0E9
:105B400071F9624962480022FEF76EFD48B9614B67
:105B500018700CF049F860492DB0BDE8F0430BF027
:105B600082BB0CF041F85D495D4D0BF07CFB08F009
:105B70007FFE08F0DBFE044648B908F079FE2246B5
:105B8000294608F026FF0A2008F00EFBEFE70CF08C
:105B90002BF854494E4F4C4DDFF86C810BF063FBF2
:105BA00000223946284601F0CAF8F8B108F060FE34
:105BB00008F0BCFED0B11E2201A9284601F086FAE9
:105BC0000CF012F8414601AAFEF7D2FB01A80EF034
:105BD0007EFC01AB043818440EF082FC42490EF002
:105BE000D8FCD8B9284601F01DF9D9E7384801F0AA
:105BF00019F92622002109A80EF0DEFB3B4909A86D
:105C00000EF040FC0023262209A9394808F020FDA7
:105C1000304B00221A702DB0BDE8F08326220021FF
:105C200009A80EF0C9FB3349334EDFF8C49009A828
:105C30000EF028FC01A909A80EF0F4FB0BF0D4FF2C
:105C40002E4909AAFEF794FB0023262209A9284819
:105C500008F0FEFC0BF0C8FF294901AAFEF788FBFB
:105C6000962008F0A1FA0AF02FF83046FEF737FA2E
:105C7000044688B16422002113A80EF09DFB13AAEC
:105C800064230D2130460BF0EBFC0023642213A9A2
:105C9000484608F0DDFCE8E70AF018F8262221461D
:105CA00009A80EF089FB174909A80EF0EBFB234663
:105CB000262209A90E4808F0CBFC962008F074FAB9
:105CC00090E700BF19690C0034DF032036690C002F
:105CD00080DE0320D8E0032038690C0065690C00E1
:105CE000B0DD032085690C00C3690C00C8690C0095
:105CF000D0E00320D1690C0024DF0320DA690C0016
:105D0000ED690C00156A0C009A690C0038B504683E
:105D100005467CB16368013B63605BB9236820463C
:105D20009B689847A368013BA3601BB92368204682
:105D3000DB689847284638BD2DE9F04784B002AFAC
:105D4000804691461E460D460EF0C1FB093020F0FC
:105D50000701ADEB010D40460EF0B9FB97F828A006
:105D6000254902AC03464246204608F0C1F9BAF183
:105D7000000F01D1042D0CD1204B21491B788DF847
:105D8000003038463C23224609F072FD381DFFF7EB
:105D9000BDFFB9F1000F01D1012D21D108F068FD3F
:105DA00008F0C4FDE0B120460EF091FB073020F072
:105DB0000700E846ADEB000D20460EF088FB0DF124
:105DC00008090246214648460EF0CEFA20460EF05B
:105DD0007EFB0023024649460A4808F039FCC546C6
:105DE0000EB9022D04D10CF097F821460BF03BFAC6
:105DF0000837BD46BDE8F0871E6A0C00ACDD032005
:105E0000256A0C00E4E5032030B52A4D2B789DB0BF
:105E1000002B4DD0412200210BA80EF0CDFA264BCD
:105E20009FED267AD3ED007A254B67EE877A002422
:105E3000FDEEE77ACDED087AD3ED007A214B67EEDF
:105E4000877AFDEEE77ACDED077AD3ED007A1E4B27
:105E500067EE877AFDEEE77ACDED067AD3ED007A2C
:105E60001A4B67EE877AFDEEE77ACDED057AD3ED32
:105E7000007A174B67EE877AFDEEE77ACDED047A6C
:105E800018680DF08DFECDE90201124B18680DF077
:105E900087FE0122CDE900010F490BA808F028F97F
:105EA00029780094234622460BA8FFF745FF2C7063
:105EB0001DB030BDDAE0032078E5032000007A440D
:105EC00070E5032068E5032074E503206CE50320FA
:105ED00000DF032024DE03202D6A0C0070B52C4E59
:105EE000337890B0002B49D02A4A2B4B10681B788E
:105EF00007930DF055FECDE90401284A284C10689F
:105F00000DF04EFECDE90201264A079B1288264974
:105F1000009209A8012208F0EBF80BF065FE09A930
:105F20000BF0A1F90BF060FE218805460A220BF068
:105F3000A6F928460BF08BF91C4B1B7803BB1C4BB6
:105F40001B78EBB92388F3B113F003031BD10122B3
:105F5000009219461A4609A8FFF7EEFE23880BB1F6
:105F6000013B238000246420347008F01DF911489F
:105F70000094234601222146FFF7DEFE10B070BDDB
:105F80004FF4F07323800021012300911A46E2E7C9
:105F9000C8E5032000DF0320C0DD032024DE03204A
:105FA00096DD0320A8E50320516A0C0060DD032084
:105FB000A4DD03206A6A0C0008B5FFF7ADF9FEF70F
:105FC000B7FEFFF7C1FBFFF727FDFFF787FFFFF7DE
:105FD000AFFA064B1B780BB1FFF7A8FDFFF714FFD4
:105FE000BDE808404FF4FA7008F0DEB8D8E00320AE
:105FF00070B5D0E900531426044606FB0356AE42A2
:1060000004D028460BF05CFB1435F8E7206808F054
:106010005FF8204670BDF0B516468FB00022C0E98B
:10602000002204460D4609AF194604A808F0D2FA2A
:106030001499384608F0CEFA169B0293159B204619
:10604000CDE90073324604AB294609F039F8204601
:106050000FB0F0BD13B50B4C2178BFF35B8F11F07F
:1060600001010BD120460191FEF72AF8019928B1D0
:1060700005480BF0D8F92046FEF727F8024802B091
:1060800010BD00BF54DD032058DD032008B5FFF725
:10609000E1FF4FF6FF7200210BF0E3F9FFF7DAFFA3
:1060A000BDE80840014901220BF07ABA40420F00D6
:1060B0002DE9F04FC548C64F037CC64D03F00303DE
:1060C00043F0780393B0037400220121043007F0F9
:1060D00009FF012102200BF087FE01211C200BF09B
:1060E00083FE00211D200BF07FFE002102200BF01B
:1060F0008CFE00211C200BF088FE07F003FDB64A41
:106100005A231370B54A3B7000244FF0B4082B702B
:1061100013700621CDE900484FF4FA634FF47A7208
:106120000646AF480BF04EF94FF4FA634FF47A721B
:10613000CDE900480521AB48DFF85C830BF042F95C
:106140003978A748A84F0BF000F92978A5480BF03B
:10615000FCF84FF4FA6008F027F808F089FB08F023
:10616000D1FB08F085FB082108F0D3FB0BF03CFDC8
:106170004FF4E1310BF028FD0BF0CEFE4FF4165139
:106180000BF0CAFCFFF782FFFEF788FDFEF79EFDCD
:106190000123964996482246CDE9004407F018FFAE
:1061A0009449954A954809F06CFA954B1C70954BAB
:1061B0001C70954B1C7007F0A5FC944B1860944B19
:1061C0001860944B1860944B1860944B1C60944B6F
:1061D0001C60944B1C70944B1C70944B1C70944B23
:1061E0004FF4F0721A80934B1C70934B01253222AE
:1061F0001A7088F800503D7008F03AFB8F4A01464B
:106200000DA809F087F80DA808F037FC08F030FB5E
:106210008B4A01460DA809F07DF80DA808F02DFC69
:1062200008F026FB874A01460DA809F073F80DA86F
:1062300008F023FC08F01CFB834A01460DA809F076
:1062400069F80DA808F019FC804B1D70804B0DA853
:10625000196808F0BFF90DA808F01EF905460DA849
:10626000002D40F0258108F033F90095ADF82400A9
:10627000022309AA0321774808F02AFD0023734965
:106280007448082208F042FD08F0F2FA0022714931
:1062900008F09FFB0BF000FE09F0D6FC0BF0FCFDB4
:1062A0006D4909F0CDFC0BF0F7FD1C2102466B484F
:1062B00002F0B3F8002840F002810BF095FC684929
:1062C0000AF0D1FF6548022101F0A0FF63480021D8
:1062D00002F000F86148012101F0CAFF5F48012186
:1062E00002F013F8012400255C484FF4FA7102F023
:1062F000B3F823462A462946CDE90154574800946D
:1063000002F0C2F80BF094FB07900BF085FB81467E
:106310000BF096FB82460BF05BFB83460BF064FBB5
:1063200006900BF06DFB069A079B0490CDE902B234
:1063300010214C4ACDE9009A09A807F0E9FE4A4924
:106340004A480EF09FF809A948480EF06BF84749F3
:1063500047480EF097F8474944480EF063F846491D
:1063600043480EF05FF80BF03FFC40490AF07BFF1A
:106370000BF03AFC3E490AF076FF40486FF00041CE
:10638000FDF766FF3E486FF00041FDF761FF3D48B5
:106390006FF00041FDF75CFF3B4B0D933B483C4BDE
:1063A000ADF840400DAA08218DF838500F93FEF744
:1063B000AFF90446002840F086800BF015FC354903
:1063C0000AF051FF88F800403C7067E088E5032040
:1063D00080E5032081E5032044DE0320DBE0032089
:1063E00074DD032084DD0320FCDE0320454B0B001D
:1063F000786A0C00954B0B007E6A0C0057F60B0078
:1064000095DD032094DD032070DD03207CE503206F
:10641000D4DD03201CDE032020DE0320A8DD0320C2
:106420006CDD0320D8DD0320D8E00320DAE0032070
:1064300096DD0320D8E50320C0DD0320E4E503203A
:10644000DCE00320D0E00320C8DD032061DD032071
:1064500044DB0320B0DD0320801A060048DE032061
:106460008C6A0C00B5680C00B76A0C00D9DD0320FB
:10647000F7DD0320C3690C00C06A0C00F0E50320BF
:1064800028DE0320ACE50320806B0C00E4E0032051
:1064900000127A00C96A0C00FDDE032007F032FB0F
:1064A000801BB0F5FA6F36D2052007F07DFEF5E7C8
:1064B00008F010F80094024610230721DBE60BF0E9
:1064C00093FB1649FCE698F800307BB11448037C36
:1064D0002BB9144944F202221030FEF7A5F81249F4
:1064E0000F480AF0C0FE114800F09CFC3B78002BDE
:1064F000D4D00F48037C2BB90E4944F2022210304D
:10650000FEF792F80C490A480122FDF731FF0B48CB
:1065100000F088FCC2E713B0BDE8F08FA86A0C0059
:1065200024DF0320D9DD0320EE6A0C0034DF0320D2
:10653000A4DE0320F7DD0320446B0C00B4DE03204F
:106540008842F8B504460D46164616D9904215D233
:10655000A2F11406751AA1F114072C44B7421CD0FD
:106560002CB1314620460BF027F9337C237430469A
:106570000BF0A6F8143E143CF0E70ED0B5420CD058
:106580002CB1294620460BF017F92B7C23742846A2
:106590000BF096F814351434F0E7F8BD2DE9F0410E
:1065A0000023C0E9003383604F689F4204460E46D3
:1065B00023DD4FF0140808FB07F007F081FD0546C6
:1065C000D8B1D4E9001208FB0212FFF7B9FF206826
:1065D00007F07EFD2560A760D6E9007308FB03780D
:1065E000B84508D0394628460BF000F93B7C2B749F
:1065F00014371435F4E7736863602046BDE8F08112
:106600002DE9F041854B864C01251D70854B0022FC
:10661000C3E90022A2F580329A6092B0032007F00D
:1066200073FC814801F08CFF804801F073FD2378F2
:10663000BFF35B8FDB070AD42046FDF741FD30B185
:106640007B4829460AF0EFFE2046FDF73EFD794BD8
:10665000794D6422C3F86024784AC3F8702400247A
:106660000126734A5C60C3F83C44C3F8684483F86D
:106670007464C3F87844A3F87C44C3F86C24704B6A
:10668000704A1A604FF47A785C60C3F808801C6125
:106690006D4B07941A60C3E901481C616B4B1A608B
:1066A000C3E901481C61CDE905440BF09DFA05A939
:1066B000074608A8FFF772FF08A90BA8FFF76EFFAF
:1066C000634B2B600BA90EA8FFF768FF0EAA1E21D3
:1066D000281D0AF0EFF90EA8FFF78AFC0BA8FFF7B8
:1066E00087FC5C4B2B602F6208A8FFF781FC5A4B9C
:1066F0002B600BF079FA4FF416510BF065FA09F0A4
:10670000BBFE29460AF0ACF805A8FFF771FC534818
:10671000534D544F0AF042FE53480AF03FFECDE974
:1067200001442B680093514B51491B6851484FF06D
:106730001002FFF770FC504B029401932B680093FA
:106740004E4B4F491B684F484FF00402FFF763FC64
:10675000CDE901442B6800934B4B4C491B684C48D6
:106760004FF01002FFF757FCCDE901442B6800936E
:10677000484B49491B684948494D4FF01002FFF703
:106780004AFC484808F0AFFA474B0E930EAA23463E
:1067900043F69821454811971095FDF7A9FE0EA8DC
:1067A000FDF768FE424B0E930EAA23464146414830
:1067B000CDE91057FDF79CFE0EA8FDF75BFE3E4BA2
:1067C0000E930EAA234640F6C4113C48CDE910575B
:1067D000FDF78EFE0EA8FDF74DFE394B0E930EAA67
:1067E000234643F698213748CDE91057FDF780FE40
:1067F0000EA8FDF73FFE22461421304607F0ACFB01
:10680000142203460092019632466FF07F412E48D3
:1068100009F0B4FC12B0BDE8F08100BFACDD03208C
:1068200048DD032098DD032058DF032048DE0320E5
:106830004CDD0320E4E00320D8DE0320806B0C0055
:1068400024DF0320EC6B0C00A4DE032070DE0320A9
:10685000A86B0C00A47D0C00D46B0C0074DD03202D
:1068600044DB03204D420B0084DD03205CDB03206E
:10687000696B0C00E4E50320F54B0B0058DB0320AB
:106880006C6B0C00DCE0032054DB03206F6B0C000E
:10689000D0E003204CDB0320736B0C00C8DD032029
:1068A00039420B00B0DD032039460B00F0E5032030
:1068B00069450B0028DE03208D430B0008DF032011
:1068C000FD400B00ACE5032088E5032038B5044605
:1068D0000D46242200210DF06FFDA560EB79102BF1
:1068E00003D0202B06D0002038BD202301202370A8
:1068F000A070F9E74023F9E710B50446243000F012
:1069000066FF28B104F50C70BDE8104000F05FBFD1
:1069100010BD8378016943F00403837000F1100215
:10692000806801F00AB800002DE9F041017811F00B
:106930002005044603D000263046BDE8F0814269B8
:10694000174B9A42F7D2FFF7E4FF06460028F2D031
:106950002169A06800F086FF0746A0680522394635
:10696000243000F05CFF80460028E4D029464FF434
:1069700000720DF021FD0125A3681A79AA4209D9F8
:1069800018684246E91901F0B6FA0028D3D001355B
:10699000EDB2F1E7636903EB42236361CCE700BF2B
:1069A00000FE1F0010B5044680680A462430A16925
:1069B00000F035FF20B1A38803F00F0300EB431074
:1069C00010BD0023F0B50446451E082618462E27A4
:1069D00015F8012F202A18D0082B02BF0F54421C93
:1069E000D0B22A78A2F1410C08BF1026BCF1190FD1
:1069F00006D894F80CC016EA0C0F1CBF2032D2B295
:106A000000F1010C0A545FFA8CF00133DBB20B2B5E
:106A1000DED100230B54F0BD03780BB9FFF756BF4E
:106A2000002070472DE9F74F037804468846154645
:106A3000002B5DD08278D1075AD51A072DD5C369AE
:106A400042699B1A9D4228BF1D462E464FF0000901
:106A500004F1100B002E00F08F8022786369A0688B
:106A60009706C3F3080A4FEA53211FD5006A014471
:106A7000A068BAF1000F42D1B6F5007F3FD3C36AD8
:106A800099423CD0B6F5806F52D20068424601F080
:106A9000A9F968B34FF4007744E09B06D5D5836825
:106AA0001A894369C3EB42139BB2CBE790F8059078
:106AB00009EA0109BAF1000F08D1B9F1000F05D1B7
:106AC0005BB951064CBF036A236A23612169A06840
:106AD00000F0C8FE09EB0001CAE721695A4600F040
:106AE000C7FE002804DBF1D1237813F0700F43D1E7
:106AF000637843F0020363704FF0FF303DE0CAF566
:106B00000077B7424FF0000200F1240028BF37465B
:106B100000F085FE0028EBD000EB0A013A46404623
:106B20000DF022FC63693B44B8446361F61B91E7B6
:106B3000227892064FEA562A06D40279A2EB09027D
:106B4000D2B2924528BF924699424FEA4A2708D2CC
:106B5000A06853460068424601F08CF90028E1D154
:106B6000C6E753448B42F3D92430019100F02FFE45
:106B700001990028ECD1BBE7A81B03B0BDE8F08F5A
:106B800073B501220DF10701D0E904560446FFF761
:106B900049FF01280ABF9DF807004FF0FF30C4E904
:106BA000045602B070BD37B5436913F4F07F044654
:106BB000C3F3431500D099B901220DF10701204616
:106BC000FFF730FF40B2012802D0002003B030BDF3
:106BD00063691F33A0686361303000EB4510F5E74F
:106BE0002033F7E72DE9F0410278076904460D46A6
:106BF00062B14069884202D019B921616561012002
:106C000006E0160706D5E3698B420BD22761002008
:106C1000BDE8F081910605D5A3681B89B5EB431F3C
:106C2000ECD9F3E7D4F808C09CF80660431E06F1DF
:106C300009016E1ECB40CE40B34200D898B953062E
:106C40004CBFDCF82030236A236104F11008002EC9
:106C5000D4D02169A068424600F00AFE002806F15F
:106C6000FF36F4DCD2E7F61AEFE7F8B50F46044634
:106C70001546002124221E460DF09EFBB868A06038
:106C8000A58005F00F053B6AE3606A0100EB45153E
:106C900095F83B301F0744D403F01703237095F891
:106CA0003B1011F0180F04BF43F0080323709DF848
:106CB0001830E37006F00303012B2CD0022B28D0F0
:106CC0007BBB71052DD40123A370A1788B0704D55C
:106CD0002378DF0625D4DD0723D4B31123F07F0307
:106CE00006F008052B430B43A370C36AA361831806
:106CF000B3F84420B3F84A1041EA0241720513D5B3
:106D000059B9A37843F00403A370730410D401208D
:106D1000F8BD0323D8E70223D6E700F049FE002898
:106D2000EFD100202070F3E72162DB6CE361ECE738
:106D3000E1692046FFF756FF0028E8D1F1E72DE989
:106D4000F347037807460D46924653BB0B7813F082
:106D5000700F26D04C6914F01F0422D1A0460021E8
:106D60002846D5F81490FFF71EFFD0B10678C6B1BB
:106D70002E2E10D0E52E0ED0C37A1A0713D464B984
:106D800000945346C9F34F1229463846FFF76DFF6A
:106D900002B0BDE8F0870024E1E700F071F940455A
:106DA000EED00020F4E70F2BF5D17306D7D590F87D
:106DB0000D8006F01F04D2E738B5037804460BB9FE
:106DC000012038BD83785A0723D50121FFF7EAFD5A
:106DD000054628B9637843F0010363700020F0E7AB
:106DE0000378E52BF6D023781B0744BFE369C36122
:106DF000236A4383638C8382094B1B682BB100F1A8
:106E00001601183098472B8B6B82A37823F004036C
:106E1000A370A068FFF770FD0028DBD0D0E700BFAB
:106E20000CE6032010B50446FFF7C6FF00232370CD
:106E300010BDF0B593B01F4600230993037801926B
:106E400006460C4613B1002013B0F0BD0B7813F0CA
:106E5000700FF8D013782F2B12D1019A13782F2BA3
:106E600002D101320192F8E7A1681BB93046FFF761
:106E7000D3FDE9E709A8FFF729FD0028E3D009AC15
:106E8000019801AA03A900F08FF90028DBD0019B2B
:106E90001B789BB1002303AA2146304600F0B6FAC6
:106EA0000028D0D035460FCD09AC0FC40FCD0FC48C
:106EB0002B6823603046FFF7B5FFE0E73B4603AAA7
:106EC0002146304600F0A2FABEE700002DE9F04767
:106ED000037889461907044617465BD583789A07D5
:106EE00058D51B0751D46369DB43BB4252D3B84624
:106EF00004F1100A6669B8F1000F00F09180A068F3
:106F00004379C6F3080513EA56260ED16DB92169F7
:106F1000002946D0524600F0ABFC00283ADB04D1F1
:106F20002046FFF7F6FC002834D02169A06800F065
:106F300099FC3118A06815B9B8F5007F3FD2C5F5A6
:106F40000076464528BF4646002D36D16269E36982
:106F50009A4234BF01220522243000F060FCC8B1FF
:106F600028443246494635440DF0FEF9B5F5007F18
:106F700004D1A068243000F02AFC58B1636933447E
:106F80006361B144A8EB0608B4E7C169FFF72AFEC4
:106F90000028A8D1637843F0010363704FF0FF30FD
:106FA00050E0236A3BB92046FFF7B3FC0028F1D03C
:106FB00023692362B9E72361B7E70122CCE7B8F57B
:106FC000806FC26A1BD390F804C0ACEB0606F3B224
:106FD0004FEA582E734528BF734691424FEA432625
:106FE00007D31A448A4282BF4FF0FF3280F8245000
:106FF000C262A5684A46286800F0F3FFBDE79142E7
:1070000002BF4FF0FF3380F82450C362A3684A46A2
:10701000186800F070FF0028BCD04FF40076ADE790
:10702000E269A378B24204D2E66143F00403A3709C
:1070300003E0084A1268002AF7D194F90230002BC5
:1070400002DB3846BDE8F0872046FFF7B5FE002892
:10705000F7D19FE70CE60320042904D800EB410098
:10706000B0F8010070470A299BBF01F1FF3100EB26
:1070700041000131C08884BF00EB41008088704727
:10708000411E00F10A030020420842EAC01011F834
:10709000012F52FA80F08B42C0B2F5D1704738B55B
:1070A000CB6804460D4623B9BDE838408968FFF730
:1070B000B3BC242200210DF07FF91023012023709E
:1070C000A070AB68A360EB68236238BD2DE9F04F78
:1070D0008DB003784FF0000906460F469046CDF874
:1070E0000C90002B5DD00C2A5BD9C37833B900F02B
:1070F00057FB044620460DB0BDE8F08F014603A8BB
:10710000FFF7CDFF00284CD007EB08034FF0010B31
:107110004FF00D0A0093F3785FFA8BF5AB4240D342
:10712000B188A1EB0B01490103A8FFF75BFD044601
:10713000002836D0002103A8FFF735FD034680B3B1
:10714000C27A0F2A2DD1027802F01F02AA4228D15A
:107150000BF1FF350AFB05F57A190021184601915C
:10716000FFF77AFF68B1A84512D9019901317F284C
:10717000C9B228BF3F200D2902F8010B05F1010516
:10718000ECD1A84504D91A78520648BF07F80590F3
:10719000009A02F8019C1B785B060BF1010BBAD533
:1071A000A8E700243C70A5E72DE9F047064610F853
:1071B000013B202BFAD06A4D8E600024335DC3B1B1
:1071C0002F2B16D05C2B02D10020BDE8F087A3F155
:1071D0002200C0B21D2803D825FA00F0C007F3D45E
:1071E00003F0BF003C28EFD0203B5E2BECD80134ED
:1071F000E4E733191846074610F8015B202DFAD052
:107200002F2DF8D017604CB113F8012D2E2A01D084
:10721000202A01D1013CF6E7FF2CD5DC4FF02033CA
:10722000C1F811304C60C1F80D304B614FF00008CF
:1072300016F808302E2B01D0202B02D108F10108BE
:10724000F6E7B8FA88F04009651E6B1C02D0735D42
:107250002E2B14D14FF0000907274A46CA464FF09B
:10726000080EA04568DA16F80830202B03D02E2B24
:1072700007D1A84512D0002008F10108F1E7013D2F
:10728000E3E7222B08D07C2B06D0A3F12A0CBCF11B
:10729000050F0AD82D2B12D0A8455BD10A2F4AD052
:1072A0000A2708224FF0100EE6E7A3F13A0CBCF1D2
:1072B000050FF1D9A3F15B0CBCF1020FECD9A3F1DE
:1072C000210CBCF15D0FE7D8A845E7D0BA4230D811
:1072D000A3F1610CBCF1190F1AD8203B4EEA090941
:1072E000DBB25FFA89F902F1010C5FFA8CFC0A4407
:1072F000BCF1060F537301D881F80CC06246BBE79E
:10730000A84518DCA8460A2708224FF0100EB2E75D
:10731000A3F1410CBCF1190F98BF4EEA0A0AE2E74B
:107320000B7B0120087019447E234B7331238B7330
:107330004BE70A2FE4D100204B7B202B3FF444AFD6
:107340000028EDD01AEA090F18BF4FF0020981F8A2
:1073500000903AE7BA42ECD800205F23C3E700BFB1
:10736000010100312DE9F84391F80C9006460C46D6
:1073700002257E2701F10D086168A2686B189BB297
:107380001144914206D012F8010B03EB4313434022
:107390009BB2F6E7B9F1030F28BF4FF0030909F1DB
:1073A0000402D2B203F00F01A018013A0929D2B2A7
:1073B00094BF30313731914541734FEA1313F1D106
:1073C00004EB090300215F733046FFF70BFC01213A
:1073D0003046FFF7E8FB014628B97078B0FA80F034
:1073E0004009BDE8F88303786BB1C37A1B07EED47C
:1073F0000B2240460CF0A8FF0028E8D10135ADB2C1
:10740000642DB9D1EDE70120EBE700002DE9F04F45
:107410002DED028B8BB00D4606930B78079013F081
:10742000700F174605D100200BB0BDEC028BBDE8F4
:10743000F08F079B1B78002BF5D1536805931378C9
:107440009C071FBF059B0C330D22B3FBF2F31ABF41
:107450000133DBB20123002128460393FFF7C2FB6F
:1074600007F10D034FF0000B08EE103ADA465C46C8
:107470005E46CDF810B0D9466B6901212846C3F3AA
:107480004F18FFF790FB0346002871D16B78002B53
:10749000C9D1069B9A05C6D503F00303013B012B16
:1074A000C1D8049B002C08BF43460493039B9C4215
:1074B000C0F0F180B9F1000F40F00A81049B28462A
:1074C0005901FFF78FFB0028ADD0039B03F1FF3973
:1074D0005FFA89F94E464FF0000A4FF00F08002E70
:1074E00000F00D8100212846FFF75DFB04460028CF
:1074F00099D0AA6892F824304E4543F001030CBF9E
:1075000046F0400BB34682F8243080F800B080F893
:107510000B8080F80CA007F10D00FFF7B1FD84F897
:107520001AA0607384F81BA00BF01F030D22013B0F
:10753000D7F808C0534300220599994240F2D08001
:107540001CF80310042A5FFA82FE02F1010000F227
:10755000CD8004EB4202A2F801100D2803F10103D3
:107560000246E9D1013EF6B2B9E74FF0010983E7DF
:107570000278E52A00D07AB90499002C08BF414668
:10758000049103998C423CBF0134E4B2002A80D0BC
:10759000E52A05D100266FE703998C4238BF002405
:1075A0002E2AF7D0D97A0F294AD116BB12F04006FD
:1075B0003FF462AF02F01F0693F80DB0B2460D2201
:1075C0000AF1FF3802FB08F8059A4245E2D9A2EB1E
:1075D00008020892002202EB080109911846D1B274
:1075E000FFF73AFD08998A420DD1002818BF0026FE
:1075F00042E70AF1FF3A5FFA8AFA5245CAD15A7B4A
:107600005A45DCD0C6E7FF28C4D85FFA80FEAEF149
:1076100041011929B9689CBF0EF120005FFA80FE74
:1076200008460999415CA1F1410CBCF1190F9CBFBE
:107630002031C9B27145ADD101320D2ACBD11BE742
:107640000807A7D45EB1BAF1010F7FF4ECAE18467B
:10765000FFF716FD58457FF4E6AEB1460EE018EE92
:10766000101A0B2218460CF06FFE00287FF404AFAE
:1076700097F8009019F001097FF477AF069B190580
:107680003FF5D1AE069B0798CDF8009042462946BB
:10769000FFF7EBFAC8E600212846FFF784FAA0B905
:1076A0006B78002B7FF4BFAE2846FFF73DF900282A
:1076B0003FF4B9AEAB681B79012B3FF6FBAE039BE1
:1076C0001034E4B2A342EFD8F4E60134E4B2EDE6BC
:1076D00039462846FFF746FE00287FF4EFAEA2E6C3
:1076E00014BF4FF0FF31002189B22BE7BEF10A0F22
:1076F00094BF04EB420204EB400291802DE7314637
:107700002846D5F81480FFF74EFA044600283FF4C7
:107710008AAE202231460CF04FFED7F80D302360A0
:10772000D7F811306360B7F815302381FB7DA37261
:107730003B7803F0180323730F4B1B689BB104F1D4
:107740000E0104F110009847238A63822383E389A2
:10775000E382AA6892F8243043F00103C8F34F187B
:1077600082F824308EE721232374282363740823AE
:10777000A673E373E8E700BF0CE6032013B50446E5
:10778000084659B101910CF0A2FE23680199DB680B
:107790000246204602B0BDE81040184702B010BDB6
:1077A00010B50C46017809B9002010BD11F0600138
:1077B00005D02F232370002363700120F5E7FFF726
:1077C000F1F80028F0D02146FFF7FBF8F5E737B5D0
:1077D0000378DA07044620D54368816800F10C027B
:1077E0001868019200F087FB019A054618B9002538
:1077F000284603B030BD23789B0704D4237823F0B8
:1078000001032370F4E7D4E90130196901441868D1
:1078100000F071FB0028F1D1E9E70125E8E770B538
:1078200083688B4204460E46154609D0FFF7CFFF0A
:1078300008B9002070BD6B070AD500232370A6602D
:10784000227805F003052046154300F80C5BF1E7AC
:10785000636804F10C021868314600F0C3FA00288E
:10786000EBD1E6E7837940690239994008447047D3
:10787000012970B505460C46164602D84FF0FF3078
:1078800070BDC3698B42F9D3C379202B16D18169AE
:10789000022201EBD41100F50C70FFF7C0FF0028A5
:1078A000ECD004F07F0450F8243023F07043EA69F0
:1078B0009A4226BF336001200020E1E7102BDDD182
:1078C000C1F3072381690222194400F50C70FFF708
:1078D000A6FF0028D2D0E4B230F81430E7E701293F
:1078E00038B50C46154601D8002038BDC3698B4217
:1078F000FAD3C379202B0FD18169032201EBD41174
:1079000000F50C70FFF78BFF0028EDD004F07F042A
:1079100040F824500120E8E7102BE5D1C1F30723FC
:1079200081690322194400F50C70FFF778FF0028E5
:10793000DAD0E4B220F81450ECE72DE9F341C46842
:107940008C4205460E46904601D3012701E00C46C5
:107950000027EB690134A34202D2C7B9EC68F4E70F
:10796000A64214D001AA21462846FFF781FF00282D
:107970000DDBEED0019B002BEBD107B1EC606FF07B
:10798000704221462846FFF7AAFF074620B9002784
:10799000384602B0BDE8F08116B9C8F80040F7E7F4
:1079A000224631462846FFF79AFF0028F5D1EEE738
:1079B00073B505460C4601AA21462846FFF758FF35
:1079C000061E10DB002221462846FFF788FF50B133
:1079D000EB68A34224BF04F1FF34EC60019C002E4D
:1079E000E9D102B070BD0020FBE7012370B5002291
:1079F000C3604FF0FF330446C27100F12406806279
:107A000080F82420C362C0F8340280F83022C0F825
:107A100038320D46B9B1042901D9002070BD114694
:107A20003046FFF7FCFE0028F7D000EB051393F873
:107A3000AE315B06F1D105F11B0100EB0110D0F86E
:107A40000650002DE9D0002229463046FFF7E7FE18
:107A50000028E2D0B0F80B30B3F5007FDDD1037C15
:107A6000022BDAD1C389002BD7D0417B21714B1E69
:107A700063710023A37109260123994207D0013EB7
:107A8000CBD0A2795B000132DBB2A271F5E7C18AEB
:107A900001B9416A2161C3892B44A361B0F8112067
:107AA000228103EB41032362B0F81110490101F276
:107AB000FF1103EB51236361B0F8132002B9026A8E
:107AC000E91AA3791144D9404B1CE36140F6F473E1
:107AD000994202D80C23E3719FE74FF6F473994261
:107AE00085BFC36A236210232023E371012095E739
:107AF00000F0CABA00F0ADBA70B50E4E0D4614468D
:107B000005F0F8FF3368C01A0B4B984208D905F00E
:107B1000F9FF0A4B186006F043FA05F0EBFF3060FE
:107B200005F0F0FF80B2401BA042D4BF002001202E
:107B300070BD00BF14E60320A086010028E70320E3
:107B400038B5057A04464DB9406800F06BFA6368B1
:107B50002946187D0AF059F90123237238BD10B562
:107B6000037A04466BB143680121187D0AF04DF990
:107B70006068FF21FFF7BCFF606800F067FA002330
:107B8000237210BDF8B504460D46164605F0BAFF3F
:107B900087B26068FFF7AEFFFF2860720ED14FF426
:107BA0007A7239462046FFF7A7FF0028F1D0552307
:107BB00020462370FFF7D3FF0020F8BDFE2801D038
:107BC0005023F5E760683246294600F047FA6072B4
:107BD00008B16023ECE76068FFF78CFF6068FFF78F
:107BE00089FF0120E9E770B504460E4605F08AFFDB
:107BF00085B2324629462046FFF77EFF30B96068DD
:107C0000FFF778FFFF28F4D1012070BD0020FCE7CA
:107C1000F7B5037A019204460D460BB9FFF790FFC2
:107C200025B14FF496712046FFF7DDFF606845F0FF
:107C30004001FFF75DFF032601AFB95D6068FFF704
:107C400057FF013EF9D2002D60680CBF95218721B6
:107C5000FFF74EFF6068FFF74DFF0B256068FFF7E9
:107C600049FF0306607203D5013D15F0FF05F5D10C
:107C700003B0F0BD70B504460D461646372100220C
:107C8000FFF7C6FF324629462046BDE87040FFF7A1
:107C9000BFBF00002DE9F041002505720570857217
:107CA0004160044690461E4605F02CFF41460746BB
:107CB000606800F0BBF96368494A1D720125DA600B
:107CC0001D822046FFF73CFF63682946187D0AF0B5
:107CD0009CF80A256068FF21013DFFF709FF15F0B8
:107CE000FF05F7D163682946187D0AF08EF80A254A
:107CF000002211462046FFF78BFF0128804618D04E
:107D0000013D15F0FF0507D1202320462370FFF722
:107D100026FF0020BDE8F0816068FD21FFF7E8FE46
:107D20004FF402786068FFF7E5FEB8F10108F9D179
:107D3000DEE74FF4D57208212046FFF769FF0528DA
:107D400014D184F80A800025BFB22A462921204692
:107D5000FFF790FF0246D8B14FF4FA623946204649
:107D6000FFF7CAFE0028F0D04323CEE70425606861
:107D7000FFF7C0FE013D15F0FF056072F7D1AA289C
:107D800004D10223A3724FF08045DDE72523BCE731
:107D9000A37A022B18D13A212046FFF739FF08B108
:107DA0003723B2E76068FFF7A5FE00F0C000C028E7
:107DB00004BF0323A3726068FFF79CFE6068FFF7AF
:107DC00099FE6068FFF796FE2046FFF7C8FE6368DD
:107DD0003079B168B2891A821872D960012099E7A6
:107DE00090D0030038B5837A032B18BF490215469B
:107DF0000A4611210446FFF70BFF30B130232370F0
:107E00002046FFF7ACFE00250BE029464FF4007238
:107E10002046FFF7B7FE05460028F1D02046FFF7C1
:107E20009EFE284638BD10B5837A032B0A4618BF3C
:107E30004A0212210446FFF7EBFE30B131232046FF
:107E40002370FFF78CFE002010BD0120FCE710B569
:107E500000220C210446FFF7DBFE30B12823204628
:107E60002370FFF77CFE002010BD2046FFF777FE51
:107E70000120F9E7F8B5044616461F46FFF7D3FF81
:107E800068B10025ABB29F4206EB452109D94FF4FA
:107E900000722046FFF776FE01350028F2D100205F
:107EA000F8BD2046BDE8F840FFF7D1BF38B504461D
:107EB00015464068FFF71CFE4FF4007260682946C3
:107EC00000F0E6F86068FF21FFF712FE6068FF210E
:107ED000FFF70EFE6068FFF70DFE607200F01F00F6
:107EE000052806D0572320462370FFF738FE0020D0
:107EF00038BD0120FCE770B5837A032B18BF490217
:107F000015460A4618210446FFF782FE064630B1A0
:107F1000322323702046FFF722FE00251FE02A4669
:107F2000FE212046FFF7C2FF0028F3D04FF4FA618C
:107F30002046FFF758FE054608B95A23E9E73246BE
:107F40000D212046FFF764FE08B12923E1E76068B0
:107F5000FFF7D0FD0028F8D12046FFF700FE2846A5
:107F600070BD13B501914FF4FA610446FFF73BFE73
:107F7000019A30B95B2323702046FFF7F0FD002003
:107F800005E0FC212046FFF791FF0028F4D002B065
:107F900010BD10B5837A032B0A4618BF4A02192177
:107FA0000446FFF735FE30B1332320462370FFF738
:107FB000D6FD002010BD0120FCE738B54FF4FA6172
:107FC0000446FFF710FE054630B9562323702046BD
:107FD000FFF7C5FD284638BD6068FD21FFF788FD25
:107FE000F5E7F8B5044616461F46FFF7D2FF70B115
:107FF0000025BD4206EB4521204604D0FFF7B1FF26
:1080000028B10135F5E7BDE8F840FFF7D6BF2046B7
:10801000FFF7A5FD0020F8BD014B01221A70704743
:1080200018E60320011D006809F04CBA10B504469B
:108030000175006809F001FA207D012109F0D4FEE4
:10804000207D0121BDE8104009F0DFBE006809F085
:108050001FBA0068FF2109F0D5BA000037B51346F2
:10806000074A00920025074C006825700A462946F9
:1080700009F0CEFA2378002BFCD0002003B030BDED
:1080800019800B0018E60320006809F0BBBA000055
:1080900037B51346064A00920025064C0068257045
:1080A0002A4609F0B5FA2378002BFCD003B030BD86
:1080B00019800B0018E603207047704738B50C464E
:1080C00005462022002104F108000CF075F9094949
:1080D0000B2220460CF02AFA0123E3606B6A23612D
:1080E00002236361044BE361044BA361044B2362ED
:1080F00038BD00BFE46C0C000000C8C40000C844D8
:108100008FC2753C10B528210446FBF7CAFF2046F4
:1081100010BD0000034A02600022C0E90722027677
:10812000704700BF046D0C0030B501238DB00022F4
:10813000CDE9022306252822CDE900250446D0E911
:10814000071206A805F01AF92A4604A906A805F0A0
:1081500093F9257EBDF91010BDF91220BDF9143038
:10816000E180032D98BF1248228107EE101A9CBFB0
:1081700000EB8500D0ED007A6381B8EEC77A88BF46
:10818000F7EE007AC7EE276A07EE102AB8EEC77A34
:10819000C4ED036AC7EE276A07EE103AB8EEC77A55
:1081A000C4ED046AC7EE276AC4ED056A0DB030BDA0
:1081B000EC6C0C0038B50C46054620220021201D31
:1081C0000CF0FAF8242323606B6A63600223A36037
:1081D00005F098FC20612846FFF7A6FFD5ED037A4D
:1081E0009FED097A67EE877A0120C4ED057AD5ED17
:1081F000047A67EE877AC4ED067AD5ED057A67EEE4
:10820000877AC4ED077A38BD0000C842F0B5012571
:1082100095B00027CDE902752023009301950E4605
:108220000446D0E907122B4608A805F0A7F8052355
:10823000022208A904A805F07DF9314604A805F03A
:108240008BF92323D4E907120093CDE902752B465D
:1082500001950EA805F092F802231A460EA906A869
:1082600005F068F9314606A805F076F915B0F0BDBD
:1082700070B501298CB006460C4603D10321FFF7E7
:10828000C5FF09E0032903D0052903D10121F6E741
:108290000221F4E707291BD00A2005F085FF0125FC
:1082A0000023CDE902352023D6E90712009301957A
:1082B0002B4606A805F062F82B46042206A904A85E
:1082C00005F038F9214604A805F046F90CB070BD58
:1082D0000021D4E730B501238DB00025CDE902534C
:1082E0002222019300920C46D0E9071206A805F05D
:1082F00045F82B46022206A904A805F01BF92146E1
:1083000004A805F029F90DB030BD30B501238DB0BA
:108310000022CDE902232122019300920D4604465A
:10832000D0E9071206A805F029F80523022206A9BC
:1083300004A805F0FFF8294604A805F00DF92576F4
:108340000DB030BD10B501238CB00022CDE9022361
:10835000212201930092D0E90712044606A805F0F5
:108360000DF80523022206A904A805F0E3F804A8E5
:1083700005F0E5F8C0B220760CB010BD30B5002392
:108380008DB00125CDE90235212300930195D0E977
:10839000071204462B4606A804F0F0FF02232A46E3
:1083A00006A904A805F0C6F8294604A805F0D4F8E3
:1083B0000A2005F0F9FE2046FFF7C4FF0DB030BDDE
:1083C00070B501268AB00025CDE902560F2300932F
:1083D0000196D0E907123346044604A804F0CEFF04
:1083E00004A805F08BF83D2815D12046FFF7C6FFFD
:1083F00003212046FFF70AFF31462046FFF738FFEA
:1084000029462046FFF781FF20462946FFF762FFF5
:1084100030460AB070BD2846FBE737B5C36904464D
:108420005BB91020CDE90012FBF735FE054618B107
:10843000DDE9001205F0A9F8E5610023E069236297
:10844000012105F0BEF828B1204603B0BDE8304058
:10845000FFF7B6BF03B030BD30B501238BB00C467B
:10846000002532220221CDE90253CDE90021D0E9D5
:10847000071204A804F082FF2A46C4F30E0104A8E0
:1084800004F0DCFF0BB030BD30B58BB000259DF89B
:108490003C40640044EAC1119DF8384041EA84013F
:1084A00041EA431343EA82129DF84040012342F01F
:1084B0000802CDE90253D2B2144330220193009254
:1084C000D0E9071204A804F059FF2A46214604A85F
:1084D00004F0B4FF0BB030BD10B54218405C937887
:1084E00054781B0443EA04230343D07843EA006032
:1084F00010BD4318405C5A7840EA0220704710B41F
:108500002AB902685DF8044B9268C9B210475DF859
:10851000044BD2B208F0B3BE12B903689B68184787
:10852000D2B208F0ACBE10B50446FFF7F5FF204606
:10853000BDE8104008F08BBE0368C9B29B681847BD
:108540004FF4005202804221002210B5C0E90122FE
:10855000C0E90322C0E90522C0E90722C0E90922D7
:10856000C0E90B22C0E90D22C0E90F22C0E91122A7
:10857000C0E91322C0E91522C0E91722C0E9192277
:10858000C0E91B22C0E91D22C0E91F22C0F8E81083
:10859000802180F8091100F1F401C0F81411254977
:1085A000C0F8C42000F1F604C0E94612C0E9212257
:1085B000C0E92322C0E92522C0E92722C0E92922F7
:1085C000C0E92B22C0E92D22C0E92F22C0E93E22BA
:1085D000C0E94022C0E94322C0F8D020C0F8D8202A
:1085E00080F80821C0F82021C0E94941C0E94D21A7
:1085F000C0E951211049C0F84C1140F66411A0F8AF
:108600005011582180F85D110121C0E94B22C0E9C9
:108610004F22C0F8542180F86421C0F86821A0F8E6
:108620006C21C0F8EC20C0F8F010A0F87221A0F87E
:10863000742110BD0000020200026464F8B5044613
:108640000D46D0F8FC00A9B9A8B1FBF728FD94F8B5
:10865000E930C4F8FC50C4F83451C4F8F85013B9E8
:1086600094F8EA3023B12049D4F8D40008F005FE8C
:10867000012011E0B8B92846FBF70FFDC4F8FC0053
:10868000C4F8340160BB94F8E930C4F8F80023B9A9
:1086900094F8EA300BB90020F8BD1449D4F8D4009E
:1086A00008F0EBFDF7E70846FBF7F7FC064640B994
:1086B00094F8E9301BB994F8EA30002BEBD00C4960
:1086C000ECE7D4E93E27AA4228BF2A4639460BF0F8
:1086D0004BFE3846FBF7E3FCC4F8FC60C4F8346199
:1086E000C4F8F850C4E700BF186D0C00436D0C00CF
:1086F0006E6D0C000D2900F0CD8009D8022900F024
:10870000A780062900F0BE80012916D000207047FE
:10871000132900F0D480282900F0DC801029F5D13D
:10872000102A00F0C98000F2BA80022A00F0C1804D
:10873000032AEBD1D0F8880066E0262A54D8002A14
:10874000E4D0013A252AE1D801A353F822F000BF72
:1087500007880B000D870B0011880B0015880B0094
:1087600019880B000D870B001D880B000D870B006F
:1087700021880B000D870B000D870B000D870B0068
:108780000D870B000D870B000D870B000D870B006D
:1087900025880B0029880B002D880B0031880B00E1
:1087A0000D870B000D870B0035880B000D870B0024
:1087B0000D870B000D870B000D870B000D870B003D
:1087C0000D870B000D870B000D870B000D870B002D
:1087D00039880B003D880B000D870B000D870B00BF
:1087E0000D870B0041880B003C2A2DD005D8352A77
:1087F00028D03B2A8AD1806C06E0602A26D0612AE4
:1088000084D1806900E0C068003818BF012070473B
:108810000069F9E74069F7E7C069F5E7006AF3E73F
:10882000406AF1E7C06AEFE7006BEDE7406BEBE70A
:10883000806BE9E7C06BE7E7806AE5E7006CE3E798
:10884000406CE1E7C06CDFE7006DDDE7406DDBE722
:10885000342A15D006D8132A0BD0152A7FF456AF28
:10886000C06ED1E7722A06D0732A7FF44FAF006E34
:10887000CAE7806EC8E7836D002B3BD1C06DC3E7AC
:10888000406EC1E722B1082A7FF440AF406FBBE7DA
:10889000006FB9E7032A7FF439AF806FB4E7142A79
:1088A00005D0152A7FF432AFD0F88000ACE7C06F56
:1088B000AAE7D0F88400A7E7D0F88C00A4E7602AE4
:1088C00005D0802A7FF422AFD0F8A0009CE7D0F832
:1088D0009C0099E7012A07D0022A08D0002A7FF4D9
:1088E00015AFD0F890008FE7D0F894008CE7D0F85F
:1088F000980089E7012070470D2935D007D8022953
:1089000019D006292AD001290DD00020704713293B
:108910002FD0282934D01029F7D1023AD2B2132A05
:10892000F3D81F4B04E0013AD2B2602AEDD81D4BB8
:1089300033F812007047342A27D007D8132A26D0DC
:10894000152A14BF00204FF439607047722A20D0D6
:10895000732A14BF00204FF484707047E2B1082AD4
:1089600014BF002006207047032A14BF00201C20DB
:108970007047602A12D0802A14BF0020A4207047BC
:10898000022AC2D8084B985C70470C2070474820D8
:1089900070474FF4047070471420704708207047E8
:1089A0002E7A0C006C790C00567A0C0010B590F8F9
:1089B000EC10CA0715D4D0F86021594B22F0FF0201
:1089C0009A4201D18B070CD490F86131472B74D1B6
:1089D000B0F8623145F24114A34204D111F0040F02
:1089E0006BD0012070E045F24214A34202D111F095
:1089F000080FF5E745F24234A34202D111F0100FFF
:108A0000EEE744F24714A34202D111F0200FE7E74A
:108A100044F64C44A34202D111F0400FE0E745F286
:108A20004C14A34202D111F0800FD9E745F24E1148
:108A30008B4204D190F8ED3013F0010FD0E745F2EE
:108A40004E318B4204D190F8ED3013F0020FC7E79E
:108A500045F250118B4204D190F8ED3013F0040F21
:108A6000BEE745F251118B4204D190F8ED3013F07E
:108A7000080FB5E745F252318B4204D190F8ED3042
:108A800013F0100FACE744F253118B4204D190F86D
:108A9000ED3013F0200FA3E745F253418B4204D190
:108AA00090F8ED3013F0400F9AE745F253618B4296
:108AB00003D190F9ED30002B93DB1A4B9A4204D18D
:108AC00090F8EE0000F0010010BD174B9A4204D15F
:108AD00090F8EE00C0F34000F6E7144B9A4204D140
:108AE00090F8EE00C0F38000EEE7114B9A4204D1FB
:108AF00090F8EE00C0F3C000E6E70E4B9A4204D1B6
:108B000090F8EE00C0F30010DEE70B4B9A4204D160
:108B100090F8EE00C0F34010D6E70020D4E700BF85
:108B20000044544D00524C4D00524D430054585493
:108B300000564C5700565447005A444190F85E3155
:108B40002A2B57D190F85F31472B53D1D0F86031A1
:108B5000294A23F0FF03934211D090F86121472A5C
:108B60001AD1B0F86221A2F5A241413989B2102987
:108B700007D922F0100145F24230814229D101206B
:108B800070471E4820FA01F1C907F8D422F4007298
:108B900045F253418A42F2D0194A9342EFD002F192
:108BA000764202F580329342E9D0164A9342E6D0EB
:108BB00002F1022202F574029342E0D002F1704207
:108BC00002F500229342DAD00F481B1A584258414E
:108BD000704744F247118A42D1D044F64C418A4250
:108BE000CDD045F24E318A42C9D044F253118A4267
:108BF000C5D0CBE7002070470044544D03A80100C6
:108C000000524C4D00545854005A444110B590F84D
:108C1000F010CA0715D4D0F86021594B22F0FF029A
:108C20009A4201D18B070CD490F86131472B74D153
:108C3000B0F8623145F24114A34204D111F0040F9F
:108C40006BD0012070E045F24214A34202D111F032
:108C5000080FF5E745F24234A34202D111F0100F9C
:108C6000EEE744F24714A34202D111F0200FE7E7E8
:108C700044F64C44A34202D111F0400FE0E745F224
:108C80004C14A34202D111F0800FD9E745F24E11E6
:108C90008B4204D190F8F13013F0010FD0E745F288
:108CA0004E318B4204D190F8F13013F0020FC7E738
:108CB00045F250118B4204D190F8F13013F0040FBB
:108CC000BEE745F251118B4204D190F8F13013F018
:108CD000080FB5E745F252318B4204D190F8F130DC
:108CE00013F0100FACE744F253118B4204D190F80B
:108CF000F13013F0200FA3E745F253418B4204D12A
:108D000090F8F13013F0400F9AE745F253618B422F
:108D100003D190F9F130002B93DB1A4B9A4204D126
:108D200090F8F20000F0010010BD174B9A4204D1F8
:108D300090F8F200C0F34000F6E7144B9A4204D1D9
:108D400090F8F200C0F38000EEE7114B9A4204D194
:108D500090F8F200C0F3C000E6E70E4B9A4204D14F
:108D600090F8F200C0F30010DEE70B4B9A4204D1FA
:108D700090F8F200C0F34010D6E70020D4E700BF1F
:108D80000044544D00524C4D00524D430054585431
:108D900000564C5700565447005A4441D0F8D00072
:108DA00010B103689B6818477047000037B53D4B0A
:108DB000044604F25F15186800909B88ADF80430F3
:108DC0000522294668460BF0BFFA28B9D4F8A4302A
:108DD00013B1012003B030BD334968460BF052FB9C
:108DE0000522294668460BF0AFFA18B9D4F8A83026
:108DF000002BEED12D4968460BF044FB0522294695
:108E000068460BF0A1FA18B9D4F8AC30002BE0D1C9
:108E1000274968460BF036FB0522294668460BF0C9
:108E200093FA18B9D4F8B030002BD2D12149684652
:108E30000BF028FB0522294668460BF085FA18B985
:108E4000D4F8B430002BC4D11B4968460BF01AFB90
:108E50000522294668460BF077FA18B9D4F8B830DD
:108E6000002BB6D1154968460BF00CFB05222946AC
:108E700068460BF069FA18B9D4F8BC30002BA8D1B9
:108E80000F4968460BF0FEFA0522294668460BF0AA
:108E90005BFA28B9D4F8C000003818BF012099E760
:108EA000002097E7C46D0C009A6D0C00A06D0C00BB
:108EB000A66D0C00AC6D0C00B26D0C00B86D0C0012
:108EC000BE6D0C0037B5624B044604F25F1518689E
:108ED00000909B88ADF804300522294668460BF0C7
:108EE00033FA78B9D4F8A43063B1D3F8D4204AB1B6
:108EF000D3F8CC20002A40F0A380D3F8D030002B48
:108F000040F09E80534968460BF0BCFA0522294682
:108F100068460BF019FA78B9D4F8A83063B1D3F8E1
:108F2000D4204AB1D3F8CC20002A40F08980D3F86D
:108F3000D030002B40F08480474968460BF0A2FAFD
:108F40000522294668460BF0FFF968B9D4F8AC3021
:108F500053B1D3F8D4203AB1D3F8CC20002A6FD142
:108F6000D3F8D030002B6BD13C4968460BF08AFA1D
:108F70000522294668460BF0E7F968B9D4F8B03005
:108F800053B1D3F8D4203AB1D3F8CC20002A57D12A
:108F9000D3F8D030002B53D1314968460BF072FA28
:108FA0000522294668460BF0CFF968B9D4F8B430E9
:108FB00053B1D3F8D4203AB1D3F8CC20002A3FD112
:108FC000D3F8D030002B3BD1264968460BF05AFA33
:108FD0000522294668460BF0B7F958B9D4F8B830DD
:108FE00043B1D3F8D4202AB1D3F8CC2042BBD3F874
:108FF000D0302BBB1C4968460BF044FA05222946A9
:1090000068460BF0A1F940B9D4F8BC302BB11A6F07
:109010001AB19A6EA2B9DB6E93B9144968460BF087
:1090200031FA0522294668460BF08EF958B9D4F872
:10903000C03053B1186F20B19A6E0AB9D86E00B122
:10904000012003B030BD0020FBE71846F9E700BF60
:10905000C46D0C009A6D0C00A06D0C00A66D0C0088
:10906000AC6D0C00B26D0C00B86D0C00BE6D0C0048
:1090700037B5384B044604F25F15186800909B889A
:10908000ADF804300522294668460BF05DF920B999
:10909000D4F8A400013003B030BD2F4968460BF06E
:1090A000F1F90522294668460BF04EF910B9D4F8BB
:1090B000A800EFE7294968460BF0E4F905222946A4
:1090C00068460BF041F910B9D4F8AC00E2E7244946
:1090D00068460BF0D7F90522294668460BF034F9AB
:1090E00010B9D4F8B000D5E71E4968460BF0CAF9AC
:1090F0000522294668460BF027F910B9D4F8B400C8
:10910000C8E7194968460BF0BDF9052229466846AB
:109110000BF01AF910B9D4F8B800BBE71349684648
:109120000BF0B0F90522294668460BF00DF910B98D
:10913000D4F8BC00AEE70E4968460BF0A3F905224F
:10914000294668460BF000F910B9D4F8C000A1E731
:109150000020A0E7C46D0C009A6D0C00A06D0C00FF
:10916000A66D0C00AC6D0C00B26D0C00B86D0C005F
:10917000BE6D0C0037B5384B044604F25F15186815
:1091800000909B88ADF804300522294668460BF014
:10919000DBF820B9D4F8A400023003B030BD2F4969
:1091A00068460BF06FF90522294668460BF0CCF8AB
:1091B00010B9D4F8A800EFE7294968460BF062F926
:1091C0000522294668460BF0BFF810B9D4F8AC0068
:1091D000E2E7244968460BF055F90522294668461E
:1091E0000BF0B2F810B9D4F8B000D5E71E496846C4
:1091F0000BF048F90522294668460BF0A5F810B98E
:10920000D4F8B400C8E7194968460BF03BF90522C9
:10921000294668460BF098F810B9D4F8B800BBE7B7
:10922000134968460BF02EF90522294668460BF0D3
:109230008BF810B9D4F8BC00AEE70E4968460BF0C5
:1092400021F90522294668460BF07EF810B9D4F8BA
:10925000C000A1E70020A0E7C46D0C009A6D0C00CF
:10926000A06D0C00A66D0C00AC6D0C00B26D0C0076
:10927000B86D0C00BE6D0C0037B5394B044604F2D6
:109280005F15186800909B88ADF8043005222946C8
:1092900068460BF059F820B9D4F8A400663003B042
:1092A00030BD304968460BF0EDF805222946684686
:1092B0000BF04AF810B9D4F8A800EFE72A4968463D
:1092C0000BF0E0F80522294668460BF03DF810B98E
:1092D000D4F8AC00E2E7254968460BF0D3F8052244
:1092E000294668460BF030F810B9D4F8B000D5E73D
:1092F0001F4968460BF0C6F80522294668460BF060
:1093000023F810B9D4F8B400C8E71A4968460BF03E
:10931000B9F80522294668460BF016F810B9D4F8BA
:10932000B800BBE7144968460BF0ACF805222946A3
:1093300068460BF009F818B9D4F8BC003430AEE731
:109340000E4968460BF09EF80522294668460AF049
:10935000FBFF10B9D4F8C000F0E700209FE700BF82
:10936000C46D0C009A6D0C00A06D0C00A66D0C0075
:10937000AC6D0C00B26D0C00B86D0C00BE6D0C0035
:1093800037B5394B044604F25F15186800909B8886
:10939000ADF804300522294668460AF0D5FF20B909
:1093A000D4F8A400673003B030BD304968460BF0F4
:1093B00069F80522294668460AF0C6FF10B9D4F8B4
:1093C000A800EFE72A4968460BF05CF80522294619
:1093D00068460AF0B9FF10B9D4F8AC00E2E72549B5
:1093E00068460BF04FF80522294668460AF0ACFFA4
:1093F00010B9D4F8B000D5E71F4968460BF042F821
:109400000522294668460AF09FFF10B9D4F8B40037
:10941000C8E71A4968460BF035F805222946684620
:109420000AF092FF10B9D4F8B800BBE714496846B7
:109430000BF028F80522294668460AF085FF18B97E
:10944000D4F8BC003530AEE70E4968460BF01AF888
:109450000522294668460AF077FF10B9D4F8C00003
:10946000F0E700209FE700BFC46D0C009A6D0C0070
:10947000A06D0C00A66D0C00AC6D0C00B26D0C0064
:10948000B86D0C00BE6D0C0037B5394B044604F2C4
:109490005F15186800909B88ADF8043005222946B6
:1094A00068460AF051FF28B9D4F8A430D3F8D400A4
:1094B00003B030BD2F4968460AF0E4FF0522294673
:1094C00068460AF041FF10B9D4F8A830EEE72A49FF
:1094D00068460AF0D7FF0522294668460AF034FF9D
:1094E00010B9D4F8AC30E1E7244968460AF0CAFF65
:1094F0000522294668460AF027FF10B9D4F8B03093
:10950000D4E71F4968460AF0BDFF05222946684690
:109510000AF01AFF10B9D4F8B430C7E71949684601
:109520000AF0B0FF0522294668460AF00DFF10B97F
:10953000D4F8B830BAE7144968460AF0A3FF052208
:10954000294668460AF000FF18B9D4F8BC30186FF5
:10955000AEE70E4968460AF095FF0522294668469F
:109560000AF0F2FE10B9D4F8C030F0E700209FE70F
:10957000C46D0C009A6D0C00A06D0C00A66D0C0063
:10958000AC6D0C00B26D0C00B86D0C00BE6D0C0023
:1095900037B53A4B044604F25F15186800909B8873
:1095A000ADF804300522294668460AF0CDFE30B9F0
:1095B000D4F8A430D3F8D400013003B030BD304922
:1095C00068460AF05FFF0522294668460AF0BCFE9D
:1095D00010B9D4F8A830EDE72A4968460AF052FFDE
:1095E0000522294668460AF0AFFE10B9D4F8AC301F
:1095F000E0E7254968460AF045FF05222946684606
:109600000AF0A2FE10B9D4F8B030D3E71F4968467B
:109610000AF038FF0522294668460AF095FE10B97F
:10962000D4F8B430C6E71A4968460AF02BFF052281
:10963000294668460AF088FE10B9D4F8B830B9E770
:10964000144968460AF01EFF0522294668460AF0BA
:109650007BFE18B9D4F8BC30186FADE70E496846E8
:109660000AF010FF0522294668460AF06DFE10B97F
:10967000D4F8C030F0E700209FE700BFC46D0C00B5
:109680009A6D0C00A06D0C00A66D0C00AC6D0C006A
:10969000B26D0C00B86D0C00BE6D0C0013B5304BF4
:1096A000044604F25F14186800909B88ADF80430FB
:1096B0000522214668460AF047FE10B9642002B030
:1096C00010BD284968460AF0DDFE0522214668469D
:1096D0000AF03AFE0028F1D0234968460AF0D2FE8B
:1096E0000522214668460AF02FFE0028E6D01F49D1
:1096F00068460AF0C7FE0522214668460AF024FEA5
:109700000028DBD01A4968460AF0BCFE0522214633
:1097100068460AF019FE0028D0D0164968460AF0BB
:10972000B1FE0522214668460AF00EFE0028C5D08B
:10973000114968460AF0A6FE0522214668460AF04D
:1097400003FE48B10D4968460AF09CFE05222146F9
:1097500068460AF0F9FD08B93220B0E70020AEE70C
:10976000C46D0C009A6D0C00A06D0C00A66D0C0071
:10977000AC6D0C00B26D0C00B86D0C00BE6D0C0031
:1097800037B5384B044604F25F15186800909B8883
:10979000ADF804300522294668460AF0D5FD18B90F
:1097A000D4F8A40003B030BD2F4968460AF06AFE21
:1097B0000522294668460AF0C7FD10B9D4F8A8006A
:1097C000F0E72A4968460AF05DFE05222946684608
:1097D0000AF0BAFD10B9D4F8AC00E3E724496846B2
:1097E0000AF050FE0522294668460AF0ADFD10B980
:1097F000D4F8B000D6E71F4968460AF043FE0522B8
:10980000294668460AF0A0FD10B9D4F8B400C9E7AB
:10981000194968460AF036FE0522294668460AF0CC
:1098200093FD10B9D4F8B800BCE7144968460AF0B3
:1098300029FE0522294668460AF086FD10B9D4F8AB
:10984000BC00AFE70E4968460AF01CFE0522294617
:1098500068460AF079FD10B9D4F8C000A2E70020EC
:10986000A0E700BFC46D0C009A6D0C00A06D0C0049
:10987000A66D0C00AC6D0C00B26D0C00B86D0C0048
:10988000BE6D0C007047000038B513880C4D012BDD
:1098900014460ED10A0202F440722A80013323805A
:1098A000FFF7F0FF20882B88984214BF0320002088
:1098B00038BD022BF2D12A880A430632EDE700BFF9
:1098C0001AE6032030B54A780D784C882A4454FAB9
:1098D00082F000EB142355FA82F203F0FF0352FAF0
:1098E00080F20B7313444B73002293B29C420AD94B
:1098F0008B68087B9B5C0344487BDBB20B7303449F
:109900004B730132F1E730BD90F85A31194490F8A9
:109910005B31C9B280F85A11194480F85B11704765
:109920002DE9F74FB1F802B00BF1080B1FFA8BFBD2
:109930004FF00008ABF1020304460D46DA46C1467B
:109940000093BAF1000F00F0A680667894F8E81052
:10995000D4F8C800564528BF5646AAEB060A1FFA97
:109960008AFABAF1010F02BF06F1FF36B6B24FF024
:10997000020A06F09BF9B9F1000F5CD1D4F8C800D7
:109980000368B5219B689847D4F8C8000368622132
:109990009B689847D4F8C800297803689B68984763
:1099A000D4F8C800697803689B689847A978D4F808
:1099B000C800FEF7C1FD6988D4F8C800090AFEF79F
:1099C000BBFD4B466A88D4F8C8001FFA83F909F139
:1099D00006074A45BFB20DD9BE420BD9AA68016835
:1099E000019342448F68D15CB847019B0133E9E79A
:1099F000B946A6E7023EC844B7421FFA88F80CD120
:109A00000368297B9B689847D4F8C800697B036882
:109A10009B68984709F10807BFB25F45E8D294F800
:109A20007411D4F8C80006F048F90028E0D00C20E2
:109A300003B0BDE8F08F002291B219FA82F78E428E
:109A4000D4F8C800BFB210D9B5F802E008EB020C98
:109A5000531CF445019308DAA968026811F80C1048
:109A600092689047019B1A46E6E7009B88449F4214
:109A70001FFA88F8D1D1023EB242CED10368297BC9
:109A80009B689847D4F8C800697B03689B6898472F
:109A90001FFA8BF7C1E7D4F8C80006F012F90028C6
:109AA000C6D0C4E770B50546D0F8CC0003680C46B4
:109AB0009B68B5219847D5F8CC00036862219B6864
:109AC0009847D5F8CC00217803689B689847D5F86B
:109AD000CC00617803689B689847D5F8CC00A178E2
