:02000002B0004C
:1040000000400B00E4550C000000060017000502FC
:084010000401A30F00000000F1
:0440180054360C000E
:1040200009480A49884208B505D0094A824202D0A7
:10403000121A0DF053FA0748074A0021121A0DF020
:1040400075FA014808BD00BFD4DB0320C8530C003B
:10405000C8DD0320C8DD0320EDE7032070B5074E5F
:10406000074C0BF09DFBA41BA4080025AC4200D11B
:1040700070BD56F8043B98470135F7E77C530C00B8
:10408000A0530C0001F08EBA08B501F0B3F9BDE8F9
:1040900008400BF03DBB08F009BD08F007BD08F073
:1040A0000DBD08F00BBD000008B5034A03490C2004
:1040B00008F0F6FBFEE700BFBDC30B0068360C003E
:1040C0000078B0FA80F04009704701230370704710
:1040D00070477047006A0368DB6818477047037CC5
:1040E00013F008031EBFC36A406A1B1A002BACBF43
:1040F00018466FF0004070477047000008B5134B3A
:104100001A78134B1B789B0043EA4203114A12783A
:104110001343114A127843EAC203104A127843EA61
:1041200002130F4A127843EA42130E4A127843EA06
:1041300082130D4A13700D4B01221A700BF0D4FE3E
:10414000BDE808400A490AF0CCB900BF14DE0320DC
:10415000D4DD032004DE0320ECE0032035DF032060
:1041600034DF032029DF0320B4E50320D4E5032056
:104170007D360C0010B510210446FFF792FF204653
:1041800010BD10B534210446FFF78BFF204610BD4B
:10419000103002F007BC07B501228DF8071010306F
:1041A0000DF1070102F0FEFB03B05DF804FB1030D7
:1041B00002F06EBB103002F04FBA07B501220DF1CC
:1041C0000701103002F09AF901280CBF9DF8070092
:1041D0004FF0FF3003B05DF804FB436913B183690E
:1041E0000C301847704713B500210446084608F004
:1041F00097F90023204601A9019308F0A9F9019C31
:104200000CB1012323710021012008F089F92CB1A0
:10421000236820469B6898470023237102B010BD95
:10422000012A02D1016000207047022A04BF0B68F6
:104230000360F8E7036818470368C9B29B6818472A
:1042400010B5054B00220446114640F8043B08F027
:1042500047FB204610BD00BFD03B0C0010B5044604
:10426000FFF7EEFF20462021FFF71BFF204610BD81
:104270000A4B10B5044603600AF030FB21460AF0F1
:1042800068FD0BF031FE0BF023FE2046044B40F896
:10429000043B0AF0F9FB204610BD00BFE43B0C00D4
:1042A000B83B0C0010B50446FFF7E2FF204624217E
:1042B000FFF7F7FE204610BD37B5044680680D466F
:1042C00030B10023CDE900331A46022108F048F945
:1042D000A06830B10023CDE900531A46194608F012
:1042E0003FF903B030BD0EB403B503AB002153F862
:1042F000042B01930AF01FF902B05DF804EB03B040
:104300007047000073B5044608462279A36832B1AD
:10431000A3B90B4902B0BDE870400AF0CBB8094A16
:10432000267B094D0949647B012E18BF2946CDE93A
:1043300000140749FFF7D7FF02B070BD054AEFE749
:10434000A7360C008C4C0C00A3360C009F360C00DA
:10435000BD360C0096360C000EB403B503AB01213C
:1043600053F8042B01930AF0E6F802B05DF804EB71
:1043700003B0704710B58368044613B103220146A9
:104380009847204610BD000037B5134B0360044624
:104390008068C8B100256FF00043CDE900350221E7
:1043A0002B462A4608F0DCF8A068294608F000F9F8
:1043B000237903F0FF0513B108F0AAF8F8E7A06825
:1043C000294608F0BDF8A56004F10C00FFF7D2FF04
:1043D000204603B030BD00BFA43B0C0010B504461E
:1043E000FFF7D2FF20461C21FFF75BFE204610BDE1
:1043F000F0B58C46002514490571044685600160BE
:1044000092E8030085B002AF04F10C0687E80300D0
:1044100096E8030082E8030097E8030086E80300BB
:104420009168A0696161D1689560D060A161CDE9B2
:104430000035064A2346614604F1080008F078F882
:10444000204605B0F0BD00BFA43B0C00E7410B00C7
:1044500010B504460022407C08F07CFA637C0F2BE8
:1044600018BF208310BD0000F8B5244B244D1B78E5
:104470005BB16B7C0F2B1CBF02236B74FF236B6142
:104480001E211F48FFF7E4FFF8BD1E4B1B78002BD1
:104490002DD11D4B1B78002B2CD11C4B1B78002BD6
:1044A00015BF0A26142602270327194B1A78194B21
:1044B0001C78194BA40044EA42041A78144364B2ED
:1044C0000BF012FD2246013C1449E4B2FFF744FF11
:1044D000062C98BF124B6A7C94BF53F824304FF4DB
:1044E0007F030F2A18BF6F7431466B61C9E714262A
:1044F0000227DAE714260127D7E700BFECE0032004
:1045000094E5032034DF032029DF032035DF032077
:1045100014DE0320D4DD032004DE0320DA360C0091
:10452000B03C0C0013460A460149096802F0EDB997
:1045300014E6032010B508F091FA2B4CE0B10123EA
:10454000237007F04BFF294B294C1B6847F2305270
:10455000C01A904223D813B30123237007F03EFF03
:10456000244B254C1B6847F23052C01A904228D881
:104570003BB30123237010BD2378002BE1D01F48EB
:10458000037C2BB91E4944F202221030FFF7CAFF08
:104590001C491A481E22FFF7DFFE0023D0E72378CC
:1045A0006BB11648037C2BB9154944F20222103036
:1045B000FFF7B8FF134911481E22FFF7CDFE002375
:1045C000CBE7227872B16BB10C48037C2BB90C4954
:1045D00044F202221030FFF7A5FF0B4907481E22C4
:1045E000FFF7BAFE0023C5E704DE032018DE032030
:1045F00014DE0320E0DD0320D4DD0320D0DE032021
:1046000053DE0320E5360C0036370C0030B585B09C
:104610001B4B009313798DF804309368029300F5D7
:104620008C659389ADF80C3004460A466B4600F25F
:104630006C41284602F0F2FC10B9002005B030BDF4
:10464000256004F23C45284602F058F90121204635
:1046500002F08EFB014668B12146284601F048FF72
:104660000028EAD094F83C3413F0700FE5D0054BE5
:104670001D60E3E7204602F07BFB0028ECD1DCE77D
:10468000903B0C0014E603202DE9F04784B08378BA
:10469000412B00AF04468A464BD1C378422B74D1DC
:1046A00020460CF0CEFF013820F00700E946ADEBC4
:1046B000000D20460CF0C5FF6844002600F8096C88
:1046C0002046FE730CF0BDFF20446D4610F8023CFE
:1046D0003B7020460CF0B5FF2044314610F8013CF9
:1046E0007B7010223846BE700DF0C2FE80465FFA25
:1046F00088F80BF0F9FB784943464246FFF72CFE59
:10470000042620460CF09DFF0238864216D2062E63
:104710009BBF07F110039B19AB19A25D8CBFA25D73
:1047200003F8082C06F1010688BF03F8072CF6B23F
:10473000E7E7422B29D1C378312BB0E740452ED093
:104740000BF0D2FB054620460CF07BFF821E28466C
:10475000624D63494346FFF7FFFD2B7CCBB96149AE
:1047600044F2022205F11000FFF7DCFE5E4922460A
:104770002846FFF7F1FD05F1100002F0BFF80BF03D
:10478000B3FB5A4909F0ADFECD461037BD46BDE832
:10479000F087554922462846FFF7DEFDEFE75449EA
:1047A00007F10C000CF01EFF0028EDD0514907F175
:1047B0000C000CF017FF58BB2B783B716B787B71AA
:1047C000AB78BB71EB783B722B797B72381D6B79C0
:1047D000BB720CF066FE484D484C287007F108008B
:1047E0000CF05FFE20700BF07FFB23782A784449A1
:1047F000FFF7B2FD2978434808F03CFB2178424896
:1048000008F038FB414A01231370414A1370BBE79B
:10481000404907F10C000CF0E5FE18B93E4B83F857
:1048200000A0B1E73D4907F10C000CF0DBFEF0B948
:104830002A4C0BF059FB294609F053FE237C83B91F
:10484000284944F2022204F11000FFF76BFE3449BC
:104850002A462046FFF780FD04F1100002F04EF8D2
:1048600092E72F492A462046FFF776FD8CE72D492F
:1048700007F10C000CF0B6FE20B907F0AFFD2A4B93
:10488000186081E7294907F10C000CF0ABFE10B964
:10489000274B187078E7274907F10C000CF0A2FEAF
:1048A00000283FF471AF244907F10C000CF09AFE88
:1048B00000287FF469AF214B214801221A70204B58
:1048C0005A7C0F2A1CBF02225A741E21FF225A61F1
:1048D000FFF7BEFD58E700BF85370C00D0DE032090
:1048E0009A370C0053DE0320B7370C00E3370C0077
:1048F00004380C0008380C0090E5032091E50320F3
:104900000C380C00E4DD0320F4DD0320E0E5032097
:1049100035DF032038380C00EDE003203C380C0074
:1049200040380C0063380C0074DE032067380C003C
:10493000E1E503206B380C006F380C00ECE003203D
:1049400094E5032010B50C46002204212046FFF711
:104950009BFE0B4B1B7893B10A48037C2BB90A4989
:1049600044F202221030FFF7DDFD224607490548D8
:10497000FFF7F2FCBDE81040054801F0BFBF10BDD5
:1049800028DF0320D0DE032053DE032073380C0021
:10499000E0DE0320B0B501F1080323F0070300AF08
:1049A000ADEB030D0C460A46014668460CF096FD39
:1049B0000DEB04036D4613F8013C13B100230DF811
:1049C00004300BF091FA164909F08BFD0BF08CFACC
:1049D000294609F086FD012211462846FFF754FEBC
:1049E0002B7803F0FD03412B03D107F0F7FC0D4BAF
:1049F00018600D4B1B7883B10C48037C2BB90C4914
:104A000044F202221030FFF78DFD0A4907482A467A
:104A1000FFF7A2FC084801F071FFBD46B0BD00BF22
:104A200093380C00E0DD032028DF0320D0DE0320D4
:104A300053DE0320A3380C00E0DE032013B500246E
:104A4000CDE90044044905480123224608F016F840
:104A5000034B1C7002B010BD45490B00C3380C005D
:104A600004DE032008B50BF0B5FE0849FFF73BFC58
:104A700014200AF021FE0BF0ADFE0549FFF733FCD0
:104A8000BDE8084014200AF017BE00BF8B4C0C0094
:104A9000A5360C0007B50BF0D9FE002301460093A4
:104AA000124840F24C43422207F07AFB40B94FF4DF
:104AB0007A700AF001FE0BF017FA0D4909F011FDAA
:104AC00040F24C420121094807F09EFA40F24C4363
:104AD00001220021054807F077FA0BF0B7FE0549DF
:104AE00003B05DF804EB0BF023BB00BF6CDF0320C9
:104AF000C9380C00801A060010B5084C40F24C4131
:104B0000204607F0CCFB064B40F24C411860204693
:104B100007F0A2FB034B1860012010BD6CDF0320DF
:104B20007CDE032030DF032010B5084C23785BB116
:104B3000074B0848197808F09DF9074B0748197882
:104B400008F098F90023237010BD00BFE0E50320B2
:104B500090E50320E4DD032091E50320F4DD03204C
:104B60002DE9F04FB24DABB007F038FC2B68834213
:104B700080F00981DFF8E8B29BF80030002B00F0EC
:104B800002810BF063FE0123142263210BF0F1FA82
:104B90000BF05CFE03685B69984716AC26460BF089
:104BA00055FE03681B69984738B10BF04FFE036848
:104BB0005B69984704F8010BF1E730460CF06EFC96
:104BC00051EC100B0CF0F6FBDFF898A2CAF80000CD
:104BD0000BF03CFE0123142264210BF0CAFA0BF007
:104BE00035FE03685B6998471BAC26460BF02EFE2A
:104BF00003681B69984738B10BF028FE03685B69AE
:104C0000984704F8010BF1E730460CF047FC0BF035
:104C10001DFE0123142265210BF0ABFA0BF016FEEA
:104C200003685B69984720AC26460BF00FFE0368CB
:104C30001B69984738B10BF009FE03685B69984718
:104C400004F8010BF1E730460CF028FC59EC108B0E
:104C50000BF0FCFD0123142266210BF08AFA0BF005
:104C6000F5FD03685B69984725AF3E460BF0EEFD06
:104C700003681B699847044638B10BF0E7FD0368E9
:104C80005B69984707F8010BF0E730460CF006FC2B
:104C9000684B8BF800401B7857EC106B002B72D0E0
:104CA0000AF0E0FC11900AF0D1FC04460AF0E2FCA4
:104CB00083460AF0A7FC10900AF0B0FC0F900AF0AF
:104CC000B9FC109A0F99119B0490CDE901B20391A0
:104CD000594A0094102112A807F008FF5748037C96
:104CE0002BB9574944F202221030FFF71BFC49460A
:104CF00040460CF05FFB0CF04BF8CDE90C01514B3A
:104D000018680CF045F8CDE90A014F4B18680CF013
:104D10003FF8CDE90801DAF800000CF039F8CDE9E8
:104D20000601394630460CF045FB0CF031F8CDE970
:104D30000401464B186807EE900AF8EEE77A17EE82
:104D4000900A0CF025F838A3D3E900230CF0A2F95F
:104D5000CDE902013E4B186807EE900AF8EEE77ABB
:104D600017EE900A0CF014F82FA3D3E900230CF0EF
:104D700091F912AACDE9000136493048FFF7ECFA63
:104D8000354801F0BBFD354C07F028FB2368834212
:104D900044D207F023FB00F6C410206007F01EFB8E
:104DA00000F2393028600BF051FD63210BF0FAF965
:104DB0000BF04CFD7221FFF73FFA0BF047FD0BF0B3
:104DC000F8F90BF043FD64210BF0ECF90BF03EFD1C
:104DD0007221FFF731FA0BF039FD0BF0EAF90BF015
:104DE00035FD65210BF0DEF90BF030FD7221FFF788
:104DF00023FA0BF02BFD0BF0DCF90BF027FD6621FD
:104E00000BF0D0F90BF022FD7221FFF715FA0BF031
:104E10001DFD0BF0CEF9124B01221A702BB0BDE82C
:104E2000F08F00BFAFF300800000000080842E41AF
:104E300030DE032029DF0320E9380C0038DF0320AF
:104E400035DE032084E5032080E5032030DF0320E6
:104E50007CDE032002390C0048DF03208CE50320B0
:104E600034DE032088E503202DE9F04F3C4EDFF8C7
:104E70000481DFF8049189B000AF0BF0ABFC03684C
:104E80001B699847002866D00BF0A4FC0A22014653
:104E9000384609F0AFFBBB68073323F007036D46C4
:104EA000ADEB030DEA460023B9681FFA83FB8B457F
:104EB00003F1010407D25946384608F035F9234674
:104EC0000AF80B00F0E701290AD90139384608F041
:104ED0002BF90D2801BFBB685344002203F8012CB5
:104EE000012202215046FFF7CFFB0AF0FDFF3146B9
:104EF00009F0F7FA0AF0F8FF396809F0F2FA9AF8BF
:104F00000030423B012B03D807F068FAC8F80000D4
:104F100099F80030D3B11348037C2BB9124944F2FD
:104F200002221030FFF7FEFA394607F1100008F0B0
:104F3000B1F80E490B4807F11002FFF70DFA07F11F
:104F4000100008F011F80A4801F0D8FC384608F0C3
:104F50000BF8AD4691E72437BD46BDE8F08F00BFA2
:104F60001A390C00D0DE032053DE03202C390C004C
:104F7000E0DE032018DE032028DF03202DE9F043C4
:104F8000ADB00AF0B1FF614909F0ABFA6049614880
:104F90000022FFF7C7FA48B95F4B18700AF0A4FF68
:104FA0005E492DB0BDE8F04309F09BBA0AF09CFFC2
:104FB0005B495C4D09F095FA08F004FC08F060FCD0
:104FC000044648B908F0FEFB2246294608F0ABFC2F
:104FD0000A200AF071FBEFE70AF086FF52494D4FB5
:104FE000524DDFF86C8109F07CFA002239462846E0
:104FF00001F011FCF8B108F0E5FB08F041FCD0B17C
:105000001E2201A9284600F06AFE0AF06DFF414603
:1050100001AAFFF7A1F901A80CF013FB01AB0438BA
:1050200018440CF017FB42490CF05AFBD8B928463B
:1050300001F064FCD9E7374801F060FC262200212A
:1050400009A80CF073FA3B4909A80CF0D5FA002323
:10505000262209A9384808F0A5FA2F4B00221A7019
:105060002DB0BDE8F0832622002109A80CF05EFADD
:105070003249334EDFF8C09009A80CF0BDFA01A9FF
:1050800009A80CF089FA0AF02FFF2E4909AAFFF7A8
:1050900063F90023262209A9274808F083FA0AF0B9
:1050A00023FF294901AAFFF757F996200AF004FBCC
:1050B0000AF040FF3046FFF712F8044688B1642238
:1050C000002113A80CF032FA13AA64230D213046F4
:1050D00009F077FA0023642213A9484608F062FA1F
:1050E000E8E70AF029FF2622214609A80CF01EFA5B
:1050F000164909A80CF080FA2346262209A90E4871
:1051000008F050FA96200AF0D7FA90E74D390C00D3
:105110006A390C00ACDE0320ECE003206C390C0093
:1051200099390C0020DE0320B9390C0048DF032038
:10513000F7390C00FC390C00E4E00320053A0C00C0
:1051400038DF03200E3A0C00213A0C00493A0C00DB
:10515000CE390C0038B5046805467CB16368013B64
:1051600063605BB9236820469B689847A368013B4E
:10517000A3601BB923682046DB689847284638BDE2
:105180002DE9F04784B002AF804691461E460D4699
:105190000CF057FA093020F00701ADEB010D404645
:1051A0000CF04FFA97F828A0254902AC0346424676
:1051B000204607F093FCBAF1000F01D1042D0CD169
:1051C000204B21491B788DF8003038463C2322467D
:1051D0000AF044FC381DFFF7BDFFB9F1000F01D103
:1051E000012D21D108F0EEFA08F04AFBE0B120468B
:1051F0000CF027FA073020F00700E846ADEB000D71
:1052000020460CF01EFA0DF10809024621464846D8
:105210000CF064F920460CF014FA002302464946CB
:105220000A4808F0BFF9C5460EB9022D04D10BF0AB
:10523000D1FA214609F055F90837BD46BDE8F08797
:10524000523A0C001CDE0320593A0C00D8E503202A
:1052500030B5274D2B789DB0002B46D04122002140
:105260000BA80CF063F9234B0893234BDFED236A63
:1052700093ED007A224B27EE267A0024BDEEC77A02
:105280008DED077A93ED007A1E4B27EE267ABDEE60
:10529000C77A8DED067A93ED007A1B4B27EE267ABE
:1052A000BDEEC77A8DED057AD3ED007A174B67EE28
:1052B000A67AFDEEE77ACDED047A18680BF068FD6A
:1052C000CDE90201124B18680BF062FD0122CDE915
:1052D000000110490BA807F001FC2978009423462F
:1052E00022460BA8FFF74CFF2C701DB030BD00BF4D
:1052F000EDE00320880D010084E5032000007A44DE
:105300007CE5032088E5032080E503202CDF0320D3
:1053100078DE0320613A0C0070B52C4E337890B0E3
:10532000002B49D02A4A2B4B10681B7807930BF0AF
:105330002FFDCDE90401284A284C10680BF028FD08
:10534000CDE90201264A079B12782649009209A856
:10535000012207F0C3FB0AF0C7FD09A909F0C1F853
:105360000AF0C2FD218805460A2209F0C6F828463F
:1053700009F0ABF81C4B1B7803BB1C4B1B78EBB93B
:105380002388F3B113F003031BD1012200921946C5
:105390001A4609A8FFF7F4FE23880BB1013B2380CE
:1053A0000024642034700AF087F9114800942346E1
:1053B00001222146FFF7E4FE10B070BD4FF4F073F8
:1053C00023800021012300911A46E2E7D4E503205F
:1053D0002CDF03202CDE032078DE032006DE0320F2
:1053E000B4E50320853A0C00D4DD032014DE03204D
:1053F0009E3A0C0030B52DED028B8DB0FFF77CFB93
:1054000070B3304BDFED306AD3ED007A2F4BF8EEFE
:10541000E77A87EEA67A83ED007A2D4BD3ED007AFA
:105420002C4BF8EEE77A17EE100A87EEA68A83ED8A
:10543000008A0BF0ADFC02460B4618EE100ACDE9CF
:1054400002230BF0A5FCDDE90223CDE9000122498E
:1054500004A807F043FB0AF047FD04A909F041F84E
:1054600040F24C411D4806F03DFF04460AF03CFD69
:10547000002C054624DA2D2109F020F861420A2289
:10548000284609F03AF8284609F01FF8FA200AF0F1
:1054900013F9FFF765FBFFF7E7FCFFF73DFFFFF7A9
:1054A00043FB0F4B1B780BB1FFF768FDFFF7D0FEF6
:1054B00064200DB0BDEC028BBDE830400AF0FCB8B2
:1054C0002146DCE77CDE03208096184B78DE032043
:1054D00030DF03202CDF0320AC3A0C006CDF03200C
:1054E000ECE0032070B5D0E900531426044606FB17
:1054F0000356AE4204D0284607F036FD1435F8E7CF
:10550000206807F0DBFA204670BDF0B516468FB074
:105510000022C0E9002204460D4609AF194604A83E
:1055200008F002F81499384607F0FEFF169B029324
:10553000159B2046CDE90073324604AB294608F09E
:1055400069FD20460FB0F0BD13B50B4C2178BFF3B9
:105550005B8F11F001010BD120460191FEF7B0FDE8
:10556000019928B1054807F06DFB2046FEF7ADFD17
:10557000024802B010BD00BFC8DD0320CCDD03200F
:1055800008B5FFF7E1FF4FF6FF72002107F078FB47
:10559000FFF7DAFFBDE808400149012207F00EBC21
:1055A00040420F002DE9F043B448B54E037CB54DA1
:1055B00003F0030343F0780393B003740022012146
:1055C000043007F08DF9012102200BF0BDF8012114
:1055D0001C200BF0B9F800211D200BF0B5F80021BC
:1055E00002200BF0C2F800211C2000240BF0BDF8B3
:1055F000B42706F0F3FE5A2333702B704FF47A72FF
:10560000CDE900474FF4FA6306219F4807F06EFC8E
:105610004FF47A724FF4FA63CDE9004705219B48B5
:105620009B4F07F063FC317897489A4E07F022FCB5
:105630002978964807F01EFC4FF4FA600AF03CF80F
:1056400008F0C0F808F008F908F0BCF8082108F0E4
:105650000AF90AF049FC4FF416510AF035FC0BF038
:10566000B9F84FF416510AF00BFDFFF789FFFFF769
:10567000F9F9FFF70FFAFFF7E1F9874B01251D70E4
:1056800006F0ACFE854B186006F0A8FE844B18604F
:1056900006F0A4FE834B3D701860834B35701C6090
:1056A000824B1C60824B1C70824B1C70824B1C70A6
:1056B000824B4FF4F0721A80814B32221A7008F03C
:1056C00081F8804A01460DA808F0CEFD0DA808F02B
:1056D0007EF908F077F87C4A01460DA808F0C4FD71
:1056E0000DA808F074F908F06DF8784A01460DA885
:1056F00008F0BAFD0DA808F06AF9754B1D70754BDE
:105700000DA8196807F010FF0DA807F06FFE0546F9
:105710000DA8002D40F0848007F084FE0095ADF8C0
:105720002400022309AA03216B4808F07BFA002316
:1057300067496948082208F093FA08F043F8002204
:10574000654908F0F0F80BF081F80AF0F5FC0BF071
:105750007DF862490AF0ECFC09F084FF079009F03B
:1057600075FF044609F086FF054609F04BFF8046A9
:1057700009F054FF814609F05DFF079B584A0094E9
:10578000CDE903901021CDE9015809A807F0AEF941
:10579000544955480BF030FF09A953480BF0FCFE63
:1057A000514952480BF028FF51494F480BF0F4FE85
:1057B00050494E480BF0F0FE0AF096FB4A4908F0BB
:1057C00090FE0AF091FB494908F08BFE4A486FF0C1
:1057D0000041FEF771FD49486FF00041FEF76CFD96
:1057E00047486FF00041FEF767FD464B0D930023DD
:1057F0008DF83830444B0F93444801230DAA0821FB
:10580000ADF84030FEF702FF044680B90AF06CFBA9
:105810003F4908F066FE3C70347013B0BDE8F08379
:1058200007F002FE00940246102307217CE73B7834
:105830007BB13848037C2BB92B4944F2022210304B
:10584000FEF770FE3449334808F04BFE334801F050
:1058500055F83378002BE0D03148037C2BB923492D
:1058600044F202221030FEF75DFE2E492C48012240
:10587000FEF772FD2C4801F041F8CEE794E50320D5
:1058800090E5032091E50320E4DD0320F4DD03200F
:1058900029DF032028DF032035DF03208CE50320E8
:1058A00030DE032074DE032018DE0320E0DD032059
:1058B00034DE0320ECE00320EDE0032006DE0320CD
:1058C0002CDE0320D8E50320F0E00320E4E00320F1
:1058D000D5DD0320D4DB032020DE0320801A060060
:1058E000E9380C00CB3A0C0035DE032053DE0320F0
:1058F000F7390C00D43A0C00E4E5032080DE0320E5
:10590000B8E50320903B0C0000127A00F8E0032079
:10591000DD3A0C0038DF0320023B0C0048DF032097
:10592000D0DE0320583B0C00E0DE03208842F8B5AF
:1059300004460D46164616D9904215D2A2F1140619
:10594000751AA1F114072C44B7421CD02CB1314672
:10595000204607F085FB337C2374304607F004FBB8
:10596000143E143CF0E70ED0B5420CD02CB12946C1
:10597000204607F075FB2B7C2374284607F0F4FAC9
:1059800014351434F0E7F8BD2DE9F0410023C0E9E7
:10599000003383604F689F4204460E4623DD4FF07C
:1059A000140808FB07F007F081F80546D8B1D4E9E0
:1059B000001208FB0212FFF7B9FF206807F07EF81B
:1059C0002560A760D6E9007308FB0378B84508D0C6
:1059D0003946284607F05EFB3B7C2B7414371435A0
:1059E000F4E7736863602046BDE8F081F0B5714B61
:1059F000714A724C01261E70714B0025C3E9005597
:105A00009A6093B0032006F07DFF6E4801F04CFDD4
:105A1000FFF79AFD6423C4F860346B4B6560C4F8EB
:105A20003C54C4F86854C4F8703484F87464C4F8FE
:105A30007854A4F87C5408B9FFF786FD634B644A98
:105A4000C4F86C044FF47A7600241A60C3E9014666
:105A50001C61604B07941A60C3E901461C615E4BF0
:105A60005E4D1A60C3E901461C61CDE905440AF0A8
:105A70003BFA05A9074608A8FFF786FF08A90BA867
:105A8000FFF782FF564B2B600BA90EA8FFF77CFF98
:105A90000EAA1E21281D09F03FFA0EA8FFF722FDCD
:105AA0000BA8FFF71FFD4F4B2B602F6208A8FFF7D5
:105AB00019FD4D4B2B600AF017FA4FF416510AF0FE
:105AC00003FA08F00BFF294609F0FCF805A8FFF7D8
:105AD00009FD4648464D474F07F0F4F9464807F0A0
:105AE000F1F9CDE901442B680093444B44491B680C
:105AF00044484FF01002FFF708FD434B0294019316
:105B00002B680093414B42491B6842484FF0040206
:105B1000FFF7FBFCCDE901442B6800933E4B3F4966
:105B20001B683F483F4D4FF01002FFF7EEFC3E4828
:105B300008F083F83D4B0E930EAA234643F69821B6
:105B40003B4811971095FEF753FC0EA8FEF712FC88
:105B5000384B0E930EAA234631463748CDE91057ED
:105B6000FEF746FC0EA8FEF705FC344B0E930EAA7A
:105B7000234643F698213248CDE91057FEF738FC0A
:105B80000EA8FEF7F7FB22461421012006F0E2FEE4
:105B900001221421CDE9001203466FF07F4129480C
:105BA00007F028F82849294813B0BDE8F04007F06D
:105BB00026BA00BF1CDE03200000FFFFF8E0032030
:105BC00008DE03206CDF0320903B0C0038DF03204D
:105BD000FC3B0C00D0DE03209CDE032004DF03200E
:105BE000B83B0C00C44C0C00E43B0C00E4DD03208B
:105BF000D4DB032035420B00F4DD0320E0DB03207F
:105C00007D3B0C00D8E5032095490B00DCDB03202D
:105C1000803B0C00F0E00320D8DB0320833B0C002A
:105C2000E4E0032021420B0020DE032035450B0079
:105C3000E4E5032069440B0080DE0320FD400B00F7
:105C4000B8E5032094E503208C4C0C0000E603200B
:105C5000042904D800EB4100B0F8010070470A297C
:105C60009BBF01F1FF3100EB41000131C08884BFCF
:105C700000EB41008088704710B50446243000F0E6
:105C800069FF28B104F50C70BDE8104000F062BF58
:105C900010BD411E00F10A030020420842EAC01074
:105CA00011F8012F52FA80F08B42C0B2F5D1704743
:105CB00038B5CB6804460D4623B9BDE8384089683D
:105CC00000F016BC242200210BF030FC1023012030
:105CD0002370A070AB68A360EB68236238BD2DE928
:105CE000F04F8DB003784FF0000906460F469046FE
:105CF000CDF80C90002B5DD00C2A5BD9C37833B95A
:105D000000F046FB044620460DB0BDE8F08F01468A
:105D100003A8FFF7CDFF00284CD007EB08034FF096
:105D2000010B4FF00D0A0093F3785FFA8BF5AB424D
:105D300040D3B188A1EB0B01490103A800F0BEFCE0
:105D40000446002836D0002103A800F098FC034642
:105D500080B3C27A0F2A2DD1027802F01F02AA4224
:105D600028D10BF1FF350AFB05F57A1900211846F9
:105D70000191FFF76DFF68B1A84512D90199013172
:105D80007F28C9B228BF3F200D2902F8010B05F179
:105D90000105ECD1A84504D91A78520648BF07F886
:105DA0000590009A02F8019C1B785B060BF1010B31
:105DB000BAD5A8E700243C70A5E700002DE9F0471C
:105DC000064610F8013B202BFAD06A4D8E60002465
:105DD000335DC3B12F2B16D05C2B02D10020BDE860
:105DE000F087A3F12200C0B21D2803D825FA00F0E5
:105DF000C007F3D403F0BF003C28EFD0203B5E2B5C
:105E0000ECD80134E4E733191846074610F8015B73
:105E1000202DFAD02F2DF8D017604CB113F8012D9A
:105E20002E2A01D0202A01D1013CF6E7FF2CD5DC37
:105E30004FF02033C1F811304C60C1F80D304B6188
:105E40004FF0000816F808302E2B01D0202B02D17D
:105E500008F10108F6E7B8FA88F04009651E6B1CE6
:105E600002D0735D2E2B14D14FF0000907274A464C
:105E7000CA464FF0080EA04568DA16F80830202B05
:105E800003D02E2B07D1A84512D0002008F101081D
:105E9000F1E7013DE3E7222B08D07C2B06D0A3F1EC
:105EA0002A0CBCF1050F0AD82D2B12D0A8455BD1C6
:105EB0000A2F4AD00A2708224FF0100EE6E7A3F176
:105EC0003A0CBCF1050FF1D9A3F15B0CBCF1020F48
:105ED000ECD9A3F1210CBCF15D0FE7D8A845E7D0C0
:105EE000BA4230D8A3F1610CBCF1190F1AD8203B8B
:105EF0004EEA0909DBB25FFA89F902F1010C5FFA97
:105F00008CFC0A44BCF1060F537301D881F80CC015
:105F10006246BBE7A84518DCA8460A2708224FF0CE
:105F2000100EB2E7A3F1410CBCF1190F98BF4EEA75
:105F30000A0AE2E70B7B0120087019447E234B73A9
:105F400031238B734BE70A2FE4D100204B7B202BAE
:105F50003FF444AF0028EDD01AEA090F18BF4FF004
:105F6000020981F800903AE7BA42ECD800205F239A
:105F7000C3E700BF010100312DE9F84391F80C900F
:105F800006460C4602257E2701F10D086168A268CD
:105F90006B189BB21144914206D012F8010B03EB2F
:105FA000431343409BB2F6E7B9F1030F28BF4FF00C
:105FB000030909F10402D2B203F00F01A018013A5B
:105FC0000929D2B294BF30313731914541734FEA3C
:105FD0001313F1D104EB090300215F73304600F085
:105FE0006DFB0121304600F04AFB014628B970786C
:105FF000B0FA80F04009BDE8F88303786BB1C37A4A
:106000001B07EED40B2240460BF058FA0028E8D1CB
:106010000135ADB2642DB9D1EDE70120EBE7000009
:106020002DE9F04F2DED028B8BB00D4606930B78CA
:10603000079013F0700F174605D100200BB0BDEC90
:10604000028BBDE8F08F079B1B78002BF5D15368BE
:10605000059313789C071FBF059B0C330D22B3FBE0
:10606000F2F31ABF0133DBB2012300212846039368
:1060700000F024FB07F10D034FF0000B08EE103A7F
:10608000DA465C465E46CDF810B0D9466B69012110
:106090002846C3F34F1800F0F2FA0346002871D1E6
:1060A0006B78002BC9D1069B9A05C6D503F0030374
:1060B000013B012BC1D8049B002C08BF434604932D
:1060C000039B9C42C0F0F180B9F1000F40F00A81BF
:1060D000049B2846590100F0F1FA0028ADD0039B3B
:1060E00003F1FF395FFA89F94E464FF0000A4FF08D
:1060F0000F08002E00F00D810021284600F0BFFAA5
:106100000446002899D0AA6892F824304E4543F0FE
:1061100001030CBF46F0400BB34682F8243080F8F0
:1061200000B080F80B8080F80CA007F10D00FFF79D
:10613000B0FD84F81AA0607384F81BA00BF01F0355
:106140000D22013BD7F808C053430022059999421C
:1061500040F2D0801CF80310042A5FFA82FE02F19C
:10616000010000F2CD8004EB4202A2F801100D28DC
:1061700003F101030246E9D1013EF6B2B9E74FF05F
:10618000010983E70278E52A00D07AB90499002C46
:1061900008BF4146049103998C423CBF0134E4B2EC
:1061A000002A80D0E52A05D100266FE703998C42AA
:1061B00038BF00242E2AF7D0D97A0F294AD116BB2E
:1061C00012F040063FF462AF02F01F0693F80DB0E4
:1061D000B2460D220AF1FF3802FB08F8059A424543
:1061E000E2D9A2EB08020892002202EB0801099111
:1061F0001846D1B2FFF72CFD08998A420DD100282C
:1062000018BF002642E70AF1FF3A5FFA8AFA5245C0
:10621000CAD15A7B5A45DCD0C6E7FF28C4D85FFAFA
:1062200080FEAEF141011929B9689CBF0EF1200032
:106230005FFA80FE08460999415CA1F1410CBCF16E
:10624000190F9CBF2031C9B27145ADD101320D2A61
:10625000CBD11BE70807A7D45EB1BAF1010F7FF4D9
:10626000ECAE1846FFF715FD58457FF4E6AEB14693
:106270000EE018EE101A0B2218460BF01FF900283A
:106280007FF404AF97F8009019F001097FF477AF1D
:10629000069B19053FF5D1AE069B0798CDF80090F7
:1062A0004246294600F04DFAC8E60021284600F093
:1062B000E6F9A0B96B78002B7FF4BFAE284600F05A
:1062C0009FF800283FF4B9AEAB681B79012B3FF66D
:1062D000FBAE039B1034E4B2A342EFD8F4E60134E2
:1062E000E4B2EDE639462846FFF746FE00287FF483
:1062F000EFAEA2E614BF4FF0FF31002189B22BE7C9
:10630000BEF10A0F94BF04EB420204EB40029180FD
:106310002DE731462846D5F8148000F0B0F9044640
:1063200000283FF48AAE202231460BF0FFF8D7F860
:106330000D302360D7F811306360B7F81530238132
:10634000FB7DA3723B7803F0180323730F4B1B688C
:106350009BB104F10E0104F110009847238A638277
:106360002383E389E382AA6892F8243043F001038F
:10637000C8F34F1882F824308EE721232374282392
:1063800063740823A673E373E8E700BF10E60320F5
:1063900010B50C46017809B9002010BD11F060015C
:1063A00005D02F232370002363700120F5E700F050
:1063B00065F80028F0D0214600F06FF8F5E738B511
:1063C00004460D46242200210BF0B0F8A560EB79BD
:1063D000102B03D0202B06D0002038BD2023012015
:1063E0002370A070F9E74023F9E78378016943F04F
:1063F0000403837000F11002806800F061BC0000AB
:106400002DE9F041017811F02005044603D0002663
:106410003046BDE8F0814269174B9A42F7D2FFF748
:10642000E4FF06460028F2D02169A06800F0DDFBF9
:106430000746A06805223946243000F0B3FB8046A9
:106440000028E4D029464FF400720BF06FF80125C4
:10645000A3681A79AA4209D918684246E91900F0D6
:106460000EFF0028D3D00135EDB2F1E7636903EBED
:1064700042236361CCE700BF00FE1F0010B5044655
:1064800080680A462430A16900F08CFB20B1A38803
:1064900003F00F0300EB431010BD0023F0B50446DA
:1064A000451E082618462E2715F8012F202A18D039
:1064B000082B02BF0F54421CD0B22A78A2F1410C23
:1064C00008BF1026BCF1190F06D894F80CC016EAC4
:1064D0000C0F1CBF2032D2B200F1010C0A545FFA3B
:1064E0008CF00133DBB20B2BDED100230B54F0BD5B
:1064F00003780BB9FFF763BF002070472DE9F74F12
:106500000378044688461546002B5DD08278D10773
:106510005AD51A072DD5C36942699B1A9D4228BFD7
:106520001D462E464FF0000904F1100B002E00F01E
:106530008F8022786369A0689706C3F3080A4FEA40
:1065400053211FD5006A0144A068BAF1000F42D15F
:10655000B6F5007F3FD3C36A99423CD0B6F5806F51
:1065600052D20068424600F001FE68B34FF4007753
:1065700044E09B06D5D583681A894369C3EB42136F
:106580009BB2CBE790F8059009EA0109BAF1000F38
:1065900008D1B9F1000F05D15BB951064CBF036AB0
:1065A000236A23612169A06800F01FFB09EB000149
:1065B000CAE721695A4600F01EFB002804DBF1D12E
:1065C000237813F0700F43D1637843F002036370B4
:1065D0004FF0FF303DE0CAF50077B7424FF00002C0
:1065E00000F1240028BF374600F0DCFA0028EBD089
:1065F00000EB0A013A4640460AF070FF63693B44EB
:10660000B8446361F61B91E7227892064FEA562A56
:1066100006D40279A2EB0902D2B2924528BF924673
:1066200099424FEA4A2708D2A0685346006842467A
:1066300000F0E4FD0028E1D1C6E753448B42F3D9D2
:106640002430019100F086FA01990028ECD1BBE7D3
:10665000A81B03B0BDE8F08F73B501220DF107014F
:10666000D0E904560446FFF749FF01280ABF9DF808
:1066700007004FF0FF30C4E9045602B070BD37B5D3
:10668000436913F4F07F0446C3F3431500D099B96E
:1066900001220DF107012046FFF730FF40B201282B
:1066A00002D0002003B030BD63691F33A06863616E
:1066B000303000EB4510F5E72033F7E72DE9F041E6
:1066C0000278076904460D4662B14069884202D0EB
:1066D00019B921616561012006E0160706D5E36955
:1066E0008B420BD227610020BDE8F081910605D5D1
:1066F000A3681B89B5EB431FECD9F3E7D4F808C0B6
:106700009CF80660431E06F109016E1ECB40CE4088
:10671000B34200D898B953064CBFDCF82030236A46
:10672000236104F11008002ED4D02169A0684246EC
:1067300000F061FA002806F1FF36F4DCD2E7F61A21
:10674000EFE7F8B50F4604461546002124221E4601
:106750000AF0ECFEB868A060A58005F00F053B6A62
:10676000E3606A0100EB451595F83B301F0744D400
:1067700003F01703237095F83B1011F0180F04BFB6
:1067800043F0080323709DF81830E37006F003030C
:10679000012B2CD0022B28D07BBB71052DD40123DB
:1067A000A370A1788B0704D52378DF0625D4DD07F5
:1067B00023D4B31123F07F0306F008052B430B43CA
:1067C000A370C36AA3618318B3F84420B3F84A10D6
:1067D00041EA0241720513D559B9A37843F0040385
:1067E000A370730410D40120F8BD0323D8E702235B
:1067F000D6E700F0A0FA0028EFD100202070F3E7E0
:106800002162DB6CE361ECE7E1692046FFF756FFAC
:106810000028E8D1F1E72DE9F347037807460D4654
:10682000924653BB0B7813F0700F26D04C6914F0CE
:106830001F0422D1A04600212846D5F81490FFF766
:106840001EFFD0B10678C6B12E2E10D0E52E0ED088
:10685000C37A1A0713D464B900945346C9F34F128C
:1068600029463846FFF76DFF02B0BDE8F0870024E7
:10687000E1E7FFF70EFA4045EED00020F4E70F2BDA
:10688000F5D17306D7D590F80D8006F01F04D2E736
:1068900038B5037804460BB9012038BD83785A0710
:1068A00023D50121FFF7EAFD054628B9637843F0B7
:1068B000010363700020F0E70378E52BF6D023781E
:1068C0001B0744BFE369C361236A4383638C8382EC
:1068D000094B1B682BB100F11601183098472B8B20
:1068E0006B82A37823F00403A370A068FFF7C4F9B8
:1068F0000028DBD0D0E700BF10E6032010B5044627
:10690000FFF7C6FF0023237010BDF0B593B01F46FC
:10691000002309930378019206460C4613B1002028
:1069200013B0F0BD0B7813F0700FF8D013782F2B45
:1069300012D1019A13782F2B02D101320192F8E77C
:10694000A1681BB93046FFF7D3FDE9E709A8FFF7B7
:1069500036FD0028E3D009AC019801AA03A9FFF78E
:106960002DFA0028DBD0019B1B789BB1002303AAE2
:1069700021463046FFF754FB0028D0D035460FCDD6
:1069800009AC0FC40FCD0FC42B6823603046FFF74E
:10699000B5FFE0E73B4603AA21463046FFF740FB40
:1069A000BEE700002DE9F047037889461907044641
:1069B00017465BD583789A0758D51B0751D463696E
:1069C000DB43BB4252D3B84604F1100A6669B8F102
:1069D000000F00F09180A0684379C6F3080513EA20
:1069E00056260ED16DB92169002946D0524600F0D5
:1069F00002F900283ADB04D12046FFF7F6FC002814
:106A000034D02169A06800F0F0F83118A06815B9F9
:106A1000B8F5007F3FD2C5F50076464528BF46460B
:106A2000002D36D16269E3699A4234BF0122052202
:106A3000243000F0B7F8C8B12844324649463544FE
:106A40000AF04CFDB5F5007F04D1A068243000F0B9
:106A500081F858B1636933446361B144A8EB060817
:106A6000B4E7C169FFF72AFE0028A8D1637843F094
:106A7000010363704FF0FF3050E0236A3BB92046BA
:106A8000FFF7B3FC0028F1D023692362B9E7236143
:106A9000B7E70122CCE7B8F5806FC26A1BD390F844
:106AA00004C0ACEB0606F3B24FEA582E734528BF7C
:106AB000734691424FEA432607D31A448A4282BF63
:106AC0004FF0FF3280F82450C262A5684A46286819
:106AD00000F04BFCBDE7914202BF4FF0FF3380F85E
:106AE0002450C362A3684A46186800F0C8FB002817
:106AF000BCD04FF40076ADE7E269A378B24204D28D
:106B0000E66143F00403A37003E0084A1268002A18
:106B1000F7D194F90230002B02DB3846BDE8F0874C
:106B20002046FFF7B5FE0028F7D19FE710E60320C7
:106B300013B50446084659B101910AF082FD236855
:106B40000199DB680246204602B0BDE810401847B4
:106B500002B010BD37B50378DA07044620D5436884
:106B6000816800F10C021868019200F088FB019A1C
:106B7000054618B90025284603B030BD23789B0789
:106B800004D4237823F001032370F4E7D4E901301F
:106B900019690144186800F072FB0028F1D1E9E797
:106BA0000125E8E770B583688B4204460E4615461A
:106BB00009D0FFF7CFFF08B9002070BD6B070AD5D9
:106BC00000232370A660227805F0030520461543B4
:106BD00000F80C5BF1E7636804F10C0218683146B9
:106BE00000F0C4FA0028EBD1E6E783794069023966
:106BF000994008447047012970B505460C46164671
:106C000002D84FF0FF3070BDC3698B42F9D3C3790E
:106C1000202B16D18169022201EBD41100F50C70F2
:106C2000FFF7C0FF0028ECD004F07F0450F82430B8
:106C300023F07043EA699A4226BF336001200020A6
:106C4000E1E7102BDDD1C1F307238169022219444A
:106C500000F50C70FFF7A6FF0028D2D0E4B230F8A0
:106C60001430E7E7012938B50C46154601D8002055
:106C700038BDC3698B42FAD3C379202B0FD1816908
:106C8000032201EBD41100F50C70FFF78BFF0028F5
:106C9000EDD004F07F0440F824500120E8E7102BE9
:106CA000E5D1C1F3072381690322194400F50C7073
:106CB000FFF778FF0028DAD0E4B220F81450ECE7B0
:106CC0002DE9F341C4688C4205460E46904601D337
:106CD000012701E00C460027EB690134A34202D2F0
:106CE000C7B9EC68F4E7A64214D001AA21462846A9
:106CF000FFF781FF00280DDBEED0019B002BEBD1CD
:106D000007B1EC606FF0704221462846FFF7AAFFFA
:106D1000074620B90027384602B0BDE8F08116B911
:106D2000C8F80040F7E7224631462846FFF79AFFA9
:106D30000028F5D1EEE773B505460C4601AA2146B9
:106D40002846FFF758FF061E10DB00222146284682
:106D5000FFF788FF50B1EB68A34224BF04F1FF3472
:106D6000EC60019C002EE9D102B070BD0020FBE771
:106D7000012370B50022C3604FF0FF330446C27197
:106D800000F12406806280F82420C362C0F8340237
:106D900080F83022C0F838320D46B9B1042901D943
:106DA000002070BD11463046FFF7FCFE0028F7D0EA
:106DB00000EB051393F8AE315B06F1D105F11B0131
:106DC00000EB0110D0F80650002DE9D00022294632
:106DD0003046FFF7E7FE0028E2D0B0F80B30B3F5FD
:106DE000007FDDD1037C022BDAD1C389002BD7D001
:106DF000417B21714B1E63710023A371092601237E
:106E0000994207D0013ECBD0A2795B000132DBB2C0
:106E1000A271F5E7C18A01B9416A2161C3892B4496
:106E2000A361B0F81120228103EB41032362B0F883
:106E30001110490101F2FF1103EB51236361B0F816
:106E4000132002B9026AE91AA3791144D9404B1CF4
:106E5000E36140F6F473994202D80C23E3719FE793
:106E60004FF6F473994285BFC36A2362102320232F
:106E7000E371012095E700F0CBBA00F0AEBA000054
:106E800070B50E4E0D46144605F0A0FA3368C01AD0
:106E90000B4B984208D905F0A1FA0A4B186005F08F
:106EA000D5FD05F093FA306005F098FA80B2401BEA
:106EB000A042D4BF0020012070BD00BF18E603200F
:106EC000A086010040E7032038B5057A04464DB995
:106ED000406800F06BFA63682946187D09F045FCAC
:106EE0000123237238BD10B5037A04466BB14368A1
:106EF0000121187D09F039FC6068FF21FFF7BBFF15
:106F0000606800F067FA0023237210BDF8B50446EC
:106F10000D46164605F062FA87B26068FFF7ADFFCE
:106F2000FF2860720ED14FF47A7239462046FFF77F
:106F3000A7FF0028F1D0552320462370FFF7D3FF89
:106F40000020F8BDFE2801D05023F5E760683246E6
:106F5000294600F047FA607208B16023ECE76068E8
:106F6000FFF78BFF6068FFF788FF0120E9E770B546
:106F700004460E4605F032FA85B2324629462046CE
:106F8000FFF77EFF30B96068FFF777FFFF28F4D185
:106F9000012070BD0020FCE7F7B5037A019204469A
:106FA0000D460BB9FFF790FF25B14FF496712046BF
:106FB000FFF7DDFF606845F04001FFF75CFF032647
:106FC00001AFB95D6068FFF756FF013EF9D2002DB1
:106FD00060680CBF95218721FFF74DFF6068FFF7C0
:106FE0004CFF0B256068FFF748FF0306607203D56E
:106FF000013D15F0FF05F5D103B0F0BD70B50446B5
:107000000D46164637210022FFF7C6FF32462946B5
:107010002046BDE87040FFF7BFBF00002DE9F041FA
:1070200000250572057085724160044690461E4633
:1070300005F0D4F941460746606800F0BBF9636883
:10704000494A1D720125DA601D822046FFF73CFF88
:1070500063682946187D09F088FB0A256068FF21CE
:10706000013DFFF708FF15F0FF05F7D163682946DA
:10707000187D09F07AFB0A25002211462046FFF709
:107080008BFF0128804618D0013D15F0FF0507D180
:10709000202320462370FFF726FF0020BDE8F08163
:1070A0006068FD21FFF7E7FE4FF402786068FFF7A4
:1070B000E4FEB8F10108F9D1DEE74FF4D5720821FA
:1070C0002046FFF769FF052814D184F80A800025BF
:1070D000BFB22A4629212046FFF790FF0246D8B1C9
:1070E0004FF4FA6239462046FFF7CAFE0028F0D076
:1070F0004323CEE704256068FFF7BFFE013D15F08E
:10710000FF056072F7D1AA2804D10223A3724FF0C1
:107110008045DDE72523BCE7A37A022B18D13A216D
:107120002046FFF739FF08B13723B2E76068FFF761
:10713000A4FE00F0C000C02804BF0323A37260684F
:10714000FFF79BFE6068FFF798FE6068FFF795FE0B
:107150002046FFF7C8FE63683079B168B2891A82A9
:107160001872D960012099E790D0030038B5837A6E
:10717000032B18BF490215460A4611210446FFF7A2
:107180000BFF30B1302323702046FFF7ACFE002503
:107190000BE029464FF400722046FFF7B7FE054684
:1071A0000028F1D02046FFF79EFE284638BD10B5D6
:1071B000837A032B0A4618BF4A0212210446FFF7BE
:1071C000EBFE30B1312320462370FFF78CFE002008
:1071D00010BD0120FCE710B500220C210446FFF78A
:1071E000DBFE30B1282320462370FFF77CFE002011
:1071F00010BD2046FFF777FE0120F9E7F8B50446F9
:1072000016461F46FFF7D3FF68B10025ABB29F4279
:1072100006EB452109D94FF400722046FFF776FEB0
:1072200001350028F2D10020F8BD2046BDE8F84025
:10723000FFF7D1BF38B5044615464068FFF71BFE7F
:107240004FF400726068294600F0E6F86068FF219C
:10725000FFF711FE6068FF21FFF70DFE6068FFF782
:107260000CFE607200F01F00052806D05723204650
:107270002370FFF738FE002038BD0120FCE770B511
:10728000837A032B18BF490215460A461821044683
:10729000FFF782FE064630B1322323702046FFF707
:1072A00022FE00251FE02A46FE212046FFF7C2FFEE
:1072B0000028F3D04FF4FA612046FFF758FE054648
:1072C00008B95A23E9E732460D212046FFF764FE4C
:1072D00008B12923E1E76068FFF7CFFD0028F8D166
:1072E0002046FFF700FE284670BD13B501914FF40C
:1072F000FA610446FFF73BFE019A30B95B23237025
:107300002046FFF7F0FD002005E0FC212046FFF7B6
:1073100091FF0028F4D002B010BD10B5837A032B82
:107320000A4618BF4A0219210446FFF735FE30B15C
:10733000332320462370FFF7D6FD002010BD012027
:10734000FCE738B54FF4FA610446FFF710FE054636
:1073500030B9562323702046FFF7C5FD284638BDB7
:107360006068FD21FFF787FDF5E7F8B5044616468E
:107370001F46FFF7D2FF70B10025BD4206EB452145
:10738000204604D0FFF7B1FF28B10135F5E7BDE88D
:10739000F840FFF7D6BF2046FFF7A5FD0020F8BD57
:1073A000014B01221A7070471CE60320011D006882
:1073B00005F096BC10B504460175006805F04CFC5C
:1073C000207D012109F0C0F9207D0121BDE8104098
:1073D00009F0CBB9006805F06ABC0068FF2105F030
:1073E0001FBD000037B51346074A00920025074C21
:1073F000006825700A46294605F018FD2378002B01
:10740000FCD0002003B030BDA1730B001CE60320AC
:10741000006805F005BD000037B51346064A009226
:107420000025064C006825702A4605F0FFFC2378ED
:10743000002BFCD003B030BDA1730B001CE6032071
:1074400010B54218405C937854781B0443EA042337
:107450000343D07843EA006010BD4318405C5A787B
:1074600040EA0220704710B42AB902685DF8044B64
:107470009268C9B210475DF8044BD2B207F03DB82C
:1074800012B903689B681847D2B207F036B810B536
:107490000446FFF7F5FF2046BDE8104007F015B899
:1074A0000368C9B29B6818474FF40052028042211A
:1074B000002210B5C0E90122C0E90322C0E905227B
:1074C000C0E90722C0E90922C0E90B22C0E90D2268
:1074D000C0E90F22C0E91122C0E91322C0E9152238
:1074E000C0E91722C0E91922C0E91B22C0E91D2208
:1074F000C0E91F22C0F8E810802180F8091100F1CE
:10750000F401C0F814112549C0F8C42000F1F604B4
:10751000C0E94612C0E92122C0E92322C0E92522A0
:10752000C0E92722C0E92922C0E92B22C0E92D2287
:10753000C0E92F22C0E93E22C0E94022C0E943222F
:10754000C0F8D020C0F8D82080F80821C0F8202149
:10755000C0E94941C0E94D21C0E951211049C0F8B5
:107560004C1140F66411A0F85011582180F85D11BB
:107570000121C0E94B22C0E94F22C0F8542180F814
:107580006421C0F86821A0F86C21C0F8EC20C0F894
:10759000F010A0F87221A0F8742110BD00000202C2
:1075A00000026464F8B504460D46D0F8FC00A9B9A1
:1075B000A8B1FCF774FD94F8E930C4F8FC50C4F8A5
:1075C0003451C4F8F85013B994F8EA3023B1204983
:1075D000D4F8D40006F08FFF012011E0B8B9284696
:1075E000FCF75BFDC4F8FC00C4F8340160BB94F800
:1075F000E930C4F8F80023B994F8EA300BB9002058
:10760000F8BD1449D4F8D40006F075FFF7E7084632
:10761000FCF743FD064640B994F8E9301BB994F8ED
:10762000EA30002BEBD00C49ECE7D4E93E27AA4224
:1076300028BF2A46394609F051FF3846FCF72FFD8E
:10764000C4F8FC60C4F83461C4F8F850C4E700BF63
:10765000CC3C0C00F73C0C00223D0C000D2900F046
:10766000CD8009D8022900F0A780062900F0BE804D
:10767000012916D000207047132900F0D480282952
:1076800000F0DC801029F5D1102A00F0C98000F24A
:10769000BA80022A00F0C180032AEBD1D0F888001A
:1076A00066E0262A54D8002AE4D0013A252AE1D8F7
:1076B00001A353F822F000BF6F770B0075760B0023
:1076C00079770B007D770B0081770B0075760B00C7
:1076D00085770B0075760B0089770B0075760B00AC
:1076E00075760B0075760B0075760B0075760B00C2
:1076F00075760B0075760B008D770B0091770B007C
:1077000095770B0099770B0075760B0075760B005B
:107710009D770B0075760B0075760B0075760B0068
:1077200075760B0075760B0075760B0075760B0081
:1077300075760B0075760B00A1770B00A5770B0013
:1077400075760B0075760B0075760B00A9770B002C
:107750003C2A2DD005D8352A28D03B2A8AD1806CE6
:1077600006E0602A26D0612A84D1806900E0C068E2
:10777000003818BF012070470069F9E74069F7E752
:10778000C069F5E7006AF3E7406AF1E7C06AEFE72E
:10779000006BEDE7406BEBE7806BE9E7C06BE7E779
:1077A000806AE5E7006CE3E7406CE1E7C06CDFE787
:1077B000006DDDE7406DDBE7342A15D006D8132ACB
:1077C0000BD0152A7FF456AFC06ED1E7722A06D0CF
:1077D000732A7FF44FAF006ECAE7806EC8E7836DEF
:1077E000002B3BD1C06DC3E7406EC1E722B1082A30
:1077F0007FF440AF406FBBE7006FB9E7032A7FF427
:1078000039AF806FB4E7142A05D0152A7FF432AF60
:10781000D0F88000ACE7C06FAAE7D0F88400A7E7F3
:10782000D0F88C00A4E7602A05D0802A7FF422AF2C
:10783000D0F8A0009CE7D0F89C0099E7012A07D077
:10784000022A08D0002A7FF415AFD0F890008FE705
:10785000D0F894008CE7D0F8980089E701207047B1
:107860000D2935D007D8022919D006292AD0012997
:107870000DD00020704713292FD0282934D010298B
:10788000F7D1023AD2B2132AF3D81F4B04E0013ADF
:10789000D2B2602AEDD81D4B33F812007047342A5B
:1078A00027D007D8132A26D0152A14BF00204FF45A
:1078B00039607047722A20D0732A14BF00204FF419
:1078C00084707047E2B1082A14BF00200620704778
:1078D000032A14BF00201C207047602A12D0802A7F
:1078E00014BF0020A4207047022AC2D8084B985C1D
:1078F00070470C207047482070474FF40470704761
:107900001420704708207047E2490C0020490C0001
:107910000A4A0C0010B590F8EC10CA0715D4D0F83C
:107920006021594B22F0FF029A4201D18B070CD4FF
:1079300090F86131472B74D1B0F8623145F24114AF
:10794000A34204D111F0040F6BD0012070E045F286
:107950004214A34202D111F0080FF5E745F2423478
:10796000A34202D111F0100FEEE744F24714A342F4
:1079700002D111F0200FE7E744F64C44A34202D1B4
:1079800011F0400FE0E745F24C14A34202D111F090
:10799000800FD9E745F24E118B4204D190F8ED30BB
:1079A00013F0010FD0E745F24E318B4204D190F82D
:1079B000ED3013F0020FC7E745F250118B4204D1AE
:1079C00090F8ED3013F0040FBEE745F251118B42F1
:1079D00004D190F8ED3013F0080FB5E745F25231BD
:1079E0008B4204D190F8ED3013F0100FACE744F265
:1079F00053118B4204D190F8ED3013F0200FA3E720
:107A000045F253418B4204D190F8ED3013F0400F12
:107A10009AE745F253618B4203D190F9ED30002B88
:107A200093DB1A4B9A4204D190F8EE0000F001006B
:107A300010BD174B9A4204D190F8EE00C0F34000FD
:107A4000F6E7144B9A4204D190F8EE00C0F38000A0
:107A5000EEE7114B9A4204D190F8EE00C0F3C0005B
:107A6000E6E70E4B9A4204D190F8EE00C0F3001006
:107A7000DEE70B4B9A4204D190F8EE00C0F34010C1
:107A8000D6E70020D4E700BF0044544D00524C4DCF
:107A900000524D430054585400564C57005654471A
:107AA000005A444190F85E312A2B57D190F85F314B
:107AB000472B53D1D0F86031294A23F0FF0393427A
:107AC00011D090F86121472A1AD1B0F86221A2F5AD
:107AD000A241413989B2102907D922F0100145F29B
:107AE0004230814229D1012070471E4820FA01F11D
:107AF000C907F8D422F4007245F253418A42F2D009
:107B0000194A9342EFD002F1764202F58032934255
:107B1000E9D0164A9342E6D002F1022202F574023D
:107B20009342E0D002F1704202F500229342DAD093
:107B30000F481B1A58425841704744F247118A4275
:107B4000D1D044F64C418A42CDD045F24E318A42E2
:107B5000C9D044F253118A42C5D0CBE70020704708
:107B60000044544D03A8010000524C4D0054585499
:107B7000005A444110B590F8F010CA0715D4D0F857
:107B80006021594B22F0FF029A4201D18B070CD49D
:107B900090F86131472B74D1B0F8623145F241144D
:107BA000A34204D111F0040F6BD0012070E045F224
:107BB0004214A34202D111F0080FF5E745F2423416
:107BC000A34202D111F0100FEEE744F24714A34292
:107BD00002D111F0200FE7E744F64C44A34202D152
:107BE00011F0400FE0E745F24C14A34202D111F02E
:107BF000800FD9E745F24E118B4204D190F8F13055
:107C000013F0010FD0E745F24E318B4204D190F8CA
:107C1000F13013F0020FC7E745F250118B4204D147
:107C200090F8F13013F0040FBEE745F251118B428A
:107C300004D190F8F13013F0080FB5E745F2523156
:107C40008B4204D190F8F13013F0100FACE744F2FE
:107C500053118B4204D190F8F13013F0200FA3E7B9
:107C600045F253418B4204D190F8F13013F0400FAC
:107C70009AE745F253618B4203D190F9F130002B22
:107C800093DB1A4B9A4204D190F8F20000F0010005
:107C900010BD174B9A4204D190F8F200C0F3400097
:107CA000F6E7144B9A4204D190F8F200C0F380003A
:107CB000EEE7114B9A4204D190F8F200C0F3C000F5
:107CC000E6E70E4B9A4204D190F8F200C0F30010A0
:107CD000DEE70B4B9A4204D190F8F200C0F340105B
:107CE000D6E70020D4E700BF0044544D00524C4D6D
:107CF00000524D430054585400564C5700565447B8
:107D0000005A4441D0F8D00010B103689B6818476E
:107D10007047000037B53D4B044604F25F15186804
:107D200000909B88ADF8043005222946684609F08A
:107D3000C5FB28B9D4F8A43013B1012003B030BD7D
:107D40003349684609F058FC05222946684609F07F
:107D5000B5FB18B9D4F8A830002BEED12D496846F0
:107D600009F04AFC05222946684609F0A7FB18B924
:107D7000D4F8AC30002BE0D12749684609F03CFC30
:107D800005222946684609F099FB18B9D4F8B030A5
:107D9000002BD2D12149684609F02EFC0522294644
:107DA000684609F08BFB18B9D4F8B430002BC4D165
:107DB0001B49684609F020FC05222946684609F05F
:107DC0007DFB18B9D4F8B830002BB6D115496846F8
:107DD00009F012FC05222946684609F06FFB18B924
:107DE000D4F8BC30002BA8D10F49684609F004FC38
:107DF00005222946684609F061FB28B9D4F8C0007D
:107E0000003818BF012099E7002097E7783D0C0063
:107E10004E3D0C00543D0C005A3D0C00603D0C00E2
:107E2000663D0C006C3D0C00723D0C0037B5624B9A
:107E3000044604F25F15186800909B88ADF8043082
:107E400005222946684609F039FB78B9D4F8A430F0
:107E500063B1D3F8D4204AB1D3F8CC20002A40F043
:107E6000A380D3F8D030002B40F09E805349684661
:107E700009F0C2FB05222946684609F01FFB78B9C4
:107E8000D4F8A83063B1D3F8D4204AB1D3F8CC20C9
:107E9000002A40F08980D3F8D030002B40F0848055
:107EA0004749684609F0A8FB05222946684609F0BB
:107EB00005FB68B9D4F8AC3053B1D3F8D4203AB14B
:107EC000D3F8CC20002A6FD1D3F8D030002B6BD15F
:107ED0003C49684609F090FB05222946684609F0AE
:107EE000EDFA68B9D4F8B03053B1D3F8D4203AB130
:107EF000D3F8CC20002A57D1D3F8D030002B53D15F
:107F00003149684609F078FB05222946684609F0A0
:107F1000D5FA68B9D4F8B43053B1D3F8D4203AB113
:107F2000D3F8CC20002A3FD1D3F8D030002B3BD15E
:107F30002649684609F060FB05222946684609F093
:107F4000BDFA58B9D4F8B83043B1D3F8D4202AB127
:107F5000D3F8CC2042BBD3F8D0302BBB1C496846A9
:107F600009F04AFB05222946684609F0A7FA40B9FC
:107F7000D4F8BC302BB11A6F1AB19A6EA2B9DB6E6D
:107F800093B91449684609F037FB0522294668462B
:107F900009F094FA58B9D4F8C03053B1186F20B131
:107FA0009A6E0AB9D86E00B1012003B030BD00202E
:107FB000FBE71846F9E700BF783D0C004E3D0C008A
:107FC000543D0C005A3D0C00603D0C00663D0C0019
:107FD0006C3D0C00723D0C0037B5384B044604F282
:107FE0005F15186800909B88ADF80430052229467B
:107FF000684609F063FA20B9D4F8A400013003B050
:1080000030BD2F49684609F0F7FA0522294668462F
:1080100009F054FA10B9D4F8A800EFE729496846E6
:1080200009F0EAFA05222946684609F047FA10B92C
:10803000D4F8AC00E2E72449684609F0DDFA0522ED
:108040002946684609F03AFA10B9D4F8B000D5E7E5
:108050001E49684609F0D0FA05222946684609F00B
:108060002DFA10B9D4F8B400C8E71949684609F0E8
:10807000C3FA05222946684609F020FA10B9D4F857
:10808000B800BBE71349684609F0B6FA052229464D
:10809000684609F013FA10B9D4F8BC00AEE70E49EF
:1080A000684609F0A9FA05222946684609F006FA49
:1080B00010B9D4F8C000A1E70020A0E7783D0C007B
:1080C0004E3D0C00543D0C005A3D0C00603D0C0030
:1080D000663D0C006C3D0C00723D0C0037B5384B12
:1080E000044604F25F15186800909B88ADF80430D0
:1080F00005222946684609F0E1F920B9D4F8A40020
:10810000023003B030BD2F49684609F075FA0522E8
:108110002946684609F0D2F910B9D4F8A800EFE76B
:108120002949684609F068FA05222946684609F097
:10813000C5F910B9D4F8AC00E2E72449684609F063
:108140005BFA05222946684609F0B8F910B9D4F857
:10815000B000D5E71E49684609F04EFA05222946C7
:10816000684609F0ABF910B9D4F8B400C8E719496A
:10817000684609F041FA05222946684609F09EF949
:1081800010B9D4F8B800BBE71349684609F034FACF
:1081900005222946684609F091F910B9D4F8BC00C7
:1081A000AEE70E49684609F027FA052229466846D7
:1081B00009F084F910B9D4F8C000A1E70020A0E7C5
:1081C000783D0C004E3D0C00543D0C005A3D0C0017
:1081D000603D0C00663D0C006C3D0C00723D0C00D7
:1081E00037B5394B044604F25F15186800909B8838
:1081F000ADF8043005222946684609F05FF920B938
:10820000D4F8A400663003B030BD3049684609F0A8
:10821000F3F905222946684609F050F910B9D4F857
:10822000A800EFE72A49684609F0E6F90522294641
:10823000684609F043F910B9D4F8AC00E2E72549E3
:10824000684609F0D9F905222946684609F036F949
:1082500010B9D4F8B000D5E71F49684609F0CCF949
:1082600005222946684609F029F910B9D4F8B40066
:10827000C8E71A49684609F0BFF905222946684649
:1082800009F01CF910B9D4F8B800BBE714496846E6
:1082900009F0B2F905222946684609F00FF918B924
:1082A000D4F8BC003430AEE70E49684609F0A4F9B2
:1082B00005222946684609F001F910B9D4F8C00032
:1082C000F0E700209FE700BF783D0C004E3D0C001A
:1082D000543D0C005A3D0C00603D0C00663D0C0006
:1082E0006C3D0C00723D0C0037B5394B044604F26E
:1082F0005F15186800909B88ADF804300522294668
:10830000684609F0DBF820B9D4F8A400673003B060
:1083100030BD3049684609F06FF9052229466846A4
:1083200009F0CCF810B9D4F8A800EFE72A4968465C
:1083300009F062F905222946684609F0BFF810B92C
:10834000D4F8AC00E2E72549684609F055F9052262
:108350002946684609F0B2F810B9D4F8B000D5E75C
:108360001F49684609F048F905222946684609F080
:10837000A5F810B9D4F8B400C8E71A49684609F05E
:108380003BF905222946684609F098F810B9D4F857
:10839000B800BBE71449684609F02EF905222946C2
:1083A000684609F08BF818B9D4F8BC003530AEE750
:1083B0000E49684609F020F905222946684609F069
:1083C0007DF810B9D4F8C000F0E700209FE700BFA7
:1083D000783D0C004E3D0C00543D0C005A3D0C0005
:1083E000603D0C00663D0C006C3D0C00723D0C00C5
:1083F00037B5394B044604F25F15186800909B8826
:10840000ADF8043005222946684609F057F828B926
:10841000D4F8A430D3F8D40003B030BD2F49684657
:1084200009F0EAF805222946684609F047F810B92C
:10843000D4F8A830EEE72A49684609F0DDF80522AD
:108440002946684609F03AF810B9D4F8AC30E1E7AB
:108450002449684609F0D0F805222946684609F003
:108460002DF810B9D4F8B030D4E71F49684609F0A8
:10847000C3F805222946684609F020F810B9D4F857
:10848000B430C7E71949684609F0B6F8052229460D
:10849000684609F013F810B9D4F8B830BAE71449AF
:1084A000684609F0A9F805222946684609F006F849
:1084B00018B9D4F8BC30186FAEE70E49684609F019
:1084C0009BF805222946684608F0F8FF10B9D4F851
:1084D000C030F0E700209FE7783D0C004E3D0C00D7
:1084E000543D0C005A3D0C00603D0C00663D0C00F4
:1084F0006C3D0C00723D0C0037B53A4B044604F25B
:108500005F15186800909B88ADF804300522294655
:10851000684608F0D3FF30B9D4F8A430D3F8D400BB
:10852000013003B030BD3049684609F065F80522D6
:108530002946684608F0C2FF10B9D4F8A830EDE724
:108540002A49684609F058F805222946684608F085
:10855000B5FF10B9D4F8AC30E0E72549684609F01A
:108560004BF805222946684608F0A8FF10B9D4F850
:10857000B030D3E71F49684609F03EF80522294686
:10858000684608F09BFF10B9D4F8B430C6E71A4922
:10859000684609F031F805222946684608F08EFF42
:1085A00010B9D4F8B830B9E71449684609F024F88E
:1085B00005222946684608F081FF18B9D4F8BC3076
:1085C000186FADE70E49684609F016F805222946EE
:1085D000684608F073FF10B9D4F8C030F0E7002007
:1085E0009FE700BF783D0C004E3D0C00543D0C0051
:1085F0005A3D0C00603D0C00663D0C006C3D0C00CB
:10860000723D0C0013B5304B044604F25F14186839
:1086100000909B88ADF8043005222146684608F09A
:108620004DFF10B9642002B010BD2849684608F01B
:10863000E3FF05222146684608F040FF0028F1D0FC
:108640002349684608F0D8FF05222146684608F00D
:1086500035FF0028E6D01F49684608F0CDFF052207
:108660002146684608F02AFF0028DBD01A496846F0
:1086700008F0C2FF05222146684608F01FFF0028C7
:10868000D0D01649684608F0B7FF05222146684653
:1086900008F014FF0028C5D01149684608F0ACFF67
:1086A00005222146684608F009FF48B10D49684691
:1086B00008F0A2FF05222146684608F0FFFE08B92F
:1086C0003220B0E70020AEE7783D0C004E3D0C00B4
:1086D000543D0C005A3D0C00603D0C00663D0C0002
:1086E0006C3D0C00723D0C0037B5384B044604F26B
:1086F0005F15186800909B88ADF804300522294664
:10870000684608F0DBFE18B9D4F8A40003B030BD09
:108710002F49684608F070FF05222946684608F090
:10872000CDFE10B9D4F8A800F0E72A49684608F051
:1087300063FF05222946684608F0C0FE10B9D4F848
:10874000AC00E3E72449684608F056FF05222946B5
:10875000684608F0B3FE10B9D4F8B000D6E71F4958
:10876000684608F049FF05222946684608F0A6FE3B
:1087700010B9D4F8B400C9E71949684608F03CFFBD
:1087800005222946684608F099FE10B9D4F8B800C9
:10879000BCE71449684608F02FFF052229466846C1
:1087A00008F08CFE10B9D4F8BC00AFE70E4968465B
:1087B00008F022FF05222946684608F07FFE10B91E
:1087C000D4F8C000A2E70020A0E700BF783D0C006D
:1087D0004E3D0C00543D0C005A3D0C00603D0C0019
:1087E000663D0C006C3D0C00723D0C0070470000B3
:1087F00038B513880C4D012B14460ED10A0202F431
:1088000040722A8001332380FFF7F0FF20882B88F5
:10881000984214BF0320002038BD022BF2D12A88D1
:108820000A430632EDE700BF1EE6032030B54A7862
:108830000D784C882A4454FA82F000EB142355FA40
:1088400082F203F0FF0352FA80F20B7313444B736E
:10885000002293B29C420AD98B68087B9B5C03443C
:10886000487BDBB20B7303444B730132F1E730BD3D
:1088700090F85A31194490F85B31C9B280F85A1116
:10888000194480F85B1170472DE9F74FB1F802B039
:108890000BF1080B1FFA8BFB4FF00008ABF1020342
:1088A00004460D46DA46C1460093BAF1000F00F0C7
:1088B000A680667894F8E810D4F8C800564528BF1A
:1088C0005646AAEB060A1FFA8AFABAF1010F02BF4E
:1088D00006F1FF36B6B24FF0020A07F05FFCB9F1BD
:1088E000000F5CD1D4F8C8000368B5219B68984795
:1088F000D4F8C800036862219B689847D4F8C80080
:10890000297803689B689847D4F8C8006978036899
:108910009B689847A978D4F8C800FEF7C1FD69881C
:10892000D4F8C800090AFEF7BBFD4B466A88D4F8A4
:10893000C8001FFA83F909F106074A45BFB20DD9ED
:10894000BE420BD9AA680168019342448F68D15C8A
:10895000B847019B0133E9E7B946A6E7023EC844A0
:10896000B7421FFA88F80CD10368297B9B689847A7
:10897000D4F8C800697B03689B68984709F1080729
:10898000BFB25F45E8D294F87411D4F8C80007F07C
:108990000CFC0028E0D00C2003B0BDE8F08F0022D2
:1089A00091B219FA82F78E42D4F8C800BFB210D93A
:1089B000B5F802E008EB020C531CF445019308DA09
:1089C000A968026811F80C1092689047019B1A463A
:1089D000E6E7009B88449F421FFA88F8D1D1023E07
:1089E000B242CED10368297B9B689847D4F8C8006F
:1089F000697B03689B6898471FFA8BF7C1E7D4F837
:108A0000C80007F0D6FB0028C6D0C4E770B50546FD
:108A1000D0F8CC0003680C469B68B5219847D5F880
:108A2000CC00036862219B689847D5F8CC00217878
:108A300003689B689847D5F8CC00617803689B6809
:108A40009847D5F8CC00A17803689B689847D5F87B
:108A5000CC0061880368090A9B6898470026D5F80E
:108A6000CC0061880368B2B291429B6804D9A168C6
:108A7000895C98470136F2E7217B9847D5F8CC000E
:108A8000617B0368BDE870409B68184710B50446D9
:108A9000D0F8DC0004F0C4F994F8083194F8092106
:108AA0009A420BD9FF2801D122783AB1D4F8042197
:108AB000D05494F80831013384F8083110BD000017
:108AC0002DE9FF41D0F8043104460D467BB990F8FA
:108AD000E93023B990F8EA30002B00F0CA806649EB
:108AE000D4F8D40004B0BDE8F04105F0EABCD0F8F9
:108AF000E430624A02930026012380F80861694647
:108B0000D0F8DC00ADF80C3000928DF8046004F071
:108B1000E7F894F8E000314607F027FEB52120463B
:108B2000FFF7B4FF62212046FFF7B0FF2978204607
:108B3000FFF7ACFF69782046FFF7A8FFA978204629
:108B4000FFF7A4FF69882046090AFFF79FFF94F802
:108B5000E930002B42D04A49D4F8D40005F0B1FCEA
:108B60001022D4F8D400B521FEF78AFC4549D4F888
:108B7000D40005F0A6FC1022D4F8D4006221FEF740
:108B80007FFC4049D4F8D40005F09BFC10222978E2
:108B9000D4F8D400FEF774FC3A49D4F8D40005F0B8
:108BA00090FC10226978D4F8D400FEF769FC3549AE
:108BB000D4F8D40005F085FC1022A978D4F8D400AC
:108BC00005F09BFC2F49D4F8D40005F07AFC6988A5
:108BD000D4F8D4001022090A05F08FFCDFF8A48035
:108BE00000266A88B3B29A4216D91F46AB6820465F
:108BF000D95DFFF74BFF94F8E9305BB14146D4F8FB
:108C0000D40005F05EFCAB68D4F8D400D95D102226
:108C1000FEF736FC0136E4E7297B2046FFF736FFF6
:108C2000697B2046FFF732FF94F8E000012107F04E
:108C30009CFDD4F8DC0004F03AF894F8E930C3B1B4
:108C40001049D4F8D40005F03CFC297BD4F8D400BA
:108C50001022FEF715FC0B49D4F8D40005F031FCC6
:108C6000697BD4F8D400102204B0BDE8F041FEF7CF
:108C70000EBC04B0BDE8F0817E3D0C00903B0C00C2
:108C8000B33D0C006A4C0C00F8B590F8E93004468E
:108C90000D461646002B00F0828090F84C7140493A
:108CA000D0F8D40005F00DFC2B78012B3CD13D49C8
:108CB000D4F8D40005F005FC3B49D4F8D40005F005
:108CC00000FC2B8840F20172934245D13749D4F819
:108CD000D40005F0F6FB3649D4F8D40005F0F1FBDA
:108CE0006988D4F8D400102205F007FC012F01D1C7
:108CF000002E49D02F49D4F8D4002F4F05F0E1FBC6
:108D000000266A88D4F8D400B3B29A4241D93946D1
:108D100005F0D7FBB3B2A968D4F8D400C95C10221F
:108D2000FEF7AEFB0136ECE7052BD4F8D40001D1F9
:108D30002249BFE7062B01D12149BBE70A2B01D10C
:108D40002049B7E7204905F0BCFB2978D4F8D400C6
:108D50001022FEF795FBAFE740F606029342D4F8E7
:108D6000D40001D11949B4E740F60612934201D16B
:108D70001749AEE7144905F0A4FB6978D4F8D4008C
:108D80001022FEF77DFBA6E71249D4F8D40005F0C7
:108D900098FBD4F8D400BDE8F84005F096BBF8BDC8
:108DA000C43D0C00C93D0C00D93D0C00DE3D0C005B
:108DB000EC3D0C00F53D0C006A4C0C00CD3D0C0068
:108DC000D13D0C00D53D0C004A400C00E23D0C00AA
:108DD000E73D0C00FF3D0C0038B5B0F86C5104467F
:108DE00055B990F8E9300BB9002038BD1A49D4F8CC
:108DF000D40005F080FBF7E7D0F868312BB190F88C
:108E0000E930002BF0D01549F1E72846FBF745F98A
:108E100094F8E930C4F8680130B91BB994F8EA3025
:108E2000002BE1D00E49E2E77BB10E49D4F8D40023
:108E300005F047FBD4F8D450B4F86C110A22284648
:108E400005F05BFB284605F040FB0023A4F86E31DB
:108E5000A4F870310120C8E7113E0C00623E0C00FE
:108E6000A53E0C00C93E0C00B0F86E31B0F8702180
:108E700093423BBFB0F86C01C018981A801A80B2B8
:108E8000704708B50146FFF7EFFFB1F86C31181ACB
:108E900080B208BD2DE9F041B0F86E31B0F86C51E8
:108EA000ED1AADB2954228BF154616460446D0F8D5
:108EB0006801771B2A461844BFB2884608F00EFBAB
:108EC0009FB1D4F868013A4608EB050108F006FBAB
:108ED000A4F86E712046FFF7C7FFB4F872318342E1
:108EE00038BFA4F87201BDE8F081B4F86E211644D1
:108EF000A4F86E61EEE7000037B5D0F8683104469B
:108F00000D4613B1B0F86C3153B994F8E90028B1AB
:108F10002449D4F8D40005F0EEFA002003B030BDA7
:108F2000FFF7AFFF6B8808339BB2834208D994F8F0
:108F3000E9301BB994F8EA000028EFD01A49E8E7B5
:108F400046F2B523022269462046ADF80030FFF70D
:108F5000A1FF012229462046FFF79CFF0122A91804
:108F60002046FFF797FF6B888DF8043002221B0A1A
:108F700001A920468DF80530FFF78CFF6A88A968A3
:108F80002046FFF787FF012205F10C012046FFF77D
:108F900081FF2046012205F10D01FFF77BFF012033
:108FA000BCE700BFEF3E0C00173F0C002DE9F84F67
:108FB0000E780D2E04460D4601F0288209D8022EA7
:108FC00000F09A87062E01F0CC81012E4FD0BDE82B
:108FD000F88F132E01F0EB83282E01F0CA84102E97
:108FE000F5D10B688E4A23F0FF03934241F06A8269
:108FF000C66F002EEBD0A8680021FEF721FA706042
:10900000AA68E36F12791A72AA68E36F52795A72EA
:10901000AA68E36F92799A72A868E66F0821FEF752
:109020000FFAF060A868E66F0C21FEF716FA30829E
:10903000A868E66F0E21FEF710FA7082E36F4FF01A
:10904000FF325A61E36F1A6A7AB1197808070CD4B3
:10905000191D143351F8040B42F8040B9942F9D14D
:10906000E26F137843F008031370E36F3DE00B6881
:109070006C4A23F0FF03934241D1C668002EA6D06C
:10908000A8680021FEF7DCF97060A868E668042192
:10909000FEF7D6F9B060A868E6680821FEF7D0F9B7
:1090A000F060A868E6680C21FEF7CAF93061A8688C
:1090B000E6681021FEF7C4F97061E3684FF0FF32F3
:1090C0009A61E3685A6A7AB1197809070CD4191DB4
:1090D000183351F8040B42F8040B9942F9D1E268B5
:1090E000137843F008031370E3681B785F077FF57C
:1090F0006EAF29462046BDE8F84FFFF7FDBE4A4A4D
:1091000093423DD10669002E3FF461AFA86800216B
:10911000FEF796F97060AA68236912791A72AA6834
:10912000236952795A72AA68236992799A72AA6855
:109130002369D279DA72A86826690821FEF780F9D6
:10914000F060A86826690C21FEF77AF9306123697E
:109150004FF0FF325A6123691A6A7AB119780E0703
:109160000CD4191D143351F8040B42F8040B994226
:10917000F9D12269137843F0080313702369B4E727
:109180002A4A934254D14669002E3FF420AFA86882
:109190000021FEF755F97060A86866690421FEF7A2
:1091A0005CF93081A86866690621FEF756F970817E
:1091B000A86866690821FEF750F9B081A868666959
:1091C0000A21FEF74AF9F081A86866690C21FEF7CA
:1091D00044F93082A86866690E21FEF73EF9708274
:1091E000A86866691021FEF738F9B08263694FF00C
:1091F000FF329A6163695A6A7AB1197808070CD408
:10920000191D183351F8040B42F8040B9942F9D197
:109210006269137843F008031370636965E700BF60
:1092200000141000000114000003100000041200DC
:109230008C4A934249D1C669002E3FF4C8AEA86853
:109240000021FEF7FDF87060AA68E36912791A72CE
:10925000A868E6690821FEF7F3F8F060A868E669F7
:109260000C21FEF7EDF83061A868E6691021FEF7E1
:10927000E7F87061A868E6691421FEF7E1F8B061CB
:10928000A868E6691821FEF7DBF8F061A868E669CE
:109290001C21FEF7D5F83062E3694FF0FF325A62C5
:1092A000E3691A6B7AB1197809070CD4191D2433B4
:1092B00051F8040B42F8040B9942F9D1E269137892
:1092C00043F008031370E3690FE7674A934240F0E5
:1092D000CD80066A002E3FF47AAEA8680021FEF722
:1092E000AFF87060A868266A0421FEF7B6F83081EE
:1092F000AA68236A92799A72AA68236AD279DA7282
:10930000AA68236A127A1A73AA68236A527A5A736D
:10931000AA68236A927A9A73AA68236AD27ADA735D
:109320000C21A868266AFEF78BF83061A868266AC7
:109330001021FEF785F87061AA68236A127D1A76FB
:10934000AA68236A527D5A76AA68236A927D9A7621
:10935000AA68236AD27DDA76A868266A1821FEF701
:109360006FF8F061A868266A1C21FEF769F8306280
:10937000A868266A2021FEF763F87062A868266A4A
:109380002421FEF75DF8B062A868266A2821FEF75E
:1093900057F8F062266AA8682C21FEF751F830636E
:1093A000A868266A3021FEF74BF87063A868266A21
:1093B0003421FEF745F8B063A868266A3821FEF725
:1093C0003FF8F063A868266A3C21FEF739F830645C
:1093D000A868266A4021FEF733F87064A868266AF8
:1093E0004421FEF72DF8B064A868266A4821FEF7EC
:1093F00027F8F064A868266A4C21FEF72EF8A6F834
:109400005000AA68236A92F84E2083F85220266AF8
:10941000A8685421FEF714F8B065A868266A582198
:10942000FEF71BF8A6F85C00A868266A5A21FEF72A
:1094300014F8A6F85E00226A4FF0FF331366226A22
:109440005366216A086F58B10B781B0708D45C2259
:10945000043108F043F8226A137843F008031370CC
:10946000236A42E60005200000075C008E4A934212
:1094700037D1436A002B3FF4AAAD8A6812781A717B
:10948000466AA8680421FDF7DBFFB060A868666A39
:109490000821FDF7D5FFF060A868666A0C21FDF78A
:1094A000CFFF3061A868666A1021FDF7C9FF7061BF
:1094B000636A4FF0FF329A61636A5A6A7AB1197827
:1094C0000F070CD4191D183351F8040B42F8040B84
:1094D0009942F9D1626A137843F008031370636A02
:1094E00003E6724A934239D1C66A002E3FF46FAD4B
:1094F000A8680021FDF7A4FF7060A868E66A04214F
:10950000FDF79EFFB060A868E66A0821FDF798FFA6
:10951000F060A868E66A0C21FDF792FF3061A86848
:10952000E66A1021FDF78CFF7061E36A4FF0FF32AD
:109530009A61E36A5A6A7AB119780E070CD4191D38
:10954000183351F8040B42F8040B9942F9D1E26A3E
:10955000137843F008031370E36AC6E5544A934254
:1095600051D1066B002E3FF432ADA8680021FDF703
:1095700067FF7060A868266B0421FDF761FFB0608B
:10958000A868266B0821FDF75BFFF060A868266BD2
:109590000C21FDF755FF3061A868266B1021FDF7FF
:1095A0004FFF7061A868266B1421FDF749FFB06179
:1095B000A868266B1821FDF743FFF061A868266BA9
:1095C0001C21FDF73DFF3062A868266B2021FDF7C6
:1095D00037FF7062236B4FF0FF329A62236B5A6B36
:1095E0007AB1197808070CD4191D283351F8040BE7
:1095F00042F8040B9942F9D1226B137843F0080327
:109600001370236B71E52B4A934255D1436B002BAA
:109610003FF4DDAC8A6812781A71466BA8680421A1
:10962000FDF70EFFB060A868666B0821FDF708FF24
:10963000F060A868666B0C21FDF702FF3061A86836
:10964000666B1021FDF7FCFE7061AA68636B127DEA
:109650001A76AA68636B527D5A76AA68636B927D0C
:109660009A76AA68636BD27DDA76666BA868182151
:10967000FDF7E6FEF061636B4FF0FF321A62636B39
:10968000DA6A7AB1197809070CD4191D203351F818
:10969000040B42F8040B9942F9D1626B137843F042
:1096A00008031370636B20E5000914000011140017
:1096B0000012240000131C00304A934260D1836BD7
:1096C000002B3FF484AC8A6812781A718A68836B25
:1096D000D278DA71866BA8680421FDF7B1FEB0601C
:1096E000A868A66B0821FDF7ABFEF060A868A66B22
:1096F0000C21FDF7A5FE3061A868A66B1021FDF7CF
:109700009FFE7061A868A66B1421FDF799FEB061F9
:10971000AA68A36B127E1A77AA68A36B527E5A7747
:10972000AA68A36B927E9A77AA68A36BD27EDA7737
:10973000A868A66B1C21FDF783FE3062A868A66BA3
:109740002021FDF77DFE7062A36B4FF0FF329A621D
:10975000A36B5A6B7AB119780F070CD4191D2833F3
:1097600051F8040B42F8040B9942F9D1A26B13781B
:1097700043F008031370A36BB7E400BF0014240088
:10978000A14A934240F0F080C66B002E3FF41FAC1C
:10979000A8680021FDF754FE7060AA68E36B127997
:1097A0001A72AA68E36B52795A72A868E66B0621AE
:1097B000FDF753FE7081AA68E36B127A1A73AA68E8
:1097C000E36B527A5A73AA68E36B927A9A73AA6827
:1097D000E36BD27ADA73AA68E36B127B1A74E66BD6
:1097E000A8681021FDF72CFE7061A868E66B1421B3
:1097F000FDF726FEB061AA68E36B127E1A77AA68AD
:10980000E36B527E5A77AA68E36B927E9A77AA68D6
:10981000E36BD27EDA77A868E66B1C21FDF710FEB9
:109820003062A868E66B2021FDF70AFE7062A86826
:10983000E66B2421FDF704FEB062A868E66B2821E0
:10984000FDF7FEFDF062E66BA8682C21FDF7F8FD40
:109850003063A868E66B3021FDF7F2FD7063A868FD
:10986000E66B3421FDF7ECFDB063A868E66B3821A8
:10987000FDF7E6FDF063A868E66B3C21FDF7E0FD2F
:109880003064A868E66B4021FDF7DAFD7064A868D3
:10989000E66B4421FDF7D4FDB064A868E66B48216F
:1098A000FDF7CEFDF064A868E66B4C21FDF7C8FD1E
:1098B0003065A868E66B5021FDF7C2FD7065542144
:1098C000A868E66BFDF7BCFDB065A868E66B58219B
:1098D000FDF7C3FDA6F85C00A868E66B5A21FDF70A
:1098E000BCFDA6F85E00A868E66B5C21FDF7B5FD3F
:1098F000A6F86000A868E66B5E21FDF7AEFDA6F84D
:109900006200A868E66B6021FDF7A7FDA6F8640079
:10991000A868E66B6221FDF7A0FDA6F86600A868BE
:10992000E66B6421FDF78CFDB066A868E66B6821E4
:10993000FDF786FDF066E26B4FF0FF339367E26B55
:10994000D367E16BD1F8880058B10B781E0708D4B3
:109950007422043107F0C2FDE26B137843F0080370
:109960001370E36BFFF7C1BB284A934250D1866A5C
:10997000002E3FF42CABA8680021FDF761FD70605C
:10998000A868A66A0421FDF75BFDB060A868A66A16
:109990000821FDF755FDF060A868A66A0C21FDF7C7
:1099A0005CFD3082AA68A36A927B9A74AA68A36A53
:1099B000D27BDA74AA68A36A127C1A75AA68A36AB1
:1099C000527C5A75AA68A36A927C9A75A36AAA689F
:1099D000D27CDA75A36A4FF0FF329A61A36A1A6AE1
:1099E0007AB1197808070CD4191D183351F8040BF3
:1099F00042F8040B9942F9D1A26A137843F00803A4
:109A00001370A36AFFF771BB0017740000211400E4
:109A1000844A93423AD1066C002E3FF4D8AAA86833
:109A20000021FDF70DFD7060A868266C0421FDF78C
:109A300007FDB060A868266C0821FDF701FDF06005
:109A4000A868266C0C21FDF7FBFC3061A868266C29
:109A50001021FDF7F5FC7061236C4FF0FF329A6125
:109A6000236C5A6A7AB1197809070CD4191D183376
:109A700051F8040B42F8040B9942F9D1226C137887
:109A800043F008031370236CFFF72FBB664A934221
:109A900038D1466C002E3FF49AAAA8680021FDF741
:109AA000CFFC7060AA68636C12791A72AA68636C42
:109AB000127A1A73AA68636C527A5A73AA68636C32
:109AC000927A9A73AA68636CD27ADA73A868666C21
:109AD0000C21FDF7B5FC3061A868666C1021FDF71C
