:02000002B0004C
:1040000000400B0048800C0000000600170005026D
:084010000401A30F00000000F1
:04401800EC5B0C0051
:1040200009480A49884208B505D0094A824202D0A7
:10403000121A0FF00DFD0748074A0021121A0FF05F
:104040002FFD014808BD00BF80DB0320287E0C0047
:1040500078DD032078DD0320EDE7032070B5074EFF
:10406000074C0DF0C5F9A41BA4080025AC4200D1F3
:1040700070BD56F8043B98470135F7E7D47D0C0036
:10408000F87D0C0001F036BC08B501F0B7FBBDE8C7
:1040900008400DF065B909F0C5BB09F0C3BB09F0D4
:1040A000C9BB09F0C7BB000008B5034A03490C208F
:1040B00009F0B2FAFEE700BF59D20B00005C0C0019
:1040C0000078B0FA80F04009704701230370704710
:1040D00070477047006A0368DB6818477047037CC5
:1040E00013F008031EBFC36A406A1B1A002BACBF43
:1040F00018466FF0004070477047000008B5134B3A
:104100001A78134B1B789B0043EA4203114A12783A
:104110001343114A127843EAC203104A127843EA61
:1041200002130F4A127843EA82130E4A127843EAC6
:10413000C2130D4A13700D4B01221A700DF0C8F80E
:10414000BDE808400A490CF01ABC00BFC4DD0320DA
:1041500084DD0320B4DD0320E8E00320F1DD03204B
:1041600014DF03200DDF0320B4E50320D4E5032092
:10417000155C0C0010B510210446FFF792FF204695
:1041800010BD10B534210446FFF78BFF204610BD4B
:10419000103002F055BA07B501228DF80710103023
:1041A0000DF1070102F04CFA03B05DF804FB10308A
:1041B00002F0BCB9103002F09DB807B501220DF134
:1041C0000701103001F0E8FF01280CBF9DF807003F
:1041D0004FF0FF3003B05DF804FB436913B183690E
:1041E0000C301847704713B500210446084608F004
:1041F000DBFF0023204601A9019308F0EDFF019C9D
:104200000CB1012323710021012008F0CDFF2CB156
:10421000236820469B6898470023237102B010BD95
:10422000012A02D1016000207047022A04BF0B68F6
:104230000360F8E7036818470368C9B29B6818472A
:1042400010B5054B00220446114640F8043B09F026
:1042500003FA204610BD00BFE0610C0010B5044613
:10426000FFF7EEFF20462021FFF71BFF204610BD81
:104270000A4B10B5044603600BF08AFC21460BF094
:10428000C2FE0DF025F80DF017F82046044B40F85B
:10429000043B0BF053FD204610BD00BFF4610C0041
:1042A000C8610C0010B50446FFF7E2FF2046242148
:1042B000FFF7F7FE204610BD37B5044680680D466F
:1042C00030B10023CDE900331A46022108F08CFFFB
:1042D000A06830B10023CDE900531A46194608F012
:1042E00083FF03B030BD0EB403B503AB002153F818
:1042F000042B01930CF06DFB02B05DF804EB03B0EE
:104300007047000073B5044608462279A36832B1AD
:10431000A3B90B4902B0BDE870400CF019BB094AC3
:10432000267B094D0949647B012E18BF2946CDE93A
:1043300000140749FFF7D7FF02B070BD054AEFE749
:104340003F5C0C0067730C003B5C0C00375C0C009E
:10435000555C0C002E5C0C000EB403B503AB0121C0
:1043600053F8042B01930CF034FB02B05DF804EB1E
:1043700003B0704710B5114B1B78EBB908F07CFF08
:104380000F4B1B68C01AB0F57A6F15D90D4B0E4C48
:104390000E485A2119700E4B217001221A700CF030
:1043A00060FB21780B480CF05CFB0CF091FF0A4994
:1043B0004FF47A62FFF7D0FF10BD00BFF1DD03209C
:1043C00030DE03208CE503208DE5032094DD0320FF
:1043D000F0E50320A4DD0320725C0C0010B58368B7
:1043E000044613B1032201469847204610BD000041
:1043F00037B5134B036004468068C8B100256FF0E1
:104400000043CDE9003502212B462A4608F0ECFE98
:10441000A068294608F010FF237903F0FF0513B1C7
:1044200008F0BAFEF8E7A068294608F0CDFEA560BE
:1044300004F10C00FFF7D2FF204603B030BD00BFEF
:10444000B4610C0010B50446FFF7D2FF20461C21D2
:10445000FFF727FE204610BDF0B58C460025144915
:10446000057104468560016092E8030085B002AFE3
:1044700004F10C0687E8030096E8030082E80300D5
:1044800097E8030086E803009168A0696161D1683C
:104490009560D060A161CDE90035064A23466146AA
:1044A00004F1080008F088FE204605B0F0BD00BF0A
:1044B000B4610C00E7410B0010B504460022407CBB
:1044C00009F004F9637C0F2B18BF208310BD000096
:1044D000F8B5294B294D1B785BB16B7C0F2B1CBFAA
:1044E00002236B74264B6B611E212448FFF7E4FF07
:1044F000F8BD244B1B7833B16B7C0F2B1CBF022300
:104500006B74FF23EFE7204B1B78002B2DD11F4B43
:104510001B78002B2CD11E4B1B78002B0BBF0A26BF
:104520001426022703271B4B1A781B4B1C781B4BA6
:10453000A40044EA42041A78144364B20CF0C8FEA2
:104540002246013C1649E4B2FFF706FF062C98BF4D
:10455000144B6A7C94BF53F824304FF47F030F2A26
:1045600018BF6F7431466B61BFE714260227DAE784
:1045700014260127D7E700BF8EE5032094E503202A
:104580000060FF00E8E0032014DF03200DDF0320BC
:10459000F1DD0320C4DD032084DD0320B4DD03202E
:1045A000BC5C0C00C0620C0013460A460149096855
:1045B00001F0F9BF14E6032010B509F0ABF82B4C5D
:1045C000E0B10123237008F057FE294B294C1B68EA
:1045D00047F23052C01A904223D813B301232370FC
:1045E00008F04AFE244B254C1B6847F23052C01A93
:1045F000904228D83BB30123237010BD2378002BB1
:10460000E1D01F48037C2BB91E4944F2022210302E
:10461000FFF7CAFF1C491A481E22FFF79DFE002320
:10462000D0E723786BB11648037C2BB9154944F2C7
:1046300002221030FFF7B8FF134911481E22FFF77E
:104640008BFE0023CBE7227872B16BB10C48037C60
:104650002BB90C4944F202221030FFF7A5FF0B4999
:1046600007481E22FFF778FE0023C5E7B4DD0320CC
:10467000C8DD0320C4DD032090DD032084DD03209A
:10468000B4DE032010DE0320C75C0C00185D0C00B4
:1046900030B585B01B4B009313798DF804309368C7
:1046A000029300F58C659389ADF80C3004460A46F8
:1046B0006B4600F26C41284602F0A6FE10B90020BD
:1046C00005B030BD256004F23C45284601F064FF8A
:1046D0000121204602F043FD014668B121462846EB
:1046E00001F054FD0028EAD094F83C3413F0700F28
:1046F000E5D0054B1D60E3E7204602F030FD0028C1
:10470000ECD1DCE7A0610C0014E603202DE9F047B2
:104710008AB08378412B04AF04468A464CD1C378D3
:10472000422B75D120460FF046FA013820F00700E1
:10473000E946ADEB000D20460FF03DFA04AD2844EC
:10474000002600F8096C2046FE713E80BE700FF016
:1047500032FA204410F8023C3B7020460FF02BFA4E
:104760002044314610F8013C7B701022384610F08E
:104770004BF980465FFA88F80CF0AAFD8049434661
:104780004246FFF7E9FD042620460FF014FA0238EE
:10479000864216D2062E9BBF07F118039B19AB1950
:1047A000A25D8CBFA25D03F8182C06F1010688BF3C
:1047B00003F8072CF6B2E7E7422B29D1C378312B57
:1047C000AFE740452ED00CF083FD054620460FF0A4
:1047D000F2F9821E28466B4D6B494346FFF7BCFD3C
:1047E0002B7CCBB9694944F2022205F11000FFF796
:1047F000DBFE674922462846FFF7AEFD05F11000B3
:1048000001F0CAFE0CF064FD62490CF0B8F8CD4628
:104810001837BD46BDE8F0875D4922462846FFF7B8
:104820009BFDEFE75C49381D0FF096F90028EED0AC
:104830005A49381D0FF090F968B9594B0293594BFA
:104840000193594B0093594907F1100307F10802EE
:10485000284609F007F85649381D0FF07DF904463F
:10486000002830D12B783B726B787B72AB78BB72AF
:10487000EB783B742B797B7407F108006B79BB7480
:104880000FF0C9F84B4E4C4D307007F110000FF08F
:10489000C2F828700CF01CFD2B7832784749FFF7DE
:1048A0005BFD317846480CF0DCF8297845480CF07F
:1048B000D8F8454B01221A7008F0DEFC434B186013
:1048C000394B1C70A3E74249381D0FF045F918B960
:1048D000404B83F800A09AE73F49381D0FF03CF9A0
:1048E000F0B9284C0CF0F4FC29460CF048F8237C75
:1048F00083B9264944F2022204F11000FFF754FE66
:1049000036492A462046FFF727FD04F1100001F042
:1049100043FE7CE731492A462046FFF71DFD76E736
:104920002F49381D0FF018F920B908F0A5FC2D4BC0
:1049300018606CE72C49381D0FF00EF910B92B4B9D
:10494000187064E72A49381D0FF006F900283FF473
:104950005EAF2849381D0FF0FFF800287FF457AFED
:10496000254B264801221A70244B5A7C0F2A1CBF63
:1049700002225A741E21FF225A61FFF79DFD46E76D
:10498000675D0C00B4DE03207C5D0C0010DE0320AC
:10499000995D0C00C55D0C00E65D0C00EA5D0C0045
:1049A0008EE503200DDF0320F1DD0320EE5D0C001A
:1049B000FD5D0C008CE503208DE50320015E0C00FD
:1049C00094DD0320A4DD0320F0E5032030DE032086
:1049D0002D5E0C00E9E00320315E0C00355E0C001A
:1049E000585E0C0034DE03205C5E0C00F1E5032011
:1049F000605E0C00645E0C00E8E0032094E5032098
:104A000010B50C46002204212046FFF77FFE0B4B19
:104A10001B7893B10A48037C2BB90A4944F202225D
:104A20001030FFF7C1FD224607490548FFF794FC07
:104A3000BDE81040054801F0AFBD10BD0CDF0320FC
:104A4000B4DE032010DE0320685E0C00C4DE032009
:104A5000B0B501F1080323F0070300AFADEB030D80
:104A60000C460A46014668460EF0F2FF0DEB0403C1
:104A70006D4613F8013C13B100230DF804300CF01F
:104A800027FC16490BF07BFF0CF022FC29460BF0AB
:104A900076FF012211462846FFF738FE2B7803F0F7
:104AA000FD03412B03D108F0E7FB0D4B18600D4BC4
:104AB0001B7883B10C48037C2BB90C4944F20222C9
:104AC0001030FFF771FD0A4907482A46FFF744FCFA
:104AD000084801F061FDBD46B0BD00BF885E0C0016
:104AE00090DD03200CDF0320B4DE032010DE032062
:104AF000985E0C00C4DE032013B50024CDE9004409
:104B0000044905480123224608F014FE034B1C709B
:104B100002B010BD014A0B00B85E0C00B4DD0320EA
:104B200008B50CF06DFD0849FFF7DDFB142008F017
:104B3000EDFE0CF065FD0549FFF7D5FBBDE808402B
:104B4000142008F0E3BE00BF66730C003D5C0C004F
:104B500007B50CF015FD002301460093124840F202
:104B60004C43422207F022FF40B94FF47A7008F01C
:104B7000CDFE0CF0ADFB0D490BF001FF40F24C42B5
:104B80000121094807F046FE40F24C430122002172
:104B9000054807F01FFE0CF0F3FC054903B05DF873
:104BA00004EB0AF0D9BB00BF68DF0320BE5E0C0037
:104BB000801A06000000000010B515200CF0B2FCB1
:104BC00007EE900AF8EEE77A374C17EE900A0EF0EF
:104BD0005BFB2DA3D3E900230EF0AEFB0EF0A4FE89
:104BE000324B18600EF050FB29A3D3E900230EF0DE
:104BF000EBF92F4B00220EF09FFB27A3D3E90023F4
:104C00000EF0C4FC0EF048FE64280346A8BF6423DF
:104C100023EAE37314282370264BCCBF0020012025
:104C2000187010200CF07EFC07EE900AF8EEE77A80
:104C300017EE900A0EF028FB1F4B00220EF07CFBB3
:104C400017A3D3E900230EF0A1FC0EF06DFE1B4B61
:104C5000186011200CF066FC07EE900AF8EEE77A77
:104C600017EE900A0EF010FB154B00220EF064FBBD
:104C70000BA3D3E900230EF089FC0EF055FE114B77
:104C80001860207810BD00BF59C0046EDDCD733FA1
:104C90006666666666662A40989999999999094068
:104CA0000000000000FEAF40E0DD0320E4DD032053
:104CB0000000594014DF032000804040DCDD032069
:104CC0000080304090E503202DE9F0412DED048B6C
:104CD00095488CB040F24C4107F044FE0446002851
:104CE00000F0118140F24C418F489FED908A904E28
:104CF000904DDFF8708207F0D8FE07EE900AF8EECC
:104D0000E77A40F24C4187EE887A874886ED007A50
:104D100007F0A8FE07EE900AF8EEE77A864887EEDD
:104D2000887A9FED868A85ED007A02F0B7FD03A9A7
:104D3000814802F0F9FDDDED090A9DED080A0CF04D
:104D40004BFE60EE087A17EE900A0EF09DFA72A301
:104D5000D3E900230EF01AFC0EF09EFDD8ED007A88
:104D60009FED776A774BF4EEC67AF1EE10FA186091
:104D7000C0F2C980DFED746AF4EEE67AF1EE10FA63
:104D800000F2C180714F97ED007AB4EEC67AF1EE71
:104D900010FAC0F2B880B4EEE67AF1EE10FA00F242
:104DA000B280D5ED000A96ED000A77EE600A37EE84
:104DB000C00A0CF011FE60EE087AB6EE008A17EE1B
:104DC000900A0EF061FA54A3D3E900230EF0DEFB43
:104DD0000EF062FDD6ED008AD8ED009A5C4B5D4E78
:104DE000186079EEE87A17EE900A0EF04DFA4CA3AF
:104DF000D3E900230EF0A0FA0EF096FD07EE900A1C
:104E000027EE880A0CF072FD18EE900AB0EE409A78
:104E10000EF03AFA42A3D3E900230EF08DFA0EF019
:104E200083FD00EE100A0CF029FD19EE900AF0EE59
:104E3000408A0EF029FA3AA3D3E900230EF07CFA57
:104E40000EF072FD00EE100A0CF018FD97ED007ADE
:104E5000D5ED007A77EE677AF0EE409A17EE900A79
:104E60000EF012FA2EA3D3E900230EF065FA0EF02D
:104E70005BFD07EE900A27EE880A0CF037FD68EE1E
:104E8000A98A68EE808A28EE808AA9EE098AB0EEA7
:104E9000480A0CF0A3FD18EE100A10EE105A0EF09E
:104EA000F3F902460B4600202B490EF08DF841EC39
:104EB000100B0CF057FD28468DED000B0EF0E4F9B9
:104EC0009DED001B41EC100B0CF04AFD53EC102B38
:104ED00010EE100A19460EF079F80EF025FDDFED00
:104EE0001F7A07EE100A67EE277AC6ED007A0CF0FB
:104EF000EFF9054630680EF0C7F902460B46284622
:104F00001749FFF729FA20460CB0BDEC048BBDE829
:104F1000F08100BFAFF30080182D4454FB210940FD
:104F200070E20DA545DF913F68DF0320002474493E
:104F300038DE032010DF032058DE03200000344356
:104F40000000B4C2E8DD03200000B442DCE5032029
:104F5000E4E50320E0E503200000F03F0018C7452A
:104F6000DE5E0C00D8E5032010B5084C23785BB159
:104F7000074B084819780BF074FD074B0748197860
:104F80000BF06FFD0023237010BD00BFF0E5032080
:104F90008CE5032094DD03208DE50320A4DD0320B0
:104FA0002DE9F04FA44DABB008F066F92B688342B1
:104FB00080F0F380DFF8B0B29BF80030002B00F0F7
:104FC000EC800CF0DDFA0123142263210AF0E5F9EC
:104FD0000CF0D6FA03685B69984716AC26460CF0CD
:104FE000CFFA03681B69984738B10CF0C9FA036817
:104FF0005B69984704F8010BF1E730460EF008FDB5
:1050000051EC100B0EF090FCDFF860A2CAF8000023
:105010000CF0B6FA0123142264210AF0BEF90CF058
:10502000AFFA03685B6998471BAC26460CF0A8FAF8
:1050300003681B69984738B10CF0A2FA03685B69F2
:10504000984704F8010BF1E730460EF0E1FC0CF054
:1050500097FA0123142265210AF09FF90CF090FAC7
:1050600003685B69984720AC26460CF089FA036810
:105070001B69984738B10CF083FA03685B6998475D
:1050800004F8010BF1E730460EF0C2FC59EC108B2E
:105090000CF076FA0123142266210AF07EF90CF056
:1050A0006FFA03685B69984725AF3E460CF068FAD3
:1050B00003681B699847044638B10CF061FA03682D
:1050C0005B69984707F8010BF0E730460EF0A0FC4B
:1050D0005A4B8BF800401B7857EC106B002B5CD0C0
:1050E0000CF01AF811900CF00BF804460CF01CF8B8
:1050F00083460BF0E1FF10900BF0EAFF0F900BF0EE
:10510000F3FF109A0F99119B0490CDE901B203911E
:105110004B4A0094102112A808F0ACFB4948037CCC
:105120002BB9494944F202221030FFF73DFA4946B3
:1051300040460EF0F9FB0EF0A7F8CDE90C01434B09
:1051400018680EF0A1F8CDE90A01414B18680EF07D
:105150009BF8CDE90801DAF800000EF095F8CDE9EA
:105160000601394630460EF0DFFB0EF08DF8CDE932
:105170000401384B18680EF087F8CDE90201364B70
:1051800018680EF081F812AACDE9000133492D48C4
:10519000FFF7E2F8324801F0FFF9324C08F06CF802
:1051A0002368834244D208F067F800F6C4102060F8
:1051B00008F062F800F2393028600CF0E1F9632160
:1051C0000AF004F90CF0DCF97221FFF735F80CF065
:1051D000D7F90AF002F90CF0D3F964210AF0F6F8D5
:1051E0000CF0CEF97221FFF727F80CF0C9F90AF09C
:1051F000F4F80CF0C5F965210AF0E8F80CF0C0F9F4
:105200007221FFF719F80CF0BBF90AF0E6F80CF080
:10521000B7F966210AF0DAF80CF0B2F97221FFF75B
:105220000BF80CF0ADF90AF0D8F80F4B01221A7008
:105230002BB0BDE8F08F00BFECDD03200DDF0320B5
:10524000EB5E0C0034DF0320F2DD032080E5032059
:105250007CE5032010DF032038DE0320045F0C0010
:1052600044DF032088E50320F0DD032084E50320EC
:105270002DE9F04F3C4EDFF80481DFF8049189B04E
:1052800000AF0CF0BDF903681B699847002866D091
:105290000CF0B6F90A22014638460BF085FDBB68D2
:1052A000073323F007036D46ADEB030DEA460023F9
:1052B000B9681FFA83FB8B4503F1010407D25946F5
:1052C00038460BF069FE23460AF80B00F0E7012987
:1052D0000AD9013938460BF05FFE0D2801BFBB68C3
:1052E0005344002203F8012C012202215046FFF70B
:1052F0000DFA0BF0EDFF31460BF041FB0BF0E8FF30
:1053000039680BF03CFB9AF80030423B012B03D884
:1053100007F0B2FFC8F8000099F80030D3B1134885
:10532000037C2BB9124944F202221030FFF73CF9FA
:10533000394607F110000BF0E5FD0E490B4807F167
:105340001002FFF709F807F110000BF045FD0A48BD
:1053500001F022F938460BF03FFDAD4691E72437C6
:10536000BD46BDE8F08F00BF1C5F0C00B4DE03201B
:1053700010DE03202E5F0C00C4DE0320C8DD0320F6
:105380000CDF03202DE9F043ADB00BF0A1FF614924
:105390000BF0F5FA604961480022FFF705F948B9BA
:1053A0005F4B18700BF094FF5E492DB0BDE8F043E1
:1053B0000BF0E5BA0BF08CFF5B495C4D0BF0DFFAAC
:1053C00008F008FE08F064FE044648B908F002FE42
:1053D0002246294608F0AFFE0A2008F097FAEFE7C8
:1053E0000BF076FF52494D4F524DDFF86C810BF0B8
:1053F000C6FA00223946284601F05BF8F8B108F0F9
:10540000E9FD08F045FED0B11E2201A9284601F0B1
:1054100017FA0BF05DFF414601AAFEF79DFF01A8B8
:105420000EF0C9FB01AB043818440EF0CDFB424925
:105430000EF023FCD8B9284601F0AEF8D9E737487A
:1054400001F0AAF82622002109A80EF029FB3B4909
:1054500009A80EF08BFB0023262209A9384808F082
:10546000A9FC2F4B00221A702DB0BDE8F083262234
:10547000002109A80EF014FB3249334EDFF8C0902A
:1054800009A80EF073FB01A909A80EF03FFB0BF071
:105490001FFF2E4909AAFEF75FFF0023262209A954
:1054A000274808F087FC0BF013FF294901AAFEF7F3
:1054B00053FF962008F02AFA09F092FF3046FEF7D3
:1054C0000EFE044688B16422002113A80EF0E8FA0B
:1054D00013AA64230D2130460BF04EFC00236422F6
:1054E00013A9484608F066FCE8E709F07BFF26228E
:1054F000214609A80EF0D4FA164909A80EF036FB89
:105500002346262209A90E4808F054FC962008F0EC
:10551000FDF990E74F5F0C006C5F0C0090DE0320FC
:10552000E8E003206E5F0C009B5F0C00D0DD0320E1
:10553000BB5F0C0044DF0320F95F0C00FE5F0C0032
:10554000E0E0032007600C0034DF032010600C0053
:1055500023600C004B600C00D05F0C0038B5046871
:1055600005467CB16368013B63605BB923682046F4
:105570009B689847A368013BA3601BB9236820463A
:10558000DB689847284638BD2DE9F04784B002AF64
:10559000804691461E460D460EF00DFB093020F068
:1055A0000701ADEB010D40460EF005FB97F828A072
:1055B000254902AC03464246204608F04BF9BAF1B1
:1055C000000F01D1042D0CD1204B21491B788DF8FF
:1055D000003038463C23224609F0D6FC381DFFF740
:1055E000BDFFB9F1000F01D1012D21D108F0F2FC6E
:1055F00008F04EFDE0B120460EF0DDFA073020F055
:105600000700E846ADEB000D20460EF0D4FA0DF190
:1056100008090246214648460EF01AFA20460EF0C6
:10562000CAFA0023024649460A4808F0C3FBC546A9
:105630000EB9022D04D10BF0E3FF21460BF09FF9C8
:105640000837BD46BDE8F08754600C00CCDD032070
:105650005B600C00E8E5032030B5274D2B789DB04A
:10566000002B46D0412200210BA80EF019FA234B43
:105670000893234BDFED236A93ED007A224B27EE4C
:10568000267A0024BDEEC77A8DED077A93ED007A75
:105690001E4B27EE267ABDEEC77A8DED067A93ED86
:1056A000007A1B4B27EE267ABDEEC77A8DED057A80
:1056B000D3ED007A174B67EEA67AFDEEE77ACDEDD3
:1056C000047A18680DF0E0FDCDE90201124B18686C
:1056D0000DF0DAFD0122CDE9000110490BA808F018
:1056E000B9F829780094234622460BA8FFF74CFF0F
:1056F0002C701DB030BD00BFE9E00320880D010013
:1057000080E5032000007A4478E5032084E5032047
:105710007CE5032010DF032038DE032063600C00EB
:1057200070B52C4E337890B0002B49D02A4A2B4BC1
:1057300010681B7807930DF0A7FDCDE90401284AF6
:10574000284C10680DF0A0FDCDE90201264A079B08
:1057500012782649009209A8012208F07BF80BF084
:10576000B7FD09A90BF00BF90BF0B2FD2188054636
:105770000A220BF010F928460BF0F5F81C4B1B78A9
:1057800003BB1C4B1B78EBB92388F3B113F0030365
:105790001BD10122009219461A4609A8FFF7F4FE10
:1057A00023880BB1013B238000246420347008F06F
:1057B000ADF811480094234601222146FFF7E4FE8C
:1057C00010B070BD4FF4F0732380002101230091CD
:1057D0001A46E2E7D4E5032010DF0320E0DD0320D2
:1057E00038DE0320B6DD0320B4E5032087600C001B
:1057F00084DD0320C4DD0320A0600C0008B5FFF7A2
:1058000063FAFFF7D9F9FFF7CBFBFFF731FDFFF79D
:1058100087FFFFF7A9FB064B1B780BB1FFF7B2FD23
:10582000FFF71AFFBDE808404FF4FA7008F06EB8B1
:10583000E8E0032070B5D0E900531426044606FBC7
:105840000356AE4204D028460BF0C6FA1435F8E7EA
:10585000206807F0EFFF204670BDF0B516468FB008
:105860000022C0E9002204460D4609AF194604A8EB
:1058700008F062FA1499384608F05EFA169B029313
:10588000159B2046CDE90073324604AB294608F04B
:10589000C9FF20460FB0F0BD13B50B4C2178BFF304
:1058A0005B8F11F001010BD120460191FEF708FC3E
:1058B000019928B105480BF042F92046FEF705FC96
:1058C000024802B010BD00BF78DD03207CDD03205C
:1058D00008B5FFF7E1FF4FF6FF7200210BF04DF91D
:1058E000FFF7DAFFBDE80840014901220BF0E4B9F7
:1058F00040420F002DE9F04FBC48BD4E037CBD4D2A
:1059000003F0030343F0780393B0037400220121F2
:10591000043007F0A1FE012102200BF0D9FD012186
:105920001C200BF0D5FD00211D200BF0D1FD002126
:1059300002200BF0DEFD00211C2000240BF0D9FD1D
:10594000B42707F099FC5A2333702B704FF47A7206
:10595000CDE900474FF4FA630621A7480BF0BEF8E3
:105960004FF47A724FF4FA63CDE900470521A3485A
:10597000A34F0BF0B3F831789F48A24E0BF071F8AB
:1059800029789E480BF06DF84FF4FA6007F0BEFFDF
:1059900008F020FB08F068FB08F01CFB082108F069
:1059A0006AFB0BF095FC4FF416510BF081FC0BF0E9
:1059B00027FE4FF416510BF023FCFFF789FFFFF78A
:1059C000AFF8FFF7C5F8FFF797F807F055FC8E4BD7
:1059D000186007F051FC8D4B186007F04DFC8C4BA4
:1059E00018608C4B1C608C4B1C608C4B1C708C4B5F
:1059F0001C708C4B1C708C4B4FF4F0721A808B4BCC
:105A0000012532221A703D70357008F0E3FA884A99
:105A100001460DA809F030F80DA808F0E0FB08F0E9
:105A2000D9FA844A01460DA809F026F80DA808F015
:105A3000D6FB08F0CFFA804A01460DA809F01CF801
:105A40000DA808F0CCFB7D4B1D707D4B0DA819688F
:105A500008F072F90DA808F0D1F805460DA8002D40
:105A600040F0B88008F0E6F80095ADF82400022375
:105A700009AA0321734808F0DDFC00236F4971482F
:105A8000082208F0F5FC08F0A5FA00226D4908F09C
:105A900052FB0BF075FD09F063FC0BF071FD6A49D8
:105AA00009F05AFC0BF06CFD1C210246674802F01D
:105AB0006EF8002840F095800BF00AFC64490AF06B
:105AC0005EFF6248012101F05BFF6048002101F0A8
:105AD000BBFF5E48012101F085FF5C48002101F019
:105AE000CEFF0124002559484FF4FA7102F06EF8F8
:105AF00023462A462946CDE901545448009402F031
:105B00007DF80BF009FB07900BF0FAFA80460BF0DA
:105B10000BFB81460BF0D0FA82460BF0D9FA834694
:105B20000BF0E2FA079B4B4ACDF80080CDE903B0B9
:105B30001021CDE9019A09A807F09CFE4649474883
:105B40000EF014F809A945480DF0E0FF4349444818
:105B50000EF00CF8434941480DF0D8FF4249404847
:105B60000DF0D4FF0BF0B4FB3C490AF008FF0BF03A
:105B7000AFFB3B490AF003FF3C486FF00041FEF7E2
:105B80009BFB3B486FF00041FEF796FB39486FF0F6
:105B90000041FEF791FB38486FF00041FEF78CFBA7
:105BA000364B0D933648374BADF840400DAA0821CF
:105BB0008DF838500F93FEF76BFD0446002867D12F
:105BC0000BF086FB30490AF0DAFE3C70347013B0FB
:105BD000BDE8F08F08F030F800940246102307214A
:105BE00048E70BF075FB294969E700BF94E50320FE
:105BF0008CE503208DE5032094DD0320A4DD032044
:105C00000DDF03200CDF032088E50320ECDD0320FB
:105C100034DE0320C8DD032090DD0320F0DD032007
:105C2000E8E00320E9E00320B6DD0320E0DD032007
:105C3000E8E50320ECE00320E0E0032085DD03201D
:105C400080DB0320D0DD0320801A060058DE03200D
:105C5000AE600C00EB5E0C00D9600C00F2DD03209E
:105C600010DE0320F95F0C00E2600C00F4E5032075
:105C700018DF03203CDE0320B8E50320A0610C0000
:105C8000F4E0032000127A00EB600C00CA600C0004
:105C90003B787BB11248037C2BB9124944F20222B3
:105CA0001030FEF781FC10490D480AF068FE0F48DD
:105CB00000F072FC3378002B89D00D48037C2BB99F
:105CC0000C4944F202221030FEF76EFC0A490848E3
:105CD0000122FEF741FB094800F05EFC77E700BFB8
:105CE00034DF0320F2DD032010610C0044DF0320C9
:105CF000B4DE032010DE032066610C00C4DE032046
:105D00008842F8B504460D46164616D9904215D27B
:105D1000A2F11406751AA1F114072C44B7421CD045
:105D20002CB1314620460BF0D3F8337C2374304637
:105D30000BF052F8143E143CF0E70ED0B5420CD0F4
:105D40002CB1294620460BF0C3F82B7C237428463F
:105D50000BF042F814351434F0E7F8BD2DE9F041AA
:105D60000023C0E9003383604F689F4204460E461B
:105D700023DD4FF0140808FB07F007F053FD05463C
:105D8000D8B1D4E9001208FB0212FFF7B9FF20686E
:105D900007F050FD2560A760D6E9007308FB037883
:105DA000B84508D0394628460BF0ACF83B7C2B743C
:105DB00014371435F4E7736863602046BDE8F0815A
:105DC000F0B5774B774A784C01261E70774B00254B
:105DD000C3E900559A6093B0032007F04FFC744864
:105DE00001F068FF734801F04FFDFFF755FD642394
:105DF000C4F86034704B6560C4F83C54C4F868540F
:105E0000C4F8703484F87464C4F87854A4F87C54EA
:105E100008B9FFF741FD694B694AC4F86C044FF4B7
:105E20007A7700241A60C3E901471C61654B079427
:105E30001A60C3E901471C61634B644D1A60C3E9F2
:105E400001471C61CDE905440BF042FA05A906465D
:105E500008A8FFF783FF08A90BA8FFF77FFF5C4B9B
:105E60002B600BA90EA8FFF779FF0EAA1E21281D93
:105E70000AF0ACF90EA8FFF7DDFC0BA8FFF7DAFC7F
:105E8000544B2B602E6208A8FFF7D4FC524B2B60BA
:105E90000BF01EFA4FF416510BF00AFA09F078FED7
:105EA00029460AF069F805A8FFF7C4FC4B484C4D99
:105EB0004C4E0AF0FFFD4C480AF0FCFDCDE90144D0
:105EC0002B680093494B4A491B684A484FF010021F
:105ED000FFF7C3FC484B029401932B680093474B98
:105EE00047491B6847484FF00402FFF7B6FCCDE96D
:105EF00001442B680093444B44491B684448454D7A
:105F00004FF01002FFF7A9FC434808F09EFA434BFC
:105F10000E930EAA234643F69821414811961095F8
:105F2000FEF79AFA0EA8FEF759FA3E4B0E930EAA08
:105F3000234639463C48CDE91056FEF78DFA0EA8A7
:105F4000FEF74CFA394B0E930EAA234640F6C411C5
:105F50003748CDE91056FEF77FFA0EA8FEF73EFA55
:105F6000344B0E930EAA234643F698213248CDE9CE
:105F70001056FEF771FA0EA8FEF730FA22461421E9
:105F8000012007F0A3FB01221421CDE900120346F2
:105F90006FF07F41294809F07DFC13B0F0BD00BFD0
:105FA000CCDD03200000FFFFF4E00320B8DD032078
:105FB00068DF032058DE0320A0610C0034DF0320DB
:105FC0000C620C00B4DE032080DE0320E8DE032038
:105FD000C8610C009C730C00F4610C0094DD03207C
:105FE00080DB032035420B00A4DD03208CDB032083
:105FF0008B610C00E8E50320514A0B0088DB03208D
:106000008E610C00ECE0032084DB032091610C0026
:10601000E0E0032021420B00D0DD0320B9450B0056
:10602000F4E50320D1440B003CDE032075430B0054
:1060300018DF0320FD400B00B8E5032094E50320A2
:1060400038B504460D46242200210DF029FDA56037
:10605000EB79102B03D0202B06D0002038BD202355
:1060600001202370A070F9E74023F9E710B504463A
:10607000243000F066FF28B104F50C70BDE8104034
:1060800000F05FBF10BD8378016943F004038370A3
:1060900000F11002806801F00AB800002DE9F0411B
:1060A000017811F02005044603D000263046BDE8F3
:1060B000F0814269174B9A42F7D2FFF7E4FF064698
:1060C0000028F2D02169A06800F086FF0746A0688A
:1060D00005223946243000F05CFF80460028E4D0D9
:1060E00029464FF400720DF0DBFC0125A3681A79F4
:1060F000AA4209D918684246E91901F0B6FA0028FF
:10610000D3D00135EDB2F1E7636903EB422363615C
:10611000CCE700BF00FE1F0010B5044680680A46A9
:106120002430A16900F035FF20B1A38803F00F03EC
:1061300000EB431010BD0023F0B50446451E0826B1
:1061400018462E2715F8012F202A18D0082B02BF39
:106150000F54421CD0B22A78A2F1410C08BF10267D
:10616000BCF1190F06D894F80CC016EA0C0F1CBF2E
:106170002032D2B200F1010C0A545FFA8CF00133E4
:10618000DBB20B2BDED100230B54F0BD03780BB92F
:10619000FFF756BF002070472DE9F74F03780446FC
:1061A00088461546002B5DD08278D1075AD51A074C
:1061B0002DD5C36942699B1A9D4228BF1D462E46B4
:1061C0004FF0000904F1100B002E00F08F802278B0
:1061D0006369A0689706C3F3080A4FEA53211FD5E5
:1061E000006A0144A068BAF1000F42D1B6F5007F01
:1061F0003FD3C36A99423CD0B6F5806F52D2006853
:10620000424601F0A9F968B34FF4007744E09B06D9
:10621000D5D583681A894369C3EB42139BB2CBE798
:1062200090F8059009EA0109BAF1000F08D1B9F117
:10623000000F05D15BB951064CBF036A236A236185
:106240002169A06800F0C8FE09EB0001CAE72169D6
:106250005A4600F0C7FE002804DBF1D1237813F082
:10626000700F43D1637843F0020363704FF0FF3047
:106270003DE0CAF50077B7424FF0000200F124007C
:1062800028BF374600F085FE0028EBD000EB0A015E
:106290003A4640460DF0DCFB63693B44B844636119
:1062A000F61B91E7227892064FEA562A06D4027925
:1062B000A2EB0902D2B2924528BF924699424FEA18
:1062C0004A2708D2A06853460068424601F08CF97C
:1062D0000028E1D1C6E753448B42F3D92430019121
:1062E00000F02FFE01990028ECD1BBE7A81B03B0FA
:1062F000BDE8F08F73B501220DF10701D0E9045616
:106300000446FFF749FF01280ABF9DF807004FF038
:10631000FF30C4E9045602B070BD37B5436913F4C9
:10632000F07F0446C3F3431500D099B901220DF163
:1063300007012046FFF730FF40B2012802D00020BD
:1063400003B030BD63691F33A0686361303000EB78
:106350004510F5E72033F7E72DE9F04102780769AA
:1063600004460D4662B14069884202D019B92161E4
:106370006561012006E0160706D5E3698B420BD262
:1063800027610020BDE8F081910605D5A3681B892F
:10639000B5EB431FECD9F3E7D4F808C09CF80660CE
:1063A000431E06F109016E1ECB40CE40B34200D819
:1063B00098B953064CBFDCF82030236A236104F1FE
:1063C0001008002ED4D02169A068424600F00AFED1
:1063D000002806F1FF36F4DCD2E7F61AEFE7F8B54D
:1063E0000F4604461546002124221E460DF058FB98
:1063F000B868A060A58005F00F053B6AE3606A01FC
:1064000000EB451595F83B301F0744D403F0170304
:10641000237095F83B1011F0180F04BF43F00803E8
:1064200023709DF81830E37006F00303012B2CD085
:10643000022B28D07BBB71052DD40123A370A1783A
:106440008B0704D52378DF0625D4DD0723D4B311C9
:1064500023F07F0306F008052B430B43A370C36AA8
:10646000A3618318B3F84420B3F84A1041EA02410B
:10647000720513D559B9A37843F00403A3707304CC
:1064800010D40120F8BD0323D8E70223D6E700F09B
:1064900049FE0028EFD100202070F3E72162DB6C79
:1064A000E361ECE7E1692046FFF756FF0028E8D1F9
:1064B000F1E72DE9F347037807460D46924653BBB3
:1064C0000B7813F0700F26D04C6914F01F0422D102
:1064D000A04600212846D5F81490FFF71EFFD0B142
:1064E0000678C6B12E2E10D0E52E0ED0C37A1A072C
:1064F00013D464B900945346C9F34F122946384661
:10650000FFF76DFF02B0BDE8F0870024E1E700F07F
:1065100071F94045EED00020F4E70F2BF5D173065A
:10652000D7D590F80D8006F01F04D2E738B5037870
:1065300004460BB9012038BD83785A0723D50121C1
:10654000FFF7EAFD054628B9637843F0010363705D
:106550000020F0E70378E52BF6D023781B0744BF33
:10656000E369C361236A4383638C8382094B1B689D
:106570002BB100F11601183098472B8B6B82A37852
:1065800023F00403A370A068FFF770FD0028DBD0A0
:10659000D0E700BF10E6032010B50446FFF7C6FFA2
:1065A0000023237010BDF0B593B01F46002309935C
:1065B0000378019206460C4613B1002013B0F0BDDB
:1065C0000B7813F0700FF8D013782F2B12D1019A9B
:1065D00013782F2B02D101320192F8E7A1681BB981
:1065E0003046FFF7D3FDE9E709A8FFF729FD0028AA
:1065F000E3D009AC019801AA03A900F08FF90028A3
:10660000DBD0019B1B789BB1002303AA21463046B7
:1066100000F0B6FA0028D0D035460FCD09AC0FC433
:106620000FCD0FC42B6823603046FFF7B5FFE0E7BE
:106630003B4603AA2146304600F0A2FABEE700001E
:106640002DE9F047037889461907044617465BD5BC
:1066500083789A0758D51B0751D46369DB43BB4243
:1066600052D3B84604F1100A6669B8F1000F00F081
:106670009180A0684379C6F3080513EA56260ED127
:106680006DB92169002946D0524600F0ABFC0028C4
:106690003ADB04D12046FFF7F6FC002834D021690C
:1066A000A06800F099FC3118A06815B9B8F5007F12
:1066B0003FD2C5F50076464528BF4646002D36D167
:1066C0006269E3699A4234BF01220522243000F056
:1066D00060FCC8B128443246494635440DF0B8F94B
:1066E000B5F5007F04D1A068243000F02AFC58B131
:1066F000636933446361B144A8EB0608B4E7C16938
:10670000FFF72AFE0028A8D1637843F001036370E5
:106710004FF0FF3050E0236A3BB92046FFF7B3FC4F
:106720000028F1D023692362B9E72361B7E701228A
:10673000CCE7B8F5806FC26A1BD390F804C0ACEB0D
:106740000606F3B24FEA582E734528BF73469142AE
:106750004FEA432607D31A448A4282BF4FF0FF32E2
:1067600080F82450C262A5684A46286800F0F3FF0A
:10677000BDE7914202BF4FF0FF3380F82450C3625F
:10678000A3684A46186800F070FF0028BCD04FF498
:106790000076ADE7E269A378B24204D2E66143F045
:1067A0000403A37003E0084A1268002AF7D194F9A1
:1067B0000230002B02DB3846BDE8F0872046FFF7A9
:1067C000B5FE0028F7D19FE710E60320042904D87E
:1067D00000EB4100B0F8010070470A299BBF01F1AE
:1067E000FF3100EB41000131C08884BF00EB410064
:1067F00080887047411E00F10A030020420842EAE7
:10680000C01011F8012F52FA80F08B42C0B2F5D1BE
:10681000704738B5CB6804460D4623B9BDE838400B
:106820008968FFF7B3BC242200210DF039F9102349
:1068300001202370A070AB68A360EB68236238BDB1
:106840002DE9F04F8DB003784FF0000906460F4652
:106850009046CDF80C90002B5DD00C2A5BD9C37804
:1068600033B900F057FB044620460DB0BDE8F08F69
:10687000014603A8FFF7CDFF00284CD007EB080323
:106880004FF0010B4FF00D0A0093F3785FFA8BF590
:10689000AB4240D3B188A1EB0B01490103A8FFF73C
:1068A0005BFD0446002836D0002103A8FFF735FD24
:1068B000034680B3C27A0F2A2DD1027802F01F025C
:1068C000AA4228D10BF1FF350AFB05F57A19002100
:1068D00018460191FFF77AFF68B1A84512D90199CE
:1068E00001317F28C9B228BF3F200D2902F8010BD2
:1068F00005F10105ECD1A84504D91A78520648BF24
:1069000007F80590009A02F8019C1B785B060BF1D2
:10691000010BBAD5A8E700243C70A5E72DE9F047A4
:10692000064610F8013B202BFAD06A4D8E600024F9
:10693000335DC3B12F2B16D05C2B02D10020BDE8F4
:10694000F087A3F12200C0B21D2803D825FA00F079
:10695000C007F3D403F0BF003C28EFD0203B5E2BF0
:10696000ECD80134E4E733191846074610F8015B08
:10697000202DFAD02F2DF8D017604CB113F8012D2F
:106980002E2A01D0202A01D1013CF6E7FF2CD5DCCC
:106990004FF02033C1F811304C60C1F80D304B611D
:1069A0004FF0000816F808302E2B01D0202B02D112
:1069B00008F10108F6E7B8FA88F04009651E6B1C7B
:1069C00002D0735D2E2B14D14FF0000907274A46E1
:1069D000CA464FF0080EA04568DA16F80830202B9A
:1069E00003D02E2B07D1A84512D0002008F10108B2
:1069F000F1E7013DE3E7222B08D07C2B06D0A3F181
:106A00002A0CBCF1050F0AD82D2B12D0A8455BD15A
:106A10000A2F4AD00A2708224FF0100EE6E7A3F10A
:106A20003A0CBCF1050FF1D9A3F15B0CBCF1020FDC
:106A3000ECD9A3F1210CBCF15D0FE7D8A845E7D054
:106A4000BA4230D8A3F1610CBCF1190F1AD8203B1F
:106A50004EEA0909DBB25FFA89F902F1010C5FFA2B
:106A60008CFC0A44BCF1060F537301D881F80CC0AA
:106A70006246BBE7A84518DCA8460A2708224FF063
:106A8000100EB2E7A3F1410CBCF1190F98BF4EEA0A
:106A90000A0AE2E70B7B0120087019447E234B733E
:106AA00031238B734BE70A2FE4D100204B7B202B43
:106AB0003FF444AF0028EDD01AEA090F18BF4FF099
:106AC000020981F800903AE7BA42ECD800205F232F
:106AD000C3E700BF010100312DE9F84391F80C90A4
:106AE00006460C4602257E2701F10D086168A26862
:106AF0006B189BB21144914206D012F8010B03EBC4
:106B0000431343409BB2F6E7B9F1030F28BF4FF0A0
:106B1000030909F10402D2B203F00F01A018013AEF
:106B20000929D2B294BF30313731914541734FEAD0
:106B30001313F1D104EB090300215F733046FFF713
:106B40000BFC01213046FFF7E8FB014628B97078BD
:106B5000B0FA80F04009BDE8F88303786BB1C37ADE
:106B60001B07EED40B2240460CF062FF0028E8D150
:106B70000135ADB2642DB9D1EDE70120EBE700009E
:106B80002DE9F04F2DED028B8BB00D4606930B785F
:106B9000079013F0700F174605D100200BB0BDEC25
:106BA000028BBDE8F08F079B1B78002BF5D1536853
:106BB000059313789C071FBF059B0C330D22B3FB75
:106BC000F2F31ABF0133DBB20123002128460393FD
:106BD000FFF7C2FB07F10D034FF0000B08EE103A70
:106BE000DA465C465E46CDF810B0D9466B690121A5
:106BF0002846C3F34F18FFF790FB0346002871D1D6
:106C00006B78002BC9D1069B9A05C6D503F0030308
:106C1000013B012BC1D8049B002C08BF43460493C1
:106C2000039B9C42C0F0F180B9F1000F40F00A8153
:106C3000049B28465901FFF78FFB0028ADD0039B2A
:106C400003F1FF395FFA89F94E464FF0000A4FF021
:106C50000F08002E00F00D8100212846FFF75DFB94
:106C60000446002899D0AA6892F824304E4543F093
:106C700001030CBF46F0400BB34682F8243080F885
:106C800000B080F80B8080F80CA007F10D00FFF732
:106C9000B1FD84F81AA0607384F81BA00BF01F03E9
:106CA0000D22013BD7F808C05343002205999942B1
:106CB00040F2D0801CF80310042A5FFA82FE02F131
:106CC000010000F2CD8004EB4202A2F801100D2871
:106CD00003F101030246E9D1013EF6B2B9E74FF0F4
:106CE000010983E70278E52A00D07AB90499002CDB
:106CF00008BF4146049103998C423CBF0134E4B281
:106D0000002A80D0E52A05D100266FE703998C423E
:106D100038BF00242E2AF7D0D97A0F294AD116BBC2
:106D200012F040063FF462AF02F01F0693F80DB078
:106D3000B2460D220AF1FF3802FB08F8059A4245D7
:106D4000E2D9A2EB08020892002202EB08010991A5
:106D50001846D1B2FFF73AFD08998A420DD10028B2
:106D600018BF002642E70AF1FF3A5FFA8AFA524555
:106D7000CAD15A7B5A45DCD0C6E7FF28C4D85FFA8F
:106D800080FEAEF141011929B9689CBF0EF12000C7
:106D90005FFA80FE08460999415CA1F1410CBCF103
:106DA000190F9CBF2031C9B27145ADD101320D2AF6
:106DB000CBD11BE70807A7D45EB1BAF1010F7FF46E
:106DC000ECAE1846FFF716FD58457FF4E6AEB14627
:106DD0000EE018EE101A0B2218460CF029FE0028BF
:106DE0007FF404AF97F8009019F001097FF477AFB2
:106DF000069B19053FF5D1AE069B0798CDF800908C
:106E000042462946FFF7EBFAC8E600212846FFF77D
:106E100084FAA0B96B78002B7FF4BFAE2846FFF749
:106E20003DF900283FF4B9AEAB681B79012B3FF662
:106E3000FBAE039B1034E4B2A342EFD8F4E6013476
:106E4000E4B2EDE639462846FFF746FE00287FF417
:106E5000EFAEA2E614BF4FF0FF31002189B22BE75D
:106E6000BEF10A0F94BF04EB420204EB4002918092
:106E70002DE731462846D5F81480FFF74EFA044630
:106E800000283FF48AAE202231460CF009FED7F8E4
:106E90000D302360D7F811306360B7F815302381C7
:106EA000FB7DA3723B7803F0180323730F4B1B6821
:106EB0009BB104F10E0104F110009847238A63820C
:106EC0002383E389E382AA6892F8243043F0010324
:106ED000C8F34F1882F824308EE721232374282327
:106EE00063740823A673E373E8E700BF10E603208A
:106EF00013B50446084659B101910CF05CFE2368B5
:106F00000199DB680246204602B0BDE810401847F0
:106F100002B010BD10B50C46017809B9002010BDB3
:106F200011F0600105D02F2323700023637001202E
:106F3000F5E7FFF7F1F80028F0D02146FFF7FBF85E
:106F4000F5E737B50378DA07044620D5436881684A
:106F500000F10C021868019200F087FB019A0546C7
:106F600018B90025284603B030BD23789B0704D408
:106F7000237823F001032370F4E7D4E90130196981
:106F80000144186800F071FB0028F1D1E9E7012500
:106F9000E8E770B583688B4204460E46154609D073
:106FA000FFF7CFFF08B9002070BD6B070AD500239B
:106FB0002370A660227805F003052046154300F8EB
:106FC0000C5BF1E7636804F10C021868314600F0CD
:106FD000C3FA0028EBD1E6E783794069023999408A
:106FE00008447047012970B505460C46164602D87C
:106FF0004FF0FF3070BDC3698B42F9D3C379202BAA
:1070000016D18169022201EBD41100F50C70FFF753
:10701000C0FF0028ECD004F07F0450F8243023F0A7
:107020007043EA699A4226BF336001200020E1E7FD
:10703000102BDDD1C1F3072381690222194400F529
:107040000C70FFF7A6FF0028D2D0E4B230F814305D
:10705000E7E7012938B50C46154601D8002038BDB0
:10706000C3698B42FAD3C379202B0FD181690322E4
:1070700001EBD41100F50C70FFF78BFF0028EDD069
:1070800004F07F0440F824500120E8E7102BE5D1FC
:10709000C1F3072381690322194400F50C70FFF73F
:1070A00078FF0028DAD0E4B220F81450ECE72DE99C
:1070B000F341C4688C4205460E46904601D3012731
:1070C00001E00C460027EB690134A34202D2C7B9A4
:1070D000EC68F4E7A64214D001AA21462846FFF73F
:1070E00081FF00280DDBEED0019B002BEBD107B117
:1070F000EC606FF0704221462846FFF7AAFF074672
:1071000020B90027384602B0BDE8F08116B9C8F8AA
:107110000040F7E7224631462846FFF79AFF00284D
:10712000F5D1EEE773B505460C4601AA214628467F
:10713000FFF758FF061E10DB002221462846FFF706
:1071400088FF50B1EB68A34224BF04F1FF34EC6028
:10715000019C002EE9D102B070BD0020FBE70123A5
:1071600070B50022C3604FF0FF330446C27100F1D6
:107170002406806280F82420C362C0F8340280F8BC
:107180003022C0F838320D46B9B1042901D90020A7
:1071900070BD11463046FFF7FCFE0028F7D000EB2B
:1071A000051393F8AE315B06F1D105F11B0100EB3D
:1071B0000110D0F80650002DE9D0002229463046B3
:1071C000FFF7E7FE0028E2D0B0F80B30B3F5007F00
:1071D000DDD1037C022BDAD1C389002BD7D0417BD0
:1071E00021714B1E63710023A3710926012399426B
:1071F00007D0013ECBD0A2795B000132DBB2A27195
:10720000F5E7C18A01B9416A2161C3892B44A361B1
:10721000B0F81120228103EB41032362B0F8111072
:10722000490101F2FF1103EB51236361B0F8132010
:1072300002B9026AE91AA3791144D9404B1CE361EF
:1072400040F6F473994202D80C23E3719FE74FF69E
:10725000F473994285BFC36A236210232023E3712C
:10726000012095E700F0CABA00F0ADBA70B50E4E35
:107270000D46144605F0F8FF3368C01A0B4B9842D0
:1072800008D905F0F9FF0A4B186006F03BFA05F043
:10729000EBFF306005F0F0FF80B2401BA042D4BF8E
:1072A0000020012070BD00BF18E60320A086010069
:1072B00028E7032038B5057A04464DB9406800F048
:1072C0006BFA63682946187D0AF013F901232372CB
:1072D00038BD10B5037A04466BB143680121187DAF
:1072E0000AF007F96068FF21FFF7BCFF606800F053
:1072F00067FA0023237210BDF8B504460D46164602
:1073000005F0BAFF87B26068FFF7AEFFFF28607232
:107310000ED14FF47A7239462046FFF7A7FF0028B6
:10732000F1D0552320462370FFF7D3FF0020F8BD8E
:10733000FE2801D05023F5E760683246294600F068
:1073400047FA607208B16023ECE76068FFF78CFFD2
:107350006068FFF789FF0120E9E770B504460E4633
:1073600005F08AFF85B2324629462046FFF77EFFA8
:1073700030B96068FFF778FFFF28F4D1012070BDB5
:107380000020FCE7F7B5037A019204460D460BB9DD
:10739000FFF790FF25B14FF496712046FFF7DDFF10
:1073A000606845F04001FFF75DFF032601AFB95D5E
:1073B0006068FFF757FF013EF9D2002D60680CBFEF
:1073C00095218721FFF74EFF6068FFF74DFF0B25E2
:1073D0006068FFF749FF0306607203D5013D15F0B1
:1073E000FF05F5D103B0F0BD70B504460D46164655
:1073F00037210022FFF7C6FF324629462046BDE866
:107400007040FFF7BFBF00002DE9F0410025057275
:10741000057085724160044690461E4605F02CFFBB
:1074200041460746606800F0BBF96368494A1D722F
:107430000125DA601D822046FFF73CFF636829467C
:10744000187D0AF056F80A256068FF21013DFFF714
:1074500009FF15F0FF05F7D163682946187D0AF08A
:1074600048F80A25002211462046FFF78BFF012825
:10747000804618D0013D15F0FF0507D12023204696
:107480002370FFF726FF0020BDE8F0816068FD2132
:10749000FFF7E8FE4FF402786068FFF7E5FEB8F109
:1074A0000108F9D1DEE74FF4D57208212046FFF735
:1074B00069FF052814D184F80A800025BFB22A4646
:1074C00029212046FFF790FF0246D8B14FF4FA6217
:1074D00039462046FFF7CAFE0028F0D04323CEE706
:1074E00004256068FFF7C0FE013D15F0FF056072DE
:1074F000F7D1AA2804D10223A3724FF08045DDE71B
:107500002523BCE7A37A022B18D13A212046FFF7A6
:1075100039FF08B13723B2E76068FFF7A5FE00F036
:10752000C000C02804BF0323A3726068FFF79CFE5D
:107530006068FFF799FE6068FFF796FE2046FFF748
:10754000C8FE63683079B168B2891A821872D9604E
:10755000012099E790D0030038B5837A032B18BF38
:10756000490215460A4611210446FFF70BFF30B1C8
:10757000302323702046FFF7ACFE00250BE02946A0
:107580004FF400722046FFF7B7FE05460028F1D001
:107590002046FFF79EFE284638BD10B5837A032BA0
:1075A0000A4618BF4A0212210446FFF7EBFE30B12B
:1075B000312320462370FFF78CFE002010BD0120F0
:1075C000FCE710B500220C210446FFF7DBFE30B1CA
:1075D000282320462370FFF77CFE002010BD2046A4
:1075E000FFF777FE0120F9E7F8B5044616461F4677
:1075F000FFF7D3FF68B10025ABB29F4206EB4521F0
:1076000009D94FF400722046FFF776FE01350028B5
:10761000F2D10020F8BD2046BDE8F840FFF7D1BF09
:1076200038B5044615464068FFF71CFE4FF400725B
:107630006068294600F0E6F86068FF21FFF712FE57
:107640006068FF21FFF70EFE6068FFF70DFE6072B5
:1076500000F01F00052806D0572320462370FFF7AF
:1076600038FE002038BD0120FCE770B5837A032B7B
:1076700018BF490215460A4618210446FFF782FE44
:10768000064630B1322323702046FFF722FE002544
:107690001FE02A46FE212046FFF7C2FF0028F3D054
:1076A0004FF4FA612046FFF758FE054608B95A2301
:1076B000E9E732460D212046FFF764FE08B1292391
:1076C000E1E76068FFF7D0FD0028F8D12046FFF71A
:1076D00000FE284670BD13B501914FF4FA610446CF
:1076E000FFF73BFE019A30B95B2323702046FFF77A
:1076F000F0FD002005E0FC212046FFF791FF002867
:10770000F4D002B010BD10B5837A032B0A4618BF1F
:107710004A0219210446FFF735FE30B133232046D3
:107720002370FFF7D6FD002010BD0120FCE738B51F
:107730004FF4FA610446FFF710FE054630B95623B0
:1077400023702046FFF7C5FD284638BD6068FD213F
:10775000FFF788FDF5E7F8B5044616461F46FFF724
:10776000D2FF70B10025BD4206EB4521204604D072
:10777000FFF7B1FF28B10135F5E7BDE8F840FFF7A5
:10778000D6BF2046FFF7A5FD0020F8BD014B012222
:107790001A7070471CE60320011D006809F01EBA2C
:1077A00010B504460175006809F0D3F9207D012168
:1077B00009F08EFE207D0121BDE8104009F099BE40
:1077C000006809F0F1B90068FF2109F0A7BA0000CC
:1077D00037B51346074A00920025074C006825700C
:1077E0000A46294609F0A0FA2378002BFCD0002095
:1077F00003B030BD8D770B001CE60320006809F054
:107800008DBA000037B51346064A00920025064C93
:10781000006825702A4609F087FA2378002BFCD0EF
:1078200003B030BD8D770B001CE603207047704716
:1078300038B50C4605462022002104F108000CF062
:107840002FF909490B2220460CF0E4F90123E360EB
:107850006B6A236102236361044BE361044BA36100
:10786000044B236238BD00BFDC620C000000C8C4BA
:107870000000C8448FC2753C10B528210446FCF7AF
:1078800010FC204610BD0000034A02600022C0E93F
:1078900007220276704700BFFC620C0030B501235E
:1078A0008DB00022CDE9022306252822CDE900254E
:1078B0000446D0E9071206A805F01AF92A4604A9D9
:1078C00006A805F093F9257EBDF91010BDF9122028
:1078D000BDF91430E180032D98BF1248228107EED4
:1078E000101A9CBF00EB8500D0ED007A6381B8EEE2
:1078F000C77A88BFF7EE007AC7EE276A07EE102A2C
:10790000B8EEC77AC4ED036AC7EE276A07EE103AED
:10791000B8EEC77AC4ED046AC7EE276AC4ED056AFB
:107920000DB030BDE4620C0038B50C46054620228F
:107930000021201D0CF0B4F8242323606B6A6360DF
:107940000223A36005F098FC20612846FFF7A6FFFC
:10795000D5ED037A9FED097A67EE877A0120C4EDB1
:10796000057AD5ED047A67EE877AC4ED067AD5ED0F
:10797000057A67EE877AC4ED077A38BD0000C84201
:10798000F0B5012595B00027CDE9027520230093BD
:1079900001950E460446D0E907122B4608A805F0CB
:1079A000A7F80523022208A904A805F07DF93146AD
:1079B00004A805F08BF92323D4E907120093CDE93D
:1079C00002752B4601950EA805F092F802231A467F
:1079D0000EA906A805F068F9314606A805F076F963
:1079E00015B0F0BD70B501298CB006460C4603D128
:1079F0000321FFF7C5FF09E0032903D0052903D1BF
:107A00000121F6E70221F4E707291BD00A2005F03F
:107A10007DFF01250023CDE902352023D6E9071299
:107A2000009301952B4606A805F062F82B46042228
:107A300006A904A805F038F9214604A805F046F97E
:107A40000CB070BD0021D4E730B501238DB0002506
:107A5000CDE902532222019300920C46D0E907128D
:107A600006A805F045F82B46022206A904A805F051
:107A70001BF9214604A805F029F90DB030BD30B539
:107A800001238DB00022CDE902232122019300922F
:107A90000D460446D0E9071206A805F029F805238B
:107AA000022206A904A805F0FFF8294604A805F05B
:107AB0000DF925760DB030BD10B501238CB0002234
:107AC000CDE90223212201930092D0E90712044656
:107AD00006A805F00DF80523022206A904A805F062
:107AE000E3F804A805F0E5F8C0B220760CB010BDAC
:107AF00030B500238DB00125CDE902352123009357
:107B00000195D0E9071204462B4606A804F0F0FFC1
:107B100002232A4606A904A805F0C6F8294604A8A7
:107B200005F0D4F80A2005F0F1FE2046FFF7C4FF67
:107B30000DB030BD70B501268AB00025CDE90256E2
:107B40000F2300930196D0E907123346044604A898
:107B500004F0CEFF04A805F08BF83D2815D120468F
:107B6000FFF7C6FF03212046FFF70AFF31462046F4
:107B7000FFF738FF29462046FFF781FF20462946B8
:107B8000FFF762FF30460AB070BD2846FBE737B505
:107B9000C36904465BB91020CDE90012FCF77BFAFB
:107BA000054618B1DDE9001205F0A9F8E5610023EA
:107BB000E0692362012105F0BEF828B1204603B038
:107BC000BDE83040FFF7B6BF03B030BD30B501238C
:107BD0008BB00C46002532220221CDE90253CDE9BB
:107BE0000021D0E9071204A804F082FF2A46C4F35A
:107BF0000E0104A804F0DCFF0BB030BD30B58BB033
:107C000000259DF83C40640044EAC1119DF83840CD
:107C100041EA840141EA431343EA82129DF840405D
:107C2000012342F00802CDE90253D2B214433022BC
:107C300001930092D0E9071204A804F059FF2A46E4
:107C4000214604A804F0B4FF0BB030BD10B54218B3
:107C5000405C937854781B0443EA04230343D078B0
:107C600043EA006010BD4318405C5A7840EA0220A5
:107C7000704710B42AB902685DF8044B9268C9B223
:107C800010475DF8044BD2B208F085BE12B9036804
:107C90009B681847D2B208F07EBE10B50446FFF7C5
:107CA000F5FF2046BDE8104008F05DBE0368C9B28C
:107CB0009B6818474FF4005202804221002210B501
:107CC000C0E90122C0E90322C0E90522C0E9072278
:107CD000C0E90922C0E90B22C0E90D22C0E90F2248
:107CE000C0E91122C0E91322C0E91522C0E9172218
:107CF000C0E91922C0E91B22C0E91D22C0E91F22E8
:107D0000C0F8E810802180F8091100F1F401C0F8F2
:107D100014112549C0F8C42000F1F604C0E9461248
:107D2000C0E92122C0E92322C0E92522C0E9272297
:107D3000C0E92922C0E92B22C0E92D22C0E92F2267
:107D4000C0E93E22C0E94022C0E94322C0F8D02069
:107D5000C0F8D82080F80821C0F82021C0E94941A6
:107D6000C0E94D21C0E951211049C0F84C1140F63D
:107D70006411A0F85011582180F85D110121C0E96B
:107D80004B22C0E94F22C0F8542180F86421C0F88A
:107D90006821A0F86C21C0F8EC20C0F8F010A0F821
:107DA0007221A0F8742110BD000002020002646478
:107DB000F8B504460D46D0F8FC00A9B9A8B1FCF707
:107DC0006EF994F8E930C4F8FC50C4F83451C4F8A2
:107DD000F85013B994F8EA3023B12049D4F8D4000C
:107DE00008F0D7FD012011E0B8B92846FCF755F995
:107DF000C4F8FC00C4F8340160BB94F8E930C4F85E
:107E0000F80023B994F8EA300BB90020F8BD144902
:107E1000D4F8D40008F0BDFDF7E70846FCF73DF9BB
:107E2000064640B994F8E9301BB994F8EA30002BC3
:107E3000EBD00C49ECE7D4E93E27AA4228BF2A46FA
:107E400039460BF005FE3846FCF729F9C4F8FC600A
:107E5000C4F83461C4F8F850C4E700BF10630C00E4
:107E60003B630C0066630C000D2900F0CD8009D83F
:107E7000022900F0A780062900F0BE80012916D053
:107E800000207047132900F0D480282900F0DC80FE
:107E90001029F5D1102A00F0C98000F2BA80022A18
:107EA00000F0C180032AEBD1D0F8880066E0262AD2
:107EB00054D8002AE4D0013A252AE1D801A353F886
:107EC00022F000BF7B7F0B00817E0B00857F0B00C3
:107ED000897F0B008D7F0B00817E0B00917F0B0053
:107EE000817E0B00957F0B00817E0B00817E0B0055
:107EF000817E0B00817E0B00817E0B00817E0B005A
:107F0000817E0B00997F0B009D7F0B00A17F0B00F2
:107F1000A57F0B00817E0B00817E0B00A97F0B00EB
:107F2000817E0B00817E0B00817E0B00817E0B0029
:107F3000817E0B00817E0B00817E0B00817E0B0019
:107F4000817E0B00AD7F0B00B17F0B00817E0B00AB
:107F5000817E0B00817E0B00B57F0B003C2A2DD06B
:107F600005D8352A28D03B2A8AD1806C06E0602AC1
:107F700026D0612A84D1806900E0C068003818BF2B
:107F8000012070470069F9E74069F7E7C069F5E744
:107F9000006AF3E7406AF1E7C06AEFE7006BEDE7DC
:107FA000406BEBE7806BE9E7C06BE7E7806AE5E7EA
:107FB000006CE3E7406CE1E7C06CDFE7006DDDE7F4
:107FC000406DDBE7342A15D006D8132A0BD0152ACA
:107FD0007FF456AFC06ED1E7722A06D0732A7FF4C1
:107FE0004FAF006ECAE7806EC8E7836D002B3BD1B0
:107FF000C06DC3E7406EC1E722B1082A7FF440AFED
:10800000406FBBE7006FB9E7032A7FF439AF806F99
:10801000B4E7142A05D0152A7FF432AFD0F88000D7
:10802000ACE7C06FAAE7D0F88400A7E7D0F88C00CF
:10803000A4E7602A05D0802A7FF422AFD0F8A00000
:108040009CE7D0F89C0099E7012A07D0022A08D0C3
:10805000002A7FF415AFD0F890008FE7D0F8940095
:108060008CE7D0F8980089E7012070470D2935D0BA
:1080700007D8022919D006292AD001290DD00020BD
:10808000704713292FD0282934D01029F7D1023A6C
:10809000D2B2132AF3D81F4B04E0013AD2B2602ABD
:1080A000EDD81D4B33F812007047342A27D007D87B
:1080B000132A26D0152A14BF00204FF439607047C8
:1080C000722A20D0732A14BF00204FF484707047A6
:1080D000E2B1082A14BF002006207047032A14BF0B
:1080E00000201C207047602A12D0802A14BF002074
:1080F000A4207047022AC2D8084B985C70470C2015
:108100007047482070474FF4047070471420704740
:108110000820704726700C00646F0C004E700C0035
:1081200010B590F8EC10CA0715D4D0F86021594B5F
:1081300022F0FF029A4201D18B070CD490F86131F2
:10814000472B74D1B0F8623145F24114A34204D1F7
:1081500011F0040F6BD0012070E045F24214A342ED
:1081600002D111F0080FF5E745F24234A34202D1E3
:1081700011F0100FEEE744F24714A34202D111F0C0
:10818000200FE7E744F64C44A34202D111F0400F20
:10819000E0E745F24C14A34202D111F0800FD9E779
:1081A00045F24E118B4204D190F8ED3013F0010FDF
:1081B000D0E745F24E318B4204D190F8ED3013F008
:1081C000020FC7E745F250118B4204D190F8ED3011
:1081D00013F0040FBEE745F251118B4204D190F821
:1081E000ED3013F0080FB5E745F252318B4204D160
:1081F00090F8ED3013F0100FACE744F253118B42BE
:1082000004D190F8ED3013F0200FA3E745F253416D
:108210008B4204D190F8ED3013F0400F9AE745F20D
:1082200053618B4203D190F9ED30002B93DB1A4B55
:108230009A4204D190F8EE0000F0010010BD174BF7
:108240009A4204D190F8EE00C0F34000F6E7144BD8
:108250009A4204D190F8EE00C0F38000EEE7114B93
:108260009A4204D190F8EE00C0F3C000E6E70E4B4E
:108270009A4204D190F8EE00C0F30010DEE70B4BF9
:108280009A4204D190F8EE00C0F34010D6E70020E7
:10829000D4E700BF0044544D00524C4D00524D43B2
:1082A0000054585400564C5700565447005A444105
:1082B00090F85E312A2B57D190F85F31472B53D17C
:1082C000D0F86031294A23F0FF03934211D090F88F
:1082D0006121472A1AD1B0F86221A2F5A2414139A1
:1082E00089B2102907D922F0100145F242308142AB
:1082F00029D1012070471E4820FA01F1C907F8D49E
:1083000022F4007245F253418A42F2D0194A934254
:10831000EFD002F1764202F580329342E9D0164A5C
:108320009342E6D002F1022202F574029342E0D0B9
:1083300002F1704202F500229342DAD00F481B1A74
:1083400058425841704744F247118A42D1D044F60E
:108350004C418A42CDD045F24E318A42C9D044F2D6
:1083600053118A42C5D0CBE7002070470044544DDA
:1083700003A8010000524C4D00545854005A444187
:1083800010B590F8F010CA0715D4D0F86021594BF9
:1083900022F0FF029A4201D18B070CD490F8613190
:1083A000472B74D1B0F8623145F24114A34204D195
:1083B00011F0040F6BD0012070E045F24214A3428B
:1083C00002D111F0080FF5E745F24234A34202D181
:1083D00011F0100FEEE744F24714A34202D111F05E
:1083E000200FE7E744F64C44A34202D111F0400FBE
:1083F000E0E745F24C14A34202D111F0800FD9E717
:1084000045F24E118B4204D190F8F13013F0010F78
:10841000D0E745F24E318B4204D190F8F13013F0A1
:10842000020FC7E745F250118B4204D190F8F130AA
:1084300013F0040FBEE745F251118B4204D190F8BE
:10844000F13013F0080FB5E745F252318B4204D1F9
:1084500090F8F13013F0100FACE744F253118B4257
:1084600004D190F8F13013F0200FA3E745F2534107
:108470008B4204D190F8F13013F0400F9AE745F2A7
:1084800053618B4203D190F9F130002B93DB1A4BEF
:108490009A4204D190F8F20000F0010010BD174B91
:1084A0009A4204D190F8F200C0F34000F6E7144B72
:1084B0009A4204D190F8F200C0F38000EEE7114B2D
:1084C0009A4204D190F8F200C0F3C000E6E70E4BE8
:1084D0009A4204D190F8F200C0F30010DEE70B4B93
:1084E0009A4204D190F8F200C0F34010D6E7002081
:1084F000D4E700BF0044544D00524C4D00524D4350
:108500000054585400564C5700565447005A4441A2
:10851000D0F8D00010B103689B681847704700007E
:1085200037B53D4B044604F25F15186800909B88F0
:10853000ADF804300522294668460BF079FA28B9CF
:10854000D4F8A43013B1012003B030BD33496846DC
:108550000BF00CFB0522294668460BF069FA18B9A6
:10856000D4F8A830002BEED12D4968460BF0FEFA66
:108570000522294668460BF05BFA18B9D4F8AC30EE
:10858000002BE0D1274968460BF0F0FA0522294676
:1085900068460BF04DFA18B9D4F8B030002BD2D1A0
:1085A000214968460BF0E2FA0522294668460BF09D
:1085B0003FFA18B9D4F8B430002BC4D11B4968462F
:1085C0000BF0D4FA0522294668460BF031FA18B9A7
:1085D000D4F8B830002BB6D1154968460BF0C6FA6E
:1085E0000522294668460BF023FA18B9D4F8BC30A6
:1085F000002BA8D10F4968460BF0B8FA052229468E
:1086000068460BF015FA28B9D4F8C000003818BF36
:10861000012099E7002097E7BC630C0092630C00EF
:1086200098630C009E630C00A4630C00AA630C000A
:10863000B0630C00B6630C0037B5624B044604F21D
:108640005F15186800909B88ADF804300522294614
:1086500068460BF0EDF978B9D4F8A43063B1D3F8DB
:10866000D4204AB1D3F8CC20002A40F0A380D3F81C
:10867000D030002B40F09E80534968460BF076FACC
:108680000522294668460BF0D3F978B9D4F8A8300A
:1086900063B1D3F8D4204AB1D3F8CC20002A40F0FB
:1086A0008980D3F8D030002B40F084804749684659
:1086B0000BF05CFA0522294668460BF0B9F968B957
:1086C000D4F8AC3053B1D3F8D4203AB1D3F8CC209D
:1086D000002A6FD1D3F8D030002B6BD13C496846CB
:1086E0000BF044FA0522294668460BF0A1F968B957
:1086F000D4F8B03053B1D3F8D4203AB1D3F8CC2069
:10870000002A57D1D3F8D030002B53D131496846D5
:108710000BF02CFA0522294668460BF089F968B956
:10872000D4F8B43053B1D3F8D4203AB1D3F8CC2034
:10873000002A3FD1D3F8D030002B3BD126496846E0
:108740000BF014FA0522294668460BF071F958B966
:10875000D4F8B83043B1D3F8D4202AB1D3F8CC2020
:1087600042BBD3F8D0302BBB1C4968460BF0FEF956
:108770000522294668460BF05BF940B9D4F8BC30B5
:108780002BB11A6F1AB19A6EA2B9DB6E93B9144964
:1087900068460BF0EBF90522294668460BF048F9CC
:1087A00058B9D4F8C03053B1186F20B19A6E0AB9D5
:1087B000D86E00B1012003B030BD0020FBE71846A1
:1087C000F9E700BFBC630C0092630C0098630C00D7
:1087D0009E630C00A4630C00AA630C00B0630C0041
:1087E000B6630C0037B5384B044604F25F151868C1
:1087F00000909B88ADF804300522294668460BF0AE
:1088000017F920B9D4F8A400013003B030BD2F49C6
:1088100068460BF0ABF90522294668460BF008F9CB
:1088200010B9D4F8A800EFE7294968460BF09EF983
:108830000522294668460BF0FBF810B9D4F8AC00C5
:10884000E2E7244968460BF091F90522294668467B
:108850000BF0EEF810B9D4F8B000D5E71E49684621
:108860000BF084F90522294668460BF0E1F810B9AF
:10887000D4F8B400C8E7194968460BF077F9052227
:10888000294668460BF0D4F810B9D4F8B800BBE715
:10889000134968460BF06AF90522294668460BF031
:1088A000C7F810B9D4F8BC00AEE70E4968460BF023
:1088B0005DF90522294668460BF0BAF810B9D4F8DC
:1088C000C000A1E70020A0E7BC630C0092630C008D
:1088D00098630C009E630C00A4630C00AA630C0058
:1088E000B0630C00B6630C0037B5384B044604F295
:1088F0005F15186800909B88ADF804300522294662
:1089000068460BF095F820B9D4F8A400023003B003
:1089100030BD2F4968460BF029F9052229466846E3
:108920000BF086F810B9D4F8A800EFE7294968469B
:108930000BF01CF90522294668460BF079F810B9AE
:10894000D4F8AC00E2E7244968460BF00FF90522A1
:10895000294668460BF06CF810B9D4F8B000D5E79A
:108960001E4968460BF002F90522294668460BF0BD
:108970005FF810B9D4F8B400C8E7194968460BF09D
:10898000F5F80522294668460BF052F810B9D4F8DC
:10899000B800BBE7134968460BF0E8F80522294602
:1089A00068460BF045F810B9D4F8BC00AEE70E49A4
:1089B00068460BF0DBF80522294668460BF038F8CC
:1089C00010B9D4F8C000A1E70020A0E7BC630C00F8
:1089D00092630C0098630C009E630C00A4630C006F
:1089E000AA630C00B0630C00B6630C0037B5394BBA
:1089F000044604F25F15186800909B88ADF80430B7
:108A00000522294668460BF013F820B9D4F8A400D3
:108A1000663003B030BD304968460BF0A7F8052238
:108A2000294668460BF004F810B9D4F8A800EFE71F
:108A30002A4968460BF09AF80522294668460AF04A
:108A4000F7FF10B9D4F8AC00E2E7254968460BF00F
:108A50008DF80522294668460AF0EAFF10B9D4F8D5
:108A6000B000D5E71F4968460BF080F8052229467B
:108A700068460AF0DDFF10B9D4F8B400C8E71A4917
:108A800068460BF073F80522294668460AF0D0FFC5
:108A900010B9D4F8B800BBE7144968460BF066F883
:108AA0000522294668460AF0C3FF18B9D4F8BC006D
:108AB0003430AEE70E4968460BF058F805222946D7
:108AC00068460AF0B5FF10B9D4F8C000F0E70020FE
:108AD0009FE700BFBC630C0092630C0098630C001E
:108AE0009E630C00A4630C00AA630C00B0630C002E
:108AF000B6630C0037B5394B044604F25F151868AD
:108B000000909B88ADF804300522294668460AF09B
:108B10008FFF20B9D4F8A400673003B030BD3049CE
:108B200068460BF023F80522294668460AF080FFC4
:108B300010B9D4F8A800EFE72A4968460BF016F8F8
:108B40000522294668460AF073FF10B9D4F8AC0034
:108B5000E2E7254968460BF009F8052229466846F0
:108B60000AF066FF10B9D4F8B000D5E71F4968468F
:108B70000AF0FCFF0522294668460AF059FF10B9A1
:108B8000D4F8B400C8E71A4968460AF0EFFF052296
:108B9000294668460AF04CFF10B9D4F8B800BBE784
:108BA000144968460AF0E2FF0522294668460AF0A1
:108BB0003FFF18B9D4F8BC003530AEE70E4968461F
:108BC0000AF0D4FF0522294668460AF031FF10B9A1
:108BD000D4F8C000F0E700209FE700BFBC630C00A2
:108BE00092630C0098630C009E630C00A4630C005D
:108BF000AA630C00B0630C00B6630C0037B5394BA8
:108C0000044604F25F15186800909B88ADF80430A4
:108C10000522294668460AF00BFF28B9D4F8A4308B
:108C2000D3F8D40003B030BD2F4968460AF09EFF48
:108C30000522294668460AF0FBFE10B9D4F8A83090
:108C4000EEE72A4968460AF091FF05222946684660
:108C50000AF0EEFE10B9D4F8AC30E1E724496846DA
:108C60000AF084FF0522294668460AF0E1FE10B9A1
:108C7000D4F8B030D4E71F4968460AF077FF0522E0
:108C8000294668460AF0D4FE10B9D4F8B430C7E7D4
:108C9000194968460AF06AFF0522294668460AF023
:108CA000C7FE10B9D4F8B830BAE7144968460AF0DC
:108CB0005DFF0522294668460AF0BAFE18B9D4F8C5
:108CC000BC30186FAEE70E4968460AF04FFF052228
:108CD000294668460AF0ACFE10B9D4F8C030F0E777
:108CE00000209FE7BC630C0092630C0098630C00AB
:108CF0009E630C00A4630C00AA630C00B0630C001C
:108D0000B6630C0037B53A4B044604F25F15186899
:108D100000909B88ADF804300522294668460AF089
:108D200087FE30B9D4F8A430D3F8D400013003B0B2
:108D300030BD304968460AF019FF052229466846C9
:108D40000AF076FE10B9D4F8A830EDE72A49684653
:108D50000AF00CFF0522294668460AF069FE10B9A0
:108D6000D4F8AC30E0E7254968460AF0FFFE05225A
:108D7000294668460AF05CFE10B9D4F8B030D3E753
:108D80001F4968460AF0F2FE0522294668460AF0A5
:108D90004FFE10B9D4F8B430C6E71A4968460AF055
:108DA000E5FE0522294668460AF042FE10B9D4F8CD
:108DB000B830B9E7144968460AF0D8FE05222946BA
:108DC00068460AF035FE18B9D4F8BC30186FADE724
:108DD0000E4968460AF0CAFE0522294668460AF08E
:108DE00027FE10B9D4F8C030F0E700209FE700BF9D
:108DF000BC630C0092630C0098630C009E630C0033
:108E0000A4630C00AA630C00B0630C00B6630C00F2
:108E100013B5304B044604F25F14186800909B8829
:108E2000ADF804300522214668460AF001FE10B96B
:108E3000642002B010BD284968460AF097FE05225A
:108E4000214668460AF0F4FD0028F1D0234968461F
:108E50000AF08CFE0522214668460AF0E9FD00284A
:108E6000E6D01F4968460AF081FE05222146684681
:108E70000AF0DEFD0028DBD01A4968460AF076FECB
:108E80000522214668460AF0D3FD0028D0D01649B5
:108E900068460AF06BFE0522214668460AF0C8FDC6
:108EA0000028C5D0114968460AF060FE0522214617
:108EB00068460AF0BDFD48B10D4968460AF056FE05
:108EC0000522214668460AF0B3FD08B93220B0E712
:108ED0000020AEE7BC630C0092630C0098630C00AA
:108EE0009E630C00A4630C00AA630C00B0630C002A
:108EF000B6630C0037B5384B044604F25F151868AA
:108F000000909B88ADF804300522294668460AF097
:108F10008FFD18B9D4F8A40003B030BD2F496846BE
:108F20000AF024FE0522294668460AF081FD10B9A0
:108F3000D4F8A800F0E72A4968460AF017FE05228F
:108F4000294668460AF074FD10B9D4F8AC00E3E78E
:108F5000244968460AF00AFE0522294668460AF0B6
:108F600067FD10B9D4F8B000D6E71F4968460AF08B
:108F7000FDFD0522294668460AF05AFD10B9D4F8CD
:108F8000B400C9E7194968460AF0F0FD05222946F0
:108F900068460AF04DFD10B9D4F8B800BCE7144992
:108FA00068460AF0E3FD0522294668460AF040FDBE
:108FB00010B9D4F8BC00AFE70E4968460AF0D6FDF8
:108FC0000522294668460AF033FD10B9D4F8C000DE
:108FD000A2E70020A0E700BFBC630C0092630C0076
:108FE00098630C009E630C00A4630C00AA630C0041
:108FF000B0630C00B6630C007047000038B51388EE
:109000000C4D012B14460ED10A0202F440722A8044
:1090100001332380FFF7F0FF20882B88984214BF8C
:109020000320002038BD022BF2D12A880A430632E1
:10903000EDE700BF1EE6032030B54A780D784C8876
:109040002A4454FA82F000EB142355FA82F203F01A
:10905000FF0352FA80F20B7313444B73002293B256
:109060009C420AD98B68087B9B5C0344487BDBB23B
:109070000B7303444B730132F1E730BD90F85A3162
:10908000194490F85B31C9B280F85A11194480F83C
:109090005B1170472DE9F74FB1F802B00BF1080BE7
:1090A0001FFA8BFB4FF00008ABF1020304460D469C
:1090B000DA46C1460093BAF1000F00F0A680667848
:1090C00094F8E810D4F8C800564528BF5646AAEBD5
:1090D000060A1FFA8AFABAF1010F02BF06F1FF363B
:1090E000B6B24FF0020A06F06DF9B9F1000F5CD18B
:1090F000D4F8C8000368B5219B689847D4F8C80025
:10910000036862219B689847D4F8C80029780368EF
:109110009B689847D4F8C800697803689B689847AB
:10912000A978D4F8C800FEF7C1FD6988D4F8C80052
:10913000090AFEF7BBFD4B466A88D4F8C8001FFA3F
:1091400083F909F106074A45BFB20DD9BE420BD9D2
:10915000AA680168019342448F68D15CB847019BBB
:109160000133E9E7B946A6E7023EC844B7421FFA11
:1091700088F80CD10368297B9B689847D4F8C8000D
:10918000697B03689B68984709F10807BFB25F4590
:10919000E8D294F87411D4F8C80006F01AF900283F
:1091A000E0D00C2003B0BDE8F08F002291B219FA94
:1091B00082F78E42D4F8C800BFB210D9B5F802E0E9
:1091C00008EB020C531CF445019308DAA968026805
:1091D00011F80C1092689047019B1A46E6E7009B35
:1091E00088449F421FFA88F8D1D1023EB242CED1C4
:1091F0000368297B9B689847D4F8C800697B03689B
:109200009B6898471FFA8BF7C1E7D4F8C80006F0AF
:10921000E4F80028C6D0C4E770B50546D0F8CC0005
:1092200003680C469B68B5219847D5F8CC000368C5
:1092300062219B689847D5F8CC00217803689B6829
:109240009847D5F8CC00617803689B689847D5F8B3
:10925000CC00A17803689B689847D5F8CC0061885A
:109260000368090A9B6898470026D5F8CC006188F6
:109270000368B2B291429B6804D9A168895C98479F
:109280000136F2E7217B9847D5F8CC00617B036873
:10929000BDE870409B68184710B50446D0F8DC0064
:1092A00007F03CFD94F8083194F809219A420BD953
:1092B000FF2801D122783AB1D4F80421D05494F88F
:1092C0000831013384F8083110BD00002DE9FF4159
:1092D000D0F8043104460D467BB990F8E93023B943
:1092E00090F8EA30002B00F0CA806649D4F8D40028
:1092F00004B0BDE8F04107F032BBD0F8E430624A78
:1093000002930026012380F808616946D0F8DC004A
:10931000ADF80C3000928DF8046007F05FFC94F813
:10932000E000314608F0E5F8B5212046FFF7B4FF2C
:1093300062212046FFF7B0FF29782046FFF7ACFFF7
:1093400069782046FFF7A8FFA9782046FFF7A4FF19
:1093500069882046090AFFF79FFF94F8E930002B3F
:1093600042D04A49D4F8D40007F0F9FA1022D4F8D0
:10937000D400B521FEF78AFC4549D4F8D40007F0A3
:10938000EEFA1022D4F8D4006221FEF77FFC4049A7
:10939000D4F8D40007F0E3FA10222978D4F8D400E6
:1093A000FEF774FC3A49D4F8D40007F0D8FA10223A
:1093B0006978D4F8D400FEF769FC3549D4F8D400B4
:1093C00007F0CDFA1022A978D4F8D40007F0E3FA18
:1093D0002F49D4F8D40007F0C2FA6988D4F8D40031
:1093E0001022090A07F0D7FADFF8A48000266A885D
:1093F000B3B29A4216D91F46AB682046D95DFFF733
:109400004BFF94F8E9305BB14146D4F8D40007F043
:10941000A6FAAB68D4F8D400D95D1022FEF736FC6A
:109420000136E4E7297B2046FFF736FF697B2046BB
:10943000FFF732FF94F8E000012108F05AF8D4F861
:10944000DC0007F0B1FB94F8E930C3B11049D4F85F
:10945000D40007F084FA297BD4F8D4001022FEF758
:1094600015FC0B49D4F8D40007F079FA697BD4F8DD
:10947000D400102204B0BDE8F041FEF70EBC04B0E9
:10948000BDE8F081C2630C00A0610C00F7630C0022
:1094900045730C00F8B590F8E93004460D461646C1
:1094A000002B00F0828090F84C714049D0F8D40035
:1094B00007F055FA2B78012B3CD13D49D4F8D40064
:1094C00007F04DFA3B49D4F8D40007F048FA2B884E
:1094D00040F20172934245D13749D4F8D40007F0E5
:1094E0003EFA3649D4F8D40007F039FA6988D4F83E
:1094F000D400102207F04FFA012F01D1002E49D0DD
:109500002F49D4F8D4002F4F07F029FA00266A8893
:10951000D4F8D400B3B29A4241D9394607F01FFAC1
:10952000B3B2A968D4F8D400C95C1022FEF7AEFB30
:109530000136ECE7052BD4F8D40001D12249BFE76E
:10954000062B01D12149BBE70A2B01D12049B7E7FE
:10955000204907F004FA2978D4F8D4001022FEF745
:1095600095FBAFE740F606029342D4F8D40001D150
:109570001949B4E740F60612934201D11749AEE704
:10958000144907F0ECF96978D4F8D4001022FEF7FA
:109590007DFBA6E71249D4F8D40007F0E0F9D4F82F
:1095A000D400BDE8F84007F0DEB9F8BD08640C004F
:1095B0000D640C001D640C0022640C0030640C006F
:1095C00039640C0045730C0011640C0015640C0028
:1095D00019640C008E660C0026640C002B640C00D1
:1095E00043640C0038B5B0F86C51044655B990F896
:1095F000E9300BB9002038BD1A49D4F8D40007F07F
:10960000C8F9F7E7D0F868312BB190F8E930002BB2
:10961000F0D01549F1E72846FAF73FFD94F8E93014
:10962000C4F8680130B91BB994F8EA30002BE1D0D6
:109630000E49E2E77BB10E49D4F8D40007F08FF968
:10964000D4F8D450B4F86C110A22284607F0A3F9D4
:10965000284607F088F90023A4F86E31A4F8703189
:109660000120C8E755640C00A6640C00E9640C00F6
:109670000D650C00B0F86E31B0F8702193423BBF1D
:10968000B0F86C01C018981A801A80B2704708B5FB
:109690000146FFF7EFFFB1F86C31181A80B208BD30
:1096A0002DE9F041B0F86E31B0F86C51ED1AADB261
:1096B000954228BF154616460446D0F86801771B28
:1096C0002A461844BFB288460AF0C2F99FB1D4F8BE
:1096D00068013A4608EB05010AF0BAF9A4F86E7180
:1096E0002046FFF7C7FFB4F87231834238BFA4F8B1
:1096F0007201BDE8F081B4F86E211644A4F86E61E1
:10970000EEE7000037B5D0F8683104460D4613B1D6
:10971000B0F86C3153B994F8E90028B12449D4F871
:10972000D40007F036F9002003B030BDFFF7AFFFDB
:109730006B8808339BB2834208D994F8E9301BB98F
:1097400094F8EA000028EFD01A49E8E746F2B5237A
:10975000022269462046ADF80030FFF7A1FF012242
:1097600029462046FFF79CFF0122A9182046FFF753
:1097700097FF6B888DF8043002221B0A01A920464E
:109780008DF80530FFF78CFF6A88A9682046FFF73F
:1097900087FF012205F10C012046FFF781FF2046DB
:1097A000012205F10D01FFF77BFF0120BCE700BF9F
:1097B00033650C005B650C002DE9F84F0E780D2E1B
:1097C00004460D4601F0288209D8022E00F09A873F
:1097D000062E01F0CC81012E4FD0BDE8F88F132E5C
:1097E00001F0EB83282E01F0CA84102EF5D10B680E
:1097F0008E4A23F0FF03934241F06A82C66F002E27
:10980000EBD0A8680021FEF721FA7060AA68E36F28
:1098100012791A72AA68E36F52795A72AA68E36FD2
:1098200092799A72A868E66F0821FEF70FFAF06045
:10983000A868E66F0C21FEF716FA3082A868E66F7A
:109840000E21FEF710FA7082E36F4FF0FF325A617B
:10985000E36F1A6A7AB1197808070CD4191D14330A
:1098600051F8040B42F8040B9942F9D1E26F1378D6
:1098700043F008031370E36F3DE00B686C4A23F07C
:10988000FF03934241D1C668002EA6D0A8680021EC
:10989000FEF7DCF97060A868E6680421FEF7D6F9E7
:1098A000B060A868E6680821FEF7D0F9F060A86803
:1098B000E6680C21FEF7CAF93061A868E668102155
:1098C000FEF7C4F97061E3684FF0FF329A61E36814
:1098D0005A6A7AB1197809070CD4191D183351F84E
:1098E000040B42F8040B9942F9D1E268137843F073
:1098F00008031370E3681B785F077FF56EAF294696
:109900002046BDE8F84FFFF7FDBE4A4A93423DD1DD
:109910000669002E3FF461AFA8680021FEF796F9B2
:109920007060AA68236912791A72AA682369527949
:109930005A72AA68236992799A72AA682369D279BD
:10994000DA72A86826690821FEF780F9F060A86835
:1099500026690C21FEF77AF9306123694FF0FF3256
:109960005A6123691A6A7AB119780E070CD4191D45
:10997000143351F8040B42F8040B9942F9D12269CF
:10998000137843F0080313702369B4E72A4A93421B
:1099900054D14669002E3FF420AFA8680021FEF79D
:1099A00055F97060A86866690421FEF75CF930819A
:1099B000A86866690621FEF756F97081A86866698D
:1099C0000821FEF750F9B081A86866690A21FEF700
:1099D0004AF9F081A86866690C21FEF744F93082E3
:1099E000A86866690E21FEF73EF97082A86866696C
:1099F0001021FEF738F9B08263694FF0FF329A61A7
:109A000063695A6A7AB1197808070CD4191D18339A
:109A100051F8040B42F8040B9942F9D162691378AA
:109A200043F008031370636965E700BF001410007A
:109A30000001140000031000000412008C4A93423D
:109A400049D1C669002E3FF4C8AEA8680021FEF7D0
:109A5000FDF87060AA68E36912791A72A868E6696D
:109A60000821FEF7F3F8F060A868E6690C21FEF71C
:109A7000EDF83061A868E6691021FEF7E7F870613B
:109A8000A868E6691421FEF7E1F8B061A868E66904
:109A90001821FEF7DBF8F061A868E6691C21FEF7E3
:109AA000D5F83062E3694FF0FF325A62E3691A6B0E
:109AB0007AB1197809070CD4191D243351F8040B15
:109AC00042F8040B9942F9D1E269137843F0080394
:109AD0001370E3690FE7674A934240F0CD80066A4E
