:02000002B0004C
:1040000000400B00702D0C00000006001700050298
:084010000401A30F00000000F1
:044018002C100C005C
:1040200009480A49884208B505D0094A824202D0A7
:10403000121A0AF040FF0748074A0021121A0AF034
:1040400062FF014808BD00BFA8DA0320682B0C00FE
:1040500088DC032088DC0320EDE7032070B5074EE1
:10406000074C09F019FFA41BA4080025AC4200D19D
:1040700070BD56F8043B98470135F7E7142B0C0048
:10408000382B0C0002F00ABE08B503F075F9BDE844
:10409000084009F0B9BE06F0A7B906F0A5B906F0C8
:1040A000ABB9000008B5034A03490C2006F0A8F894
:1040B000FEE700BFB19E0B0040100C000078B0FA84
:1040C00080F0400970470123037070477047037CFC
:1040D00013F008031EBFC36A406A1B1A002BACBF53
:1040E00018466FF000407047074B01221A70074BCB
:1040F000D3E90031994206D093F82820013283F8A1
:1041000028205033F6E77047D4DE0320E4DC032098
:10411000704710B510210446FFF7C1FF204610BDBF
:1041200010B534210446FFF7BAFF204610BD103009
:1041300003F0BEBB103003F0DCBA07B501220DF16D
:104140000701103003F027FA01280CBF9DF8070083
:104150004FF0FF3003B05DF804FB103003F042BCB9
:1041600007B501228DF8071010300DF1070103F09B
:1041700039FC03B05DF804FB436913B183690C306B
:104180001847704713B500210446084605F040FE65
:104190000023204601A9019305F052FE019C0CB1B9
:1041A000012323710021012005F032FE2CB1236888
:1041B00020469B6898470023237102B010BD000081
:1041C00010B5094C05F084FE2368C01A952809D95A
:1041D00005F07EFE206009F0CFFDBDE810400349E8
:1041E00009F0BDB910BD00BF74DD032055100C00EF
:1041F00038B5144B144D01241C7005F069FE2B6872
:10420000C01A95280ED909F0B7FD104909F0A7F991
:1042100005F05EFE0E4A2860D2E900138B4202D000
:10422000493B536038BD0B4A137883F00103137088
:10423000094B1A78002AF5D0084A147000221A7027
:10424000F0E700BFAADA032074DD032066100C003B
:10425000C4DC0320ABDA032007DE032038E60320AA
:10426000012A02D1016000207047022A04BF0B68B6
:104270000360F8E7036818470EB403B503AB0021E9
:1042800053F8042B019309F092F902B05DF804EBA6
:1042900003B0704773B5044608462279A36832B16B
:1042A000A3B90B4902B0BDE8704009F045B9094A0D
:1042B000267B094D0949647B012E18BF2946CDE9AB
:1042C00000140749FFF7D8FF02B070BD054AEFE7B9
:1042D00085100C0006160C0081100C007D100C00DF
:1042E0009B100C0074100C000EB403B503AB01213D
:1042F00053F8042B019309F05AF902B05DF804EB6E
:1043000003B07047364B2DE9F0470122354C1A7047
:1043100005F0DEFD2368C01A95285ED909F02CFD52
:10432000314909F01CF905F0D3FD304B30491E78B6
:104330002060B6B10B682F4C9878227890424CD010
:104340004F68DFF8BCC000259F4244D09978914265
:1043500001BF02461146CCF80030354650330846BE
:10436000F2E7D1E90046234FDFF89880DFF8989014
:10437000A64232D0A2783B789A4221D1D8F8005098
:1043800009F0FAFC05F11E0109F0E9F82DB395F8E2
:1043900018A0BAF1000F20D1AB7D9BB109F0ECFC65
:1043A000154909F0DCF809F0E7FCA2781349FFF79A
:1043B0009BFF2B6904F803A0012389F80030637088
:1043C0005034D5E7EA68698BA35A99423EBFA98A5F
:1043D0005B1AA352F0E705B12270BDE8F08700BF79
:1043E000AADA032074DD0320B8100C00ABDA032036
:1043F000E4DC032064DD0320C6100C00E1100C0097
:10440000A4DC0320D4DC032007DE03202DE9F843DD
:10441000334B344C01221A7005F05AFD2368C01A40
:1044200095281ED905F054FD206009F0A5FC2E4901
:1044300009F095F82D4B1A782D4BC2B15C682D4DC3
:1044400014F84E2C287882420BD01B6800229C4224
:104450001E4606D0503313F84E1C22B1264B29704D
:104460001E60BDE8F883411A4A424A41EFE7D3E9AA
:104470000046204FDFF88C80DFF88C90A642F0D009
:10448000A2783B789A4220D1D8F8005009F074FC09
:1044900005F11E0109F063F8002DE2D02B7E002B00
:1044A000DFD1AB7D9BB109F067FC144909F057F8E7
:1044B00009F062FCA2781249FFF716FF2B6901226E
:1044C000E254012389F8003063705034D6E7EA687B
:1044D000A98BA35A994282BFA98A5B18A352F0E71D
:1044E000AADA032074DD0320B8100C00ABDA032035
:1044F000E4DC032064DD0320A4DC0320C6100C00F0
:10450000E1100C00D4DC032007DE032010B5836823
:10451000044613B1032201469847204610BD00000F
:1045200037B5134B036004468068C8B100256FF0AF
:104530000043CDE9003502212B462A4605F088FCD0
:10454000A068294605F0A4FC237903F0FF0513B108
:1045500005F056FCF8E7A068294605F069FCA5605F
:1045600004F10C00FFF7D2FF204603B030BD00BFBE
:1045700060180C0010B50446FFF7D2FF20461C213E
:10458000FFF78DFD204610BD10B54368013B044682
:10459000436063B903689B689847A368013BA360C5
:1045A0002BB923682046DB68BDE81040184710BDD2
:1045B00013460A460149096803F0B7B940E60320EB
:1045C000F0B595B0044600AF0D461E22002107F15C
:1045D00030000AF098FC2068616807F1280303C3E3
:1045E00097F82830662B6E4668D13E4907F12800BF
:1045F0000AF00DFD00283ED13B48037C13B110307A
:1046000003F08CF9234607F1280204F1200518680D
:104610005968144603C40833AB422246F7D11868E0
:1046200020609B88A3801E2207F130012F480AF0EA
:104630003AFD00232D4A2E497B60381D03F075F9A1
:1046400048B109F099FB2B49284AFFF74DFE27494D
:10465000274803F0B6F909F08FFB244A2649FFF7F3
:1046600043FE2249254844F20222FFF7A1FF5437B6
:10467000B546BD46F0BD224907F128000AF0C7FC47
:1046800068B909F079FB194A1E49FFF72DFE164B50
:104690001B7C002BEBD0194803F040F9E7E71A49DF
:1046A00007F128000AF0B3FC40B909F065FB17498F
:1046B00008F055FF164B01221A70E8E7EB1D23F0B6
:1046C0000703ADEB030D2A46214668460AF0F3FBCB
:1046D0006946054808F030FF09F04EFB694608F0CE
:1046E0003EFFC4E7F4100C0008DE03203CDE03208C
:1046F000E8E50320FD100C0030110C0018DE03204B
:104700004D110C0056110C006E110C0077110C00AD
:104710005ADE032030B585B01B4B009313798DF81A
:1047200004309368029300F58C659389ADF80C30E2
:1047300004460A466B4600F26C41284604F014F821
:1047400010B9002005B030BD256004F23C45284674
:1047500003F0E4F80121204603F0B0FE014668B101
:104760002146284602F011FF0028EAD094F83C3494
:1047700013F0700FE5D0054B1D60E3E7204603F012
:104780009DFE0028ECD1DCE74C180C0040E603202D
:1047900038B50D4C237C054683B90C4944F20222FE
:1047A00004F11000FFF704FF2946204608F0D7FE69
:1047B00004F11000BDE8384003F0B0B801462046CF
:1047C000BDE8384008F0CBBED0DD032078DD032003
:1047D00010B54FF480710E4C0180002281820D498A
:1047E0008161C0E90124C16101240021C0E91022D6
:1047F000C0E912220473C2810261827501624162C2
:1048000080F82820C162016341638163C16310BDE8
:104810000000010100C079C42DE9F04395B0037890
:10482000522B06AF04467AD14378502B77D109F04A
:10483000A3FA724908F093FE20460AF018FC0138EA
:1048400020F00700E846ADEB000D20460AF00FFC13
:104850000DF118094844002500F8095C2046FD7454
:104860000AF005FC204410F8023C3B7320460AF095
:10487000FEFB2044294610F8013C7B73102207F10F
:104880000C00BD730BF0E0FA0646F6B209F074FABC
:104890005B49009433463246FFF726FD0425204647
:1048A0000AF0E5FB0238854212D2062D9BBF07F1C4
:1048B00038035B1909EB0503625D8CBF625D03F889
:1048C0002C2C05F1010588BF03F8072CEDB2E6E7B3
:1048D000B0422ED009F050FA054620460AF0C7FB38
:1048E000821E2846474D48493346FFF7FDFC2B7C86
:1048F000CBB9464944F2022205F11000FFF758FEF9
:10490000434922462846FFF7EFFC05F1100003F06B
:1049100005F809F031FA3F4908F021FEC5463C3759
:10492000BD46BDE8F0833A4922462846FFF7DCFC45
:10493000EFE7394907F110000AF069FB0546002846
:10494000ECD1FB1D0493BB1D03933B1D029307F1A8
:104950002C067B1D3149019307F1140207F1200356
:104960000096484605F060FD237A3B7207F1080087
:104970007D720AF08CFAC5B209F0FEF928492A4680
:10498000FFF7B2FC274BD3E9003199421C46C5D052
:10499000A278AA4203F15003F7D107F120000AF0F0
:1049A00073FA51EC100B0AF0FBF9A06130460AF0E3
:1049B0006BFA51EC100B0AF0F3F97B79E3813B7948
:1049C000194AA1781278E061003B18BF0123A37552
:1049D000BB79003B18BF01236375FB79003B18BF0F
:1049E0000123914208BF114A23744FF0010308BF0D
:1049F00013700F4AA371637013708FE78D110C0051
:104A0000A1110C00D0DD0320C4110C0078DD0320BF
:104A1000E1110C0011120C0032120C0036120C00C5
:104A20004B120C00E4DC032064DD0320AADA03202F
:104A300038E6032008B509F04BFB0849FFF71CFCDA
:104A4000142005F039FD09F043FB0549FFF714FC7C
:104A5000BDE80840142005F02FBD00BF05160C006E
:104A600083100C002DE9F0432F4B304FD3E9004663
:104A70008BB050344FF00008A4F150039E4250D048
:104A800014F8503C002B4AD014F8495C14F8473C09
:104A9000AD0045EA430314F8485C1D4314F83A3C62
:104AA00045EAC30534F8423C45EA031514F83F3C97
:104AB00045EA831514F83B3C45EAC31514F8463C17
:104AC00045EA032514F8453C45EA432514F8443CDF
:104AD00045EA832509F050F934F8101C34F84C3CB1
:104AE00014F84E2C069134F80E1C0993ADB2CDE9A2
:104AF0000451814654F82C0C089209F03FFECDE990
:104B0000020154F8300C09F039FEDDE90823CDE943
:104B1000000139464846FFF7E7FB04F8508C503453
:104B2000AAE70BB0BDE8F083E4DC032073120C00AD
:104B30002DE9F041294E2A4CDFF8B08088B000AF53
:104B400009F01AF903681B699847002842D009F058
:104B500013F90A220146384608F046FE09F00CF91E
:104B6000396808F0FCFCBA6802F1090323F0070376
:104B70006D46ADEB030D013200236946384608F05F
:104B80004FFFBB686B4400225A7003216846FFF751
:104B900043FE3378CBB1237C2BB91249124844F23F
:104BA0000222FFF705FD394607F1100008F0CAFEA2
:104BB00007F1100241462046FFF796FB07F110006F
:104BC00008F02AFE084802F0A9FE384608F024FE44
:104BD000AD46B5E72037BD46BDE8F08104DE0320D1
:104BE000D0DD032078DD0320E0DD032096120C00E9
:104BF0002DE9F04784B002AF804691461E460D462F
:104C00000AF035FA093020F00701ADEB010D4046FE
:104C10000AF02DFA02AC294997F828A0034642462B
:104C2000204605F0F9FB09F0A7F8214608F097FCAB
:104C3000BAF1000F01D1042D0DD1214B21491B7870
:104C40008DF8003038463C23224608F005F9786894
:104C500008B1FFF799FCB9F1000F01D1012D21D165
:104C600006F044F906F0EFF9E0B120460AF0FFF94A
:104C7000073020F00700E846ADEB000D20460AF0B3
:104C8000F6F90DF108090246214648460AF013F9E3
:104C900020460AF0ECF90023024649460A4805F08E
:104CA000BFFFC5460EB9022D04D109F011FA214605
:104CB00008F055FC0837BD46BDE8F087BF120C0070
:104CC0002CDD0320C6120C00C4DE03202DE9F04FBA
:104CD00007468BB0102009F08CF9C0F57F640646BA
:104CE000112009F086F90F3440F2DC739C4200F386
:104CF000B380C6F50263B04A02336FF059067343BE
:104D0000934203DCA6F2827693FBF6F640F2DC7364
:104D1000984200F3B180A84BA0F2DD706FF0590A01
:104D20000AFB00F0984202DCA44B90FBF3FA06EB7E
:104D3000D6735B105A33002EA14CA24DDAB240F369
:104D4000C08006F15A014FEADA73BAF1000FC9B216
:104D5000534440F3A7805645A1EB6303DBB2BABFCF
:104D600002EB6A02227021702B70974E2178337803
:104D70005A1A032A02DCCB1A032B03DD934B317042
:104D800001221A7092482A780378A3EB020CBCF136
:104D9000030F02DCD31A032B05DD8C4B02704FF09E
:104DA000010C83F800C033788B4205D05A2901BF2B
:104DB000864B3170012119700378934205D05A2A2D
:104DC00001BF824B027001221A70824B1B78002BAC
:104DD00040F0D480804EDFF8F48105F079F8336834
:104DE000C01A40F2EE23984240F2BE80002388F8B9
:104DF000003005F06DF8794B30605A681E68DFF8B6
:104E0000ECA10492049BB34200F0B880F3890BBB81
:104E1000734B1A78B3789A421CD1F36C03932B78B6
:104E200096F8099096F807B000933A4623785146D1
:104E300006A805F0F1FA89F00102B9F1000F00F0BF
:104E4000A0804FF00009CDF800900123002106A8B2
:104E5000FFF7CEFE5036D5E740F62302944209DD37
:104E60009B1B604A5A26734393423FF74FAF40F271
:104E7000DB7649E7002649E740F6230398420EDD3A
:104E8000584BA0F623004FF05A0A0AFB00F0984254
:104E90003FF74DAF40F2DB7AB0FBFAFA47E74FF04D
:104EA000000A44E7CAF1000AB2454FEA6300C8BFEE
:104EB000121A01EB6303DBB2CCBF2A702970237096
:104EC00053E7BAF1000F28DD734253454FEA6A00F9
:104ED0001DDA5A3009F040FC80463046894609F018
:104EE0003BFC414B002209F0A1FC02460B46404628
:104EF000494609F0E5FA09F033FF0AEBDA7A4FEA9E
:104F00006A0ACAF15A0A207085F800A02DE75A36BD
:104F1000F6B2267006442E7027E70AEBDA735810B3
:104F20005645C0F100004FEA630A17DD5A3009F018
:104F300013FC80463046894609F00EFC2A4B0022BD
:104F400009F074FC0B4602464946404609F0B8FA9F
:104F500009F006FF0AF15A032870B0E75A36F6B294
:104F60002E700644267000E798F8003033B104F044
:104F7000AFFF3368C01A4B283FF638AF0BB0BDE81F
:104F8000F08FBBF1000F7FF45CAF98F80090B9F19F
:104F9000000F3FF456AF059204F09AFF039B059A69
:104FA000C01A40F6B83398427FF64BAF039204F034
:104FB0008FFF039A47E700BF33CB020024F8FFFFBF
:104FC000A8DC0320D0DC032044DD032070DD0320B7
:104FD00045DD032032E60320D8DE0320E4DC032095
:104FE00064DD0320D8CA02000000F83FCC120C0098
:104FF0002DE9F0410E4D0F4FD5E9004888B0A0458E
:1050000013D0637A267AA2780393394605A805F06F
:1050100003FA039B00960122002105A8FFF7E8FD93
:105020006B68503B6B605034E9E708B0BDE8F08135
:10503000B8DC0320DD120C0010B5D0E900420648B0
:10504000121BD2104243914202D3044809F06FF878
:10505000282000FB014010BDCDCCCCCCE6120C00CA
:10506000104B10B50122104C1A7004F031FF236868
:10507000C01A952814D904F02BFF0C4A206013782D
:105080000BB1013B137011780948FFF7D5FF094BAD
:10509000186008F071FEBDE81040074908F05FBADB
:1050A00010BD00BFAADA032074DD032005DE032053
:1050B000ACDC0320D4DC032030130C00104B10B503
:1050C0000122104C1A7004F003FF2368C01A9528BF
:1050D00015D904F0FDFE0C4A206013780B48052B0F
:1050E0009CBF013313701178FFF7A6FF084B1860BF
:1050F00008F042FEBDE81040064908F030BA10BD85
:10510000AADA032074DD032005DE0320ACDC0320D3
:10511000D4DC03203B130C0038B5D0E90054641BE9
:10512000B1EB241F4FEA241202D3034808F0FFFF1B
:1051300005EB011038BD00BFE6120C0010B5D0E938
:1051400000420648121B12114243914202D3044806
:1051500008F0EDFF502000FB014010BDCDCCCCCCC1
:10516000E6120C002DE9F0435F4B1A7897B0002A45
:1051700048D000221A705D4BDFF88081DFF88491FF
:105180005B4ED3E90047A7423CD06378002B35D073
:105190000025657004F09CFE237CA2786064069371
:1051A000637D0593E3890493E069099209F0E6FAC7
:1051B000CDE90201A06909F0E1FA099ACDE90001FF
:1051C00041460BA805F028F908F0D6FD0BAA494680
:1051D000FFF78AF8617A81F0010239B9E5797DB982
:1051E000318819B1A5790DB10139318001230095BC
:1051F00000210BA8FFF7FCFC0023A3715034C2E789
:105200000D46F3E73B4C04F063FE2368C01A41F2FD
:105210008833984246D9384D344E04F059FE2A68F6
:105220002060531C41D1D6E900329A423AD0002383
:105230002B6029682D48FFF781FF037C827890F866
:10524000099090F80780876C0693437D0593C38986
:1052500004930446C069099209F090FACDE902016D
:10526000A06909F08BFA099ACDE9000123490BA83E
:1052700005F0D2F8B9F1000F21D000230022114629
:1052800000930BA80123FFF7B3FCD6E900135B1AC8
:105290001B492A681B114B43013B93428CBF0132CF
:1052A00000222A6017B0BDE8F083D6E900135B1A2C
:1052B00013491B114B43013B9342B8D3B9E7B8F1F3
:1052C000000FDAD104F004FE47F24813C01B9842E5
:1052D000D3D904F0FDFD296804460448FFF72EFFEA
:1052E00001238464CAE700BF38E60320E4DC03201E
:1052F000A8DA03206CDD032068DD032048130C00CE
:10530000CDCCCCCC65130C0070B5D0E9005604466A
:10531000AE4204D0284608F07FFA1035F8E720683E
:1053200018B1A168091AFEF7BAFE204670BDF8B59B
:1053300004460E4615460027B44229D015B323680B
:105340002B6063686B60A368AB60E3682760C4E9A7
:105350000177EB6023692B61A38AAB82A37DAB75D8
:10536000E37DEB75237E2B76638B6B83A38BAB8303
:10537000D4F81E30C5F81E30D4F82230C5F82230DB
:10538000E38CEB842046FFF7BFFF28342835D3E7B2
:105390002846F8BD2DE9F74FD0E9008A2F4BAAEB3C
:1053A00008045C432E4B9C4289460746114602D1B5
:1053B0002C4808F0B9FE012C224638BF0122A4185F
:1053C000A9EB08051DD2F4B19C4228BF1C46492018
:1053D00060430191FEF75FFE01990646701902D005
:1053E000492209F068FD33464546A9450DD02BB149
:1053F00018464922294609F05EFD034649354933DE
:10540000F3E71C46E3E72646E8E7A5EB080909F1C0
:105410004909B1442B46CB4655450BF1490B09D000
:1054200029464922ABF149000193493509F043FD72
:10543000019BF1E7ED1A4D44B8F1000F05D0B968B2
:105440004046A1EB0801FEF72AFE492000FB046458
:10545000C7E90065BC6003B0BDE8F08FF9F1E3C7B0
:1054600070E0C00178130C0038B5D0E90135AB42CB
:1054700004460A4608D01BB14922184609F01BFD14
:1054800063684933636038BD1946FFF783FFFAE765
:1054900030B5264C95B004F01BFD2368C01A952842
:1054A00025D904F015FD2060214C224D237803B34B
:1054B000214901A809F0B5FD20490DF10E0009F0C0
:1054C000B0FD1F490BA809F0ACFD14238DF84A303C
:1054D0008DF84B301B48072301A98DF84C30FFF79E
:1054E000C3FF0123184A2B7000232370137015B0DB
:1054F00030BD164901A809F094FD15490DF10E00C3
:1055000009F08FFD13490BA809F08BFD14238DF8CA
:105510004A308DF84B300B48052301A98DF84C30EB
:10552000FFF7A2FF01232B702370E0E774DD032057
:1055300032E60320AADA032094180C0092130C0020
:10554000A2130C00C4DC0320A9DC03209D180C006E
:10555000B6130C00C6130C002DE9F74FD0E90089F3
:10556000394BA9EB080424115C43384B9C428A4612
:105570000746114602D1364808F0D6FD012C2246D6
:1055800038BF0122A418AAEB08051ED2FCB19C4228
:1055900028BF1C46502060430091FEF77CFD009917
:1055A0000646701902D0502209F085FC3346C346E6
:1055B000DA450ED02BB118465022594609F07BFC33
:1055C00003460BF1500B5033F2E71C46E2E7264648
:1055D000E7E7DFF880A02D090AFB05F5502325F049
:1055E00070455D4308EB050B1D4435442B46594679
:1055F000494503F150030AD0A3F150005022019114
:10560000009309F058FC0199009B5031F0E7A1EBA1
:105610000B0109090AFB01FA2AF0704A502303FB27
:105620000A55B8F1000F05D0B9684046A1EB080152
:10563000FEF735FD502000FB0464C7E90065BC603F
:1056400003B0BDE8F08F00BFCDCCCCCC99999901C7
:1056500078130C00CDCCCC0C38B5D0E90135AB4279
:1056600004460A4608D01BB15022184609F023FC14
:1056700063685033636038BD1946FFF76DFFFAE782
:105680002DE9F04FADB006AF4378F960044607F15D
:1056900014003B7509F0FBFBB86097F80880B8F17F
:1056A000090FEB465ED8204609F0E1FC013820F0F6
:1056B0000700ADEB000D204609F0D9FC06AE3044E2
:1056C000002500F8095C2046FD7709F0D0FC204455
:1056D00010F8023C3B76204609F0C9FC20442946DC
:1056E00010F8013C7B76102207F11800BD760AF015
:1056F000ABFB81465FFA89F908F03EFB60494B46F7
:105700004A46FEF7F1FD0425204609F0B0FC0238B8
:10571000854211D2062D9BBF07F198035B197319BF
:10572000625D8CBF625D03F8802C05F1010588BFC6
:1057300003F8072CEDB2E7E7484518D008F01CFB4A
:105740000546204609F093FC4E49821E4B462846EA
:10575000FEF7CAFD08F010FB4B4907F000FF4B486D
:10576000FFF716F89C37DD46BD46BDE8F08FDFF841
:1057700020A1DAF80040DAF804307B600021A1466D
:105780000D4601237A684A450ED099F80220424519
:1057900006D150463960FFF7D1FC39680546002331
:1057A000013109F15009EDE7002B7DD007F14800E8
:1057B000FFF70EF8364887F84A8007F14801FFF7EF
:1057C0004BFFDAF80450334B0122503D1A70324936
:1057D00007F11C0009F01BFC002840F0688107F16C
:1057E0003003049307F12C03039307F1280302937A
:1057F00007F12403019307F1200307F13C02274935
:105800000093304607F1480304F00EFED7ED087A06
:10581000B8EE677ADFED227AC7EE276AC5ED0D6A2A
:1058200097ED097AB8EE477AC7EE276AC5ED0B6A9D
:1058300097ED0A7AB8EE477AC7EE276AC5ED0E6A89
:1058400097ED0B7AB8EE477AC7EE276AC5ED0F6A77
:1058500097ED0C7AB8EE477AC7EE276AC5ED0C6A69
:1058600008F08AFAAA78FA600446286B08F086FFE6
:10587000CDE90001FA680B492046FEF735FD71E7D6
:10588000DB130C00C4110C0011120C00F0130C00FF
:10589000E4DC0320AADA032038180C003E140C00C4
:1058A00000007A4453140C00B24907F11C0009F0BF
:1058B000AEFB00288BD1A14589D0A378434540F0A9
:1058C000F48007F12803039307F12C03029307F1F7
:1058D0003C0A07F13003A849009307F1200207F1C1
:1058E0002403CDF804A0304604F09EFD97F8203044
:1058F000A38097F82420BB8C02F001022272C3F32C
:1059000040026272C3F38002E271C3F380126274D8
:10591000C3F30022A272C3F34022C3F38023E272D6
:10592000237307F1300009F0AFFA51EC100B09F0C6
:1059300037FA2062504609F0A7FA51EC100B09F033
:105940002FFA60623B8DA4F84030BB8DA4F8423042
:105950000123237004F0BCFA636CC01A4EF6602376
:10596000984209D9BB8CC3F3C002A275C3F30112DC
:10597000C3F3C013E2816375637C63B3A37C53BB41
:105980004FF0010A84F812A07C4987F88E3007F1A5
:10599000480087F88F3087F8903009F042FBA278F2
:1059A000774907F1520004F037FDA288754907F1E5
:1059B000700004F031FD14232822734887F88E30DC
:1059C00007F1480187F8903087F88F20FFF74CFDEA
:1059D0006E4B83F800A0237B5BBBE37C4BBB4FF09B
:1059E000010A84F813A0654987F88E3007F1480052
:1059F00087F88F3087F8903009F013FBA278604960
:105A000007F1520004F008FD614907F1700009F048
:105A100008FB142328225C4887F88E3007F14801E0
:105A200087F8903087F88F20FFF71EFD574B83F8DB
:105A300000A0E37A0BB1A37A63BB237D53BB4FF085
:105A4000010A87F88E3087F88F3087F890304B49FD
:105A500084F814A007F1480009F0E3FAA278484955
:105A600007F1520004F0D8FC4A4907F1700009F030
:105A7000D8FA142387F88E30282387F88F304248CD
:105A80000A2307F1480187F89030FFF7EDFC3F4B00
:105A900083F800A0404BA2781B7840489A4202BF8E
:105AA0003A4B01221A70FEF773FE503403E73C496B
:105AB00007F11C0009F0ABFA00283AD1394BD3E9C1
:105AC00000300122834205D099785033414508BF08
:105AD0000022F7E7002A3FF445AE08F04DF93249BD
:105AE00007F03DFD07F14800FEF772FEFB68012B51
:105AF00011D187F84F302B4887F84A8007F14801C9
:105B0000FFF7AAFD294807F14801FFF7A5FD1F4B44
:105B100001221A7026E6FB68022B4FF0010302D126
:105B200087F85130E7E7FA68032A08BF87F8503052
:105B3000E1E71F4907F11C0009F069FA00283FD18D
:105B40001C4C237C83B91C4944F2022204F110004E
:105B5000FEF72EFD194932462046FEF7C5FB04F13B
:105B6000100001F0DBFEFDE5144932462046FEF749
:105B7000BBFBF7E519140C001D140C00A6180C0053
:105B8000AF180C00B7180C00C4DC0320AADA0320FD
:105B9000C8180C00D8180C0064DD03202F140C006A
:105BA00066140C00E4DC03206A140C00B8DC03204B
:105BB00083140C00D0DD032078DD032087140C0053
:105BC0002F4907F11C0009F022FA28B12D4907F1ED
:105BD0001C0009F01CFA28BB00232B4987F88E30E3
:105BE00007F1480087F88F3087F8903009F019FAEC
:105BF0003A7A264907F1520004F00EFC244907F1D5
:105C0000700009F00EFA142387F88E30282387F8E5
:105C10008F301E231F4887F8903007F14801FFF7A7
:105C200023FC74E71C4907F11C0009F0F0F938B1B6
:105C30001A4907F11C0009F0EAF900287FF492AD37
:105C40000023114987F88E3007F1480087F88F301C
:105C500087F8903009F0E5F93A7A0C4907F15200DB
:105C600004F0DAFB0E4907F1700009F0DAF91423A9
:105C700087F88E30282387F88F301923CAE700BFB2
:105C8000AA140C00AE140C00A6180C00AF180C00DF
:105C9000EB180C00C4DC0320B2140C00B6140C008A
:105CA000F9180C008378412B04D1C378422B06D11C
:105CB000FFF7E6BC432B02D1C378432BF7E77047CD
:105CC00010B50C46002204212046FFF7EBFF0B4BDA
:105CD0001B7893B10A48037C2BB90A4944F202228B
:105CE0001030FEF765FC224607490548FEF7FCFA2E
:105CF000BDE81040054801F011BE10BD04DE0320D0
:105D0000D0DD032078DD0320BA140C00E0DD032091
:105D1000B0B501F1080323F0070300AFADEB030DAD
:105D20000C460A460146684609F0C5F80DEB040327
:105D30006D4613F8013C13B100230DF8043008F050
:105D40001BF8114907F0F8FB08F016F8294607F090
:105D500006FC012211462846FFF7A4FF0B4B1B78D7
:105D600083B10B48037C2BB90A4944F2022210305C
:105D7000FEF71EFC084906482A46FEF7B5FA074812
:105D800001F0CCFDBD46B0BDDA140C0004DE0320EA
:105D9000D0DD032078DD0320EB140C00E0DD0320D0
:105DA0002DE9F04FDFF8EC80DFF8EC90354D89B04D
:105DB00000AF08F08DF903681B69984700285CD094
:105DC00008F086F90A220146384607F00DFDBB6847
:105DD000073323F007036E46ADEB030DEA460023BD
:105DE000B9681FFA83FB8B4503F1010407D25946BA
:105DF000384607F013FE23460AF80B00F0E70129A6
:105E00000AD90139384607F009FE0D2801BFBB68E1
:105E10005344002203F8012C07F0AEFF414607F07F
:105E20009EFB07F0A9FF396807F099FB01220221C8
:105E30005046FFF737FF99F80030CBB12B7C2BB9D8
:105E40001149124844F20222FEF7B2FB394607F12B
:105E5000100007F077FD0E4907F110022846FEF703
:105E600043FA07F1100007F0D7FC084801F056FD8F
:105E7000384607F0D1FCB5469BE72437BD46BDE860
:105E8000F08F00BFD0DD032078DD0320E0DD0320AC
:105E90001D150C000B150C0004DE032000B59BB093
:105EA0000023642201A907F0BBFD042100220DEBB1
:105EB0000100FFF7F7FE0C4B1B7883B10B48037C06
:105EC0002BB90B4944F202221030FEF771FB09494D
:105ED000064801AAFEF708FA074801F01FFD012055
:105EE0001BB05DF804FB00BF04DE0320D0DD0320FF
:105EF00078DD0320BA140C00E0DD03202DE9F04723
:105F0000204DDFF880A0D5E900239B1A1E4A1B1103
:105F10005343DCB203440A2B84BFC4F10A00C0B26D
:105F2000204494B0C4B200274FF480795FFA87F818
:105F3000444524D9D5E900310026994205D09A7804
:105F40005033424508BF0126F7E7B6B96846FEF769
:105F50003FFC01236420ADF80E608DF802808DF8BF
:105F60000760ADF808908DF80C3007F051FB6946DA
:105F7000ADF804005046FFF76FFB0137D6E714B0C9
:105F8000BDE8F087E4DC0320CDCCCCCC2DE9F84F84
:105F9000D0E9008993466FF07043A9EB0802B3EB98
:105FA000E20F07468A464FEAE20402D1204808F091
:105FB000BBF8012C224638BF0122A418A1EB08052A
:105FC00031D294B39C4228BF1C46E000FEF763F830
:105FD000064673191CBFDBE90001C3E90001002D6F
:105FE00004DD2A464146304608F073FFA9EB0A0952
:105FF0000835B9F1000F354404DD4A4651462846BC
:1060000008F059FF4D44B8F1000F05D0B96840467B
:10601000A1EB0801FEF743F806EBC404C7E90065ED
:10602000BC60BDE8F88F1C46CFE72646D1E700BF2D
:1060300078130C002DE9F04FADB0064604F056FF82
:106040008049142205F04AF88046002800F0F680C6
:10605000DFF8F0B1002404EBC4094FEA890909F123
:1060600008070BA85F4404F0A5FB01220BA93846E2
:1060700005F0D8FE8246002856D073490BA804F0DC
:10608000F4FB054600284FD0082209A9384604F041
:1060900049FDB21C53D107F06FFE9DF82B300593DC
:1060A0009DF82A3004939DF8293003939DF82830F9
:1060B00002939DF82730654F01939DF8263064497F
:1060C00000939DF824209DF82530CDF818A0FEF708
:1060D0000BF978689DF824103B68834205D013F8CB
:1060E000082B8A4208BF0025F7E7EDB1242202FB06
:1060F00004B28DF8601092F920201992BA68934288
:1061000017D01BB1DDE9180183E803007B68083371
:106110007B6007F031FED7E900239B1A4D499DF8BB
:106120002420DB10FEF7E0F80134E4B2444592D3BA
:1061300084E0464818AA1946FFF728FFE9E7731CD0
:1061400003D09DF82430B342EED104F0CFFE424D8F
:10615000014601230BEB090218A806F09BFA189BD5
:10616000199C2B606B689C4208D014B163680133A2
:106170006360686808B1FEF707FA6C6018A805F05C
:1061800024F8354804F024FE0546002856D0334B49
:10619000334E00241C70334B4FF001081F2210A90E
:1061A000384683F8008004F0BDFC2F4A2F492A4866
:1061B00005F004FF2E4A2F49274805F0FFFE2E4A1E
:1061C0002E49254805F0FAFE07F0D6FD9DF840203F
:1061D0002B49FEF789F818A8FEF7FAFA9DF8403027
:1061E00028488DF8623018A98DF86780FFF734FAD7
:1061F000254B9DF840005F6831781B682A469F4216
:106200000AD093F802C0604501BF83F807802C468E
:10621000014600225033F2E704B1317072B107F049
:10622000ABFD1A4907F09BF9174818A9FFF714FAB4
:106230009DF862303370164B01221A702DB0BDE804
:10624000F08F00BFDCDE0320F0DC032098DC0320AD
:106250003E150C0071150C00B4DE032006DE032091
:1062600094DC032030E6032018DD0320CCDE03207D
:1062700004DD0320C4DE032030DD0320BCDE032068
:1062800083150C00B8DC0320E4DC03206A140C0046
:10629000AADA0320F0B5694999B00546002268489A
:1062A000FEF786F928BB674B6749012405A81C70D7
:1062B00008F0B7FE65490DF11E0008F0B2FE644912
:1062C0000FA808F0AEFE14230DEB03013C22614839
:1062D0008DF85A308DF85B208DF85C30FFF7C4F8EC
:1062E0005D4B1C7007F048FD5C4907F038F919B0A8
:1062F000F0BD03F0EDFD5A4C064607F03DFD227857
:106300005849FDF7F1FF2378AB426CD007F034FD1C
:10631000227855492B46FDF7E7FF4A4B53490127A1
:1063200005A81F7008F07DFE51490DF11E0008F010
:1063300078FE50490FA808F074FE1E238DF85A30DD
:10634000052305A943488DF85B300A238DF85C309E
:10635000FFF78AF8404B1F7004F0C8FD464905F06E
:1063600006FC43F6972704F0C1FD04F06CFE58B913
:1063700003F0AEFD801BB84206D82846FFF75AFE50
:10638000322004F099F8EEE73C4A2B460A2102A895
:1063900004F052F8002300930122194602A8FEF7E8
:1063A00027FC04F0A3FD04F04EFE28B107F0E4FC46
:1063B00022783349FDF798FF07F0DEFC2278314957
:1063C000FDF792FF03F084FD43F69823801B98426B
:1063D00016D92D48037C002B89D0103019B0BDE8A8
:1063E000F04001F09BBA254A0A2105A804F024F8E0
:1063F000002300930122194605A8FEF7F9FBDBE70D
:1064000004F074FD04F01FFE0E4D08B100232B7044
:106410002B781BB9642004F04FF8F9E707F0ACFCC7
:1064200022781A49FDF760FF1748037C13B110303A
:1064300001F074FA164B00221A7058E797150C00F9
:10644000ACDD03205ADE0320A6180C00C6120C0097
:10645000C8180C00C4DC0320AADA032099150C002C
:1064600094DC0320DA150C0007160C0008190C0048
:106470000E190C0024190C00B4DE032040160C0089
:1064800049160C006A160C009CDD03208D160C00CA
:106490005BDE03202DE9F74FD0E9009A8B466FF0C1
:1064A00078431146AAEB0902B3EB221F80464FEA5C
:1064B000221402D1264807F037FE012C224638BFAD
:1064C0000122A418ABEB09061AD2DCB19C4228BF0A
:1064D0001C4620010191FDF7DEFD01990546A81932
:1064E00001D007F015FA28464E46B34500F11007D3
:1064F0000AD010B1314607F025FA10363846F4E7D5
:106500001C46E6E72546EAE7564506D031463846BA
:1065100007F018FA10361037F6E74E46564504D005
:10652000304607F079F91036F8E7B9F1000F06D0D8
:10653000D8F808104846A1EB0901FDF7B0FD05EBBE
:106540000414C8E90057C8F8084003B0BDE8F08F4C
:1065500078130C0038B5D0E90135AB4204460A4641
:1065600007D013B1184607F0D3F96368103363609E
:1065700038BD1946FFF78EFFFAE700002DE9F0411C
:10658000D1E900270023BF1AC0E9003304460D46B5
:10659000836018D01A4B9F4201D907F0BFFD3846DF
:1065A000FDF779FD0646C4E900663744A760D5E9E2
:1065B0000078B84509D01EB13946304607F0C2F917
:1065C00010361037F5E73E46EDE766602B7E237602
:1065D0006B8B6383AB8B2A69E968A383D5F81E3084
:1065E000C4F81E30D5F82230C4F82230C4E90312B2
:1065F000EB8C6A696261E3842046BDE8F08100BFEC
:10660000F0FFFF7F2DE9F347D0E90087234BA7EB8D
:106610000804E4105C43224B9C420E46054611469A
:1066200002D1204807F080FD012C224638BF01220C
:10663000A418A6EB080A2DD274B39C4228BF1C46AE
:10664000282060430191FDF726FD0199814619EB51
:106650000A0001D0FFF792FF31464A464046FEF756
:1066600066FE394600F128023046FEF760FE064617
:10667000B8F1000F05D0A9684046A1EB0801FDF76D
:106680000EFD282000FB0494C5E90096AC6002B022
:10669000BDE8F0871C46D3E7A146D8E7CDCCCCCCEB
:1066A0003333330378130C0038B5D0E90135AB42EE
:1066B00004460A4607D013B11846FFF75FFF636828
:1066C0002833636038BD1946FFF79CFFFAE70000E6
:1066D00070B5C6B0002401256C4902940DF11E006E
:1066E0004FF00116CDE90044ADF81A40ADF81C504A
:1066F00008F097FC1523CDE9043665498DF818405C
:1067000064230DF14600CDE90A440C94ADF84240F3
:10671000ADF8443008F085FC04235E490D930DF17B
:106720006E00CDE914441694ADF86A400F958DF8CB
:106730004050ADF86C5008F074FC1623CDE91836C3
:1067400055498DF8684002230DF19600CDE91E44AD
:106750002094ADF89240ADF8943008F062FC4F4BB5
:106760004F4923933CA88DF8904007F0A0F83CA92E
:106770001EA8FFF7EFFE3CA807F04EF849493CA8D9
:1067800007F095F83CA91EA8FFF7E4FE3CA807F027
:1067900043F845493CA807F08AF83CA91EA8FFF732
:1067A000D9FE3CA807F038F80E23404921930DF19B
:1067B000BE00CDE928442A94ADF8BA40ADF8BC50EB
:1067C00008F02FFC1023CDE92C3639498DF8B8405C
:1067D00040F2E7360DF1E600CDE932443494ADF8ED
:1067E000E240ADF8E46008F01CFCCDE93C443E9486
:1067F000ADF80A412F4C3049379540230DF587708D
:1068000035938DF8E050ADF80C6108F00AFC422396
:10681000694620463F9341958DF80851FFF744FFA4
:106820000AA92046FFF740FF1EA92046FFF73CFFBC
:1068300014A92046FFF738FF28A92046FFF734FFA8
:1068400032A92046FFF730FF3CA92046FFF72CFF76
:106850001A4B20461978FEF7EFFB194B18603CA83D
:10686000FEF752FD32A8FEF74FFD28A8FEF74CFDBB
:106870001EA8FEF749FD14A8FEF746FD0AA8FEF77C
:1068800043FD6846FEF740FD46B070BDB4160C00EF
:10689000BB160C00C3160C00CB160C000100000147
:1068A000D2160C00D6160C00DA160C00DE160C0000
:1068B000E5160C00ACDC0320EC160C0005DE032012
:1068C000D4DC032070B5634B634C01221A70634B18
:1068D0000022C3E90022A2F580328AB09A60022029
:1068E00003F0A6FC5E495F4804F03EF85E495F484D
:1068F00004F03AF85E495F4804F036F85E495F48B4
:1069000004F032F814257F26204603F048FF04F1F6
:10691000080004F074FF04F1140004F070FF013D5E
:1069200084F8206004F12404EED15548554C04F05D
:1069300051F9554804F04EF9544804F04BF95448C5
:1069400004F024FA07F084FB524A5349CDE90121AF
:1069500013220346009251488022402103F052F84E
:106960002378BFF35B8FD8070AD42046FDF7A6FB38
:1069700030B14B48012106F063FE2046FDF7A3FB32
:10698000484B6422C3F86024474AC3F870240122AC
:10699000002483F87424424A5C60C3F83C44C3F882
:1069A0006844C3F87844A3F87C44C3F86C243F4B94
:1069B0003F4A5C604FF47A711A6099601C613D4BEC
:1069C000C3E901411A601C613B4BC3E901411A60F4
:1069D0001C613A4B3A4A9C60C3E90044394BC3E915
:1069E00000449C60384BC3E900449C60374BC3E9CA
:1069F00000449C60364B069306AD364B95E8030089
:106A00001A6004AE03F10C0286E8030092E803006A
:106A100085E8030096E8030082E803002E4A5A61E5
:106A20009A6909922D4A1C719C609A6141F28831E1
:106A30002B4A089403F10800CDE9004403F0F0F973
:106A40002846FDF763FD274BC3E900449C600AB06C
:106A500070BD00BF2CDD0320DCDE0320D8DC03206A
:106A6000F3160C00F0DC032018170C0004DD0320E3
:106A70003D170C0018DD032062170C0030DD0320E9
:106A8000CCDE032088DC0320C4DE0320BCDE032030
:106A9000B4DE0320801A0600A08601005CDE03201D
:106AA0008CDC0320ACE103204C180C0008DE032032
:106AB00074180C00D0DD03209CDD0320E4DC0320EF
:106AC00060180C00B8DC032098DC0320C4DC032031
:106AD000E9400B0048DD032061420B0075420B00CA
:106AE00085410B00ACDC03202DE9FF47BDF8306089
:106AF000644C0F46013619B2013390460546BDF984
:106B000030200FFA83F936B24FF0100A002F6FD001
:106B1000012758232046CDE900A7039202F0F7F899
:106B2000A4F810900221204666824FF0000902F07E
:106B30000AFC29465448C4F81490FEF77DFA00F187
:106B40001E01204606F0F8FC039AB8F1000F3CD075
:106B50007F23CDE900A75821204602F0D8F8592319
:106B600023826682C4F8149047482946FEF764FAE7
:106B7000827DF2B103690CAA13441B79BBB143496E
:106B80004048FDF779FB07F0F7F8294604463E48F0
:106B9000FEF752FA3E4900F11E022046FDF7A4FB23
:106BA00029463948FEF748FA04B0BDE8F08739496C
:106BB000E6E7C268C37D0CA90A4492889BB11146DE
:106BC000FEF7AAFA01682046DBE77F23CDE900A89B
:106BD0005821204602F09BF8592323824FF00113DD
:106BE00066826361C0E72C492046FDF745FBCAE792
:106BF00058232046CDE900A703924FF0011802F078
:106C000086F802212046A4F81090668202F09BFBD1
:106C100029461D48C4F81480FEF70EFA00F11E0143
:106C2000204606F089FC039A7F2358212046CDE9AF
:106C300000A702F06CF85923134823826682C4F837
:106C400014802946FEF7F8F9827D5AB103690CAA2F
:106C500013441B7923B10D492046FDF70DFB9FE737
:106C60000C49F9E7C268C37D0CA90A44928823B194
:106C70001146FEF751FA0168EEE707492046FDF795
:106C8000FBFA8DE75CDE0320ACDC032087170C00E9
:106C90008E170C008A170C00DE110C002DE9F0474E
:106CA0000321A0B01C2007F067F903210E2007F094
:106CB00063F90321072007F05FF903210F2007F094
:106CC0005BF90321122007F057F903211D2000244E
:106CD00007F052F90321142007F04EF9A04900945F
:106CE0004FF0FF3301221C2006F0B4FA9D490094B6
:106CF0004FF0FF3301220E2006F0ACFA9A490094BF
:106D00004FF0FF330122072006F0A4FA97490094C0
:106D10004FF0FF3301220F2006F09CFA94490094B3
:106D20004FF0FF330122122006F094FA91490094AB
:106D30004FF0FF3301221D2006F08CFA8E4900949B
:106D40004FF0FF330122142006F084FA052003F0EF
:106D5000B3FB0E2007F03AF9002840F0FA8003F068
:106D6000B3FA03F0B5F8854B854F186003F0B0F81F
:106D7000844B186003F0ACF8834B1860834B4FF0E2
:106D8000FF321A6006F0F8FF4FF4E13106F0E8FF39
:106D900007F09EF94FF4165106F08CFFFDF74AFEFE
:106DA00004F0A4F804F0ECF804F0A0F8322104F0A8
:106DB00031F904F09BF8082104F0E9F8744A7549A8
:106DC000104605F025F9744A74490024104605F070
:106DD0001FF901232246CDE900447149714803F0AF
:106DE0008BFA714A7149724805F03FFF714B1C7074
:106DF000714B1C70714B1C70714B1C70714B1C7073
:106E0000714B1C70714B01261C603E7006F0DEFE5B
:106E1000079006F0CFFE054606F0E0FE804606F03D
:106E2000A5FE814606F0AEFE824606F0B7FE079B41
:106E3000674A0095CDE903A01021CDE9018909A891
:106E400003F0FAFA63496448644D08F0EAF809A9C6
:106E5000614808F0CDF862495F4808F0C9F8FFF7CB
:106E600037FCFA2003F028FB32463C21284602F08A
:106E7000DDFD284602F020FD284602F049FE31469D
:106E8000284601F0F8FF0221284602F05CFA4FF094
:106E9000011354496B612C61284606F04DFB2846CE
:106EA00002F036FE4FF47A7003F006FB4E4B0D9362
:106EB0004E484F4B8DF838400DAA08210F93ADF87E
:106EC0004060FDF727FC044628B906F055FF494904
:106ED00006F045FB3C70002447498DF87A400DA828
:106EE0008DF87B408DF87C4008F09BF84349444D79
:106EF00001220DF13E0003F08FFA42490F2217A83C
:106F000003F08AFA20238DF87A300C233E488DF85E
:106F10007B300DA90A238DF87C30FEF7A5FAA8680E
:106F200030B1CDE9004423462246022102F090FF11
:106F3000A86840B100236FF00042CDE90023194654
:106F40001A4602F085FF0120FEF7D8FF20B0BDE809
:106F5000F087072007F03AF800283FF400AF00E779
:106F6000F1410B0061500B00BD500B0005430B00BD
:106F70000D440B00C1410B0091540B0074DD032044
:106F800004DE03206CDD0320D8DE032068DD03204F
:106F9000CCDE0320115D0B00BCDE0320C1450B00DD
:106FA000C15C0B00BA170C00C2170C009D5E0B00F1
:106FB0003FCC0B005BDE03205ADE0320D4DE03202F
:106FC00031E6032032E60320A9DC032034E6032067
:106FD000D0170C00E9170C0078DD03205CDE0320DD
:106FE000EF170C00F8170C004C180C00ACE1032054
:106FF00000127A0003180C0038190C0040190C001C
:1070000048DD032053190C00C4DC03202DE9F04FA8
:10701000DFF85CA39AF8003097B0002B6DD0CA4C13
:10702000CA4E00254023CDE900352A468023294653
:10703000204601F06CFED6E900329A4260D001276A
:107040003E23CDE900373A467E233946204601F0FB
:10705000D1FE02223C231146009320467C23019757
:1070600001F0C8FE4FF001136361736813F8033C2D
:107070002382042363820221204602F064F97168AE
:1070800020464939FDF7F8F8736813F8023C23826B
:10709000162363823946204602F055F9716820466E
:1070A0003F39FDF7E9F873684FF0200813F8013C09
:1070B000238239462046A4F8128002F044F9716810
:1070C00020462139FDF7D8F8A14B23610221204643
:1070D00002F039F910232C2200932D21434620463B
:1070E000019701F014FE9B4965612046FDF7C4F845
:1070F000204602F00DFD8AF8005017B0BDE8F08F71
:10710000DFF86492DFF86CB22E46D9E900239B1AAF
:10711000914A1B11EFB253439F4247D2394648462A
:10712000FEF70CF807EBC70881789BF8003086481B
:107130004FEA480808F1050299424FF0040308F1AC
:107140000108228263824FF0010117D102F0FBF89F
:107150000023012263610E23CDE900327A484146C3
:1071600001F0D5FD39464846FDF7E8FF7B498278B6
:107170007548FDF781F801353E46C6E702F0E3F8B1
:107180004FF00113012263610E23CDE900326E48F6
:10719000414601F02FFE39464846FDF7CFFF6F49C3
:1071A00082786948FDF768F83746E4E76C4F3C7829
:1071B000002C44D16B4DD5E900329A4214D03146AF
:1071C0006948FDF7BBFF694B1F780146502201A8B3
:1071D00007F071FE87F00107102300933A4623461B
:1071E00001212046FFF780FCD5E90034E41A5A4B10
:1071F000DFF874B1E4105C43E4B2022C28BF02242F
:1072000001250DF10409AC4263DB31465846FDF718
:1072100095FF564B5FFA85F80146013550224846E6
:107220001F7807F048FE2B019BB287F001070093FF
:1072300000233A4619464046FFF756FCE3E7DFF8DD
:107240002C81494898F80090062C89F001093146B4
:1072500001AD45D1FDF772FF50220146284607F0E7
:107260002AFE30234A462046009301210023FFF7DF
:107270003BFC31463C48FDF761FF3C7898F80090B4
:1072800001465022284607F016FE013C2023E4B2B6
:10729000009389F001090023194620464A46FFF76A
:1072A00023FC31463048FDF749FF98F800603C78F0
:1072B000014686F00106023C5022284607F0FBFDFD
:1072C0001023E4B200930023324619462046FFF70C
:1072D0000BFC1D4802F01CFC00238AF800300CE770
:1072E000FDF72CFF50220146284607F0E4FD01344B
:1072F0003023E4B20093002319464A462046FFF7A4
:10730000F3FB3146184897F80090FDF717FF98F8FF
:10731000004001465022284607F0CDFD84F00104CC
:10732000202322460093012100234846FFF7DCFB7F
:1073300031460D48FDF702FF98F800603C780146A1
:1073400086F00106013CB7E75CDE0320C4DC0320C5
:1073500030002D0028180C00CDCCCCCCDE110C0058
:1073600005DE0320ACDC0320E4DC0320ABDA0320E1
:10737000AADA032064DD0320F0B53B4D2B7887B0FB
:1073800053B1002401233948009422462146FDF7D9
:107390002FFC374B2C701C70FFF738FEFDF7E2FE18
:1073A000344B1878FDF792FC03F0A0FD03F04BFE80
:1073B00070B9314C02F08CFD2368C01AB0F57A7FA9
:1073C00006D302F085FD20604FF0FF30FEF732FE5D
:1073D0002A4B2B4FD3E900460025A64219D0A37DA6
:1073E0001BB1A078FEF756FFA57594F82820032A54
:1073F0000DD9394603A803F00FF8627A00950123EE
:107400005A40002103A8FDF7F3FB84F828505034BC
:10741000E3E7FEF7C5FCFDF78BFBFDF7E9FDFDF7A4
:1074200021FB184B1B78C3B1174C02F051FD2368A8
:10743000C01A41F2883398420FD902F049FD20600A
:10744000124C1348237883F00103009301231A465A
:107450000021FDF7CDFB012323700A2007B0BDE812
:10746000F04003F029B800BFD4DE03202B180C0035
:1074700031E6032064DD032098DD0320E4DC0320F3
:1074800033180C0032E6032034E60320A9DC032085
:107490003C180C0038B504460D462422002107F0A4
:1074A00032FDA560EB79102B03D0202B06D00020F5
:1074B00038BD202301202370A070F9E74023F9E7AD
:1074C00010B50446243000F0EBFE28B104F50C7032
:1074D000BDE8104000F0E4BE10BD8378016943F0C0
:1074E0000403837000F11002806800F08FBF000079
:1074F0002DE9F041017811F02005044603D0002663
:107500003046BDE8F0814269174B9A42F7D2FFF747
:10751000E4FF06460028F2D02169A06800F00BFFC6
:107520000746A06805223946243000F0E1FE804677
:107530000028E4D029464FF4007207F0E4FC01254E
:10754000A3681A79AA4209D918684246E91901F0D4
:107550003CFA0028D3D00135EDB2F1E7636903EBC3
:1075600042236361CCE700BF00FE1F0010B5044654
:1075700080680A462430A16900F0BAFE20B1A388D1
:1075800003F00F0300EB431010BD03780BB9FFF7B6
:1075900081BF002070472DE9F74F037804468846E5
:1075A0001546002B5DD08278D1075AD51A072DD504
:1075B000C36942699B1A9D4228BF1D462E464FF063
:1075C000000904F1100B002E00F08F80227863690F
:1075D000A0689706C3F3080A4FEA53211FD5006A33
:1075E0000144A068BAF1000F42D1B6F5007F3FD345
:1075F000C36A99423CD0B6F5806F52D200684246C9
:1076000001F05AF968B34FF4007744E09B06D5D5F2
:1076100083681A894369C3EB42139BB2CBE790F8A6
:10762000059009EA0109BAF1000F08D1B9F1000F7C
:1076300005D15BB951064CBF036A236A23612169F6
:10764000A06800F078FE09EB0001CAE721695A46FC
:1076500000F077FE002804DBF1D1237813F0700FDF
:1076600043D1637843F0020363704FF0FF303DE095
:10767000CAF50077B7424FF0000200F1240028BF9E
:10768000374600F035FE0028EBD000EB0A013A4601
:10769000404607F010FC63693B44B8446361F61B45
:1076A00091E7227892064FEA562A06D40279A2EB95
:1076B0000902D2B2924528BF924699424FEA4A2720
:1076C00008D2A06853460068424601F03DF9002800
:1076D000E1D1C6E753448B42F3D92430019100F045
:1076E000DFFD01990028ECD1BBE7A81B03B0BDE882
:1076F000F08F73B501220DF10701D0E9045604465D
:10770000FFF749FF01280ABF9DF807004FF0FF303F
:10771000C4E9045602B070BD37B5436913F4F07F75
:107720000446C3F3431500D099B901220DF10701B6
:107730002046FFF730FF40B2012802D0002003B0FE
:1077400030BD63691F33A0686361303000EB4510C2
:10775000F5E72033F7E72DE9F041027807690446A1
:107760000D4662B14069884202D019B92161656154
:10777000012006E0160706D5E3698B420BD227618C
:107780000020BDE8F081910605D5A3681B89B5EB03
:10779000431FECD9F3E7D4F808C09CF80660431EF9
:1077A00006F109016E1ECB40CE40B34200D898B915
:1077B00053064CBFDCF82030236A236104F1100823
:1077C000002ED4D02169A068424600F0BAFD0028FE
:1077D00006F1FF36F4DCD2E7F61AEFE7F8B50F460C
:1077E00004461546002124221E4607F08CFBB8688B
:1077F000A060A58005F00F053B6AE3606A0100EB1D
:10780000451595F83B301F0744D403F01703237048
:1078100095F83B1011F0180F04BF43F008032370D4
:107820009DF81830E37006F00303012B2CD0022BD7
:1078300028D07BBB71052DD40123A370A1788B07C1
:1078400004D52378DF0625D4DD0723D4B31123F034
:107850007F0306F008052B430B43A370C36AA361A3
:107860008318B3F84420B3F84A1041EA0241720584
:1078700013D559B9A37843F00403A370730410D44B
:107880000120F8BD0323D8E70223D6E700F0F9FD75
:107890000028EFD100202070F3E72162DB6CE36168
:1078A000ECE7E1692046FFF756FF0028E8D1F1E751
:1078B00038B5037804460BB9012038BD83785A07E0
:1078C00023D50121FFF752FE054628B9637843F01E
:1078D000010363700020F0E70378E52BF6D02378EE
:1078E0001B0744BFE369C361236A4383638C8382BC
:1078F000094B1B682BB100F11601183098472B8BF0
:107900006B82A37823F00403A370A068FFF7D8FD6F
:107910000028DBD0D0E700BF3CE6032010B50446CA
:10792000FFF7C6FF0023237010BDF0B593B01F46CC
:10793000002309930378019206460C4613B10020F8
:1079400013B0F0BD0B7813F0700FF8D013782F2B15
:1079500012D1019A13782F2B02D101320192F8E74C
:10796000A1681BB93046FFF710FEE9E709A8FFF749
:1079700091FD0028E3D009AC019801AA03A900F009
:1079800031F90028DBD0019B1B789BB1002303AAAF
:107990002146304600F0BAFA0028D0D035460FCD47
:1079A00009AC0FC40FCD0FC42B6823603046FFF71E
:1079B000B5FFE0E73B4603AA2146304600F0A6FAB1
:1079C000BEE700B58BB000230A46019301460123B0
:1079D00001A8FFF7AAFF10B101A800F0E1F90BB070
:1079E0005DF804FB2DE9F047037889461907044642
:1079F00017465BD583789A0758D51B0751D463691E
:107A0000DB43BB4252D3B84604F1100A6669B8F1B1
:107A1000000F00F09180A0684379C6F3080513EACF
:107A200056260ED16DB92169002946D0524600F084
:107A300088FC00283ADB04D12046FFF74EFD0028E1
:107A400034D02169A06800F076FC3118A06815B91F
:107A5000B8F5007F3FD2C5F50076464528BF4646BB
:107A6000002D36D16269E3699A4234BF01220522B2
:107A7000243000F03DFCC8B1284432464946354424
:107A800007F019FAB5F5007F04D1A068243000F0A2
:107A900007FC58B1636933446361B144A8EB06083D
:107AA000B4E7C169FFF757FE0028A8D1637843F017
:107AB000010363704FF0FF3050E0236A3BB920466A
:107AC000FFF70BFD0028F1D023692362B9E723619A
:107AD000B7E70122CCE7B8F5806FC26A1BD390F8F4
:107AE00004C0ACEB0606F3B24FEA582E734528BF2C
:107AF000734691424FEA432607D31A448A4282BF13
:107B00004FF0FF3280F82450C262A5684A462868C8
:107B100000F0D1FFBDE7914202BF4FF0FF3380F884
:107B20002450C362A3684A46186800F04EFF00283C
:107B3000BCD04FF40076ADE7E269A378B24204D23C
:107B4000E66143F00403A37003E0084A1268002AC8
:107B5000F7D194F90230002B02DB3846BDE8F087FC
:107B60002046FFF7A5FE0028F7D19FE73CE603205B
:107B7000042904D800EB4100B0F8010070470A293D
:107B80009BBF01F1FF3100EB41000131C08884BF90
:107B900000EB410080887047411E00F10A0300207D
:107BA000420842EAC01011F8012F52FA80F08B42CD
:107BB000C0B2F5D1704738B5CB6804460D4623B93D
:107BC000BDE838408968FFF7E0BC2422002107F0B7
:107BD0009AF9102301202370A070AB68A360EB68B2
:107BE000236238BD2DE9F047064610F8013B202BF3
:107BF000FAD06A4D8E600024335DC3B12F2B16D0AE
:107C00005C2B02D10020BDE8F087A3F12200C0B2B6
:107C10001D2803D825FA00F0C007F3D403F0BF00F5
:107C20003C28EFD0203B5E2BECD80134E4E733193D
:107C30001846074610F8015B202DFAD02F2DF8D0FA
:107C400017604CB113F8012D2E2A01D0202A01D142
:107C5000013CF6E7FF2CD5DC4FF02033C1F81130A2
:107C60004C60C1F80D304B614FF0000816F8083039
:107C70002E2B01D0202B02D108F10108F6E7B8FA2B
:107C800088F04009651E6B1C02D0735D2E2B14D149
:107C90004FF0000907274A46CA464FF0080EA04594
:107CA00068DA16F80830202B03D02E2B07D1A84510
:107CB00012D0002008F10108F1E7013DE3E7222B93
:107CC00008D07C2B06D0A3F12A0CBCF1050F0AD8F2
:107CD0002D2B12D0A8455BD10A2F4AD00A270822A3
:107CE0004FF0100EE6E7A3F13A0CBCF1050FF1D905
:107CF000A3F15B0CBCF1020FECD9A3F1210CBCF198
:107D00005D0FE7D8A845E7D0BA4230D8A3F1610C9F
:107D1000BCF1190F1AD8203B4EEA0909DBB25FFA11
:107D200089F902F1010C5FFA8CFC0A44BCF1060FE0
:107D3000537301D881F80CC06246BBE7A84518DC34
:107D4000A8460A2708224FF0100EB2E7A3F1410C13
:107D5000BCF1190F98BF4EEA0A0AE2E70B7B01203B
:107D6000087019447E234B7331238B734BE70A2F22
:107D7000E4D100204B7B202B3FF444AF0028EDD012
:107D80001AEA090F18BF4FF0020981F800903AE78C
:107D9000BA42ECD800205F23C3E700BF01010031E5
:107DA0002DE9F0418AB000230193037819070446B6
:107DB0000AD583789A0707D5016A39B90121204687
:107DC000FFF7D4FB054638B9002048E0806800F092
:107DD00058FB0028F2D1F7E7FFF7DEFEE5272F700A
:107DE000002306462370A068FFF76AFB0028EBD04B
:107DF000E378002B33D0214601A8FFF7DCFE0028F2
:107E0000E2D00125E3785FFA85F84345DCD3A18809
:107E1000491B490101A8FFF79EFC0028D4D000218E
:107E200001A8FFF779FC0028CED0C37A0F2BCBD165
:107E3000027802F01F034345C6D1437BB342C3D14E
:107E40000770A16891F8243043F0010381F82430D1
:107E5000530605F10105D5D5A068FFF731FB0AB03F
:107E6000BDE8F0812DE9F84391F80C9006460C46E8
:107E700002257E2701F10D086168A2686B189BB28C
:107E80001144914206D012F8010B03EB4313434017
:107E90009BB2F6E7B9F1030F28BF4FF0030909F1D0
:107EA0000402D2B203F00F01A018013A0929D2B29C
:107EB00094BF30313731914541734FEA1313F1D1FB
:107EC00004EB090300215F733046FFF744FC0121F6
:107ED0003046FFF721FC014628B97078B0FA80F0EF
:107EE0004009BDE8F88303786BB1C37A1B07EED471
:107EF0000B22404606F0CFFF0028E8D10135ADB295
:107F0000642DB9D1EDE70120EBE700002DE9F04F3A
:107F10002DED028B8BB00D4606930B78079013F076
:107F2000700F174605D100200BB0BDEC028BBDE8E9
:107F3000F08F079B1B78002BF5D1536805931378BE
:107F40009C071FBF059B0C330D22B3FBF2F31ABF36
:107F50000133DBB20123002128460393FFF7FBFB2B
:107F600007F10D034FF0000B08EE103ADA465C46BD
:107F70005E46CDF810B0D9466B6901212846C3F39F
:107F80004F18FFF7C9FB0346002871D16B78002B0F
:107F9000C9D1069B9A05C6D503F00303013B012B0B
:107FA000C1D8049B002C08BF43460493039B9C420A
:107FB000C0F0F180B9F1000F40F00A81049B28461F
:107FC0005901FFF7C8FB0028ADD0039B03F1FF392F
:107FD0005FFA89F94E464FF0000A4FF00F08002E65
:107FE00000F00D8100212846FFF796FB044600288B
:107FF00099D0AA6892F824304E4543F001030CBF93
:1080000046F0400BB34682F8243080F800B080F888
:108010000B8080F80CA007F10D00FFF7BDFD84F880
:108020001AA0607384F81BA00BF01F030D22013B04
:10803000D7F808C0534300220599994240F2D080F6
:108040001CF80310042A5FFA82FE02F1010000F21C
:10805000CD8004EB4202A2F801100D2803F10103C8
:108060000246E9D1013EF6B2B9E74FF0010983E7D4
:108070000278E52A00D07AB90499002C08BF41465D
:10808000049103998C423CBF0134E4B2002A80D0B1
:10809000E52A05D100266FE703998C4238BF0024FA
:1080A0002E2AF7D0D97A0F294AD116BB12F04006F2
:1080B0003FF462AF02F01F0693F80DB0B2460D22F6
:1080C0000AF1FF3802FB08F8059A4245E2D9A2EB13
:1080D00008020892002202EB080109911846D1B269
:1080E000FFF746FD08998A420DD1002818BF0026E7
:1080F00042E70AF1FF3A5FFA8AFA5245CAD15A7B3F
:108100005A45DCD0C6E7FF28C4D85FFA80FEAEF13E
:1081100041011929B9689CBF0EF120005FFA80FE69
:1081200008460999415CA1F1410CBCF1190F9CBFB3
:108130002031C9B27145ADD101320D2ACBD11BE737
:108140000807A7D45EB1BAF1010F7FF4ECAE184670
:10815000FFF722FD58457FF4E6AEB1460EE018EE7B
:10816000101A0B22184606F096FE00287FF404AF82
:1081700097F8009019F001097FF477AF069B190575
:108180003FF5D1AE069B0798CDF8009042462946B0
:10819000FFF724FBC8E600212846FFF7BDFAA0B987
:1081A0006B78002B7FF4BFAE2846FFF7A1F90028BB
:1081B0003FF4B9AEAB681B79012B3FF6FBAE039BD6
:1081C0001034E4B2A342EFD8F4E60134E4B2EDE6B1
:1081D00039462846FFF746FE00287FF4EFAEA2E6B8
:1081E00014BF4FF0FF31002189B22BE7BEF10A0F17
:1081F00094BF04EB420204EB400291802DE731462C
:108200002846D5F81480FFF787FA044600283FF483
:108210008AAE2022314606F076FED7F80D30236074
:10822000D7F811306360B7F815302381FB7DA37256
:108230003B7803F0180323730F4B1B689BB104F1C9
:108240000E0104F110009847238A63822383E38997
:10825000E382AA6892F8243043F00103C8F34F1870
:1082600082F824308EE721232374282363740823A3
:10827000A673E373E8E700BF3CE6032013B50446AA
:10828000084659B1019106F0F2FE23680199DB68B6
:108290000246204602B0BDE81040184702B010BDAB
:1082A00037B50378DA07044620D54368816800F1C2
:1082B0000C021868019200F088FB019A054618B973
:1082C0000025284603B030BD23789B0704D42378CB
:1082D00023F001032370F4E7D4E901301969014464
:1082E000186800F072FB0028F1D1E9E70125E8E702
:1082F00070B583688B4204460E46154609D0FFF7D9
:10830000CFFF08B9002070BD6B070AD5002323708A
:10831000A660227805F003052046154300F80C5BA3
:10832000F1E7636804F10C021868314600F0C4FA02
:108330000028EBD1E6E78379406902399940084487
:108340007047012970B505460C46164602D84FF015
:10835000FF3070BDC3698B42F9D3C379202B16D18E
:108360008169022201EBD41100F50C70FFF7C0FF08
:108370000028ECD004F07F0450F8243023F0704340
:10838000EA699A4226BF336001200020E1E7102B02
:10839000DDD1C1F3072381690222194400F50C7075
:1083A000FFF7A6FF0028D2D0E4B230F81430E7E798
:1083B000012938B50C46154601D8002038BDC369DF
:1083C0008B42FAD3C379202B0FD18169032201EBB1
:1083D000D41100F50C70FFF78BFF0028EDD004F0EE
:1083E0007F0440F824500120E8E7102BE5D1C1F3C9
:1083F000072381690322194400F50C70FFF778FF09
:108400000028DAD0E4B220F81450ECE72DE9F3416B
:10841000C4688C4205460E46904601D3012701E010
:108420000C460027EB690134A34202D2C7B9EC68BD
:10843000F4E7A64214D001AA21462846FFF781FF9F
:1084400000280DDBEED0019B002BEBD107B1EC60D7
:108450006FF0704221462846FFF7AAFF074620B971
:108460000027384602B0BDE8F08116B9C8F80040D0
:10847000F7E7224631462846FFF79AFF0028F5D154
:10848000EEE773B505460C4601AA21462846FFF7DC
:1084900058FF061E10DB002221462846FFF788FF02
:1084A00050B1EB68A34224BF04F1FF34EC60019C9F
:1084B000002EE9D102B070BD0020FBE7012370B5AA
:1084C0000022C3604FF0FF330446C27100F124065E
:1084D000806280F82420C362C0F8340280F8302221
:1084E000C0F838320D46B9B1042901D9002070BD59
:1084F00011463046FFF7FCFE0028F7D000EB0513CD
:1085000093F8AE315B06F1D105F11B0100EB0110D0
:10851000D0F80650002DE9D0002229463046FFF75A
:10852000E7FE0028E2D0B0F80B30B3F5007FDDD1D4
:10853000037C022BDAD1C389002BD7D0417B217178
:108540004B1E63710023A37109260123994207D0B2
:10855000013ECBD0A2795B000132DBB2A271F5E71C
:10856000C18A01B9416A2161C3892B44A361B0F872
:108570001120228103EB41032362B0F8111049015D
:1085800001F2FF1103EB51236361B0F8132002B92C
:10859000026AE91AA3791144D9404B1CE36140F601
:1085A000F473994202D80C23E3719FE74FF6F473FA
:1085B000994285BFC36A236210232023E3710120FF
:1085C00095E700F0CBBA00F0AEBA000070B50E4EE1
:1085D0000D46144601F074FC3368C01A0B4B9842E8
:1085E00008D901F075FC0A4B186001F065FE01F036
:1085F00067FC306001F06CFC80B2401BA042D4BF2D
:108600000020012070BD00BF44E60320A0860100C9
:1086100028E7032038B5057A04464DB9406800F0D4
:108620006BFA63682946187D05F0B7FC01232372B5
:1086300038BD10B5037A04466BB143680121187D3B
:1086400005F0ABFC6068FF21FFF7BBFF606800F03E
:1086500067FA0023237210BDF8B504460D4616468E
:1086600001F036FC87B26068FFF7ADFFFF2860724B
:108670000ED14FF47A7239462046FFF7A7FF002843
:10868000F1D0552320462370FFF7D3FF0020F8BD1B
:10869000FE2801D05023F5E760683246294600F0F5
:1086A00047FA607208B16023ECE76068FFF78BFF60
:1086B0006068FFF788FF0120E9E770B504460E46C1
:1086C00001F006FC85B2324629462046FFF77EFFC0
:1086D00030B96068FFF777FFFF28F4D1012070BD43
:1086E0000020FCE7F7B5037A019204460D460BB96A
:1086F000FFF790FF25B14FF496712046FFF7DDFF9D
:10870000606845F04001FFF75CFF032601AFB95DEB
:108710006068FFF756FF013EF9D2002D60680CBF7C
:1087200095218721FFF74DFF6068FFF74CFF0B2570
:108730006068FFF748FF0306607203D5013D15F03E
:10874000FF05F5D103B0F0BD70B504460D461646E1
:1087500037210022FFF7C6FF324629462046BDE8F2
:108760007040FFF7BFBF00002DE9F0410025057202
:10877000057085724160044690461E4601F0A8FBD4
:1087800041460746606800F0BBF96368494A1D72BC
:108790000125DA601D822046FFF73CFF6368294609
:1087A000187D05F0FAFB0A256068FF21013DFFF7FF
:1087B00008FF15F0FF05F7D163682946187D05F01D
:1087C000ECFB0A25002211462046FFF78BFF01280B
:1087D000804618D0013D15F0FF0507D12023204623
:1087E0002370FFF726FF0020BDE8F0816068FD21BF
:1087F000FFF7E7FE4FF402786068FFF7E4FEB8F198
:108800000108F9D1DEE74FF4D57208212046FFF7C1
:1088100069FF052814D184F80A800025BFB22A46D2
:1088200029212046FFF790FF0246D8B14FF4FA62A3
:1088300039462046FFF7CAFE0028F0D04323CEE792
:1088400004256068FFF7BFFE013D15F0FF0560726B
:10885000F7D1AA2804D10223A3724FF08045DDE7A7
:108860002523BCE7A37A022B18D13A212046FFF733
:1088700039FF08B13723B2E76068FFF7A4FE00F0C4
:10888000C000C02804BF0323A3726068FFF79BFEEB
:108890006068FFF798FE6068FFF795FE2046FFF7D7
:1088A000C8FE63683079B168B2891A821872D960DB
:1088B000012099E790D0030038B5837A032B18BFC5
:1088C000490215460A4611210446FFF70BFF30B155
:1088D000302323702046FFF7ACFE00250BE029462D
:1088E0004FF400722046FFF7B7FE05460028F1D08E
:1088F0002046FFF79EFE284638BD10B5837A032B2D
:108900000A4618BF4A0212210446FFF7EBFE30B1B7
:10891000312320462370FFF78CFE002010BD01207C
:10892000FCE710B500220C210446FFF7DBFE30B156
:10893000282320462370FFF77CFE002010BD204630
:10894000FFF777FE0120F9E7F8B5044616461F4603
:10895000FFF7D3FF68B10025ABB29F4206EB45217C
:1089600009D94FF400722046FFF776FE0135002842
:10897000F2D10020F8BD2046BDE8F840FFF7D1BF96
:1089800038B5044615464068FFF71BFE4FF40072E9
:108990006068294600F0E6F86068FF21FFF711FEE5
:1089A0006068FF21FFF70DFE6068FFF70CFE607244
:1089B00000F01F00052806D0572320462370FFF73C
:1089C00038FE002038BD0120FCE770B5837A032B08
:1089D00018BF490215460A4618210446FFF782FED1
:1089E000064630B1322323702046FFF722FE0025D1
:1089F0001FE02A46FE212046FFF7C2FF0028F3D0E1
:108A00004FF4FA612046FFF758FE054608B95A238D
:108A1000E9E732460D212046FFF764FE08B129231D
:108A2000E1E76068FFF7CFFD0028F8D12046FFF7A7
:108A300000FE284670BD13B501914FF4FA6104465B
:108A4000FFF73BFE019A30B95B2323702046FFF706
:108A5000F0FD002005E0FC212046FFF791FF0028F3
:108A6000F4D002B010BD10B5837A032B0A4618BFAC
:108A70004A0219210446FFF735FE30B13323204660
:108A80002370FFF7D6FD002010BD0120FCE738B5AC
:108A90004FF4FA610446FFF710FE054630B956233D
:108AA00023702046FFF7C5FD284638BD6068FD21CC
:108AB000FFF787FDF5E7F8B5044616461F46FFF7B2
:108AC000D2FF70B10025BD4206EB4521204604D0FF
:108AD000FFF7B1FF28B10135F5E7BDE8F840FFF732
:108AE000D6BF2046FFF7A5FD0020F8BD014B0122AF
:108AF0001A70704748E60320011D006804F0D8BDD5
:108B000010B504460175006804F0A4FD207D012124
:108B100005F032FA207D0121BDE8104005F03DBA94
:108B2000006804F0ABBD0068FF2104F02FBE000018
:108B300037B51346074A00920025074C0068257098
:108B40000A46294604F028FE2378002BFCD000209A
:108B500003B030BDED8A0B0048E60320006804F046
:108B600015BE000037B51346064A00920025064C94
:108B7000006825702A4604F00FFE2378002BFCD0F5
:108B800003B030BDED8A0B0048E603202DE9F04F1D
:108B900085B01F46BDF93880BDF83C30A8EB02090E
:108BA000A7EB010AB9F1000FB8BFC9F10009BAF18A
:108BB000000FB8BFCAF1000AD14583460C461546DE
:108BC00004DD3A462C4647460D469046BC4205DD3C
:108BD0002A464546904622463C4617463E1BB2B2C0
:108BE0000092A8EB050282EAE271A1EBE271C6F302
:108BF000C03202FA86F64545B4BF01224FF0FF327B
:108C0000019176100292BC421CDCDBF80020039339
:108C1000D145D2F81880C7BF294622462A462146A8
:108C20005846C047019A039BB61AB1B236B2002E1D
:108C300005DA029A1544009A56182DB236B201345C
:108C400024B2E0E705B0BDE8F08F704710B40468C7
:108C50002469A4465DF8044B604730B40468BDF84D
:108C600008500295A46BA44630BC604730B4046839
:108C7000BDF808500295E46BA44630BC604770B460
:108C8000BDF90C50BDF810600468CDE90356246CA2
:108C9000A44670BC60472DE9F3411C460368BDF84B
:108CA00020805B6905461646013C34440F4624B2D9
:108CB00098472B68CDF8048000949C6A28463B4670
:108CC00032463946A0472B68DB6A284602B0BDE829
:108CD000F04118472DE9F3411D460368BDF8208097
:108CE0005B69044617460E469847CDE9007822682E
:108CF0006B1E3344956A20461BB23A463146A8475C
:108D00002368DB6A204602B0BDE8F04118472DE930
:108D1000F3471E460368BDF928905B69BDF82C80B7
:108D20000C460546174698472644B4422B680BDA92
:108D3000CDF80080D3F820A021464B463A4628467D
:108D40000134D04724B2F0E7DB6A284602B0BDE820
:108D5000F047184713B502680191B0F90E10009161
:108D6000146CB0F90C3000221146A04702B010BDBF
:108D70002DE9F74399421646BDF92870BDF82C90AD
:108D8000026880460D461C4613D1BE42C8BF33461A
:108D9000CDF82890C4BF3E461F467B1C946B9B1B9E
:108DA0001BB2324629464046A44603B0BDE8F04314
:108DB0006047BE420AD19942C2BF0B4625461C46B7
:108DC000631CCDF82890D46B5B1BE9E75369984787
:108DD000CDE90079D8F8003040469F6A32462346F4
:108DE0002946B847D8F80030DB6A404603B0BDE8F2
:108DF000F04318472DE9F3471D460368BDF82C8062
:108E00005B69BDF9289004460F46164698472368CB
:108E1000CDF80080D3F824A032462B4639462046B0
:108E2000D0472368CDF8008009F1FF323244D3F8EF
:108E300024A039462B46204612B2D0472368CDF8ED
:108E40000080D3F820A032464B4639462046D04712
:108E50006B1ED9192368CDF800801D6A20464B4649
:108E6000324609B2A8472368DB6A204602B0BDE853
:108E7000F0471847704701F00303B0F90A208376E2
:108E8000C907B0F9083059BF8381C2818281C3818B
:108E90007047000030B54281C281074A074D018109
:108EA000002481814FF0FF31C0E905124460056064
:108EB00004610477046230BD01010001701E0C00E2
:108EC0002DE9F04F89B0CDE902120268BDF9488062
:108ED0000493BDF94C3052690593BDF850A0044687
:108EE000904718F107024FF0000648BF08F10E0244
:108EF0004FEAE20B01963546039B019ABDF9041037
:108F00009A18059B8B4212B227DD049B33444FF025
:108F1000000906930FFA89F080451FFA89F117DDE1
:108F20004F0705BF069BC0106D001D5C18BFEDB25A
:108F30002B060AD5029B206807921944836909B25F
:108F40001F4620465346B847079A09F10109E1E751
:108F5000019B013301935E44CEE72368DB6A204620
:108F600009B0BDE8F04F18472DE9F04F2DED028B09
:108F700091B01646026ABDF874809DF878509DF84D
:108F80007C4003911F46BDF8703004938346002A4D
:108F900040F0C580B0F90C308B4240F34C81B0F901
:108FA0000E30B34240F34781062313FB0513002B19
:108FB00040F3418106EBC403002B40F33C81037F67
:108FC0001BB9AF2F84BF0137FFB2DBF80030584622
:108FD0005B6998470522099200220592984A07EB9F
:108FE0008703D3180C93B3B20693059A0C9B9B5C32
:108FF0000793ABB20B93BDF80C300893039B02FBB5
:1090000005F919FA83F90FFA89F308EE103A0823E3
:109010000A93039B02EB030A4FF000090FFA8AFA46
:10902000079ADBF80030D20752D5012D1FFA89F2DA
:109030003ED1012C3CD19B6906991F46049B0A44F2
:1090400012B251465846B84709F101034FFA83F965
:10905000079B5B0807930A9B013B13F0FF030A93EE
:10906000DED1059F01377BB20593099B013B13F0CD
:10907000FF030993B9D1049B43450FD0012DDBF8C1
:1090800000303BD1012C39D10899CDF80080053151
:109090001C6A3246082309B25846A047DBF8003064
:1090A000DB6A584611B0BDEC028BBDE8F04F1847A3
:1090B000069914FB02F20A44049901910094DB69B9
:1090C00018EE101A1F4612B22B465846B847BBE797
:1090D000049A4245B8D0012D1FFA89F207D1012C1C
:1090E00005D19B6906991F460A444346A8E706999D
:1090F000CDF8048014FB02F20A44DFE70B9ACDF8A6
:10910000048002EB8201089AE4000A4411460094AC
:10911000DC6932462B4609B25846A047BEE7137AAF
:10912000516812680B92FF1AFFB201EBC70331F8C6
:10913000372006929A780992DA780C92012D93F9E9
:10914000052093F906A00A9201D8012C57D9BDF940
:10915000283008930FFA8AF30793DBF8003058465B
:109160005B699847B3B24FF000080E931AFA86F382
:10917000C14647460F930C9B9F428FD2079B0E9A86
:109180003B4403FB0423002205920F9A1BB202EB1F
:10919000070A08EE103A0FFA8AFA4346099A059927
:1091A000914241D25A1CD2B25B070D9207D1069B65
:1091B00006990B9A01339BB212F80190069319F0AD
:1091C000800F12D0012DDBF80030BDF80C101AD141
:1091D000012C18D10A9A9B691144059A11441E4624
:1091E0005246049B09B25846B047059E0136F3B279
:1091F0004FEA490905935FFA89F90D9BCEE70023F1
:10920000CDE90733A9E70598089A024402FB051146
:10921000049ACDE90042DB6918EE102A1E4609B215
:109220002B465846B047E0E7099B013798445FFA60
:1092300088F8FFB29FE711B0BDEC028BBDE8F08F5C
:1092400067190C00F0B5026A85B004460B46002A87
:1092500034D10A2908D1438A0282427E03EBC20339
:109260006382012005B0F0BD0D29FAD0E17E007EB9
:10927000657E71B1B4F91060062111FB0061B4F98B
:109280000C60B142C1BFB4F91210228201EBC502D9
:109290006282E28A0192A28A0092CDE90205B4F9C3
:1092A0001220B4F910102046FFF75EFE237E228ABA
:1092B00003EB430302EB43032382D2E70A2907D1DE
:1092C00000230382417E927A438A01FB0233C7E77F
:1092D0000D29C6D0157AA942C3D3517A9942C0D379
:1092E00051685D1BEDB201EBC505A87828B3E9789C
:1092F00019B3E17E267E677E91B195F90510084489
:10930000B4F9101006FB0011B4F90C00814207DD1E
:1093100000202082B4F91210927A02FB07126282B6
:10932000E28A0192A28A0092CDE90267B4F9122082
:10933000B4F910102046FFF717FE2979227E238A00
:1093400001FB0233B8E7012938BF012101764176DC
:10935000704742600022027220220170C260704792
:1093600010B5037A044653B12178606803F066FFB4
:10937000606803F06BFFB0FA80F0400910BD012176
:1093800000F003F80028EFD1F8E738B5044640684C
:109390000D4603F04DFF0120207225B12046BDE8A7
:1093A0003840FFF7DDBF38BD2DE9F843DDE9089609
:1093B0001F46C368154632449A420446884602D97D
:1093C0000020BDE8F8830178406803F037FF7EB9DC
:1093D000606803682A46DB68414698478542EFD1BA
:1093E0006068394603F02EFFB0FA80F04009E8E7E4
:1093F000B9F1000FECD0606803683246DB6849467B
:1094000098478642DCD1E3E708B5406803F00CFFDB
:10941000012008BD10B50446406810B103689B6880
:109420009847204610BD38B5044690F90E0001213A
:1094300080B204F0A1FD94F90E00012180B204F085
:10944000ACFD256835B1284604F004F9012084F804
:10945000340038BD94F90F00012180B204F08CFD76
:10946000637B94F90F00012B94BF2946012180B240
:1094700004F093FD94F91000421C09D0012180B240
:1094800004F07AFD94F91000012180B204F085FD0A
:1094900094F91100431CD9D0002180B204F06CFD76
:1094A000D4E700002DE9F04F0446006885B00D4672
:1094B00040B10023009313460A4604F06DF905B04D
:1094C000BDE8F08F237BA068484FB7FBF0F7002B77
:1094D0000B780CBF4FF0010B4FF0800B1BEA030F12
:1094E00001EB02030CBF4FF001094FF00009FFB27E
:1094F0000393039BAB42E2D095F800A05E464FF089
:10950000000817B1384600F0D3FC637B13F0FD0F61
:1095100041D194F910305A1C0FD01AEA060114BF39
:10952000012300234B4508D06369606A1A6800294B
:109530002CD002431A604FF00109A169E36A0A685E
:1095400013430B6017B1384600F0B2FC94F91130A8
:10955000013306D0E3691A68A36A1A4218BF46EAC3
:109560000808A169E36A0A6822EA03030B6094F918
:109570001130013318BF85F80080237B002B32D1D6
:109580007600F6B2002EBCD10135B2E722EA000225
:109590001A608946D1E7A169E36A0A6813430B6040
:1095A00017B1384600F084FC94F91030013308D02C
:1095B0006369616A1A681AEA060F14BF0A438A438C
:1095C0001A60A169E36A0A6822EA03030B6094F94E
:1095D00011300133CBD0E3691A68A36A1A4218BF6D
:1095E00046EA0808C3E77608CCE700BF20A10700D9
:1095F00007B501228DF807100DF10701FFF752FFA3
:109600009DF8070003B05DF804FB2DE9F041044626
:1096100000680E4617461D4610B1616804F048F810
:1096200094F90E00002180B204F0B7FC069B05EB14
:109630000308454508D13744B7420BD016F8011B43
:109640002046FFF7D5FFF7E715F8011B2046FFF787
:10965000CFFFEEE794F90E00012180B204F09DFCEB
:10966000206808B104F00AF80120BDE8F081002963
:10967000F0B566DBB0F90C408C4262DD002A60DB9D
:10968000B0F90E4094425CDD847E022C5AD0032C4B
:1096900061D0012C04D10489D24314440A4621B27A
:1096A000B0F938408C42A8BF0C460487B0F93A4064
:1096B0009442A8BF14464487B0F93C408C42B8BFDE
:1096C0000C468487B0F93E409442B8BF1446C48724
:1096D00090F84C40012C16D1012B42D0022B51D0D6
:1096E0008BB9002A0589476B1446B8BFD41DE41016
:1096F00014FB051402F00706012505FA06F63D5D88
:1097000025EA06053D5590F84C40042C19D10489F2
:1097100014FB02F202EBD27401EBD17242F34F025E
:1097200002EB6402446BA05CC9074BBF03F00F035C
:1097300000F00F0020F00F0040EA031348BF03437E
:10974000A354F0BD0489013C611A4489D2432244E8
:1097500009B212B2A4E74489013C641A114622B24C
:109760009EE7002A0589466B1446B8BFD41DE41055
:1097700014FB051402F007070125BD40375D3D438A
:109780003555C0E7002A0589466B1446B8BFD41D7D
:10979000E41014FB051402F007070125BD40375DF6
:1097A0007D40EDE738B50D46114604461AB209B2C0
:1097B000FFF770FB069A0B4BE262079A23600023C7
:1097C000C4E90933C4E90C234FF0FF33C4E9103373
:1097D0009DF91430A364049B84F84C502365204603
:1097E00038BD00BFC81E0C0038B50C4B03600446E2
:1097F000406B18B100F000FE00236363656A35B169
:109800002846FFF707FE38212846FAF748FCA06AE9
:1098100010B11021FAF743FC204638BDC81E0C00D9
:1098200030B587B0856A8DF80F1004467DB10023EE
:10983000CAB2CDE900338DF814308DF8152001231C
:10984000022205A92846FFF7AFFD07B030BD294623
:10985000B0F8400004F0A1FB606A00952B4601229D
:109860000DF10F01FFF7D1FEEFE7002914BFA7218B
:10987000A621FFF7D5BFF0B5856A85B004460E4630
:10988000174665B100230DF10F008DF80F3001234D
:10989000009001932846FFF787FD05B0F0BD2946EB
:1098A000B0F8400004F079FB606A00952B463A4618
:1098B0003146FFF7AAFEF0E710B5B0F90A100389A8
:1098C00090F84C2012FB03F2CB1D48BF01F10E03B0
:1098D000DB1004465A43406B002105F014FB0023C3
:1098E000A3632389013BA3876389013BE38710BD01
:1098F00070B5436B04460E4615460BB3002D33D1AD
:10990000236D002B50D01020FAF7C5FB054618B187
:10991000226D3146FFF71DFDA5621DB301212846CA
:10992000FFF733FDF0B12046FFF7C6FF0023A36326
:109930002389013BA3876389013BE387012012E070
:109940002389B4F90A2090F84C0010FB03F0D31DD2
:1099500048BF02F10E03DB10584300F045FD606381
:109960000028CBD1002070BDA06C0028C8DB0121ED
:1099700080B204F001FBB4F84800012104F00DFBB3
:109980000A2000F099FDB4F84800002104F005FB1E
:109990000A2000F091FDB4F84800012104F0FDFA1E
:1099A0000A2000F089FDABE7606A0028DAD0FFF7F3
:1099B0003AFD0028D6D0B4F84000012104F0DCFACA
:1099C000B1E707B581238DF80510022201A98DF8B2
:1099D0000430FFF750FF03B05DF804FB10B5034BF4
:1099E0000360044600F058F9204610BD04210C0025
:1099F00010B50446FFF7F2FF20465821FAF74FFB57
:109A0000204610BD30B585B004460A9D0295099DDB
:109A100001959DF92050009500F024F9024B236038
:109A2000204605B030BD00BF04210C0030B504460F
:109A300085B0FFF75DFF2F212046FFF7C2FFA26828
:109A40002F4B9A4221D1236801211B6B2046984756
:109A5000B4F90820B4F90A102023203A73390125FB
:109A6000CDE9013502EBD272732301EBD171009382
:109A700041F34F01234B204642F34F02FFF720FAF8
:109A8000236800211B6B20469847A368B3F1801F11
:109A900017D1B4F90820B4F90A1020230120203A84
:109AA0007339CDE9013002EBD272732301EBD1712E
:109AB000009342F34F02134B41F34F012046FFF74F
:109AC000FFF9114916222046FFF7D5FE054618B9C1
:109AD0000025284605B030BDA368B3F1801F07D02C
