:02000002B0004C
:1040000000400B0090200C00000006001700050285
:084010000401A30F00000000F1
:04401800DC040C00B8
:1040200009480A49884208B505D0094A824202D0A7
:10403000121A0AF09AF90748074A0021121A0AF0E0
:10404000BCF9014808BD00BFA0DA0320881E0C009F
:1040500080DC032080DC0320EDE7032070B5074EF1
:10406000074C09F073F9A41BA4080025AC4200D149
:1040700070BD56F8043B98470135F7E7341E0C0035
:10408000581E0C0002F0AEB808B502F0A9FBBDE85E
:10409000084009F013B905F01BBC05F019BC05F088
:1040A0001FBC000008B5034A03490C2005F02CFB97
:1040B000FEE700BFB9930B00F0040C000078B0FAE3
:1040C00080F0400970470123037070477047037CFC
:1040D00013F008031EBFC36A406A1B1A002BACBF53
:1040E00018466FF000407047064B01221A70064BCD
:1040F000D3E90031994204D01A6B01321A63343388
:10410000F8E77047DCDE0320CCDC0320704710B5F5
:1041100010210446FFF7C3FF204610BD10B534211F
:104120000446FFF7BCFF204610BD103002F03ABE37
:10413000103002F058BD07B501220DF10701103013
:1041400002F0A3FC01280CBF9DF807004FF0FF30E0
:1041500003B05DF804FB103002F0BEBE07B50122CB
:104160008DF8071010300DF1070102F0B5FE03B015
:104170005DF804FB436913B183690C30184770473D
:1041800013B500210446084605F0C6F80023204672
:1041900001A9019305F0D8F8019C0CB1012323710A
:1041A0000021012005F0B8F82CB1236820469B6857
:1041B00098470023237102B010BD000038B50E4BA4
:1041C0000E4D01241C7005F007F92B68C01A9528C4
:1041D00010D909F02BF80A4908F033FC05F0FCF877
:1041E000084A2860137863401370074B1B780BB1A3
:1041F000064B1C7038BD00BFA0DA032068DD032029
:1042000005050C00A1DA03200FDE032036E60320AB
:1042100010B5094C05F0E0F82368C01A952809D9B3
:1042200005F0DAF8206009F001F8BDE81040034914
:1042300008F007BC10BD00BF68DD032013050C00AB
:1042400010B50C4BD3E9003100221046994206D03C
:104250001C6B242C84BF186301223433F6E742B16F
:10426000054A1378182B04D801331370034B01222D
:104270001A7010BDCCDC0320A0DC032035E603203F
:10428000012A02D1016000207047022A04BF0B6896
:104290000360F8E70368184737B5044680680D46A1
:1042A00030B10023CDE900331A46022105F054F85D
:1042B000A06830B10023CDE900531A46194605F035
:1042C0004BF803B030BD0EB403B503AB002153F877
:1042D000042B019308F0DDFB02B05DF804EB03B0A2
:1042E0007047000073B5044608462279A36832B1CE
:1042F000A3B90B4902B0BDE8704008F08FBB094A72
:10430000267B094D0949647B012E18BF2946CDE95A
:1043100000140749FFF7D7FF02B070BD054AEFE769
:1043200035050C00D8090C0031050C002D050C00DA
:104330004B050C0024050C000EB403B503AB0121A2
:1043400053F8042B019308F0A4FB02B05DF804EBD2
:1043500003B070472DE9F843314C324E01252570EA
:1043600005F03AF83368C01A952856D908F05EFF70
:104370002D4908F066FB05F02FF82C4B25701D78B1
:104380002B4930608DB10B682A4C587822789042C6
:1043900043D04F6800219F423DD05E78964212BFC5
:1043A0003046294602463433F5E7D1E90046214F2D
:1043B000DFF88C80DFF88C90A6422ED062783B78B4
:1043C0009A421DD1D8F8005008F030FF05F11A01CB
:1043D00008F037FB0DB3EB7DFBB96B7D93B108F0B3
:1043E00025FF154908F02DFB2B690122E25408F046
:1043F0001DFF62781149FFF79FFF012389F8003004
:104400003434D9E7EA68297EA35C99423EBF297D0E
:104410005B1AA354F1E701B12270BDE8F88300BF35
:10442000A0DA032068DD032068050C00A1DA032070
:10443000CCDC032065DD032076050C0091050C0023
:10444000BCDC03200FDE03202DE9F843314B324C56
:1044500001221A7004F0C0FF2368C01A95281BD9E6
:1044600004F0BAFF206008F0E1FE2C4908F0E9FAF8
:104470002B4B1A782B4BAAB15C682B4D14F8332CBC
:104480002878824208D01B6800229C4204D0343332
:1044900013F8331C12B12970BDE8F883411A4A425F
:1044A0004A41F2E7D3E900461F4FDFF88880DFF882
:1044B0008890A642F0D062783B789A421FD1D8F813
:1044C000005008F0B3FE05F11A0108F0BAFA002D09
:1044D000E2D0EB7D002BDFD16B7D93B108F0A6FE1F
:1044E000124908F0AEFA2B690122E25408F09EFE50
:1044F00062780F49FFF720FF012389F80030343438
:10450000D7E7EA68697EA35C994282BF297D5B1880
:10451000A354F1E7A0DA032068DD032068050C004E
:10452000A1DA0320CCDC032065DD032076050C0036
:1045300091050C00BCDC03200FDE032010B583685E
:10454000044613B1032201469847204610BD0000DF
:1045500037B5134B036004468068C8B100256FF07F
:104560000043CDE9003502212B462A4604F0F4FE33
:10457000A068294604F010FF237903F0FF0513B16A
:1045800004F0C2FEF8E7A068294604F0D5FEA56055
:1045900004F10C00FFF7D2FF204603B030BD00BF8E
:1045A000580C0C0010B50446FFF7D2FF20461C2122
:1045B000FFF775FD204610BD10B54368013B04466A
:1045C000436063B903689B689847A368013BA36095
:1045D0002BB923682046DB68BDE81040184710BDA2
:1045E000F0B58C46002514490571044685600160CC
:1045F00092E8030085B002AF04F10C0687E80300DF
:1046000096E8030082E8030097E8030086E80300C9
:104610009168A0696161D1689560D060A161CDE9C0
:104620000035064A2346614604F1080004F07CFE8A
:10463000204605B0F0BD00BF580C0C0081410B00B6
:1046400013460A460149096802F0E9BB3CE603202B
:10465000F0B595B0044600AF0D461E22002107F1CB
:10466000300009F0AAFE2068616807F1280303C33F
:1046700097F82830662B6E4668D13E4907F128002E
:1046800009F01FFF00283ED13B48037C13B11030D6
:1046900002F0BEFB234607F1280204F1200518684A
:1046A0005968144603C40833AB422246F7D1186850
:1046B00020609B88A3801E2207F130012F4809F05B
:1046C0004CFF00232D4A2E497B60381D02F0A7FBCA
:1046D00048B108F0ABFD2B49284AFFF72DFE2749CA
:1046E000274802F0E8FB08F0A1FD244A2649FFF71D
:1046F00023FE2249254844F20222FFF7A1FF543746
:10470000B546BD46F0BD224907F1280009F0D9FEA3
:1047100068B908F08BFD194A1E49FFF70DFE164BCC
:104720001B7C002BEBD0194802F072FBE7E71A491B
:1047300007F1280009F0C5FE40B908F077FD1749D8
:1047400008F07FF9164B01221A70E8E7EB1D23F001
:104750000703ADEB030D2A462146684609F005FE26
:104760006946054808F05AF908F060FD694608F006
:1047700068F9C4E7A4050C0010DE032044DE032022
:10478000ECE50320AD050C00E0050C0020DE032065
:10479000FD050C0006060C001E060C0027060C008A
:1047A00062DE032030B585B01B4B009313798DF882
:1047B00004309368029300F58C659389ADF80C3052
:1047C00004460A466B4600F26C41284603F046FA5E
:1047D00010B9002005B030BD256004F23C452846E4
:1047E00002F016FB0121204603F0E2F8014668B111
:1047F0002146284602F043F90028EAD094F83C34D8
:1048000013F0700FE5D0054B1D60E3E7204603F081
:10481000CFF80028ECD1DCE7440C0C003CE6032088
:1048200038B50D4C237C054683B90C4944F202226D
:1048300004F11000FFF704FF2946204608F001F9B3
:1048400004F11000BDE8384002F0E2BA014620460B
:10485000BDE8384008F0F5B8D8DD032080DD03203E
:10486000012202700022C2718272064AC260026195
:10487000002242618261C261026242628262C2625D
:10488000704700BF00C079C408B508F07BFE084936
:10489000FFF719FD142005F083F808F073FE0549B1
:1048A000FFF711FDBDE80840142005F079B800BFFE
:1048B000D7090C00FD0B0C002DE9F04784B002AFC6
:1048C000804691461E460D4609F02BFE093020F029
:1048D0000701ADEB010D404609F023FE02AC29496A
:1048E00097F828A003464246204605F009F808F04C
:1048F0009DFC214608F0A5F8BAF1000F01D1042D66
:104900000DD1214B21491B788DF8003038463C23CE
:10491000224607F013FD786808B1FFF74DFEB9F1A4
:10492000000F01D1012D21D105F054FD05F0FFFD4F
:10493000E0B1204609F0F5FD073020F00700E84619
:10494000ADEB000D204609F0ECFD0DF10809024623
:104950002146484609F009FD204609F0E2FD002302
:10496000024649460A4805F0CFFBC5460EB9022D5E
:1049700004D108F007FE214608F063F80837BD4669
:10498000BDE8F0878F060C0014DD032096060C00AE
:10499000CCDE03202DE9F043044687B0102008F058
:1049A00082FDC0F57F6706460F37112008F07BFDBA
:1049B000B7F5F96F40DCC6F503636C4A06336FF058
:1049C00059014B43934249DC694E93FBF6F6B0F52F
:1049D000F96F45DC6FF4F96318446FF05901634BCC
:1049E0004843984200F3C080614D90FBF5F5002EDE
:1049F00047DC05EBD5725310B542C3F100034FEA13
:104A0000620580F2A88003F15A0009F0FFF88046A1
:104A10003046894609F0FAF8564B002209F060F951
:104A20000B4602464946404608F0A4FF09F0F2FB57
:104A300005F15A03C1B236E040F637039F420BDD61
:104A40004D4AC6F5F9635A214B43934206DC40F2C6
:104A5000647193FBF1F6BAE70026B8E70E46B6E7B5
:104A600040F63703984220DD434BA0F637005A2129
:104A7000484398421BDC40F26471B0FBF1F5002E14
:104A80003ADD06F15A02EB0F002DC6F34707D2B20A
:104A90002B440EDDA2EB6303B542D9B260DD07F112
:104AA0005A0303EB6503DBB20EE00025E7E70D4692
:104AB000E5E769425810B14202EB6303DBB251DD16
:104AC00007F15A01091AC9B22246009102A82B49DE
:104AD00004F016FF08F0AAFB02A907F0B2FF0023BA
:104AE00000930122194602A8FFF7E6FE642004F0B5
:104AF00057FF07B0BDE8F083002D3FF47AAF734253
:104B0000AB424FEA650720DA08F090FB1C4907F03A
:104B100098FF07F15A0009F079F880463046894637
:104B200009F074F8134B002209F0DAF80B4602463C
:104B30004946404608F01EFF09F06CFB05EBD571B5
:104B40004910C3B2C1F15A01BDE706F15A01CBB217
:104B500057FA81F1B7E75A36F1B253FA86F3A2E772
:104B60001346B1E71146AFE70D4640E7E6A0020065
:104B70009BF8FFFF0000F83F8BA00200B1060C007D
:104B80009E060C002DE9F0410E4D0F4FD5E900486F
:104B900088B0A04513D063792679627803933946AB
:104BA00005A804F0ADFE039B00960122002105A894
:104BB000FFF782FE6B68343B6B603434E9E708B082
:104BC000BDE8F081B0DC0320C2060C0010B5D0E9CE
:104BD00000420648121B92104243914202D30448FD
:104BE00008F0FFFC342000FB014010BDC54EECC4B2
:104BF000CB060C0010B5D0E900420648121B9210FB
:104C00004243914202D3044808F0EBFC242000FB0D
:104C1000014010BD398EE338CB060C00104B10B5A7
:104C20000122104C1A7004F0D7FB2368C01A952893
:104C300014D904F0D1FB0C4A206013780BB1013B6E
:104C4000137011780948FFF7D5FF094B186008F079
:104C5000EDFABDE81040074907F0F3BE10BD00BFF4
:104C6000A0DA032068DD03200DDE0320A4DC03208E
:104C7000BCDC032015070C00104B10B50122104CB2
:104C80001A7004F0A9FB2368C01A952815D904F0FE
:104C9000A3FB0C4A206013780B48032B9CBF013305
:104CA00013701178FFF7A6FF084B186008F0BEFAE2
:104CB000BDE81040064907F0C4BE10BDA0DA0320CD
:104CC00068DD03200DDE0320A4DC0320BCDC032010
:104CD00020070C0038B5D0E90054641BB1EB241F49
:104CE0004FEA241202D3034808F07BFC05EB0110C5
:104CF00038BD00BFCB060C0070B5D0E900560446A5
:104D0000AE4204D0284607F0F9FF1035F8E72068D6
:104D100018B1A168091AFFF7C2F9204670BDF8B5AD
:104D200004460E4615460027B44229D015B3236821
:104D30002B6063686B60A368AB60E3682760C4E9BD
:104D40000177EB6023692B61237D2B75637D6B7588
:104D5000A37DAB75E37DEB75237E2B76637E6B764F
:104D6000D4F81A30C5F81A30D4F81E30C5F81E3001
:104D7000638C6B842046FFF7BFFF24342435D3E7D0
:104D80002846F8BD2DE9F74F4368D0F800A00193FD
:104D9000A3EB0A04414BA4105C43414B9C42814667
:104DA0008B46164602D13F4808F018FC012C2246DB
:104DB00038BF0122A418A1EB0A0729D254B39C42A0
:104DC00028BF1C4634206043FFF765F9804618EB86
:104DD000070507D00FCE0FC50FCE0FC50FCE0FC5DD
:104DE00033682B60C446D646F34515D0BCF1000F9E
:104DF00009D076460FCE65460FC50FCE0FC50FCE34
:104E00000FC533682B600EF1340E0CF1340CEBE758
:104E10001C46D7E7A046DAE7DFF88CE0BF080EFBB8
:104E200007F7342327F040475F430AEB070B1F4483
:104E300008EB070300939C465F46019B9F420CF1E1
:104E4000340C0CD03E460FCEACF134050FC50FCE5E
:104E50000FC50FCE0FC533682B603437EDE7A7EBD6
:104E60000B07BF080EFB07FE009B2EF0404E3427B9
:104E700007FB0E37BAF1000F06D0D9F808105046DC
:104E8000A1EB0A01FFF70BF9342000FB0484C9E908
:104E90000087C9F8084003B0BDE8F08FC54EECC4E8
:104EA000622776022D070C00C54EEC0470B50A4649
:104EB000D0E90113994206460ED049B115460C4679
:104EC0000FCD0FC40FCD0FC40FCD0FC42B682360BF
:104ED00073683433736070BDFFF754FFFBE7000065
:104EE0002DE9F04F2DED028BA3B08378412B06AF57
:104EF00004460E4627D1C378422B40F074816B469E
:104F000008EE103A07F1100063783B74DFF87883FD
:104F100009F017FAD8E9009BC3B2FB604FF0000A12
:104F20000123D94515D099F80120F9688A4205D1A5
:104F300051464046FFF74AFE002305460AF1010AA2
:104F400009F13409EDE7432B40F04D81C378432B41
:104F5000D3E773B107F13C00FFF782FCFB68CA4856
:104F600087F83D3007F13C01FFF7A0FFD8F8045067
:104F7000343D204609F0D5FA013820F00700ADEBAA
:104F8000000D204609F0CDFA0DF1180948444FF004
:104F9000000A00F809AC204687F81BA009F0C1FA06
:104FA000204410F8023C3B75204609F0BAFA204430
:104FB000514610F8013C7B75102207F1140087F868
:104FC00016A00AF099F983465FFA8BFB08F02EF9D8
:104FD000AE495B465A46FFF7AFF94FF0040A204648
:104FE00009F09FFA0238824516D2BAF1060F9BBF2C
:104FF00007F17003534409EB0A0314F80A208CBF2D
:1050000014F80A2003F85C2C0AF1010A88BF03F89F
:10501000072C5FFA8AFAE2E758452BD008F006F928
:105020000546204609F07DFA5B46821E98492846CF
:10503000FFF782F99748FFF7F3FB08F0F7F8964976
:1050400007F0FFFC6378A3F13002092A02D9432B51
:1050500040F0C680227887F83C2087F83D308F49A1
:105060008F4807F1180307F13C0204F049FC8D4B0F
:105070001E70B5E08C4907F1180009F022FA0028EB
:1050800000F0AE80894907F1180009F01AFA0028EB
:105090004FD1D8F80430D8F80040BB60BB68A342B9
:1050A00047D06378FA68934241D107F13C0A07F18F
:1050B000300B7F49CDF804A007F12C0307F128023B
:1050C000CDF800B0484604F023FC584609F036F904
:1050D000504687ED000B09F031F997F82810A170C0
:1050E00097F82C1001F001002071C1F340006071AD
:1050F000C1F38000D7E90023E070C1F3C000A072C3
:10510000C1F30110A071C1F38010C909207261724E
:10511000104619465BEC10AB09F09CF859466061EB
:10512000504609F097F8A0616248FFF779FB3434E4
:10513000B4E7614907F1180009F0C3F9002858D114
:1051400007F12C03049307F12803039307F12403C9
:10515000029307F12003019307F11C0357490093C1
:1051600007F1300207F13C03484604F0D1FBD7EDCC
:10517000077AB8EE677ADFED527AC7EE276A97EDC5
:10518000087AC5ED096AB8EE477AC7EE276A97ED47
:10519000097AC5ED076AB8EE477AC7EE276AC5ED0A
:1051A0000A6A97ED0A7AB8EE477AC7EE276AC5ED24
:1051B0000B6A97ED0B7AB8EE477AC7EE276AC5ED12
:1051C000086A08F033F86A78FA600446286A08F03A
:1051D0002FFDCDE90001FA683A492046FFF7ACF807
:1051E00018EE103A9D467437BD46BDEC028BBDE803
:1051F000F08F354907F1180009F063F930B93348E9
:105200000322494609F0A9F9314B31E7314907F149
:10521000180009F056F9002864D1D8E900300122BD
:10522000834206D05978FC683433A14208BF00227B
:10523000F6E7CAB107F0FAFF274907F002FC07F1C9
:105240003C00FFF70DFB012E12D187F83F60FB6891
:105250000D4887F83D3007F13C01FFF727FE1F4856
:1052600007F13C01FFF722FE1D4B01221A70B7E740
:10527000022E4FF0010302D187F84130E7E7032EF9
:1052800008BF87F84030E2E7CCDC032047070C007A
:105290005C070C0079070C00A2070C006D060C00DF
:1052A0006CDD03207FDD0320C3070C00C7070C0063
:1052B000CB070C00D7070C00E6070C00EA070C0030
:1052C00000007A44FF070C0012080C007CDD03206C
:1052D0007BDD032016080C001A080C00B0DC03204C
:1052E00064DD0320104907F1180009F0EAF80028EE
:1052F0007FF476AF0D4C237C83B90D4944F2022232
:1053000004F11000FFF79CF90A494A462046FFF7CE
:1053100013F804F1100001F07BFD61E705494A46EE
:105320002046FFF709F85BE733080C00D8DD0320BF
:1053300080DD032037080C0010B50C460022042144
:105340002046FFF7CDFD0B4B1B7893B10A48037C39
:105350002BB90A4944F202221030FFF771F92246B4
:1053600007490548FEF7E8FFBDE81040054801F091
:105370004FBD10BD0CDE0320D8DD032080DD0320EF
:105380005A080C00E8DD0320B0B501F1080323F052
:10539000070300AFADEB030D0C460A460146684615
:1053A00008F0E3FF0DEB04036D4613F8013C13B165
:1053B00000230DF8043007F039FF114907F02EFBE8
:1053C00007F034FF294607F03CFB0122114628462E
:1053D000FFF786FD0B4B1B7883B10B48037C2BB981
:1053E0000A4944F202221030FFF72AF90849064818
:1053F0002A46FEF7A1FF074801F00AFDBD46B0BDF1
:105400007A080C000CDE0320D8DD032080DD0320A9
:105410008B080C00E8DD03202DE9F04FDFF8E09069
:10542000344D89B000AF07F001FF03681B6998474E
:1054300000285BD0DFF8CC8007F0F8FE03681B691A
:1054400098470028EFD007F0F1FE0A2201463846BF
:1054500007F03CFCBB68073323F007036E46ADEB57
:10546000030DEA460023B9681FFA83FB8B4503F15D
:10547000010407D25946384607F042FD23460AF890
:105480000B00F0E701290AD90139384607F038FD49
:105490000D2801BFBB685344002203F8012C0122F0
:1054A00003215046FFF71CFD99F80030CBB12B7C4F
:1054B0002BB91149114844F20222FFF7C1F83946CD
:1054C00007F1100007F0B0FC07F110024146284632
:1054D000FEF732FF07F1100007F010FC074801F05B
:1054E00097FC384607F00AFCB546A5E72437BD46C9
:1054F000BDE8F08FD8DD032080DD0320E8DD032048
:105500000CDE0320AB080C002DE9F04FDFF8EC8037
:10551000DFF8EC90354D89B000AF08F033F8036840
:105520001B69984700285CD008F02CF80A22014635
:10553000384607F0CBFBBB68073323F007036E4602
:10554000ADEB030DEA460023B9681FFA83FB8B45D8
:1055500003F1010407D25946384607F0D1FC23462F
:105560000AF80B00F0E701290AD90139384607F09B
:10557000C7FC0D2801BFBB685344002203F8012C6F
:10558000012202215046FFF7ABFC07F04FFE4146D7
:1055900007F057FA07F04AFE396807F052FA99F80F
:1055A0000030CBB12B7C2BB91149124844F20222B6
:1055B000FFF746F8394607F1100007F035FC0E49B1
:1055C00007F110022846FEF7B7FE07F1100007F0BA
:1055D00095FB084801F01CFC384607F08FFBB546E8
:1055E0009BE72437BD46BDE8F08F00BFD8DD032020
:1055F00080DD0320E8DD0320E6080C00D4080C0061
:105600000CDE03202DE9F0471F4DDFF87CA0D5E923
:1056100000239B1A1D4A9B105343DCB203440A2B00
:1056200084BFC4F10A00C0B220448EB0C4B20027C7
:105630004FF480795FFA87F8444521D9D5E90031E4
:105640000026994205D05A783433424508BF0126D6
:10565000F7E79EB901A8FFF703F964208DF80580EC
:105660008DF80760ADF808908DF80A6007F042FAEF
:1056700001A98DF806005046FFF718FC0137D9E75D
:105680000EB0BDE8F08700BFCCDC0320C54EECC4F3
:105690002DE9F84FD0E9008993466FF07043A9EBEC
:1056A0000802B3EBE20F07468A464FEAE20402D152
:1056B000204807F093FF012C224638BF0122A4188E
:1056C000A1EB080531D294B39C4228BF1C46E000F0
:1056D000FEF7E1FC064673191CBFDBE90001C3E9D4
:1056E0000001002D04DD2A464146304608F04BFEFD
:1056F000A9EB0A090835B9F1000F354404DD4A4623
:105700005146284608F031FE4D44B8F1000F05D04F
:10571000B9684046A1EB0801FEF7C1FC06EBC404E2
:10572000C7E90065BC60BDE8F88F1C46CFE7264698
:10573000D1E700BF2D070C002DE9F04FA5B00646BC
:1057400004F048FE7A49142204F03CFF8046002809
:1057500000F0EB80DFF8D8B1002404EBC4094FEA75
:10576000890909F108070AA85F4404F097FA0122A1
:105770000AA9384605F0EEFD8246002856D06D494C
:105780000AA804F0E6FA054600284FD0082208A926
:10579000384604F03BFCB21C53D107F047FD9DF89E
:1057A000273005939DF8263004939DF82530039308
:1057B0009DF8243002939DF823305F4F01939DF8AC
:1057C00022309DF820205D490093CDF818A09DF867
:1057D0002130FEF7B1FD7B689DF820103A689342B6
:1057E00005D012F8080B884208BF0025F7E7EDB195
:1057F000242202FB04B28DF85C1092F9202018924A
:10580000BA68934217D01BB1DDE9170183E80300A2
:105810007B6808337B6007F009FDD7E900239B1AFA
:1058200047499DF82020DB10FEF786FD0134E4B2E5
:10583000444592D379E0404817AA1946FFF728FF5C
:10584000E9E7731C03D09DF82030B342EED104F099
:10585000C1FD3C4D014601230BEB090217A806F0E0
:10586000B1F9179B189C2B606B689C4208D014B14F
:10587000636801336360686808B1FEF79DFE6C6081
:1058800017A804F016FF2F4804F016FD0446002860
:105890004BD02D4B2D4D00221A702D4B01261F226F
:1058A0000FA938461E7004F0B1FB2A4A2A49254840
:1058B00005F01CFE294A2A49224805F017FE294A0C
:1058C0002949204805F012FE07F0B0FC9DF83C2065
:1058D0002649FEF731FD17A8FEF7C2FF9DF83C30C0
:1058E00023488DF85D3017A98DF85F60FFF7DEFA69
:1058F00069689DF83C202B681E488B4207D05F7872
:10590000974202BFDE70002403603433F5E764B1D0
:1059100007F08CFC184907F094F80C4817A9FFF71A
:10592000C5FA6B68134A343B136025B0BDE8F08FAD
:10593000E0DE0320D8DC032090DC032007090C0004
:105940003A090C00BCDE03200EDE0320CCDC032071
:1059500034E6032000DD0320D4DE0320ECDC03204A
:10596000CCDE032018DD0320C4DE03204C090C002C
:10597000B0DC03208CDC03201A080C0030B5384959
:1059800087B0054600223748FEF75AFE50B9364B1D
:1059900001221A7007F04AFC344907B0BDE83040D4
:1059A00007F04FB8324A334C2B460A2103A803F0C4
:1059B000B7FF002319460093012203A8FEF77CFFDE
:1059C00007F034FC23682C495A78FEF7B5FC4FF4F5
:1059D0007A7003F0E5FF23685B78AB421ED007F0D6
:1059E00025FC2268254952782B46FEF7A5FC04F0D9
:1059F000F1FC05F00DFB04F0EDFC04F098FD30B96E
:105A00002846FFF799FE322003F0CAFFF3E707F0BC
:105A10000DFC23681A495A78FEF78EFC07F006FC45
:105A2000236818495A78104DFEF786FC00232B7026
:105A3000642003F0B5FF2B78002BF9D007F0F6FBBC
:105A4000236811495A78FEF777FC1048037C13B19C
:105A5000103001F0DDF90E4B00221A7007B030BD96
:105A600060090C00B4DD032062DE032062090C0033
:105A7000A3090C008CDC0320AC090C00D9090C0034
:105A8000120A0C00330A0C00560A0C00A4DD032095
:105A900063DE03202DE9F74FD0E9009A8B466FF0C3
:105AA00078431146AAEB0902B3EB221F80464FEA66
:105AB000221402D1264807F091FD012C224638BF5E
:105AC0000122A418ABEB09061AD2DCB19C4228BF14
:105AD0001C4620010191FEF7DEFA01990546A8193E
:105AE00001D007F087F928464E46B34500F110076C
:105AF0000AD010B1314607F097F910363846F4E76E
:105B00001C46E6E72546EAE7564506D031463846C4
:105B100007F08AF910361037F6E74E46564504D09E
:105B2000304607F0EBF81036F8E7B9F1000F06D071
:105B3000D8F808104846A1EB0901FEF7B0FA05EBCA
:105B40000414C8E90057C8F8084003B0BDE8F08F56
:105B50002D070C0038B5D0E90135AB4204460A46A2
:105B600007D013B1184607F045F963681033636036
:105B700038BD1946FFF78EFFFAE700002DE9F04126
:105B8000D1E900270023BF1AC0E9003304460D46BF
:105B9000836018D0184B9F4201D907F019FD384691
:105BA000FEF779FA0646C4E900663744A760D5E9EE
:105BB0000078B84509D01EB13946304607F034F9AF
:105BC00010361037F5E73E46EDE76660D5E903236A
:105BD000C4E903236B6963612B8B2383D5F81A30E7
:105BE000C4F81A30D5F81E30C4F81E306B8C6384AC
:105BF0002046BDE8F08100BFF0FFFF7F2DE9F347AD
:105C0000D0E90087234BA7EB0804A4105C43224B88
:105C10009C420E460546114602D1204807F0DEFCA4
:105C2000012C224638BF0122A418A6EB080A2DD267
:105C300074B39C4228BF1C46242060430191FEF7A8
:105C40002AFA0199814619EB0A0001D0FFF796FF65
:105C500031464A464046FFF762F8394600F12402D1
:105C60003046FFF75CF80646B8F1000F05D0A9688A
:105C70004046A1EB0801FEF712FA242000FB049431
:105C8000C5E90096AC6002B0BDE8F0871C46D3E7DA
:105C9000A146D8E7398EE338E3388E032D070C0090
:105CA00038B5D0E90135AB4204460A4607D013B1F6
:105CB0001846FFF763FF63682433636038BD1946F5
:105CC000FFF79CFFFAE7000070B5AEB000244C4926
:105CD00003940DF11E0040F201164FF48075CDE9DA
:105CE000014408F0F8FB09234649ADF81C500DF1BA
:105CF0004200CDE90536CDE90A440C9408F0EBFBEF
:105D0000414B0F934FF4C843ADF840303F491594D1
:105D100002230DF166000D93CDE9134408F0DBFB7F
:105D20000A233B49ADF864500DF18A00CDE91736DE
:105D3000CDE91C441E9408F0CEFB4FF001132193D3
:105D400034494FF4007325A8ADF8883007F021F8E6
:105D500025A91CA8FFF7FEFE25A806F0CFFF2E49B7
:105D600025A807F016F825A91CA8FFF7F3FE25A81B
:105D700006F0C4FF294925A807F00BF825A91CA89F
:105D8000FFF7E8FE25A806F0B9FF062324491F9374
:105D90000DF1AE00CDE92544279408F09CFB0723C4
:105DA00001A92048ADF8AC50CDE92936FFF778FFBE
:105DB0000AA91C48FFF774FF1CA91A48FFF770FFD7
:105DC00013A91848FFF76CFF25A91648FFF768FFCD
:105DD000154B14481978FEF70DFF144B186025A8D1
:105DE000FEF78AFF1CA8FEF787FF13A8FEF784FFC3
:105DF0000AA8FEF781FF01A8FEF77EFF2EB070BD56
:105E00007D0A0C00840A0C00010000018C0A0C00C1
:105E1000940A0C009B0A0C009F0A0C00A30A0C00B9
:105E2000A70A0C00A4DC03200DDE0320BCDC032049
:105E300070B55B4B5B4C01221A705B4B0022C3E9CF
:105E40000022A2F5803288B09A60032003F074FC2F
:105E50005649574803F0FCFF5649574803F0F8FFEE
:105E60005649574803F0F4FF5649574803F0F0FFEE
:105E700014257F26204603F006FF04F1080004F0F5
:105E800032FF04F1140004F02EFF013D84F820607D
:105E900004F12404EED14D484D4C04F00FF94D4867
:105EA00004F00CF94C4804F009F94C4804F0E2F90C
:105EB00007F028FB4A4A4B49CDE90121132203464A
:105EC000009249488022402103F016F82378BFF35E
:105ED0005B8FD8070AD42046FEF7F0F830B143486C
:105EE000012106F01FFE2046FEF7EDF8404B414E23
:105EF000414D424807966422C3F86024404AC3F8E3
:105F000070240122002483F87424384A5C60C3F8AA
:105F10003C44C3F86844C3F87844A3F87C44C3F80D
:105F20006C24384B384A5C604FF47A7199601A607F
:105F30001C61364BC3E901411A601C61344BC3E953
:105F400001411A601C61334BC3E900449C60324B31
:105F5000C3E900449C60314BC3E900449C60304B72
:105F6000049304AA234641F288310695FEF738FBD4
:105F700004A8FEF7E3FA2B4B049304AA23464EF63B
:105F800060212948CDE90656FEF72AFB04A8FEF752
:105F9000D5FA264BC3E900449C6008B070BD00BF31
:105FA00014DD0320E0DE0320C0DC0320AE0A0C0079
:105FB000D8DC0320D30A0C00ECDC0320F80A0C0028
:105FC00000DD03201D0B0C0018DD0320D4DE0320B0
:105FD00080DC0320CCDE0320C4DE0320BCDE0320F3
:105FE000801A0600A086010064DE032084DC032002
:105FF000B0E1032095420B0081420B002CDD032011
:10600000440C0C0010DE03206C0C0C00D8DD0320C7
:10601000A4DD0320CCDC0320B0DC032090DC0320D3
:10602000E9400B0041420B0048DD0320A4DC0320C3
:106030002DE9FF47BDF83060644C0F46013619B2B8
:10604000013390460546BDF930200FFA83F936B288
:106050004FF0100A002F6FD0012758232046CDE9BA
:1060600000A7039202F0CDF8A4F810900221204678
:1060700066824FF0000902F0E0FB29465448C4F85C
:106080001490FEF7B7FD00F11A01204606F0C6FC99
:10609000039AB8F1000F3CD07F23CDE900A7582127
:1060A000204602F0AEF8592323826682C4F8149089
:1060B00047482946FEF79EFD427DF2B103690CAACE
:1060C00013441B79BBB143494048FEF7FCF807F085
:1060D000ADF8294604463E48FEF78CFD3E4900F1E6
:1060E0001A022046FEF728F929463948FEF782FDB4
:1060F00004B0BDE8F0873949E6E7C268837D0CA9A2
:106100000A4412799BB11146FEF7E4FD016820466E
:10611000DBE77F23CDE900A85821204602F071F883
:10612000592323824FF0011366826361C0E72C4933
:106130002046FEF7C8F8CAE758232046CDE900A755
:1061400003924FF0011802F05CF802212046A4F8F7
:106150001090668202F071FB29461D48C4F8148035
:10616000FEF748FD00F11A01204606F057FC039A9D
:106170007F2358212046CDE900A702F042F8592399
:10618000134823826682C4F814802946FEF732FD44
:10619000427D5AB103690CAA13441B7923B10D49FE
:1061A0002046FEF790F89FE70C49F9E7C268837D27
:1061B0000CA90A44127923B11146FEF78BFD016840
:1061C000EEE707492046FEF77EF88DE764DE032000
:1061D000A4DC0320420B0C00490B0C00450B0C0007
:1061E00076070C002DE9F047032190B01C2007F042
:1061F0001DF903210E2007F019F90321072007F0EC
:1062000015F903210F2007F011F9032112200024B2
:1062100007F00CF903211D2007F008F970490094DC
:106220004FF0FF3301221C2006F086FA6D490094DE
:106230004FF0FF3301220E2006F07EFA6A490094E7
:106240004FF0FF330122072006F076FA67490094E9
:106250004FF0FF3301220F2006F06EFA64490094DC
:106260004FF0FF330122122006F066FA0122614945
:1062700000944FF0FF331D2006F05EFA03F0ACF8F7
:106280005D4BDFF8D081186006F0D0FF4FF4E131AC
:1062900006F0C0FF07F076F94FF4165106F064FFE0
:1062A000FEF7F2FA04F096F804F0DEF804F092F843
:1062B000322104F023F904F08DF8082104F0DBF812
:1062C0004E4A4F49104605F03BF94E4A4E4910469A
:1062D00005F036F922464D494D48CDE900440123E9
:1062E00003F07EFA4B4B1C704B4B1C704B4B1C70DD
:1062F0004B4B01251C7088F8005006F0C1FE07903A
:1063000006F0B2FE064606F0C3FE074606F088FE1B
:10631000814606F091FE824606F09AFE079B414AAE
:106320000096CDE903A01021CDE9017908A803F07A
:10633000F7FA3D493D4808F0CEF808A93B4808F077
:10634000B1F83B49394808F0ADF8FFF7BDFCFA2039
:1063500003F026FB2A463C21364802F0E1FD354891
:1063600002F024FD334802F04DFE3248294601F088
:10637000FCFF314B0C933148314B8DF834400CAA63
:1063800008210E93ADF83C50FEF70CFA044630B9E4
:1063900006F04CFF2B4906F054FB88F80040254CD2
:1063A0000221204602F049FA00224FF00113C4E90D
:1063B00004232549204606F031FB204602F022FE48
:1063C00022486FF00041FDF767FF6FF00041204861
:1063D000FDF762FF0220FFF715F910B0BDE8F08766
:1063E000BD410B001D4C0B00794C0B0055430B00BD
:1063F00049440B0011420B0068DD0320D4DE03206A
:1064000089530B00C4DE032051460B0039530B00A7
:1064100096060C0063DE032062DE0320DCDE032030
:1064200035E60320750B0C008E0B0C0080DD03207D
:10643000970B0C0064DE0320440C0C00B0E1032039
:1064400000127A00A00B0C00C50B0C002CDD032001
:1064500048DD03200CDE03202DE9F04FA54B1B780F
:106460008FB0002B00F0428100260F23CDE90036CB
:10647000A148DFF89892DFF8A4A2DFF8A4B2802345
:106480003246314601F0BDFE3546D9E900239B1A5C
:106490009B10F7B20AFB03F39F4248D239464846A5
:1064A000FEF794FB07EBC70841789BF80030924C4D
:1064B0004FEA480808F1050299424FF0040308F139
:1064C0000108228263824FF00101204617D102F0B9
:1064D000B4F90023012263610E23CDE90032414665
:1064E000204601F08EFE39464846FEF76FFB834991
:1064F00042782046FDF7E7FE01363D46C5E702F04B
:106500009CF94FF00113012263610E23CDE90032A3
:106510004146204601F0E8FE39464846FEF756FB64
:10652000764942782046FDF7CEFE2F46E4E7744FC9
:1065300097F80080B8F1000F60D1724F06F076FE38
:10654000714906F07EFAD7E900329A4219D02946FD
:106550006E48FEF73BFB6E4B044693F800C00FCC31
:1065600001AE0FC60FCC0FC60FCC0FC62368336029
:10657000102300938CF00102434601214046FFF7AF
:1065800057FDD7E90036F61A624BDFF88CA1DFF829
:106590007C91DFF87CB1B6105E43F6B2022E28BFC4
:1065A00002260127BE42C0F29B8006F03FFE3A461B
:1065B0005146FDF7C1FE29464846FEF707FB044653
:1065C0000FCC0DF1040C9BF800E0ACE80F000FCCF1
:1065D000ACE80F000FCCACE80F005FFA87F8236837
:1065E000CCF8003001373B019BB2009300238EF0C2
:1065F000010219464046FFF71BFDD3E7B8F1040F2F
:10660000DFF80C8140F08E8006F010FE3A784249A7
:10661000FDF792FE29463D4897F80090FEF7D6FA1E
:1066200006460FCE01AC98F800C00FC40FCE0FC4C1
:106630000FCE0FC43368236030238CF00102012198
:10664000484600930023FFF7F3FC06F0EFFD3A788D
:106650003149013AFDF770FE29462C48FEF7B6FA9B
:1066600006460FCE0DF1040C97F800E098F8009064
:10667000ACE80F000FCEACE80F000FCEACE80F0077
:106680003368236020230EF1FF3E00930023194658
:106690005FFA8EF089F00102FFF7CAFC06F0C6FD32
:1066A0003A781D49023AFDF747FE18482946FEF799
:1066B0008DFA3F7898F800C0023F05460FCD01AE35
:1066C0000FC60FCD0FC60FCD0FC62B68236010234A
:1066D000009300238CF001021946F8B2FFF7A8FCE2
:1066E000054802F08FFC034A002313700FB0BDE889
:1066F000F08F00BFA0DA032064DE032076070C00D1
:106700000DDE0320A4DC0320D00B0C00CCDC032026
:10671000A1DA0320398EE338DC0B0C00C54EECC443
:1067200065DD032006F082FD3A782B490132FDF742
:1067300003FE29462948FEF749FA06460FCE01AC6A
:1067400098F800E097F800C00FC40FCE0FC40FCE2A
:106750000FC43368236030230CF1010C0093002335
:106760008EF0010219465FFA8CF0FFF761FC06F02B
:106770005DFD3A781849FDF7DFFD2946174897F87F
:106780000090FEF723FA06460FCE0DF1040C98F8A0
:1067900000E0ACE80F000FCEACE80F000FCEACE885
:1067A0000F003368236020238EF001020121009343
:1067B00048460023FFF73CFC06F038FD3A780649CE
:1067C000013AFDF7B9FD05482946FEF7FFF93F7884
:1067D00098F800C0013F70E7DC0B0C00CCDC032014
:1067E0002DE9F043584D2B788BB0A3B1574B1B6864
:1067F000002B39D05A78564902A803F081F8554C3D
:106800002378009301231A46002102A8FEF754F8CA
:1068100000232B702370FFF71FFE4F4B1B7823B90B
:1068200006F004FD4D4906F00CF94D4B4D4E1A781B
:10683000002A35D0DFF84481444F96F800900024B8
:106840001C70D8E900535D1B474B3C60AD105D43A5
:10685000E1B28D420DD94046FEF7B8F943784B4579
:1068600008BF38600134F3E7404902A807F033FE5F
:10687000C5E73A68002A64D0937A13B13C4B0121F2
:106880001970537A3B49527802A803F039F8314B1A
:106890001B78009301231A46002102A8FEF70CF88A
:1068A0003078FEF777F803F095FD03F040FE0028FE
:1068B00037D0072006F0E4FD034628B900900146D2
:1068C00001222D48FDF7F8FF2C4B2D4ED3E9004750
:1068D000A7420FD0D4F8208006F0A8FC0546404619
:1068E00007F0A6F902460B4628463146FDF724FD7F
:1068F0003434EDE7FA2003F053F81D4B1B783BB11D
:10690000124C23685878FFF739F8236800229A72EE
:10691000FEF7FAFDFEF780FD0BB0BDE8F043FEF791
:1069200031B9184C02F058FD2368C01AB0F5FA6F5F
:10693000E3D302F051FD20604FF0FF30FEF7FCFE84
:10694000DBE70BB0BDE8F083DCDE03209CDC03203A
:10695000E90B0C0035E603200CDE0320FF0B0C00D6
:1069600036E6032065DD0320C54EECC4F50B0C00B4
:1069700063DE03201A0C0C00260C0C00CCDC032078
:106980002E0C0C00A0DD032038B504460D46242251
:10699000002107F012FDA560EB79102B03D0202B0E
:1069A00006D0002038BD202301202370A070F9E715
:1069B0004023F9E710B50446243000F0EBFE28B17F
:1069C00004F50C70BDE8104000F0E4BE10BD837803
:1069D000016943F00403837000F11002806800F045
:1069E0008FBF00002DE9F041017811F02005044629
:1069F00003D000263046BDE8F0814269174B9A4229
:106A0000F7D2FFF7E4FF06460028F2D02169A0681C
:106A100000F00BFF0746A06805223946243000F03D
:106A2000E1FE80460028E4D029464FF4007207F0CA
:106A3000C4FC0125A3681A79AA4209D918684246FC
:106A4000E91901F03CFA0028D3D00135EDB2F1E7A5
:106A5000636903EB42236361CCE700BF00FE1F00C4
:106A600010B5044680680A462430A16900F0BAFED9
:106A700020B1A38803F00F0300EB431010BD03788F
:106A80000BB9FFF781BF002070472DE9F74F03785E
:106A9000044688461546002B5DD08278D1075AD52A
:106AA0001A072DD5C36942699B1A9D4228BF1D460E
:106AB0002E464FF0000904F1100B002E00F08F80DD
:106AC00022786369A0689706C3F3080A4FEA532146
:106AD0001FD5006A0144A068BAF1000F42D1B6F593
:106AE000007F3FD3C36A99423CD0B6F5806F52D243
:106AF0000068424601F05AF968B34FF4007744E069
:106B00009B06D5D583681A894369C3EB42139BB2B0
:106B1000CBE790F8059009EA0109BAF1000F08D116
:106B2000B9F1000F05D15BB951064CBF036A236A66
:106B300023612169A06800F078FE09EB0001CAE733
:106B400021695A4600F077FE002804DBF1D1237852
:106B500013F0700F43D1637843F0020363704FF07A
:106B6000FF303DE0CAF50077B7424FF0000200F178
:106B7000240028BF374600F035FE0028EBD000EB9C
:106B80000A013A46404607F0F0FB63693B44B844CB
:106B90006361F61B91E7227892064FEA562A06D4E3
:106BA0000279A2EB0902D2B2924528BF92469942DD
:106BB0004FEA4A2708D2A06853460068424601F0CF
:106BC0003DF90028E1D1C6E753448B42F3D9243084
:106BD000019100F0DFFD01990028ECD1BBE7A81B73
:106BE00003B0BDE8F08F73B501220DF10701D0E9C4
:106BF00004560446FFF749FF01280ABF9DF8070025
:106C00004FF0FF30C4E9045602B070BD37B5436998
:106C100013F4F07F0446C3F3431500D099B9012261
:106C20000DF107012046FFF730FF40B2012802D0E6
:106C3000002003B030BD63691F33A068636130304A
:106C400000EB4510F5E72033F7E72DE9F041027836
:106C5000076904460D4662B14069884202D019B9FD
:106C600021616561012006E0160706D5E3698B42C4
:106C70000BD227610020BDE8F081910605D5A368FD
:106C80001B89B5EB431FECD9F3E7D4F808C09CF897
:106C90000660431E06F109016E1ECB40CE40B34292
:106CA00000D898B953064CBFDCF82030236A236122
:106CB00004F11008002ED4D02169A068424600F0EB
:106CC000BAFD002806F1FF36F4DCD2E7F61AEFE74A
:106CD000F8B50F4604461546002124221E4607F04B
:106CE0006CFBB868A060A58005F00F053B6AE36007
:106CF0006A0100EB451595F83B301F0744D403F0BB
:106D00001703237095F83B1011F0180F04BF43F0E0
:106D1000080323709DF81830E37006F00303012B7D
:106D20002CD0022B28D07BBB71052DD40123A3705E
:106D3000A1788B0704D52378DF0625D4DD0723D47B
:106D4000B31123F07F0306F008052B430B43A37018
:106D5000C36AA3618318B3F84420B3F84A1041EA28
:106D60000241720513D559B9A37843F00403A37007
:106D7000730410D40120F8BD0323D8E70223D6E71B
:106D800000F0F9FD0028EFD100202070F3E7216228
:106D9000DB6CE361ECE7E1692046FFF756FF002872
:106DA000E8D1F1E738B5037804460BB9012038BDC6
:106DB00083785A0723D50121FFF752FE054628B9EB
:106DC000637843F0010363700020F0E70378E52B5C
:106DD000F6D023781B0744BFE369C361236A43836A
:106DE000638C8382094B1B682BB100F116011830AC
:106DF00098472B8B6B82A37823F00403A370A068C1
:106E0000FFF7D8FD0028DBD0D0E700BF38E603202D
:106E100010B50446FFF7C6FF0023237010BDF0B580
:106E200093B01F46002309930378019206460C464F
:106E300013B1002013B0F0BD0B7813F0700FF8D031
:106E400013782F2B12D1019A13782F2B02D10132F4
:106E50000192F8E7A1681BB93046FFF710FEE9E799
:106E600009A8FFF791FD0028E3D009AC019801AA19
:106E700003A900F031F90028DBD0019B1B789BB1FE
:106E8000002303AA2146304600F0BAFA0028D0D0E9
:106E900035460FCD09AC0FC40FCD0FC42B6823604E
:106EA0003046FFF7B5FFE0E73B4603AA21463046F0
:106EB00000F0A6FABEE700B58BB000230A460193A6
:106EC0000146012301A8FFF7AAFF10B101A800F0B5
:106ED000E1F90BB05DF804FB2DE9F0470378894632
:106EE0001907044617465BD583789A0758D51B07C0
:106EF00051D46369DB43BB4252D3B84604F1100A54
:106F00006669B8F1000F00F09180A0684379C6F37C
:106F1000080513EA56260ED16DB92169002946D01D
:106F2000524600F088FC00283ADB04D12046FFF7E7
:106F30004EFD002834D02169A06800F076FC31189D
:106F4000A06815B9B8F5007F3FD2C5F50076464573
:106F500028BF4646002D36D16269E3699A4234BFA4
:106F600001220522243000F03DFCC8B128443246FD
:106F70004946354407F0F9F9B5F5007F04D1A0681A
:106F8000243000F007FC58B1636933446361B144B5
:106F9000A8EB0608B4E7C169FFF757FE0028A8D19F
:106FA000637843F0010363704FF0FF3050E0236AD1
:106FB0003BB92046FFF70BFD0028F1D0236923627F
:106FC000B9E72361B7E70122CCE7B8F5806FC26A61
:106FD0001BD390F804C0ACEB0606F3B24FEA582E70
:106FE000734528BF734691424FEA432607D31A449C
:106FF0008A4282BF4FF0FF3280F82450C262A568F7
:107000004A46286800F0D1FFBDE7914202BF4FF029
:10701000FF3380F82450C362A3684A46186800F022
:107020004EFF0028BCD04FF40076ADE7E269A378AC
:10703000B24204D2E66143F00403A37003E0084ABD
:107040001268002AF7D194F90230002B02DB38468F
:10705000BDE8F0872046FFF7A5FE0028F7D19FE79F
:1070600038E60320042904D800EB4100B0F8010001
:1070700070470A299BBF01F1FF3100EB410001314C
:10708000C08884BF00EB410080887047411E00F13A
:107090000A030020420842EAC01011F8012F52FAF8
:1070A00080F08B42C0B2F5D1704738B5CB6804464A
:1070B0000D4623B9BDE838408968FFF7E0BC2422BB
:1070C000002107F07AF9102301202370A070AB682B
:1070D000A360EB68236238BD2DE9F047064610F83F
:1070E000013B202BFAD06A4D8E600024335DC3B182
:1070F0002F2B16D05C2B02D10020BDE8F087A3F126
:107100002200C0B21D2803D825FA00F0C007F3D42E
:1071100003F0BF003C28EFD0203B5E2BECD80134BD
:10712000E4E733191846074610F8015B202DFAD022
:107130002F2DF8D017604CB113F8012D2E2A01D055
:10714000202A01D1013CF6E7FF2CD5DC4FF020339B
:10715000C1F811304C60C1F80D304B614FF00008A0
:1071600016F808302E2B01D0202B02D108F101088F
:10717000F6E7B8FA88F04009651E6B1C02D0735D13
:107180002E2B14D14FF0000907274A46CA464FF06C
:10719000080EA04568DA16F80830202B03D02E2BF5
:1071A00007D1A84512D0002008F10108F1E7013D00
:1071B000E3E7222B08D07C2B06D0A3F12A0CBCF1EC
:1071C000050F0AD82D2B12D0A8455BD10A2F4AD023
:1071D0000A2708224FF0100EE6E7A3F13A0CBCF1A3
:1071E000050FF1D9A3F15B0CBCF1020FECD9A3F1AF
:1071F000210CBCF15D0FE7D8A845E7D0BA4230D8E2
:10720000A3F1610CBCF1190F1AD8203B4EEA090911
:10721000DBB25FFA89F902F1010C5FFA8CFC0A44D7
:10722000BCF1060F537301D881F80CC06246BBE76E
:10723000A84518DCA8460A2708224FF0100EB2E72E
:10724000A3F1410CBCF1190F98BF4EEA0A0AE2E71C
:107250000B7B0120087019447E234B7331238B7301
:107260004BE70A2FE4D100204B7B202B3FF444AFA7
:107270000028EDD01AEA090F18BF4FF0020981F873
:1072800000903AE7BA42ECD800205F23C3E700BF82
:10729000010100312DE9F0418AB000230193037808
:1072A000190704460AD583789A0707D5016A39B9C0
:1072B00001212046FFF7D4FB054638B9002048E0FD
:1072C000806800F058FB0028F2D1F7E7FFF7DEFEF8
:1072D000E5272F70002306462370A068FFF76AFB9E
:1072E0000028EBD0E378002B33D0214601A8FFF72C
:1072F000DCFE0028E2D00125E3785FFA85F84345FB
:10730000DCD3A188491B490101A8FFF79EFC002896
:10731000D4D0002101A8FFF779FC0028CED0C37A91
:107320000F2BCBD1027802F01F034345C6D1437B1C
:10733000B342C3D10770A16891F8243043F0010330
:1073400081F82430530605F10105D5D5A068FFF773
:1073500031FB0AB0BDE8F0812DE9F84391F80C90BB
:1073600006460C4602257E2701F10D086168A268D9
:107370006B189BB21144914206D012F8010B03EB3B
:10738000431343409BB2F6E7B9F1030F28BF4FF018
:10739000030909F10402D2B203F00F01A018013A67
:1073A0000929D2B294BF30313731914541734FEA48
:1073B0001313F1D104EB090300215F733046FFF78B
:1073C00044FC01213046FFF721FC014628B97078C2
:1073D000B0FA80F04009BDE8F88303786BB1C37A56
:1073E0001B07EED40B22404606F0AFFF0028E8D181
:1073F0000135ADB2642DB9D1EDE70120EBE7000016
:107400002DE9F04F2DED028B8BB00D4606930B78D6
:10741000079013F0700F174605D100200BB0BDEC9C
:10742000028BBDE8F08F079B1B78002BF5D15368CA
:10743000059313789C071FBF059B0C330D22B3FBEC
:10744000F2F31ABF0133DBB2012300212846039374
:10745000FFF7FBFB07F10D034FF0000B08EE103AAE
:10746000DA465C465E46CDF810B0D9466B6901211C
:107470002846C3F34F18FFF7C9FB0346002871D114
:107480006B78002BC9D1069B9A05C6D503F0030380
:10749000013B012BC1D8049B002C08BF4346049339
:1074A000039B9C42C0F0F180B9F1000F40F00A81CB
:1074B000049B28465901FFF7C8FB0028ADD0039B69
:1074C00003F1FF395FFA89F94E464FF0000A4FF099
:1074D0000F08002E00F00D8100212846FFF796FBD3
:1074E0000446002899D0AA6892F824304E4543F00B
:1074F00001030CBF46F0400BB34682F8243080F8FD
:1075000000B080F80B8080F80CA007F10D00FFF7A9
:10751000BDFD84F81AA0607384F81BA00BF01F0354
:107520000D22013BD7F808C0534300220599994228
:1075300040F2D0801CF80310042A5FFA82FE02F1A8
:10754000010000F2CD8004EB4202A2F801100D28E8
:1075500003F101030246E9D1013EF6B2B9E74FF06B
:10756000010983E70278E52A00D07AB90499002C52
:1075700008BF4146049103998C423CBF0134E4B2F8
:10758000002A80D0E52A05D100266FE703998C42B6
:1075900038BF00242E2AF7D0D97A0F294AD116BB3A
:1075A00012F040063FF462AF02F01F0693F80DB0F0
:1075B000B2460D220AF1FF3802FB08F8059A42454F
:1075C000E2D9A2EB08020892002202EB080109911D
:1075D0001846D1B2FFF746FD08998A420DD100281E
:1075E00018BF002642E70AF1FF3A5FFA8AFA5245CD
:1075F000CAD15A7B5A45DCD0C6E7FF28C4D85FFA07
:1076000080FEAEF141011929B9689CBF0EF120003E
:107610005FFA80FE08460999415CA1F1410CBCF17A
:10762000190F9CBF2031C9B27145ADD101320D2A6D
:10763000CBD11BE70807A7D45EB1BAF1010F7FF4E5
:10764000ECAE1846FFF722FD58457FF4E6AEB14692
:107650000EE018EE101A0B22184606F076FE0028EF
:107660007FF404AF97F8009019F001097FF477AF29
:10767000069B19053FF5D1AE069B0798CDF8009003
:1076800042462946FFF724FBC8E600212846FFF7BB
:10769000BDFAA0B96B78002B7FF4BFAE2846FFF788
:1076A000A1F900283FF4B9AEAB681B79012B3FF676
:1076B000FBAE039B1034E4B2A342EFD8F4E60134EE
:1076C000E4B2EDE639462846FFF746FE00287FF48F
:1076D000EFAEA2E614BF4FF0FF31002189B22BE7D5
:1076E000BEF10A0F94BF04EB420204EB400291800A
:1076F0002DE731462846D5F81480FFF787FA04466F
:1077000000283FF48AAE2022314606F056FED7F814
:107710000D302360D7F811306360B7F8153023813E
:10772000FB7DA3723B7803F0180323730F4B1B6898
:107730009BB104F10E0104F110009847238A638283
:107740002383E389E382AA6892F8243043F001039B
:10775000C8F34F1882F824308EE72123237428239E
:1077600063740823A673E373E8E700BF38E60320D9
:1077700013B50446084659B1019106F0D2FE2368BC
:107780000199DB680246204602B0BDE81040184768
:1077900002B010BD37B50378DA07044620D5436838
:1077A000816800F10C021868019200F088FB019AD0
:1077B000054618B90025284603B030BD23789B073D
:1077C00004D4237823F001032370F4E7D4E90130D3
:1077D00019690144186800F072FB0028F1D1E9E74B
:1077E0000125E8E770B583688B4204460E461546CE
:1077F00009D0FFF7CFFF08B9002070BD6B070AD58D
:1078000000232370A660227805F003052046154367
:1078100000F80C5BF1E7636804F10C02186831466C
:1078200000F0C4FA0028EBD1E6E783794069023919
:10783000994008447047012970B505460C46164624
:1078400002D84FF0FF3070BDC3698B42F9D3C379C2
:10785000202B16D18169022201EBD41100F50C70A6
:10786000FFF7C0FF0028ECD004F07F0450F824306C
:1078700023F07043EA699A4226BF3360012000205A
:10788000E1E7102BDDD1C1F30723816902221944FE
:1078900000F50C70FFF7A6FF0028D2D0E4B230F854
:1078A0001430E7E7012938B50C46154601D8002009
:1078B00038BDC3698B42FAD3C379202B0FD18169BC
:1078C000032201EBD41100F50C70FFF78BFF0028A9
:1078D000EDD004F07F0440F824500120E8E7102B9D
:1078E000E5D1C1F3072381690322194400F50C7027
:1078F000FFF778FF0028DAD0E4B220F81450ECE764
:107900002DE9F341C4688C4205460E46904601D3EA
:10791000012701E00C460027EB690134A34202D2A3
:10792000C7B9EC68F4E7A64214D001AA214628465C
:10793000FFF781FF00280DDBEED0019B002BEBD180
:1079400007B1EC606FF0704221462846FFF7AAFFAE
:10795000074620B90027384602B0BDE8F08116B9C5
:10796000C8F80040F7E7224631462846FFF79AFF5D
:107970000028F5D1EEE773B505460C4601AA21466D
:107980002846FFF758FF061E10DB00222146284636
:10799000FFF788FF50B1EB68A34224BF04F1FF3426
:1079A000EC60019C002EE9D102B070BD0020FBE725
:1079B000012370B50022C3604FF0FF330446C2714B
:1079C00000F12406806280F82420C362C0F83402EB
:1079D00080F83022C0F838320D46B9B1042901D9F7
:1079E000002070BD11463046FFF7FCFE0028F7D09E
:1079F00000EB051393F8AE315B06F1D105F11B01E5
:107A000000EB0110D0F80650002DE9D000222946E5
:107A10003046FFF7E7FE0028E2D0B0F80B30B3F5B0
:107A2000007FDDD1037C022BDAD1C389002BD7D0B4
:107A3000417B21714B1E63710023A3710926012331
:107A4000994207D0013ECBD0A2795B000132DBB274
:107A5000A271F5E7C18A01B9416A2161C3892B444A
:107A6000A361B0F81120228103EB41032362B0F837
:107A70001110490101F2FF1103EB51236361B0F8CA
:107A8000132002B9026AE91AA3791144D9404B1CA8
:107A9000E36140F6F473994202D80C23E3719FE747
:107AA0004FF6F473994285BFC36A236210232023E3
:107AB000E371012095E700F0CBBA00F0AEBA000008
:107AC00070B50E4E0D46144601F07EFC3368C01AA8
:107AD0000B4B984208D901F07FFC0A4B186001F06B
:107AE00067FE01F071FC306001F076FC80B2401B53
:107AF000A042D4BF0020012070BD00BF40E603209B
:107B0000A086010028E7032038B5057A04464DB960
:107B1000406800F06BFA63682946187D05F097FC11
:107B20000123237238BD10B5037A04466BB1436854
:107B30000121187D05F08BFC6068FF21FFF7BBFF7A
:107B4000606800F067FA0023237210BDF8B50446A0
:107B50000D46164601F040FC87B26068FFF7ADFFA6
:107B6000FF2860720ED14FF47A7239462046FFF733
:107B7000A7FF0028F1D0552320462370FFF7D3FF3D
:107B80000020F8BDFE2801D05023F5E7606832469A
:107B9000294600F047FA607208B16023ECE760689C
:107BA000FFF78BFF6068FFF788FF0120E9E770B5FA
:107BB00004460E4601F010FC85B2324629462046A6
:107BC000FFF77EFF30B96068FFF777FFFF28F4D139
:107BD000012070BD0020FCE7F7B5037A019204464E
:107BE0000D460BB9FFF790FF25B14FF49671204673
:107BF000FFF7DDFF606845F04001FFF75CFF0326FB
:107C000001AFB95D6068FFF756FF013EF9D2002D64
:107C100060680CBF95218721FFF74DFF6068FFF773
:107C20004CFF0B256068FFF748FF0306607203D521
:107C3000013D15F0FF05F5D103B0F0BD70B5044668
:107C40000D46164637210022FFF7C6FF3246294669
:107C50002046BDE87040FFF7BFBF00002DE9F041AE
:107C600000250572057085724160044690461E46E7
:107C700001F0B2FB41460746606800F0BBF963685B
:107C8000494A1D720125DA601D822046FFF73CFF3C
:107C900063682946187D05F0DAFB0A256068FF2134
:107CA000013DFFF708FF15F0FF05F7D1636829468E
:107CB000187D05F0CCFB0A25002211462046FFF76F
:107CC0008BFF0128804618D0013D15F0FF0507D134
:107CD000202320462370FFF726FF0020BDE8F08117
:107CE0006068FD21FFF7E7FE4FF402786068FFF758
:107CF000E4FEB8F10108F9D1DEE74FF4D5720821AE
:107D00002046FFF769FF052814D184F80A80002572
:107D1000BFB22A4629212046FFF790FF0246D8B17C
:107D20004FF4FA6239462046FFF7CAFE0028F0D029
:107D30004323CEE704256068FFF7BFFE013D15F041
:107D4000FF056072F7D1AA2804D10223A3724FF075
:107D50008045DDE72523BCE7A37A022B18D13A2121
:107D60002046FFF739FF08B13723B2E76068FFF715
:107D7000A4FE00F0C000C02804BF0323A372606803
:107D8000FFF79BFE6068FFF798FE6068FFF795FEBF
:107D90002046FFF7C8FE63683079B168B2891A825D
:107DA0001872D960012099E790D0030038B5837A22
:107DB000032B18BF490215460A4611210446FFF756
:107DC0000BFF30B1302323702046FFF7ACFE0025B7
:107DD0000BE029464FF400722046FFF7B7FE054638
:107DE0000028F1D02046FFF79EFE284638BD10B58A
:107DF000837A032B0A4618BF4A0212210446FFF772
:107E0000EBFE30B1312320462370FFF78CFE0020BB
:107E100010BD0120FCE710B500220C210446FFF73D
:107E2000DBFE30B1282320462370FFF77CFE0020C4
:107E300010BD2046FFF777FE0120F9E7F8B50446AC
:107E400016461F46FFF7D3FF68B10025ABB29F422D
:107E500006EB452109D94FF400722046FFF776FE64
:107E600001350028F2D10020F8BD2046BDE8F840D9
:107E7000FFF7D1BF38B5044615464068FFF71BFE33
:107E80004FF400726068294600F0E6F86068FF2150
:107E9000FFF711FE6068FF21FFF70DFE6068FFF736
:107EA0000CFE607200F01F00052806D05723204604
:107EB0002370FFF738FE002038BD0120FCE770B5C5
:107EC000837A032B18BF490215460A461821044637
:107ED000FFF782FE064630B1322323702046FFF7BB
:107EE00022FE00251FE02A46FE212046FFF7C2FFA2
:107EF0000028F3D04FF4FA612046FFF758FE0546FC
:107F000008B95A23E9E732460D212046FFF764FEFF
:107F100008B12923E1E76068FFF7CFFD0028F8D119
:107F20002046FFF700FE284670BD13B501914FF4BF
:107F3000FA610446FFF73BFE019A30B95B232370D8
:107F40002046FFF7F0FD002005E0FC212046FFF76A
:107F500091FF0028F4D002B010BD10B5837A032B36
:107F60000A4618BF4A0219210446FFF735FE30B110
:107F7000332320462370FFF7D6FD002010BD0120DB
:107F8000FCE738B54FF4FA610446FFF710FE0546EA
:107F900030B9562323702046FFF7C5FD284638BD6B
:107FA0006068FD21FFF787FDF5E7F8B50446164642
:107FB0001F46FFF7D2FF70B10025BD4206EB4521F9
:107FC000204604D0FFF7B1FF28B10135F5E7BDE841
:107FD000F840FFF7D6BF2046FFF7A5FD0020F8BD0B
:107FE000014B01221A70704744E60320011D00680E
:107FF00004F0D0BD10B504460175006804F09CFD86
:10800000207D012105F012FA207D0121BDE81040FC
:1080100005F01DBA006804F0A3BD0068FF2104F05C
:1080200027BE000037B51346074A00920025074CCB
:10803000006825700A46294604F020FE2378002BAC
:10804000FCD0002003B030BDE17F0B0044E60320EC
:10805000006804F00DBE000037B51346064A0092D2
:108060000025064C006825702A4604F007FE237898
:10807000002BFCD003B030BDE17F0B0044E60320B1
:108080002DE9F04F85B01F46BDF93880BDF83C3072
:10809000A8EB0209A7EB010AB9F1000FB8BFC9F1BB
:1080A0000009BAF1000FB8BFCAF1000AD1458346F2
:1080B0000C46154604DD3A462C4647460D4690468A
:1080C000BC4205DD2A464546904622463C461746B8
:1080D0003E1BB2B20092A8EB050282EAE271A1EB6C
:1080E000E271C6F3C03202FA86F64545B4BF0122FA
:1080F0004FF0FF32019176100292BC421CDCDBF89B
:1081000000200393D145D2F81880C7BF29462246E4
:108110002A4621465846C047019A039BB61AB1B277
:1081200036B2002E05DA029A1544009A56182DB27E
:1081300036B2013424B2E0E705B0BDE8F08F7047F5
:1081400010B404682469A4465DF8044B604730B459
:108150000468BDF808500295A46BA44630BC604783
:1081600030B40468BDF808500295E46BA44630BCF6
:10817000604770B4BDF90C50BDF810600468CDE9DB
:108180000356246CA44670BC60472DE9F3411C469D
:108190000368BDF820805B6905461646013C3444FF
:1081A0000F4624B298472B68CDF8048000949C6A4F
:1081B00028463B4632463946A0472B68DB6A2846AC
:1081C00002B0BDE8F04118472DE9F3411D460368B0
:1081D000BDF820805B69044617460E469847CDE9F6
:1081E000007822686B1E3344956A20461BB23A46DB
:1081F0003146A8472368DB6A204602B0BDE8F0415B
:1082000018472DE9F3471E460368BDF928905B69BE
:10821000BDF82C800C460546174698472644B442C4
:108220002B680BDACDF80080D3F820A021464B460E
:108230003A4628460134D04724B2F0E7DB6A2846A4
:1082400002B0BDE8F047184713B502680191B0F9D4
:108250000E100091146CB0F90C3000221146A047AA
:1082600002B010BD2DE9F74399421646BDF92870BA
:10827000BDF82C90026880460D461C4613D1BE42C4
:10828000C8BF3346CDF82890C4BF3E461F467B1C6E
:10829000946B9B1B1BB2324629464046A44603B052
:1082A000BDE8F0436047BE420AD19942C2BF0B46C7
:1082B00025461C46631CCDF82890D46B5B1BE9E770
:1082C00053699847CDE90079D8F8003040469F6A55
:1082D000324623462946B847D8F80030DB6A404684
:1082E00003B0BDE8F04318472DE9F3471D46036886
:1082F000BDF82C805B69BDF9289004460F461646F0
:1083000098472368CDF80080D3F824A032462B4646
:1083100039462046D0472368CDF8008009F1FF3266
:108320003244D3F824A039462B46204612B2D04717
:108330002368CDF80080D3F820A032464B4639465A
:108340002046D0476B1ED9192368CDF800801D6ADE
:1083500020464B46324609B2A8472368DB6A2046CE
:1083600002B0BDE8F0471847704701F00303B0F9C9
:108370000A208376C907B0F9083059BF8381C281CA
:108380008281C3817047000030B54281C281074AB3
:10839000074D0181002481814FF0FF31C0E90512B2
:1083A0004460056004610477046230BD010100018E
:1083B00094110C002DE9F04F89B0CDE9021202684A
:1083C000BDF948800493BDF94C3052690593BDF85E
:1083D00050A00446904718F107024FF0000648BF2E
:1083E00008F10E024FEAE20B01963546039B019A13
:1083F000BDF904109A18059B8B4212B227DD049B2D
:1084000033444FF0000906930FFA89F080451FFAB4
:1084100089F117DD4F0705BF069BC0106D001D5C7D
:1084200018BFEDB22B060AD5029B206807921944AB
:10843000836909B21F4620465346B847079A09F197
:108440000109E1E7019B013301935E44CEE7236814
:10845000DB6A204609B0BDE8F04F18472DE9F04F20
:108460002DED028B91B01646026ABDF874809DF81E
:1084700078509DF87C4003911F46BDF870300493FE
:108480008346002A40F0C580B0F90C308B4240F39F
:108490004C81B0F90E30B34240F34781062313FB01
:1084A0000513002B40F3418106EBC403002B40F37E
:1084B0003C81037F1BB9AF2F84BF0137FFB2DBF8CC
:1084C000003058465B6998470522099200220592C0
:1084D000984A07EB8703D3180C93B3B20693059A17
:1084E0000C9B9B5C0793ABB20B93BDF80C300893CD
:1084F000039B02FB05F919FA83F90FFA89F308EED9
:10850000103A08230A93039B02EB030A4FF0000979
:108510000FFA8AFA079ADBF80030D20752D5012DFC
:108520001FFA89F23ED1012C3CD19B6906991F4666
:10853000049B0A4412B251465846B84709F1010358
:108540004FFA83F9079B5B0807930A9B013B13F0E3
:10855000FF030A93DED1059F01377BB20593099B88
:10856000013B13F0FF030993B9D1049B43450FD09E
:10857000012DDBF800303BD1012C39D10899CDF821
:10858000008005311C6A3246082309B25846A047CC
:10859000DBF80030DB6A584611B0BDEC028BBDE859
:1085A000F04F1847069914FB02F20A44049901910E
:1085B0000094DB6918EE101A1F4612B22B4658467B
:1085C000B847BBE7049A4245B8D0012D1FFA89F29B
:1085D00007D1012C05D19B6906991F460A444346E1
:1085E000A8E70699CDF8048014FB02F20A44DFE7FD
:1085F0000B9ACDF8048002EB8201089AE4000A4449
:1086000011460094DC6932462B4609B25846A04711
:10861000BEE7137A516812680B92FF1AFFB201EBA2
:10862000C70331F8372006929A780992DA780C92CB
:10863000012D93F9052093F906A00A9201D8012C87
:1086400057D9BDF9283008930FFA8AF30793DBF85E
:10865000003058465B699847B3B24FF000080E935C
:108660001AFA86F3C14647460F930C9B9F428FD25E
:10867000079B0E9A3B4403FB0423002205920F9AAA
:108680001BB202EB070A08EE103A0FFA8AFA4346C9
:10869000099A0599914241D25A1CD2B25B070D92B8
:1086A00007D1069B06990B9A01339BB212F80190F1
:1086B000069319F0800F12D0012DDBF80030BDF8C1
:1086C0000C101AD1012C18D10A9A9B691144059AF1
:1086D00011441E465246049B09B25846B047059EB7
:1086E0000136F3B24FEA490905935FFA89F90D9B08
:1086F000CEE70023CDE90733A9E70598089A02449D
:1087000002FB0511049ACDE90042DB6918EE102A3C
:108710001E4609B22B465846B047E0E7099B013791
:1087200098445FFA88F8FFB29FE711B0BDEC028B66
:10873000BDE8F08F8C0C0C00F0B5026A85B00446E1
:108740000B46002A34D10A2908D1438A0282427E8C
:1087500003EBC2036382012005B0F0BD0D29FAD0FE
:10876000E17E007E657E71B1B4F91060062111FBD7
:108770000061B4F90C60B142C1BFB4F91210228299
:1087800001EBC5026282E28A0192A28A0092CDE9DF
:108790000205B4F91220B4F910102046FFF75EFE6E
:1087A000237E228A03EB430302EB43032382D2E7B7
:1087B0000A2907D100230382417E927A438A01FB72
:1087C0000233C7E70D29C6D0157AA942C3D3517A1F
:1087D0009942C0D351685D1BEDB201EBC505A87885
:1087E00028B3E97819B3E17E267E677E91B195F9C9
:1087F00005100844B4F9101006FB0011B4F90C0080
:10880000814207DD00202082B4F91210927A02FB27
:1088100007126282E28A0192A28A0092CDE902677F
:10882000B4F91220B4F910102046FFF717FE297989
:10883000227E238A01FB0233B8E7012938BF0121D8
:108840000176417670474260002202722022017058
:10885000C260704710B5037A044653B1217860684E
:1088600003F05EFF606803F063FFB0FA80F0400938
:1088700010BD012100F003F80028EFD1F8E738B56A
:10888000044640680D4603F045FF0120207225B1E3
:108890002046BDE83840FFF7DDBF38BD2DE9F8437D
:1088A000DDE908961F46C368154632449A420446DD
:1088B000884602D90020BDE8F8830178406803F0BB
:1088C0002FFF7EB9606803682A46DB6841469847F7
:1088D0008542EFD16068394603F026FFB0FA80F098
:1088E0004009E8E7B9F1000FECD060680368324650
:1088F000DB68494698478642DCD1E3E708B5406823
:1089000003F004FF012008BD10B50446406810B113
:1089100003689B689847204610BD38B5044690F917
:108920000E00012180B204F081FD94F90E000121B6
:1089300080B204F08CFD256835B1284604F0FCF8BF
:10894000012084F8340038BD94F90F00012180B271
:1089500004F06CFD637B94F90F00012B94BF294652
:10896000012180B204F073FD94F91000421C09D07B
:10897000012180B204F05AFD94F91000012180B267
:1089800004F065FD94F91100431CD9D0002180B298
:1089900004F04CFDD4E700002DE9F04F04460068D8
:1089A00085B00D4640B10023009313460A4604F0FB
:1089B00065F905B0BDE8F08F237BA068484FB7FB91
:1089C000F0F7002B0B780CBF4FF0010B4FF0800B32
:1089D0001BEA030F01EB02030CBF4FF001094FF03C
:1089E0000009FFB20393039BAB42E2D095F800A0CD
:1089F0005E464FF0000817B1384600F0DDFC637B9F
:108A000013F0FD0F41D194F910305A1C0FD01AEA1F
:108A1000060114BF012300234B4508D06369606A37
:108A20001A6800292CD002431A604FF00109A1698D
:108A3000E36A0A6813430B6017B1384600F0BCFCC8
:108A400094F91130013306D0E3691A68A36A1A4217
:108A500018BF46EA0808A169E36A0A6822EA030324
:108A60000B6094F91130013318BF85F80080237B27
:108A7000002B32D17600F6B2002EBCD10135B2E720
:108A800022EA00021A608946D1E7A169E36A0A680E
:108A900013430B6017B1384600F08EFC94F9103088
:108AA000013308D06369616A1A681AEA060F14BFB5
:108AB0000A438A431A60A169E36A0A6822EA030347
:108AC0000B6094F911300133CBD0E3691A68A36AC3
:108AD0001A4218BF46EA0808C3E77608CCE700BF89
:108AE00020A1070007B501228DF807100DF107013D
:108AF000FFF752FF9DF8070003B05DF804FB2DE976
:108B0000F041044600680E4617461D4610B16168E4
:108B100004F040F894F90E00002180B204F097FCB4
:108B2000069B05EB0308454508D13744B7420BD0F7
:108B300016F8011B2046FFF7D5FFF7E715F8011BD4
:108B40002046FFF7CFFFEEE794F90E00012180B237
:108B500004F07DFC206808B104F002F80120BDE8B3
:108B6000F0810029F0B566DBB0F90C408C4262DD83
:108B7000002A60DBB0F90E4094425CDD847E022C5A
:108B80005AD0032C61D0012C04D10489D24314445F
:108B90000A4621B2B0F938408C42A8BF0C4604877F
:108BA000B0F93A409442A8BF14464487B0F93C401B
:108BB0008C42B8BF0C468487B0F93E409442B8BF9F
:108BC0001446C48790F84C40012C16D1012B42D09A
:108BD000022B51D08BB9002A0589476B1446B8BFC8
:108BE000D41DE41014FB051402F00706012505FA54
:108BF00006F63D5D25EA06053D5590F84C40042CEF
:108C000019D1048914FB02F202EBD27401EBD17288
:108C100042F34F0202EB6402446BA05CC9074BBFF6
:108C200003F00F0300F00F0020F00F0040EA0313E1
:108C300048BF0343A354F0BD0489013C611A448931
:108C4000D243224409B212B2A4E74489013C641A17
:108C5000114622B29EE7002A0589466B1446B8BF2A
:108C6000D41DE41014FB051402F007070125BD40D4
:108C7000375D3D433555C0E7002A0589466B1446EC
:108C8000B8BFD41DE41014FB051402F0070701253A
:108C9000BD40375D7D40EDE738B50D4611460446D1
:108CA0001AB209B2FFF770FB069A0B4BE262079A01
:108CB00023600023C4E90933C4E90C234FF0FF33D8
:108CC000C4E910339DF91430A364049B84F84C501C
:108CD0002365204638BD00BFEC110C0038B50C4BA5
:108CE00003600446406B18B100F0FAFD0023636393
:108CF000656A35B12846FFF707FE38212846FBF79D
:108D0000CEF9A06A10B11021FBF7C9F9204638BD91
:108D1000EC110C0030B587B0856A8DF80F10044651
:108D20007DB10023CAB2CDE900338DF814308DF83F
:108D300015200123022205A92846FFF7AFFD07B041
:108D400030BD2946B0F8400004F081FB606A009510
:108D50002B4601220DF10F01FFF7D1FEEFE70029AD
:108D600014BFA721A621FFF7D5BFF0B5856A85B04E
:108D700004460E46174665B100230DF10F008DF82D
:108D80000F300123009001932846FFF787FD05B0BF
:108D9000F0BD2946B0F8400004F059FB606A009528
:108DA0002B463A463146FFF7AAFEF0E710B5B0F978
:108DB0000A10038990F84C2012FB03F2CB1D48BF28
:108DC00001F10E03DB1004465A43406B002105F00D
:108DD000F4FA0023A3632389013BA3876389013B42
:108DE000E38710BD70B5436B04460E4615460BB3C2
:108DF000002D33D1236D002B50D01020FBF74BF901
:108E0000054618B1226D3146FFF71DFDA5621DB361
:108E100001212846FFF733FDF0B12046FFF7C6FFDA
:108E20000023A3632389013BA3876389013BE38775
:108E3000012012E02389B4F90A2090F84C0010FBBD
:108E400003F0D31D48BF02F10E03DB10584300F0BE
:108E50003FFD60630028CBD1002070BDA06C0028CE
:108E6000C8DB012180B204F0E1FAB4F84800012126
:108E700004F0EDFA0A2000F093FDB4F84800002158
:108E800004F0E5FA0A2000F08BFDB4F84800012157
:108E900004F0DDFA0A2000F083FDABE7606A0028E9
:108EA000DAD0FFF73AFD0028D6D0B4F8400001210F
:108EB00004F0BCFAB1E707B581238DF80510022252
:108EC00001A98DF80430FFF750FF03B05DF804FBF3
:108ED00010B5034B0360044600F058F9204610BD5E
:108EE00028140C0010B50446FFF7F2FF2046582165
:108EF000FBF7D5F8204610BD30B585B004460A9D75
:108F00000295099D01959DF92050009500F024F9E6
:108F1000024B2360204605B030BD00BF28140C0072
:108F200030B5044685B0FFF75DFF2F212046FFF7DF
:108F3000C2FFA2682F4B9A4221D1236801211B6BEB
:108F400020469847B4F90820B4F90A102023203AA3
:108F500073390125CDE9013502EBD272732301EBA0
:108F6000D171009341F34F01234B204642F34F024E
:108F7000FFF720FA236800211B6B20469847A3685F
:108F8000B3F1801F17D1B4F90820B4F90A102023D7
:108F90000120203A7339CDE9013002EBD2727323FC
:108FA00001EBD171009342F34F02134B41F34F0198
:108FB0002046FFF7FFF9114916222046FFF7D5FE9C
:108FC000054618B90025284605B030BDA368B3F1A1
:108FD000801F07D0642000F0E3FCAF212046FFF79C
:108FE00099FEF0E7064904222046FFF7BEFE00285E
:108FF000F0D1E7E74000800040120C0080140C0024
:109000007C140C002DE9F04F04468BB000F07CF985
:10901000B4F90A30B4F93A60B4F9087094F83890A9
:10902000DA1D48BF03F10E0240238DF82330C2F34E
:10903000C7030393A36AB4F93C20DB68FFB2002E98
:1090400003F1FF3322EAE272B8BF0736D2B29BB215
:10905000B945C6F3C70628BFB9460492DBB27A1CED
:1090600006FB079B05920693039B9E426AD2636BA5
:10907000258994F8542003EB0B08059B5D1B049B8A
:109080004A441D44A36A1011A5EB0905A6F150013D
:10909000EDB2C9B2103002F00F029BB34FF0000ADC
:1090A0008DF825108DF82600E16A8DF824A0184669
:1090B0008DF82720FFF722FCCDE900AAA06A012342
:1090C000042209A9FFF7EAFB0DF1230AA06A95B172
:1090D000069BAB4228BF2B461A4601234146CDE9E9
:1090E00000A30792FFF7DAFB079AAD1A9044EDB29E
:1090F00000F00AF9EAE7216BFFF700FC0136F6B24F
:10910000BB44B1E78DF824108DF825001946B4F85A
:1091100040008DF82620079304F099F9079B0093EF
:10912000032209A9606AFFF7EAFCB4F840000121B4
:1091300004F08DF9079B606A00932A464146FFF7C9
:10914000DEFCDBE74FF004224FF0FF33C4E90E23CF
:109150000BB0BDE8F08F000030B585B004460A9D25
:109160000395099D02959DF92050CDE900351346E0
:109170000A460121FFF790FD034B236020460023A0
:1091800084F8543005B030BDA0140C0010B5034B6A
:1091900003600446FFF7A2FD204610BDA0140C009A
:1091A00008B5024B1B689B68019308BD7802030059
:1091B00008B5024B1B681B6C019308BD78020300C5
:1091C00008B5024B1B685B6F019308BD7802030072
:1091D00008B5024B1B689B6F019308BD7802030022
:1091E00008B5024B1B68DB6F019308BD78020300D2
:1091F00008B5034B1B68D3F88430019308BD000009
:109200007802030008B5034B1B68D3F8983001932C
:1092100008BD00007802030008B5034B1B68D3F8B3
:10922000B430019308BD00007802030008B5034B79
:109230001B68D3F8BC30019308BD0000780203001E
:1092400008B5034B1B68D3F8C430019308BD000078
:109250007802030008B5034B1B68D3F8D83001939C
:1092600008BD00007802030008B5034B1B68D3F863
:10927000DC30019308BD00007802030008B5034B01
:109280001B68D3F8E030019308BD000078020300AA
:1092900008B5034B1B68D3F8E430019308BD000008
:1092A0007802030008B5034B1B68D3F8E83001933C
:1092B00008BD00007802030008B5034B1B68D3F813
:1092C000F030019308BD00007802030008B5034B9D
:1092D0001B68D3F8F430019308BD00007802030046
:1092E00008B5034B1B68D3F80031019308BD00009B
:1092F0007802030008B5034B1B68D3F804310193CF
:1093000008BD00007802030008B5024B1B68DB684B
:10931000019308BD4802030008B5024B1B68DB69D6
:10932000019308BD4802030008B5024B1B681B6A85
:10933000019308BD4802030008B5024B1B685B6A35
:10934000019308BD4802030008B5024B1B689B6AE5
:10935000019308BD4802030008B5024B1B68DB6A95
:10936000019308BD4802030008B5024B1B685B6C03
:10937000019308BD4802030008B5024B1B68DB6C73
:10938000019308BD4802030008B5024B1B685B6DE2
:10939000019308BD4802030008B5024B1B681B6F10
:1093A000019308BD4802030008B5024B1B685B68C7
:1093B000019308BD1802030008B5024B1B68DB6867
:1093C000019308BD1802030008B5024B1B681B6916
:1093D000019308BD1802030008B5024B1B685B69C6
:1093E000019308BD1802030008B5024B1B689B6D72
:1093F000019308BD1802030008B5024B1B685B6EA1
:10940000019308BD1802030008B5024B1B685B6896
:10941000019308BD2C02030008B5024B1B689B6832
:10942000019308BD2C02030008B5024B1B68DB68E2
:10943000019308BD2C02030008B5024B1B681B6991
:10944000019308BD2C02030008B5024B1B685B6941
:10945000019308BD2C02030008B5024B1B689B69F1
:10946000019308BD2C02030008B5024B1B68DB69A1
:10947000019308BD2C02030008B5024B1B681B6B4F
:10948000019308BD2C02030008B5024B1B681B6842
:10949000019308BD2802030008B5024B1B68DB6876
:1094A000019308BD2802030008B5024B1B689B69A5
:1094B000019308BD2802030008B5024B1B68DB6955
:1094C000019308BD2802030008B5024B1B681B6A04
:1094D000019308BD2802030008B5024B1B685B6AB4
:1094E000019308BD2802030008B5024B1B689B6A64
:1094F000019308BD2802030008B5024B1B68DB6A14
:10950000019308BD2802030008B5024B1B681B6BC2
:10951000019308BD2802030008B5024B1B685B6B72
:10952000019308BD2802030008B5024B1B681B6CA1
:10953000019308BD2802030008B5024B1B685B6954
:10954000019308BD6402030008B5024B1B689B68C9
:10955000019308BD6802030008B5024B1B68DB6875
:10956000019308BD6802030008B5024B1B681B6825
:10957000019308BD3002030008B5024B1B685B690C
:10958000019308BD3002030008B5024B1B68DB697C
:10959000019308BD3002030008B5024B1B681B6A2B
:1095A000019308BD3002030008B5024B1B685B6ADB
:1095B000019308BD3002030008B5024B1B689B6A8B
:1095C000019308BD3002030008B5024B1B689B6B7A
:1095D000019308BD3002030008B5024B1B68DB6B2A
:1095E000019308BD3002030008B5024B1B681B6CD9
:1095F000019308BD3002030008B5024B1B685B6C89
:10960000019308BD3002030008B5024B1B68DB68FC
:10961000019308BD3C02030008B5024B1B681B699F
:10962000019308BD3C02030008B5024B1B685B694F
:10963000019308BD3C02030008B5024B1B689B69FF
:10964000019308BD3C02030008B5024B1B68DB69AF
:10965000019308BD3C02030008B5024B1B681B6A5E
:10966000019308BD3C02030008B5024B1B689B6ACE
:10967000019308BD3C02030008B5024B1B68DB6A7E
:10968000019308BD3C02030008B5024B1B681B6C2C
:10969000019308BD3C02030008B5024B1B681B6820
:1096A000019308BD4C02030008B5024B1B685B68C0
:1096B000019308BD4C02030008B5024B1B681B69EF
:1096C000019308BD4C02030008B5024B1B685B699F
:1096D000019308BD4C02030008B5024B1B689B694F
:1096E000019308BD4C02030008B5024B1B68DB69FF
:1096F000019308BD4C02030008B5024B1B681B6AAE
:10970000019308BD4C02030008B5024B1B685B6B5C
:10971000019308BD6002030008B5024B1B681B6D76
:10972000019308BD6002030008B5024B1B681B686B
:10973000019308BD2002030008B5024B1B685B685B
:10974000019308BD2002030008B5024B1B685B694A
:10975000019308BD2002030008B5024B1B68DB6CB7
:10976000019308BD2002030008B5024B1B685B6D26
:10977000019308BD2002030008B5024B1B689B6DD6
:10978000019308BD2002030008B5034B1B68D3F802
:109790008830019308BD00002002030008B5034B88
:1097A0001B68D3F89430019308BD00002002030029
:1097B00008B5024B1B689B68019308BD4402030077
:1097C00008B5024B1B685B69019308BD44020300A6
:1097D00008B5024B1B681B6A019308BD44020300D5
:1097E00008B5024B1B685B6A019308BD4402030085
:1097F00008B5024B1B681B6B019308BD44020300B4
:1098000008B5024B1B68DB6B019308BD44020300E3
:1098100008B5024B1B685B68019308BD400203005A
:1098200008B5024B1B689B68019308BD400203000A
:1098300008B5024B1B68DB68019308BD40020300BA
:1098400008B5024B1B681B69019308BD4002030069
:1098500008B5024B1B685B69019308BD4002030019
:1098600008B5024B1B689B69019308BD40020300C9
:1098700008B5024B1B68DB69019308BD4002030079
:1098800008B5024B1B681B6A019308BD4002030028
:1098900008B5024B1B681B6B019308BD4002030017
:1098A00008B5024B1B685B6B019308BD40020300C7
:1098B00008B5024B1B681B6C019308BD40020300F6
:1098C00008B5024B1B685B6C019308BD40020300A6
:1098D00008B5024B1B681B68019308BD1C020300FE
:1098E00008B5024B1B685B68019308BD1C020300AE
:1098F00008B5024B1B689B68019308BD1C0203005E
:1099000008B5024B1B68DB68019308BD1C0203000D
:1099100008B5024B1B685B69019308BD1C0203007C
:1099200008B5024B1B68DB69019308BD1C020300EC
:1099300008B5024B1B685B6A019308BD1C0203005B
:1099400008B5024B1B68DB6A019308BD1C020300CB
:1099500008B5024B1B681B6B019308BD1C0203007A
:1099600008B5024B1B68DB6B019308BD1C020300AA
:1099700008B5024B1B681B6C019308BD1C02030059
:1099800008B5024B1B685B6C019308BD1C02030009
:1099900008B5024B1B68DB6C019308BD1C02030079
:1099A0000021FFF7D1BE10B5836804460BB903F060
:1099B00034FEC3689847A3681BB1032221462046A2
:1099C000984720461021BDE81040FAF768BB704761
:1099D0007047704770470000064B994210B500F180
:1099E0000C0405D0084603F01BFE002808BF002425
:1099F000204610BD64170C00064B994210B500F1CB
:109A00000C0405D0084603F00BFE002808BF002414
:109A1000204610BD64170C00064B994210B500F1AA
:109A20000C0405D0084603F0FBFD002808BF002405
:109A3000204610BD64170C0010B568210446FAF7E3
:109A40002EFB204610BD10B528210446FAF727FB4F
:109A5000204610BD10B530210446FAF720FB204601
:109A600010BD6821FAF71BBB2821FAF718BB30217B
:109A7000FAF715BBF0B50025EC1C8C420DD86E1C16
:109A8000445D875D974205D12644B14205D31D60F0
:109A9000601CF0BD01342544EEE70020F9E700002A
:109AA000024A03490A20FFF72FBE00BFB9930B00FB
:109AB000F4140C0030B40D4611461A4603680968C8
:109AC0002868D3E90043A44630BC6047012A38B572
:109AD000044602D10B68236003E0022A03D0032A64
