:02000002B0004C
:1040000000400B0030200C000000060017000502E5
:084010000401A30F00000000F1
:04401800B4010C00E3
:1040200009480A49884208B505D0094A824202D0A7
:10403000121A0AF004F80748074A0021121A0AF077
:1040400026F8014808BD00BF88DA0320281E0C00AE
:1040500068DC032068DC0320EDE7032070B5074E21
:10406000074C08F0F7FFA41BA4080025AC4200D1C0
:1040700070BD56F8043B98470135F7E7DC1D0C008E
:10408000001E0C0001F01ABD08B502F0CBF9BDE826
:10409000084008F097BF05F09BBA05F099BA05F003
:1040A0009FBA000008B5034A03490C2005F0ACF99B
:1040B000FEE700BFD9900B00C8010C000078B0FAF1
:1040C00080F0400970470123037070477047037CFC
:1040D00013F008031EBFC36A406A1B1A002BACBF53
:1040E00018466FF000407047014B01221A7070476C
:1040F000DCDE0320704710B510210446FFF7CFFF28
:10410000204610BD10B534210446FFF7C8FF2046F5
:1041100010BD103002F064BC103002F082BB07B555
:1041200001220DF10701103002F0CDFA01280CBF79
:104130009DF807004FF0FF3003B05DF804FB10302E
:1041400002F0E8BC07B501228DF8071010300DF120
:10415000070102F0DFFC03B05DF804FB436913B113
:1041600083690C301847704713B500210446084690
:1041700004F052FF0023204601A9019304F064FFDC
:10418000019C0CB1012323710021012004F044FFA4
:104190002CB1236820469B6898470023237102B006
:1041A00010BD000010B50E4C04F0A6FF2368C01A25
:1041B000632813D908F0BEFE0A4908F0C6FA04F0D5
:1041C0009BFF094B0949206001221A700B7853406C
:1041D0000B70074B1B780BB1064B1A7010BD00BF5C
:1041E00050DD0320DD010C0088DA032089DA03208A
:1041F000F7DD032036E6032010B5094C04F07CFF00
:104200002368C01A632809D904F076FF206008F0FB
:1042100091FEBDE81040034908F097BA10BD00BFF9
:1042200050DD0320EB010C000B4BD3E900300022E2
:10423000834205D0196B252928BF01223433F7E7C3
:1042400042B1064A1378182B04D801331370044B7B
:1042500001221A70704700BFB4DC032088DC032001
:1042600035E60320012A02D1016000207047022AAE
:1042700004BF0B680360F8E70368184737B50446C6
:1042800080680D4630B10023CDE900331A46022183
:1042900004F0E2FEA06830B10023CDE900531A46D5
:1042A000194604F0D9FE03B030BD0EB403B503AB1C
:1042B000002153F8042B019308F06FFA02B05DF867
:1042C00004EB03B07047000073B50446084622793A
:1042D000A36832B1A3B90B4902B0BDE8704008F041
:1042E00021BA094A267B094D0949647B012E18BF72
:1042F0002946CDE900140749FFF7D7FF02B070BD8A
:10430000054AEFE70D020C001B070C0009020C0028
:1043100005020C0023020C00FC010C000EB403B5D6
:1043200003AB012153F8042B019308F036FA02B0D5
:104330005DF804EB03B0704710B58368044613B111
:10434000032201469847204610BD000037B5134BA5
:10435000036004468068C8B100256FF00043CDE9D2
:10436000003502212B462A4604F076FEA068294635
:1043700004F0A2FE237903F0FF0513B104F044FE1C
:10438000F8E7A068294604F057FEA56004F10C0088
:10439000FFF7D2FF204603B030BD00BF88090C00F4
:1043A00010B50446FFF7D2FF20461C21FFF777FE29
:1043B000204610BD10B54368013B0446436063B915
:1043C00003689B689847A368013BA3602BB92368E7
:1043D0002046DB68BDE81040184710BDF0B58C469C
:1043E00000251449057104468560016092E80300C8
:1043F00085B002AF04F10C0687E8030096E80300DD
:1044000082E8030097E8030086E803009168A0694A
:104410006161D1689560D060A161CDE90035064A3F
:104420002346614604F1080004F0FEFD204605B075
:10443000F0BD00BF88090C0069410B0013460A4615
:104440000149096802F009BB3CE60320F0B595B0CC
:10445000044600AF0D461E22002107F1300009F08E
:1044600016FE2068616807F1280303C397F8283017
:10447000662B6E4668D13E4907F1280009F08BFE95
:1044800000283ED13B48037C13B1103002F0DEFA25
:10449000234607F1280204F12005186859681446DC
:1044A00003C40833AB422246F7D1186820609B88CA
:1044B000A3801E2207F130012F4809F0B8FE002327
:1044C0002D4A2E497B60381D02F0C7FA48B108F02A
:1044D00031FD2B49284AFFF721FF2749274802F0E1
:1044E00008FB08F027FD244A2649FFF717FF224959
:1044F000254844F20222FFF7A1FF5437B546BD46D6
:10450000F0BD224907F1280009F045FE68B908F01E
:1045100011FD194A1E49FFF701FF164B1B7C002BAA
:10452000EBD0194802F092FAE7E71A4907F12800A0
:1045300009F031FE40B908F0FDFC174908F005F913
:10454000164B01221A70E8E7EB1D23F00703ADEBD1
:10455000030D2A462146684609F071FD6946054863
:1045600008F0E0F808F0E6FC694608F0EEF8C4E769
:1045700040020C00F8DD03202CDE0320ECE50320D4
:1045800049020C007C020C0008DE032099020C009A
:10459000A2020C00BA020C00C3020C004ADE032087
:1045A00030B585B01B4B009313798DF804309368B8
:1045B000029300F58C659389ADF80C3004460A46E9
:1045C0006B4600F26C41284603F066F910B90020F2
:1045D00005B030BD256004F23C45284602F036FAAD
:1045E0000121204603F002F8014668B12146284621
:1045F00002F063F80028EAD094F83C3413F0700F0E
:10460000E5D0054B1D60E3E7204602F0EFFF0028F0
:10461000ECD1DCE774090C003CE6032000220272B6
:10462000054AC2600261002242618261C261026287
:1046300042628262C262704700C079C408B508F065
:104640000DFE0849FFF731FE142005F029F808F0A7
:1046500005FE0549FFF729FEBDE80840142005F0D6
:104660001FB800BF1A070C002D090C002DE9F047F8
:1046700084B002AF804691461E460D4609F0BBFD50
:10468000093020F00701ADEB010D404609F0B3FD04
:1046900002AC294997F828A003464246204604F078
:1046A000AFFF08F047FC214608F04FF8BAF1000FC1
:1046B00001D1042D0DD1214B21491B788DF80030FB
:1046C00038463C23224607F0B9FC786808B1FFF76A
:1046D00071FEB9F1000F01D1012D21D105F0FAFCD5
:1046E00005F0A5FDE0B1204609F085FD073020F07A
:1046F0000700E846ADEB000D204609F07CFD0DF10A
:10470000080902462146484609F099FC204609F06E
:1047100072FD0023024649460A4805F075FBC5466E
:104720000EB9022D04D108F099FD214608F00DF8CC
:104730000837BD46BDE8F087D9020C00FCDC032039
:10474000E0020C00CCDE03202DE9F0410E4D0F4FAE
:10475000D5E9004888B0A04513D02379E67814F84D
:10476000342B0393394605A804F04AFF039B0096B7
:104770000122002105A8FFF779FF6B68343B6B60CD
:10478000E9E708B0BDE8F08198DC0320E8020C00FE
:1047900010B5D0E900420648121B921042439142E4
:1047A00002D3044808F086FD342000FB014010BD10
:1047B000C54EECC4F1020C002DE9F04F3D4C87B022
:1047C00004F09AFC2368C01A632870D908F0B2FB81
:1047D000394907F0BAFF04F08FFC384B2060012202
:1047E0001A70374B374A1C788CB1136836481978E1
:1047F00004788C425BD054689C4258D01A78057873
:10480000954204BF0A46017034331146F4E7D2E9F9
:104810000078DFF8B490DFF8BCA0DFF8BCB0B84592
:1048200045D03A7899F800309A422ED1DAF80060F3
:104830000FCE6D460FC596E8030085E8030008F02B
:1048400079FB0DF10D0107F080FF9DF80A5075BB53
:104850009DF80930E3B108F06DFB1C4907F075FFC6
:1048600021461848FFF794FF019BC55408F062FBEE
:10487000214605461348FFF78BFF15490278284665
:10488000FFF74CFD01238BF8003001343437C6E7C5
:1048900021460C48FFF77CFF009A9DF80B10835CC3
:1048A00099423EBF9DF808105B1A8354EAE707B0AF
:1048B000BDE8F08F50DD03203B030C0088DA0320B5
:1048C00089DA0320B4DC03204DDD032049030C000A
:1048D00064030C00A4DC0320F7DD03202DE9F04F76
:1048E0003F4C87B004F008FC2368C01A63281DD928
:1048F00004F002FC206008F01DFB3A4907F025FF98
:10490000394B01221A70394B1C78394BACB15C68B9
:10491000384D14F8342C2878824207D01B680022C6
:104920009C4203D013F8341B1AB1297007B0BDE8BC
:10493000F08F411A4A424A41F2E7D3E90078DFF8A2
:10494000B490DFF8BCA0DFF8BCB0B845EED03A7840
:1049500099F800309A4230D1DAF800600FCE6D46F7
:104960000FC596E8030085E8030008F0E3FA0DF1AF
:104970000D0107F0EAFE9DF80A30002BD6D19DF814
:104980000930EBB108F0D6FA1B4907F0DEFE2146EC
:104990001748FFF7FDFE019B0122C25408F0CAFA36
:1049A000214605461248FFF7F3FE144902782846CF
:1049B000FFF7B4FC01238BF8003001343437C4E72F
:1049C00021460B48FFF7E4FE009A9DF80C10835C2B
:1049D000994282BF9DF808105B188354EAE700BF34
:1049E00050DD03203B030C0088DA032089DA032022
:1049F000B4DC03204DDD032049030C0064030C00EC
:104A0000A4DC0320F7DD032010B5D0E900420648FE
:104A1000121BD2104243914202D3044808F04AFCD0
:104A2000182000FB014010BDABAAAAAAF1020C009D
:104A300010B50F4C04F060FB2368C01A632815D929
:104A400004F05AFB0B4A206013780BB1013B137042
:104A500011780948FFF7D8FF084B186008F06AFA88
:104A6000074907F072FE074B01221A7010BD00BF04
:104A700050DD0320F5DD03208CDC0320A4DC0320C3
:104A800077030C0088DA032010B50F4C04F034FBD8
:104A90002368C01A632816D904F02EFB0B4A206045
:104AA00013780B48022B9CBF013313701178FFF76A
:104AB000ABFF084B186008F03DFA074907F045FEC8
:104AC000064B01221A7010BD50DD0320F5DD0320D6
:104AD0008CDC0320A4DC032082030C0088DA032092
:104AE0002DE9F74F4368D0F800A00193A3EB0A0427
:104AF000414BA4105C43414B9C4281468B46164679
:104B000002D13F4808F0D3FB012C224638BF0122D6
:104B1000A418A1EB0A0729D254B39C4228BF1C4613
:104B200034206043FFF7B7FA804618EB070507D03B
:104B30000FCE0FC50FCE0FC50FCE0FC533682B603C
:104B4000C446D646F34515D0BCF1000F09D07646D1
:104B50000FCE65460FC50FCE0FC50FCE0FC53368FC
:104B60002B600EF1340E0CF1340CEBE71C46D7E74A
:104B7000A046DAE7DFF88CE0BF080EFB07F7342326
:104B800027F040475F430AEB070B1F4408EB07037E
:104B900000939C465F46019B9F420CF1340C0CD065
:104BA0003E460FCEACF134050FC50FCE0FC50FCE6C
:104BB0000FC533682B603437EDE7A7EB0B07BF0851
:104BC0000EFB07FE009B2EF0404E342707FB0E37EE
:104BD000BAF1000F06D0D9F808105046A1EB0A012F
:104BE000FFF75DFA342000FB0484C9E90087C9F8A7
:104BF000084003B0BDE8F08FC54EECC462277602D2
:104C00008F030C00C54EEC0470B50A46D0E90113C1
:104C1000994206460ED049B115460C460FCD0FC439
:104C20000FCD0FC40FCD0FC42B68236073683433CE
:104C3000736070BDFFF754FFFBE700002DE9F04FF4
:104C4000A5B08378412B06AF83460E4625D1C378A5
:104C5000422B40F0B7819BF80130DFF88CA33B7604
:104C600007F1180009F0D7F9DAE90083E946C5B27F
:104C700000210122984516D098F80000A84208D1DA
:104C80005046BB607961FFF783FDBB6879690446D4
:104C90000022013108F13408ECE7432B40F0928107
:104CA000C378432BD5E76AB107F14400FFF7B6FCA0
:104CB000CD4887F8445007F14401FFF7A5FFDAF823
:104CC0000440343C584609F096FA013820F00700B9
:104CD000ADEB000D584609F08EFA0DF1180840446E
:104CE000002100F8091C584687F8231009F083FAC0
:104CF000584410F8023C3B77584609F07CFA584477
:104D0000002110F8013C7B77102207F11C00B977D5
:104D10000AF05EF9786108F00DF97B69B349DBB2FE
:104D20001A467B61FFF7FAFA7B6904215846BB609B
:104D3000796109F060FA7969BB680238814214D25E
:104D400006299BBF07F17802521808EB01021BF8F5
:104D500001008CBF1BF8010002F85C0C01F101019D
:104D600088BF02F8070CC9B2E0E7984244D07B61E3
:104D700008F0E0F80446584609F03DFA821E204645
:104D80009B4C7B699B49FFF7C9FA237C73BB9A490B
:104D900044F2022204F11000FFF750FB97495A46F3
:104DA0002046FFF7BBFA04F1100001F04FFE08F0B7
:104DB000C1F8934907F0C9FC9BF80130A3F1300218
:104DC000092A02D9432B40F0FC809BF8002087F889
:104DD000442087F845308B498B4807F1200307F1C1
:104DE000440204F00DFC894B1E70EAE083495A46E8
:104DF0002046FFF793FADAE7854907F1200009F02A
:104E0000CAF9002800F0DD80824907F1200009F08E
:104E1000C2F900287ED1DAF804303B61DAF80030BC
:104E20007B61D7E90432934274D013789D426ED1EE
:104E300007F1440A07F1380B07F1340307F1300298
:104E40007549CDF804A0CDF800B0404604F0E0FB71
:104E5000584609F0DDF8504687ED020B09F0D8F806
:104E600097F834A097F830B087ED000B08F062F89F
:104E70006A4907F06AFC08F05DF8694907F065FCCB
:104E800008F058F8674907F060FC08F053F86649E5
:104E90002A46FFF743FA08F04DF85A466349FFF7F0
:104EA0003DFA08F047F8624907F04FFC08F042F875
:104EB000CAF340030AF001025E490093CAF380037B
:104EC000FFF72CFA08F036F85B4907F03EFC08F0D3
:104ED00031F88246D7E9020109F026F808F012FD00
:104EE00002460B46D7E90001C7E9022309F01CF886
:104EF00008F008FDCDE90001D7E902234F495046EB
:104F0000FFF70CFA08F016F8454907F01EFC7B691C
:104F1000343385E74A4907F1200009F03CF90028BD
:104F200054D107F13403049307F13003039307F1DD
:104F30002C03029307F12803019307F1240341494D
:104F4000009307F1380207F14403404604F060FB88
:104F5000D7ED097AB8EE677ADFED3B7AC7EE276ABC
:104F600097ED0A7AC4ED096AB8EE477AC7EE276A68
:104F700097ED0B7AC4ED076AB8EE477AC7EE276A59
:104F8000C4ED0A6A97ED0C7AB8EE477AC7EE276A45
:104F9000C4ED0B6A97ED0D7AB8EE477AC7EE276A33
:104FA000C4ED086A07F0C6FF22787A610546206AD8
:104FB00008F0A8FCCDE900017A6924492846FFF7EA
:104FC000ADF9CD467C37BD46BDE8F08F204907F1ED
:104FD000200009F0E0F8002840D11E480322414695
:104FE00009F025F91C4BFFE6B4DC0320A9030C00F3
:104FF000C0DD0320BE030C0068DD0320DB030C00D2
:1050000007040C0028040C0054DD032067DD032096
:1050100034040C0038040C003C040C0048040C0060
:1050200057040C0072040C008D040C00A9040C0041
:10503000C5040C00E0040C00FE040C0019050C0073
:1050400029050C002D050C0000007A4442050C00D7
:1050500055050C0064DD032063DD03202E4907F1B4
:10506000200009F098F8A8BB2C4BD3E900200123BD
:10507000824205D012F8341BA94208BF0023F7E78B
:10508000C3B107F057FF264907F05FFB07F1440063
:10509000FFF7C4FA012E11D187F846601F4887F840
:1050A000445007F14401FFF7AFFD1E4807F14401EA
:1050B000FFF7AAFD1C4B01221A7082E7022E4FF067
:1050C000010302D187F84830E8E7032E08BF87F8CC
:1050D0004730E3E7154907F1200009F05CF80028A4
:1050E0007FF46FAF124C237C83B9124944F2022241
:1050F00004F11000FFF7A2F90F4942462046FFF7DE
:105100000DF904F1100001F0A1FC5AE70A494246EA
:105110002046FFF703F954E759050C00B4DC0320DF
:105120005D050C0098DC03204CDD032076050C00A7
:10513000C0DD032068DD03207A050C0010B50C46A5
:10514000002204212046FFF779FD0B4B1B7893B119
:105150000A48037C2BB90A4944F202221030FFF7B7
:105160006DF9224607490548FFF7D8F8BDE8104019
:10517000054801F06BBC10BDF4DD0320C0DD032049
:1051800068DD03209D050C00D0DD0320B0B501F1E2
:10519000080323F0070300AFADEB030D0C460A46EE
:1051A0000146684608F04BFF0DEB04036D4613F80B
:1051B000013C13B100230DF8043007F0BBFE114988
:1051C00007F0B0FA07F0B6FE294607F0BEFA012252
:1051D00011462846FFF732FD0B4B1B7883B10B4875
:1051E000037C2BB90A4944F202221030FFF726F95A
:1051F000084906482A46FFF791F8074801F026FCBF
:10520000BD46B0BDBD050C00F4DD0320C0DD0320AC
:1052100068DD0320CE050C00D0DD03202DE9F04F22
:10522000DFF8E090344D89B000AF07F083FE0368EB
:105230001B69984700285BD0DFF8CC8007F07AFE26
:1052400003681B6998470028EFD007F073FE0A2215
:105250000146384607F0BEFBBB68073323F007035F
:105260006E46ADEB030DEA460023B9681FFA83FBD7
:105270008B4503F1010407D25946384607F0C4FCB8
:1052800023460AF80B00F0E701290AD9013938460C
:1052900007F0BAFC0D2801BFBB685344002203F895
:1052A000012C012202215046FFF7C8FC99F800307A
:1052B000CBB12B7C2BB91149114844F20222FFF7E4
:1052C000BDF8394607F1100007F032FC07F1100273
:1052D00041462846FFF722F807F1100007F092FB3D
:1052E000074801F0B3FB384607F08CFBB546A5E74D
:1052F0002437BD46BDE8F08FC0DD032068DD032004
:10530000D0DD0320F4DD0320EE050C002DE9F04F85
:10531000DFF8EC80DFF8EC90354D89B000AF07F096
:105320009DFF03681B69984700285CD007F096FF33
:105330000A220146384607F04DFBBB68073323F0CD
:1053400007036E46ADEB030DEA460023B9681FFA6A
:1053500083FB8B4503F1010407D25946384607F019
:1053600053FC23460AF80B00F0E701290AD901395A
:10537000384607F049FC0D2801BFBB6853440022A2
:1053800003F8012C012203215046FFF757FC07F0D8
:10539000D1FD414607F0D9F907F0CCFD396807F097
:1053A000D4F999F80030CBB12B7C2BB911491248B4
:1053B00044F20222FFF742F8394607F1100007F0E5
:1053C000B7FB0E4907F110022846FEF7A7FF07F1C9
:1053D000100007F017FB084801F038FB384607F0CB
:1053E00011FBB5469BE72437BD46BDE8F08F00BFF3
:1053F000C0DD032068DD0320D0DD032029060C007A
:1054000017060C00F4DD03202DE9F0471E4DDFF8F0
:1054100078A0D5E900239B1A1C4A9B105343DCB2A9
:1054200003440A2B84BFC4F10A00C0B220448EB0EA
:10543000C4B200274FF001095FFA87F844451FD92D
:10544000D5E900310026994205D013F8342B4245A6
:1054500008BF0126F7E78EB901A8FFF7DFF864203F
:105460008DF80480ADF806608DF8089007F0C6F955
:1054700001A98DF805005046FFF7C6FB0137DBE7B1
:105480000EB0BDE8F08700BFB4DC0320C54EECC40D
:105490002DE9F84FD0E9008993466FF07043A9EBEE
:1054A0000802B3EBE20F07468A464FEAE20402D154
:1054B000204807F0FCFE012C224638BF0122A41828
:1054C000A1EB080531D294B39C4228BF1C46E000F2
:1054D000FEF7E1FD064673191CBFDBE90001C3E9D5
:1054E0000001002D04DD2A464146304608F0B5FD96
:1054F000A9EB0A090835B9F1000F354404DD4A4625
:105500005146284608F09BFD4D44B8F1000F05D0E8
:10551000B9684046A1EB0801FEF7C1FD06EBC404E3
:10552000C7E90065BC60BDE8F88F1C46CFE726469A
:10553000D1E700BF8F030C002DE9F04FB3B0064652
:1055400004F0C8FD8449142204F0BCFE8046002803
:1055500000F0FF80DFF800B2002404EBC4094FEA3A
:10556000890909F108070BA85F4404F017FA012222
:105570000BA9384605F06EFD8246002856D07749C3
:105580000BA804F066FA054600284FD0082209A9A6
:10559000384604F0BBFBB21C53D107F0CBFC9DF89E
:1055A0002B3005939DF82A3004939DF829300393FE
:1055B0009DF8283002939DF82730694F01939DF89C
:1055C00026309DF8242067490093CDF818A09DF857
:1055D0002530FEF7A3FE7B689DF824103A689342BD
:1055E00005D012F8080B884208BF0025F7E7EDB197
:1055F000242202FB04B28DF8941092F92020269206
:10560000BA68934217D01BB1DDE9250183E8030096
:105610007B6808337B6007F08DFCD7E900239B1A79
:1056200051499DF82420DB10FEF778FE0134E4B2E6
:10563000444592D38DE04A4825AA1946FFF728FF32
:10564000E9E7731C03D09DF82430B342EED104F097
:1056500041FD0DF19408454D014601230BEB090274
:10566000404606F02FF9259B269C2B606B689C42D8
:1056700008D014B1636801336360686808B1FEF74D
:1056800099FE6C60404604F094FE384804F094FCA7
:10569000064600285DD0364BDFF8009100221A70D4
:1056A000344B4FF0010A1F2210A9384683F800A09E
:1056B00004F02CFB304A31492C4805F097FD304A64
:1056C00030492A4805F092FD2F4A3049274805F015
:1056D0008DFD07F02FFC9DF840202D49FEF71EFEA2
:1056E00018A8FEF79BFF9DF840302A488DF862A06D
:1056F00018A98DF86030FFF787FAD9E9007CDFF848
:10570000A0E0BC4516D03D460FCD44460FC40FCD9A
:105710000FC40FCD0FC42B6823609DF840209DF867
:1057200094309A4202BF8DF896A0CEF800800026F1
:105730003437E6E76EB107F0FDFB174907F005F8CF
:10574000164818A9FFF760FAD9F80430144A343B18
:10575000136033B0BDE8F08FE0DE0320C0DC03202F
:1057600078DC03204A060C007D060C00BCDE03201A
:10577000F6DD032034E60320E8DC0320D4DE03203A
:10578000D4DC0320CCDE032000DD0320C4DE0320B4
:105790008F060C0098DC03205D050C00B4DC0320B0
:1057A00074DC032030B5384987B0054600223748FD
:1057B000FEF744FE50B9364B01221A7007F0BAFBCF
:1057C000344907B0BDE8304006F0BFBF324A334C21
:1057D0002B460A2103A803F023FF00231946009358
:1057E000012203A8FEF742FF07F0A4FB23682C491F
:1057F0001A78FEF793FD4FF47A7003F051FF236897
:105800001B78AB421ED007F095FB22682549127821
:105810002B46FEF783FD04F05DFC05F079FA04F0F9
:1058200059FC04F004FD30B92846FFF785FE32200C
:1058300003F036FFF3E707F07DFB23681A491A7877
:10584000FEF76CFD07F076FB236818491A78104DB7
:10585000FEF764FD00232B70642003F021FF2B78FA
:10586000002BF9D007F066FB236811491A78FEF780
:1058700055FD1048037C13B1103001F0E7F80E4BD2
:1058800000221A7007B030BDA3060C009CDD032077
:105890004ADE0320A5060C00E6060C0074DC03209B
:1058A000EF060C001C070C0055070C0076070C00D7
:1058B00099070C008CDD03204BDE03202DE9F74F08
:1058C0004368D0F800800193A3EB0804404BE41038
:1058D0005C43404B9C4207468946924602D13E4873
:1058E00007F0E5FC012C224638BF0122A418A1EBE9
:1058F000080529D254B39C4228BF1C461820604397
:10590000FEF7C9FB064616EB050C1FBFBAE80F00F1
:10591000ACE80F00DAE90001CCE90001B246C34669
:10592000D94515D0BAF1000F09D0DE46BEE80F0008
:10593000D446ACE80F009EE803008CE803000BF1AE
:10594000180B0AF1180AEBE71C46D7E72646DAE7F8
:10595000DFF888A0ED080AFB05F5182325F060455F
:105960005D4308EB050B1D447319009399465D4692
:10597000019B9D4209F118090CD0AE46BEE80F000C
:10598000A9F1180CACE80F009EE8030018358CE86C
:105990000300EDE7A5EB0B05ED080AFB05FA009BFC
:1059A0002AF0604A182505FB0A35B8F1000F05D02A
:1059B000B9684046A1EB0801FEF771FB182000FB17
:1059C0000464C7E90065BC6003B0BDE8F08F00BFA8
:1059D000ABAAAAAA555555058F030C00ABAAAA0A73
:1059E00070B50A46D0E90113994206460CD039B188
:1059F00015460C460FCD0FC495E8030084E803005C
:105A000073681833736070BDFFF758FFFBE7000041
:105A100030B599B022490DF10D0008F0C6FB012404
:105A200040F2011507231F498DF80C400DF12500A8
:105A3000CDE9013508F0B9FB4FF0011308931A497D
:105A4000069464230DF13D008DF8243008F0ADFB81
:105A5000082316498DF83C400DF15500CDE90D3570
:105A600014958DF8544008F0A0FB052369461048B2
:105A70001293FFF7B5FF06A90D48FFF7B1FF0CA978
:105A80000B48FFF7ADFF12A90948FFF7A9FF094B23
:105A900007481978FEF7B8FF074B186019B030BDFA
:105AA000C0070C00C7070C00CF070C00D7070C007D
:105AB0008CDC0320F5DD0320A4DC03202DE9F04776
:105AC000022190B01C2007F035FB02210E2007F0C8
:105AD00031FB0221072007F02DFB02210F2007F0E8
:105AE00029FB02211220002407F024FB02211D20A3
:105AF00007F020FB6D4900944FF0FF3302221C2079
:105B000006F09EFC6A4900944FF0FF3302220E20FB
:105B100006F096FC674900944FF0FF3302220720FD
:105B200006F08EFC644900944FF0FF3302220F20F0
:105B300006F086FC614900944FF0FF3302221220E8
:105B400006F07EFC02225E4900944FF0FF331D20D8
:105B500006F076FC03F0D0FA5A4B5B4F186007F062
:105B6000E9F94FF4E13107F0D9F907F077FB4FF489
:105B7000165107F07DF9FEF761FD04F0ABFA04F071
:105B8000F3FA04F0A7FA322104F038FB04F0A2FA89
:105B9000082104F0F0FA4D4A4D49104605F050FB3B
:105BA0004C4A4D49104605F04BFB22464B494C48A8
:105BB000CDE90044012303F093FC4A4B1C704A4B8F
:105BC0001C704A4B1C704A4B4FF001091C7087F83F
:105BD000009007F0D9F8079007F0CAF8054607F0DB
:105BE000DBF8064607F0A0F8804607F0A9F88246E1
:105BF00007F0B2F8079B3F4A0095CDE903A01021BA
:105C0000CDE9016808A803F00BFD3B493B4808F0CB
:105C1000CCFA08A9394808F0AFFA3949374808F0F2
:105C2000ABFAFFF7F5FE374803F010F9354802F0FC
:105C30009BFD344803F006F8334B0C933348344B48
:105C40008DF834400CAA08210E93ADF83C90FEF775
:105C5000A7FC044628B907F06DF92E4906F075FD3A
:105C60003C70284C0221204602F005FC00224FF037
:105C70000113C4E904232849204606F053FD2046B9
:105C800002F0E0FF40F6B83003F00AFD23486FF061
:105C90000041FEF7F3FA6FF000412148FEF7EEFAFB
:105CA0000220FFF7B1FB10B0BDE8F087A5410B0063
:105CB000314A0B00894A0B00B9470B00DD480B0045
:105CC000F9410B0050DD0320F4DD0320D4DE032076
:105CD0008D510B00C4DE03204D440B003D510B00E1
:105CE000E0020C004BDE03204ADE0320DCDE032052
:105CF00035E60320DE070C00F7070C0068DD032003
:105D000000080C004CDE032074090C00B0E10320F5
:105D100000127A0009080C002E080C0014DD032084
:105D200030DD03207FB5554B554C01221A70554B81
:105D30000022C3E90022A2F580329A60032003F01A
:105D40007BFB5149514803F003FF5149514803F08F
:105D5000FFFE5149514803F0FBFE5149514803F001
:105D6000F7FE14257F26204603F00DFE04F10800FF
:105D700004F039FE04F1140004F035FE013D84F80E
:105D8000206004F12404EED14748484C04F016F892
:105D9000474804F013F8474804F010F8464804F068
:105DA000E9F84648072103F023F82378BFF35B8F17
:105DB000DB070AD42046FEF781F930B140480121C3
:105DC00006F034FD2046FEF77EF93E4B3E4E3F4D39
:105DD0003F4803966422C3F860243E4AC3F8702407
:105DE0000122002483F87424354A5C60C3F83C44E3
:105DF000C3F86844C3F87844A3F87C44C3F86C241F
:105E0000354B364A5C604FF47A7199601A601C61B8
:105E1000334BC3E901411A601C61324BC3E90141B4
:105E20001A601C61304BC3E900449C602F4BC3E9EE
:105E300000449C602E4BC3E900449C602D4B0093B2
:105E40006A46234641F288310295FEF7C7FA684652
:105E5000FEF772FA284B00936A4623464EF66021FD
:105E60002648CDE90256FEF7B9FA6846FEF764FA0D
:105E7000234BC3E900449C6004B070BDFCDC0320EC
:105E8000E0DE0320A8DC032039080C00C0DC03207E
:105E90005E080C00D4DC032083080C00E8DC03203F
:105EA000A8080C0000DD0320D4DE032068DC0320FA
:105EB000CCDE0320C4DE0320BCDE03204CDE032046
:105EC0006CDC0320B0E1032079420B0065420B003B
:105ED00014DD032074090C00F8DD03209C090C007C
:105EE000C0DD03208CDD0320B4DC032098DC03201C
:105EF00078DC0320E9400B0029420B0030DD032051
:105F00008CDC03202DE9FF47BDF830605D4C0F4667
:105F1000013619B2013390460546BDF930200FFA1B
:105F200083F936B24FF0100A002F67D001275823AB
:105F30002046CDE900A7039201F081FFA4F810905C
:105F40000221204666824FF0000902F094FA2946A9
:105F50004D48C4F81490FEF757FD00F10D0120469E
:105F600006F0E0FB039AB8F1000F30D07F23CDE9B3
:105F700000A75821204601F062FF59232382668240
:105F8000C4F8149040482946FEF73EFD437A63B3B7
:105F900043680CAA13441B79BBB13C493948FEF74E
:105FA00084F906F0C7FF294604463748FEF72CFD62
:105FB000374900F10D022046FEF7B0F92946324874
:105FC000FEF722FD04B0BDE8F0873249E6E77F2303
:105FD000CDE900A85821204601F031FF5923238242
:105FE0004FF0011366826361CCE703682A490CAA6B
:105FF000134420461A79FEF758F9D2E75823204671
:10600000CDE900A703924FF0011801F018FF02211B
:106010002046A4F81090668202F02DFA29461A480C
:10602000C4F81480FEF7F0FC00F10D01204606F0E4
:1060300079FB039A7F2358212046CDE900A701F080
:10604000FEFE5923238210486682C4F81480294634
:10605000FEF7DAFC437A5BB143680CAA13441B7960
:1060600023B10A492046FEF720F9A7E70949F9E7D5
:10607000036809490CAA134420461A79FEF715F95A
:106080009CE700BF4CDE03208CDC0320CD080C0015
:10609000D4080C00D0080C00D8030C002DE9F04FF8
:1060A000A54B1B788FB0002B00F0428100260F23F8
:1060B000CDE90036A148DFF89892DFF8A4A2DFF816
:1060C000A4B280233246314601F0B9FE3546D9E903
:1060D00000239B1A9B10F7B20AFB03F39F4248D29E
:1060E00039464846FEF754FB07EBC70801789BF892
:1060F0000030924C4FEA480808F1050299424FF0EF
:10610000040308F10108228263824FF00101204656
:1061100017D102F0B0F90023012263610E23CDE90B
:1061200000324146204601F08AFE39464846FEF7D5
:106130002FFB834902782046FEF7B7F801363D462B
:10614000C5E702F098F94FF00113012263610E23B5
:10615000CDE900324146204601F0E4FE394648468A
:10616000FEF716FB764902782046FEF79EF82F468A
:10617000E4E7744F97F80080B8F1000F60D1724FD8
:1061800006F0D8FE714906F0E0FAD7E900329A42EB
:1061900019D029466E48FEF7FBFA6E4B044693F879
:1061A00000C00FCC01AE0FC60FCC0FC60FCC0FC670
:1061B00023683360102300938CF0010243460121D1
:1061C0004046FFF79FFED7E90036F61A624BDFF82C
:1061D0008CA1DFF87C91DFF87CB1F6105E43F6B25B
:1061E000022E28BF02260127BE42C0F29B8006F085
:1061F000A1FE3A465146FEF791F829464846FEF779
:10620000C7FA04460FCC0DF1040C9BF800E0ACE893
:106210000F000FCCACE80F000FCCACE80F005FFA1A
:1062200087F82368CCF8003001373B019BB200931C
:1062300000238EF0010219464046FFF763FED3E7C4
:10624000B8F1030FDFF80C8140F08E8006F072FE8B
:106250003A784249FEF762F829463D4897F800909F
:10626000FEF796FA06460FCE01AC98F800C00FC4B0
:106270000FCE0FC40FCE0FC43368236030238CF0D1
:1062800001020121484600930023FFF73BFE06F080
:1062900051FE3A783149013AFEF740F829462C4838
:1062A000FEF776FA06460FCE0DF1040C97F800E0E3
:1062B00098F80090ACE80F000FCEACE80F000FCEBE
:1062C000ACE80F003368236020230EF1FF3E0093FB
:1062D000002319465FFA8EF089F00102FFF712FEE3
:1062E00006F028FE3A781D49023AFEF717F81848DA
:1062F0002946FEF74DFA3F7898F800C0023F054660
:106300000FCD01AE0FC60FCD0FC60FCD0FC62B6838
:1063100023601023009300238CF001021946F8B289
:10632000FFF7F0FD054802F08DFC034A00231370CF
:106330000FB0BDE8F08F00BF88DA03204CDE0320E9
:10634000D8030C00F5DD03208CDC032000090C00D1
:10635000B4DC032089DA0320ABAAAAAA0C090C003A
:10636000C54EECC44DDD032006F0E4FD3A782B4920
:106370000132FDF7D3FF29462948FEF709FA064600
:106380000FCE01AC98F800E097F800C00FC40FCE14
:106390000FC40FCE0FC43368236030230CF1010CFF
:1063A000009300238EF0010219465FFA8CF0FFF78C
:1063B000A9FD06F0BFFD3A781849FDF7AFFF294661
:1063C000174897F80090FEF7E3F906460FCE0DF157
:1063D000040C98F800E0ACE80F000FCEACE80F001A
:1063E0000FCEACE80F003368236020238EF001024B
:1063F0000121009348460023FFF784FD06F09AFD33
:106400003A780649013AFDF789FF05482946FEF723
:10641000BFF93F7898F800C0013F70E70C090C0005
:10642000B4DC03202DE9F041564D2B788AB0A3B19E
:10643000554B1B68002B38D01A78544902A803F03A
:10644000DFF8534C2378009301231A46002102A859
:10645000FEF70CF900232B702370FFF71FFE4D4B46
:106460001B7823B906F066FD4B4906F06EF94B4BDD
:106470001A78002A35D04A4F434E00241C70D7E9C1
:1064800000535D1B474B3460AD105D43464B93F8A2
:106490000080E1B28D420DD93846FEF779F90378D4
:1064A000434508BF30600134F3E7404902A807F0D4
:1064B0007CFEC6E73268002A61D0137A13B13C4BE8
:1064C00001211970D3793B49127802A803F098F89A
:1064D0002F4B1B78009301231A46002102A8FEF7D8
:1064E000C5F803F0F7FD03F0A2FE002837D007201F
:1064F00006F04AFE034628B90090014601222E48C4
:10650000FEF7B4F8264B2D4ED3E90047A7420FD033
:10651000D4F8208006F00EFD0546404607F0F2F95B
:1065200002460B4628463146FDF7F8FE3434EDE7C7
:10653000FA2003F0B5F81E4B1B783BB1124C2368D0
:106540001878FFF72FF9236800221A72FEF7DEFE93
:10655000FEF764FE0AB0BDE8F041FEF7F5B8184C4E
:1065600002F0CAFD2368C01AB0F5FA6FE3D302F057
:10657000C3FD20604FF0FF30FEF7DEFFDBE70AB01F
:10658000BDE8F081DCDE032084DC032019090C0067
:1065900035E60320F4DD03202F090C0036E6032046
:1065A000B4DC0320C54EECC44DDD032025090C00EE
:1065B0004BDE03204A090C0056090C005E090C0052
:1065C00088DD032038B504460D462422002107F05B
:1065D0005EFDA560EB79102B03D0202B06D00020A8
:1065E00038BD202301202370A070F9E74023F9E78C
:1065F00010B50446243000F0EBFE28B104F50C7011
:10660000BDE8104000F0E4BE10BD8378016943F09E
:106610000403837000F11002806800F08FBF000057
:106620002DE9F041017811F02005044603D0002641
:106630003046BDE8F0814269174B9A42F7D2FFF726
:10664000E4FF06460028F2D02169A06800F00BFFA5
:106650000746A06805223946243000F0E1FE804656
:106660000028E4D029464FF4007207F010FD012500
:10667000A3681A79AA4209D918684246E91901F0B3
:106680003CFA0028D3D00135EDB2F1E7636903EBA2
:1066900042236361CCE700BF00FE1F0010B5044633
:1066A00080680A462430A16900F0BAFE20B1A388B0
:1066B00003F00F0300EB431010BD03780BB9FFF795
:1066C00081BF002070472DE9F74F037804468846C4
:1066D0001546002B5DD08278D1075AD51A072DD5E3
:1066E000C36942699B1A9D4228BF1D462E464FF042
:1066F000000904F1100B002E00F08F8022786369EE
:10670000A0689706C3F3080A4FEA53211FD5006A11
:106710000144A068BAF1000F42D1B6F5007F3FD323
:10672000C36A99423CD0B6F5806F52D200684246A7
:1067300001F05AF968B34FF4007744E09B06D5D5D1
:1067400083681A894369C3EB42139BB2CBE790F885
:10675000059009EA0109BAF1000F08D1B9F1000F5B
:1067600005D15BB951064CBF036A236A23612169D5
:10677000A06800F078FE09EB0001CAE721695A46DB
:1067800000F077FE002804DBF1D1237813F0700FBE
:1067900043D1637843F0020363704FF0FF303DE074
:1067A000CAF50077B7424FF0000200F1240028BF7D
:1067B000374600F035FE0028EBD000EB0A013A46E0
:1067C000404607F03CFC63693B44B8446361F61BF8
:1067D00091E7227892064FEA562A06D40279A2EB74
:1067E0000902D2B2924528BF924699424FEA4A27FF
:1067F00008D2A06853460068424601F03DF90028DF
:10680000E1D1C6E753448B42F3D92430019100F023
:10681000DFFD01990028ECD1BBE7A81B03B0BDE860
:10682000F08F73B501220DF10701D0E9045604463B
:10683000FFF749FF01280ABF9DF807004FF0FF301E
:10684000C4E9045602B070BD37B5436913F4F07F54
:106850000446C3F3431500D099B901220DF1070195
:106860002046FFF730FF40B2012802D0002003B0DD
:1068700030BD63691F33A0686361303000EB4510A1
:10688000F5E72033F7E72DE9F04102780769044680
:106890000D4662B14069884202D019B92161656133
:1068A000012006E0160706D5E3698B420BD227616B
:1068B0000020BDE8F081910605D5A3681B89B5EBE2
:1068C000431FECD9F3E7D4F808C09CF80660431ED8
:1068D00006F109016E1ECB40CE40B34200D898B9F4
:1068E00053064CBFDCF82030236A236104F1100802
:1068F000002ED4D02169A068424600F0BAFD0028DD
:1069000006F1FF36F4DCD2E7F61AEFE7F8B50F46EA
:1069100004461546002124221E4607F0B8FBB8683D
:10692000A060A58005F00F053B6AE3606A0100EBFB
:10693000451595F83B301F0744D403F01703237027
:1069400095F83B1011F0180F04BF43F008032370B3
:106950009DF81830E37006F00303012B2CD0022BB6
:1069600028D07BBB71052DD40123A370A1788B07A0
:1069700004D52378DF0625D4DD0723D4B31123F013
:106980007F0306F008052B430B43A370C36AA36182
:106990008318B3F84420B3F84A1041EA0241720563
:1069A00013D559B9A37843F00403A370730410D42A
:1069B0000120F8BD0323D8E70223D6E700F0F9FD54
:1069C0000028EFD100202070F3E72162DB6CE36147
:1069D000ECE7E1692046FFF756FF0028E8D1F1E730
:1069E00038B5037804460BB9012038BD83785A07BF
:1069F00023D50121FFF752FE054628B9637843F0FD
:106A0000010363700020F0E70378E52BF6D02378CC
:106A10001B0744BFE369C361236A4383638C83829A
:106A2000094B1B682BB100F11601183098472B8BCE
:106A30006B82A37823F00403A370A068FFF7D8FD4E
:106A40000028DBD0D0E700BF38E6032010B50446AD
:106A5000FFF7C6FF0023237010BDF0B593B01F46AB
:106A6000002309930378019206460C4613B10020D7
:106A700013B0F0BD0B7813F0700FF8D013782F2BF4
:106A800012D1019A13782F2B02D101320192F8E72B
:106A9000A1681BB93046FFF710FEE9E709A8FFF728
:106AA00091FD0028E3D009AC019801AA03A900F0E8
:106AB00031F90028DBD0019B1B789BB1002303AA8E
:106AC0002146304600F0BAFA0028D0D035460FCD26
:106AD00009AC0FC40FCD0FC42B6823603046FFF7FD
:106AE000B5FFE0E73B4603AA2146304600F0A6FA90
:106AF000BEE700B58BB000230A460193014601238F
:106B000001A8FFF7AAFF10B101A800F0E1F90BB04E
:106B10005DF804FB2DE9F047037889461907044620
:106B200017465BD583789A0758D51B0751D46369FC
:106B3000DB43BB4252D3B84604F1100A6669B8F190
:106B4000000F00F09180A0684379C6F3080513EAAE
:106B500056260ED16DB92169002946D0524600F063
:106B600088FC00283ADB04D12046FFF74EFD0028C0
:106B700034D02169A06800F076FC3118A06815B9FE
:106B8000B8F5007F3FD2C5F50076464528BF46469A
:106B9000002D36D16269E3699A4234BF0122052291
:106BA000243000F03DFCC8B1284432464946354403
:106BB00007F045FAB5F5007F04D1A068243000F055
:106BC00007FC58B1636933446361B144A8EB06081C
:106BD000B4E7C169FFF757FE0028A8D1637843F0F6
:106BE000010363704FF0FF3050E0236A3BB9204649
:106BF000FFF70BFD0028F1D023692362B9E7236179
:106C0000B7E70122CCE7B8F5806FC26A1BD390F8D2
:106C100004C0ACEB0606F3B24FEA582E734528BF0A
:106C2000734691424FEA432607D31A448A4282BFF1
:106C30004FF0FF3280F82450C262A5684A462868A7
:106C400000F0D1FFBDE7914202BF4FF0FF3380F863
:106C50002450C362A3684A46186800F04EFF00281B
:106C6000BCD04FF40076ADE7E269A378B24204D21B
:106C7000E66143F00403A37003E0084A1268002AA7
:106C8000F7D194F90230002B02DB3846BDE8F087DB
:106C90002046FFF7A5FE0028F7D19FE738E603203E
:106CA000042904D800EB4100B0F8010070470A291C
:106CB0009BBF01F1FF3100EB41000131C08884BF6F
:106CC00000EB410080887047411E00F10A0300205C
:106CD000420842EAC01011F8012F52FA80F08B42AC
:106CE000C0B2F5D1704738B5CB6804460D4623B91C
:106CF000BDE838408968FFF7E0BC2422002107F096
:106D0000C6F9102301202370A070AB68A360EB6864
:106D1000236238BD2DE9F047064610F8013B202BD1
:106D2000FAD06A4D8E600024335DC3B12F2B16D08C
:106D30005C2B02D10020BDE8F087A3F12200C0B295
:106D40001D2803D825FA00F0C007F3D403F0BF00D4
:106D50003C28EFD0203B5E2BECD80134E4E733191C
:106D60001846074610F8015B202DFAD02F2DF8D0D9
:106D700017604CB113F8012D2E2A01D0202A01D121
:106D8000013CF6E7FF2CD5DC4FF02033C1F8113081
:106D90004C60C1F80D304B614FF0000816F8083018
:106DA0002E2B01D0202B02D108F10108F6E7B8FA0A
:106DB00088F04009651E6B1C02D0735D2E2B14D128
:106DC0004FF0000907274A46CA464FF0080EA04573
:106DD00068DA16F80830202B03D02E2B07D1A845EF
:106DE00012D0002008F10108F1E7013DE3E7222B72
:106DF00008D07C2B06D0A3F12A0CBCF1050F0AD8D1
:106E00002D2B12D0A8455BD10A2F4AD00A27082281
:106E10004FF0100EE6E7A3F13A0CBCF1050FF1D9E3
:106E2000A3F15B0CBCF1020FECD9A3F1210CBCF176
:106E30005D0FE7D8A845E7D0BA4230D8A3F1610C7E
:106E4000BCF1190F1AD8203B4EEA0909DBB25FFAF0
:106E500089F902F1010C5FFA8CFC0A44BCF1060FBF
:106E6000537301D881F80CC06246BBE7A84518DC13
:106E7000A8460A2708224FF0100EB2E7A3F1410CF2
:106E8000BCF1190F98BF4EEA0A0AE2E70B7B01201A
:106E9000087019447E234B7331238B734BE70A2F01
:106EA000E4D100204B7B202B3FF444AF0028EDD0F1
:106EB0001AEA090F18BF4FF0020981F800903AE76B
:106EC000BA42ECD800205F23C3E700BF01010031C4
:106ED0002DE9F0418AB00023019303781907044695
:106EE0000AD583789A0707D5016A39B90121204666
:106EF000FFF7D4FB054638B9002048E0806800F071
:106F000058FB0028F2D1F7E7FFF7DEFEE5272F70E8
:106F1000002306462370A068FFF76AFB0028EBD029
:106F2000E378002B33D0214601A8FFF7DCFE0028D0
:106F3000E2D00125E3785FFA85F84345DCD3A188E8
:106F4000491B490101A8FFF79EFC0028D4D000216D
:106F500001A8FFF779FC0028CED0C37A0F2BCBD144
:106F6000027802F01F034345C6D1437BB342C3D12D
:106F70000770A16891F8243043F0010381F82430B0
:106F8000530605F10105D5D5A068FFF731FB0AB01E
:106F9000BDE8F0812DE9F84391F80C9006460C46C7
:106FA00002257E2701F10D086168A2686B189BB26B
:106FB0001144914206D012F8010B03EB43134340F6
:106FC0009BB2F6E7B9F1030F28BF4FF0030909F1AF
:106FD0000402D2B203F00F01A018013A0929D2B27B
:106FE00094BF30313731914541734FEA1313F1D1DA
:106FF00004EB090300215F733046FFF744FC0121D5
:107000003046FFF721FC014628B97078B0FA80F0CD
:107010004009BDE8F88303786BB1C37A1B07EED44F
:107020000B22404606F0FBFF0028E8D10135ADB247
:10703000642DB9D1EDE70120EBE700002DE9F04F19
:107040002DED028B8BB00D4606930B78079013F055
:10705000700F174605D100200BB0BDEC028BBDE8C8
:10706000F08F079B1B78002BF5D15368059313789D
:107070009C071FBF059B0C330D22B3FBF2F31ABF15
:107080000133DBB20123002128460393FFF7FBFB0A
:1070900007F10D034FF0000B08EE103ADA465C469C
:1070A0005E46CDF810B0D9466B6901212846C3F37E
:1070B0004F18FFF7C9FB0346002871D16B78002BEE
:1070C000C9D1069B9A05C6D503F00303013B012BEA
:1070D000C1D8049B002C08BF43460493039B9C42E9
:1070E000C0F0F180B9F1000F40F00A81049B2846FE
:1070F0005901FFF7C8FB0028ADD0039B03F1FF390E
:107100005FFA89F94E464FF0000A4FF00F08002E43
:1071100000F00D8100212846FFF796FB0446002869
:1071200099D0AA6892F824304E4543F001030CBF71
:1071300046F0400BB34682F8243080F800B080F867
:107140000B8080F80CA007F10D00FFF7BDFD84F85F
:107150001AA0607384F81BA00BF01F030D22013BE3
:10716000D7F808C0534300220599994240F2D080D5
:107170001CF80310042A5FFA82FE02F1010000F2FB
:10718000CD8004EB4202A2F801100D2803F10103A7
:107190000246E9D1013EF6B2B9E74FF0010983E7B3
:1071A0000278E52A00D07AB90499002C08BF41463C
:1071B000049103998C423CBF0134E4B2002A80D090
:1071C000E52A05D100266FE703998C4238BF0024D9
:1071D0002E2AF7D0D97A0F294AD116BB12F04006D1
:1071E0003FF462AF02F01F0693F80DB0B2460D22D5
:1071F0000AF1FF3802FB08F8059A4245E2D9A2EBF2
:1072000008020892002202EB080109911846D1B247
:10721000FFF746FD08998A420DD1002818BF0026C5
:1072200042E70AF1FF3A5FFA8AFA5245CAD15A7B1D
:107230005A45DCD0C6E7FF28C4D85FFA80FEAEF11D
:1072400041011929B9689CBF0EF120005FFA80FE48
:1072500008460999415CA1F1410CBCF1190F9CBF92
:107260002031C9B27145ADD101320D2ACBD11BE716
:107270000807A7D45EB1BAF1010F7FF4ECAE18464F
:10728000FFF722FD58457FF4E6AEB1460EE018EE5A
:10729000101A0B22184606F0C2FE00287FF404AF35
:1072A00097F8009019F001097FF477AF069B190554
:1072B0003FF5D1AE069B0798CDF80090424629468F
:1072C000FFF724FBC8E600212846FFF7BDFAA0B966
:1072D0006B78002B7FF4BFAE2846FFF7A1F900289A
:1072E0003FF4B9AEAB681B79012B3FF6FBAE039BB5
:1072F0001034E4B2A342EFD8F4E60134E4B2EDE690
:1073000039462846FFF746FE00287FF4EFAEA2E696
:1073100014BF4FF0FF31002189B22BE7BEF10A0FF5
:1073200094BF04EB420204EB400291802DE731460A
:107330002846D5F81480FFF787FA044600283FF462
:107340008AAE2022314606F0A2FED7F80D30236027
:10735000D7F811306360B7F815302381FB7DA37235
:107360003B7803F0180323730F4B1B689BB104F1A8
:107370000E0104F110009847238A63822383E38976
:10738000E382AA6892F8243043F00103C8F34F184F
:1073900082F824308EE72123237428236374082382
:1073A000A673E373E8E700BF38E6032013B504468D
:1073B000084659B1019106F01EFF23680199DB6868
:1073C0000246204602B0BDE81040184702B010BD8A
:1073D00037B50378DA07044620D54368816800F1A1
:1073E0000C021868019200F088FB019A054618B952
:1073F0000025284603B030BD23789B0704D42378AA
:1074000023F001032370F4E7D4E901301969014442
:10741000186800F072FB0028F1D1E9E70125E8E7E0
:1074200070B583688B4204460E46154609D0FFF7B7
:10743000CFFF08B9002070BD6B070AD50023237069
:10744000A660227805F003052046154300F80C5B82
:10745000F1E7636804F10C021868314600F0C4FAE1
:107460000028EBD1E6E78379406902399940084466
:107470007047012970B505460C46164602D84FF0F4
:10748000FF3070BDC3698B42F9D3C379202B16D16D
:107490008169022201EBD41100F50C70FFF7C0FFE7
:1074A0000028ECD004F07F0450F8243023F070431F
:1074B000EA699A4226BF336001200020E1E7102BE1
:1074C000DDD1C1F3072381690222194400F50C7054
:1074D000FFF7A6FF0028D2D0E4B230F81430E7E777
:1074E000012938B50C46154601D8002038BDC369BE
:1074F0008B42FAD3C379202B0FD18169032201EB90
:10750000D41100F50C70FFF78BFF0028EDD004F0CC
:107510007F0440F824500120E8E7102BE5D1C1F3A7
:10752000072381690322194400F50C70FFF778FFE7
:107530000028DAD0E4B220F81450ECE72DE9F3414A
:10754000C4688C4205460E46904601D3012701E0EF
:107550000C460027EB690134A34202D2C7B9EC689C
:10756000F4E7A64214D001AA21462846FFF781FF7E
:1075700000280DDBEED0019B002BEBD107B1EC60B6
:107580006FF0704221462846FFF7AAFF074620B950
:107590000027384602B0BDE8F08116B9C8F80040AF
:1075A000F7E7224631462846FFF79AFF0028F5D133
:1075B000EEE773B505460C4601AA21462846FFF7BB
:1075C00058FF061E10DB002221462846FFF788FFE1
:1075D00050B1EB68A34224BF04F1FF34EC60019C7E
:1075E000002EE9D102B070BD0020FBE7012370B589
:1075F0000022C3604FF0FF330446C27100F124063D
:10760000806280F82420C362C0F8340280F83022FF
:10761000C0F838320D46B9B1042901D9002070BD37
:1076200011463046FFF7FCFE0028F7D000EB0513AB
:1076300093F8AE315B06F1D105F11B0100EB0110AF
:10764000D0F80650002DE9D0002229463046FFF739
:10765000E7FE0028E2D0B0F80B30B3F5007FDDD1B3
:10766000037C022BDAD1C389002BD7D0417B217157
:107670004B1E63710023A37109260123994207D091
:10768000013ECBD0A2795B000132DBB2A271F5E7FB
:10769000C18A01B9416A2161C3892B44A361B0F851
:1076A0001120228103EB41032362B0F8111049013C
:1076B00001F2FF1103EB51236361B0F8132002B90B
:1076C000026AE91AA3791144D9404B1CE36140F6E0
:1076D000F473994202D80C23E3719FE74FF6F473D9
:1076E000994285BFC36A236210232023E3710120DE
:1076F00095E700F0CBBA00F0AEBA000070B50E4EC0
:107700000D46144601F0F0FC3368C01A0B4B98424A
:1077100008D901F0F1FC0A4B186001F0C9FE01F034
:10772000E3FC306001F0E8FC80B2401BA042D4BF13
:107730000020012070BD00BF40E60320A0860100AC
:1077400028E7032038B5057A04464DB9406800F0B3
:107750006BFA63682946187D05F0FDFC012323724E
:1077600038BD10B5037A04466BB143680121187D1A
:1077700005F0F1FC6068FF21FFF7BBFF606800F0D7
:1077800067FA0023237210BDF8B504460D4616466D
:1077900001F0B2FC87B26068FFF7ADFFFF286072AE
:1077A0000ED14FF47A7239462046FFF7A7FF002822
:1077B000F1D0552320462370FFF7D3FF0020F8BDFA
:1077C000FE2801D05023F5E760683246294600F0D4
:1077D00047FA607208B16023ECE76068FFF78BFF3F
:1077E0006068FFF788FF0120E9E770B504460E46A0
:1077F00001F082FC85B2324629462046FFF77EFF23
:1078000030B96068FFF777FFFF28F4D1012070BD21
:107810000020FCE7F7B5037A019204460D460BB948
:10782000FFF790FF25B14FF496712046FFF7DDFF7B
:10783000606845F04001FFF75CFF032601AFB95DCA
:107840006068FFF756FF013EF9D2002D60680CBF5B
:1078500095218721FFF74DFF6068FFF74CFF0B254F
:107860006068FFF748FF0306607203D5013D15F01D
:10787000FF05F5D103B0F0BD70B504460D461646C0
:1078800037210022FFF7C6FF324629462046BDE8D1
:107890007040FFF7BFBF00002DE9F04100250572E1
:1078A000057085724160044690461E4601F024FC36
:1078B00041460746606800F0BBF96368494A1D729B
:1078C0000125DA601D822046FFF73CFF63682946E8
:1078D000187D05F040FC0A256068FF21013DFFF797
:1078E00008FF15F0FF05F7D163682946187D05F0FC
:1078F00032FC0A25002211462046FFF78BFF0128A3
:10790000804618D0013D15F0FF0507D12023204601
:107910002370FFF726FF0020BDE8F0816068FD219D
:10792000FFF7E7FE4FF402786068FFF7E4FEB8F176
:107930000108F9D1DEE74FF4D57208212046FFF7A0
:1079400069FF052814D184F80A800025BFB22A46B1
:1079500029212046FFF790FF0246D8B14FF4FA6282
:1079600039462046FFF7CAFE0028F0D04323CEE771
:1079700004256068FFF7BFFE013D15F0FF0560724A
:10798000F7D1AA2804D10223A3724FF08045DDE786
:107990002523BCE7A37A022B18D13A212046FFF712
:1079A00039FF08B13723B2E76068FFF7A4FE00F0A3
:1079B000C000C02804BF0323A3726068FFF79BFECA
:1079C0006068FFF798FE6068FFF795FE2046FFF7B6
:1079D000C8FE63683079B168B2891A821872D960BA
:1079E000012099E790D0030038B5837A032B18BFA4
:1079F000490215460A4611210446FFF70BFF30B134
:107A0000302323702046FFF7ACFE00250BE029460B
:107A10004FF400722046FFF7B7FE05460028F1D06C
:107A20002046FFF79EFE284638BD10B5837A032B0B
:107A30000A4618BF4A0212210446FFF7EBFE30B196
:107A4000312320462370FFF78CFE002010BD01205B
:107A5000FCE710B500220C210446FFF7DBFE30B135
:107A6000282320462370FFF77CFE002010BD20460F
:107A7000FFF777FE0120F9E7F8B5044616461F46E2
:107A8000FFF7D3FF68B10025ABB29F4206EB45215B
:107A900009D94FF400722046FFF776FE0135002821
:107AA000F2D10020F8BD2046BDE8F840FFF7D1BF75
:107AB00038B5044615464068FFF71BFE4FF40072C8
:107AC0006068294600F0E6F86068FF21FFF711FEC4
:107AD0006068FF21FFF70DFE6068FFF70CFE607223
:107AE00000F01F00052806D0572320462370FFF71B
:107AF00038FE002038BD0120FCE770B5837A032BE7
:107B000018BF490215460A4618210446FFF782FEAF
:107B1000064630B1322323702046FFF722FE0025AF
:107B20001FE02A46FE212046FFF7C2FF0028F3D0BF
:107B30004FF4FA612046FFF758FE054608B95A236C
:107B4000E9E732460D212046FFF764FE08B12923FC
:107B5000E1E76068FFF7CFFD0028F8D12046FFF786
:107B600000FE284670BD13B501914FF4FA6104463A
:107B7000FFF73BFE019A30B95B2323702046FFF7E5
:107B8000F0FD002005E0FC212046FFF791FF0028D2
:107B9000F4D002B010BD10B5837A032B0A4618BF8B
:107BA0004A0219210446FFF735FE30B1332320463F
:107BB0002370FFF7D6FD002010BD0120FCE738B58B
:107BC0004FF4FA610446FFF710FE054630B956231C
:107BD00023702046FFF7C5FD284638BD6068FD21AB
:107BE000FFF787FDF5E7F8B5044616461F46FFF791
:107BF000D2FF70B10025BD4206EB4521204604D0DE
:107C0000FFF7B1FF28B10135F5E7BDE8F840FFF710
:107C1000D6BF2046FFF7A5FD0020F8BD014B01228D
:107C20001A70704744E60320011D006804F036BE58
:107C300010B504460175006804F002FE207D0121A4
:107C400005F078FA207D0121BDE8104005F083BAE7
:107C5000006804F009BE0068FF2104F08DBE00003A
:107C600037B51346074A00920025074C0068257077
:107C70000A46294604F086FE2378002BFCD000201B
:107C800003B030BD1D7C0B0044E60320006804F007
:107C900073BE000037B51346064A00920025064C15
:107CA000006825702A4604F06DFE2378002BFCD076
:107CB00003B030BD1D7C0B0044E603202DE9F04FDE
:107CC00085B01F46BDF93880BDF83C30A8EB0209ED
:107CD000A7EB010AB9F1000FB8BFC9F10009BAF169
:107CE000000FB8BFCAF1000AD14583460C461546BD
:107CF00004DD3A462C4647460D469046BC4205DD1B
:107D00002A464546904622463C4617463E1BB2B29E
:107D10000092A8EB050282EAE271A1EBE271C6F3E0
:107D2000C03202FA86F64545B4BF01224FF0FF3259
:107D3000019176100292BC421CDCDBF80020039318
:107D4000D145D2F81880C7BF294622462A46214687
:107D50005846C047019A039BB61AB1B236B2002EFC
:107D600005DA029A1544009A56182DB236B201343B
:107D700024B2E0E705B0BDE8F08F704710B40468A6
:107D80002469A4465DF8044B604730B40468BDF82C
:107D900008500295A46BA44630BC604730B4046818
:107DA000BDF808500295E46BA44630BC604770B43F
:107DB000BDF90C50BDF810600468CDE90356246C81
:107DC000A44670BC60472DE9F3411C460368BDF82A
:107DD00020805B6905461646013C34440F4624B2B8
:107DE00098472B68CDF8048000949C6A28463B464F
:107DF00032463946A0472B68DB6A284602B0BDE808
:107E0000F04118472DE9F3411D460368BDF8208075
:107E10005B69044617460E469847CDE9007822680C
:107E20006B1E3344956A20461BB23A463146A8473A
:107E30002368DB6A204602B0BDE8F04118472DE90F
:107E4000F3471E460368BDF928905B69BDF82C8096
:107E50000C460546174698472644B4422B680BDA71
:107E6000CDF80080D3F820A021464B463A4628465C
:107E70000134D04724B2F0E7DB6A284602B0BDE8FF
:107E8000F047184713B502680191B0F90E10009140
:107E9000146CB0F90C3000221146A04702B010BD9E
:107EA0002DE9F74399421646BDF92870BDF82C908C
:107EB000026880460D461C4613D1BE42C8BF3346F9
:107EC000CDF82890C4BF3E461F467B1C946B9B1B7D
:107ED0001BB2324629464046A44603B0BDE8F043F3
:107EE0006047BE420AD19942C2BF0B4625461C4696
:107EF000631CCDF82890D46B5B1BE9E75369984766
:107F0000CDE90079D8F8003040469F6A32462346D2
:107F10002946B847D8F80030DB6A404603B0BDE8D0
:107F2000F04318472DE9F3471D460368BDF82C8040
:107F30005B69BDF9289004460F46164698472368AA
:107F4000CDF80080D3F824A032462B46394620468F
:107F5000D0472368CDF8008009F1FF323244D3F8CE
:107F600024A039462B46204612B2D0472368CDF8CC
:107F70000080D3F820A032464B4639462046D047F1
:107F80006B1ED9192368CDF800801D6A20464B4628
:107F9000324609B2A8472368DB6A204602B0BDE832
:107FA000F0471847704701F00303B0F90A208376C1
:107FB000C907B0F9083059BF8381C2818281C3816A
:107FC0007047000030B54281C281074A074D0181E8
:107FD000002481814FF0FF31C0E905124460056043
:107FE00004610477046230BD01010001C40E0C007D
:107FF0002DE9F04F89B0CDE902120268BDF9488041
:108000000493BDF94C3052690593BDF850A0044665
:10801000904718F107024FF0000648BF08F10E0222
:108020004FEAE20B01963546039B019ABDF9041015
:108030009A18059B8B4212B227DD049B33444FF004
:10804000000906930FFA89F080451FFA89F117DDC0
:108050004F0705BF069BC0106D001D5C18BFEDB239
:108060002B060AD5029B206807921944836909B23E
:108070001F4620465346B847079A09F10109E1E730
:10808000019B013301935E44CEE72368DB6A2046FF
:1080900009B0BDE8F04F18472DE9F04F2DED028BE8
:1080A00091B01646026ABDF874809DF878509DF82C
:1080B0007C4003911F46BDF8703004938346002A2C
:1080C00040F0C580B0F90C308B4240F34C81B0F9E0
:1080D0000E30B34240F34781062313FB0513002BF8
:1080E00040F3418106EBC403002B40F33C81037F46
:1080F0001BB9AF2F84BF0137FFB2DBF80030584601
:108100005B6998470522099200220592984A07EB7D
:108110008703D3180C93B3B20693059A0C9B9B5C10
:108120000793ABB20B93BDF80C300893039B02FB93
:1081300005F919FA83F90FFA89F308EE103A0823C2
:108140000A93039B02EB030A4FF000090FFA8AFA25
:10815000079ADBF80030D20752D5012D1FFA89F2B9
:108160003ED1012C3CD19B6906991F46049B0A44D1
:1081700012B251465846B84709F101034FFA83F944
:10818000079B5B0807930A9B013B13F0FF030A93CD
:10819000DED1059F01377BB20593099B013B13F0AC
:1081A000FF030993B9D1049B43450FD0012DDBF8A0
:1081B00000303BD1012C39D10899CDF80080053130
:1081C0001C6A3246082309B25846A047DBF8003043
:1081D000DB6A584611B0BDEC028BBDE8F04F184782
:1081E000069914FB02F20A44049901910094DB6998
:1081F00018EE101A1F4612B22B465846B847BBE776
:10820000049A4245B8D0012D1FFA89F207D1012CFA
:1082100005D19B6906991F460A444346A8E706997B
:10822000CDF8048014FB02F20A44DFE70B9ACDF884
:10823000048002EB8201089AE4000A44114600948B
:10824000DC6932462B4609B25846A047BEE7137A8E
:10825000516812680B92FF1AFFB201EBC70331F8A5
:10826000372006929A780992DA780C92012D93F9C8
:10827000052093F906A00A9201D8012C57D9BDF91F
:10828000283008930FFA8AF30793DBF8003058463A
:108290005B699847B3B24FF000080E931AFA86F361
:1082A000C14647460F930C9B9F428FD2079B0E9A65
:1082B0003B4403FB0423002205920F9A1BB202EBFE
:1082C000070A08EE103A0FFA8AFA4346099A059906
:1082D000914241D25A1CD2B25B070D9207D1069B44
:1082E00006990B9A01339BB212F80190069319F08C
:1082F000800F12D0012DDBF80030BDF80C101AD120
:10830000012C18D10A9A9B691144059A11441E4602
:108310005246049B09B25846B047059E0136F3B257
:108320004FEA490905935FFA89F90D9BCEE70023CF
:10833000CDE90733A9E70598089A024402FB051125
:10834000049ACDE90042DB6918EE102A1E4609B2F4
:108350002B465846B047E0E7099B013798445FFA3F
:1083600088F8FFB29FE711B0BDEC028BBDE8F08F3B
:10837000BC090C00F0B5026A85B004460B46002A21
:1083800034D10A2908D1438A0282427E03EBC20318
:108390006382012005B0F0BD0D29FAD0E17E007E98
:1083A000657E71B1B4F91060062111FB0061B4F96A
:1083B0000C60B142C1BFB4F91210228201EBC502B8
:1083C0006282E28A0192A28A0092CDE90205B4F9A2
:1083D0001220B4F910102046FFF75EFE237E228A99
:1083E00003EB430302EB43032382D2E70A2907D1BD
:1083F00000230382417E927A438A01FB0233C7E75E
:108400000D29C6D0157AA942C3D3517A9942C0D357
:1084100051685D1BEDB201EBC505A87828B3E9787A
:1084200019B3E17E267E677E91B195F90510084467
:10843000B4F9101006FB0011B4F90C00814207DDFD
:1084400000202082B4F91210927A02FB0712628295
:10845000E28A0192A28A0092CDE90267B4F9122061
:10846000B4F910102046FFF717FE2979227E238ADF
:1084700001FB0233B8E7012938BF012101764176BB
:108480007047000010B5044B03600446C06A08B191
:1084900001F0A6F8204610BDBC130C0010B5044630
:1084A000FFF7F0FF20465021FBF7F9FD204610BDF5
:1084B000002910B54BDBB0F90C408C4247DD002A97
:1084C00045DBB0F90E40944241DD847E022C1FD082
:1084D000032C26D0012C04D10489D24314440A462B
:1084E00021B2012B23D0022B32D083BB002A1346AA
:1084F0000489C06AB8BFD31DDB1013FB041102F05E
:10850000070201239340425C22EA030242541EE028
:108510000489013C611A4489D243224409B212B24F
:10852000DFE74489013C641A114622B2D9E7002AE8
:1085300004891346B8BFD31DDB1013FB0411C36AB3
:1085400002F0070001228240585C02435A5410BDD9
:10855000002A13460489C06AB8BFD31DDB1013FB81
:10856000041102F00702012303FA02F2435C5A40AD
:10857000CCE7000070B504461D460026FFF722FD3B
:10858000114B2360666215B904F028FE0546FF23EF
:1085900084F8333084F836309DF9103084F8373061
:1085A0000A4BA363012384F83C30059BA3644FF678
:1085B000FF72069BA286C4E90A562664A4F84460AA
:1085C000E364204670BD00BFBC130C0074090C00AE
:1085D000F8B50446806A0D4690B194F9301003F066
:1085E00023FFA06A036800219B689847A06A03687C
:1085F00029469B689847A06ABDE8F84003F01BBF76
:1086000094F93530014698B204F0A5FD606A20B1B6
:108610002946BDE8F84004F0AFB90826802794F950
:10862000330005EA070180B204F095FD94F93400A7
:10863000012180B204F08FFD94F93400002180B252
:1086400004F089FD013E4FEA5707E8D1F8BD38B57F
:108650000446806A0D4680B1A16C03F0D7FE002D60
:10866000204614BFA721A621FFF7B2FFA06A88B158
:10867000E16CBDE8384003F0C9BE606A18B104F18E
:10868000380104F00BF994F93600002180B204F0AF
:1086900062FDE4E794F93600012180B204F05BFD4D
:1086A000606A18B1BDE8384004F0DEB838BD2DE985
:1086B000F8430446806A0D468F1840B394F9301091
:1086C00003F0B2FEA06A036800219B689847012668
:1086D000AF42A06A17D01F2E0CD903F0ACFE94F95C
:1086E0003010A06A03F0A0FEA06A036800219B6816
:1086F00098470126A06A15F8011B036801369B689C
:108700009847F6B2E4E7BDE8F84303F094BE94F965
:108710003530014698B204F01EFDBD4222D0606A99
:1087200015F8019B18B1494604F026F9F5E708262B
:108730004FF0800894F9330009EA080180B204F090
:108740000AFD94F93400012180B204F004FD94F98B
:108750003400002180B204F0FEFC013E4FEA5808CC
:10876000E8D1DAE7BDE8F883B0F90A30DA1D48BF8E
:1087700003F10E02B0F90830C06AD2105A4300214A
:1087800005F085BC2DE9FF411E46C36A9DF828808F
:1087900004460F461546C3B12046FFF7E5FFB4F97E
:1087A0000A00B4F90810202821DC202301222038F7
:1087B000CDE9013200EBD07073237339009301EBE4
:1087C000D171894B40F34F0221E0B0F90A30D81D36
:1087D00048BF03F10E00B4F90830C010584300F050
:1087E000F7FEE0620028D7D104B0BDE8F081403840
:1087F000C0F3C03202FA80F240230120CDE90130FB
:10880000522352390093794B01EBD171521020461B
:1088100041F34F01FFF7ECFBA06A84F831700028A8
:1088200078D0002D74D1B4F90A30202B0CBF3C2530
:108830003D2584F83050B8F1000F01D003F0EAFD77
:10884000FEB194F9370000281BDB012180B204F04F
:1088500071FC94F93700012180B204F07CFC012006
:1088600000F01EFF94F93700002180B204F073FC81
:108870000A2000F015FF94F93700012180B204F0BE
:108880006AFCA06A002874D0A16C03F0BFFD04222A
:1088900057492046FFF70BFF61890139C9B22046CD
:1088A000FFF796FE534904222046FFF700FF94F994
:1088B0003130012B0CBF102114212046FFF788FE18
:1088C00004224D492046FFF7F2FEA3684B4A93422B
:1088D0005CD14B4904222046FFF7E9FED92120460E
:1088E000FFF776FE94F93130012B0CBF2221F121E4
:1088F0002046FFF76DFE204642490622FFF7D7FECD
:10890000A06A002863D0E16C03F080FD01206BE7D2
:108910006DB28EE794F93500012180B204F00AFCB3
:1089200094F93600012180B204F004FC94F9360079
:10893000012180B204F00FFC656A3DB1B8F1000F6F
:108940003FF47EAF284603F07BFF79E794F93300CC
:10895000012180B204F0EEFB94F93400012180B2D1
:1089600004F0E8FB94F93400294680B204F0F3FBEC
:1089700066E7606A18B104F1380103F08FFF94F9DB
:108980003600002180B204F0E6FB80E71E4A9342E5
:108990000ED11E4903222046FFF789FE94F931309B
:1089A000012B0CBF9F21CF212046FFF711FE95E739
:1089B000174A934292D1174903222046FFF777FEC8
:1089C00094F93130012B0CBF1021AF21ECE794F961
:1089D0003600012180B204F0BEFB606A002895D009
:1089E00003F042FF92E700BFD4110C00140F0C00FB
:1089F0001C140C0020140C0024140C008000200017
:108A00002E140C0028140C008000400032140C00BE
:108A10006000100035140C0070B5002ABDF810502D
:108A20003DDBB0F90A40944239DD0029BEBF5B1836
:108A30001BB20021B0F90840CE18A642C4BF631A89
:108A40001BB2002B2BDDC06AD61014FB06110144AB
:108A500002F0070001228240012DD2B216D0022D71
:108A60000BD0E5B9D243D2B20B44994217D011F8DA
:108A7000010B104001F8010CF7E70B4499420ED0AE
:108A800011F8010B504001F8010CF7E70B44994233
:108A900005D011F8010B104301F8010CF7E770BD88
:108AA000F0B50029BDF8145076DBB0F90860B1428A
:108AB00072DA002ABEBF9B181BB20022B0F90A402E
:108AC000D718A742C4BFA31A1BB2002B64DDC2F3A0
:108AD000C404C76A16FB041612F00702DBB207EBE8
:108AE000060423D0C2F10802D2B22D4993423CBF02
:108AF0004FF0FF0CA2EB030E895C3CBF4CFA0EFC5E
:108B00000CEA0101012D07D0022D2ED04DB917F826
:108B100006C02CEA010103E017F806C041EA0C0187
:108B2000B955934238D3B0F908100C449A1AD2B20E
:108B3000072A0ED9022D1DD113462178C943217071
:108B4000083BB0F90810DBB2072B0C44F5D802F053
:108B500007020AB3134B012D9B5C1AD0022D1CD0C7
:108B6000D5B9227822EA030315E017F806C081EA96
:108B70000C01D5E7291E18BF01214942C9B213468D
:108B80002170083BB0F90860DBB2072B3444F7D8FA
:108B9000DDE7227813432370F0BD22785340FAE7D3
:108BA0000C140C0014140C0070B41446827EBDF832
:108BB0000C60022A0DD0032A18D0012A11D1028993
:108BC000E443144424B203960A46214670BCFFF7DE
:108BD00067BF42890589E44319441444691A24B2E1
:108BE00009B20396224670BCFFF716BF45891944A7
:108BF000691A09B2E7E730B41446827EBDF808501E
:108C0000022A0DD0032A18D0012A11D1E2180489B2
:108C1000A41A24B202950A46214630BCFFF7FCBED6
:108C20000289C9431144E2184489A41A09B224B242
:108C30000295224630BCFFF733BF4289C943114435
:108C400009B2E7E72DE9F8430446806A002842D0DC
:108C5000A16C03F0DBFB474905222046FFF727FD07
:108C6000218901392046C9B2FFF7B2FCB4F90A30B4
:108C7000DE1D48BF03F10E06D4E90A052389F6106C
:108C800013FB06F615FA86F600283AD094F9301050
:108C900003F0CAFBA06A036840219B68984701273C
:108CA000B542A06A24D01F2F0CD903F0C4FB94F95D
:108CB0003010A06A03F0B8FBA06A036840219B68EB
:108CC00098470127A06A15F8011B036801379B68C4
:108CD0009847FFB2E4E7606A18B104F1380103F085
:108CE000DDFD94F93600002180B204F034FAB2E7D9
:108CF00003F0A1FBA06A78B3E16CBDE8F84303F090
:108D000085BB94F93500012180B204F024FAAE420B
:108D1000F0D0606A15F8019B18B1494603F02CFEAB
:108D2000F5E708274FF0800894F9330009EA0801B5
:108D300080B204F010FA94F93400012180B204F0FA
:108D40000AFA94F93400002180B204F004FA013FD9
:108D50004FEA5808E8D1DAE794F93600012180B2E9
:108D600004F0F9F9606A18B1BDE8F84303F07CBD7E
:108D7000BDE8F88338140C0000210A22C0E9001273
:108D80007047002310B50446C171837188B204F0A6
:108D9000FBF908B10323A37100F0AEF9206010BD08
:108DA00038B50C4605461146A0B204F0C3F9214679
:108DB0002846BDE83840FFF7E4BF000010B5064B79
:108DC00003600446006D08B100F056F92046FFF735
:108DD00059FB204610BD00BF48140C0010B50446D6
:108DE000FFF7ECFF20467021FBF759F9204610BD34
:108DF00030B585B004460D4604F0F0F9104A11492B
:108E0000CDE901214FF0FF32802103460092204638
:108E10002022FFF7AFFB0C4B23600023C4E914357D
:108E200004F15800FFF7A8FF04F16000FFF7A4FF6A
:108E300004F16800FFF7A0FF204605B030BD00BF79
:108E4000801A0600A086010048140C0013B50446E1
:108E5000503000F009F9636DD90705D502220421CD
:108E600004F15800FFF79CFF636D9A0705D50022B7
:108E7000032104F16000FFF793FF636D5B0705D5E5
:108E80000222114604F16800FFF78AFF01230093D4
:108E90003C2202212046FFF775FC02B010BD000005
:108EA00008B5024B1B689B68019308BD780203005C
:108EB00008B5024B1B681B6C019308BD78020300C8
:108EC00008B5024B1B685B6F019308BD7802030075
:108ED00008B5024B1B689B6F019308BD7802030025
:108EE00008B5024B1B68DB6F019308BD78020300D5
:108EF00008B5034B1B68D3F88430019308BD00000C
:108F00007802030008B5034B1B68D3F8983001932F
:108F100008BD00007802030008B5034B1B68D3F8B6
:108F2000B430019308BD00007802030008B5034B7C
:108F30001B68D3F8BC30019308BD00007802030021
:108F400008B5034B1B68D3F8C430019308BD00007B
:108F50007802030008B5034B1B68D3F8D83001939F
:108F600008BD00007802030008B5034B1B68D3F866
:108F7000DC30019308BD00007802030008B5034B04
:108F80001B68D3F8E030019308BD000078020300AD
:108F900008B5034B1B68D3F8E430019308BD00000B
:108FA0007802030008B5034B1B68D3F8E83001933F
:108FB00008BD00007802030008B5034B1B68D3F816
:108FC000F030019308BD00007802030008B5034BA0
:108FD0001B68D3F8F430019308BD00007802030049
:108FE00008B5034B1B68D3F80031019308BD00009E
:108FF0007802030008B5034B1B68D3F804310193D2
:1090000008BD00007802030008B5024B1B68DB684E
:10901000019308BD4802030008B5024B1B68DB69D9
:10902000019308BD4802030008B5024B1B681B6A88
:10903000019308BD4802030008B5024B1B685B6A38
:10904000019308BD4802030008B5024B1B689B6AE8
:10905000019308BD4802030008B5024B1B68DB6A98
:10906000019308BD4802030008B5024B1B681B6B47
:10907000019308BD4802030008B5024B1B685B6BF7
:10908000019308BD4802030008B5024B1B685B6CE6
:10909000019308BD4802030008B5024B1B68DB6C56
:1090A000019308BD4802030008B5024B1B685B6DC5
:1090B000019308BD4802030008B5024B1B681B6FF3
:1090C000019308BD4802030008B5024B1B685B68AA
:1090D000019308BD1802030008B5024B1B68DB684A
:1090E000019308BD1802030008B5024B1B681B69F9
:1090F000019308BD1802030008B5024B1B685B69A9
:10910000019308BD1802030008B5024B1B689B6D54
:10911000019308BD1802030008B5024B1B685B6E83
:10912000019308BD1802030008B5024B1B689B6839
:10913000019308BD2C02030008B5024B1B68DB68D5
:10914000019308BD2C02030008B5024B1B681B6984
:10915000019308BD2C02030008B5024B1B685B6934
:10916000019308BD2C02030008B5024B1B689B69E4
:10917000019308BD2C02030008B5024B1B68DB6994
:10918000019308BD2C02030008B5024B1B681B6845
:10919000019308BD2802030008B5024B1B68DB6879
:1091A000019308BD2802030008B5024B1B689B69A8
:1091B000019308BD2802030008B5024B1B68DB6958
:1091C000019308BD2802030008B5024B1B681B6A07
:1091D000019308BD2802030008B5024B1B685B6AB7
:1091E000019308BD2802030008B5024B1B689B6A67
:1091F000019308BD2802030008B5024B1B68DB6A17
:10920000019308BD2802030008B5024B1B681B6BC5
:10921000019308BD2802030008B5024B1B685B6B75
:10922000019308BD2802030008B5024B1B681B6CA4
:10923000019308BD2802030008B5024B1B685B6957
:10924000019308BD6402030008B5024B1B689B68CC
:10925000019308BD6802030008B5024B1B68DB6878
:10926000019308BD6802030008B5024B1B681B6828
:10927000019308BD3002030008B5024B1B685B690F
:10928000019308BD3002030008B5024B1B68DB697F
:10929000019308BD3002030008B5024B1B681B6A2E
:1092A000019308BD3002030008B5024B1B685B6ADE
:1092B000019308BD3002030008B5024B1B689B6A8E
:1092C000019308BD3002030008B5024B1B689B6B7D
:1092D000019308BD3002030008B5024B1B68DB6B2D
:1092E000019308BD3002030008B5024B1B681B6CDC
:1092F000019308BD3002030008B5024B1B685B6C8C
:10930000019308BD3002030008B5024B1B68DB68FF
:10931000019308BD3C02030008B5024B1B681B69A2
:10932000019308BD3C02030008B5024B1B685B6952
:10933000019308BD3C02030008B5024B1B689B6902
:10934000019308BD3C02030008B5024B1B68DB69B2
:10935000019308BD3C02030008B5024B1B681B6A61
:10936000019308BD3C02030008B5024B1B689B6AD1
:10937000019308BD3C02030008B5024B1B68DB6A81
:10938000019308BD3C02030008B5024B1B681B6C2F
:10939000019308BD3C02030008B5024B1B681B6823
:1093A000019308BD4C02030008B5024B1B685B68C3
:1093B000019308BD4C02030008B5024B1B681B69F2
:1093C000019308BD4C02030008B5024B1B685B69A2
:1093D000019308BD4C02030008B5024B1B689B6952
:1093E000019308BD4C02030008B5024B1B68DB6902
:1093F000019308BD4C02030008B5024B1B681B6AB1
:10940000019308BD4C02030008B5024B1B685B6B5F
:10941000019308BD6002030008B5024B1B681B6D79
:10942000019308BD6002030008B5024B1B681B686E
:10943000019308BD2002030008B5024B1B685B685E
:10944000019308BD2002030008B5024B1B685B694D
:10945000019308BD2002030008B5024B1B68DB6CBA
:10946000019308BD2002030008B5024B1B685B6D29
:10947000019308BD2002030008B5024B1B689B6DD9
:10948000019308BD2002030008B5034B1B68D3F805
:109490008830019308BD00002002030008B5034B8B
:1094A0001B68D3F89430019308BD0000200203002C
:1094B00008B5024B1B689B68019308BD440203007A
:1094C00008B5024B1B685B69019308BD44020300A9
:1094D00008B5024B1B681B6A019308BD44020300D8
:1094E00008B5024B1B685B6A019308BD4402030088
:1094F00008B5024B1B681B6B019308BD44020300B7
:1095000008B5024B1B68DB6B019308BD44020300E6
:1095100008B5024B1B685B68019308BD400203005D
:1095200008B5024B1B689B68019308BD400203000D
:1095300008B5024B1B68DB68019308BD40020300BD
:1095400008B5024B1B681B69019308BD400203006C
:1095500008B5024B1B685B69019308BD400203001C
:1095600008B5024B1B689B69019308BD40020300CC
:1095700008B5024B1B68DB69019308BD400203007C
:1095800008B5024B1B681B6A019308BD400203002B
:1095900008B5024B1B681B6B019308BD400203001A
:1095A00008B5024B1B685B6B019308BD40020300CA
:1095B00008B5024B1B681B6C019308BD40020300F9
:1095C00008B5024B1B685B6C019308BD40020300A9
:1095D00008B5024B1B681B68019308BD1C02030001
:1095E00008B5024B1B685B68019308BD1C020300B1
:1095F00008B5024B1B689B68019308BD1C02030061
:1096000008B5024B1B68DB68019308BD1C02030010
:1096100008B5024B1B685B69019308BD1C0203007F
:1096200008B5024B1B68DB69019308BD1C020300EF
:1096300008B5024B1B685B6A019308BD1C0203005E
:1096400008B5024B1B68DB6A019308BD1C020300CE
:1096500008B5024B1B681B6B019308BD1C0203007D
:1096600008B5024B1B68DB6B019308BD1C020300AD
:1096700008B5024B1B681B6C019308BD1C0203005C
:1096800008B5024B1B685B6C019308BD1C0203000C
:1096900008B5024B1B68DB6C019308BD1C0203007C
:1096A0000021FFF7D1BE10B5836804460BB903F063
:1096B0001DFEC3689847A3681BB1032221462046BC
:1096C000984720461021BDE81040FAF7E8BC7047E3
:1096D0007047704770470000064B994210B500F183
:1096E0000C0405D0084603F005FE002808BF00243E
:1096F000204610BD08170C00064B994210B500F12A
:109700000C0405D0084603F0F5FD002808BF00242E
:10971000204610BD08170C00064B994210B500F109
:109720000C0405D0084603F0E5FD002808BF00241E
:10973000204610BD08170C0010B568210446FAF742
:10974000AEFC204610BD10B528210446FAF7A7FC50
:10975000204610BD10B530210446FAF7A0FC204683
:1097600010BD6821FAF79BBC2821FAF798BC30217C
:10977000FAF795BCF0B50025EC1C8C420DD86E1C98
:10978000445D875D974205D12644B14205D31D60F3
:10979000601CF0BD01342544EEE70020F9E700002D
:1097A000024A03490A20FFF72FBE00BFD9900B00E1
:1097B00098140C0030B40D4611461A460368096827
:1097C0002868D3E90043A44630BC6047012A38B575
:1097D000044602D10B68236003E0022A03D0032A67
:1097E0000DD0002038BD08200D68FAF754FC034660
:1097F0000028F0D095E8030083E80300EBE7006859
:109800000028EED00821FAF74AFCEAE710B5836891
:1098100004462BB10322014698470023C4E90233D2
:1098200010BD10B5836804462BB10322014698474A
:109830000023C4E9023310BD10B500238AB02022F2
:10984000CDE902230446084A0092084902AA0120F1
:10985000FFF7E2FD206806490088002322460AB08F
:10986000BDE81040FFF762BBBA140C00AF140C0047
:10987000E9B30B0010B5013802EB410110F8013FCC
:109880001B0903F13004392C88BF03F1370402F8B7
:10989000024B037803F00F0303F13004392C88BF27
:1098A00003F13704914202F8014CE7D110BD10B525
:1098B00004465830FAF740FD04F14800BDE8104076
:1098C00003F0A0B838B503688B4205460C4608D0B3
:1098D00011B14B6801334B60286808B1FAF76AFD93
:1098E0002C6038BDA0F13003DAB2092A01D818463D
:1098F0007047A0F16103052B01D857387047A0F1DC
:109900004103052B94BF37384FF0FF3070470000FC
:1099100010B500230370044B04461868FFF7BCFB26
:1099200001232370204610BD58E6032010B50378AC
:1099300004461BB1024B1868FFF7B6FB204610BD6A
:1099400058E6032082B00346086849686A4603C2A5
:109950006A4603CA18601846596002B0704708B5D5
:1099600082798B799A4206D1062204F058FBB0FA2C
:1099700080F0400908BD0020FCE74FF0FF33036092
:1099800083800020704708B50246002101604160D5
:10999000FFF7F3FF9171104608BD000010B50123D9
:1099A0000361054B024603F1100153F8044B42F8E2
:1099B000044B8B42F9D110BD16170C000B7C13F031
:1099C000FD0330B50DD103610C4B024603F11004C9
:1099D00053F8045B42F8045BA342F9D10B888381FE
:1099E00030BD0123036101F11002034651F8044B1D
:1099F00043F8044B9142F9D1F2E700BF16170C006F
:109A000010B50B460446B1B1012A01F110020AD18A
:109A1000014653F8040B41F8040B9342F9D101239A
:109A20002361204610BD411E12F8010D01F8010FFF
:109A30009A42F9D1F3E7102204F029FBF1E738B597
:109A400004460D46FFF7AAFF00232361A5812046A7
:109A500038BD08B502690B699A4206D1102204F09C
:109A6000DEFAB0FA80F0400908BD0020FCE70000F3
:109A700001232DE9F3410361344B0C4606460246AF
:109A800003F1100153F8040B42F8040B8B42F9D197
:109A900044B32421204604F0DDFB04284FF00005E8
:109AA00023D1ADF8045001AFA51C063415F8020C03
:109AB000FFF718FFB0F1000812DB15F8010CFFF7F3
:109AC00011FF00280CDB023540EA0810A54207F818
:109AD000010BEBD19DF8053033739DF8043073739F
