:02000002B0004C
:1040000000400B0000200C00000006001700050215
:084010000401A30F00000000F1
:0440180034010C0063
:1040200009480A49884208B505D0094A824202D0A7
:10403000121A09F0C6FF0748074A0021121A09F0B0
:10404000E8FF014808BD00BF88DA0320F81D0C0016
:1040500068DC032068DC0320EDE7032070B5074E21
:10406000074C08F02BFAA41BA4080025AC4200D191
:1040700070BD56F8043B98470135F7E7AC1D0C00BE
:10408000D01D0C0001F0E2BC08B502F08FF9BDE8CC
:10409000084008F0CBB905F05BBA05F059BA05F055
:1040A0005FBA000008B5034A03490C2005F06CF91B
:1040B000FEE700BFB18E0B0048010C000078B0FA9B
:1040C00080F0400970470123037070477047037CFC
:1040D00013F008031EBFC36A406A1B1A002BACBF53
:1040E00018466FF000407047014B01221A7070476C
:1040F000DCDE0320704710B510210446FFF7CFFF28
:10410000204610BD10B534210446FFF7C8FF2046F5
:1041100010BD103003F022BC103003F040BB07B5D7
:1041200001220DF10701103003F08BFA01280CBFBA
:104130009DF807004FF0FF3003B05DF804FB10302E
:1041400003F0A6BC07B501228DF8071010300DF161
:10415000070103F09DFC03B05DF804FB436913B154
:1041600083690C301847704713B500210446084690
:1041700004F082FF0023204601A9019304F094FF7C
:10418000019C0CB1012323710021012004F074FF74
:104190002CB1236820469B6898470023237102B006
:1041A00010BD000010B50E4C04F092FE2368C01A3A
:1041B000632813D908F022FD0A4907F0B2FF04F082
:1041C00087FE094B0949206001221A700B78534081
:1041D0000B70074B1B780BB1064B1A7010BD00BF5C
:1041E00050DD03205D010C0088DA032089DA03200A
:1041F000F7DD032036E6032010B5094C04F068FE15
:104200002368C01A632809D904F062FE206008F010
:10421000F5FCBDE81040034907F083BF10BD00BFA7
:1042200050DD03206B010C000B4BD3E90030002262
:10423000834205D0996A252928BF01222C33F7E74C
:1042400042B1064A1378182B04D801331370044B7B
:1042500001221A70704700BFB4DC032088DC032001
:1042600035E60320012A02D1016000207047022AAE
:1042700004BF0B680360F8E70368184737B50446C6
:1042800080680D4630B10023CDE900331A46022183
:1042900004F012FFA06830B10023CDE900531A46A4
:1042A000194604F009FF03B030BD0EB403B503ABEB
:1042B000002153F8042B019307F05BFF02B05DF877
:1042C00004EB03B07047000073B50446084622793A
:1042D000A36832B1A3B90B4902B0BDE8704007F042
:1042E0000DBF094A267B094D0949647B012E18BF81
:1042F0002946CDE900140749FFF7D7FF02B070BD8A
:10430000054AEFE78D010C0084060C0089010C00C2
:1043100085010C00A3010C007C010C000EB403B558
:1043200003AB012153F8042B019307F022FF02B0E5
:104330005DF804EB03B0704710B58368044613B111
:10434000032201469847204610BD000037B5134BA5
:10435000036004468068C8B100256FF00043CDE9D2
:10436000003502212B462A4604F0A6FEA068294605
:1043700004F0D2FE237903F0FF0513B104F074FEBC
:10438000F8E7A068294604F087FEA56004F10C0058
:10439000FFF7D2FF204603B030BD00BFF0080C008D
:1043A00010B50446FFF7D2FF20461C21FFF777FE29
:1043B000204610BD10B54368013B0446436063B915
:1043C00003689B689847A368013BA3602BB92368E7
:1043D0002046DB68BDE81040184710BDF0B58C469C
:1043E00000251449057104468560016092E80300C8
:1043F00085B002AF04F10C0687E8030096E80300DD
:1044000082E8030097E8030086E803009168A0694A
:104410006161D1689560D060A161CDE90035064A3F
:104420002346614604F1080004F02EFE204605B044
:10443000F0BD00BFF0080C0069410B0013460A46AE
:104440000149096803F0C7BA48E60320F0B595B002
:10445000044600AF0D461E22002107F1300009F08E
:10446000D8FD2068616807F1280303C397F8283056
:10447000662B6E4668D13E4907F1280009F04DFED3
:1044800000283ED13B48037C13B1103003F09CFA66
:10449000234607F1280204F12005186859681446DC
:1044A00003C40833AB422246F7D1186820609B88CA
:1044B000A3801E2207F130012F4809F07AFE002365
:1044C0002D4A2E497B60381D03F085FA48B108F06B
:1044D00095FB2B49284AFFF721FF2749274803F07E
:1044E000C6FA08F08BFB244A2649FFF717FF22493A
:1044F000254844F20222FFF7A1FF5437B546BD46D6
:10450000F0BD224907F1280009F007FE68B908F05C
:1045100075FB194A1E49FFF701FF164B1B7C002B48
:10452000EBD0194803F050FAE7E71A4907F12800E1
:1045300009F0F3FD40B908F061FB174907F0F1FD00
:10454000164B01221A70E8E7EB1D23F00703ADEBD1
:10455000030D2A462146684609F033FD69460548A1
:1045600007F0CCFD08F04AFB694607F0DAFDC4E726
:10457000C0010C00F8DD03202CDE0320ECE5032055
:10458000C9010C00FC010C0008DE032019020C001C
:1045900022020C003A020C0043020C004ADE032007
:1045A00030B585B01B4B009313798DF804309368B8
:1045B000029300F58C659389ADF80C3004460A46E9
:1045C0006B4600F26C41284603F09EFD10B90020B6
:1045D00005B030BD256004F23C45284603F0F4F9EF
:1045E0000121204603F03AFC014668B121462846E5
:1045F00003F021F80028EAD094F83C3413F0700F4F
:10460000E5D0054B1D60E3E7204603F027FC0028BA
:10461000ECD1DCE7DC080C0048E6032008B508F024
:10462000A3FD0849FFF741FE142007F0D3FE08F070
:104630009BFD0549FFF739FEBDE80840142007F04F
:10464000C9BE00BF83060C0096080C002DE9F04798
:1046500084B002AF804691461E460D4609F08DFD9E
:10466000093020F00701ADEB010D404609F085FD52
:1046700002AC294997F828A003464246204604F098
:104680007FFF08F0BBFA214607F04BFDBAF1000F9F
:1046900001D1042D0DD1214B21491B788DF800301B
:1046A00038463C23224608F067F8786808B1FFF7DF
:1046B00081FEB9F1000F01D1012D21D105F0CCFE11
:1046C00005F077FFE0B1204609F057FD073020F0F4
:1046D0000700E846ADEB000D204609F04EFD0DF158
:1046E000080902462146484609F06BFC204609F0BD
:1046F00044FD0023024649460A4805F047FDC546E9
:104700000EB9022D04D108F02FFD214607F009FD56
:104710000837BD46BDE8F08759020C00FCDC0320D9
:1047200060020C00CCDE03202DE9F0410E4D0F4F4E
:10473000D5E9004888B0A04513D02379E67814F86D
:104740002C2B0393394605A804F01AFF039B00960F
:104750000122002105A8FFF779FF6B682C3B6B60F5
:10476000E9E708B0BDE8F08198DC032068020C009E
:1047700010B5D0E900420648121B92104243914204
:1047800002D3044808F058FD2C2000FB014010BD66
:10479000A38B2EBA71020C002DE9F04F3D4C87B06F
:1047A00004F096FB2368C01A632870D908F026FA33
:1047B000394907F0B6FC04F08BFB384B206001222E
:1047C0001A70374B374A1C788CB113683648197801
:1047D00004788C425BD054689C4258D01A78057893
:1047E000954204BF0A4601702C331146F4E7D2E922
:1047F0000078DFF8B490DFF8BCA0DFF8BCB0B845B3
:1048000045D03A7899F800309A422ED1DAF8006013
:104810000FCE6D460FC596E8030085E8030008F04B
:10482000EDF90DF10D0107F07CFC9DF80A5075BB08
:104830009DF80930E3B108F0E1F91C4907F071FC7B
:1048400021461848FFF794FF019BC55408F0D6F99C
:10485000214605461348FFF78BFF15490278284685
:10486000FFF75CFD01238BF8003001342C37C6E7DD
:1048700021460C48FFF77CFF009A9DF80B10835CE3
:1048800099423EBF9DF808105B1A8354EAE707B0CF
:10489000BDE8F08F50DD0320BB020C0088DA032056
:1048A00089DA0320B4DC03204DDD0320C9020C00AB
:1048B000E4020C00A4DC0320F7DD03202DE9F04F17
:1048C0003F4C87B004F004FB2368C01A63281DD94D
:1048D00004F0FEFA206008F091F93A4907F021FC53
:1048E000394B01221A70394B1C78394BACB15C68DA
:1048F000384D14F82C2C2878824207D01B680022EF
:104900009C4203D013F82C1B1AB1297007B0BDE8E4
:10491000F08F411A4A424A41F2E7D3E90078DFF8C2
:10492000B490DFF8BCA0DFF8BCB0B845EED03A7860
:1049300099F800309A4230D1DAF800600FCE6D4617
:104940000FC596E8030085E8030008F057F90DF15C
:104950000D0107F0E6FB9DF80A30002BD6D19DF83B
:104960000930EBB108F04AF91B4907F0DAFB2146A0
:104970001748FFF7FDFE019B0122C25408F03EF9E3
:10498000214605461248FFF7F3FE144902782846EF
:10499000FFF7C4FC01238BF8003001342C37C4E747
:1049A00021460B48FFF7E4FE009A9DF80C10835C4B
:1049B000994282BF9DF808105B188354EAE700BF54
:1049C00050DD0320BB020C0088DA032089DA0320C3
:1049D000B4DC03204DDD0320C9020C00E4020C000E
:1049E000A4DC0320F7DD032010B5D0E9004206481F
:1049F000121BD2104243914202D3044808F01CFC1F
:104A0000182000FB014010BDABAAAAAA71020C003D
:104A100010B50F4C04F05CFA2368C01A632815D94E
:104A200004F056FA0B4A206013780BB1013B137067
:104A300011780948FFF7D8FF084B186008F0DEF836
:104A4000074907F06EFB074B01221A7010BD00BF2B
:104A500050DD0320F5DD03208CDC0320A4DC0320E3
:104A6000F7020C0088DA032010B50F4C04F030FA7E
:104A70002368C01A632816D904F02AFA0B4A20606A
:104A800013780B48022B9CBF013313701178FFF78A
:104A9000ABFF084B186008F0B1F8074907F041FB7D
:104AA000064B01221A7010BD50DD0320F5DD0320F6
:104AB0008CDC0320A4DC032002030C0088DA032032
:104AC0002DE9F74F4368D0F800A00193A3EB0A0447
:104AD000414BA4105C43414B9C4281468B46164699
:104AE00002D13F4808F0A5FB012C224638BF012225
:104AF000A418A1EB0A0729D254B39C4228BF1C4634
:104B00002C206043FFF7C7FA804618EB070507D053
:104B10000FCE0FC50FCE0FC596E8070085E807003A
:104B2000C446D646F34515D0BCF1000F09D07646F1
:104B30000FCE65460FC50FCE0FC596E8070085E876
:104B400007000EF12C0E0CF12C0CEBE71C46D7E7FE
:104B5000A046DAE7DFF88CE0BF080EFB07F72C234E
:104B600027F040475F430AEB070B1F4408EB07039E
:104B700000939C465F46019B9F420CF12C0C0CD08D
:104B80003E460FCEACF12C050FC50FCE0FC596E8F3
:104B900007002C3785E80700EDE7A7EB0B07BF08F8
:104BA0000EFB07FE009B2EF0404E2C2707FB0E3716
:104BB000BAF1000F06D0D9F808105046A1EB0A014F
:104BC000FFF76DFA2C2000FB0484C9E90087C9F8BF
:104BD000084003B0BDE8F08FA38B2EBA2EBAE802CE
:104BE0000F030C00A38B2E3A70B50A46D0E90113CF
:104BF000994206460ED049B115460C460FCD0FC45A
:104C00000FCD0FC495E8070084E8070073682C33C4
:104C1000736070BDFFF754FFFBE700002DE9F04F14
:104C2000A5B08378412B06AF83460D4625D1C378C6
:104C3000422B40F0BF819BF80130DFF880A33B7628
:104C400007F1180009F0A9F9DAE90083E946C6B2CC
:104C500000210122984516D098F80000B04208D1F2
:104C60005046BB607961FFF783FDBB6879690446F4
:104C70000022013108F12C08ECE7432B40F09A8127
:104C8000C378432BD5E7A2B1002387F85130CB4836
:104C900087F84860002307F148017B65BB65FB6529
:104CA0003B667B66BB66FB66FFF79EFFDAF8044057
:104CB0002C3C584609F061FA013820F00700ADEBB2
:104CC000000D584609F059FA0DF11808404400212A
:104CD00000F8091C584687F8231009F04EFA58448A
:104CE00010F8023C3B77584609F047FA5844002137
:104CF00010F8013C7B77102207F11C00B9770AF00D
:104D000027F9786107F07AFF7B69AD49DBB21A4673
:104D10007B61FFF703FB7B6904215846BB60796127
:104D200009F02BFA7969BB680238814214D206294E
:104D30009BBF07F17802521808EB01021BF8010033
:104D40008CBF1BF8010002F85C0C01F1010188BF67
:104D500002F8070CC9B2E0E7984244D07B6107F043
:104D60004DFF0446584609F008FA821E2046954C2D
:104D70007B699549FFF7D2FA237C73BB934944F2D0
:104D8000022204F11000FFF759FB91495A462046D0
:104D9000FFF7C4FA04F1100002F016FE07F02EFF30
:104DA0008C4907F0BEF99BF80130A3F13002092AC3
:104DB00002D9432B40F0FD809BF8002087F8482063
:104DC00087F849308449854807F1200307F14802F4
:104DD00004F0D6FB824B1D70EBE07D495A4620461D
:104DE000FFF79CFADAE77F4907F1200009F095F90F
:104DF000002800F0DE807C4907F1200009F08DF9E1
:104E000000287ED1DAF804303B61DAF800307B61AB
:104E1000D7E90423934274D01B789E426ED107F1E8
:104E2000480A07F1380B07F1340307F130026F49E4
:104E3000CDF804A0CDF800B0404604F0A9FB5846D8
:104E400009F0A8F8504687ED020B09F0A3F897F88F
:104E500034A097F830B087ED000B07F0CFFE64491F
:104E600007F05FF907F0CAFE624907F05AF907F048
:104E7000C5FE614907F055F907F0C0FE5F493246AB
:104E8000FFF74CFA07F0BAFE5A465D49FFF746FABB
:104E900007F0B4FE5B4907F044F907F0AFFECAF330
:104EA00040030AF0010258490093CAF38003FFF758
:104EB00035FA07F0A3FE554907F033F907F09EFED7
:104EC0008246D7E9020108F0F1FF08F0DDFC024656
:104ED0000B46D7E90001C7E9022308F0E7FF08F015
:104EE000D3FCCDE90001D7E9022349495046FFF739
:104EF00015FA07F083FE3F4907F013F97B692C335D
:104F000085E7444907F1200009F007F9002840F03F
:104F1000898007F13403049307F13003039307F109
:104F20002C03029307F12803019307F124033A4964
:104F3000009307F1380207F14803404604F028FBCC
:104F4000D7ED097AB8EE677ADFED347AC7EE276AD3
:104F500097ED0A7AC4ED076AB8EE477AC7EE276A7A
:104F600097ED0B7AC4ED056AB8EE477AC7EE276A6B
:104F7000C4ED086A97ED0C7AB8EE477AC7EE276A57
:104F8000C4ED096A97ED0D7AB8EE477AC7EE276A45
:104F9000C4ED066A07F032FE22787A610546A06900
:104FA00008F072FCCDE900017A691D492846FFF737
:104FB000B5F9CD467C37BD46BDE8F08FB4DC0320A3
:104FC00029030C00C0DD03203E030C0068DD032034
:104FD0005B030C0087030C00A8030C0054DD0320C6
:104FE00067DD0320B4030C00B8030C00BC030C0005
:104FF000C8030C00D7030C00F2030C000D040C00D6
:1050000029040C0045040C0060040C007E040C0014
:1050100099040C00A9040C00AD040C0000007A44B3
:10502000C2040C004E4907F1200009F076F830B9AF
:105030004C480322414609F0BCF84B4BCBE64B49A8
:1050400007F1200009F069F800283DD1484BD3E969
:1050500000200123904205D012F82C1BB14208BF5A
:105060000023F7E703B307F0C9FD424907F059F8F9
:10507000002387F85130012D4FF000037B65BB659D
:10508000FB653B667B66BB66FB6611D187F84A50C1
:10509000374887F8486007F14801FFF7A5FD364813
:1050A00007F14801FFF7A0FD344B01221A7080E799
:1050B000022D4FF0010302D187F84C30E8E7032DB1
:1050C00008BF87F84B30E3E72D4907F1200009F0CE
:1050D00024F800287FF46DAF07F090FD414607F0FB
:1050E00020F844F2022227492748FFF7A7F9274969
:1050F00007F1480004F0F5FB254907F1580004F0DA
:10510000F0FB244907F1680004F0EBFB07F14803CA
:1051100003EB051107F1380004F02EFC07F138020B
:105120001D491E48FFF7C1F807F1380004F08EFB57
:1051300041461A4806F0F5FF052007F04BF91248E2
:1051400002F042FC07F1680004F080FB07F1580010
:1051500004F07CFB07F1480004F078FB29E700BF6E
:10516000D5040C0064DD032063DD0320D9040C00AA
:10517000B4DC0320DD040C0098DC03204CDD0320AC
:10518000F6040C00FA040C0008DE032007050C00EE
:105190000B050C0010050C001A050C00F8DD0320AF
:1051A00010B50C46002204212046FFF737FD0B4BBB
:1051B0001B7893B10A48037C2BB90A4944F20222B6
:1051C0001030FFF73BF9224607490548FFF7A6F8DC
:1051D000BDE81040054802F0F7BB10BDF4DD032028
:1051E000C0DD032068DD03202F050C00D0DD032087
:1051F000B0B501F1080323F0070300AFADEB030DD9
:105200000C460A460146684608F0DBFE0DEB040337
:105210006D4613F8013C13B100230DF8043007F07C
:10522000EDFC114906F06AFF07F0E8FC294606F09C
:1052300078FF012211462846FFF7F0FC0B4B1B7844
:1052400083B10B48037C2BB90A4944F20222103087
:10525000FFF7F4F8084906482A46FFF75FF80748C1
:1052600002F0B2FBBD46B0BD4F050C00F4DD0320DB
:10527000C0DD032068DD032060050C00D0DD0320C5
:105280002DE9F04FDFF8EC80DFF8EC90354D89B078
:1052900000AF07F069FF03681B69984700285CD0DE
:1052A00007F062FF0A220146384606F0A9FFBB68F4
:1052B000073323F007036E46ADEB030DEA460023E8
:1052C000B9681FFA83FB8B4503F1010407D25946E5
:1052D000384604F0BDFB23460AF80B00F0E701292D
:1052E0000AD90139384604F0B3FB0D2801BFBB6869
:1052F0005344002203F8012C012202215046FFF7FB
:105300008DFC07F07BFC414606F00BFF07F076FCB6
:10531000396806F006FF99F80030CBB12B7C2BB929
:105320001149124844F20222FFF788F8394607F182
:10533000100004F021FB0E4907F110022846FEF789
:10534000EDFF07F1100004F081FA084802F03CFB81
:10535000384604F07BFAB5469BE72437BD46BDE8E6
:10536000F08F00BFC0DD032068DD0320D0DD032007
:1053700092050C0080050C00F4DD03202DE9F043BC
:10538000214DDFF88480D5E900239B1A1F4A9B102A
:105390005343DCB203440A2B84BFC4F10A00C0B2F9
:1053A00020448DB0C4B2002700264FF00109FAB2A4
:1053B000944225D9D5E9001C0023614505D011F898
:1053C0002C0B904208BF0123F7E7BBB964208DF88E
:1053D0000D300496059606960796089609960A9645
:1053E0008DF80420ADF806308DF8089007F068FDC0
:1053F00001A98DF805004046FFF7F6FB0137D6E717
:105400000DB0BDE8F08300BFB4DC0320A38B2EBA3F
:105410002DE9F84FD0E9008993466FF07043A9EB6E
:105420000802B3EBE20F07468A464FEAE20402D1D4
:10543000204807F0FEFE012C224638BF0122A418A6
:10544000A1EB080531D294B39C4228BF1C46E00072
:10545000FEF721FE064673191CBFDBE90001C3E914
:105460000001002D04DD2A464146304608F0B7FD14
:10547000A9EB0A090835B9F1000F354404DD4A46A5
:105480005146284608F09DFD4D44B8F1000F05D067
:10549000B9684046A1EB0801FEF701FE06EBC40423
:1054A000C7E90065BC60BDE8F88F1C46CFE726461B
:1054B000D1E700BF0F030C002DE9F04FAFB0064657
:1054C00004F0CAFF8849142205F0BEF8804600287F
:1054D00000F00681DFF810B2002404EBC4094FEAA3
:1054E000890909F108070BA85F4404F019FC01229F
:1054F0000BA9384605F070FF8246002856D07B493C
:105500000BA804F068FC054600284FD0082209A922
:10551000384604F0BDFDB21C53D107F06FFB9DF877
:105520002B3005939DF82A3004939DF8293003937E
:105530009DF8283002939DF827306D4F01939DF818
:1055400026309DF824206B490093CDF818A09DF8D3
:105550002530FEF7E3FE7B689DF824103A689342FD
:1055600005D012F8080B884208BF0025F7E7EDB117
:10557000242202FB04B28DF88C1092F92020249290
:10558000BA68934217D01BB1DDE9230183E8030019
:105590007B6808337B6007F031FBD7E900239B1A57
:1055A00055499DF82420DB10FEF7B8FE0134E4B223
:1055B000444592D394E04E4823AA1946FFF728FFAA
:1055C000E9E7731C03D09DF82430B342EED104F018
:1055D00043FF0DF18C08494D014601230BEB0902F5
:1055E000404606F031FB239B249C2B606B689C4259
:1055F00008D014B1636801336360686808B1FEF7CE
:10560000D9FE6C60404605F096F83C4804F096FEE2
:105610000646002864D03A4BDFF810A100241C7025
:10562000384B4FF001091F2210A9384683F800902B
:1056300004F02EFD344A3549304805F099FF344ACC
:1056400034492E4805F094FF334A34492B4805F07D
:105650008FFF07F0D3FA9DF840203149FEF75EFE38
:1056600000231B931C931D931E931F932093219340
:105670002C489DF840308DF8694018A98DF862904B
:105680008DF86030FFF7B0FADAE9007CDFF8A0E0CF
:10569000BC4516D03D460FCD44460FC40FCD0FC4B8
:1056A00095E8070084E807009DF840209DF88C30BD
:1056B0009A4202BF8DF88E90CEF8008000262C37DB
:1056C000E6E76EB107F09AFA174906F02AFD174887
:1056D00018A9FFF789FADAF80430154A2C3B136051
:1056E0002FB0BDE8F08F00BFE0DE0320C0DC032058
:1056F00078DC0320B3050C00E6050C00BCDE0320BB
:10570000F6DD032034E60320E8DC0320D4DE0320AA
:10571000D4DC0320CCDE032000DD0320C4DE032024
:10572000F8050C0098DC0320DD040C00B4DC032039
:1057300074DC032030B5384987B00546002237486D
:10574000FEF77CFE50B9364B01221A7007F056FA6C
:10575000344907B0BDE8304006F0E3BC324A334C70
:105760002B460A2103A803F01BFF002319460093D0
:10577000012203A8FEF76AFF07F040FA23682C49CC
:105780001A78FEF7CBFD4FF47A7006F023FE2368FB
:105790001B78AB421ED007F031FA226825491278F7
:1057A0002B46FEF7BBFD04F057FE05F073FC04F03A
:1057B00053FE04F0FEFE30B92846FFF77DFE32208E
:1057C00006F008FEF3E707F019FA23681A491A7879
:1057D000FEF7A4FD07F012FA236818491A78104D55
:1057E000FEF79CFD00232B70642006F0F3FD2B7860
:1057F000002BF9D007F002FA236811491A78FEF756
:105800008DFD1048037C13B1103002F0DDF80E4B13
:1058100000221A7007B030BD0C060C009CDD03207E
:105820004ADE03200E060C004F060C0074DC032039
:1058300058060C0085060C00BE060C00DF060C00A6
:1058400002070C008CDD03204BDE03202DE9F74F0F
:105850004368D0F800800193A3EB0804404BE410A8
:105860005C43404B9C4207468946924602D13E48E3
:1058700007F0DFFC012C224638BF0122A418A1EB5F
:10588000080529D254B39C4228BF1C461820604307
:10589000FEF701FC064616EB050C1FBFBAE80F0029
:1058A000ACE80F00DAE90001CCE90001B246C346DA
:1058B000D94515D0BAF1000F09D0DE46BEE80F0079
:1058C000D446ACE80F009EE803008CE803000BF11F
:1058D000180B0AF1180AEBE71C46D7E72646DAE769
:1058E000DFF888A0ED080AFB05F5182325F06045D0
:1058F0005D4308EB050B1D447319009399465D4603
:10590000019B9D4209F118090CD0AE46BEE80F007C
:10591000A9F1180CACE80F009EE8030018358CE8DC
:105920000300EDE7A5EB0B05ED080AFB05FA009B6C
:105930002AF0604A182505FB0A35B8F1000F05D09A
:10594000B9684046A1EB0801FEF7A9FB182000FB4F
:105950000464C7E90065BC6003B0BDE8F08F00BF18
:10596000ABAAAAAA555555050F030C00ABAAAA0A63
:1059700070B50A46D0E90113994206460CD039B1F8
:1059800015460C460FCD0FC495E8030084E80300CC
:1059900073681833736070BDFFF758FFFBE70000B2
:1059A00030B599B022490DF10D0008F0C0FB01247B
:1059B00040F2011508231F498DF80C400DF1250018
:1059C000CDE9013508F0B3FB4FF0011308931A49F4
:1059D000069464230DF13D008DF8243008F0A7FBF8
:1059E000092316498DF83C400DF15500CDE90D35E0
:1059F00008F09DFB0623694611488DF85440CDE917
:105A00001335FFF7B5FF06A90D48FFF7B1FF0CA945
:105A10000B48FFF7ADFF12A90948FFF7A9FF094B93
:105A200007481978FEF7E0FF074B186019B030BD42
:105A300029070C0030070C0038070C0040070C0049
:105A40008CDC0320F5DD0320A4DC03202DE9F047E6
:105A5000022190B01C2007F02FFB02210E2007F03E
:105A60002BFB0221072007F027FB02210F2007F064
:105A700023FB02211220002407F01EFB02211D201F
:105A800007F01AFB6D4900944FF0FF3302221C20EF
:105A900007F0DCF86A4900944FF0FF3302220E2031
:105AA00007F0D4F8674900944FF0FF330222072033
:105AB00007F0CCF8644900944FF0FF3302220F2026
:105AC00007F0C4F8614900944FF0FF33022212201E
:105AD00007F0BCF802225E4900944FF0FF331D200E
:105AE00007F0B4F803F0F4F95A4B5B4F186007F075
:105AF00085F84FF4E13107F075F807F035FB4FF406
:105B0000165107F06FF9FEF789FD04F0A5FC04F0CB
:105B1000EDFC04F0A1FC322104F032FD04F09CFC09
:105B2000082104F0EAFC4D4A4D49104605F04AFDB3
:105B30004C4A4D49104605F045FD22464B494C481C
:105B4000CDE90044012303F0EBFC4A4B1C704A4BA7
:105B50001C704A4B1C704A4B4FF001091C7087F8AF
:105B6000009006F019FC079006F00AFC054606F0C6
:105B70001BFC064606F0E0FB804606F0E9FB824689
:105B800006F0F2FB079B3F4A0095CDE903A01021E8
:105B9000CDE9016808A803F003FD3B493B4808F044
:105BA000C6FA08A9394808F0A9FA3949374808F06F
:105BB000A5FAFFF7F5FE374801F0F2F8354802F094
:105BC00027FE344803F092F8334B0C933348344BA0
:105BD0008DF834400CAA08210E93ADF83C90FEF7E6
:105BE000DFFC044628B907F009F82E4906F099FAB7
:105BF0003C70284C0221204601F083F800224FF02F
:105C00000113C4E904232849204606F077FA204608
:105C100003F06CF840F6B83006F0DCFB23486FF078
:105C20000041FEF72BFB6FF000412148FEF726FBF9
:105C30000220FFF7A3FB10B0BDE8F087A5410B00E1
:105C4000114A0B00694A0B0099470B00BD480B0035
:105C5000F9410B0050DD0320F4DD0320D4DE0320E6
:105C6000F1510B00C4DE03204D440B00A1510B0089
:105C700060020C004BDE03204ADE0320DCDE032042
:105C800035E6032047070C0060070C0068DD0320A1
:105C900069070C004CDE0320DC080C00B0E1032097
:105CA00000127A0072070C0097070C0014DD032025
:105CB00030DD03207FB5554B554C01221A70554BF2
:105CC0000022C3E90022A2F580329A60032003F08B
:105CD00073FB5149514804F0FDF85149514804F013
:105CE000F9F85149514804F0F5F85149514804F088
:105CF000F1F814257F26204604F007F804F1080087
:105D000005F033F804F1140005F02FF8013D84F894
:105D1000206004F12404EED14748484C04F010FA06
:105D2000474804F00DFA474804F00AFA464804F0E0
:105D3000E3FA4648072101F005F82378BFF35B8FAB
:105D4000DB070AD42046FEF7B9F930B140480121FB
:105D500003F0AAFC2046FEF7B6F93E4B3E4E3F4DFF
:105D60003F4803966422C3F860243E4AC3F8702477
:105D70000122002483F87424354A5C60C3F83C4453
:105D8000C3F86844C3F87844A3F87C44C3F86C248F
:105D9000354B364A5C604FF47A7199601A601C6129
:105DA000334BC3E901411A601C61324BC3E9014125
:105DB0001A601C61304BC3E900449C602F4BC3E95F
:105DC00000449C602E4BC3E900449C602D4B009323
:105DD0006A46234641F288310295FEF7FFFA68468B
:105DE000FEF7AAFA284B00936A4623464EF6602136
:105DF0002648CDE90256FEF7F1FA6846FEF79CFA0E
:105E0000234BC3E900449C6004B070BDFCDC03205C
:105E1000E0DE0320A8DC0320A2070C00C0DC032086
:105E2000C7070C00D4DC0320EC070C00E8DC0320DF
:105E300011080C0000DD0320D4DE032068DC032001
:105E4000CCDE0320C4DE0320BCDE03204CDE0320B6
:105E50006CDC0320B0E1032079420B0065420B00AB
:105E600014DD0320DC080C00F8DD032004090C001D
:105E7000C0DD03208CDD0320B4DC032098DC03208C
:105E800078DC0320E9400B0029420B0030DD0320C1
:105E90008CDC03202DE9FF47BDF830605D4C0F46D8
:105EA000013619B2013390460546BDF930200FFA8C
:105EB00083F936B24FF0100A002F67D0012758231C
:105EC0002046CDE900A7039200F0FFFBA4F8109054
:105ED0000221204666824FF0000900F012FF294699
:105EE0004D48C4F81490FEF77FFD00F10D012046E7
:105EF00006F004F9039AB8F1000F30D07F23CDE902
:105F000000A75821204600F0E0FB59232382668237
:105F1000C4F8149040482946FEF766FD437A63B3FF
:105F200043680CAA13441B79BBB13C493948FEF7BE
:105F3000BCF906F063FE294604463748FEF754FDD7
:105F4000374900F10D022046FEF7E8F929463248AC
:105F5000FEF74AFD04B0BDE8F0873249E6E77F234B
:105F6000CDE900A85821204600F0AFFB5923238239
:105F70004FF0011366826361CCE703682A490CAADB
:105F8000134420461A79FEF790F9D2E758232046A9
:105F9000CDE900A703924FF0011800F096FB022113
:105FA0002046A4F81090668200F0ABFE29461A48FD
:105FB000C4F81480FEF718FD00F10D01204606F02C
:105FC0009DF8039A7F2358212046CDE900A700F0D1
:105FD0007CFB5923238210486682C4F8148029462A
:105FE000FEF702FD437A5BB143680CAA13441B79A8
:105FF00023B10A492046FEF758F9A7E70949F9E70E
:10600000036809490CAA134420461A79FEF74DF992
:106010009CE700BF4CDE03208CDC032036080C001C
:106020003D080C0039080C0058030C002DE9F04F16
:10603000A34B1B788DB0002B00F03F8100260F236F
:10604000CDE900369F48DFF89092DFF89CA2DFF898
:106050009CB280233246314600F037FB3546D9E901
:1060600000239B1A9B10F7B20AFB03F39F4248D20E
:1060700039464846FEF77CFB07EBC70801789BF8DA
:106080000030904C4FEA480808F1050299424FF061
:10609000040308F10108228263824FF001012046C7
:1060A00017D100F02EFE0023012263610E23CDE9FB
:1060B00000324146204600F008FB39464846FEF7CC
:1060C00057FB814902782046FEF7EFF801363D463E
:1060D000C5E700F016FE4FF00113012263610E23A5
:1060E000CDE900324146204600F062FB3946484681
:1060F000FEF73EFB744902782046FEF7D6F82F469D
:10610000E4E7724F97F80080B8F1000F5ED1704F4E
:1061100006F074FD6F4906F004F8D7E900329A42A0
:1061200019D029466C48FEF723FB6C4B044693F8C4
:1061300000C00FCC01AE0FC60FCC0FC694E807000D
:10614000102386E8070000938CF0010243460121EA
:106150004046FFF79FFED7E90036F61A604BDFF89E
:1061600084A1DFF87491DFF874B1F6105E43F6B2E3
:10617000022E28BF02260127BE42C0F2988006F0F8
:106180003DFD3A465146FEF7C9F829464846FEF716
:10619000EFFA04460FCC0DF1040C9BF800E0ACE8DC
:1061A0000F000FCCACE80F0094E807005FFA87F807
:1061B00001373B019BB28CE80700009300238EF06F
:1061C000010219464046FFF765FED5E7B8F1030F17
:1061D000DFF8088140F08C8006F010FD3A784149E4
:1061E000FEF79CF829463C4897F80090FEF7C0FA65
:1061F00006460FCE01AC98F800C00FC40FCE0FC4F6
:1062000096E80700302384E807008CF001020121A2
:10621000484600930023FFF73DFE06F0EFFC3A7876
:106220003049013AFEF77AF829462B48FEF7A0FAE2
:1062300006460FCE0DF1040C97F800E098F8009098
:10624000ACE80F000FCEACE80F0096E80700202363
:1062500084E807000EF1FF3E0093002319465FFA21
:106260008EF089F00102FFF715FE06F0C7FC3A78C0
:106270001C49023AFEF752F817482946FEF778FA09
:106280003F7898F800C0023F05460FCD01AE0FC61B
:106290000FCD0FC695E80700102384E80700009390
:1062A00000238CF001021946F8B2FFF7F3FD054810
:1062B00002F01CFD024A002313700DB0BDE8F08F00
:1062C00088DA03204CDE032058030C00F5DD0320A0
:1062D0008CDC032069080C00B4DC032089DA03207D
:1062E000ABAAAAAA75080C00A38B2EBA4DDD032019
:1062F00006F084FC3A782B490132FEF70FF8294664
:106300002948FEF735FA06460FCE01AC98F800E0B2
:1063100097F800C00FC40FCE0FC496E807003023D3
:106320000CF1010C84E80700009300238EF00102B9
:1063300019465FFA8CF0FFF7ADFD06F05FFC3A7886
:106340001849FDF7EBFF2946174897F80090FEF72C
:106350000FFA06460FCE0DF1040C98F800E0ACE8F9
:106360000F000FCEACE80F0096E80700202384E86A
:1063700007008EF001020121009348460023FFF739
:1063800089FD06F03BFC3A780649013AFDF7C6FF65
:1063900005482946FEF7ECF93F7898F800C0013F20
:1063A00072E700BF75080C00B4DC03202DE9F04152
:1063B000554D2B788AB0A3B1544B1B68002B38D0B5
:1063C0001A78534902A803F0DBF8524C2378009363
:1063D00001231A46002102A8FEF738F900232B708A
:1063E0002370FFF723FE4C4B1B7823B906F006FC05
:1063F0004A4905F096FE4A4B1A78002A35D0494F93
:10640000424E00241C70D7E900535D1B464B34609C
:10641000AD105D43454B93F80080E1B28D420DD93C
:106420003846FEF7A5F90378434508BF30600134CC
:10643000F3E73F4902A807F07AFEC6E73268002A70
:106440005FD0537A13B13B4B01211970137A3A494B
:10645000127802A803F094F82E4B1B7800930123C6
:106460001A46002102A8FEF7F1F803F0F5FF04F048
:10647000A0F8002835D0072006F048FE034628B9CA
:106480000090014601222D48FEF7E0F8254B2C4EE6
:10649000D3E90047A7420FD0D4F8188006F0AEFB2E
:1064A0000546404607F0F0F902460B4628463146BD
:1064B000FDF734FF2C34EDE7FA2005F08BFF1D4B80
:1064C0001B783BB1114C23681878FFF733F9236828
:1064D00000225A72FEF7D4FE0AB0BDE8F041FEF782
:1064E00023B9184C02F0F4FC2368C01AB0F5FA6F17
:1064F000E5D302F0EDFC20604FF0FF30FEF7DCFF4B
:10650000DDE70AB0BDE8F081DCDE032084DC032097
:1065100082080C0035E60320F4DD032098080C0007
:1065200036E60320B4DC0320A38B2EBA4DDD032016
:106530008E080C004BDE0320B3080C00BF080C00D3
:10654000C7080C0088DD03202DE9F04F85B01F46F9
:10655000BDF93880BDF83C30A8EB0209A7EB010A71
:10656000B9F1000FB8BFC9F10009BAF1000FB8BF07
:10657000CAF1000AD14583460C46154604DD3A4669
:106580002C4647460D469046BC4205DD2A46454608
:10659000904622463C4617463E1BB2B20092A8EBFC
:1065A000050282EAE271A1EBE271C6F3C03202FA9F
:1065B00086F64545B4BF01224FF0FF3201917610B7
:1065C0000292BC421CDCDBF800200393D145D2F8D8
:1065D0001880C7BF294622462A4621465846C0474A
:1065E000019A039BB61AB1B236B2002E05DA029AAE
:1065F0001544009A56182DB236B2013424B2E0E7A1
:1066000005B0BDE8F08F704710B404682469A44653
:106610005DF8044B604730B40468BDF8085002953B
:10662000A46BA44630BC604730B40468BDF8085081
:106630000295E46BA44630BC604770B4BDF90C50C1
:10664000BDF810600468CDE90356246CA44670BC04
:1066500060472DE9F3411C460368BDF820805B6963
:1066600005461646013C34440F4624B298472B6831
:10667000CDF8048000949C6A28463B463246394651
:10668000A0472B68DB6A284602B0BDE8F0411847F6
:106690002DE9F3411D460368BDF820805B6904467F
:1066A00017460E469847CDE9007822686B1E3344A2
:1066B000956A20461BB23A463146A8472368DB6AF2
:1066C000204602B0BDE8F04118472DE9F3471E46C9
:1066D0000368BDF928905B69BDF82C800C4605461F
:1066E000174698472644B4422B680BDACDF8008051
:1066F000D3F820A021464B463A4628460134D047DD
:1067000024B2F0E7DB6A284602B0BDE8F04718473C
:1067100013B502680191B0F90E100091146CB0F934
:106720000C3000221146A04702B010BD2DE9F743FE
:1067300099421646BDF92870BDF82C900268804633
:106740000D461C4613D1BE42C8BF3346CDF8289033
:10675000C4BF3E461F467B1C946B9B1B1BB232463C
:1067600029464046A44603B0BDE8F0436047BE4218
:106770000AD19942C2BF0B4625461C46631CCDF880
:106780002890D46B5B1BE9E753699847CDE9007902
:10679000D8F8003040469F6A324623462946B8471B
:1067A000D8F80030DB6A404603B0BDE8F043184734
:1067B0002DE9F3471D460368BDF82C805B69BDF9E0
:1067C000289004460F46164698472368CDF8008067
:1067D000D3F824A032462B4639462046D0472368BA
:1067E000CDF8008009F1FF323244D3F824A03946B5
:1067F0002B46204612B2D0472368CDF80080D3F84C
:1068000020A032464B4639462046D0476B1ED91948
:106810002368CDF800801D6A20464B46324609B2F7
:10682000A8472368DB6A204602B0BDE8F047184756
:10683000704701F00303B0F90A208376C907B0F965
:10684000083059BF8381C2818281C38170470000B3
:1068500030B54281C281074A074D01810024818100
:106860004FF0FF31C0E90512446005600461047710
:10687000046230BD010100012C0E0C002DE9F04F27
:1068800089B0CDE902120268BDF948800493BDF9D0
:106890004C3052690593BDF850A00446904718F15A
:1068A00007024FF0000648BF08F10E024FEAE20B64
:1068B00001963546039B019ABDF904109A18059B71
:1068C0008B4212B227DD049B33444FF0000906933C
:1068D0000FFA89F080451FFA89F117DD4F0705BFD0
:1068E000069BC0106D001D5C18BFEDB22B060AD5CB
:1068F000029B206807921944836909B21F4620460B
:106900005346B847079A09F10109E1E7019B0133B2
:1069100001935E44CEE72368DB6A204609B0BDE8F8
:10692000F04F18472DE9F04F2DED028B91B0164630
:10693000026ABDF874809DF878509DF87C40039100
:106940001F46BDF8703004938346002A40F0C5808E
:10695000B0F90C308B4240F34C81B0F90E30B342A9
:1069600040F34781062313FB0513002B40F34181BD
:1069700006EBC403002B40F33C81037F1BB9AF2F10
:1069800084BF0137FFB2DBF8003058465B69984797
:106990000522099200220592984A07EB8703D31833
:1069A0000C93B3B20693059A0C9B9B5C0793ABB216
:1069B0000B93BDF80C300893039B02FB05F919FA01
:1069C00083F90FFA89F308EE103A08230A93039B20
:1069D00002EB030A4FF000090FFA8AFA079ADBF874
:1069E0000030D20752D5012D1FFA89F23ED1012C79
:1069F0003CD19B6906991F46049B0A4412B251463A
:106A00005846B84709F101034FFA83F9079B5B0821
:106A100007930A9B013B13F0FF030A93DED1059F06
:106A200001377BB20593099B013B13F0FF030993E8
:106A3000B9D1049B43450FD0012DDBF800303BD189
:106A4000012C39D10899CDF8008005311C6A3246F5
:106A5000082309B25846A047DBF80030DB6A5846E5
:106A600011B0BDEC028BBDE8F04F1847069914FB3E
:106A700002F20A44049901910094DB6918EE101A9D
:106A80001F4612B22B465846B847BBE7049A424508
:106A9000B8D0012D1FFA89F207D1012C05D19B69CD
:106AA00006991F460A444346A8E70699CDF8048094
:106AB00014FB02F20A44DFE70B9ACDF8048002EBE4
:106AC0008201089AE4000A4411460094DC693246C7
:106AD0002B4609B25846A047BEE7137A51681268A0
:106AE0000B92FF1AFFB201EBC70331F83720069271
:106AF0009A780992DA780C92012D93F9052093F98E
:106B000006A00A9201D8012C57D9BDF92830089364
:106B10000FFA8AF30793DBF8003058465B69984711
:106B2000B3B24FF000080E931AFA86F3C1464746F7
:106B30000F930C9B9F428FD2079B0E9A3B4403FB03
:106B40000423002205920F9A1BB202EB070A08EEFB
:106B5000103A0FFA8AFA4346099A0599914241D2AE
:106B60005A1CD2B25B070D9207D1069B06990B9A6D
:106B700001339BB212F80190069319F0800F12D0E6
:106B8000012DDBF80030BDF80C101AD1012C18D102
:106B90000A9A9B691144059A11441E465246049B69
:106BA00009B25846B047059E0136F3B24FEA49098B
:106BB00005935FFA89F90D9BCEE70023CDE90733F2
:106BC000A9E70598089A024402FB0511049ACDE949
:106BD0000042DB6918EE102A1E4609B22B465846C1
:106BE000B047E0E7099B013798445FFA88F8FFB2A5
:106BF0009FE711B0BDEC028BBDE8F08F24090C00BB
:106C0000F0B5026A85B004460B46002A34D10A2941
:106C100008D1438A0282427E03EBC20363820120D1
:106C200005B0F0BD0D29FAD0E17E007E657E71B120
:106C3000B4F91060062111FB0061B4F90C60B14297
:106C4000C1BFB4F91210228201EBC5026282E28A4E
:106C50000192A28A0092CDE90205B4F91220B4F99A
:106C600010102046FFF75EFE237E228A03EB4303CB
:106C700002EB43032382D2E70A2907D100230382D0
:106C8000417E927A438A01FB0233C7E70D29C6D0C1
:106C9000157AA942C3D3517A9942C0D351685D1B7A
:106CA000EDB201EBC505A87828B3E97819B3E17E08
:106CB000267E677E91B195F905100844B4F910104D
:106CC00006FB0011B4F90C00814207DD0020208290
:106CD000B4F91210927A02FB07126282E28A0192E0
:106CE000A28A0092CDE90267B4F91220B4F910101B
:106CF0002046FFF717FE2979227E238A01FB023303
:106D0000B8E7012938BF01210176417670470000BC
:106D100010B5064B03600446006D08B102F0DCF9C3
:106D2000204601F003FC204610BD00BF840E0C007D
:106D300010B50446FFF7ECFF20467021FDF7AFF9D0
:106D4000204610BD30B585B004460D4606F048FA21
:106D5000104A1149CDE901214FF0FF32802103464D
:106D600000922046202201F059FC0C4B23600023A6
:106D7000C4E9143504F1580000F03BF804F1600058
:106D800000F037F804F1680000F033F8204605B051
:106D900030BD00BF801A0600A0860100840E0C00E2
:106DA00013B50446503002F08FF9636DD90705D54D
:106DB0000222042104F1580000F02FF8636D9A07B5
:106DC00005D50022032104F1600000F026F8636D70
:106DD0005B0705D50222114604F1680000F01DF89A
:106DE000012300933C220221204601F01FFD02B046
:106DF00010BD00210A22C0E900127047002310B51F
:106E00000446C171837188B206F080F908B103238A
:106E1000A37102F05DF8206010BD38B50C46054640
:106E20001146A0B206F048F921462846BDE8384090
:106E3000FFF7E4BF042904D800EB4100B0F80100DB
:106E400070470A299BBF01F1FF3100EB410001317E
:106E5000C08884BF00EB41008088704710B50446AD
:106E6000243000F0EDFE28B104F50C70BDE81040B0
:106E700000F0E6BE10BD411E00F10A0300204208EA
:106E800042EAC01011F8012F52FA80F08B42C0B2D2
:106E9000F5D1704738B5CB6804460D4623B9BDE837
:106EA0003840896800F0C7BB2422002107F0B1F800
:106EB000102301202370A070AB68A360EB682362ED
:106EC00038BD00002DE9F047064610F8013B202BA5
:106ED000FAD06A4D8E600024335DC3B12F2B16D0DB
:106EE0005C2B02D10020BDE8F087A3F12200C0B2E4
:106EF0001D2803D825FA00F0C007F3D403F0BF0023
:106F00003C28EFD0203B5E2BECD80134E4E733196A
:106F10001846074610F8015B202DFAD02F2DF8D027
:106F200017604CB113F8012D2E2A01D0202A01D16F
:106F3000013CF6E7FF2CD5DC4FF02033C1F81130CF
:106F40004C60C1F80D304B614FF0000816F8083066
:106F50002E2B01D0202B02D108F10108F6E7B8FA58
:106F600088F04009651E6B1C02D0735D2E2B14D176
:106F70004FF0000907274A46CA464FF0080EA045C1
:106F800068DA16F80830202B03D02E2B07D1A8453D
:106F900012D0002008F10108F1E7013DE3E7222BC0
:106FA00008D07C2B06D0A3F12A0CBCF1050F0AD81F
:106FB0002D2B12D0A8455BD10A2F4AD00A270822D0
:106FC0004FF0100EE6E7A3F13A0CBCF1050FF1D932
:106FD000A3F15B0CBCF1020FECD9A3F1210CBCF1C5
:106FE0005D0FE7D8A845E7D0BA4230D8A3F1610CCD
:106FF000BCF1190F1AD8203B4EEA0909DBB25FFA3F
:1070000089F902F1010C5FFA8CFC0A44BCF1060F0D
:10701000537301D881F80CC06246BBE7A84518DC61
:10702000A8460A2708224FF0100EB2E7A3F1410C40
:10703000BCF1190F98BF4EEA0A0AE2E70B7B012068
:10704000087019447E234B7331238B734BE70A2F4F
:10705000E4D100204B7B202B3FF444AF0028EDD03F
:107060001AEA090F18BF4FF0020981F800903AE7B9
:10707000BA42ECD800205F23C3E700BF0101003112
:107080002DE9F0418AB000230193037819070446E3
:107090000AD583789A0707D5016A39B901212046B4
:1070A00000F0BAFA054638B9002048E0806800F0E0
:1070B000B8FE0028F2D1F7E7FFF7DDFEE5272F70D5
:1070C000002306462370A068FFF7C8FE0028EBD017
:1070D000E378002B33D0214601A8FFF7DBFE002820
:1070E000E2D00125E3785FFA85F84345DCD3A18837
:1070F000491B490101A800F084FB0028D4D00021DD
:1071000001A800F05FFB0028CED0C37A0F2BCBD1B3
:10711000027802F01F034345C6D1437BB342C3D17B
:107120000770A16891F8243043F0010381F82430FE
:10713000530605F10105D5D5A068FFF78FFE0AB00B
:10714000BDE8F0812DE9F84391F80C9006460C4615
:1071500002257E2701F10D086168A2686B189BB2B9
:107160001144914206D012F8010B03EB4313434044
:107170009BB2F6E7B9F1030F28BF4FF0030909F1FD
:107180000402D2B203F00F01A018013A0929D2B2C9
:1071900094BF30313731914541734FEA1313F1D128
:1071A00004EB090300215F73304600F02AFB012144
:1071B000304600F007FB014628B97078B0FA80F03D
:1071C0004009BDE8F88303786BB1C37A1B07EED49E
:1071D0000B22404606F0E5FE0028E8D10135ADB2AD
:1071E000642DB9D1EDE70120EBE700002DE9F04F68
:1071F0002DED028B8BB00D4606930B78079013F0A4
:10720000700F174605D100200BB0BDEC028BBDE816
:10721000F08F079B1B78002BF5D1536805931378EB
:107220009C071FBF059B0C330D22B3FBF2F31ABF63
:107230000133DBB2012300212846039300F0E1FA79
:1072400007F10D034FF0000B08EE103ADA465C46EA
:107250005E46CDF810B0D9466B6901212846C3F3CC
:107260004F1800F0AFFA0346002871D16B78002B5D
:10727000C9D1069B9A05C6D503F00303013B012B38
:10728000C1D8049B002C08BF43460493039B9C4237
:10729000C0F0F180B9F1000F40F00A81049B28464C
:1072A000590100F0AEFA0028ADD0039B03F1FF397D
:1072B0005FFA89F94E464FF0000A4FF00F08002E92
:1072C00000F00D810021284600F07CFA04460028D9
:1072D00099D0AA6892F824304E4543F001030CBFC0
:1072E00046F0400BB34682F8243080F800B080F8B6
:1072F0000B8080F80CA007F10D00FFF7BCFD84F8AF
:107300001AA0607384F81BA00BF01F030D22013B31
:10731000D7F808C0534300220599994240F2D08023
:107320001CF80310042A5FFA82FE02F1010000F249
:10733000CD8004EB4202A2F801100D2803F10103F5
:107340000246E9D1013EF6B2B9E74FF0010983E701
:107350000278E52A00D07AB90499002C08BF41468A
:10736000049103998C423CBF0134E4B2002A80D0DE
:10737000E52A05D100266FE703998C4238BF002427
:107380002E2AF7D0D97A0F294AD116BB12F040061F
:107390003FF462AF02F01F0693F80DB0B2460D2223
:1073A0000AF1FF3802FB08F8059A4245E2D9A2EB40
:1073B00008020892002202EB080109911846D1B296
:1073C000FFF738FD08998A420DD1002818BF002622
:1073D00042E70AF1FF3A5FFA8AFA5245CAD15A7B6C
:1073E0005A45DCD0C6E7FF28C4D85FFA80FEAEF16C
:1073F00041011929B9689CBF0EF120005FFA80FE97
:1074000008460999415CA1F1410CBCF1190F9CBFE0
:107410002031C9B27145ADD101320D2ACBD11BE764
:107420000807A7D45EB1BAF1010F7FF4ECAE18469D
:10743000FFF721FD58457FF4E6AEB1460EE018EEA9
:10744000101A0B22184606F0ACFD00287FF404AF9A
:1074500097F8009019F001097FF477AF069B1905A2
:107460003FF5D1AE069B0798CDF8009042462946DD
:1074700000F00AFAC8E60021284600F0A3F9A0B9F6
:107480006B78002B7FF4BFAE284600F087F8002809
:107490003FF4B9AEAB681B79012B3FF6FBAE039B03
:1074A0001034E4B2A342EFD8F4E60134E4B2EDE6DE
:1074B00039462846FFF746FE00287FF4EFAEA2E6E5
:1074C00014BF4FF0FF31002189B22BE7BEF10A0F44
:1074D00094BF04EB420204EB400291802DE7314659
:1074E0002846D5F8148000F06DF9044600283FF4D2
:1074F0008AAE2022314606F08CFDD7F80D3023608D
:10750000D7F811306360B7F815302381FB7DA37283
:107510003B7803F0180323730F4B1B689BB104F1F6
:107520000E0104F110009847238A63822383E389C4
:10753000E382AA6892F8243043F00103C8F34F189D
:1075400082F824308EE721232374282363740823D0
:10755000A673E373E8E700BF44E6032038B50446AA
:107560000D462422002106F054FDA560EB79102B76
:1075700003D0202B06D0002038BD2023012023700B
:10758000A070F9E74023F9E78378016943F0040329
:10759000837000F11002806800F008BC2DE9F04112
:1075A000017811F02005044603D000263046BDE8DE
:1075B000F0814269174B9A42F7D2FFF7E5FF064682
:1075C0000028F2D02169A06800F085FB0746A0687A
:1075D00005223946243000F05BFB80460028E4D0C9
:1075E00029464FF4007206F014FD0125A3681A79AC
:1075F000AA4209D918684246E91900F0B6FE0028E7
:10760000D3D00135EDB2F1E7636903EB4223636147
:10761000CCE700BF00FE1F0010B5044680680A4694
:107620002430A16900F034FB20B1A38803F00F03DC
:1076300000EB431010BD03780BB9FFF78FBF00209C
:1076400070472DE9F74F0378044688461546002B0E
:107650005DD08278D1075AD51A072DD5C369426902
:107660009B1A9D4228BF1D462E464FF0000904F18B
:10767000100B002E00F08F8022786369A0689706B7
:10768000C3F3080A4FEA53211FD5006A0144A068DA
:10769000BAF1000F42D1B6F5007F3FD3C36A9942D9
:1076A0003CD0B6F5806F52D20068424600F0D4FD5F
:1076B00068B34FF4007744E09B06D5D583681A89F8
:1076C0004369C3EB42139BB2CBE790F8059009EAFC
:1076D0000109BAF1000F08D1B9F1000F05D15BB96A
:1076E00051064CBF036A236A23612169A06800F038
:1076F000F2FA09EB0001CAE721695A4600F0F1FAF3
:10770000002804DBF1D1237813F0700F43D16378A4
:1077100043F0020363704FF0FF303DE0CAF500779D
:10772000B7424FF0000200F1240028BF374600F0B6
:10773000AFFA0028EBD000EB0A013A46404606F0CB
:1077400040FC63693B44B8446361F61B91E72278CF
:1077500092064FEA562A06D40279A2EB0902D2B267
:10776000924528BF924699424FEA4A2708D2A0681C
:1077700053460068424600F0B7FD0028E1D1C6E755
:1077800053448B42F3D92430019100F059FA019906
:107790000028ECD1BBE7A81B03B0BDE8F08F73B5A0
:1077A00001220DF10701D0E904560446FFF749FF15
:1077B00001280ABF9DF807004FF0FF30C4E90456C6
:1077C00002B070BD37B5436913F4F07F0446C3F3CC
:1077D000431500D099B901220DF107012046FFF7AA
:1077E00030FF40B2012802D0002003B030BD6369F1
:1077F0001F33A0686361303000EB4510F5E720339C
:10780000F7E72DE9F0410278076904460D4662B1B9
:107810004069884202D019B921616561012006E002
:10782000160706D5E3698B420BD227610020BDE81D
:10783000F081910605D5A3681B89B5EB431FECD9F0
:10784000F3E7D4F808C09CF80660431E06F109016E
:107850006E1ECB40CE40B34200D898B953064CBF01
:10786000DCF82030236A236104F11008002ED4D004
:107870002169A068424600F034FA002806F1FF367C
:10788000F4DCD2E7F61AEFE7F8B50F4604461546E2
:10789000002124221E4606F0BCFBB868A060A5802B
:1078A00005F00F053B6AE3606A0100EB451595F8AA
:1078B0003B301F0744D403F01703237095F83B10A7
:1078C00011F0180F04BF43F0080323709DF818301F
:1078D000E37006F00303012B2CD0022B28D07BBBD6
:1078E00071052DD40123A370A1788B0704D52378CB
:1078F000DF0625D4DD0723D4B31123F07F0306F080
:1079000008052B430B43A370C36AA3618318B3F824
:107910004420B3F84A1041EA0241720513D559B91F
:10792000A37843F00403A370730410D40120F8BDBE
:107930000323D8E70223D6E700F073FA0028EFD13B
:1079400000202070F3E72162DB6CE361ECE7E16982
:107950002046FFF756FF0028E8D1F1E738B5037855
:1079600004460BB9012038BD83785A0723D501217D
:10797000FFF752FE054628B9637843F001036370B0
:107980000020F0E70378E52BF6D023781B0744BFEF
:10799000E369C361236A4383638C8382094B1B6859
:1079A0002BB100F11601183098472B8B6B82A3780E
:1079B00023F00403A370A068FFF750FA0028DBD07F
:1079C000D0E700BF44E6032010B50446FFF7C6FF2A
:1079D0000023237010BDF0B593B01F460023099318
:1079E0000378019206460C4613B1002013B0F0BD97
:1079F0000B7813F0700FF8D013782F2B12D1019A57
:107A000013782F2B02D101320192F8E7A1681BB93C
:107A10003046FFF710FEE9E709A8FFF79FFD0028B1
:107A2000E3D009AC019801AA03A9FFF74BFA00289B
:107A3000DBD0019B1B789BB1002303AA2146304673
:107A4000FFF7D4FB0028D0D035460FCD09AC0FC4CA
:107A50000FCD0FC42B6823603046FFF7B5FFE0E77A
:107A60003B4603AA21463046FFF7C0FBBEE700B500
:107A70008BB000230A4601930146012301A8FFF7BA
:107A8000AAFF10B101A8FFF7FBFA0BB05DF804FBE9
:107A90002DE9F047037889461907044617465BD558
:107AA00083789A0758D51B0751D46369DB43BB42DF
:107AB00052D3B84604F1100A6669B8F1000F00F01D
:107AC0009180A0684379C6F3080513EA56260ED1C3
:107AD0006DB92169002946D0524600F002F900280C
:107AE0003ADB04D12046FFF74FFD002834D021694E
:107AF000A06800F0F0F83118A06815B9B8F5007F5B
:107B00003FD2C5F50076464528BF4646002D36D102
:107B10006269E3699A4234BF01220522243000F0F1
:107B2000B7F8C8B1284432464946354406F049FA08
:107B3000B5F5007F04D1A068243000F081F858B179
:107B4000636933446361B144A8EB0608B4E7C169D3
:107B5000FFF757FE0028A8D1637843F00103637054
:107B60004FF0FF3050E0236A3BB92046FFF70CFD91
:107B70000028F1D023692362B9E72361B7E7012226
:107B8000CCE7B8F5806FC26A1BD390F804C0ACEBA9
:107B90000606F3B24FEA582E734528BF734691424A
:107BA0004FEA432607D31A448A4282BF4FF0FF327E
:107BB00080F82450C262A5684A46286800F04BFC51
:107BC000BDE7914202BF4FF0FF3380F82450C362FB
:107BD000A3684A46186800F0C8FB0028BCD04FF4E0
:107BE0000076ADE7E269A378B24204D2E66143F0E1
:107BF0000403A37003E0084A1268002AF7D194F93D
:107C00000230002B02DB3846BDE8F0872046FFF744
:107C1000A5FE0028F7D19FE744E6032013B50446EC
:107C2000084659B1019106F0A8FA23680199DB686A
:107C30000246204602B0BDE81040184702B010BD11
:107C400037B50378DA07044620D54368816800F128
:107C50000C021868019200F088FB019A054618B9D9
:107C60000025284603B030BD23789B0704D4237831
:107C700023F001032370F4E7D4E9013019690144CA
:107C8000186800F072FB0028F1D1E9E70125E8E768
:107C900070B583688B4204460E46154609D0FFF73F
:107CA000CFFF08B9002070BD6B070AD500232370F1
:107CB000A660227805F003052046154300F80C5B0A
:107CC000F1E7636804F10C021868314600F0C4FA69
:107CD0000028EBD1E6E783794069023999400844EE
:107CE0007047012970B505460C46164602D84FF07C
:107CF000FF3070BDC3698B42F9D3C379202B16D1F5
:107D00008169022201EBD41100F50C70FFF7C0FF6E
:107D10000028ECD004F07F0450F8243023F07043A6
:107D2000EA699A4226BF336001200020E1E7102B68
:107D3000DDD1C1F3072381690222194400F50C70DB
:107D4000FFF7A6FF0028D2D0E4B230F81430E7E7FE
:107D5000012938B50C46154601D8002038BDC36945
:107D60008B42FAD3C379202B0FD18169032201EB17
:107D7000D41100F50C70FFF78BFF0028EDD004F054
:107D80007F0440F824500120E8E7102BE5D1C1F32F
:107D9000072381690322194400F50C70FFF778FF6F
:107DA0000028DAD0E4B220F81450ECE72DE9F341D2
:107DB000C4688C4205460E46904601D3012701E077
:107DC0000C460027EB690134A34202D2C7B9EC6824
:107DD000F4E7A64214D001AA21462846FFF781FF06
:107DE00000280DDBEED0019B002BEBD107B1EC603E
:107DF0006FF0704221462846FFF7AAFF074620B9D8
:107E00000027384602B0BDE8F08116B9C8F8004036
:107E1000F7E7224631462846FFF79AFF0028F5D1BA
:107E2000EEE773B505460C4601AA21462846FFF742
:107E300058FF061E10DB002221462846FFF788FF68
:107E400050B1EB68A34224BF04F1FF34EC60019C05
:107E5000002EE9D102B070BD0020FBE7012370B510
:107E60000022C3604FF0FF330446C27100F12406C4
:107E7000806280F82420C362C0F8340280F8302287
:107E8000C0F838320D46B9B1042901D9002070BDBF
:107E900011463046FFF7FCFE0028F7D000EB051333
:107EA00093F8AE315B06F1D105F11B0100EB011037
:107EB000D0F80650002DE9D0002229463046FFF7C1
:107EC000E7FE0028E2D0B0F80B30B3F5007FDDD13B
:107ED000037C022BDAD1C389002BD7D0417B2171DF
:107EE0004B1E63710023A37109260123994207D019
:107EF000013ECBD0A2795B000132DBB2A271F5E783
:107F0000C18A01B9416A2161C3892B44A361B0F8D8
:107F10001120228103EB41032362B0F811104901C3
:107F200001F2FF1103EB51236361B0F8132002B992
:107F3000026AE91AA3791144D9404B1CE36140F667
:107F4000F473994202D80C23E3719FE74FF6F47360
:107F5000994285BFC36A236210232023E371012065
:107F600095E700F0CBBA00F0AEBA000070B50E4E47
:107F70000D46144600F0A4FF3368C01A0B4B98421C
:107F800008D900F0A5FF0A4B186001F0B1FA00F023
:107F900097FF306000F09CFF80B2401BA042D4BF2E
:107FA0000020012070BD00BF4CE60320A086010028
:107FB00040E7032038B5057A04464DB9406800F023
:107FC0006BFA63682946187D05F087F80123237250
:107FD00038BD10B5037A04466BB143680121187DA2
:107FE00005F07BF86068FF21FFF7BBFF606800F0D9
:107FF00067FA0023237210BDF8B504460D461646F5
:1080000000F066FF87B26068FFF7ADFFFF2860727F
:108010000ED14FF47A7239462046FFF7A7FF0028A9
:10802000F1D0552320462370FFF7D3FF0020F8BD81
:10803000FE2801D05023F5E760683246294600F05B
:1080400047FA607208B16023ECE76068FFF78BFFC6
:108050006068FFF788FF0120E9E770B504460E4627
:1080600000F036FF85B2324629462046FFF77EFFF4
:1080700030B96068FFF777FFFF28F4D1012070BDA9
:108080000020FCE7F7B5037A019204460D460BB9D0
:10809000FFF790FF25B14FF496712046FFF7DDFF03
:1080A000606845F04001FFF75CFF032601AFB95D52
:1080B0006068FFF756FF013EF9D2002D60680CBFE3
:1080C00095218721FFF74DFF6068FFF74CFF0B25D7
:1080D0006068FFF748FF0306607203D5013D15F0A5
:1080E000FF05F5D103B0F0BD70B504460D46164648
:1080F00037210022FFF7C6FF324629462046BDE859
:108100007040FFF7BFBF00002DE9F0410025057268
:10811000057085724160044690461E4600F0D8FE08
:1081200041460746606800F0BBF96368494A1D7222
:108130000125DA601D822046FFF73CFF636829466F
:10814000187D04F0CAFF0A256068FF21013DFFF792
:1081500008FF15F0FF05F7D163682946187D04F084
:10816000BCFF0A25002211462046FFF78BFF01289D
:10817000804618D0013D15F0FF0507D12023204689
:108180002370FFF726FF0020BDE8F0816068FD2125
:10819000FFF7E7FE4FF402786068FFF7E4FEB8F1FE
:1081A0000108F9D1DEE74FF4D57208212046FFF728
:1081B00069FF052814D184F80A800025BFB22A4639
:1081C00029212046FFF790FF0246D8B14FF4FA620A
:1081D00039462046FFF7CAFE0028F0D04323CEE7F9
:1081E00004256068FFF7BFFE013D15F0FF056072D2
:1081F000F7D1AA2804D10223A3724FF08045DDE70E
:108200002523BCE7A37A022B18D13A212046FFF799
:1082100039FF08B13723B2E76068FFF7A4FE00F02A
:10822000C000C02804BF0323A3726068FFF79BFE51
:108230006068FFF798FE6068FFF795FE2046FFF73D
:10824000C8FE63683079B168B2891A821872D96041
:10825000012099E790D0030038B5837A032B18BF2B
:10826000490215460A4611210446FFF70BFF30B1BB
:10827000302323702046FFF7ACFE00250BE0294693
:108280004FF400722046FFF7B7FE05460028F1D0F4
:108290002046FFF79EFE284638BD10B5837A032B93
:1082A0000A4618BF4A0212210446FFF7EBFE30B11E
:1082B000312320462370FFF78CFE002010BD0120E3
:1082C000FCE710B500220C210446FFF7DBFE30B1BD
:1082D000282320462370FFF77CFE002010BD204697
:1082E000FFF777FE0120F9E7F8B5044616461F466A
:1082F000FFF7D3FF68B10025ABB29F4206EB4521E3
:1083000009D94FF400722046FFF776FE01350028A8
:10831000F2D10020F8BD2046BDE8F840FFF7D1BFFC
:1083200038B5044615464068FFF71BFE4FF400724F
:108330006068294600F0E6F86068FF21FFF711FE4B
:108340006068FF21FFF70DFE6068FFF70CFE6072AA
:1083500000F01F00052806D0572320462370FFF7A2
:1083600038FE002038BD0120FCE770B5837A032B6E
:1083700018BF490215460A4618210446FFF782FE37
:10838000064630B1322323702046FFF722FE002537
:108390001FE02A46FE212046FFF7C2FF0028F3D047
:1083A0004FF4FA612046FFF758FE054608B95A23F4
:1083B000E9E732460D212046FFF764FE08B1292384
:1083C000E1E76068FFF7CFFD0028F8D12046FFF70E
:1083D00000FE284670BD13B501914FF4FA610446C2
:1083E000FFF73BFE019A30B95B2323702046FFF76D
:1083F000F0FD002005E0FC212046FFF791FF00285A
:10840000F4D002B010BD10B5837A032B0A4618BF12
:108410004A0219210446FFF735FE30B133232046C6
:108420002370FFF7D6FD002010BD0120FCE738B512
:108430004FF4FA610446FFF710FE054630B95623A3
:1084400023702046FFF7C5FD284638BD6068FD2132
:10845000FFF787FDF5E7F8B5044616461F46FFF718
:10846000D2FF70B10025BD4206EB4521204604D065
:10847000FFF7B1FF28B10135F5E7BDE8F840FFF798
:10848000D6BF2046FFF7A5FD0020F8BD014B012215
:108490001A70704750E60320011D006801F03CB9D6
:1084A00010B504460175006801F008F9207D01212E
:1084B00004F002FE207D0121BDE8104004F00DBE55
:1084C000006801F00FB90068FF2101F093B90000C6
:1084D00037B51346074A00920025074C00682570FF
:1084E0000A46294601F08CF92378002BFCD00020A5
:1084F00003B030BD8D840B0050E60320006801F00E
:1085000079B9000037B51346064A00920025064C9B
:10851000006825702A4601F073F92378002BFCD0FF
:1085200003B030BD8D840B0050E6032010B5044B22
:1085300003600446C06A08B101F012F8204610BD7D
:108540007C130C0010B50446FFF7F0FF20465021C5
:10855000FBF7A5FD204610BD002910B54BDBB0F997
:108560000C408C4247DD002A45DBB0F90E409442B6
:1085700041DD847E022C1FD0032C26D0012C04D197
:108580000489D24314440A4621B2012B23D0022B82
:1085900032D083BB002A13460489C06AB8BFD31DFA
:1085A000DB1013FB041102F0070201239340425C2D
:1085B00022EA030242541EE00489013C611A448904
:1085C000D243224409B212B2DFE74489013C641A63
:1085D000114622B2D9E7002A04891346B8BFD31D39
:1085E000DB1013FB0411C36A02F007000122824072
:1085F000585C02435A5410BD002A13460489C06ACD
:10860000B8BFD31DDB1013FB041102F007020123D6
:1086100003FA02F2435C5A40CCE7000070B504460E
:108620001D460026FEF714F9114B2360666215B94A
:1086300004F0D6FD0546FF2384F8333084F8363045
:108640009DF9103084F837300A4BA363012384F876
:108650003C30059BA3644FF6FF72069BA286C4E9DB
:108660000A562664A4F84460E364204670BD00BF47
:108670007C130C00DC080C00F8B50446806A0D463B
:1086800090B194F9301004F011FCA06A0368002145
:108690009B689847A06A036829469B689847A06A28
:1086A000BDE8F84004F009BC94F93530014698B2B1
:1086B00004F013FD606A20B12946BDE8F84001F0DE
:1086C00099B80826802794F9330005EA070180B29B
:1086D00004F003FD94F93400012180B204F0FDFCA4
:1086E00094F93400002180B204F0F7FC013E4FEA17
:1086F0005707E8D1F8BD38B50446806A0D4680B109
:10870000A16C04F0C5FB002D204614BFA721A621B3
:10871000FFF7B2FFA06A88B1E16CBDE8384004F011
:10872000B7BB606A18B104F1380100F0F5FF94F9A5
:108730003600002180B204F0D0FCE4E794F9360062
:10874000012180B204F0C9FC606A18B1BDE838406C
:1087500000F0C8BF38BD2DE9F8430446806A0D46D5
:108760008F1840B394F9301004F0A0FBA06A03689E
:1087700000219B6898470126AF42A06A17D01F2EA0
:108780000CD904F09AFB94F93010A06A04F08EFB27
:10879000A06A036800219B6898470126A06A15F823
:1087A000011B036801369B689847F6B2E4E7BDE811
:1087B000F84304F082BB94F93530014698B204F0D6
:1087C0008CFCBD4222D0606A15F8019B18B1494665
:1087D00001F010F8F5E708264FF0800894F933000F
:1087E00009EA080180B204F078FC94F93400012110
:1087F00080B204F072FC94F93400002180B204F0DD
:108800006CFC013E4FEA5808E8D1DAE7BDE8F8838E
:10881000B0F90A30DA1D48BF03F10E02B0F9083092
:10882000C06AD2105A43002105F0F3BB2DE9FF4185
:108830001E46C36A9DF8288004460F461546C3B1FC
:108840002046FFF7E5FFB4F90A00B4F90810202824
:1088500021DC202301222038CDE9013200EBD07049
:1088600073237339009301EBD171894B40F34F02AD
:1088700021E0B0F90A30D81D48BF03F10E00B4F969
:108880000830C010584300F063FEE0620028D7D1E2
:1088900004B0BDE8F0814038C0F3C03202FA80F283
:1088A00040230120CDE90130522352390093794B06
:1088B00001EBD1715210204641F34F01FDF7DEFF6D
:1088C000A06A84F83170002878D0002D74D1B4F9F2
:1088D0000A30202B0CBF3C253D2584F83050B8F1E0
:1088E000000F01D004F0D8FAFEB194F93700002847
:1088F0001BDB012180B204F0DFFB94F9370001217A
:1089000080B204F0EAFB012003F064FD94F9370023
:10891000002180B204F0E1FB0A2003F05BFD94F932
:108920003700012180B204F0D8FBA06A002874D07F
:10893000A16C04F0ADFA042257492046FFF70BFF63
:1089400061890139C9B22046FFF796FE53490422D6
:108950002046FFF700FF94F93130012B0CBF1021A6
:1089600014212046FFF788FE04224D492046FFF7D8
:10897000F2FEA3684B4A93425CD14B490422204645
:10898000FFF7E9FED9212046FFF776FE94F9313052
:10899000012B0CBF2221F1212046FFF76DFE20465E
:1089A00042490622FFF7D7FEA06A002863D0E16C97
:1089B00004F06EFA01206BE76DB28EE794F9350092
:1089C000012180B204F078FB94F93600012180B2D5
:1089D00004F072FB94F93600012180B204F07DFBB3
:1089E000656A3DB1B8F1000F3FF47EAF284600F054
:1089F00065FE79E794F93300012180B204F05CFB55
:108A000094F93400012180B204F056FB94F934004B
:108A1000294680B204F061FB66E7606A18B104F190
:108A2000380100F079FE94F93600002180B204F09C
:108A300054FB80E71E4A93420ED11E490322204672
:108A4000FFF789FE94F93130012B0CBF9F21CF2114
:108A50002046FFF711FE95E7174A934292D1174936
:108A600003222046FFF777FE94F93130012B0CBF2B
:108A70001021AF21ECE794F93600012180B204F017
:108A80002CFB606A002895D000F02CFE92E700BF16
:108A900094110C00D40E0C00DC130C00E0130C003D
:108AA000E4130C0080002000EE130C00E8130C000F
:108AB00080004000F2130C0060001000F5130C0061
:108AC00070B5002ABDF810503DDBB0F90A40944261
:108AD00039DD0029BEBF5B181BB20021B0F9084088
:108AE000CE18A642C4BF631A1BB2002B2BDDC06A8E
:108AF000D61014FB0611014402F007000122824047
:108B0000012DD2B216D0022D0BD0E5B9D243D2B28C
:108B10000B44994217D011F8010B104001F8010CD9
:108B2000F7E70B4499420ED011F8010B504001F8C1
:108B3000010CF7E70B44994205D011F8010B1043E3
:108B400001F8010CF7E770BDF0B50029BDF814502D
:108B500076DBB0F90860B14272DA002ABEBF9B181A
:108B60001BB20022B0F90A40D718A742C4BFA31A0B
:108B70001BB2002B64DDC2F3C404C76A16FB0416E3
:108B800012F00702DBB207EB060423D0C2F10802A1
:108B9000D2B22D4993423CBF4FF0FF0CA2EB030E23
:108BA000895C3CBF4CFA0EFC0CEA0101012D07D098
:108BB000022D2ED04DB917F806C02CEA010103E0B2
:108BC00017F806C041EA0C01B955934238D3B0F901
:108BD00008100C449A1AD2B2072A0ED9022D1DD1C0
:108BE00013462178C9432170083BB0F90810DBB265
:108BF000072B0C44F5D802F007020AB3134B012DE2
:108C00009B5C1AD0022D1CD0D5B9227822EA03032E
:108C100015E017F806C081EA0C01D5E7291E18BF38
:108C200001214942C9B213462170083BB0F90860DE
:108C3000DBB2072B3444F7D8DDE7227813432370E7
:108C4000F0BD22785340FAE7CC130C00D4130C008B
:108C500070B41446827EBDF80C60022A0DD0032A3F
:108C600018D0012A11D10289E443144424B2039696
:108C70000A46214670BCFFF767BF42890589E44375
:108C800019441444691A24B209B20396224670BCEE
:108C9000FFF716BF45891944691A09B2E7E730B4EE
:108CA0001446827EBDF80850022A0DD0032A18D03F
:108CB000012A11D1E2180489A41A24B202950A46A5
:108CC000214630BCFFF7FCBE0289C9431144E218BB
:108CD0004489A41A09B224B20295224630BCFFF797
:108CE00033BF4289C943114409B2E7E72DE9F8438C
:108CF0000446806A002842D0A16C04F0C9F84749B4
:108D000005222046FFF727FD218901392046C9B2F7
:108D1000FFF7B2FCB4F90A30DE1D48BF03F10E06BE
:108D2000D4E90A052389F61013FB06F615FA86F630
:108D300000283AD094F9301004F0B8F8A06A03681B
:108D400040219B6898470127B542A06A24D01F2F75
:108D50000CD904F0B2F894F93010A06A04F0A6F827
:108D6000A06A036840219B6898470127A06A15F80C
:108D7000011B036801379B689847FFB2E4E7606A0C
:108D800018B104F1380100F0C7FC94F93600002155
:108D900080B204F0A2F9B2E704F08FF8A06A78B3C9
:108DA000E16CBDE8F84304F073B894F93500012193
:108DB00080B204F092F9AE42F0D0606A15F8019BDF
:108DC00018B1494600F016FDF5E708274FF0800876
:108DD00094F9330009EA080180B204F07EF994F9AD
:108DE0003400012180B204F078F994F934000021B4
:108DF00080B204F072F9013F4FEA5808E8D1DAE78F
:108E000094F93600012180B204F067F9606A18B164
:108E1000BDE8F84300F066BCBDE8F883F8130C0029
:108E200008B5024B1B689B68019308BD68020300EC
:108E300008B5024B1B68DB68019308BD680203009C
:108E400008B5024B1B689B68019308BD2C02030008
:108E500008B5024B1B68DB68019308BD2C020300B8
:108E600008B5024B1B681B69019308BD2C02030067
:108E700008B5024B1B685B69019308BD2C02030017
:108E800008B5024B1B689B69019308BD2C020300C7
:108E900008B5024B1B68DB69019308BD2C02030077
:108EA00008B5024B1B685B68019308BD18020300FC
:108EB00008B5024B1B68DB68019308BD180203006C
:108EC00008B5024B1B681B69019308BD180203001B
:108ED00008B5024B1B685B69019308BD18020300CB
:108EE00008B5024B1B689B6D019308BD1802030077
:108EF00008B5024B1B685B6E019308BD18020300A6
:108F000008B5024B1B689B68019308BD78020300FB
:108F100008B5024B1B681B6C019308BD7802030067
:108F200008B5024B1B685B6F019308BD7802030014
:108F300008B5024B1B689B6F019308BD78020300C4
:108F400008B5024B1B68DB6F019308BD7802030074
:108F500008B5034B1B68D3F88430019308BD0000AB
:108F60007802030008B5034B1B68D3F898300193CF
:108F700008BD00007802030008B5034B1B68D3F856
:108F8000B430019308BD00007802030008B5034B1C
:108F90001B68D3F8BC30019308BD000078020300C1
:108FA00008B5034B1B68D3F8C430019308BD00001B
:108FB0007802030008B5034B1B68D3F8D83001933F
:108FC00008BD00007802030008B5034B1B68D3F806
:108FD000DC30019308BD00007802030008B5034BA4
:108FE0001B68D3F8E030019308BD0000780203004D
:108FF00008B5034B1B68D3F8E430019308BD0000AB
:109000007802030008B5034B1B68D3F8E8300193DE
:1090100008BD00007802030008B5034B1B68D3F8B5
:10902000F030019308BD00007802030008B5034B3F
:109030001B68D3F8F430019308BD000078020300E8
:1090400008B5034B1B68D3F80031019308BD00003D
:109050007802030008B5034B1B68D3F80431019371
:1090600008BD00007802030008B5024B1B68DB68EE
:10907000019308BD4802030008B5024B1B68DB6979
:10908000019308BD4802030008B5024B1B681B6A28
:10909000019308BD4802030008B5024B1B685B6AD8
:1090A000019308BD4802030008B5024B1B689B6A88
:1090B000019308BD4802030008B5024B1B68DB6A38
:1090C000019308BD4802030008B5024B1B681B6BE7
:1090D000019308BD4802030008B5024B1B685B6B97
:1090E000019308BD4802030008B5024B1B685B6C86
:1090F000019308BD4802030008B5024B1B68DB6CF6
:10910000019308BD4802030008B5024B1B685B6D64
:10911000019308BD4802030008B5024B1B681B6F92
:10912000019308BD4802030008B5024B1B685B6948
:10913000019308BD6402030008B5024B1B68DB689D
:10914000019308BD3C02030008B5024B1B681B6974
:10915000019308BD3C02030008B5024B1B685B6924
:10916000019308BD3C02030008B5024B1B689B69D4
:10917000019308BD3C02030008B5024B1B68DB6984
:10918000019308BD3C02030008B5024B1B681B6A33
:10919000019308BD3C02030008B5024B1B689B6AA3
:1091A000019308BD3C02030008B5024B1B68DB6A53
:1091B000019308BD3C02030008B5024B1B681B6C01
:1091C000019308BD3C02030008B5024B1B681B68F5
:1091D000019308BD2802030008B5024B1B68DB6839
:1091E000019308BD2802030008B5024B1B689B6968
:1091F000019308BD2802030008B5024B1B68DB6918
:10920000019308BD2802030008B5024B1B681B6AC6
:10921000019308BD2802030008B5024B1B685B6A76
:10922000019308BD2802030008B5024B1B689B6A26
:10923000019308BD2802030008B5024B1B68DB6AD6
:10924000019308BD2802030008B5024B1B681B6B85
:10925000019308BD2802030008B5024B1B685B6B35
:10926000019308BD2802030008B5024B1B681B6C64
:10927000019308BD2802030008B5024B1B681B6858
:10928000019308BD3002030008B5024B1B685B69FF
:10929000019308BD3002030008B5024B1B68DB696F
:1092A000019308BD3002030008B5024B1B681B6A1E
:1092B000019308BD3002030008B5024B1B685B6ACE
:1092C000019308BD3002030008B5024B1B689B6A7E
:1092D000019308BD3002030008B5024B1B689B6B6D
:1092E000019308BD3002030008B5024B1B68DB6B1D
:1092F000019308BD3002030008B5024B1B681B6CCC
:10930000019308BD3002030008B5024B1B685B6C7B
:10931000019308BD3002030008B5024B1B681B68AF
:10932000019308BD4C02030008B5024B1B685B6843
:10933000019308BD4C02030008B5024B1B681B6972
:10934000019308BD4C02030008B5024B1B685B6922
:10935000019308BD4C02030008B5024B1B689B69D2
:10936000019308BD4C02030008B5024B1B68DB6982
:10937000019308BD4C02030008B5024B1B681B6A31
:10938000019308BD4C02030008B5024B1B685B6BE0
:10939000019308BD6002030008B5024B1B681B6DFA
:1093A000019308BD6002030008B5024B1B681B68EF
:1093B000019308BD2002030008B5024B1B685B68DF
:1093C000019308BD2002030008B5024B1B685B69CE
:1093D000019308BD2002030008B5024B1B68DB6C3B
:1093E000019308BD2002030008B5024B1B685B6DAA
:1093F000019308BD2002030008B5024B1B689B6D5A
:10940000019308BD2002030008B5034B1B68D3F885
:109410008830019308BD00002002030008B5034B0B
:109420001B68D3F89430019308BD000020020300AC
:1094300008B5024B1B685B68019308BD400203003E
:1094400008B5024B1B689B68019308BD40020300EE
:1094500008B5024B1B68DB68019308BD400203009E
:1094600008B5024B1B681B69019308BD400203004D
:1094700008B5024B1B685B69019308BD40020300FD
:1094800008B5024B1B689B69019308BD40020300AD
:1094900008B5024B1B68DB69019308BD400203005D
:1094A00008B5024B1B681B6A019308BD400203000C
:1094B00008B5024B1B681B6B019308BD40020300FB
:1094C00008B5024B1B685B6B019308BD40020300AB
:1094D00008B5024B1B681B6C019308BD40020300DA
:1094E00008B5024B1B685B6C019308BD400203008A
:1094F00008B5024B1B689B68019308BD440203003A
:1095000008B5024B1B685B69019308BD4402030068
:1095100008B5024B1B681B6A019308BD4402030097
:1095200008B5024B1B685B6A019308BD4402030047
:1095300008B5024B1B681B6B019308BD4402030076
:1095400008B5024B1B68DB6B019308BD44020300A6
:1095500008B5024B1B681B68019308BD1C02030081
:1095600008B5024B1B685B68019308BD1C02030031
:1095700008B5024B1B689B68019308BD1C020300E1
:1095800008B5024B1B68DB68019308BD1C02030091
:1095900008B5024B1B685B69019308BD1C02030000
:1095A00008B5024B1B68DB69019308BD1C02030070
:1095B00008B5024B1B685B6A019308BD1C020300DF
:1095C00008B5024B1B68DB6A019308BD1C0203004F
:1095D00008B5024B1B681B6B019308BD1C020300FE
:1095E00008B5024B1B68DB6B019308BD1C0203002E
:1095F00008B5024B1B681B6C019308BD1C020300DD
:1096000008B5024B1B685B6C019308BD1C0203008C
:1096100008B5024B1B68DB6C019308BD1C020300FC
:10962000002240681146FFF73BBF00224068114608
:10963000FFF746BF40680022FFF73ABF40680022AC
:1096400081F00101FFF724BF002340681A46194644
:10965000FFF716BF002340681A461946FFF708BFF8
:10966000002240681146FFF7FBBE00224068114609
:10967000FFF7E6BE406800220221FFF7E9BE0023A3
:1096800040681A46FFF7D4BE024B03225A60024AD2
:109690001A60704754E6032008140C000021FFF7FD
:1096A00033BE0021FFF728BE10B5044608462170DE
:1096B000FFF7F2FD00236360204610BD13B504469A
:1096C0000078FFF7EEFF58B9207801904FF6FF7150
:1096D000FFF7D2FD019802B0BDE81040FFF7DEBFF2
:1096E00002B010BD0078FFF7D9BF0000400830B5C8
:1096F0001860002418688842E5B206D90134082CA5
:1097000002D040081860F5E70725024B5B5D137037
:1097100030BD00BF3C140C002DE9F04306468FB06D
:1097200000780C46FFF7BDFF00281BDB35781422BC
:10973000002109A804F06DFC0B23002209A928468A
:10974000ADF82430FFF7B8FD9DF82D3013B19DF82A
:109750002C5055B10027B946B846012523795DB193
:10976000C3B100200FB0BDE8F083DDF830809DF874
:1097700034909DF83570F1E7002B35D1A36843454F
:1097800008D18DF820908DF82170BDF82020A38994
:109790009A42E6D00023A1688DF80F300A9804ABF6
:1097A0000DF10F02FFF7A2FF217985B989B9A368EE
:1097B00043450ED38DF820908DF82170BDF8202000
:1097C000A3899A4205D1049B434502D1C9E70029E8
:1097D000F9D100230193637B00939DF80F20237B35
:1097E0003078FFF781FDBCE7CDE900552B462A46CE
:1097F0000121F5E708B50078FFF746FDC0B208BDC6
:1098000030B587B004460A9D00950078FFF75CFDEF
:109810003DB9207802A9FFF75FFD9DF81430DB0702
:10982000F7D407B030BD0000054B02221A60054B8B
:10983000054A9A600020C3E90000FFF7BDBD00BFE4
:1098400068E603205CE603200000FFFF10B5044635
:109850000068FFF785FE204610BD10B5044600687D
:1098600008B1FFF77DFE0023C4E90133236010BD7A
:1098700038B504460D4600680131FFF779FE10B196
:10988000C4E90005012038BD10B50368044623B1C2
:1098900043688B4201D3012010BD2046FFF7E8FF4B
:1098A0000028F9D0A368002BF5D122681370F2E7E5
:1098B00037B50D46114601920446FFF7E5FF019AC0
:1098C00028B92046FFF7C9FF204603B030BDA2608B
:1098D0002946206804F075FB2268A3680021D15452
:1098E000F2E7002313B5C0E9003304468360037335
:1098F00041B10846019104F040FC0199024620461E
:10990000FFF7D6FF204602B010BD38B50546006807
:109910000C4668B16A688B689A4207D3096804F0FC
:1099200006FCA368AB600023A36038BDFFF718FEF8
:1099300023682B6063686B60A368AB600023C4E995
:109940000033F1E710B50023C0E90033044683601B
:109950000373FFF7DAFF204610BD884210B50446B6
:1099600005D00B682BB18A681946FFF7A1FF204686
:1099700010BDFFF772FFFAE710B500230446C0E9F7
:10998000003383600373FFF7E8FF204610BD13B573
:10999000044659B10846019104F0EFFB01990246D3
:1099A0002046FFF785FF204602B010BDFFF755FFA8
:1099B000F9E770B505460E4609B9002070BD6AB1D9
:1099C000846814442146FFF75FFF0028F5D028681B
:1099D000AB683146184404F0AAFBAC600120EDE707
:1099E00007B500238DF80410012201A98DF8053078
:1099F000FFF7DFFF03B05DF804FB02680B46096860
:109A000062B141B9806860B110787047986840B120
:109A1000097848427047104604F07FBB0029F5D111
:109A20000846704708B582688B689A4205D1FFF7EF
:109A3000E4FFB0FA80F0400908BD0020FCE783682D
:109A40008B4203D9006810B1405C7047002070471A
:109A5000FFF7F5BF7047704770477047064B994254
:109A600010B500F10C0405D0084603F005FC0028F1
:109A700008BF0024204610BDB4160C00064B9942C6
:109A800010B500F10C0405D0084603F0F5FB0028E2
:109A900008BF0024204610BDB4160C00064B9942A6
:109AA00010B500F10C0405D0084603F0E5FB0028D2
:109AB00008BF0024204610BDB4160C0010B5682164
:109AC0000446FAF7ECFA204610BD10B528210446EA
:109AD000FAF7E5FA204610BD10B530210446FAF732
