:02000002B0004C
:1040000000400B00C0240C00000006001700050251
:084010000401A30F00000000F1
:04401800B4080C00DC
:1040200009480A49884208B505D0094A824202D0A7
:10403000121A0AF086FB0748074A0021121A0AF0F2
:10404000A8FB014808BD00BF90DA0320B8220C008D
:1040500070DC032070DC0320EDE7032070B5074E11
:10406000074C09F073FBA41BA4080025AC4200D147
:1040700070BD56F8043B98470135F7E764220C0001
:1040800088220C0002F060BA08B502F009FEBDE813
:10409000084009F013BB05F01BBE05F019BE05F082
:1040A0001FBE000008B5034A03490C2005F02CFD93
:1040B000FEE700BFC9970B00C8080C000078B0FAF3
:1040C00080F0400970470123037070477047037CFC
:1040D00013F008031EBFC36A406A1B1A002BACBF53
:1040E00018466FF000407047064B01221A70064BCD
:1040F000D3E90031994204D09A6B01329A633C3380
:10410000F8E77047E0DE0320C8DC0320704710B5F5
:1041100010210446FFF7C3FF204610BD10B534211F
:104120000446FFF7BCFF204610BD103003F042B834
:10413000103002F060BF07B501220DF10701103009
:1041400002F0ABFE01280CBF9DF807004FF0FF30D6
:1041500003B05DF804FB103003F0C6B807B50122C8
:104160008DF8071010300DF1070103F0BDF803B012
:104170005DF804FB436913B183690C30184770473D
:1041800013B500210446084605F0CEFA0023204668
:1041900001A9019305F0E0FA019C0CB10123237100
:1041A0000021012005F0C0FA2CB1236820469B684D
:1041B00098470023237102B010BD000010B5094CD0
:1041C00005F012FB2368C01A952809D905F00CFBED
:1041D000206009F02BFABDE81040034908F031BE19
:1041E00010BD00BF6CDD0320DD080C0010B50C4BCA
:1041F000D3E9003100221046994206D09C6B242C52
:1042000084BF986301223C33F6E742B1054A137834
:10421000182B04D801331370034B01221A7010BD00
:10422000C8DC032090DC032039E6032038B5144BAA
:10423000144D01241C7005F0D7FA2B68C01A95287C
:104240000ED909F0F3F9104908F0FBFD05F0CCFA9E
:104250000E4A2860D2E900138B4202D0493B5360DA
:1042600038BD0B4A137883F001031370094B1A7899
:10427000002AF5D0084A147000221A70F0E700BF37
:1042800090DA03206CDD0320EE080C00ACDC032088
:1042900091DA032013DE03203AE60320012A02D13B
:1042A000016000207047022A04BF0B680360F8E732
:1042B0000368184737B5044680680D4630B10023BF
:1042C000CDE900331A46022105F04EFAA06830B15C
:1042D0000023CDE900531A46194605F045FA03B00C
:1042E00030BD0EB403B503AB002153F8042B01938A
:1042F00008F0CFFD02B05DF804EB03B0704700009A
:1043000073B5044608462279A36832B1A3B90B49B4
:1043100002B0BDE8704008F081BD094A267B094D16
:104320000949647B012E18BF2946CDE900140749CD
:10433000FFF7D7FF02B070BD054AEFE70D090C008B
:10434000E00D0C0009090C0005090C0023090C0004
:10435000FC080C000EB403B503AB012153F8042B89
:10436000019308F096FD02B05DF804EB03B07047CE
:104370002DE9F047354C364E0125257005F034FA0D
:104380003368C01A95285FD909F050F9314908F00F
:1043900058FD05F029FA304B30601E782F49257002
:1043A000B6B10B682E4C9878227890424CD04F686A
:1043B000DFF8B8C000259F4244D09978914201BFF0
:1043C00002461146CCF8003035463C330846F2E749
:1043D000D1E90046224FDFF89880DFF89890A64296
:1043E00032D0A2783B789A4221D1D8F8005009F017
:1043F0001DF905F11A0108F024FD2DB395F817A059
:10440000BAF1000F20D16B7D9BB109F00FF915496E
:1044100008F017FD2B6904F803A009F007F9A2784A
:104420001149FFF797FF012389F8003063703C348E
:10443000D5E7EA68297EA35C99423EBF297D5B1AD5
:10444000A354F0E705B12270BDE8F08790DA0320AD
:104450006CDD032040090C0091DA0320C8DC032046
:1044600061DD03204E090C0069090C008CDC03207F
:10447000B8DC032013DE03202DE9F843334B344C22
:1044800001221A7005F0B0F92368C01A95281ED9C8
:1044900005F0AAF9206009F0C9F82E4908F0D1FC0E
:1044A0002D4B1A782D4BC2B15C682D4D14F83A2C67
:1044B000287882420BD01B6800229C421E4606D000
:1044C0003C3313F83A1C22B1264B29701E60BDE81C
:1044D000F883411A4A424A41EFE7D3E90046204FA8
:1044E000DFF88C80DFF88C90A642F0D0A2783B7881
:1044F0009A4220D1D8F8005009F098F805F11A0135
:1045000008F09FFC002DE2D0EB7D002BDFD16B7D0E
:104510009BB109F08BF8144908F093FC2B69012238
:10452000E25409F083F8A2781049FFF713FF012342
:1045300089F8003063703C34D6E7EA68697EA35C92
:10454000994282BF297D5B18A354F0E790DA0320DB
:104550006CDD032040090C0091DA0320C8DC032045
:1045600061DD03208CDC03204E090C0069090C007E
:10457000B8DC032013DE032010B58368044613B1B2
:10458000032201469847204610BD000037B5134B63
:10459000036004468068C8B100256FF00043CDE990
:1045A000003502212B462A4605F0DEF8A068294690
:1045B00005F0FAF8237903F0FF0513B105F0ACF824
:1045C000F8E7A068294605F0BFF8A56004F10C00E3
:1045D000FFF7D2FF204603B030BD00BF34100C00FF
:1045E00010B50446FFF7D2FF20461C21FFF757FD08
:1045F000204610BD10B54368013B0446436063B9D3
:1046000003689B689847A368013BA3602BB92368A4
:104610002046DB68BDE81040184710BDF0B58C4659
:1046200000251449057104468560016092E8030085
:1046300085B002AF04F10C0687E8030096E803009A
:1046400082E8030097E8030086E803009168A06908
:104650006161D1689560D060A161CDE90035064AFD
:104660002346614604F1080005F066F8204605B0CF
:10467000F0BD00BF34100C0081410B0013460A4608
:104680000149096802F0D3BD40E60320F0B595B0BA
:10469000044600AF0D461E22002107F130000AF04B
:1046A00078F82068616807F1280303C397F8283079
:1046B000662B6E4668D13E4907F128000AF0EDF8F6
:1046C00000283ED13B48037C13B1103002F0A8FD16
:1046D000234607F1280204F120051868596814469A
:1046E00003C40833AB422246F7D1186820609B8888
:1046F000A3801E2207F130012F480AF01AF9002387
:104700002D4A2E497B60381D02F091FD48B108F01A
:104710008DFF2B49284AFFF71DFE2749274802F045
:10472000D2FD08F083FF244A2649FFF713FE2249F1
:10473000254844F20222FFF7A1FF5437B546BD4693
:10474000F0BD224907F128000AF0A7F868B908F07F
:104750006DFF194A1E49FFF7FDFD164B1B7C002B10
:10476000EBD0194802F05CFDE7E71A4907F1280091
:104770000AF093F840B908F059FF174908F061FBB7
:10478000164B01221A70E8E7EB1D23F00703ADEB8F
:10479000030D2A462146684609F0D3FF69460548BD
:1047A00008F03CFB08F042FF694608F04AFBC4E70A
:1047B0007C090C0014DE032048DE0320F0E5032012
:1047C00085090C00B8090C0024DE0320D5090C0073
:1047D000DE090C00F6090C00FF090C0066DE032060
:1047E00030B585B01B4B009313798DF80430936876
:1047F000029300F58C659389ADF80C3004460A46A7
:104800006B4600F26C41284603F030FC10B90020E2
:1048100005B030BD256004F23C45284602F000FD9D
:104820000121204603F0CCFA014668B12146284612
:1048300002F02DFB0028EAD094F83C3413F0700FFE
:10484000E5D0054B1D60E3E7204603F0B9FA0028E8
:10485000ECD1DCE720100C0040E6032038B50D4C0D
:10486000237C054683B90C4944F2022204F110006E
:10487000FFF704FF2946204608F0E3FA04F1100090
:10488000BDE8384002F0CCBC01462046BDE83840C7
:1048900008F0D7BADCDD032084DD032040F20112EA
:1048A00002804FF080728260084A026100214261FA
:1048B0000022C170C17101738261C26102624262F1
:1048C0008262C26202634163704700BF00C079C464
:1048D00008B509F043F80849FFF703FD142005F077
:1048E0005FFA09F03BF80549FFF7FBFCBDE808401B
:1048F000142005F055BA00BFDF0D0C0008100C00A5
:104900002DE9F04784B002AF804691461E460D4621
:1049100009F0F3FF093020F00701ADEB010D40462F
:1049200009F0EBFF02AC294997F828A0034642465C
:10493000204605F0E5F908F079FE214608F081FAF5
:10494000BAF1000F01D1042D0DD1214B21491B7863
:104950008DF8003038463C23224607F0EFFE786899
:1049600008B1FFF747FEB9F1000F01D1012D21D1A8
:1049700005F030FF05F0DBFFE0B1204609F0BDFF98
:10498000073020F00700E846ADEB000D204609F0A7
:10499000B4FF0DF1080902462146484609F0D1FE50
:1049A000204609F0AAFF0023024649460A4805F0BE
:1049B000ABFDC5460EB9022D04D108F0CFFF21464C
:1049C00008F03FFA0837BD46BDE8F087670A0C00DB
:1049D00010DD03206E0A0C00D0DE03202DE9F04329
:1049E000044687B0102008F04BFFC0F57F670646ED
:1049F000112008F045FF0F3740F2DC739F4240DC86
:104A0000C6F502636B4A02336FF059014B43934280
:104A100048DC694E93FBF6F640F2DC73984243DCC7
:104A2000644BA0F2DD706FF059014843984200F3E7
:104A3000BF80614D90FBF5F5002E46DC05EBD5728D
:104A40005310B542C3F100034FEA620580F2A7801C
:104A500003F15A0009F0C6FA80463046894609F04B
:104A6000C1FA564B002209F027FB0B460246494685
:104A7000404609F06BF909F0B9FD05F15A03C1B2DE
:104A800035E040F6230297420ADD4D4A9B1B5A212E
:104A90004B43934206DC40F2DB7193FBF1F6BBE73C
:104AA0000026B9E70E46B7E740F62303984220DD1B
:104AB000434BA0F623005A21484398421BDC40F2A6
:104AC000DB71B0FBF1F5002E3ADD06F15A02EB0F77
:104AD000002DC6F34707D2B22B440EDDA2EB6303D1
:104AE000B542D9B260DD07F15A0303EB6503DBB2CF
:104AF0000EE00025E7E70D46E5E769425810B142B0
:104B000002EB6303DBB251DD07F15A01091AC9B2A6
:104B10002246009102A82B4905F0F2F808F086FD24
:104B200002A908F08EF9002300930122194602A879
:104B3000FFF7E6FE642005F033F907B0BDE8F08327
:104B4000002D3FF47BAF7342AB424FEA650720DA9A
:104B500008F06CFD1C4908F074F907F15A0009F0DF
:104B600041FA80463046894609F03CFA134B002250
:104B700009F0A2FA0B4602464946404609F0E6F81B
:104B800009F034FD05EBD5714910C3B2C1F15A01EA
:104B9000BDE706F15A01CBB257FA81F1B7E75A36B1
:104BA000F1B253FA86F3A2E71346B1E71146AFE735
:104BB0000D4641E733CB020024F8FFFF0000F83F29
:104BC000D8CA0200890A0C00760A0C002DE9F041CF
:104BD0000E4D0F4FD5E9004888B0A04513D0A379FA
:104BE0006679A2780393394605A805F089F8039BF6
:104BF00000960122002105A8FFF782FE6B683C3B6E
:104C00006B603C34E9E708B0BDE8F081A0DC03202C
:104C10009A0A0C0010B5D0E900420648121B921007
:104C20004243914202D3044808F0C7FE242000FB0F
:104C3000014010BD398EE338A30A0C00104B10B5AB
:104C40000122104C1A7004F0CFFD2368C01A952879
:104C500014D904F0C9FD0C4A206013780BB1013B54
:104C6000137011780948FFF7D5FF094B186008F059
:104C7000DDFCBDE81040074908F0E3B810BD00BFF7
:104C800090DA03206CDD032011DE032094DC032086
:104C9000B8DC0320ED0A0C00104B10B50122104CBB
:104CA0001A7004F0A1FD2368C01A952815D904F0E4
:104CB0009BFD0C4A206013780B48032B9CBF0133EB
:104CC00013701178FFF7A6FF084B186008F0AEFCD0
:104CD000BDE81040064908F0B4B810BD90DA0320D2
:104CE0006CDD032011DE032094DC0320B8DC0320FC
:104CF000F80A0C0038B5D0E90054641BB1EB241F4E
:104D00004FEA241202D3034808F057FE05EB0110C6
:104D100038BD00BFA30A0C0010B5D0E90042064818
:104D2000121B92104243914202D3044808F045FE00
:104D30003C2000FB014010BDEFEEEEEEA30A0C009C
:104D40002DE9F0434A4B1A7897B0002A3AD0002256
:104D50001A70484B484FDFF83481DFF82891D3E9C7
:104D60000046A6422ED0637853B30025657004F048
:104D70003BFD237AA27860630693E37A0593E37997
:104D800004936069099209F03FF9CDE902012069B5
:104D900009F03AF9099ACDE9000139460BA804F067
:104DA000AFFF08F043FC0BAA4146FFF7D3FA99F88E
:104DB0000030009301231A4629460BA8FFF7A0FDF7
:104DC0003C34CEE72D4C04F00FFD2368C01A41F2AD
:104DD000883398423FD904F007FD2060284C254DC8
:104DE0002268531C3AD1D5E900329A4233D00023CD
:104DF000236021681F48FFF78FFF037A82780693AC
:104E0000C37A0593C379049306464069099209F071
:104E1000FBF8CDE90201306909F0F6F8099ACDE90D
:104E2000000115490BA804F06BFF164B1B7800938B
:104E300001231A4600210BA8FFF762FDD5E90013F4
:104E40005B1A114922689B104B43013B93428CBF74
:104E500001320022226017B0BDE8F083D5E90013CB
:104E60005B1A09499B104B43013B9342BFD3C0E7F8
:104E70003AE60320C8DC0320050B0C0068DD0320A4
:104E800064DD032039E60320EFEEEEEE220B0C008A
:104E900070B5D0E900560446AE4204D0284608F06A
:104EA0002DF91035F8E7206818B1A168091AFFF745
:104EB000F6F8204670BDF8B504460E4615460027A4
:104EC000B44229D015B323682B6063686B60A36874
:104ED000AB60E3682760C4E90177EB6023692B616D
:104EE000237D2B75637D6B75A37DAB75E37DEB75C2
:104EF000237E2B76637E6B76D4F81A30C5F81A3091
:104F0000D4F81E30C5F81E30638C6B842046FFF742
:104F1000BFFF24342435D3E72846F8BD2DE9F74FE9
:104F2000D0E9008A2F4BAAEB08045C432E4B9C422D
:104F300089460746114602D12C4808F03BFD012C5A
:104F4000224638BF0122A418A9EB08051DD2F4B1EE
:104F50009C4228BF1C46492060430191FFF79BF803
:104F600001990646701902D0492209F0EAFB33463E
:104F70004546A9450DD02BB118464922294609F0CE
:104F8000E0FB034649354933F3E71C46E3E7264691
:104F9000E8E7A5EB080909F14909B1442B46CB46DE
:104FA00055450BF1490B09D029464922ABF149007F
:104FB0000193493509F0C5FB019BF1E7ED1A4D441A
:104FC000B8F1000F05D0B9684046A1EB0801FFF722
:104FD00066F8492000FB0464C7E90065BC6003B0C3
:104FE000BDE8F08FF9F1E3C770E0C001350B0C00AC
:104FF00038B5D0E90135AB4204460A4608D01BB1AA
:105000004922184609F09DFB63684933636038BD47
:105010001946FFF783FFFAE72DE9F74F4368D0F809
:1050200000A00193A3EB0A06444BB6105E43444B29
:105030009E4281468B46154602D1424808F0BAFC92
:10504000012E324638BF0122B618A1EB0A072DD235
:1050500076B39E4228BF1E463C207043FFF71BF8E4
:10506000804618EB070409D00FCD0FC40FCD0FC435
:105070000FCD0FC495E8070084E80700C446D64664
:10508000F34517D0BCF1000F0BD075460FCD644629
:105090000FC40FCD0FC40FCD0FC495E8070084E8EF
:1050A00007000EF13C0E0CF13C0CE9E71E46D3E77D
:1050B000B046D6E7DFF890E0BF080EFB07F73C23C9
:1050C00027F040475F430AEB070B1F4408EB070339
:1050D00000939C465F46019B9F420CF13C0C0ED016
:1050E0003D460FCDACF13C040FC40FCD0FC40FCD26
:1050F0000FC495E807003C3784E80700EBE7A7EB0F
:105100000B07BF080EFB07FE009B2EF0404E3C270E
:1051100007FB0E37BAF1000F06D0D9F80810504639
:10512000A1EB0A01FEF7BBFF3C2000FB0686C9E9A4
:105130000087C9F8086003B0BDE8F08FEFEEEEEE2F
:1051400022222202350B0C00EFEEEE2E70B50A463D
:10515000D0E901139942064610D059B115460C46C4
:105160000FCD0FC40FCD0FC40FCD0FC495E80700AE
:1051700084E8070073683C33736070BDFFF74CFF31
:10518000FBE700002DE9F04F2DED028BABB08378EB
:10519000412B06AF04460E4627D1C378422B40F080
:1051A000BA816B4608EE103A07F1100063783B7441
:1051B000DFF8888309F0B1FAD8E9009BC3B2FB603D
:1051C0004FF0000A0123D94515D099F80220F9685B
:1051D0008A4205D151464046FFF79EFD0023054611
:1051E0000AF1010A09F13C09EDE7432B40F09381F4
:1051F000C378432BD3E78BB107F14400FFF74EFB95
:10520000FB68CE4887F8463007F14401FFF79EFF60
:10521000D8F80450CA4B01223C3D1A70204609F0D0
:105220006CFB013820F00700ADEB000D204609F0C3
:1052300064FB0DF1180948444FF0000A00F809AC6E
:10524000204687F81BA009F058FB204410F8023CC8
:105250003B75204609F051FB2044514610F8013CB3
:105260007B75102207F1140087F816A00AF030FAB7
:1052700083465FFA8BFB08F0D9F9B2495B465A4680
:10528000FFF768F84FF0040A204609F036FB0238B1
:10529000824516D2BAF1060F9BBF07F19003534423
:1052A00009EB0A0314F80A208CBF14F80A2003F84B
:1052B0007C2C0AF1010A88BF03F8072C5FFA8AFAEE
:1052C000E2E758452BD008F0B1F90546204609F031
:1052D00014FB5B46821E9C492846FFF73BF89B481F
:1052E000FFF7BCFA08F0A2F9994907F0AAFD637824
:1052F000A3F13002092A02D9432B40F00981227818
:1053000087F8442087F845309249934807F11803FD
:1053100007F1440204F0F4FC904B1E70F8E0904951
:1053200007F1180009F0B9FA002800F0F1808D4962
:1053300007F1180009F0B1FA002840F09280D8F87F
:105340000430D8F80040BB60BB68A34200F08980FD
:10535000A378FA68934240F0828007F1380A07F197
:105360002C0B8149CDF804A007F1280307F1240292
:10537000CDF800B0484604F0CBFC584609F0CAF915
:10538000504687ED000B09F0C5F997F82410E1703D
:1053900097F82810D7E9002301F001006071C1F3EC
:1053A0004000A071C1F38000C1F3801120716172CF
:1053B000104619465BEC10AB09F038F95946A0616C
:1053C000504609F033F9E06104F00EFA636BC01A3D
:1053D0004EF66023984209D997F82830C3F3C002EB
:1053E0002273C3F30112DB09E271E372637A63B3E0
:1053F000A37A53BB4FF0010A84F80AA05B4987F8EF
:105400008A3007F1440087F88B3087F88C3009F038
:105410004EFAA278564907F14E0004F071FCE2788A
:10542000544907F16C0004F06BFC14232822524805
:1054300087F88A3007F1440187F88C3087F88B2091
:10544000FFF7D6FD3E4B83F800A0A3784B4A1370BC
:1054500013B13B4B01221A704948FFF7FFF93C3466
:1054600072E7484907F1180009F017FA002858D1E7
:1054700007F12C03049307F12803039307F1240396
:10548000029307F12003019307F11C033E490093A7
:1054900007F1380207F14403484604F039FCD7ED20
:1054A000077AB8EE677ADFED397AC7EE276A97EDAB
:1054B000087AC5ED0A6AB8EE477AC7EE276AC5EDE5
:1054C000086A97ED097AB8EE477AC7EE276AC5ED04
:1054D0000B6A97ED0A7AB8EE477AC7EE276AC5EDF0
:1054E0000C6A97ED0B7AB8EE477AC7EE276AC5EDDE
:1054F000096A08F09BF8AA78FA600446686A08F01E
:1055000083FDCDE90001FA6821492046FEF722FF1C
:1055100018EE103A9D469437BD46BDEC028BBDE8AF
:10552000F08F1C4907F1180009F0B7F9C0BB1A4801
:105530000322494609F0FDF9184BEEE6C8DC0320CA
:1055400090DA03204F0B0C00640B0C00810B0C0055
:10555000AA0B0C00450A0C0070DD032083DD03203C
:10556000CB0B0C00CF0B0C00D30B0C0068100C0005
:1055700071100C0079100C00ACDC032061DD0320FD
:10558000DF0B0C00EE0B0C00F20B0C0000007A4459
:10559000070C0C001A0C0C0080DD03207FDD0320BB
:1055A000314907F1180009F078F9002839D1D8E914
:1055B00000300122834206D09978FC683C33A14236
:1055C00008BF0022F6E7E2B108F030F8274907F0FB
:1055D00038FC07F14400FFF761F9012E15D187F877
:1055E0004860FB68224887F8463007F14401FFF71E
:1055F000ADFD204807F14401FFF7A8FD1E4B012235
:105600001A701E4B01221A7082E7022E4FF001031E
:1056100002D187F84A30E4E7032E08BF87F8493003
:10562000DFE7174907F1180009F037F900287FF480
:105630006FAF144C237C83B9134944F2022204F166
:105640001000FFF71BF811494A462046FEF782FE7C
:1056500004F1100001F0E4FD5AE70C494A462046E7
:10566000FEF778FE54E700BF1E0C0C00220C0C0065
:10567000C8DC0320A0DC032090DA032060DD0320D7
:105680003B0C0C00DCDD032084DD03203F0C0C0010
:1056900010B50C46002204212046FFF773FD0B4B8A
:1056A0001B7893B10A48037C2BB90A4944F20222C1
:1056B0001030FEF7E3FF224607490548FEF74AFE91
:1056C000BDE81040054801F0ABBD10BD10DE032061
:1056D000DCDD032084DD0320620C0C00ECDD032004
:1056E000B0B501F1080323F0070300AFADEB030DE4
:1056F0000C460A460146684609F023F80DEB040300
:105700006D4613F8013C13B100230DF8043007F087
:105710008DFF114907F082FB07F088FF294607F04B
:1057200090FB012211462846FFF72CFD0B4B1B78FE
:1057300083B10B48037C2BB90A4944F20222103092
:10574000FEF79CFF084906482A46FEF703FE074875
:1057500001F066FDBD46B0BD820C0C0010DE0320DA
:10576000DCDD032084DD0320930C0C00ECDD032042
:105770002DE9F04FDFF8E090344D89B000AF07F02D
:1057800055FF03681B69984700285BD0DFF8CC8081
:1057900007F04CFF03681B6998470028EFD007F01B
:1057A00045FF0A220146384607F090FCBB680733E4
:1057B00023F007036E46ADEB030DEA460023B968FC
:1057C0001FFA83FB8B4503F1010407D25946384683
:1057D00007F096FD23460AF80B00F0E701290AD9E5
:1057E0000139384607F08CFD0D2801BFBB685344D2
:1057F000002203F8012C012203215046FFF7C2FCCE
:1058000099F80030CBB12B7C2BB91149114844F2E7
:105810000222FEF733FF394607F1100007F004FDBE
:1058200007F1100241462846FEF794FD07F11000EB
:1058300007F064FC074801F0F3FC384607F05EFC13
:10584000B546A5E72437BD46BDE8F08FDCDD032073
:1058500084DD0320ECDD032010DE0320B30C0C00FC
:105860002DE9F04FDFF8EC80DFF8EC90354D89B092
:1058700000AF08F073F803681B69984700285CD0F4
:1058800008F06CF80A220146384607F01FFCBB6896
:10589000073323F007036E46ADEB030DEA46002302
:1058A000B9681FFA83FB8B4503F1010407D25946FF
:1058B000384607F025FD23460AF80B00F0E70129DA
:1058C0000AD90139384607F01BFD0D2801BFBB6816
:1058D0005344002203F8012C012202215046FFF715
:1058E00051FC07F0A3FE414607F0ABFA07F09EFE1D
:1058F000396807F0A6FA99F80030CBB12B7C2BB9A8
:105900001149124844F20222FEF7B8FE394607F167
:10591000100007F089FC0E4907F110022846FEF737
:1059200019FD07F1100007F0E9FB084801F078FCC9
:10593000384607F0E3FBB5469BE72437BD46BDE894
:10594000F08F00BFDCDD032084DD0320ECDD0320CD
:10595000EE0C0C00DC0C0C0010DE03202DE9F043F3
:105960001C4DDFF87090D5E900239B1A1A4A9B1052
:105970005343DCB203440A2B84BFC4F10A00C0B213
:10598000204491B0C4B200264FF48038F7B2BC4234
:105990001DD9D5E900300022984205D099783C33D2
:1059A000B94208BF0122F7E77AB901A8FEF776FFEE
:1059B00064208DF80670CDF8088007F09BFA01A9E5
:1059C0008DF807004846FFF7C1FB0136DEE711B04E
:1059D000BDE8F083C8DC0320EFEEEEEE2DE9F84FD2
:1059E000D0E9008993466FF07043A9EB0802B3EB4E
:1059F000E20F07468A464FEAE20402D1204807F048
:105A0000D9FF012C224638BF0122A418A1EB0805BA
:105A100031D294B39C4228BF1C46E000FEF73BFB0A
:105A2000064673191CBFDBE90001C3E90001002D24
:105A300004DD2A464146304608F091FEA9EB0A09EA
:105A40000835B9F1000F354404DD4A465146284671
:105A500008F077FE4D44B8F1000F05D0B968404614
:105A6000A1EB0801FEF71BFB06EBC404C7E90065C8
:105A7000BC60BDE8F88F1C46CFE72646D1E700BFE3
:105A8000350B0C002DE9F04FA7B0064604F0A2FE3E
:105A90007C49142204F096FF8046002800F0EE8036
:105AA000DFF8E0B1002404EBC4094FEA890909F1E9
:105AB00008070AA85F4404F0F1FA01220AA938464F
:105AC00005F048FE8246002856D06F490AA804F027
:105AD00040FB054600284FD0082208A9384604F0AC
:105AE00095FCB21C53D107F0A1FD9DF8273005931A
:105AF0009DF8263004939DF8253003939DF82430BB
:105B000002939DF82330614F01939DF822309DF858
:105B100020205F490093CDF818A09DF82130FEF7B2
:105B200019FC7B689DF820103A68934205D012F862
:105B3000080B884208BF0025F7E7EDB1242202FBDD
:105B400004B28DF85C1092F920201892BA68934242
:105B500017D01BB1DDE9170183E803007B68083328
:105B60007B6007F063FDD7E900239B1A49499DF844
:105B70002020DB10FEF7EEFB0134E4B2444592D363
:105B80007CE0424817AA1946FFF728FFE9E7731C93
:105B900003D09DF82030B342EED104F01BFE3E4D01
:105BA000014601230BEB090217A806F00BFA179B1D
:105BB000189C2B606B689C4208D014B16368013359
:105BC0006360686808B1FEF715FD6C6017A804F003
:105BD00070FF314804F070FD044600284ED02F4B72
:105BE0002F4D00221A702F4B01261F220FA9384675
:105BF0001E7004F00BFC2C4A2C49274805F076FE59
:105C00002B4A2C49244805F071FE2B4A2B49224887
:105C100005F06CFE07F00AFD9DF83C202849FEF7D0
:105C200099FB17A8FEF73AFE9DF83C3025488DF801
:105C30005E3017A98DF86060FFF788FA69689DF8F3
:105C40003C202B6820488B4207D09F78974202BFA8
:105C50001E71002403603C33F5E77CB107F0E6FCDD
:105C60001A4907F0EEF80E4817A9FFF76FFA6B68AC
:105C7000154A3C3B1360164B01221A7027B0BDE851
:105C8000F08F00BFE4DE0320D4DC032080DC03209F
:105C90000F0D0C00420D0C00C0DE032012DE0320AD
:105CA000C8DC032038E60320FCDC0320D8DE032018
:105CB000E8DC0320D0DE032014DD0320C8DE03204F
:105CC000540D0C00A0DC03207CDC0320220C0C0013
:105CD00090DA032030B5384987B0054600223748AE
:105CE000FEF7CCFC50B9364B01221A7007F09EFC2F
:105CF000344907B0BDE8304007F0A3B8324A334C0E
:105D00002B460A2103A804F00BF800231946009340
:105D1000012203A8FEF7F4FD07F088FC23682C4954
:105D20009A78FEF717FB4FF47A7004F039F823687D
:105D30009B78AB421ED007F079FC22682549927807
:105D40002B46FEF707FB04F045FD05F061FB04F070
:105D500041FD04F0ECFD30B92846FFF793FE3220F8
:105D600004F01EF8F3E707F061FC23681A499A78FB
:105D7000FEF7F0FA07F05AFC236818499A78104D9C
:105D8000FEF7E8FA00232B70642004F009F82B7862
:105D9000002BF9D007F04AFC236811499A78FEF7E6
:105DA000D9FA1048037C13B1103001F039FA0E4BC8
:105DB00000221A7007B030BD680D0C00B8DD03205A
:105DC00066DE03206A0D0C00AB0D0C007CDC0320AA
:105DD000B40D0C00E10D0C001A0E0C003B0E0C0073
:105DE0005E0E0C00A8DD032067DE03202DE9F74FCF
:105DF000D0E9009A8B466FF078431146AAEB09026E
:105E0000B3EB221F80464FEA221402D1264807F046
:105E1000D1FD012C224638BF0122A418ABEB0906A4
:105E20001AD2DCB19C4228BF1C4620010191FEF72A
:105E300032F901990546A81901D007F0DBF9284687
:105E40004E46B34500F110070AD010B1314607F0B5
:105E5000EBF910363846F4E71C46E6E72546EAE754
:105E6000564506D03146384607F0DEF91036103771
:105E7000F6E74E46564504D0304607F03FF9103657
:105E8000F8E7B9F1000F06D0D8F808104846A1EBA2
:105E90000901FEF704F905EB0414C8E90057C8F836
:105EA000084003B0BDE8F08F350B0C0038B5D0E9E1
:105EB0000135AB4204460A4607D013B1184607F035
:105EC00099F963681033636038BD1946FFF78EFF98
:105ED000FAE700002DE9F041D1E900270023BF1ABD
:105EE000C0E9003304460D46836018D0184B9F422A
:105EF00001D907F059FD3846FEF7CDF80646C4E94A
:105F000000663744A760D5E90078B84509D01EB1CE
:105F10003946304607F088F910361037F5E73E4627
:105F2000EDE76660D5E90323C4E903236B69636188
:105F30002B8B2383D5F81A30C4F81A30D5F81E30CD
:105F4000C4F81E306B8C63842046BDE8F08100BF2E
:105F5000F0FFFF7F2DE9F347D0E90087234BA7EB44
:105F60000804A4105C43224B9C420E460546114691
:105F700002D1204807F01EFD012C224638BF012225
:105F8000A418A6EB080A2DD274B39C4228BF1C4665
:105F9000242060430191FEF77EF80199814619EBB8
:105FA0000A0001D0FFF796FF31464A464046FEF709
:105FB00082FF394600F124023046FEF77CFF064698
:105FC000B8F1000F05D0A9684046A1EB0801FEF723
:105FD00066F8242000FB0494C5E90096AC6002B08A
:105FE000BDE8F0871C46D3E7A146D8E7398EE338F1
:105FF000E3388E03350B0C0038B5D0E90135AB42E0
:1060000004460A4607D013B11846FFF763FF6368DA
:106010002433636038BD1946FFF79CFFFAE70000A0
:1060200070B5AEB000244C4903940DF11E0040F24F
:1060300001164FF48075CDE9014408F038FC0B23BC
:106040004649ADF81C500DF14200CDE90536CDE9C9
:106050000A440C9408F02BFC414B0F934FF4C843B7
:10606000ADF840303F49159403230DF166000D93C0
:10607000CDE9134408F01BFC0C233B49ADF86450F8
:106080000DF18A00CDE91736CDE91C441E9408F0C5
:106090000EFC4FF00113219334494FF4007325A8EF
:1060A000ADF8883007F075F825A91CA8FFF7FEFEAB
:1060B00025A807F023F82E4925A807F06AF825A996
:1060C0001CA8FFF7F3FE25A807F018F8294925A812
:1060D00007F05FF825A91CA8FFF7E8FE25A807F040
:1060E0000DF8072324491F930DF1AE00CDE9254497
:1060F000279408F0DCFB082301A92048ADF8AC5038
:10610000CDE92936FFF778FF0AA91C48FFF774FF8D
:106110001CA91A48FFF770FF13A91848FFF76CFF76
:1061200025A91648FFF768FF154B14481978FEF7A4
:1061300071FD144B186025A8FEF7AAFE1CA8FEF7F7
:10614000A7FE13A8FEF7A4FE0AA8FEF7A1FE01A869
:10615000FEF79EFE2EB070BD850E0C008C0E0C005E
:1061600001000001940E0C009C0E0C00A30E0C000C
:10617000A70E0C00AB0E0C00AF0E0C0094DC03203D
:1061800011DE0320B8DC032070B55D4B5D4C0122AD
:106190001A705D4B0022C3E90022A2F5803288B05C
:1061A0009A60032003F0C8FC5849594804F050F89D
:1061B0005849594804F04CF85849594804F048F8EF
:1061C0005849594804F044F814257F26204603F026
:1061D0005AFF04F1080004F086FF04F1140004F0F3
:1061E00082FF013D84F8206004F12404EED14F4881
:1061F0004F4C04F063F94F4804F060F94E4804F046
:106200005DF94E4804F036FA07F068FB4C4A4D49F8
:10621000CDE901211322034600924B488022402100
:1062200003F072F82378BFF35B8FD8070AD42046B7
:10623000FDF744FF30B14548012106F073FE2046CA
:10624000FDF741FF424B434E434D44486422C3F89F
:106250006024434AC3F870240122002483F8742484
:106260003A4A5C60C3F83C44C3F86844C3F87844D5
:10627000A3F87C44C3F86C243A4B3B4A5C604FF46F
:106280007A711A6099601C61384BC3E901411A6048
:106290001C61374BC3E901411A601C61354BC3E9EE
:1062A00000449C60344BC3E900449C60334BC3E919
:1062B00000449C60324BC3E900449C60314B049322
:1062C00004AA234641F2883107960695FEF7A6F9FF
:1062D00004A8FEF751F92C4B049304AA23464EF66A
:1062E00060212A48CDE90656FEF798F904A8FEF782
:1062F00043F9274BC3E900449C6008B070BD00BF60
:1063000010DD0320E4DE0320BCDC0320B60E0C000D
:10631000D4DC0320DB0E0C00E8DC0320000F0C00B3
:10632000FCDC0320250F0C0014DD0320D8DE032045
:1063300070DC0320D0DE0320C8DE0320C0DE032093
:10634000801A0600A086010068DE032074DC0320AA
:10635000B4E10320B1420B009D420B0028DD032075
:1063600020100C0014DE032048100C00DCDD03209C
:10637000A8DD0320C8DC0320A0DC032080DC032090
:10638000ACDC0320E9400B00ED410B0044DD0320B1
:1063900094DC03202DE9FF47BDF83060644C0F46C4
:1063A000013619B2013390460546BDF930200FFA87
:1063B00083F936B24FF0100A002F6FD0012758230F
:1063C0002046CDE900A7039202F023F9A4F810902B
:1063D0000221204666824FF0000902F036FC294671
:1063E0005448C4F81490FEF715FC00F11A01204639
:1063F00006F014FD039AB8F1000F3CD07F23CDE9DD
:1064000000A75821204602F004F95923238266820E
:10641000C4F8149047482946FEF7FCFB427DF2B1D0
:1064200003690CAA13441B79BBB143494048FDF7EB
:1064300058FF07F0FBF8294604463E48FEF7EAFB02
:106440003E4900F11A022046FDF784FF29463948EB
:10645000FEF7E0FB04B0BDE8F0873949E6E7C26823
:10646000837D0CA90A4412799BB11146FEF742FCC8
:1064700001682046DBE77F23CDE900A858212046AC
:1064800002F0C7F8592323824FF00113668263613B
:10649000C0E72C492046FDF724FFCAE758232046D1
:1064A000CDE900A703924FF0011802F0B2F80221E3
:1064B0002046A4F81090668202F0C7FB29461D48CA
:1064C000C4F81480FEF7A6FB00F11A01204606F07E
:1064D000A5FC039A7F2358212046CDE900A702F0AE
:1064E00098F85923134823826682C4F814802946F9
:1064F000FEF790FB427D5AB103690CAA13441B7945
:1065000023B10D492046FDF7ECFE9FE70C49F9E762
:10651000C268837D0CA90A44127923B11146FEF7A3
:10652000E9FB0168EEE707492046FDF7DAFE8DE753
:1065300068DE032094DC03204A0F0C00510F0C008E
:106540004D0F0C007E0B0C002DE9F0470321A0B08D
:106550001C2007F06BF903210E2007F067F90321D7
:10656000072007F063F903210F2007F05FF90321EB
:106570001220002407F05AF903211D2007F056F9D4
:10658000854900944FF0FF3301221C2006F0D4FA15
:10659000824900944FF0FF3301220E2006F0CCFA1E
:1065A0007F4900944FF0FF330122072006F0C4FA20
:1065B0007C4900944FF0FF3301220F2006F0BCFA13
:1065C000794900944FF0FF330122122006F0B4FA0B
:1065D0007649009401224FF0FF331D2006F0ACFAFB
:1065E00003F002F9724BDFF83C82186003F0FCF80C
:1065F000704B1860704B4FF0FF321A6007F016F8BE
:106600004FF4E13107F006F807F0A8F94FF41651FE
:1066100006F0AAFFFEF75CF904F0DCF804F024F9B8
:1066200004F0D8F8322104F069F904F0D3F8082115
:1066300004F021F9614A6249104605F081F9614A86
:106640006149104605F07CF9224660496048CDE971
:106650000044012303F0C4FA5E4B1C705E4B1C70B7
:106660005E4B1C705E4B01251C7088F8005006F0D4
:1066700007FF079006F0F8FE064606F009FF0746FA
:1066800006F0CEFE814606F0D7FE824606F0E0FE1A
:10669000079B544A0096CDE903A01021CDE901796A
:1066A00009A803F03DFB5049504808F000F909A93A
:1066B0004E4808F0E3F84E494C4808F0DFF8FFF781
:1066C000AFFCFA2003F06CFB2A463C21494802F05B
:1066D0002FFE484802F072FD464802F09BFE4548F6
:1066E000294602F04AF8444B0D934448444B8DF838
:1066F00038400DAA08210F93ADF84050FEF770F80E
:10670000044630B906F092FF3E4906F09AFB88F83D
:106710000040384C0221204602F097FA00254FF045
:106720000113C4E904533849204606F077FB20469C
:1067300002F070FE35498DF87A500DA88DF87B5027
:106740008DF87C5008F0B3F8314901220DF13E007C
:1067500003F0D6FA0F222F4917A803F0D1FA20230D
:106760008DF87A300C238DF87B300DA90A232A4846
:106770008DF87C30FEF73CFC28486FF00041FDF7B7
:1067800099FD6FF000412648FDF794FD0120FFF7C9
:10679000E5F820B0BDE8F0872D420B003D4C0B0022
:1067A000994C0B0071430B0079440B00BD410B0069
:1067B0006CDD032068DD032064DD0320D8DE0320C8
:1067C000E1560B00C8DE03208D460B0091560B00EE
:1067D0006E0A0C0067DE032066DE0320E0DE032085
:1067E00039E603207D0F0C00960F0C0084DD03209A
:1067F0009F0F0C0068DE032020100C00B4E1032082
:1068000000127A00A80F0C00CD0F0C008A100C00AB
:1068100092100C00A5100C00ACDC032028DD032036
:1068200044DD032010DE03202DE9F04FDFF8A0B295
:106830009BF8003091B0002B6DD0984C984E0025FD
:106840004023CDE900352A4680232946204601F021
:10685000E0FED6E900329A4260D001273E23CDE91E
:1068600000373A467E233946204601F045FF022292
:106870003C231146009320467C23019701F03CFF06
:106880004FF001136361736813F8033C2382042300
:1068900063820221204602F0D8F971682046493906
:1068A000FDF71FFD736813F8023C238216236382F1
:1068B0003946204602F0C9F9716820463F39FDF794
:1068C00010FD73684FF0200813F8013C238239460D
:1068D0002046A4F8128002F0B8F9716820462139E8
:1068E000FDF7FFFC6F4B23610221204602F0ADF95A
:1068F00010232C2200932D2143462046019701F0BE
:1069000088FE694965612046FDF7EBFC204602F0F0
:1069100081FD8BF8005011B0BDE8F08FDFF8A09139
:10692000DFF8B0A12E46D9E900239B1A9B10EFB2E5
:106930000AFB03F39F4247D239464846FEF7ECF97B
:106940005A4B81781B78554807EBC7084FEA48082F
:1069500008F1050299424FF0040308F10108228270
:1069600063824FF0010117D102F06FF90023012279
:1069700063610E23CDE900324848414601F049FEEB
:1069800039464846FEF7C8F9494982784348FDF739
:10699000A8FC01353E46C6E702F057F94FF0011357
:1069A000012263610E23CDE900323C48414601F0EB
:1069B000A3FE39464846FEF7AFF93D49827837488D
:1069C000FDF78FFC3746E4E73A4F97F80080B8F1BF
:1069D000000F40F08180384F06F028FE374906F05E
:1069E00030FAD7E900329A421BD031463448FEF7DC
:1069F00093F9344B044693F800C00FCC01AD0FC59A
:106A00000FCC0FC50FCC0FC594E80700102385E805
:106A1000070000938CF00102434601214046FFF736
:106A2000B9FCD7E90035ED1A274BDFF8A0A0DFF855
:106A30009090AD105D43EDB2022D28BF02250127D5
:106A4000BD42C0F2C08006F0F1FD3A465146FDF766
:106A500081FC31464846FEF75FF91A4B044693F82D
:106A600000E00FCC0DF1040CACE80F000FCCACE84B
:106A70000F000FCCACE80F0094E807005FFA87F82E
:106A800001373B019BB28CE80700009300238EF096
:106A9000010219464046FFF77DFCD1E768DE03207E
:106AA000ACDC032030002D00D80F0C0061DD03208A
:106AB0007E0B0C0011DE032094DC0320DB0F0C00A6
:106AC000C8DC032091DA0320398EE338E70F0C008D
:106AD00090DA0320EFEEEEEEB8F1040FDFF8BC81A0
:106AE00078D106F0A3FD3A786949FDF733FC3146C9
:106AF000684897F80090FEF70FF905460FCD01ACF6
:106B000098F800C00FC40FCD0FC40FCD0FC495E887
:106B10000700302384E807008CF001020121484679
:106B200000930023FFF736FC06F080FD3A785849C1
:106B3000013AFDF70FFC31465648FEF7EDF80546E1
:106B40000FCD0DF1040C97F800E098F80090ACE838
:106B50000F000FCDACE80F000FCDACE80F0095E8AB
:106B60000700202384E807000EF1FF3E0093002376
:106B700019465FFA8EF089F00102FFF70BFC06F070
:106B800055FD3A784249023AFDF7E4FB4148314667
:106B9000FEF7C2F83F7898F800C0023F05460FCDD7
:106BA00001AE0FC60FCD0FC60FCD0FC695E807007B
:106BB000102384E80700009300238CF0010219469B
:106BC000F8B2FFF7E7FB344802F024FC00238BF80F
:106BD0000030A0E606F02AFD3A782D490132FDF793
:106BE000B9FB31462B48FEF797F805460FCD01ACAF
:106BF00098F800E097F800C00FC40FCD0FC40FCD78
:106C00000FC495E8070030230CF1010C84E807005D
:106C1000009300238EF0010219465FFA8CF0FFF713
:106C2000B9FB06F003FD3A781949FDF793FB3146AD
:106C3000184897F80090FEF76FF805460FCD0DF154
:106C4000040C98F800E0ACE80F000FCDACE80F00A2
:106C50000FCDACE80F0095E80700202384E807007B
:106C60008EF001020121009348460023FFF792FBBA
:106C700006F0DCFC3A780649013AFDF76BFB054863
:106C80003146FEF749F83F7898F800C0013F85E7A4
:106C9000E70F0C00C8DC032068DE032091DA032034
:106CA0002DE9F043334E344C33788BB09BB12368DD
:106CB000002B34D09A78314902A803F021F8304DE6
:106CC0002B78009301231A46002102A8FDF718FE35
:106CD000002333702B70FFF7A7FDFEF731F8236810
:106CE00013B19878FDF77AFE03F074FD03F01FFEF0
:106CF00080B3244B244FD3E90058A84514D0D5F8CD
:106D0000249006F093FC0646484607F07DF90246BB
:106D10000B4630463946FDF71DFB3C35EDE71B4978
:106D200002A807F0C4FDCAE7FA2003F039F8184BAF
:106D30001B7833B123689878FEF7CCFF23680022D4
:106D40001A73FEF78DFDFEF713FD0BB0BDE8F0439F
:106D5000FDF73CBF0F4D02F047FD2B68C01AB0F5A0
:106D6000FA6FE4D302F040FD28604FF0FF30FEF7E9
:106D700089FEDCE7E0DE03208CDC0320F40F0C004E
:106D800039E60320C8DC03200A100C0000100C00B8
:106D900067DE0320A4DD032038B504460D46242217
:106DA000002107F0F6FCA560EB79102B03D0202B17
:106DB00006D0002038BD202301202370A070F9E701
:106DC0004023F9E710B50446243000F0EBFE28B16B
:106DD00004F50C70BDE8104000F0E4BE10BD8378EF
:106DE000016943F00403837000F11002806800F031
:106DF0008FBF00002DE9F041017811F02005044615
:106E000003D000263046BDE8F0814269174B9A4214
:106E1000F7D2FFF7E4FF06460028F2D02169A06808
:106E200000F00BFF0746A06805223946243000F029
:106E3000E1FE80460028E4D029464FF4007207F0B6
:106E4000A8FC0125A3681A79AA4209D91868424604
:106E5000E91901F03CFA0028D3D00135EDB2F1E791
:106E6000636903EB42236361CCE700BF00FE1F00B0
:106E700010B5044680680A462430A16900F0BAFEC5
:106E800020B1A38803F00F0300EB431010BD03787B
:106E90000BB9FFF781BF002070472DE9F74F03784A
:106EA000044688461546002B5DD08278D1075AD516
:106EB0001A072DD5C36942699B1A9D4228BF1D46FA
:106EC0002E464FF0000904F1100B002E00F08F80C9
:106ED00022786369A0689706C3F3080A4FEA532132
:106EE0001FD5006A0144A068BAF1000F42D1B6F57F
:106EF000007F3FD3C36A99423CD0B6F5806F52D22F
:106F00000068424601F05AF968B34FF4007744E054
:106F10009B06D5D583681A894369C3EB42139BB29C
:106F2000CBE790F8059009EA0109BAF1000F08D102
:106F3000B9F1000F05D15BB951064CBF036A236A52
:106F400023612169A06800F078FE09EB0001CAE71F
:106F500021695A4600F077FE002804DBF1D123783E
:106F600013F0700F43D1637843F0020363704FF066
:106F7000FF303DE0CAF50077B7424FF0000200F164
:106F8000240028BF374600F035FE0028EBD000EB88
:106F90000A013A46404607F0D4FB63693B44B844D3
:106FA0006361F61B91E7227892064FEA562A06D4CF
:106FB0000279A2EB0902D2B2924528BF92469942C9
:106FC0004FEA4A2708D2A06853460068424601F0BB
:106FD0003DF90028E1D1C6E753448B42F3D9243070
:106FE000019100F0DFFD01990028ECD1BBE7A81B5F
:106FF00003B0BDE8F08F73B501220DF10701D0E9B0
:1070000004560446FFF749FF01280ABF9DF8070010
:107010004FF0FF30C4E9045602B070BD37B5436984
:1070200013F4F07F0446C3F3431500D099B901224D
:107030000DF107012046FFF730FF40B2012802D0D2
:10704000002003B030BD63691F33A0686361303036
:1070500000EB4510F5E72033F7E72DE9F041027822
:10706000076904460D4662B14069884202D019B9E9
:1070700021616561012006E0160706D5E3698B42B0
:107080000BD227610020BDE8F081910605D5A368E9
:107090001B89B5EB431FECD9F3E7D4F808C09CF883
:1070A0000660431E06F109016E1ECB40CE40B3427E
:1070B00000D898B953064CBFDCF82030236A23610E
:1070C00004F11008002ED4D02169A068424600F0D7
:1070D000BAFD002806F1FF36F4DCD2E7F61AEFE736
:1070E000F8B50F4604461546002124221E4607F037
:1070F00050FBB868A060A58005F00F053B6AE3600F
:107100006A0100EB451595F83B301F0744D403F0A6
:107110001703237095F83B1011F0180F04BF43F0CC
:10712000080323709DF81830E37006F00303012B69
:107130002CD0022B28D07BBB71052DD40123A3704A
:10714000A1788B0704D52378DF0625D4DD0723D467
:10715000B31123F07F0306F008052B430B43A37004
:10716000C36AA3618318B3F84420B3F84A1041EA14
:107170000241720513D559B9A37843F00403A370F3
:10718000730410D40120F8BD0323D8E70223D6E707
:1071900000F0F9FD0028EFD100202070F3E7216214
:1071A000DB6CE361ECE7E1692046FFF756FF00285E
:1071B000E8D1F1E738B5037804460BB9012038BDB2
:1071C00083785A0723D50121FFF752FE054628B9D7
:1071D000637843F0010363700020F0E70378E52B48
:1071E000F6D023781B0744BFE369C361236A438356
:1071F000638C8382094B1B682BB100F11601183098
:1072000098472B8B6B82A37823F00403A370A068AC
:10721000FFF7D8FD0028DBD0D0E700BF3CE6032015
:1072200010B50446FFF7C6FF0023237010BDF0B56C
:1072300093B01F46002309930378019206460C463B
:1072400013B1002013B0F0BD0B7813F0700FF8D01D
:1072500013782F2B12D1019A13782F2B02D10132E0
:107260000192F8E7A1681BB93046FFF710FEE9E785
:1072700009A8FFF791FD0028E3D009AC019801AA05
:1072800003A900F031F90028DBD0019B1B789BB1EA
:10729000002303AA2146304600F0BAFA0028D0D0D5
:1072A00035460FCD09AC0FC40FCD0FC42B6823603A
:1072B0003046FFF7B5FFE0E73B4603AA21463046DC
:1072C00000F0A6FABEE700B58BB000230A46019392
:1072D0000146012301A8FFF7AAFF10B101A800F0A1
:1072E000E1F90BB05DF804FB2DE9F047037889461E
:1072F0001907044617465BD583789A0758D51B07AC
:1073000051D46369DB43BB4252D3B84604F1100A3F
:107310006669B8F1000F00F09180A0684379C6F368
:10732000080513EA56260ED16DB92169002946D009
:10733000524600F088FC00283ADB04D12046FFF7D3
:107340004EFD002834D02169A06800F076FC311889
:10735000A06815B9B8F5007F3FD2C5F5007646455F
:1073600028BF4646002D36D16269E3699A4234BF90
:1073700001220522243000F03DFCC8B128443246E9
:107380004946354407F0DDF9B5F5007F04D1A06822
:10739000243000F007FC58B1636933446361B144A1
:1073A000A8EB0608B4E7C169FFF757FE0028A8D18B
:1073B000637843F0010363704FF0FF3050E0236ABD
:1073C0003BB92046FFF70BFD0028F1D0236923626B
:1073D000B9E72361B7E70122CCE7B8F5806FC26A4D
:1073E0001BD390F804C0ACEB0606F3B24FEA582E5C
:1073F000734528BF734691424FEA432607D31A4488
:107400008A4282BF4FF0FF3280F82450C262A568E2
:107410004A46286800F0D1FFBDE7914202BF4FF015
:10742000FF3380F82450C362A3684A46186800F00E
:107430004EFF0028BCD04FF40076ADE7E269A37898
:10744000B24204D2E66143F00403A37003E0084AA9
:107450001268002AF7D194F90230002B02DB38467B
:10746000BDE8F0872046FFF7A5FE0028F7D19FE78B
:107470003CE60320042904D800EB4100B0F80100E9
:1074800070470A299BBF01F1FF3100EB4100013138
:10749000C08884BF00EB410080887047411E00F126
:1074A0000A030020420842EAC01011F8012F52FAE4
:1074B00080F08B42C0B2F5D1704738B5CB68044636
:1074C0000D4623B9BDE838408968FFF7E0BC2422A7
:1074D000002107F05EF9102301202370A070AB6833
:1074E000A360EB68236238BD2DE9F047064610F82B
:1074F000013B202BFAD06A4D8E600024335DC3B16E
:107500002F2B16D05C2B02D10020BDE8F087A3F111
:107510002200C0B21D2803D825FA00F0C007F3D41A
:1075200003F0BF003C28EFD0203B5E2BECD80134A9
:10753000E4E733191846074610F8015B202DFAD00E
:107540002F2DF8D017604CB113F8012D2E2A01D041
:10755000202A01D1013CF6E7FF2CD5DC4FF0203387
:10756000C1F811304C60C1F80D304B614FF000088C
:1075700016F808302E2B01D0202B02D108F101087B
:10758000F6E7B8FA88F04009651E6B1C02D0735DFF
:107590002E2B14D14FF0000907274A46CA464FF058
:1075A000080EA04568DA16F80830202B03D02E2BE1
:1075B00007D1A84512D0002008F10108F1E7013DEC
:1075C000E3E7222B08D07C2B06D0A3F12A0CBCF1D8
:1075D000050F0AD82D2B12D0A8455BD10A2F4AD00F
:1075E0000A2708224FF0100EE6E7A3F13A0CBCF18F
:1075F000050FF1D9A3F15B0CBCF1020FECD9A3F19B
:10760000210CBCF15D0FE7D8A845E7D0BA4230D8CD
:10761000A3F1610CBCF1190F1AD8203B4EEA0909FD
:10762000DBB25FFA89F902F1010C5FFA8CFC0A44C3
:10763000BCF1060F537301D881F80CC06246BBE75A
:10764000A84518DCA8460A2708224FF0100EB2E71A
:10765000A3F1410CBCF1190F98BF4EEA0A0AE2E708
:107660000B7B0120087019447E234B7331238B73ED
:107670004BE70A2FE4D100204B7B202B3FF444AF93
:107680000028EDD01AEA090F18BF4FF0020981F85F
:1076900000903AE7BA42ECD800205F23C3E700BF6E
:1076A000010100312DE9F0418AB0002301930378F4
:1076B000190704460AD583789A0707D5016A39B9AC
:1076C00001212046FFF7D4FB054638B9002048E0E9
:1076D000806800F058FB0028F2D1F7E7FFF7DEFEE4
:1076E000E5272F70002306462370A068FFF76AFB8A
:1076F0000028EBD0E378002B33D0214601A8FFF718
:10770000DCFE0028E2D00125E3785FFA85F84345E6
:10771000DCD3A188491B490101A8FFF79EFC002882
:10772000D4D0002101A8FFF779FC0028CED0C37A7D
:107730000F2BCBD1027802F01F034345C6D1437B08
:10774000B342C3D10770A16891F8243043F001031C
:1077500081F82430530605F10105D5D5A068FFF75F
:1077600031FB0AB0BDE8F0812DE9F84391F80C90A7
:1077700006460C4602257E2701F10D086168A268C5
:107780006B189BB21144914206D012F8010B03EB27
:10779000431343409BB2F6E7B9F1030F28BF4FF004
:1077A000030909F10402D2B203F00F01A018013A53
:1077B0000929D2B294BF30313731914541734FEA34
:1077C0001313F1D104EB090300215F733046FFF777
:1077D00044FC01213046FFF721FC014628B97078AE
:1077E000B0FA80F04009BDE8F88303786BB1C37A42
:1077F0001B07EED40B22404606F093FF0028E8D189
:107800000135ADB2642DB9D1EDE70120EBE7000001
:107810002DE9F04F2DED028B8BB00D4606930B78C2
:10782000079013F0700F174605D100200BB0BDEC88
:10783000028BBDE8F08F079B1B78002BF5D15368B6
:10784000059313789C071FBF059B0C330D22B3FBD8
:10785000F2F31ABF0133DBB2012300212846039360
:10786000FFF7FBFB07F10D034FF0000B08EE103A9A
:10787000DA465C465E46CDF810B0D9466B69012108
:107880002846C3F34F18FFF7C9FB0346002871D100
:107890006B78002BC9D1069B9A05C6D503F003036C
:1078A000013B012BC1D8049B002C08BF4346049325
:1078B000039B9C42C0F0F180B9F1000F40F00A81B7
:1078C000049B28465901FFF7C8FB0028ADD0039B55
:1078D00003F1FF395FFA89F94E464FF0000A4FF085
:1078E0000F08002E00F00D8100212846FFF796FBBF
:1078F0000446002899D0AA6892F824304E4543F0F7
:1079000001030CBF46F0400BB34682F8243080F8E8
:1079100000B080F80B8080F80CA007F10D00FFF795
:10792000BDFD84F81AA0607384F81BA00BF01F0340
:107930000D22013BD7F808C0534300220599994214
:1079400040F2D0801CF80310042A5FFA82FE02F194
:10795000010000F2CD8004EB4202A2F801100D28D4
:1079600003F101030246E9D1013EF6B2B9E74FF057
:10797000010983E70278E52A00D07AB90499002C3E
:1079800008BF4146049103998C423CBF0134E4B2E4
:10799000002A80D0E52A05D100266FE703998C42A2
:1079A00038BF00242E2AF7D0D97A0F294AD116BB26
:1079B00012F040063FF462AF02F01F0693F80DB0DC
:1079C000B2460D220AF1FF3802FB08F8059A42453B
:1079D000E2D9A2EB08020892002202EB0801099109
:1079E0001846D1B2FFF746FD08998A420DD100280A
:1079F00018BF002642E70AF1FF3A5FFA8AFA5245B9
:107A0000CAD15A7B5A45DCD0C6E7FF28C4D85FFAF2
:107A100080FEAEF141011929B9689CBF0EF120002A
:107A20005FFA80FE08460999415CA1F1410CBCF166
:107A3000190F9CBF2031C9B27145ADD101320D2A59
:107A4000CBD11BE70807A7D45EB1BAF1010F7FF4D1
:107A5000ECAE1846FFF722FD58457FF4E6AEB1467E
:107A60000EE018EE101A0B22184606F05AFE0028F7
:107A70007FF404AF97F8009019F001097FF477AF15
:107A8000069B19053FF5D1AE069B0798CDF80090EF
:107A900042462946FFF724FBC8E600212846FFF7A7
:107AA000BDFAA0B96B78002B7FF4BFAE2846FFF774
:107AB000A1F900283FF4B9AEAB681B79012B3FF662
:107AC000FBAE039B1034E4B2A342EFD8F4E60134DA
:107AD000E4B2EDE639462846FFF746FE00287FF47B
:107AE000EFAEA2E614BF4FF0FF31002189B22BE7C1
:107AF000BEF10A0F94BF04EB420204EB40029180F6
:107B00002DE731462846D5F81480FFF787FA04465A
:107B100000283FF48AAE2022314606F03AFED7F81C
:107B20000D302360D7F811306360B7F8153023812A
:107B3000FB7DA3723B7803F0180323730F4B1B6884
:107B40009BB104F10E0104F110009847238A63826F
:107B50002383E389E382AA6892F8243043F0010387
:107B6000C8F34F1882F824308EE72123237428238A
:107B700063740823A673E373E8E700BF3CE60320C1
:107B800013B50446084659B1019106F0B6FE2368C4
:107B90000199DB680246204602B0BDE81040184754
:107BA00002B010BD37B50378DA07044620D5436824
:107BB000816800F10C021868019200F088FB019ABC
:107BC000054618B90025284603B030BD23789B0729
:107BD00004D4237823F001032370F4E7D4E90130BF
:107BE00019690144186800F072FB0028F1D1E9E737
:107BF0000125E8E770B583688B4204460E461546BA
:107C000009D0FFF7CFFF08B9002070BD6B070AD578
:107C100000232370A660227805F003052046154353
:107C200000F80C5BF1E7636804F10C021868314658
:107C300000F0C4FA0028EBD1E6E783794069023905
:107C4000994008447047012970B505460C46164610
:107C500002D84FF0FF3070BDC3698B42F9D3C379AE
:107C6000202B16D18169022201EBD41100F50C7092
:107C7000FFF7C0FF0028ECD004F07F0450F8243058
:107C800023F07043EA699A4226BF33600120002046
:107C9000E1E7102BDDD1C1F30723816902221944EA
:107CA00000F50C70FFF7A6FF0028D2D0E4B230F840
:107CB0001430E7E7012938B50C46154601D80020F5
:107CC00038BDC3698B42FAD3C379202B0FD18169A8
:107CD000032201EBD41100F50C70FFF78BFF002895
:107CE000EDD004F07F0440F824500120E8E7102B89
:107CF000E5D1C1F3072381690322194400F50C7013
:107D0000FFF778FF0028DAD0E4B220F81450ECE74F
:107D10002DE9F341C4688C4205460E46904601D3D6
:107D2000012701E00C460027EB690134A34202D28F
:107D3000C7B9EC68F4E7A64214D001AA2146284648
:107D4000FFF781FF00280DDBEED0019B002BEBD16C
:107D500007B1EC606FF0704221462846FFF7AAFF9A
:107D6000074620B90027384602B0BDE8F08116B9B1
:107D7000C8F80040F7E7224631462846FFF79AFF49
:107D80000028F5D1EEE773B505460C4601AA214659
:107D90002846FFF758FF061E10DB00222146284622
:107DA000FFF788FF50B1EB68A34224BF04F1FF3412
:107DB000EC60019C002EE9D102B070BD0020FBE711
:107DC000012370B50022C3604FF0FF330446C27137
:107DD00000F12406806280F82420C362C0F83402D7
:107DE00080F83022C0F838320D46B9B1042901D9E3
:107DF000002070BD11463046FFF7FCFE0028F7D08A
:107E000000EB051393F8AE315B06F1D105F11B01D0
:107E100000EB0110D0F80650002DE9D000222946D1
:107E20003046FFF7E7FE0028E2D0B0F80B30B3F59C
:107E3000007FDDD1037C022BDAD1C389002BD7D0A0
:107E4000417B21714B1E63710023A371092601231D
:107E5000994207D0013ECBD0A2795B000132DBB260
:107E6000A271F5E7C18A01B9416A2161C3892B4436
:107E7000A361B0F81120228103EB41032362B0F823
:107E80001110490101F2FF1103EB51236361B0F8B6
:107E9000132002B9026AE91AA3791144D9404B1C94
:107EA000E36140F6F473994202D80C23E3719FE733
:107EB0004FF6F473994285BFC36A236210232023CF
:107EC000E371012095E700F0CBBA00F0AEBA0000F4
:107ED00070B50E4E0D46144601F07EFC3368C01A94
:107EE0000B4B984208D901F07FFC0A4B186001F057
:107EF0005FFE01F071FC306001F076FC80B2401B47
:107F0000A042D4BF0020012070BD00BF44E6032082
:107F1000A086010028E7032038B5057A04464DB94C
:107F2000406800F06BFA63682946187D05F08FFC05
:107F30000123237238BD10B5037A04466BB1436840
:107F40000121187D05F083FC6068FF21FFF7BBFF6E
:107F5000606800F067FA0023237210BDF8B504468C
:107F60000D46164601F040FC87B26068FFF7ADFF92
:107F7000FF2860720ED14FF47A7239462046FFF71F
:107F8000A7FF0028F1D0552320462370FFF7D3FF29
:107F90000020F8BDFE2801D05023F5E76068324686
:107FA000294600F047FA607208B16023ECE7606888
:107FB000FFF78BFF6068FFF788FF0120E9E770B5E6
:107FC00004460E4601F010FC85B232462946204692
:107FD000FFF77EFF30B96068FFF777FFFF28F4D125
:107FE000012070BD0020FCE7F7B5037A019204463A
:107FF0000D460BB9FFF790FF25B14FF4967120465F
:10800000FFF7DDFF606845F04001FFF75CFF0326E6
:1080100001AFB95D6068FFF756FF013EF9D2002D50
:1080200060680CBF95218721FFF74DFF6068FFF75F
:108030004CFF0B256068FFF748FF0306607203D50D
:10804000013D15F0FF05F5D103B0F0BD70B5044654
:108050000D46164637210022FFF7C6FF3246294655
:108060002046BDE87040FFF7BFBF00002DE9F0419A
:1080700000250572057085724160044690461E46D3
:1080800001F0B2FB41460746606800F0BBF9636847
:10809000494A1D720125DA601D822046FFF73CFF28
:1080A00063682946187D05F0D2FB0A256068FF2128
:1080B000013DFFF708FF15F0FF05F7D1636829467A
:1080C000187D05F0C4FB0A25002211462046FFF763
:1080D0008BFF0128804618D0013D15F0FF0507D120
:1080E000202320462370FFF726FF0020BDE8F08103
:1080F0006068FD21FFF7E7FE4FF402786068FFF744
:10810000E4FEB8F10108F9D1DEE74FF4D572082199
:108110002046FFF769FF052814D184F80A8000255E
:10812000BFB22A4629212046FFF790FF0246D8B168
:108130004FF4FA6239462046FFF7CAFE0028F0D015
:108140004323CEE704256068FFF7BFFE013D15F02D
:10815000FF056072F7D1AA2804D10223A3724FF061
:108160008045DDE72523BCE7A37A022B18D13A210D
:108170002046FFF739FF08B13723B2E76068FFF701
:10818000A4FE00F0C000C02804BF0323A3726068EF
:10819000FFF79BFE6068FFF798FE6068FFF795FEAB
:1081A0002046FFF7C8FE63683079B168B2891A8249
:1081B0001872D960012099E790D0030038B5837A0E
:1081C000032B18BF490215460A4611210446FFF742
:1081D0000BFF30B1302323702046FFF7ACFE0025A3
:1081E0000BE029464FF400722046FFF7B7FE054624
:1081F0000028F1D02046FFF79EFE284638BD10B576
:10820000837A032B0A4618BF4A0212210446FFF75D
:10821000EBFE30B1312320462370FFF78CFE0020A7
:1082200010BD0120FCE710B500220C210446FFF729
:10823000DBFE30B1282320462370FFF77CFE0020B0
:1082400010BD2046FFF777FE0120F9E7F8B5044698
:1082500016461F46FFF7D3FF68B10025ABB29F4219
:1082600006EB452109D94FF400722046FFF776FE50
:1082700001350028F2D10020F8BD2046BDE8F840C5
:10828000FFF7D1BF38B5044615464068FFF71BFE1F
:108290004FF400726068294600F0E6F86068FF213C
:1082A000FFF711FE6068FF21FFF70DFE6068FFF722
:1082B0000CFE607200F01F00052806D057232046F0
:1082C0002370FFF738FE002038BD0120FCE770B5B1
:1082D000837A032B18BF490215460A461821044623
:1082E000FFF782FE064630B1322323702046FFF7A7
:1082F00022FE00251FE02A46FE212046FFF7C2FF8E
:108300000028F3D04FF4FA612046FFF758FE0546E7
:1083100008B95A23E9E732460D212046FFF764FEEB
:1083200008B12923E1E76068FFF7CFFD0028F8D105
:108330002046FFF700FE284670BD13B501914FF4AB
:10834000FA610446FFF73BFE019A30B95B232370C4
:108350002046FFF7F0FD002005E0FC212046FFF756
:1083600091FF0028F4D002B010BD10B5837A032B22
:108370000A4618BF4A0219210446FFF735FE30B1FC
:10838000332320462370FFF7D6FD002010BD0120C7
:10839000FCE738B54FF4FA610446FFF710FE0546D6
:1083A00030B9562323702046FFF7C5FD284638BD57
:1083B0006068FD21FFF787FDF5E7F8B5044616462E
:1083C0001F46FFF7D2FF70B10025BD4206EB4521E5
:1083D000204604D0FFF7B1FF28B10135F5E7BDE82D
:1083E000F840FFF7D6BF2046FFF7A5FD0020F8BDF7
:1083F000014B01221A70704748E60320011D0068F6
:1084000004F0C8BD10B504460175006804F094FD81
:10841000207D012105F00AFA207D0121BDE81040F0
:1084200005F015BA006804F09BBD0068FF2104F058
:108430001FBE000037B51346074A00920025074CBF
:10844000006825700A46294604F018FE2378002BA0
:10845000FCD0002003B030BDF1830B0048E60320C0
:10846000006804F005BE000037B51346064A0092C6
:108470000025064C006825702A4604F0FFFD23788D
:10848000002BFCD003B030BDF1830B0048E6032085
:108490002DE9F04F85B01F46BDF93880BDF83C305E
:1084A000A8EB0209A7EB010AB9F1000FB8BFC9F1A7
:1084B0000009BAF1000FB8BFCAF1000AD1458346DE
:1084C0000C46154604DD3A462C4647460D46904676
:1084D000BC4205DD2A464546904622463C461746A4
:1084E0003E1BB2B20092A8EB050282EAE271A1EB58
:1084F000E271C6F3C03202FA86F64545B4BF0122E6
:108500004FF0FF32019176100292BC421CDCDBF886
:1085100000200393D145D2F81880C7BF29462246D0
:108520002A4621465846C047019A039BB61AB1B263
:1085300036B2002E05DA029A1544009A56182DB26A
:1085400036B2013424B2E0E705B0BDE8F08F7047E1
:1085500010B404682469A4465DF8044B604730B445
:108560000468BDF808500295A46BA44630BC60476F
:1085700030B40468BDF808500295E46BA44630BCE2
:10858000604770B4BDF90C50BDF810600468CDE9C7
:108590000356246CA44670BC60472DE9F3411C4689
:1085A0000368BDF820805B6905461646013C3444EB
:1085B0000F4624B298472B68CDF8048000949C6A3B
:1085C00028463B4632463946A0472B68DB6A284698
:1085D00002B0BDE8F04118472DE9F3411D4603689C
:1085E000BDF820805B69044617460E469847CDE9E2
:1085F000007822686B1E3344956A20461BB23A46C7
:108600003146A8472368DB6A204602B0BDE8F04146
:1086100018472DE9F3471E460368BDF928905B69AA
:10862000BDF82C800C460546174698472644B442B0
:108630002B680BDACDF80080D3F820A021464B46FA
:108640003A4628460134D04724B2F0E7DB6A284690
:1086500002B0BDE8F047184713B502680191B0F9C0
:108660000E100091146CB0F90C3000221146A04796
:1086700002B010BD2DE9F74399421646BDF92870A6
:10868000BDF82C90026880460D461C4613D1BE42B0
:10869000C8BF3346CDF82890C4BF3E461F467B1C5A
:1086A000946B9B1B1BB2324629464046A44603B03E
:1086B000BDE8F0436047BE420AD19942C2BF0B46B3
:1086C00025461C46631CCDF82890D46B5B1BE9E75C
:1086D00053699847CDE90079D8F8003040469F6A41
:1086E000324623462946B847D8F80030DB6A404670
:1086F00003B0BDE8F04318472DE9F3471D46036872
:10870000BDF82C805B69BDF9289004460F461646DB
:1087100098472368CDF80080D3F824A032462B4632
:1087200039462046D0472368CDF8008009F1FF3252
:108730003244D3F824A039462B46204612B2D04703
:108740002368CDF80080D3F820A032464B46394646
:108750002046D0476B1ED9192368CDF800801D6ACA
:1087600020464B46324609B2A8472368DB6A2046BA
:1087700002B0BDE8F0471847704701F00303B0F9B5
:108780000A208376C907B0F9083059BF8381C281B6
:108790008281C3817047000030B54281C281074A9F
:1087A000074D0181002481814FF0FF31C0E905129E
:1087B0004460056004610477046230BD010100017A
:1087C000C4150C002DE9F04F89B0CDE90212026802
:1087D000BDF948800493BDF94C3052690593BDF84A
:1087E00050A00446904718F107024FF0000648BF1A
:1087F00008F10E024FEAE20B01963546039B019AFF
:10880000BDF904109A18059B8B4212B227DD049B18
:1088100033444FF0000906930FFA89F080451FFAA0
:1088200089F117DD4F0705BF069BC0106D001D5C69
:1088300018BFEDB22B060AD5029B20680792194497
:10884000836909B21F4620465346B847079A09F183
:108850000109E1E7019B013301935E44CEE7236800
:10886000DB6A204609B0BDE8F04F18472DE9F04F0C
:108870002DED028B91B01646026ABDF874809DF80A
:1088800078509DF87C4003911F46BDF870300493EA
:108890008346002A40F0C580B0F90C308B4240F38B
:1088A0004C81B0F90E30B34240F34781062313FBED
:1088B0000513002B40F3418106EBC403002B40F36A
:1088C0003C81037F1BB9AF2F84BF0137FFB2DBF8B8
:1088D000003058465B6998470522099200220592AC
:1088E000984A07EB8703D3180C93B3B20693059A03
:1088F0000C9B9B5C0793ABB20B93BDF80C300893B9
:10890000039B02FB05F919FA83F90FFA89F308EEC4
:10891000103A08230A93039B02EB030A4FF0000965
:108920000FFA8AFA079ADBF80030D20752D5012DE8
:108930001FFA89F23ED1012C3CD19B6906991F4652
:10894000049B0A4412B251465846B84709F1010344
:108950004FFA83F9079B5B0807930A9B013B13F0CF
:10896000FF030A93DED1059F01377BB20593099B74
:10897000013B13F0FF030993B9D1049B43450FD08A
:10898000012DDBF800303BD1012C39D10899CDF80D
:10899000008005311C6A3246082309B25846A047B8
:1089A000DBF80030DB6A584611B0BDEC028BBDE845
:1089B000F04F1847069914FB02F20A4404990191FA
:1089C0000094DB6918EE101A1F4612B22B46584667
:1089D000B847BBE7049A4245B8D0012D1FFA89F287
:1089E00007D1012C05D19B6906991F460A444346CD
:1089F000A8E70699CDF8048014FB02F20A44DFE7E9
:108A00000B9ACDF8048002EB8201089AE4000A4434
:108A100011460094DC6932462B4609B25846A047FD
:108A2000BEE7137A516812680B92FF1AFFB201EB8E
:108A3000C70331F8372006929A780992DA780C92B7
:108A4000012D93F9052093F906A00A9201D8012C73
:108A500057D9BDF9283008930FFA8AF30793DBF84A
:108A6000003058465B699847B3B24FF000080E9348
:108A70001AFA86F3C14647460F930C9B9F428FD24A
:108A8000079B0E9A3B4403FB0423002205920F9A96
:108A90001BB202EB070A08EE103A0FFA8AFA4346B5
:108AA000099A0599914241D25A1CD2B25B070D92A4
:108AB00007D1069B06990B9A01339BB212F80190DD
:108AC000069319F0800F12D0012DDBF80030BDF8AD
:108AD0000C101AD1012C18D10A9A9B691144059ADD
:108AE00011441E465246049B09B25846B047059EA3
:108AF0000136F3B24FEA490905935FFA89F90D9BF4
:108B0000CEE70023CDE90733A9E70598089A024488
:108B100002FB0511049ACDE90042DB6918EE102A28
:108B20001E4609B22B465846B047E0E7099B01377D
:108B300098445FFA88F8FFB29FE711B0BDEC028B52
:108B4000BDE8F08FB9100C00F0B5026A85B004469C
:108B50000B46002A34D10A2908D1438A0282427E78
:108B600003EBC2036382012005B0F0BD0D29FAD0EA
:108B7000E17E007E657E71B1B4F91060062111FBC3
:108B80000061B4F90C60B142C1BFB4F91210228285
:108B900001EBC5026282E28A0192A28A0092CDE9CB
:108BA0000205B4F91220B4F910102046FFF75EFE5A
:108BB000237E228A03EB430302EB43032382D2E7A3
:108BC0000A2907D100230382417E927A438A01FB5E
:108BD0000233C7E70D29C6D0157AA942C3D3517A0B
:108BE0009942C0D351685D1BEDB201EBC505A87871
:108BF00028B3E97819B3E17E267E677E91B195F9B5
:108C000005100844B4F9101006FB0011B4F90C006B
:108C1000814207DD00202082B4F91210927A02FB13
:108C200007126282E28A0192A28A0092CDE902676B
:108C3000B4F91220B4F910102046FFF717FE297975
:108C4000227E238A01FB0233B8E7012938BF0121C4
:108C50000176417670474260002202722022017044
:108C6000C260704710B5037A044653B1217860683A
:108C700003F056FF606803F05BFFB0FA80F0400934
:108C800010BD012100F003F80028EFD1F8E738B556
:108C9000044640680D4603F03DFF0120207225B1D7
:108CA0002046BDE83840FFF7DDBF38BD2DE9F84369
:108CB000DDE908961F46C368154632449A420446C9
:108CC000884602D90020BDE8F8830178406803F0A7
:108CD00027FF7EB9606803682A46DB6841469847EB
:108CE0008542EFD16068394603F01EFFB0FA80F08C
:108CF0004009E8E7B9F1000FECD06068036832463C
:108D0000DB68494698478642DCD1E3E708B540680E
:108D100003F0FCFE012008BD10B50446406810B108
:108D200003689B689847204610BD38B5044690F903
:108D30000E00012180B204F079FD94F90E000121AA
:108D400080B204F084FD256835B1284604F0F4F8BB
:108D5000012084F8340038BD94F90F00012180B25D
:108D600004F064FD637B94F90F00012B94BF294646
:108D7000012180B204F06BFD94F91000421C09D06F
:108D8000012180B204F052FD94F91000012180B25B
:108D900004F05DFD94F91100431CD9D0002180B28C
:108DA00004F044FDD4E700002DE9F04F04460068CC
:108DB00085B00D4640B10023009313460A4604F0E7
:108DC0005DF905B0BDE8F08F237BA068484FB7FB85
:108DD000F0F7002B0B780CBF4FF0010B4FF0800B1E
:108DE0001BEA030F01EB02030CBF4FF001094FF028
:108DF0000009FFB20393039BAB42E2D095F800A0B9
:108E00005E464FF0000817B1384600F0DDFC637B8A
:108E100013F0FD0F41D194F910305A1C0FD01AEA0B
:108E2000060114BF012300234B4508D06369606A23
:108E30001A6800292CD002431A604FF00109A16979
:108E4000E36A0A6813430B6017B1384600F0BCFCB4
:108E500094F91130013306D0E3691A68A36A1A4203
:108E600018BF46EA0808A169E36A0A6822EA030310
:108E70000B6094F91130013318BF85F80080237B13
:108E8000002B32D17600F6B2002EBCD10135B2E70C
:108E900022EA00021A608946D1E7A169E36A0A68FA
:108EA00013430B6017B1384600F08EFC94F9103074
:108EB000013308D06369616A1A681AEA060F14BFA1
:108EC0000A438A431A60A169E36A0A6822EA030333
:108ED0000B6094F911300133CBD0E3691A68A36AAF
:108EE0001A4218BF46EA0808C3E77608CCE700BF75
:108EF00020A1070007B501228DF807100DF1070129
:108F0000FFF752FF9DF8070003B05DF804FB2DE961
:108F1000F041044600680E4617461D4610B16168D0
:108F200004F038F894F90E00002180B204F08FFCB0
:108F3000069B05EB0308454508D13744B7420BD0E3
:108F400016F8011B2046FFF7D5FFF7E715F8011BC0
:108F50002046FFF7CFFFEEE794F90E00012180B223
:108F600004F075FC206808B103F0FAFF0120BDE8A9
:108F7000F0810029F0B566DBB0F90C408C4262DD6F
:108F8000002A60DBB0F90E4094425CDD847E022C46
:108F90005AD0032C61D0012C04D10489D24314444B
:108FA0000A4621B2B0F938408C42A8BF0C4604876B
:108FB000B0F93A409442A8BF14464487B0F93C4007
:108FC0008C42B8BF0C468487B0F93E409442B8BF8B
:108FD0001446C48790F84C40012C16D1012B42D086
:108FE000022B51D08BB9002A0589476B1446B8BFB4
:108FF000D41DE41014FB051402F00706012505FA40
:1090000006F63D5D25EA06053D5590F84C40042CDA
:1090100019D1048914FB02F202EBD27401EBD17274
:1090200042F34F0202EB6402446BA05CC9074BBFE2
:1090300003F00F0300F00F0020F00F0040EA0313CD
:1090400048BF0343A354F0BD0489013C611A44891D
:10905000D243224409B212B2A4E74489013C641A03
:10906000114622B29EE7002A0589466B1446B8BF16
:10907000D41DE41014FB051402F007070125BD40C0
:10908000375D3D433555C0E7002A0589466B1446D8
:10909000B8BFD41DE41014FB051402F00707012526
:1090A000BD40375D7D40EDE738B50D4611460446BD
:1090B0001AB209B2FFF770FB069A0B4BE262079AED
:1090C00023600023C4E90933C4E90C234FF0FF33C4
:1090D000C4E910339DF91430A364049B84F84C5008
:1090E0002365204638BD00BF1C160C0038B50C4B5C
:1090F00003600446406B18B100F0F2FD0023636387
:10910000656A35B12846FFF707FE38212846FAF789
:10911000C6FFA06A10B11021FAF7C1FF204638BD82
:109120001C160C0030B587B0856A8DF80F10044608
:109130007DB10023CAB2CDE900338DF814308DF82B
:1091400015200123022205A92846FFF7AFFD07B02D
:1091500030BD2946B0F8400004F079FB606A009504
:109160002B4601220DF10F01FFF7D1FEEFE7002999
:1091700014BFA721A621FFF7D5BFF0B5856A85B03A
:1091800004460E46174665B100230DF10F008DF819
:109190000F300123009001932846FFF787FD05B0AB
:1091A000F0BD2946B0F8400004F051FB606A00951C
:1091B0002B463A463146FFF7AAFEF0E710B5B0F964
:1091C0000A10038990F84C2012FB03F2CB1D48BF14
:1091D00001F10E03DB1004465A43406B002105F0F9
:1091E000D8FA0023A3632389013BA3876389013B4A
:1091F000E38710BD70B5436B04460E4615460BB3AE
:10920000002D33D1236D002B50D01020FAF743FFEF
:10921000054618B1226D3146FFF71DFDA5621DB34D
:1092200001212846FFF733FDF0B12046FFF7C6FFC6
:109230000023A3632389013BA3876389013BE38761
:10924000012012E02389B4F90A2090F84C0010FBA9
:1092500003F0D31D48BF02F10E03DB10584300F0AA
:1092600037FD60630028CBD1002070BDA06C0028C2
:10927000C8DB012180B204F0D9FAB4F8480001211A
:1092800004F0E5FA0A2000F08BFDB4F84800002154
:1092900004F0DDFA0A2000F083FDB4F84800012153
:1092A00004F0D5FA0A2000F07BFDABE7606A0028E5
:1092B000DAD0FFF73AFD0028D6D0B4F840000121FB
:1092C00004F0B4FAB1E707B581238DF80510022246
:1092D00001A98DF80430FFF750FF03B05DF804FBDF
:1092E00010B5034B0360044600F058F9204610BD4A
:1092F00058180C0010B50446FFF7F2FF204658211D
:10930000FAF7CDFE204610BD30B585B004460A9D63
:109310000295099D01959DF92050009500F024F9D2
:10932000024B2360204605B030BD00BF58180C002A
:1093300030B5044685B0FFF75DFF2F212046FFF7CB
:10934000C2FFA2682F4B9A4221D1236801211B6BD7
:1093500020469847B4F90820B4F90A102023203A8F
:1093600073390125CDE9013502EBD272732301EB8C
:10937000D171009341F34F01234B204642F34F023A
:10938000FFF720FA236800211B6B20469847A3684B
:10939000B3F1801F17D1B4F90820B4F90A102023C3
:1093A0000120203A7339CDE9013002EBD2727323E8
:1093B00001EBD171009342F34F02134B41F34F0184
:1093C0002046FFF7FFF9114916222046FFF7D5FE88
:1093D000054618B90025284605B030BDA368B3F18D
:1093E000801F07D0642000F0DBFCAF212046FFF790
:1093F00099FEF0E7064904222046FFF7BEFE00284A
:10940000F0D1E7E74000800070160C00B0180C00A7
:10941000AC180C002DE9F04F04468BB000F07CF93D
:10942000B4F90A30B4F93A60B4F9087094F8389095
:10943000DA1D48BF03F10E0240238DF82330C2F33A
:10944000C7030393A36AB4F93C20DB68FFB2002E84
:1094500003F1FF3322EAE272B8BF0736D2B29BB201
:10946000B945C6F3C70628BFB9460492DBB27A1CD9
:1094700006FB079B05920693039B9E426AD2636B91
:10948000258994F8542003EB0B08059B5D1B049B76
:109490004A441D44A36A1011A5EB0905A6F1500129
:1094A000EDB2C9B2103002F00F029BB34FF0000AC8
:1094B0008DF825108DF82600E16A8DF824A0184655
:1094C0008DF82720FFF722FCCDE900AAA06A01232E
:1094D000042209A9FFF7EAFB0DF1230AA06A95B15E
:1094E000069BAB4228BF2B461A4601234146CDE9D5
:1094F00000A30792FFF7DAFB079AAD1A9044EDB28A
:1095000000F00AF9EAE7216BFFF700FC0136F6B23A
:10951000BB44B1E78DF824108DF825001946B4F846
:1095200040008DF82620079304F091F9079B0093E3
:10953000032209A9606AFFF7EAFCB4F840000121A0
:1095400004F085F9079B606A00932A464146FFF7BD
:10955000DEFCDBE74FF004224FF0FF33C4E90E23BB
:109560000BB0BDE8F08F000030B585B004460A9D11
:109570000395099D02959DF92050CDE900351346CC
:109580000A460121FFF790FD034B2360204600238C
:1095900084F8543005B030BDD0180C0010B5034B22
:1095A00003600446FFF7A2FD204610BDD0180C0052
:1095B00008B5024B1B689B68019308BD7802030045
:1095C00008B5024B1B681B6C019308BD78020300B1
:1095D00008B5024B1B685B6F019308BD780203005E
:1095E00008B5024B1B689B6F019308BD780203000E
:1095F00008B5024B1B68DB6F019308BD78020300BE
:1096000008B5034B1B68D3F88430019308BD0000F4
:109610007802030008B5034B1B68D3F89830019318
:1096200008BD00007802030008B5034B1B68D3F89F
:10963000B430019308BD00007802030008B5034B65
:109640001B68D3F8BC30019308BD0000780203000A
:1096500008B5034B1B68D3F8C430019308BD000064
:109660007802030008B5034B1B68D3F8D830019388
:1096700008BD00007802030008B5034B1B68D3F84F
:10968000DC30019308BD00007802030008B5034BED
:109690001B68D3F8E030019308BD00007802030096
:1096A00008B5034B1B68D3F8E430019308BD0000F4
:1096B0007802030008B5034B1B68D3F8E830019328
:1096C00008BD00007802030008B5034B1B68D3F8FF
:1096D000F030019308BD00007802030008B5034B89
:1096E0001B68D3F8F430019308BD00007802030032
:1096F00008B5034B1B68D3F80031019308BD000087
:109700007802030008B5034B1B68D3F804310193BA
:1097100008BD00007802030008B5024B1B68DB6837
:10972000019308BD4802030008B5024B1B68DB69C2
:10973000019308BD4802030008B5024B1B681B6A71
:10974000019308BD4802030008B5024B1B685B6A21
:10975000019308BD4802030008B5024B1B689B6AD1
:10976000019308BD4802030008B5024B1B68DB6A81
:10977000019308BD4802030008B5024B1B685B6CEF
:10978000019308BD4802030008B5024B1B68DB6C5F
:10979000019308BD4802030008B5024B1B685B6DCE
:1097A000019308BD4802030008B5024B1B681B6FFC
:1097B000019308BD4802030008B5024B1B685B68B3
:1097C000019308BD1802030008B5024B1B68DB6853
:1097D000019308BD1802030008B5024B1B681B6902
:1097E000019308BD1802030008B5024B1B685B69B2
:1097F000019308BD1802030008B5024B1B689B6D5E
:10980000019308BD1802030008B5024B1B685B6E8C
:10981000019308BD1802030008B5024B1B685B6882
:10982000019308BD2C02030008B5024B1B689B681E
:10983000019308BD2C02030008B5024B1B68DB68CE
:10984000019308BD2C02030008B5024B1B681B697D
:10985000019308BD2C02030008B5024B1B689B69ED
:10986000019308BD2C02030008B5024B1B68DB699D
:10987000019308BD2C02030008B5024B1B681B6B4B
:10988000019308BD2C02030008B5024B1B681B683E
:10989000019308BD2802030008B5024B1B68DB6872
:1098A000019308BD2802030008B5024B1B689B69A1
:1098B000019308BD2802030008B5024B1B68DB6951
:1098C000019308BD2802030008B5024B1B681B6A00
:1098D000019308BD2802030008B5024B1B685B6AB0
:1098E000019308BD2802030008B5024B1B689B6A60
:1098F000019308BD2802030008B5024B1B68DB6A10
:10990000019308BD2802030008B5024B1B681B6BBE
:10991000019308BD2802030008B5024B1B685B6B6E
:10992000019308BD2802030008B5024B1B681B6C9D
:10993000019308BD2802030008B5024B1B685B6950
:10994000019308BD6402030008B5024B1B689B68C5
:10995000019308BD6802030008B5024B1B68DB6871
:10996000019308BD6802030008B5024B1B681B6821
:10997000019308BD3002030008B5024B1B685B6908
:10998000019308BD3002030008B5024B1B68DB6978
:10999000019308BD3002030008B5024B1B681B6A27
:1099A000019308BD3002030008B5024B1B685B6AD7
:1099B000019308BD3002030008B5024B1B689B6A87
:1099C000019308BD3002030008B5024B1B689B6B76
:1099D000019308BD3002030008B5024B1B68DB6B26
:1099E000019308BD3002030008B5024B1B681B6CD5
:1099F000019308BD3002030008B5024B1B685B6C85
:109A0000019308BD3002030008B5024B1B68DB68F8
:109A1000019308BD3C02030008B5024B1B681B699B
:109A2000019308BD3C02030008B5024B1B685B694B
:109A3000019308BD3C02030008B5024B1B689B69FB
:109A4000019308BD3C02030008B5024B1B68DB69AB
:109A5000019308BD3C02030008B5024B1B681B6A5A
:109A6000019308BD3C02030008B5024B1B689B6ACA
:109A7000019308BD3C02030008B5024B1B68DB6A7A
:109A8000019308BD3C02030008B5024B1B681B6C28
:109A9000019308BD3C02030008B5024B1B681B681C
:109AA000019308BD4C02030008B5024B1B685B68BC
:109AB000019308BD4C02030008B5024B1B681B69EB
:109AC000019308BD4C02030008B5024B1B685B699B
:109AD000019308BD4C02030008B5024B1B689B694B
