:02000002B0004C
:1040000000400B0030290C000000060017000502DC
:084010000401A30F00000000F1
:04401800640C0C0028
:1040200009480A49884208B505D0094A824202D0A7
:10403000121A0AF05EFD0748074A0021121A0AF018
:1040400080FD014808BD00BF88DA032028270C0046
:1040500068DC032068DC0320EDE7032070B5074E21
:10406000074C08F09BFFA41BA4080025AC4200D11C
:1040700070BD56F8043B98470135F7E7DC260C0085
:1040800000270C0002F024BC08B502F0A5FFBDE833
:10409000084008F03BBF05F0B3BF05F0B1BF05F025
:1040A000B7BF000008B5034A03490C2005F0BCFE69
:1040B000FEE700BF71990B00780C0C000078B0FA95
:1040C00080F0400970470123037070477047037CFC
:1040D00013F008031EBFC36A406A1B1A002BACBF53
:1040E00018466FF000407047064B01221A70064ACE
:1040F000D2E900318B4204D0DA6B0132DA6340330B
:10410000F8E77047D8DE0320C0DC0320704710B505
:1041100010210446FFF7C3FF204610BD10B534211F
:104120000446FFF7BCFF204610BD103004F080BCF1
:10413000103004F09EBB07B501220DF107011030CD
:1041400004F0E9FA01280CBF9DF807004FF0FF309A
:1041500003B05DF804FB103004F004BD07B5012284
:104160008DF8071010300DF1070104F0FBFC03B0CF
:104170005DF804FB436913B183690C30184770473D
:1041800013B500210446084605F0D6FC002320465E
:1041900001A9019305F0E8FC019C0CB101232371F6
:1041A0000021012005F0C8FC2CB1236820469B6843
:1041B00098470023237102B010BD000010B5094CD0
:1041C00005F0E6FB2368C01A952809D905F0E0FB45
:1041D000206009F0A9FABDE81040034908F011BDBC
:1041E00010BD00BF64DD03208D0C0C0010B50C4A1F
:1041F000D2E90031002210468B4206D0DC6B242C21
:1042000084BFD86301224033F6E742B1054A1378F0
:10421000182B04D801331370034B01221A7010BD00
:10422000C0DC032088DC032035E6032038B5144BBE
:10423000144D01241C7005F0ABFB2B68C01A9528A7
:104240000ED909F071FA104908F0DBFC05F0A0FB6B
:104250000E4A2860D2E900138B4202D0493B5360DA
:1042600038BD0B4A137883F001031370094B1A7899
:10427000002AF5D0084A147000221A70F0E700BF37
:1042800088DA032064DD03209E0C0C00A4DC0320EC
:1042900089DA03200BDE032036E60320012A02D14F
:1042A000016000207047022A04BF0B680360F8E732
:1042B0000368184737B5044680680D4630B10023BF
:1042C000CDE900331A46022105F056FCA06830B152
:1042D0000023CDE900531A46194605F04DFC03B002
:1042E00030BD0EB403B503AB002153F8042B01938A
:1042F00008F0AFFC02B05DF804EB03B070470000BB
:1043000073B5044608462279A36832B1A3B90B49B4
:1043100002B0BDE8704008F061BC094A267B094D37
:104320000949647B012E18BF2946CDE900140749CD
:10433000FFF7D7FF02B070BD054AEFE7BD0C0C00D8
:10434000D6110C00B90C0C00B50C0C00D30C0C00F1
:10435000AC0C0C000EB403B503AB012153F8042BD5
:10436000019308F076FC02B05DF804EB03B07047EF
:104370002DE9F047354C364E0125257005F008FB38
:104380003368C01A95285FD909F0CEF9314908F091
:1043900038FC05F0FDFA304B30601E782F4925704F
:1043A000B6B10B682E4C9878227890424CD04F686A
:1043B000DFF8B8C00025BB4244D09978914201BFD4
:1043C00002461146CCF80030354640330846F2E745
:1043D000D1E90046224FDFF89880DFF89890A64296
:1043E00032D0A2783B789A4221D1D8F8005009F017
:1043F0009BF905F11A0108F004FC2DB395F817A0FC
:10440000BAF1000F20D16B7D9BB109F08DF91549F0
:1044100008F0F7FB2B6904F803A009F085F9A278EE
:104420001149FFF797FF012389F80030637040348A
:10443000D5E7EA68297EA35C99423EBF297D5B1AD5
:10444000A354F0E705B12270BDE8F08788DA0320B5
:1044500064DD0320F00C0C0089DA0320C0DC0320AB
:1044600059DD0320FE0C0C00190D0C0084DC032028
:10447000B0DC03200BDE03202DE9F843334B344C32
:1044800001221A7005F084FA2368C01A95281ED9F3
:1044900005F07EFA206009F047F92E4908F0B1FBDB
:1044A0002D4B1A782D4BC2B15C682D4D14F83E2C63
:1044B000287882420BD01B6800229C421E4606D000
:1044C000403313F83E1C22B1264B29701E60BDE814
:1044D000F883411A4A424A41EFE7D3E90046204FA8
:1044E000DFF88C80DFF88C90A642F0D0A2783B7881
:1044F0009A4220D1D8F8005009F016F905F11A01B6
:1045000008F07FFB002DE2D0EB7D002BDFD16B7D2F
:104510009BB109F009F9144908F073FB2B690122DA
:10452000E25409F001F9A2781049FFF713FF0123C3
:1045300089F8003063704034D6E7EA68697EA35C8E
:10454000994282BF297D5B18A354F0E788DA0320E3
:1045500064DD0320F00C0C0089DA0320C0DC0320AA
:1045600059DD032084DC0320FE0C0C00190D0C0027
:10457000B0DC03200BDE032010B58368044613B1C2
:10458000032201469847204610BD000037B5134B63
:10459000036004468068C8B100256FF00043CDE990
:1045A000003502212B462A4605F0E6FAA068294686
:1045B00005F002FB237903F0FF0513B105F0B4FA0F
:1045C000F8E7A068294605F0C7FAA56004F10C00D9
:1045D000FFF7D2FF204603B030BD00BF1C140C0013
:1045E00010B50446FFF7D2FF20461C21FFF757FD08
:1045F000204610BD10B54368013B0446436063B9D3
:1046000003689B689847A368013BA3602BB92368A4
:104610002046DB68BDE81040184710BDF0B58C4659
:1046200000251449057104468560016092E8030085
:1046300085B002AF04F10C0687E8030096E803009A
:1046400082E8030097E8030086E803009168A06908
:104650006161D1689560D060A161CDE90035064AFD
:104660002346614604F1080005F06EFA204605B0C5
:10467000F0BD00BF1C140C0081410B0013460A461C
:104680000149096804F011BA48E60320F0B595B075
:10469000044600AF0D461E22002107F130000AF04B
:1046A00050FA2068616807F1280303C397F828309F
:1046B000662B6E4668D13E4907F128000AF0C5FA1C
:1046C00000283ED13B48037C13B1103004F0E6F9DA
:1046D000234607F1280204F120051868596814469A
:1046E00003C40833AB422246F7D1186820609B8888
:1046F000A3801E2207F130012F480AF0F2FA0023AE
:104700002D4A2E497B60381D04F0CFF948B109F0DD
:104710000BF82B49284AFFF71DFE2749274804F0CC
:1047200010FA09F001F8244A2649FFF713FE22493E
:10473000254844F20222FFF7A1FF5437B546BD4693
:10474000F0BD224907F128000AF07FFA68B908F0A5
:10475000EBFF194A1E49FFF7FDFD164B1B7C002B92
:10476000EBD0194804F09AF9E7E71A4907F1280055
:104770000AF06BFA40B908F0D7FF174908F041FA80
:10478000164B01221A70E8E7EB1D23F00703ADEB8F
:10479000030D2A46214668460AF0ABF969460548EA
:1047A00008F01CFA08F0C0FF694608F02AFAC4E7CE
:1047B0002C0D0C000CDE032040DE0320ECE5032072
:1047C000350D0C00680D0C001CDE0320850D0C005F
:1047D0008E0D0C00A60D0C00AF0D0C005EDE03204C
:1047E00030B585B01B4B009313798DF80430936876
:1047F000029300F58C659389ADF80C3004460A46A7
:104800006B4600F26C41284604F0E8FC10B9002029
:1048100005B030BD256004F23C45284604F03EF961
:104820000121204604F084FB014668B12146284658
:1048300003F06BFF0028EAD094F83C3413F0700FBB
:10484000E5D0054B1D60E3E7204604F071FB00282E
:10485000ECD1DCE708140C0048E6032038B50D4C19
:10486000237C054683B90C4944F2022204F110006E
:10487000FFF704FF2946204608F0C3F904F11000B1
:10488000BDE8384004F00AB901462046BDE838408A
:1048900008F0B7B9D4DD03207CDD032040F201121B
:1048A000028001220282084A4261002182610022C4
:1048B000C1704181C160C261026242628262C262B1
:1048C000026342638163704700C079C42DE9F047F9
:1048D00094B00378522B06AF0446894640F093808B
:1048E0004378502B40F08F8008F01EFF7D4908F080
:1048F00088F920460AF0D9F9013820F00700E84687
:10490000ADEB000D20460AF0D0F90DF1180A504425
:10491000002500F8095C2046FD740AF0C6F9204421
:1049200010F8023C3B7320460AF0BFF920442946A8
:1049300010F8013C7B73102207F10C00BD730BF0E3
:104940009FF80646F6B208F0EFFE6749009433463A
:104950003246FFF7FFFC042520460AF0A6F902388C
:10496000854212D2062D9BBF07F138035B190AEB73
:104970000503625D8CBF625D03F82C2C05F1010517
:1049800088BF03F8072CEDB2E6E7B04245D008F047
:10499000CBFE054620460AF088F9821E2846534D74
:1049A00053493346FFF7D6FC2B7C83BB514944F275
:1049B000022205F11000FFF761FE4F49224628460A
:1049C000FFF7C8FC05F1100004F068F808F0ACFE31
:1049D0004A4908F016F96378A3F13002092A01D98F
:1049E000432B0FD1227887F82C2087F82D304449AB
:1049F000444807F1100307F12C0205F019FB424B64
:104A000083F80090C5463837BD46BDE8F0873A497F
:104A100022462846FFF79EFCD8E73C4907F11000E4
:104A20000AF013F905460028ECD1FB1D0493BB1DC9
:104A300003933B1D029307F12C067B1D3449019320
:104A400007F1140207F120030096504605F0F8FA2A
:104A5000237A3B7207F108007D720AF036F8C5B27E
:104A600008F062FE2B492A46FFF774FC2A4BD3E973
:104A7000003199421C46C5D0A278AA4203F14003F6
:104A8000F7D107F120000AF01DF851EC100B09F0E6
:104A9000A5FF606130460AF015F851EC100B09F0E3
:104AA0009DFF7B79A3723B79A278A061003B18BF80
:104AB00001236374BB79003B18BF01232374FB7986
:104AC000003B18BF0123E372144B1B789A4208BFC6
:104AD000134A4FF0010308BF1370124A637013703A
:104AE00090E700BFC50D0C00D90D0C00D4DD0320EC
:104AF000FC0D0C007CDD0320190E0C00490E0C008F
:104B00006A0E0C0068DD03207BDD0320760E0C00AE
:104B10007A0E0C008F0E0C00C0DC032059DD032040
:104B200088DA032036E6032008B509F0B3F808490F
:104B3000FFF7D7FB142008F0BDF909F0ABF80549E1
:104B4000FFF7CFFBBDE80840142008F0B3B900BF61
:104B5000D5110C00FC130C002DE9F041294E2A4C14
:104B6000DFF8B08088B000AF08F0DEFD03681B6995
:104B70009847002842D008F0D7FD0A22014638465F
:104B800008F0AEF808F0D0FD396808F03AF8BA68D5
:104B900002F1090323F007036D46ADEB030D01326B
:104BA00000236946384605F0ADFCBB686B44002223
:104BB0005A7003216846FFF789FE3378CBB1237C16
:104BC0002BB91249124844F20222FFF757FD394629
:104BD00007F1100005F028FC07F1100241462046BD
:104BE000FFF7B8FB07F1100005F088FB084803F059
:104BF00055FF384605F082FBAD46B5E72037BD4688
:104C0000BDE8F08108DE0320D4DD03207CDD032035
:104C1000E4DD0320B70E0C002DE9F04784B002AFAD
:104C2000804691461E460D460AF03FF8093020F0B6
:104C30000701ADEB010D40460AF037F802AC2949F7
:104C400097F828A003464246204605F0F1F908F0FF
:104C50006BFD214607F0D5FFBAF1000F01D1042DFD
:104C60000DD1214B21491B788DF8003038463C236B
:104C7000224608F017FB786808B1FFF7BBFCB9F1D2
:104C8000000F01D1012D21D106F056F906F001FAED
:104C9000E0B120460AF009F8073020F00700E846A6
:104CA000ADEB000D20460AF000F80DF108090246B0
:104CB0002146484609F01DFF204609F0F6FF002373
:104CC000024649460A4805F0D1FFC5460EB9022DF5
:104CD00004D108F0DFFF214607F093FF0837BD46F7
:104CE000BDE8F087E00E0C0008DD0320E70E0C00A5
:104CF000C8DE03202DE9F04F054687B0102008F0EC
:104D000097FFC0F57F660446112008F091FF0F362B
:104D100040F2DC77BE42034640DCC4F50264704AD0
:104D200002346FF059077C43944203DCA7F2827788
:104D300094FBF7F740F2DC72934242DCA3F2DD70A1
:104D40006FF05906664B7043984203DCA6F28276F8
:104D500090FBF6F6002F45DC06EBD6714810B74203
:104D6000C0F100004FEA610840F3AC805A3009F00E
:104D700011FB824638468B4609F00CFB594B00224A
:104D800009F072FB02460B465046594609F0B6F947
:104D900009F004FE08F15A01C4B235E040F62302DE
:104DA00096420ADD381B504A5A246043904206DC82
:104DB00040F2DB7490FBF4F7BCE70027BAE7274624
:104DC000B8E740F62302934221DDA3F623005A26DA
:104DD000454B7043984203DC40F2DB76B0FBF6F6BD
:104DE000002F44DD07F15A02F10F002EC7F34700F0
:104DF000D2B231440DDDA2EB6101BE42CCB268DD1E
:104E000000F15A0101EB66015FFA81F80FE000261C
:104E1000E6E776424FEA610CBE4202EB61015FFABF
:104E200081F858DD00F15A04A4EB0C04E4B22F4BD6
:104E3000DFF8BCA0DFF8BCB0D3E90069B1454CD0C5
:104E4000B77A97B99AF80020B3789A420DD14346C1
:104E50002A465946009402A805F0EAF800973B4616
:104E60000122394602A8FFF7D7FE4036E6E7002EBA
:104E70003FF472AF7B42B3424FEA66001BDA5A300E
:104E800009F088FA80463846894609F083FA154BBE
:104E9000002209F0E9FA02460B464046494609F06D
:104EA0002DF909F07BFD06EBD67464105FFA80F8EB
:104EB000C4F15A04BAE707F15A045FFA84F850FAC9
:104EC00084F4B3E75A37FCB250FA87F75FFA87F8F1
:104ED000ADE79046ABE71446A9E707B0BDE8F08F11
:104EE00033CB02000000F83FD8CA0200C0DC032028
:104EF00059DD0320EF0E0C002DE9F0410E4D0F4F50
:104F0000D5E9004888B0A04513D0A3796679A27886
:104F10000393394605A805F08BF8039B0096012200
:104F2000002105A8FFF778FE6B68403B6B604034BA
:104F3000E9E708B0BDE8F08198DC0320000F0C0021
:104F400010B5D0E900420648121B9210424391422C
:104F500002D3044808F009FF242000FB014010BDE3
:104F6000398EE338090F0C00104B10B50122104C9C
:104F70001A7004F00DFD2368C01A952814D904F0A6
:104F800007FD0C4A206013780BB1013B13701178B8
:104F90000948FFF7D5FF094B186008F0C5FBBDE8CD
:104FA0001040074907F02DBE10BD00BF88DA03206E
:104FB00064DD032009DE03208CDC0320B0DC032049
:104FC000530F0C00104B10B50122104C1A7004F056
:104FD000DFFC2368C01A952815D904F0D9FC0C4AC7
:104FE000206013780B48032B9CBF0133137011789A
:104FF000FFF7A6FF084B186008F096FBBDE81040CD
:10500000064907F0FEBD10BD88DA032064DD0320E9
:1050100009DE03208CDC0320B0DC03205E0F0C00D3
:1050200038B5D0E90054641BB1EB241F4FEA2412B9
:1050300002D3034808F099FE05EB011038BD00BF0C
:10504000090F0C0038B5D0E90054641BB1EBA41F64
:105050004FEAA41202D3034808F087FE05EB811043
:1050600038BD00BF090F0C002DE9F043484B1A78FA
:1050700097B0002A3AD000221A70464B464FDFF80C
:105080002881DFF82091D3E90046A6422ED063782C
:1050900053B30025657004F07BFCE37AA278A0632B
:1050A0000693237C0593A37A0493A069099209F0DF
:1050B00083F9CDE90201606909F07EF9099ACDE929
:1050C000000139460BA804F0B3FF08F02DFB0BAA32
:1050D0004146FFF73FF999F80030009301231A4643
:1050E00029460BA8FFF798FD4034CEE72B4C04F07F
:1050F0004FFC2368C01A41F2883398423DD9284DAD
:10510000244E04F045FC2A682060531C38D1D6E9AF
:1051100000329A4231D000232B6029681D48FFF7E6
:1051200091FFC37A82780693037C0593837A049374
:1051300004468069099209F03FF9CDE902016069EE
:1051400009F03AF9099ACDE9000113490BA804F0D6
:105150006FFF144B1B78009301231A4600210BA804
:10516000FFF75AFDD6E900135B1A2A689B11013B31
:1051700093428CBF013200222A6017B0BDE8F08351
:10518000D6E900135B1A9B11013B9342C3D3C4E7DA
:1051900036E60320C0DC03206B0F0C0060DD03202B
:1051A0005CDD032035E60320880F0C0070B5D0E9E4
:1051B00000560446AE4204D0284605F09FF810354C
:1051C000F8E7206818B1A168091AFEF768FF2046C1
:1051D00070BDF8B504460E4615460027B44229D0E6
:1051E00015B323682B6063686B60A368AB60E368EA
:1051F0002760C4E90177EB6023692B61237D2B7560
:10520000637D6B75A37DAB75E37DEB75237E2B769C
:10521000637E6B76D4F81A30C5F81A30D4F81E3095
:10522000C5F81E30638C6B842046FFF7BFFF243423
:105230002435D3E72846F8BD2DE9F74FD0E9008A99
:105240002F4BAAEB08045C432E4B9C428946074631
:10525000114602D12C4808F085FD012C224638BFAA
:105260000122A418A9EB08051DD2F4B19C4228BF65
:105270001C46492060430191FEF70DFF0199064647
:10528000701902D0492209F034FC33464546A9453D
:105290000DD02BB118464922294609F02AFC0346B5
:1052A00049354933F3E71C46E3E72646E8E7A5EB33
:1052B000080909F14909B1442B46CB4655450BF184
:1052C000490B09D029464922ABF1490001934935E0
:1052D00009F00FFC019BF1E7ED1A4D44B8F1000F06
:1052E00005D0B9684046A1EB0801FEF7D8FE492079
:1052F00000FB0464C7E90065BC6003B0BDE8F08F43
:10530000F9F1E3C770E0C0019B0F0C0038B5D0E99C
:105310000135AB4204460A4608D01BB14922184663
:1053200009F0E7FB63684933636038BD1946FFF74E
:1053300083FFFAE72DE9F74FD0E900AB17466FF08E
:105340007E43ABEB0A02B3EBA21F81460D464FEA48
:10535000A21602D1364808F005FD012E324638BFAC
:105360000122B618A1EB0A042ED27EB39E4228BFBA
:105370001E46B001FEF78FFE804618EB040409D0EC
:105380000FCF0FC40FCF0FC40FCF0FC497E80F007C
:1053900084E80F00C6465746BD4219D0BEF1000F43
:1053A0000ED0BC46BCE80F0074460FC4BCE80F002A
:1053B0000FC4BCE80F000FC49CE80F0084E80F0086
:1053C00040370EF1400EE7E71E46D2E7B046D4E77D
:1053D000A7EB0A0C0CF1400CC4440197E6465F456C
:1053E0000EF1400E0ED03D460FCDAEF140040FC47D
:1053F0000FCD0FC40FCD0FC495E80F00403784E8E0
:105400000F00ECE7019BFF1A6744BAF1000F06D0CA
:10541000D9F808105046A1EB0A01FEF740FE08EB50
:105420008616C9E90087C9F8086003B0BDE8F08FA7
:105430009B0F0C0070B50A46D0E90113994206464D
:1054400010D059B115460C460FCD0FC40FCD0FC467
:105450000FCD0FC495E80F0084E80F007368403348
:10546000736070BDFFF766FFFBE700002DE9F04FAA
:105470002DED028BABB08378412B06AF04460E4670
:1054800027D1C378422B40F04B826B4608EE103A8E
:1054900007F1100063783B74DFF8808309F015FB97
:1054A000D8E9009BC3B2FB604FF0000A0123D94545
:1054B00015D099F80220F9688A4205D15146404634
:1054C000FFF7C0FD002305460AF1010A09F1400972
:1054D000EDE7432B40F02482C378432BD3E78BB115
:1054E00007F14400FFF7DAF9FB68CC4887F846304B
:1054F00007F14401FFF79EFFD8F80450C84B012282
:10550000403D1A70204609F0D0FB013820F007001A
:10551000ADEB000D204609F0C8FB0DF11809484419
:105520004FF0000A00F809AC204687F81BA009F0EC
:10553000BCFB204410F8023C3B75204609F0B5FB4B
:105540002044514610F8013C7B75102207F11400ED
:1055500087F816A00AF094FA83465FFA8BFB08F0EE
:10556000E3F8B0495B465A46FEF7F4FE4FF0040AF2
:10557000204609F09AFB0238824516D2BAF1060F8E
:105580009BBF07F19003534409EB0A0314F80A2068
:105590008CBF14F80A2003F87C2C0AF1010A88BF9A
:1055A00003F8072C5FFA8AFAE2E758452BD008F097
:1055B000BBF80546204609F078FB5B46821E9A49F7
:1055C0002846FEF7C7FE9948FFF748F908F0ACF8FF
:1055D000974907F016FB6378A3F13002092A02D934
:1055E000432B40F09A81227887F8442087F8453091
:1055F0009049914807F1180307F1440204F018FD9F
:105600008E4B1E7089E18E4907F1180009F01DFBD1
:10561000002800F082818B4907F1180009F015FB82
:10562000002840F02381D8F80430D8F80040BB604F
:10563000BB689C4200F01A81A378FA68934240F05C
:10564000EB8007F1380A07F12C0B7F49CDF804A055
:1056500007F1280307F12402CDF800B0484604F012
:10566000EFFC584609F02EFA504687ED000B09F082
:1056700029FA97F82410E17097F82800398D00F086
:1056800001006071C1F34000A071C1F38000D7E94F
:1056900000232071C1F380102073C1F30020E0715A
:1056A000C1F34020C1F38021207261721046194677
:1056B0005BEC10AB09F092F95946E061504609F0F5
:1056C0008DF9206204F064F9A36BC01A4EF66023D2
:1056D000984209D93B8DC3F3C0026274C3F301122F
:1056E000C3F3C013A2722374237B63B3637B53BBE6
:1056F0004FF0010A84F80DA0544987F88A3007F169
:10570000440087F88B3087F88C3009F0A8FAA2782B
:105710004F4907F14E0004F08BFCE2784D4907F148
:105720006C0004F085FC142328224B4887F88A304B
:1057300007F1440187F88C3087F88B20FFF7E6FDEE
:10574000374B83F800A0637A5BBBA37B4BBB4FF066
:10575000010A84F80EA03D4987F88A3007F1440019
:1057600087F88B3087F88C3009F079FAA2783849BD
:1057700007F14E0004F05CFC384907F16C0009F0B9
:105780006EFA14232822344887F88A3007F144013E
:1057900087F88C3087F88B20FFF7B8FD204B83F813
:1057A00000A0237A0BB1E37963BBE37B53BB4FF0DB
:1057B000010A87F88A3087F88B3087F88C302349C4
:1057C00084F80FA007F1440009F049FAA2782049B3
:1057D00007F14E0004F02CFC214907F16C0009F0A0
:1057E0003EFA142387F88A30282387F88B301A482A
:1057F0000A2307F1440187F88C30FFF787FD084B37
:1058000083F800A0A378174A137013B1044B012248
:105810001A701548FFF722F8403409E7C0DC03206E
:1058200088DA0320B50F0C00FC0D0C00CA0F0C0029
:10583000490E0C006A0E0C0068DD03207BDD03209E
:10584000F30F0C00F70F0C00FB0F0C0050140C00B2
:1058500059140C0061140C00A4DC032072140C0019
:1058600082140C0059DD032007100C00674907F172
:10587000180009F0EAF9002858D107F12C03049325
:1058800007F12803039307F12403029307F1200390
:10589000019307F11C035E49009307F1380207F1F9
:1058A0004403484604F0CCFBD7ED077AB8EE677A9C
:1058B000DFED587AC7EE276A97ED087AC5ED0B6AD7
:1058C000B8EE477AC7EE276AC5ED096A97ED097AFF
:1058D000B8EE477AC7EE276AC5ED0C6A97ED0A7AEB
:1058E000B8EE477AC7EE276AC5ED0D6A97ED0B7AD9
:1058F000B8EE477AC7EE276AC5ED0A6A07F014FFCB
:10590000AA78FA600446A86A08F056FDCDE90001BD
:10591000FA6841492046FEF71DFD18EE103A9D46F3
:105920009437BD46BDEC028BBDE8F08F3B4907F1D3
:10593000180009F08AF930B939480322494609F0BC
:10594000D0F9384B5DE6384907F1180009F07DF9C8
:10595000002839D1D8E900300122984206D0997840
:10596000FC684033A14208BF0022F6E7E2B107F02D
:10597000DBFE2E4907F045F907F14400FEF78EFFE4
:10598000012E15D187F84860FB68294887F8463012
:1059900007F14401FFF74EFD264807F14401FFF7E8
:1059A00049FD254B01221A70244B01221A70B4E7DD
:1059B000022E4FF0010302D187F84A30E4E7032EAC
:1059C00008BF87F84930DFE71D4907F1180009F0E3
:1059D0003CF90028A1D11B4C237C83B91A4944F21D
:1059E000022204F11000FEF749FE18494A462046FB
:1059F000FEF7B0FC04F1100003F050F88DE71349F6
:105A00004A462046FEF7A6FC87E700BF16100C00AA
:105A10001A100C0000007A442F100C0042100C00E9
:105A200078DD032077DD032046100C004A100C00BF
:105A3000C0DC032098DC032088DA032058DD032033
:105A400063100C00D4DD03207CDD032067100C0004
:105A500010B50C46002204212046FFF707FD0B4B32
:105A60001B7893B10A48037C2BB90A4944F20222FD
:105A70001030FEF703FE224607490548FEF76AFC90
:105A8000BDE81040054803F009B810BD08DE03204A
:105A9000D4DD03207CDD03208A100C00E4DD03202C
:105AA000B0B501F1080323F0070300AFADEB030D20
:105AB0000C460A460146684609F01BF80DEB040344
:105AC0006D4613F8013C13B100230DF8043007F0C4
:105AD0002BFE114907F082F807F026FE294607F051
:105AE00090F8012211462846FFF7C0FC0B4B1B78AB
:105AF00083B10B48037C2BB90A4944F202221030CF
:105B0000FEF7BCFD084906482A46FEF723FC074875
:105B100002F0C4FFBD46B0BDAA100C0008DE032091
:105B2000D4DD03207CDD0320BB100C00E4DD03206A
:105B30002DE9F04FDFF8EC80DFF8EC90354D89B0BF
:105B400000AF08F0A7F803681B69984700285CD0ED
:105B500008F0A0F80A220146384607F0C1F8BB68F1
:105B6000073323F007036E46ADEB030DEA4600232F
:105B7000B9681FFA83FB8B4503F1010407D259462C
:105B8000384604F0BDFC23460AF80B00F0E7012973
:105B90000AD90139384604F0B3FC0D2801BFBB68AF
:105BA0005344002203F8012C07F0BEFD414607F0E4
:105BB00028F807F0B9FD396807F023F8012202211F
:105BC0005046FFF753FC99F80030CBB12B7C2BB932
:105BD0001149124844F20222FEF750FD394607F1FE
:105BE000100004F021FC0E4907F110022846FEF7D0
:105BF000B1FB07F1100004F081FB084802F04EFFF2
:105C0000384604F07BFBB5469BE72437BD46BDE82C
:105C1000F08F00BFD4DD03207CDD0320E4DD032012
:105C2000ED100C00DB100C0008DE032000B59BB06B
:105C30000023642201A904F065FC042100220DEB7D
:105C40000100FFF713FC0C4B1B7883B10B48037C5E
:105C50002BB90B4944F202221030FEF70FFD09491F
:105C6000064801AAFEF776FB074802F017FF01205D
:105C70001BB05DF804FB00BF08DE0320D4DD032069
:105C80007CDD03208A100C00E4DD03202DE9F047C1
:105C90001F4EDFF87CA0D6E900239B1AC3F38714BC
:105CA00000EBA3130A2B84BFC4F10A00C0B2204446
:105CB00090B0C4B200274FF001095FFA87F844455D
:105CC00023D9D6E9003100258B4205D09A7840339C
:105CD000424508BF0125F7E7ADB96846FEF7DEFD8E
:105CE00064208DF80A508DF80280ADF804508DF8CC
:105CF00006908DF8099007F076FE69468DF803004E
:105D00005046FFF797FB0137D7E710B0BDE8F087A3
:105D1000C0DC03202DE9F84FD0E9008993466FF0ED
:105D20007043A9EB0802B3EBE20F07468A464FEA3D
:105D3000E20402D1204808F015F8012C224638BFB1
:105D40000122A418A1EB080531D294B39C4228BFCC
:105D50001C46E000FEF79FF9064673191CBFDBE9FD
:105D60000001C3E90001002D04DD2A46414630460A
:105D700008F0CDFEA9EB0A090835B9F1000F35444A
:105D800004DD4A465146284608F0B3FE4D44B8F1BA
:105D9000000F05D0B9684046A1EB0801FEF77FF976
:105DA00006EBC404C7E90065BC60BDE8F88F1C467B
:105DB000CFE72646D1E700BF9B0F0C002DE9F04F3F
:105DC000A9B0064605F0B8F87C49142205F0ACF9F4
:105DD0008046002800F0EE80DFF8E0B1002404EBFC
:105DE000C4094FEA890909F108070BA85F4404F0C8
:105DF00007FD01220BA9384606F05EF8824600280E
:105E000056D06F490BA804F056FD054600284FD028
:105E1000082209A9384604F0ABFEB21C53D107F0A2
:105E200083FC9DF82B3005939DF82A3004939DF850
:105E3000293003939DF8283002939DF82730614F55
:105E400001939DF826309DF824205F490093CDF8FA
:105E500018A09DF82530FEF77DFA7B689DF8241088
:105E60003A68934205D012F8080B884208BF002513
:105E7000F7E7EDB1242202FB04B28DF8601092F92D
:105E800020201992BA68934217D01BB1DDE918019E
:105E900083E803007B6808337B6007F045FCD7E9A3
:105EA00000239B1A49499DF82420DB10FEF752FA83
:105EB0000134E4B2444592D37CE0424818AA194622
:105EC000FFF728FFE9E7731C03D09DF82430B342A5
:105ED000EED105F031F83E4D014601230BEB0902EE
:105EE00018A806F021FC189B199C2B606B689C423B
:105EF00008D014B1636801336360686808B1FEF7C5
:105F000079FB6C6018A805F086F9314804F086FF2B
:105F1000044600284ED02F4B2F4D00221A702F4BD5
:105F200001261F2210A938461E7004F021FE2C4ABB
:105F30002C49274806F08CF82B4A2C49244806F0B7
:105F400087F82B4A2B49224806F082F807F0ECFB31
:105F50009DF840202849FEF7FDF918A8FEF79EFCA1
:105F60009DF8403025488DF8623018A98DF864609E
:105F7000FFF760FAD5E900319DF8402020488B42B8
:105F800007D09F78974202BF1E7100240360403300
:105F9000F5E77CB107F0C8FB1A4906F032FE0E485F
:105FA00018A9FFF747FA6B68154A403B1360164B78
:105FB00001221A7029B0BDE8F08F00BFE0DE032097
:105FC000CCDC032078DC03200E110C0041110C0006
:105FD000B8DE03200ADE0320C0DC032034E6032001
:105FE000F4DC0320D0DE0320E0DC0320C8DE032045
:105FF0000CDD0320C0DE032053110C0098DC0320CD
:1060000074DC03204A100C0088DA0320F0B54C49F8
:1060100087B0064600224B48FEF730FB50B94A4B8A
:1060200001221A7007F080FB484907B0BDE8F04034
:1060300006F0E7BD03F0ACFC454C054607F074FBE9
:10604000236844499A78FEF785F923689B78B34220
:106050004ED007F069FB22683F4992783346FEF73D
:1060600079F904F069FF05F085FD43F6972704F000
:1060700063FF05F00EF858B903F08AFC281AB842FD
:1060800006D83046FFF79AFE322006F013FFEEE7FF
:10609000324A33460A2103A803F0DAFF00230093B3
:1060A0000122194603A8FEF7B7FD04F045FF04F0EE
:1060B000F0FF30B107F038FB236829499A78FEF7E2
:1060C00049F907F031FB236826499A78FEF742F92F
:1060D00003F05EFC43F69823281A984215D922480B
:1060E000037C5BB3103007B0BDE8F04002F0D6BCD3
:1060F0001A4A0A2103A803F0ABFF002300930122F0
:10610000194603A8FEF788FDDBE70F4D00232B702F
:10611000642006F0CFFE2B78002BF9D007F004FBAB
:10612000236812499A78FEF715F90F48037C13B1DA
:10613000103002F0B3FC0E4B00221A7007B0F0BD15
:1061400067110C00B0DD03205EDE032069110C0036
:1061500074DC0320AA110C00D7110C0010120C00E3
:1061600019120C003A120C00A0DD03205D120C0085
:106170005FDE03202DE9F74FD0E9009A8B466FF0E0
:1061800078431146AAEB0902B3EB221F80464FEA7F
:10619000221402D1264807F0E5FD012C224638BF23
:1061A0000122A418ABEB09061AD2DCB19C4228BF2D
:1061B0001C4620010191FDF76EFF01990546A819C3
:1061C00001D004F017F928464E46B34500F11007F8
:1061D0000AD010B1314604F027F910363846F4E7FA
:1061E0001C46E6E72546EAE7564506D031463846DE
:1061F00004F01AF910361037F6E74E46564504D02B
:10620000304604F07BF81036F8E7B9F1000F06D0FD
:10621000D8F808104846A1EB0901FDF740FF05EB4F
:106220000414C8E90057C8F8084003B0BDE8F08F6F
:106230009B0F0C0038B5D0E90135AB4204460A4645
:1062400007D013B1184604F0D5F8636810336360C3
:1062500038BD1946FFF78EFFFAE700002DE9F0413F
:10626000D1E900270023BF1AC0E9003304460D46D8
:10627000836018D0184B9F4201D907F06DFD384656
:10628000FDF709FF0646C4E900663744A760D5E973
:106290000078B84509D01EB13946304604F0C4F83C
:1062A00010361037F5E73E46EDE76660D5E9032383
:1062B000C4E903236B6963612B8B2383D5F81A3000
:1062C000C4F81A30D5F81E30C4F81E306B8C6384C5
:1062D0002046BDE8F08100BFF0FFFF7F2DE9F347C6
:1062E000D0E90087234BA7EB0804A4105C43224BA2
:1062F0009C420E460546114602D1204807F032FD69
:10630000012C224638BF0122A418A6EB080A2DD280
:1063100074B39C4228BF1C46242060430191FDF7C2
:10632000BAFE0199814619EB0A0001D0FFF796FFEA
:1063300031464A464046FEF74CFF394600F12402FA
:106340003046FEF746FF0646B8F1000F05D0A968B3
:106350004046A1EB0801FDF7A2FE242000FB0494B7
:10636000C5E90096AC6002B0BDE8F0871C46D3E7F3
:10637000A146D8E7398EE338E3388E039B0F0C0033
:1063800038B5D0E90135AB4204460A4607D013B10F
:106390001846FFF763FF63682433636038BD19460E
:1063A000FFF79CFFFAE7000070B5AEB000244C493F
:1063B00003940DF11E0040F201164FF48075CDE9F3
:1063C000014408F04CFC10234649ADF81C500DF177
:1063D0004200CDE90536CDE90A440C9408F03FFCB3
:1063E000414B0F934FF4C843ADF840303F491594EB
:1063F00003230DF166000D93CDE9134408F02FFC43
:1064000011233B49ADF864500DF18A00CDE91736F0
:10641000CDE91C441E9408F022FC4FF00113219397
:1064200034494FF4007325A8ADF8883003F0B1FF6C
:1064300025A91CA8FFF7FEFE25A803F05FFF2E4943
:1064400025A803F0A6FF25A91CA8FFF7F3FE25A8A1
:1064500003F054FF294925A803F09BFF25A91CA898
:10646000FFF7E8FE25A803F049FF0A2324491F93FC
:106470000DF1AE00CDE92544279408F0F0FB0B2385
:1064800001A92048ADF8AC50CDE92936FFF778FFD7
:106490000AA91C48FFF774FF1CA91A48FFF770FFF0
:1064A00013A91848FFF76CFF25A91648FFF768FFE6
:1064B000154B14481978FEF743FD144B186025A8B6
:1064C000FEF774FE1CA8FEF771FE13A8FEF76EFE21
:1064D0000AA8FEF76BFE01A8FEF768FE2EB070BD9D
:1064E00084120C008B120C000100000193120C00AE
:1064F0009B120C00A2120C00A6120C00AA120C0097
:10650000AE120C008CDC032009DE0320B0DC03207B
:1065100070B55D4B5D4C01221A705D4B0022C3E9E2
:106520000022A2F5803288B09A60032003F094FC28
:106530005849594804F03EFA5849594804F03AFA83
:106540005849594804F036FA5849594804F032FA83
:1065500014257F26204604F048F904F1080005F0D0
:1065600074F904F1140005F070F9013D84F820601D
:1065700004F12404EED14F484F4C04F051FB4F4836
:1065800004F04EFB4E4804F04BFB4E4804F024FC54
:1065900007F0BCFB4C4A4D49CDE9012113220346CB
:1065A00000924B488022402103F00CF92378BFF37E
:1065B0005B8FD8070AD42046FDF780FD30B14548EF
:1065C000012103F0C9FD2046FDF77DFD424B434EFE
:1065D000434D44486422C3F86024434AC3F87024FE
:1065E0000122002483F874243A4A5C60C3F83C44D6
:1065F000C3F86844C3F87844A3F87C44C3F86C2417
:106600003A4B3B4A5C604FF47A711A6099601C61A6
:10661000384BC3E901411A601C61374BC3E90141A2
:106620001A601C61354BC3E900449C60344BC3E9DC
:1066300000449C60334BC3E900449C60324BC3E987
:1066400000449C60314B049304AA234641F28831F4
:1066500007960695FDF7E2FF04A8FDF78DFF2C4B8A
:10666000049304AA23464EF660212A48CDE9065633
:10667000FDF7D4FF04A8FDF77FFF274BC3E90044D3
:106680009C6008B070BD00BF08DD0320E0DE032081
:10669000B4DC0320B5120C00CCDC0320DA120C00B1
:1066A000E0DC0320FF120C00F4DC032024130C00B8
:1066B0000CDD0320D0DE032068DC0320C8DE0320CD
:1066C000C0DE0320B8DE0320801A0600A086010089
:1066D00060DE03206CDC0320B0E10320B1420B003C
:1066E0009D420B0020DD032008140C000CDE03206B
:1066F00030140C00D4DD0320A0DD0320C0DC032017
:1067000098DC032078DC0320A4DC0320E9400B00A4
:10671000ED410B003CDD03208CDC03202DE9FF471D
:10672000BDF83060644C0F46013619B20133904613
:106730000546BDF930200FFA83F936B24FF0100A42
:10674000002F6FD0012758232046CDE900A70392E0
:1067500000F02BFFA4F810900221204666824FF033
:10676000000901F03EFA29465448C4F81490FEF797
:10677000E7FB00F11A01204606F030FA039AB8F15F
:10678000000F3CD07F23CDE900A75821204600F020
:106790000CFF592323826682C4F814904748294687
:1067A000FEF7CEFB427DF2B103690CAA13441B79BC
:1067B000BBB143494048FDF794FD06F0B5FF2946BB
:1067C00004463E48FEF7BCFB3E4900F11A02204653
:1067D000FDF7C0FD29463948FEF7B2FB04B0BDE81D
:1067E000F0873949E6E7C268837D0CA90A4412792B
:1067F0009BB11146FEF714FC01682046DBE77F23BE
:10680000CDE900A85821204600F0CFFE592323826D
:106810004FF0011366826361C0E72C492046FDF703
:1068200060FDCAE758232046CDE900A703924FF048
:10683000011800F0BAFE02212046A4F810906682EA
:1068400001F0CFF929461D48C4F81480FEF778FB03
:1068500000F11A01204606F0C1F9039A7F2358215E
:106860002046CDE900A700F0A0FE5923134823825B
:106870006682C4F814802946FEF762FB427D5AB155
:1068800003690CAA13441B7923B10D492046FDF777
:1068900028FD9FE70C49F9E7C268837D0CA90A44EB
:1068A000127923B11146FEF7BBFB0168EEE70749F9
:1068B0002046FDF716FD8DE760DE03208CDC03200B
:1068C00049130C0050130C004C130C00160E0C0056
:1068D0002DE9F0470321A0B01C2007F07FF9032128
:1068E0000E2007F07BF90321072007F077F9032139
:1068F0000F2007F073F903211220002407F06EF92E
:1069000003211D2007F06AF98A4900944FF0FF33F4
:1069100001221C2006F030FF874900944FF0FF331E
:1069200001220E2006F028FF844900944FF0FF3327
:106930000122072006F020FF814900944FF0FF3329
:1069400001220F2006F018FF7E4900944FF0FF331C
:106950000122122006F010FF7B49009401224FF023
:10696000FF331D2006F008FF03F012F8774B784F35
:10697000186003F00DF8774B186003F009F8764BB8
:106980001860764B4FF0FF321A6006F0CDFE4FF4E0
:10699000E13106F0BDFE07F07DF94FF4165106F027
:1069A000B7FFFEF7C1F804F0C7FA04F00FFB04F0DC
:1069B000C3FA322104F054FB04F0BEFA082104F0BB
:1069C0000CFB674A6749104605F06CFB664A67494D
:1069D000104605F067FB01232246CDE900446449D7
:1069E000644803F0F5FA644A6449654806F063FBBD
:1069F000644B1C70644B1C70644B1C70644B012610
:106A00001C703E7006F038FA079006F029FA054629
:106A100006F03AFA804606F0FFF9814606F008FAD9
:106A2000824606F011FA079B5A4A0095CDE903A069
:106A30001021CDE9018909A803F00AFB56495748FE
:106A4000574D08F00CF909A9544808F0EFF85549DA
:106A5000524808F0EBF8FFF7A7FCFA2006F02AFAF4
:106A600032463C21284602F0C1FE284600F04AFC8E
:106A7000284602F0C5FD3146284600F04AFE0221B4
:106A8000284601F0AEF84FF0011347496B612C61C5
:106A9000284606F0A3F8284602F0B2FD642006F06E
:106AA00009FA424B0D934248424B8DF838400DAAEB
:106AB00008210F93ADF84060FDF792FE044628B917
:106AC00006F032FE3C4906F09CF83C7000233B493E
:106AD0008DF87A300DA88DF87B308DF87C3008F079
:106AE000BEF8374901220DF13E0003F0A1FA0F2252
:106AF000344917A803F09CFA20238DF87A300C2330
:106B00008DF87B300DA90A232F488DF87C30FEF7D5
:106B1000FDFB2E486FF00041FDF7CCFB6FF000410C
:106B20002B48FDF7C7FB0120FFF7B0F820B0BDE808
:106B3000F08700BF2D420B00694F0B00C54F0B00C3
:106B400071430B0079440B00BD410B0064DD032051
:106B500008DE032060DD0320DCDE03205CDD032093
:106B6000D0DE0320A15A0B00C0DE03208D460B00AF
:106B7000515A0B00E70E0C007C130C002D5C0B002F
:106B80008BD00B005FDE03205EDE0320D8DE032007
:106B900035E603208A130C00A3130C007CDD0320D0
:106BA00060DE0320AC130C00B5130C0008140C00BD
:106BB000B0E1032000127A00C0130C0095140C0001
:106BC0009D140C00B0140C00A4DC032020DD032075
:106BD0003CDD03202DE9F04FCA4F3B7893B0002BEA
:106BE0006FD0C94CC94D4FF000084023CDE90038A3
:106BF000424680234146204600F0D7FCD5E90032CA
:106C00009A4261D001263E23CDE9003632467E23EA
:106C10003146204600F03CFD02223C231146009301
:106C200020467C23019600F033FD4FF00113636191
:106C30006B6813F8033C23820423638202212046FD
:106C400000F0CFFF696820464939FDF74AFB6B68C1
:106C500013F8023C2382162363823146204600F05B
:106C6000C0FF696820463F39FDF73BFB6B684FF07A
:106C7000200913F8013C238231462046A4F81290E3
:106C800000F0AFFF696820462139FDF72AFBA04BD1
:106C900023610221204600F0A4FF10232C22009340
:106CA0002D214B462046019600F07FFC9949C4F8FF
:106CB00014802046FDF715FB204602F0A1FC87F862
:106CC000008013B0BDE8F08FDFF850A2DFF858B2B3
:106CD000C146DAE900235FFA89F59B1AB5EBA31FD9
:106CE00046D229465046FEF7ADF905EBC506817838
:106CF0009BF800307600721D99424FF0040306F1B4
:106D00000106228263824FF00101204618D100F073
:106D100068FF0023012263610E23CDE90032314672
:106D2000204600F042FC29465046FEF78BF97A498E
:106D300082782046FDF7D5FA09F10109A846C8E78F
:106D400000F04FFF4FF00113012263610E23CDE9E4
:106D500000323146204600F09BFC29465046FEF7A3
:106D600071F96D4982782046FDF7BBFA4546E3E7A5
:106D7000DFF8B89199F80060002E57D1DFF8B09194
:106D8000D9E900329A421BD041466448FEF75AF9CD
:106D9000634B044693F800C00FCC01AD0FC50FCC78
:106DA0000FC50FCC0FC594E80F0085E80F00102326
:106DB00000938CF00102334601213046FFF7AEFC10
:106DC000D9E90035ED1A574BDFF850B1DFF850A183
:106DD000AD105D43EDB2022D28BF02250126B5425C
:106DE000C0F28A8041465846FEF72CF904460FCC83
:106DF0000DF1040C9AF800E0ACE80F000FCCACE801
:106E00000F000FCCACE80F0094E80F005FFA86F992
:106E100001368CE80F0033019BB2009300238EF003
:106E2000010219464846FFF779FCD8E7DFF8F0A0E1
:106E30003A489AF800B0042E8BF0010B414601ADA0
:106E400078D1FEF7FFF88446BCE80F002C460FC44B
:106E5000BCE80F000FC4BCE80F000FC49CE80F0093
:106E600084E80F0030235A46304600930121002366
:106E7000FFF754FC41462948FEF7E4F806460FCEDA
:106E8000AC469AF800B099F800E0ACE80F000FCEDD
:106E9000ACE80F000FCEACE80F0096E80F0084E8D6
:106EA0000F0020230EF1FF3E0093002319465FFAE6
:106EB0008EF08BF00102FFF731FC41461748FEF7D8
:106EC000C1F806460FCE99F800C09AF800E00FC549
:106ED0000FCE0FC50FCE0FC596E80F0084E80F0048
:106EE000ACF1020C1023009300238EF0010219462E
:106EF0005FFA8CF0FFF712FC034802F081FB0023DD
:106F00003B70DEE688DA032060DE0320A4DC032089
:106F100030002D00E5130C00160E0C00C0DC032021
:106F200089DA0320398EE33859DD032009DE032096
:106F30008CDC0320FEF786F804460FCC06F1010C2A
:106F40002E460FC60FCC0FC60FCC0FC694E80F000D
:106F500086E80F003023009300235A4619465FFA53
:106F60008CF0FFF7DBFB41461A4899F800B0FEF7BA
:106F700069F804460FCCAC469AF800E0ACE80F0084
:106F80000FCCACE80F000FCCACE80F0094E80F007A
:106F900086E80F0020238EF00102009301210023D8
:106FA0005846FFF7BBFB41460A48FEF74BF82C4614
:106FB00005460FCD99F800C09AF800E00FC40FCD38
:106FC0000FC40FCD0FC495E80F000CF1FF3C86E80D
:106FD0000F0087E7C0DC032070B52E4D2B788AB0F8
:106FE000A3B12D4B1B68002B45D09A782B4902A8E2
:106FF00003F01EF82A4C2378009301231A4600213F
:1070000002A8FDF709FE00232B702370254CFFF723
:10701000E1FDFEF729F802F0BBFC2368C01AB0F5C9
:10702000FA7F06D9204B1878FDF764FE02F0B0FC19
:10703000206003F081FF04F02CF870B91B4C02F0C3
:10704000A7FC2368C01AB0F5FA6F06D302F0A0FCC3
:1070500020604FF0FF30FEF7B1FE154BD3E900453D
:107060000026A5420CD0637C1BB1A078FEF7CEFFB2
:1070700066744034F5E70F4902A807F0F0FDB9E760
:10708000FEF756FDFDF768FD0AB0BDE87040FDF75C
:1070900033BF00BFD8DE032084DC0320E8130C00DC
:1070A00035E60320DCDE032059DD03209CDD0320D0
:1070B000C0DC0320F4130C000029F0B566DBB0F946
:1070C0000C408C4262DD002A60DBB0F90E40944235
:1070D0005CDD847E022C5AD0032C61D0012C04D1BB
:1070E0000489D24314440A4621B2B0F938408C4294
:1070F000A8BF0C460487B0F93A409442A8BF144692
:107100004487B0F93C408C42B8BF0C468487B0F944
:107110003E409442B8BF1446C48790F84C40012CBE
:1071200016D1012B42D0022B51D08BB9002A0589F0
:10713000476B1446B8BFD41DE41014FB051402F0CD
:107140000706012505FA06F63D5D25EA06053D55CB
:1071500090F84C40042C19D1048914FB02F202EB84
:10716000D27401EBD17242F34F0202EB6402446B22
:10717000A05CC9074BBF03F00F0300F00F0020F025
:107180000F0040EA031348BF0343A354F0BD048932
:10719000013C611A4489D243224409B212B2A4E7E5
:1071A0004489013C641A114622B29EE7002A0589EF
:1071B000466B1446B8BFD41DE41014FB051402F04E
:1071C00007070125BD40375D3D433555C0E7002A1F
:1071D0000589466B1446B8BFD41DE41014FB051492
:1071E00002F007070125BD40375D7D40EDE7000057
:1071F00038B50D46114604461AB209B200F098FAA5
:10720000069A0B4BE262079A23600023C4E9093314
:10721000C4E90C234FF0FF33C4E910339DF9143057
:10722000A364049B84F84C502365204638BD00BFFE
:10723000CC140C0038B50C4B03600446406B18B1FD
:1072400002F0E6FE00236363656A35B1284600F06C
:10725000CEFC38212846FCF722FFA06A10B110218D
:10726000FCF71DFF204638BDCC140C0030B587B0AC
:10727000856A8DF80F1004467DB10023CAB2CDE9AE
:1072800000338DF814308DF815200123022205A952
:10729000284600F003FE07B030BD2946B0F8400094
:1072A00006F0ADFC606A00952B4601220DF10F013E
:1072B00000F097FDEFE7002914BFA721A621FFF7F3
:1072C000D5BFF0B5856A85B004460E46174665B150
:1072D00000230DF10F008DF80F3001230090019372
:1072E000284600F0DBFD05B0F0BD2946B0F84000AF
:1072F00006F085FC606A00952B463A46314600F060
:1073000070FDF0E710B5B0F90A10038990F84C2031
:1073100012FB03F2CB1D48BF01F10E03DB10044644
:107320005A43406B002107F00CFC0023A363238920
:10733000013BA3876389013BE38710BD70B5436BB5
:1073400004460E4615460BB3002D33D1236D002B9A
:1073500050D01020FCF79FFE054618B1226D314633
:1073600000F071FDA5621DB30121284600F087FDE4
:10737000F0B12046FFF7C6FF0023A3632389013B3A
:10738000A3876389013BE387012012E02389B4F9D5
:107390000A2090F84C0010FB03F0D31D48BF02F107
:1073A0000E03DB10584302F02BFE60630028CBD1A4
:1073B000002070BDA06C0028C8DB012180B206F05F
:1073C0000DFCB4F84800012106F019FC0A2005F074
:1073D00071FDB4F84800002106F011FC0A2005F008
:1073E00069FDB4F84800012106F009FC0A2005F007
:1073F00061FDABE7606A0028DAD000F001FC0028EC
:10740000D6D0B4F84000012106F0E8FBB1E707B59B
:1074100081238DF80510022201A98DF80430FFF7B1
:1074200050FF03B05DF804FB2DE9F04F85B01F4617
:10743000BDF93880BDF83C30A8EB0209A7EB010A82
:10744000B9F1000FB8BFC9F10009BAF1000FB8BF18
:10745000CAF1000AD14583460C46154604DD3A467A
:107460002C4647460D469046BC4205DD2A46454619
:10747000904622463C4617463E1BB2B20092A8EB0D
:10748000050282EAE271A1EBE271C6F3C03202FAB0
:1074900086F64545B4BF01224FF0FF3201917610C8
:1074A0000292BC421CDCDBF800200393D145D2F8E9
:1074B0001880C7BF294622462A4621465846C0475B
:1074C000019A039BB61AB1B236B2002E05DA029ABF
:1074D0001544009A56182DB236B2013424B2E0E7B2
:1074E00005B0BDE8F08F704710B404682469A44665
:1074F0005DF8044B604730B40468BDF8085002954D
:10750000A46BA44630BC604730B40468BDF8085092
:107510000295E46BA44630BC604770B4BDF90C50D2
:10752000BDF810600468CDE90356246CA44670BC15
:1075300060472DE9F3411C460368BDF820805B6974
:1075400005461646013C34440F4624B298472B6842
:10755000CDF8048000949C6A28463B463246394662
:10756000A0472B68DB6A284602B0BDE8F041184707
:107570002DE9F3411D460368BDF820805B69044690
:1075800017460E469847CDE9007822686B1E3344B3
:10759000956A20461BB23A463146A8472368DB6A03
:1075A000204602B0BDE8F04118472DE9F3471E46DA
:1075B0000368BDF928905B69BDF82C800C46054630
:1075C000174698472644B4422B680BDACDF8008062
:1075D000D3F820A021464B463A4628460134D047EE
:1075E00024B2F0E7DB6A284602B0BDE8F04718474E
:1075F00013B502680191B0F90E100091146CB0F946
:107600000C3000221146A04702B010BD2DE9F7430F
:1076100099421646BDF92870BDF82C900268804644
:107620000D461C4613D1BE42C8BF3346CDF8289044
:10763000C4BF3E461F467B1C946B9B1B1BB232464D
:1076400029464046A44603B0BDE8F0436047BE4229
:107650000AD19942C2BF0B4625461C46631CCDF891
:107660002890D46B5B1BE9E753699847CDE9007913
:10767000D8F8003040469F6A324623462946B8472C
:10768000D8F80030DB6A404603B0BDE8F043184745
:107690002DE9F3471D460368BDF82C805B69BDF9F1
:1076A000289004460F46164698472368CDF8008078
:1076B000D3F824A032462B4639462046D0472368CB
:1076C000CDF8008009F1FF323244D3F824A03946C6
:1076D0002B46204612B2D0472368CDF80080D3F85D
:1076E00020A032464B4639462046D0476B1ED9195A
:1076F0002368CDF800801D6A20464B46324609B209
:10770000A8472368DB6A204602B0BDE8F047184767
:10771000704701F00303B0F90A208376C907B0F976
:10772000083059BF8381C2818281C38170470000C4
:1077300030B54281C281074A074D01810024818111
:107740004FF0FF31C0E90512446005600461047721
:10775000046230BD01010001281A0C002DE9F04F30
:1077600089B0CDE902120268BDF948800493BDF9E1
:107770004C3052690593BDF850A00446904718F16B
:1077800007024FF0000648BF08F10E024FEAE20B75
:1077900001963546039B019ABDF904109A18059B82
:1077A0008B4212B227DD049B33444FF0000906934D
:1077B0000FFA89F080451FFA89F117DD4F0705BFE1
:1077C000069BC0106D001D5C18BFEDB22B060AD5DC
:1077D000029B206807921944836909B21F4620461C
:1077E0005346B847079A09F10109E1E7019B0133C4
:1077F00001935E44CEE72368DB6A204609B0BDE80A
:10780000F04F18472DE9F04F2DED028B91B0164641
:10781000026ABDF874809DF878509DF87C40039111
:107820001F46BDF8703004938346002A40F0C5809F
:10783000B0F90C308B4240F34C81B0F90E30B342BA
:1078400040F34781062313FB0513002B40F34181CE
:1078500006EBC403002B40F33C81037F1BB9AF2F21
:1078600084BF0137FFB2DBF8003058465B699847A8
:107870000522099200220592984A07EB8703D31844
:107880000C93B3B20693059A0C9B9B5C0793ABB227
:107890000B93BDF80C300893039B02FB05F919FA12
:1078A00083F90FFA89F308EE103A08230A93039B31
:1078B00002EB030A4FF000090FFA8AFA079ADBF885
:1078C0000030D20752D5012D1FFA89F23ED1012C8A
:1078D0003CD19B6906991F46049B0A4412B251464B
:1078E0005846B84709F101034FFA83F9079B5B0833
:1078F00007930A9B013B13F0FF030A93DED1059F18
:1079000001377BB20593099B013B13F0FF030993F9
:10791000B9D1049B43450FD0012DDBF800303BD19A
:10792000012C39D10899CDF8008005311C6A324606
:10793000082309B25846A047DBF80030DB6A5846F6
:1079400011B0BDEC028BBDE8F04F1847069914FB4F
:1079500002F20A44049901910094DB6918EE101AAE
:107960001F4612B22B465846B847BBE7049A424519
:10797000B8D0012D1FFA89F207D1012C05D19B69DE
:1079800006991F460A444346A8E70699CDF80480A5
:1079900014FB02F20A44DFE70B9ACDF8048002EBF5
:1079A0008201089AE4000A4411460094DC693246D8
:1079B0002B4609B25846A047BEE7137A51681268B1
:1079C0000B92FF1AFFB201EBC70331F83720069282
:1079D0009A780992DA780C92012D93F9052093F99F
:1079E00006A00A9201D8012C57D9BDF92830089376
:1079F0000FFA8AF30793DBF8003058465B69984723
:107A0000B3B24FF000080E931AFA86F3C146474608
:107A10000F930C9B9F428FD2079B0E9A3B4403FB14
:107A20000423002205920F9A1BB202EB070A08EE0C
:107A3000103A0FFA8AFA4346099A0599914241D2BF
:107A40005A1CD2B25B070D9207D1069B06990B9A7E
:107A500001339BB212F80190069319F0800F12D0F7
:107A6000012DDBF80030BDF80C101AD1012C18D113
:107A70000A9A9B691144059A11441E465246049B7A
:107A800009B25846B047059E0136F3B24FEA49099C
:107A900005935FFA89F90D9BCEE70023CDE9073303
:107AA000A9E70598089A024402FB0511049ACDE95A
:107AB0000042DB6918EE102A1E4609B22B465846D2
:107AC000B047E0E7099B013798445FFA88F8FFB2B6
:107AD0009FE711B0BDEC028BBDE8F08F20150C00C4
:107AE000F0B5026A85B004460B46002A34D10A2953
:107AF00008D1438A0282427E03EBC20363820120E3
:107B000005B0F0BD0D29FAD0E17E007E657E71B131
:107B1000B4F91060062111FB0061B4F90C60B142A8
:107B2000C1BFB4F91210228201EBC5026282E28A5F
:107B30000192A28A0092CDE90205B4F91220B4F9AB
:107B400010102046FFF75EFE237E228A03EB4303DC
:107B500002EB43032382D2E70A2907D100230382E1
:107B6000417E927A438A01FB0233C7E70D29C6D0D2
:107B7000157AA942C3D3517A9942C0D351685D1B8B
:107B8000EDB201EBC505A87828B3E97819B3E17E19
:107B9000267E677E91B195F905100844B4F910105E
:107BA00006FB0011B4F90C00814207DD00202082A1
:107BB000B4F91210927A02FB07126282E28A0192F1
:107BC000A28A0092CDE90267B4F91220B4F910102C
:107BD0002046FFF717FE2979227E238A01FB023314
:107BE000B8E7012938BF012101764176704710B509
:107BF0000446406810B103689B689847204610BD52
:107C000038B5044690F90E00012180B205F0E6FF78
:107C100094F90E00012180B205F0F1FF256835B11D
:107C2000284602F0A3FA012084F8340038BD94F904
:107C30000F00012180B205F0D1FF637B94F90F00A2
:107C4000012B94BF2946012180B205F0D8FF94F999
:107C50001000421C09D0012180B205F0BFFF94F949
:107C60001000012180B205F0CAFF94F91100431CF5
:107C7000D9D0002180B205F0B1FFD4E72DE9F04F53
:107C80000446006885B00D4640B1002300931346BA
:107C90000A4602F00DFB05B0BDE8F08F237BA0681B
:107CA000484FB7FBF0F7002B0B780CBF4FF0010BE0
:107CB0004FF0800B1BEA030F01EB02030CBF4FF0E8
:107CC00001094FF00009FFB20393039BAB42E2D0DE
:107CD00095F800A05E464FF0000817B1384601F055
:107CE00047FE637B13F0FD0F41D194F910305A1C0D
:107CF0000FD01AEA060114BF012300234B4508D018
:107D00006369606A1A6800292CD002431A604FF038
:107D10000109A169E36A0A6813430B6017B1384689
:107D200001F026FE94F91130013306D0E3691A6898
:107D3000A36A1A4218BF46EA0808A169E36A0A68FA
:107D400022EA03030B6094F91130013318BF85F860
:107D50000080237B002B32D17600F6B2002EBCD1FE
:107D60000135B2E722EA00021A608946D1E7A1692B
:107D7000E36A0A6813430B6017B1384601F0F8FD57
:107D800094F91030013308D06369616A1A681AEAFD
:107D9000060F14BF0A438A431A60A169E36A0A689E
:107DA00022EA03030B6094F911300133CBD0E3696D
:107DB0001A68A36A1A4218BF46EA0808C3E7760899
:107DC000CCE700BF20A1070007B501228DF80710FE
:107DD0000DF10701FFF752FF9DF8070003B05DF8B2
:107DE00004FB2DE9F041044600680E4617461D4687
:107DF00010B1616802F0E8F994F90E00002180B238
:107E000005F0FDFE069B05EB0308454508D1374408
:107E1000B7420BD016F8011B2046FFF7D5FFF7E756
:107E200015F8011B2046FFF7CFFFEEE794F90E008F
:107E3000012180B205F0E3FE206808B102F0AAF942
:107E40000120BDE8F0814260002202722022017010
:107E5000C260704710B5037A044653B12178606858
:107E600005F0B6FD606805F0BBFDB0FA80F0400992
:107E700010BD012100F003F80028EFD1F8E738B574
:107E8000044640680D4605F09DFD0120207225B195
:107E90002046BDE83840FFF7DDBF38BD2DE9F84387
:107EA000DDE908961F46C368154632449A420446E7
:107EB000884602D90020BDE8F8830178406805F0C3
:107EC00087FD7EB9606803682A46DB6841469847AB
:107ED0008542EFD16068394605F07EFDB0FA80F04A
:107EE0004009E8E7B9F1000FECD06068036832465A
:107EF000DB68494698478642DCD1E3E708B540682D
:107F000005F05CFD012008BD042904D800EB410008
:107F1000B0F8010070470A299BBF01F1FF3100EB67
:107F200041000131C08884BF00EB41008088704768
:107F300010B50446243000F0EDFE28B104F50C70B5
:107F4000BDE8104000F0E6BE10BD411E00F10A037E
:107F50000020420842EAC01011F8012F52FA80F0C6
:107F60008B42C0B2F5D1704738B5CB6804460D4698
:107F700023B9BDE83840896800F0C7BB242200213E
:107F800006F0DFFD102301202370A070AB68A36012
:107F9000EB68236238BD00002DE9F047064610F873
:107FA000013B202BFAD06A4D8E600024335DC3B1B3
:107FB0002F2B16D05C2B02D10020BDE8F087A3F157
:107FC0002200C0B21D2803D825FA00F0C007F3D460
:107FD00003F0BF003C28EFD0203B5E2BECD80134EF
:107FE000E4E733191846074610F8015B202DFAD054
:107FF0002F2DF8D017604CB113F8012D2E2A01D087
:10800000202A01D1013CF6E7FF2CD5DC4FF02033CC
:10801000C1F811304C60C1F80D304B614FF00008D1
:1080200016F808302E2B01D0202B02D108F10108C0
:10803000F6E7B8FA88F04009651E6B1C02D0735D44
:108040002E2B14D14FF0000907274A46CA464FF09D
:10805000080EA04568DA16F80830202B03D02E2B26
:1080600007D1A84512D0002008F10108F1E7013D31
:10807000E3E7222B08D07C2B06D0A3F12A0CBCF11D
:10808000050F0AD82D2B12D0A8455BD10A2F4AD054
:108090000A2708224FF0100EE6E7A3F13A0CBCF1D4
:1080A000050FF1D9A3F15B0CBCF1020FECD9A3F1E0
:1080B000210CBCF15D0FE7D8A845E7D0BA4230D813
:1080C000A3F1610CBCF1190F1AD8203B4EEA090943
:1080D000DBB25FFA89F902F1010C5FFA8CFC0A4409
:1080E000BCF1060F537301D881F80CC06246BBE7A0
:1080F000A84518DCA8460A2708224FF0100EB2E760
:10810000A3F1410CBCF1190F98BF4EEA0A0AE2E74D
:108110000B7B0120087019447E234B7331238B7332
:108120004BE70A2FE4D100204B7B202B3FF444AFD8
:108130000028EDD01AEA090F18BF4FF0020981F8A4
:1081400000903AE7BA42ECD800205F23C3E700BFB3
:10815000010100312DE9F0418AB000230193037839
:10816000190704460AD583789A0707D5016A39B9F1
:108170000121204600F0BAFA054638B9002048E04F
:10818000806800F0B8FE0028F2D1F7E7FFF7DDFEC7
:10819000E5272F70002306462370A068FFF7C8FE6E
:1081A0000028EBD0E378002B33D0214601A8FFF75D
:1081B000DBFE0028E2D00125E3785FFA85F843452D
:1081C000DCD3A188491B490101A800F084FB0028E9
:1081D000D4D0002101A800F05FFB0028CED0C37AE4
:1081E0000F2BCBD1027802F01F034345C6D1437B4E
:1081F000B342C3D10770A16891F8243043F0010362
:1082000081F82430530605F10105D5D5A068FFF7A4
:108210008FFE0AB0BDE8F0812DE9F84391F80C908B
:1082200006460C4602257E2701F10D086168A2680A
:108230006B189BB21144914206D012F8010B03EB6C
:10824000431343409BB2F6E7B9F1030F28BF4FF049
:10825000030909F10402D2B203F00F01A018013A98
:108260000929D2B294BF30313731914541734FEA79
:108270001313F1D104EB090300215F73304600F0C2
:108280002AFB0121304600F007FB014628B970782F
:10829000B0FA80F04009BDE8F88303786BB1C37A87
:1082A0001B07EED40B22404606F013FC0028E8D151
:1082B0000135ADB2642DB9D1EDE70120EBE7000047
:1082C0002DE9F04F2DED028B8BB00D4606930B7808
:1082D000079013F0700F174605D100200BB0BDECCE
:1082E000028BBDE8F08F079B1B78002BF5D15368FC
:1082F000059313789C071FBF059B0C330D22B3FB1E
:10830000F2F31ABF0133DBB20123002128460393A5
:1083100000F0E1FA07F10D034FF0000B08EE103A00
:10832000DA465C465E46CDF810B0D9466B6901214D
:108330002846C3F34F1800F0AFFA0346002871D166
:108340006B78002BC9D1069B9A05C6D503F00303B1
:10835000013B012BC1D8049B002C08BF434604936A
:10836000039B9C42C0F0F180B9F1000F40F00A81FC
:10837000049B2846590100F0AEFA0028ADD0039BBB
:1083800003F1FF395FFA89F94E464FF0000A4FF0CA
:108390000F08002E00F00D810021284600F07CFA25
:1083A0000446002899D0AA6892F824304E4543F03C
:1083B00001030CBF46F0400BB34682F8243080F82E
:1083C00000B080F80B8080F80CA007F10D00FFF7DB
:1083D000BCFD84F81AA0607384F81BA00BF01F0387
:1083E0000D22013BD7F808C053430022059999425A
:1083F00040F2D0801CF80310042A5FFA82FE02F1DA
:10840000010000F2CD8004EB4202A2F801100D2819
:1084100003F101030246E9D1013EF6B2B9E74FF09C
:10842000010983E70278E52A00D07AB90499002C83
:1084300008BF4146049103998C423CBF0134E4B229
:10844000002A80D0E52A05D100266FE703998C42E7
:1084500038BF00242E2AF7D0D97A0F294AD116BB6B
:1084600012F040063FF462AF02F01F0693F80DB021
:10847000B2460D220AF1FF3802FB08F8059A424580
:10848000E2D9A2EB08020892002202EB080109914E
:108490001846D1B2FFF738FD08998A420DD100285D
:1084A00018BF002642E70AF1FF3A5FFA8AFA5245FE
:1084B000CAD15A7B5A45DCD0C6E7FF28C4D85FFA38
:1084C00080FEAEF141011929B9689CBF0EF1200070
:1084D0005FFA80FE08460999415CA1F1410CBCF1AC
:1084E000190F9CBF2031C9B27145ADD101320D2A9F
:1084F000CBD11BE70807A7D45EB1BAF1010F7FF417
:10850000ECAE1846FFF721FD58457FF4E6AEB146C4
:108510000EE018EE101A0B22184606F0DAFA0028C0
:108520007FF404AF97F8009019F001097FF477AF5A
:10853000069B19053FF5D1AE069B0798CDF8009034
:108540004246294600F00AFAC8E60021284600F013
:10855000A3F9A0B96B78002B7FF4BFAE284600F0DA
:1085600087F800283FF4B9AEAB681B79012B3FF6C2
:10857000FBAE039B1034E4B2A342EFD8F4E601341F
:10858000E4B2EDE639462846FFF746FE00287FF4C0
:10859000EFAEA2E614BF4FF0FF31002189B22BE706
:1085A000BEF10A0F94BF04EB420204EB400291803B
:1085B0002DE731462846D5F8148000F06DF90446C1
:1085C00000283FF48AAE2022314606F0BAFAD7F8E6
:1085D0000D302360D7F811306360B7F81530238170
:1085E000FB7DA3723B7803F0180323730F4B1B68CA
:1085F0009BB104F10E0104F110009847238A6382B5
:108600002383E389E382AA6892F8243043F00103CC
:10861000C8F34F1882F824308EE7212323742823CF
:1086200063740823A673E373E8E700BF44E60320FE
:1086300038B504460D462422002106F082FAA560D2
:10864000EB79102B03D0202B06D0002038BD20233F
:1086500001202370A070F9E74023F9E783780169CE
:1086600043F00403837000F11002806800F008BC3E
:108670002DE9F041017811F02005044603D00026D1
:108680003046BDE8F0814269174B9A42F7D2FFF7B6
:10869000E5FF06460028F2D02169A06800F085FBBE
:1086A0000746A06805223946243000F05BFB80466F
:1086B0000028E4D029464FF4007206F042FA012562
:1086C000A3681A79AA4209D918684246E91900F044
:1086D000B6FE0028D3D00135EDB2F1E7636903EBB4
:1086E00042236361CCE700BF00FE1F0010B50446C3
:1086F00080680A462430A16900F034FB20B1A388C9
:1087000003F00F0300EB431010BD03780BB9FFF724
:108710008FBF002070472DE9F74F03780446884645
:108720001546002B5DD08278D1075AD51A072DD572
:10873000C36942699B1A9D4228BF1D462E464FF0D1
:10874000000904F1100B002E00F08F80227863697D
:10875000A0689706C3F3080A4FEA53211FD5006AA1
:108760000144A068BAF1000F42D1B6F5007F3FD3B3
:10877000C36A99423CD0B6F5806F52D20068424637
:1087800000F0D4FD68B34FF4007744E09B06D5D5E4
:1087900083681A894369C3EB42139BB2CBE790F815
:1087A000059009EA0109BAF1000F08D1B9F1000FEB
:1087B00005D15BB951064CBF036A236A2361216965
:1087C000A06800F0F2FA09EB0001CAE721695A46F5
:1087D00000F0F1FA002804DBF1D1237813F0700FD8
:1087E00043D1637843F0020363704FF0FF303DE004
:1087F000CAF50077B7424FF0000200F1240028BF0D
:10880000374600F0AFFA0028EBD000EB0A013A46F9
:10881000404606F06EF963693B44B8446361F61B59
:1088200091E7227892064FEA562A06D40279A2EB03
:108830000902D2B2924528BF924699424FEA4A278E
:1088400008D2A06853460068424600F0B7FD0028F1
:10885000E1D1C6E753448B42F3D92430019100F0B3
:1088600059FA01990028ECD1BBE7A81B03B0BDE879
:10887000F08F73B501220DF10701D0E904560446CB
:10888000FFF749FF01280ABF9DF807004FF0FF30AE
:10889000C4E9045602B070BD37B5436913F4F07FE4
:1088A0000446C3F3431500D099B901220DF1070125
:1088B0002046FFF730FF40B2012802D0002003B06D
:1088C00030BD63691F33A0686361303000EB451031
:1088D000F5E72033F7E72DE9F04102780769044610
:1088E0000D4662B14069884202D019B921616561C3
:1088F000012006E0160706D5E3698B420BD22761FB
:108900000020BDE8F081910605D5A3681B89B5EB71
:10891000431FECD9F3E7D4F808C09CF80660431E67
:1089200006F109016E1ECB40CE40B34200D898B983
:1089300053064CBFDCF82030236A236104F1100891
:10894000002ED4D02169A068424600F034FA0028F5
:1089500006F1FF36F4DCD2E7F61AEFE7F8B50F467A
:1089600004461546002124221E4606F0EAF8B8689F
:10897000A060A58005F00F053B6AE3606A0100EB8B
:10898000451595F83B301F0744D403F017032370B7
:1089900095F83B1011F0180F04BF43F00803237043
:1089A0009DF81830E37006F00303012B2CD0022B46
:1089B00028D07BBB71052DD40123A370A1788B0730
:1089C00004D52378DF0625D4DD0723D4B31123F0A3
:1089D0007F0306F008052B430B43A370C36AA36112
:1089E0008318B3F84420B3F84A1041EA02417205F3
:1089F00013D559B9A37843F00403A370730410D4BA
:108A00000120F8BD0323D8E70223D6E700F073FA6C
:108A10000028EFD100202070F3E72162DB6CE361D6
:108A2000ECE7E1692046FFF756FF0028E8D1F1E7BF
:108A300038B5037804460BB9012038BD83785A074E
:108A400023D50121FFF752FE054628B9637843F08C
:108A5000010363700020F0E70378E52BF6D023785C
:108A60001B0744BFE369C361236A4383638C83822A
:108A7000094B1B682BB100F11601183098472B8B5E
:108A80006B82A37823F00403A370A068FFF750FA69
:108A90000028DBD0D0E700BF44E6032010B5044631
:108AA000FFF7C6FF0023237010BDF0B593B01F463B
:108AB000002309930378019206460C4613B1002067
:108AC00013B0F0BD0B7813F0700FF8D013782F2B84
:108AD00012D1019A13782F2B02D101320192F8E7BB
:108AE000A1681BB93046FFF710FEE9E709A8FFF7B8
:108AF0009FFD0028E3D009AC019801AA03A9FFF764
:108B00004BFA0028DBD0019B1B789BB1002303AA02
:108B100021463046FFF7D4FB0028D0D035460FCD94
:108B200009AC0FC40FCD0FC42B6823603046FFF78C
:108B3000B5FFE0E73B4603AA21463046FFF7C0FBFE
:108B4000BEE700B58BB000230A460193014601231E
:108B500001A8FFF7AAFF10B101A8FFF7FBFA0BB0BD
:108B60005DF804FB2DE9F0470378894619070446B0
:108B700017465BD583789A0758D51B0751D463698C
:108B8000DB43BB4252D3B84604F1100A6669B8F120
:108B9000000F00F09180A0684379C6F3080513EA3E
:108BA00056260ED16DB92169002946D0524600F0F3
:108BB00002F900283ADB04D12046FFF74FFD0028D8
:108BC00034D02169A06800F0F0F83118A06815B918
:108BD000B8F5007F3FD2C5F50076464528BF46462A
:108BE000002D36D16269E3699A4234BF0122052221
:108BF000243000F0B7F8C8B128443246494635441D
:108C000005F077FFB5F5007F04D1A068243000F0AF
:108C100081F858B1636933446361B144A8EB060835
:108C2000B4E7C169FFF757FE0028A8D1637843F085
:108C3000010363704FF0FF3050E0236A3BB92046D8
:108C4000FFF70CFD0028F1D023692362B9E7236107
:108C5000B7E70122CCE7B8F5806FC26A1BD390F862
:108C600004C0ACEB0606F3B24FEA582E734528BF9A
:108C7000734691424FEA432607D31A448A4282BF81
:108C80004FF0FF3280F82450C262A5684A46286837
:108C900000F04BFCBDE7914202BF4FF0FF3380F87C
:108CA0002450C362A3684A46186800F0C8FB002835
:108CB000BCD04FF40076ADE7E269A378B24204D2AB
:108CC000E66143F00403A37003E0084A1268002A37
:108CD000F7D194F90230002B02DB3846BDE8F0876B
:108CE0002046FFF7A5FE0028F7D19FE744E60320C2
:108CF00013B50446084659B1019105F0D6FF236823
:108D00000199DB680246204602B0BDE810401847D2
:108D100002B010BD37B50378DA07044620D54368A2
:108D2000816800F10C021868019200F088FB019A3A
:108D3000054618B90025284603B030BD23789B07A7
:108D400004D4237823F001032370F4E7D4E901303D
:108D500019690144186800F072FB0028F1D1E9E7B5
:108D60000125E8E770B583688B4204460E46154638
:108D700009D0FFF7CFFF08B9002070BD6B070AD5F7
:108D800000232370A660227805F0030520461543D2
:108D900000F80C5BF1E7636804F10C0218683146D7
:108DA00000F0C4FA0028EBD1E6E783794069023984
:108DB000994008447047012970B505460C4616468F
:108DC00002D84FF0FF3070BDC3698B42F9D3C3792D
:108DD000202B16D18169022201EBD41100F50C7011
:108DE000FFF7C0FF0028ECD004F07F0450F82430D7
:108DF00023F07043EA699A4226BF336001200020C5
:108E0000E1E7102BDDD1C1F3072381690222194468
:108E100000F50C70FFF7A6FF0028D2D0E4B230F8BE
:108E20001430E7E7012938B50C46154601D8002073
:108E300038BDC3698B42FAD3C379202B0FD1816926
:108E4000032201EBD41100F50C70FFF78BFF002813
:108E5000EDD004F07F0440F824500120E8E7102B07
:108E6000E5D1C1F3072381690322194400F50C7091
:108E7000FFF778FF0028DAD0E4B220F81450ECE7CE
:108E80002DE9F341C4688C4205460E46904601D355
:108E9000012701E00C460027EB690134A34202D20E
:108EA000C7B9EC68F4E7A64214D001AA21462846C7
:108EB000FFF781FF00280DDBEED0019B002BEBD1EB
:108EC00007B1EC606FF0704221462846FFF7AAFF19
:108ED000074620B90027384602B0BDE8F08116B930
:108EE000C8F80040F7E7224631462846FFF79AFFC8
:108EF0000028F5D1EEE773B505460C4601AA2146D8
:108F00002846FFF758FF061E10DB002221462846A0
:108F1000FFF788FF50B1EB68A34224BF04F1FF3490
:108F2000EC60019C002EE9D102B070BD0020FBE78F
:108F3000012370B50022C3604FF0FF330446C271B5
:108F400000F12406806280F82420C362C0F8340255
:108F500080F83022C0F838320D46B9B1042901D961
:108F6000002070BD11463046FFF7FCFE0028F7D008
:108F700000EB051393F8AE315B06F1D105F11B014F
:108F800000EB0110D0F80650002DE9D00022294650
:108F90003046FFF7E7FE0028E2D0B0F80B30B3F51B
:108FA000007FDDD1037C022BDAD1C389002BD7D01F
:108FB000417B21714B1E63710023A371092601239C
:108FC000994207D0013ECBD0A2795B000132DBB2DF
:108FD000A271F5E7C18A01B9416A2161C3892B44B5
:108FE000A361B0F81120228103EB41032362B0F8A2
:108FF0001110490101F2FF1103EB51236361B0F835
:10900000132002B9026AE91AA3791144D9404B1C12
:10901000E36140F6F473994202D80C23E3719FE7B1
:109020004FF6F473994285BFC36A2362102320234D
:10903000E371012095E700F0CBBA00F0AEBA000072
:1090400070B50E4E0D46144600F09AFC3368C01AF7
:109050000B4B984208D900F09BFC0A4B186000F0BB
:109060009FFF00F08DFC306000F092FC80B2401B4E
:10907000A042D4BF0020012070BD00BF4CE60320F9
:10908000A086010040E7032038B5057A04464DB9B3
:10909000406800F06BFA63682946187D04F0AFFD64
:1090A0000123237238BD10B5037A04466BB14368BF
:1090B0000121187D04F0A3FD6068FF21FFF7BBFFCD
:1090C000606800F067FA0023237210BDF8B504460B
:1090D0000D46164600F05CFC87B26068FFF7ADFFF6
:1090E000FF2860720ED14FF47A7239462046FFF79E
:1090F000A7FF0028F1D0552320462370FFF7D3FFA8
:109100000020F8BDFE2801D05023F5E76068324604
:10911000294600F047FA607208B16023ECE7606806
:10912000FFF78BFF6068FFF788FF0120E9E770B564
:1091300004460E4600F02CFC85B2324629462046F5
:10914000FFF77EFF30B96068FFF777FFFF28F4D1A3
:10915000012070BD0020FCE7F7B5037A01920446B8
:109160000D460BB9FFF790FF25B14FF496712046DD
:10917000FFF7DDFF606845F04001FFF75CFF032665
:1091800001AFB95D6068FFF756FF013EF9D2002DCF
:1091900060680CBF95218721FFF74DFF6068FFF7DE
:1091A0004CFF0B256068FFF748FF0306607203D58C
:1091B000013D15F0FF05F5D103B0F0BD70B50446D3
:1091C0000D46164637210022FFF7C6FF32462946D4
:1091D0002046BDE87040FFF7BFBF00002DE9F04119
:1091E00000250572057085724160044690461E4652
:1091F00000F0CEFB41460746606800F0BBF96368AB
:10920000494A1D720125DA601D822046FFF73CFFA6
:1092100063682946187D04F0F2FC0A256068FF2186
:10922000013DFFF708FF15F0FF05F7D163682946F8
:10923000187D04F0E4FC0A25002211462046FFF7C1
:109240008BFF0128804618D0013D15F0FF0507D19E
:10925000202320462370FFF726FF0020BDE8F08181
:109260006068FD21FFF7E7FE4FF402786068FFF7C2
:10927000E4FEB8F10108F9D1DEE74FF4D572082118
:109280002046FFF769FF052814D184F80A800025DD
:10929000BFB22A4629212046FFF790FF0246D8B1E7
:1092A0004FF4FA6239462046FFF7CAFE0028F0D094
:1092B0004323CEE704256068FFF7BFFE013D15F0AC
:1092C000FF056072F7D1AA2804D10223A3724FF0E0
:1092D0008045DDE72523BCE7A37A022B18D13A218C
:1092E0002046FFF739FF08B13723B2E76068FFF780
:1092F000A4FE00F0C000C02804BF0323A37260686E
:10930000FFF79BFE6068FFF798FE6068FFF795FE29
:109310002046FFF7C8FE63683079B168B2891A82C7
:109320001872D960012099E790D0030038B5837A8C
:10933000032B18BF490215460A4611210446FFF7C0
:109340000BFF30B1302323702046FFF7ACFE002521
:109350000BE029464FF400722046FFF7B7FE0546A2
:109360000028F1D02046FFF79EFE284638BD10B5F4
:10937000837A032B0A4618BF4A0212210446FFF7DC
:10938000EBFE30B1312320462370FFF78CFE002026
:1093900010BD0120FCE710B500220C210446FFF7A8
:1093A000DBFE30B1282320462370FFF77CFE00202F
:1093B00010BD2046FFF777FE0120F9E7F8B5044617
:1093C00016461F46FFF7D3FF68B10025ABB29F4298
:1093D00006EB452109D94FF400722046FFF776FECF
:1093E00001350028F2D10020F8BD2046BDE8F84044
:1093F000FFF7D1BF38B5044615464068FFF71BFE9E
:109400004FF400726068294600F0E6F86068FF21BA
:10941000FFF711FE6068FF21FFF70DFE6068FFF7A0
:109420000CFE607200F01F00052806D0572320466E
:109430002370FFF738FE002038BD0120FCE770B52F
:10944000837A032B18BF490215460A4618210446A1
:10945000FFF782FE064630B1322323702046FFF725
:1094600022FE00251FE02A46FE212046FFF7C2FF0C
:109470000028F3D04FF4FA612046FFF758FE054666
:1094800008B95A23E9E732460D212046FFF764FE6A
:1094900008B12923E1E76068FFF7CFFD0028F8D184
:1094A0002046FFF700FE284670BD13B501914FF42A
:1094B000FA610446FFF73BFE019A30B95B23237043
:1094C0002046FFF7F0FD002005E0FC212046FFF7D5
:1094D00091FF0028F4D002B010BD10B5837A032BA1
:1094E0000A4618BF4A0219210446FFF735FE30B17B
:1094F000332320462370FFF7D6FD002010BD012046
:10950000FCE738B54FF4FA610446FFF710FE054654
:1095100030B9562323702046FFF7C5FD284638BDD5
:109520006068FD21FFF787FDF5E7F8B504461646AC
:109530001F46FFF7D2FF70B10025BD4206EB452163
:10954000204604D0FFF7B1FF28B10135F5E7BDE8AB
:10955000F840FFF7D6BF2046FFF7A5FD0020F8BD75
:10956000014B01221A70704750E60320011D00686C
:1095700000F02ABE10B504460175006800F0F6FD43
:10958000207D012104F02AFB207D0121BDE810404F
:1095900004F035BB006800F0FDBD0068FF2100F05D
:1095A00081BE000037B51346074A00920025074CDC
:1095B000006825700A46294600F07AFE2378002BC1
:1095C000FCD0002003B030BD61950B0050E60320B5
:1095D000006800F067BE000037B51346064A0092E7
:1095E0000025064C006825702A4600F061FE2378AD
:1095F000002BFCD003B030BD61950B0050E603207A
:109600002DE9F04F04468BB000F08EFAB4F90A3021
:10961000B4F93A60B4F9087094F83890DA1D48BF8C
:1096200003F10E0240238DF82330C2F3C7030393E6
:10963000A36AB4F93C20DB68FFB2002E03F1FF33CC
:1096400022EAE272B8BF0736D2B29BB2B945C6F37E
:10965000C70628BFB9460492DBB27A1C06FB079BFB
:1096600005920693039B9E426AD2636B258994F808
:10967000542003EB0B08059B5D1B049B4A441D44CF
:10968000A36A1011A5EB0905A6F15001EDB2C9B20C
:10969000103002F00F029BB34FF0000A8DF8251036
:1096A0008DF82600E16A8DF824A018468DF8272051
:1096B000FEF724FCCDE900AAA06A0123042209A92F
:1096C000FEF7ECFB0DF1230AA06A95B1069BAB42B5
:1096D00028BF2B461A4601234146CDE900A3079235
:1096E000FEF7DCFB079AAD1A9044EDB200F01CFACD
:1096F000EAE7216BFEF702FC0136F6B2BB44B1E7A4
:109700008DF824108DF825001946B4F840008DF826
:109710002620079304F073FA079B0093032209A9FC
:10972000606AFEF75EFBB4F84000012104F067FABE
:10973000079B606A00932A464146FEF752FBDBE72F
:109740004FF004224FF0FF33C4E90E230BB0BDE805
:10975000F08F000030B585B004460A9D0395099D41
:1097600002959DF92050CDE9003513460A460121A6
:10977000FDF73EFD034B23602046002384F8543060
:1097800005B030BD801A0C0010B5034B03600446D1
:10979000FDF750FD204610BD801A0C0010B5034B9C
:1097A00003600446FFF7F0FF204610BDBC1C0C0010
:1097B00010B50446FFF7F2FF20465821FAF76FFC78
:1097C000204610BD30B585B004460A9D0295099D1E
:1097D00001959DF920500095FFF7BCFF024B2360D7
:1097E000204605B030BD00BFBC1C0C0030B504469F
:1097F00085B0FDF7A3FD2F212046FDF708FEA268E6
:109800002F4B9A4221D1236801211B6B2046984798
:10981000B4F90820B4F90A102023203A733901253D
:10982000CDE9013502EBD272732301EBD1710093C4
:1098300041F34F01234B204642F34F02FDF78EFFC9
:10984000236800211B6B20469847A368B3F1801F53
:1098500017D1B4F90820B4F90A1020230120203AC6
:109860007339CDE9013002EBD272732301EBD17170
:10987000009342F34F02134B41F34F012046FDF793
:109880006DFF114916222046FDF71BFD054618B94C
:109890000025284605B030BDA368B3F1801F07D06E
:1098A000642003F007FBAF212046FDF7DFFCF0E763
:1098B000064904222046FDF704FD0028F0D1E7E721
:1098C00040008000D41A0C00141D0C00101D0C0068
:1098D00008B5024B1B689B68019308BD6802030032
:1098E00008B5024B1B68DB68019308BD68020300E2
:1098F00008B5024B1B685B68019308BD2C0203008E
:1099000008B5024B1B689B68019308BD2C0203003D
:1099100008B5024B1B68DB68019308BD2C020300ED
:1099200008B5024B1B681B69019308BD2C0203009C
:1099300008B5024B1B689B69019308BD2C0203000C
:1099400008B5024B1B68DB69019308BD2C020300BC
:1099500008B5024B1B681B6B019308BD2C0203006A
:1099600008B5024B1B685B68019308BD1802030031
:1099700008B5024B1B68DB68019308BD18020300A1
:1099800008B5024B1B681B69019308BD1802030050
:1099900008B5024B1B685B69019308BD1802030000
:1099A00008B5024B1B689B6D019308BD18020300AC
:1099B00008B5024B1B685B6E019308BD18020300DB
:1099C00008B5024B1B689B68019308BD7802030031
:1099D00008B5024B1B681B6C019308BD780203009D
:1099E00008B5024B1B685B6F019308BD780203004A
:1099F00008B5024B1B689B6F019308BD78020300FA
:109A000008B5024B1B68DB6F019308BD78020300A9
:109A100008B5034B1B68D3F88430019308BD0000E0
:109A20007802030008B5034B1B68D3F89830019304
:109A300008BD00007802030008B5034B1B68D3F88B
:109A4000B430019308BD00007802030008B5034B51
:109A50001B68D3F8BC30019308BD000078020300F6
:109A600008B5034B1B68D3F8C430019308BD000050
:109A70007802030008B5034B1B68D3F8D830019374
:109A800008BD00007802030008B5034B1B68D3F83B
:109A9000DC30019308BD00007802030008B5034BD9
:109AA0001B68D3F8E030019308BD00007802030082
:109AB00008B5034B1B68D3F8E430019308BD0000E0
:109AC0007802030008B5034B1B68D3F8E830019314
:109AD00008BD00007802030008B5034B1B68D3F8EB
