:02000002B0004C
:1040000000400B00441A0C000000060017000502D7
:084010000401A30F00000000F1
:04401800ACFB0B00F2
:1040200009480A49884208B505D0094A824202D0A7
:10403000121A09F03EFD0748074A0021121A09F03A
:1040400060FD014808BD00BF84DA032028180C0079
:1040500078DC032078DC0320EDE7032070B5074E01
:10406000074C07F0AFFFA41BA4080025AC4200D109
:1040700070BD56F8043B98470135F7E7DC170C0094
:1040800000180C0001F014BC08B501F0C3FDBDE838
:10409000084007F04FBF04F0DFBF04F0DDBF04F0BD
:1040A000E3BF000008B5034A03490C2004F0F0FE0A
:1040B000FEE700BFB9890B00C0FB0B000078B0FA27
:1040C00080F0400970470123037070477047037CFC
:1040D00013F008031EBFC36A406A1B1A002BACBF53
:1040E00018466FF000407047014B01221A7070476C
:1040F000DCDE03207047000008B5064A13780BB1D8
:10410000013B137008F0FEFABDE80840024907F0D1
:104110008CBD00BFF5DD0320D5FB0B0008B5064ABA
:104120001378012B9CBF0133137008F0EBFABDE844
:104130000840024907F079BDF5DD0320E0FB0B00E4
:1041400008B508F0DFFABDE80840014907F06DBD89
:10415000EDFB0B0010B510210446FFF7A0FF204631
:1041600010BD10B534210446FFF799FF204610BD5D
:10417000103002F00FBC07B501228DF80710103087
:104180000DF1070102F006FC03B05DF804FB1030EE
:1041900002F066BB103002F084BA07B501220DF1BF
:1041A0000701103002F0CFF901280CBF9DF807007D
:1041B0004FF0FF3003B05DF804FB436913B183692E
:1041C0000C301847704713B500210446084604F028
:1041D000D7FC0023204601A9019304F0E9FC019CCF
:1041E0000CB1012323710021012004F0C9FC2CB182
:1041F000236820469B6898470023237102B010BDB6
:1042000010B5084C04F0E8FB2368C01A1D2807D934
:1042100008F078FA044907F008FD04F0DDFB20609F
:1042200010BD00BF50DD0320FEFB0B000B4BD3E99C
:1042300000300022834205D0996A252928BF012237
:104240002C33F7E742B1064A1378182B04D8013310
:104250001370044B01221A70704700BFB4DC0320B6
:1042600098DC032036E6032038B5144C04F0B4FB88
:104270002368C01A1D2820D908F044FA104907F015
:10428000D4FC04F0A9FB0F4B20601B78ABB10E49A6
:104290000E480B6804781A7894420ED04C689C4201
:1042A00008D0197805788D4204BF114602702C336E
:1042B0000A46F4E7064B01221A7038BD50DD032090
:1042C0000CFC0B0034E60320B4DC03204DDD03209E
:1042D00084DA032038B5154C04F07EFB2368C01A3D
:1042E0001D281DD904F078FB206008F00BFA104956
:1042F00007F09BFC0F4B1B7893B10F4B0F4D5C6885
:10430000287814F82C2C82420AD01B6800229C4288
:1043100003D013F82C1B22B12970094B01221A700B
:1043200038BD411A4A424A41F1E700BF50DD03203F
:104330000CFC0B0034E60320B4DC03204DDD03202D
:1043400084DA0320012A02D1016000207047022A8A
:1043500004BF0B680360F8E70368184737B50446E5
:1043600080680D4630B10023CDE900331A460221A2
:1043700004F026FCA06830B10023CDE900531A46B2
:10438000194604F01DFC03B030BD0EB403B503ABF9
:10439000002153F8042B019307F06FFC02B05DF885
:1043A00004EB03B07047000073B504460846227959
:1043B000A36832B1A3B90B4902B0BDE8704007F061
:1043C00021BC094A267B094D0949647B012E18BF8F
:1043D0002946CDE900140749FFF7D7FF02B070BDA9
:1043E000054AEFE72BFC0B00CA000C0027FC0B0072
:1043F00023FC0B0041FC0B001AFC0B000EB403B5B0
:1044000003AB012153F8042B019307F036FC02B0F3
:104410005DF804EB03B0704710B58368044613B130
:10442000032201469847204610BD000037B5134BC4
:10443000036004468068C8B100256FF00043CDE9F1
:10444000003502212B462A4604F0BAFBA068294613
:1044500004F0E6FB237903F0FF0513B104F088FBB9
:10446000F8E7A068294604F09BFBA56004F10C0066
:10447000FFF7D2FF204603B030BD00BF20030C0081
:1044800010B50446FFF7D2FF20461C21FFF707FEB8
:10449000204610BD10B54368013B0446436063B934
:1044A00003689B689847A368013BA3602BB9236806
:1044B0002046DB68BDE81040184710BDF0B58C46BB
:1044C00000251449057104468560016092E80300E7
:1044D00085B002AF04F10C0687E8030096E80300FC
:1044E00082E8030097E8030086E803009168A0696A
:1044F0006161D1689560D060A161CDE90035064A5F
:104500002346614604F1080004F042FB204605B052
:10451000F0BD00BF20030C00C7410B0013460A4644
:104520000149096802F0D9B93CE60320F0B595B01D
:10453000044600AF0D461E22002107F1300009F0AD
:10454000E0FA2068616807F1280303C397F8283070
:10455000662B6E4668D13E4907F1280009F017FB2B
:1045600000283ED13B48037C13B1103002F0AEF975
:10457000234607F1280204F12005186859681446FB
:1045800003C40833AB422246F7D1186820609B88E9
:10459000A3801E2207F130012F4809F044FB0023BD
:1045A0002D4A2E497B60381D02F097F948B108F07A
:1045B000A9F82B49284AFFF721FF2749274802F08D
:1045C000D8F908F09FF8244A2649FFF717FF224937
:1045D000254844F20222FFF7A1FF5437B546BD46F5
:1045E000F0BD224907F1280009F0D1FA68B908F0B6
:1045F00089F8194A1E49FFF701FF164B1B7C002B57
:10460000EBD0194802F062F9E7E71A4907F12800F0
:1046100009F0BDFA40B908F075F8174907F005FB35
:10462000164B01221A70E8E7EB1D23F00703ADEBF0
:10463000030D2A462146684609F03BFA69460548BB
:1046400007F0E0FA08F05EF8694607F0EEFAC4E712
:104650005EFC0B00F8DD03202CDE0320ECE50320DC
:1046600067FC0B009AFC0B0008DE0320B7FC0B0074
:10467000C0FC0B00D8FC0B00E1FC0B004ADE032061
:1046800030B585B01B4B009313798DF804309368D7
:10469000029300F58C659389ADF80C3004460A4608
:1046A0006B4600F26C41284602F0B0FC10B90020C5
:1046B00005B030BD256004F23C45284602F006F9FD
:1046C0000121204602F04CFB014668B121462846F4
:1046D00001F033FF0028EAD094F83C3413F0700F57
:1046E000E5D0054B1D60E3E7204602F039FB0028CA
:1046F000ECD1DCE70C030C003CE6032008B508F025
:10470000ABFA0849FFF741FE142007F0E7FB08F079
:10471000A3FA0549FFF739FEBDE80840142007F069
:10472000DDBB00BFC9000C00C0020C002DE9F04742
:1047300084B002AF804691461E460D4609F057FAF6
:10474000093020F00701ADEB010D404609F04FFAAA
:1047500097F828A0264902AC03464246204604F0BA
:1047600093FCBAF1000F01D1042D0DD1214B224948
:104770001B788DF8003038463C23224607F080FD38
:10478000786808B1FFF786FEB9F1000F01D1012D5D
:1047900021D105F0E5FB05F090FCE0B1204609F0E1
:1047A00026FA073020F00700E846ADEB000D204662
:1047B00009F01DFA0DF1080902462146484609F0A4
:1047C00078F9204609F013FA0023024649460B48BF
:1047D00005F060FAC5460EB9022D04D108F03CFA86
:1047E000214607F022FA0837BD46BDE8F08700BF32
:1047F000F7FC0B00FCDC0320FEFC0B00CCDE0320EE
:104800002DE9F0410E4D0F4FD5E9004888B0A04585
:1048100013D02379E67814F82C2B0393394605A896
:1048200004F032FC039B00960122002105A8FFF74B
:104830007DFF6B682C3B6B60E9E708B0BDE8F08159
:104840009CDC032006FD0B0010B5D0E900420648B1
:10485000121B92104243914202D3044808F064FABA
:104860002C2000FB014010BDA38B2EBA0FFD0B00C6
:104870002DE9F74FD0E9009A2C4BAAEB0904A410BC
:104880005C432B4B9C4280468B4602D1294808F062
:1048900048FA012C214638BF01216418ABEB090608
:1048A00040D2002C40D09C4228BF1C462C206043A4
:1048B0000192FFF7F0FB019A0746BD190AD0944612
:1048C000BCE80F000FC5BCE80F000FC59CE807004F
:1048D00085E80700002E04DD32464946384609F0D7
:1048E000F6F8AAEB0B0A2C36BAF1000F3E4404DDB1
:1048F00052465946304609F0DCF85644B9F1000FEB
:1049000006D0D8F808104846A1EB0901FFF7C7FB0D
:104910002C2000FB0474C8E90076C8F8084003B0F6
:10492000BDE8F08F1C46C1E72746C6E7A38B2EBA29
:104930002EBAE80259FD0B0070B50A46D0E9011302
:10494000994206460ED049B115460C460FCD0FC40C
:104950000FCD0FC495E8070084E8070073682C3377
:10496000736070BDFFF784FFFBE700002DE9F04F97
:10497000A5B08378412B06AF83460D4625D1C37879
:10498000422B40F0B3819BF80130DFF884A33B76E3
:1049900007F1180009F079F8DAE90083E946C6B2B0
:1049A00000210122984516D098F80000B04208D1A5
:1049B0005046BB607961FFF747FFBB6879690446E1
:1049C0000022013108F12C08ECE7432B40F08E81E6
:1049D000C378432BD5E74AB1CD4887F8486007F143
:1049E0004801FFF7A9FFDAF804402C3C584609F0CB
:1049F000FEF8013820F00700ADEB000D584609F035
:104A0000F6F80DF118084044002100F8091C58463A
:104A100087F8231009F0EBF8584410F8023C3B7774
:104A2000584609F0E4F85844002110F8013C7B771F
:104A3000102207F11C00B97709F0C6FF786107F072
:104A400061FE7B69B349DBB21A467B61FFF7D6FC96
:104A50007B6904215846BB60796109F0C8F879691F
:104A6000BB680238814214D206299BBF07F1780245
:104A7000521808EB01021BF801008CBF1BF8010063
:104A800002F85C0C01F1010188BF02F8070CC9B201
:104A9000E0E7984244D07B6107F034FE0446584674
:104AA00009F0A5F8821E20469B4C7B699B49FFF7C5
:104AB000A5FC237C73BB9A4944F2022204F1100046
:104AC000FFF72CFD97495A462046FFF797FC04F163
:104AD000100001F0FBFE07F015FE934907F0A5F862
:104AE0009BF80130A3F13002092A02D9432B40F090
:104AF000FC809BF8002087F8482087F849308B49D4
:104B00008B4807F1200307F1480204F0BDFA894BF6
:104B10001D70EAE083495A462046FFF76FFCDAE74A
:104B2000854907F1200009F032F8002800F0DD8007
:104B3000824907F1200009F02AF800287ED1DAF82E
:104B400004303B61DAF800307B61D7E904239342FB
:104B500074D01B789E426ED107F1480A07F1380BDA
:104B600007F1340307F130027549CDF804A0CDF800
:104B700000B0404604F090FA584608F083FF5046D3
:104B800087ED020B08F07EFF97F834A097F830B05D
:104B900087ED000B07F0B6FD6A4907F046F807F00D
:104BA000B1FD694907F041F807F0ACFD674907F02E
:104BB0003CF807F0A7FD66493246FFF71FFC07F0F7
:104BC000A1FD5A466349FFF719FC07F09BFD6249B6
:104BD00007F02BF807F096FDCAF340030AF0010234
:104BE0005E490093CAF38003FFF708FC07F08AFDD3
:104BF0005B4907F01AF807F085FD8246D7E9020104
:104C000008F0CCFE08F0B8FB02460B46D7E90001DD
:104C1000C7E9022308F0C2FE08F0AEFBCDE90001AF
:104C2000D7E902234F495046FFF7E8FB07F06AFD3A
:104C3000454906F0FAFF7B692C3385E74A4907F1BD
:104C4000200008F0A4FF002854D107F13403049396
:104C500007F13003039307F12C03029307F12803B4
:104C6000019307F124034149009307F1380207F14A
:104C70004803404604F010FAD7ED097AB8EE677A97
:104C8000DFED3B7AC7EE276A97ED0A7AC4ED076A33
:104C9000B8EE477AC7EE276A97ED0B7AC4ED056A3E
:104CA000B8EE477AC7EE276AC4ED086A97ED0C7A2A
:104CB000B8EE477AC7EE276AC4ED096A97ED0D7A18
:104CC000B8EE477AC7EE276AC4ED066A07F01AFD08
:104CD00022787A610546A06908F04EFBCDE9000113
:104CE0007A6924492846FFF789FBCD467C37BD46C3
:104CF000BDE8F08F204907F1200008F048FF0028A8
:104D000040D11E480322414608F08DFF1C4BFFE6B0
:104D1000B4DC032073FD0B00C0DD032088FD0B0015
:104D200068DD0320A5FD0B00D1FD0B00F2FD0B009B
:104D300054DD032067DD0320FEFD0B0002FE0B00A7
:104D400006FE0B0012FE0B0021FE0B003CFE0B00CA
:104D500057FE0B0073FE0B008FFE0B00AAFE0B002C
:104D6000C8FE0B00E3FE0B00F3FE0B00F7FE0B008A
:104D700000007A440CFF0B001FFF0B0064DD0320D2
:104D800063DD0320414907F1200008F000FF88BBE4
:104D90003F4BD3E900200123904205D012F82C1B91
:104DA000B14208BF0023F7E7A3B107F0ABFC3949D4
:104DB00006F03BFF012D11D187F84A50344887F89F
:104DC000486007F14801FFF7B7FD334807F1480194
:104DD000FFF7B2FD314B01221A7086E7022D4FF02A
:104DE000010302D187F84C30E8E7032D08BF87F8AC
:104DF0004B30E3E72A4907F1200008F0C8FE0028FD
:104E00007FF473AF07F07EFC414606F00EFF44F2DC
:104E1000022224492448FFF781FB244907F1480076
:104E200004F0E3FA224907F1580004F0DEFA2149C0
:104E300007F1680004F0D9FA07F1480303EB051104
:104E400007F1380004F01CFB07F138021A491B482F
:104E5000FFF79BFA07F1380004F07CFA4146174847
:104E600006F0E3FE052007F039F80F4801F02EFDAB
:104E700007F1680004F06EFA07F1580004F06AFACE
:104E800007F1480004F066FA2FE700BF4E020C005D
:104E9000B4DC032023FF0B009CDC03204CDD03204B
:104EA0003CFF0B0040FF0B0008DE03204DFF0B0012
:104EB00051FF0B0056FF0B0060FF0B00F8DD0320D5
:104EC00010B50C46002204212046FFF74FFD0B4B86
:104ED0001B7893B10A48037C2BB90A4944F2022299
:104EE0001030FFF71BFB224607490548FFF786FAFB
:104EF000BDE81040054801F0E9BC10BDF4DD032019
:104F0000C0DD032068DD032075FF0B00D0DD03202A
:104F1000B0B501F1080323F0070300AFADEB030DBB
:104F20000C460A460146684608F0C3FD0DEB040333
:104F30006D4613F8013C13B100230DF8043007F05F
:104F4000E1FB114906F05EFE07F0DCFB294606F0A6
:104F50006CFE012211462846FFF708FD0B4B1B781B
:104F600083B10B48037C2BB90A4944F2022210306A
:104F7000FFF7D4FA084906482A46FFF73FFA0748E0
:104F800001F0A4FCBD46B0BD95FF0B00F4DD03208D
:104F9000C0DD032068DD0320A6FF0B00D0DD032069
:104FA0002DE9F04FDFF8EC80DFF8EC90354D89B05B
:104FB00000AF07F051FE03681B69984700285CD0DA
:104FC00007F04AFE0A220146384606F09DFEBB68FD
:104FD000073323F007036E46ADEB030DEA460023CB
:104FE000B9681FFA83FB8B4503F1010407D25946C8
:104FF000384604F0B1FA23460AF80B00F0E701291D
:105000000AD90139384604F0A7FA0D2801BFBB6858
:105010005344002203F8012C012202215046FFF7DD
:10502000A5FC07F06FFB414606F0FFFD07F06AFBA9
:10503000396806F0FAFD99F80030CBB12B7C2BB91A
:105040001149124844F20222FFF768FA394607F183
:10505000100004F015FA0E4907F110022846FFF778
:10506000CDF907F1100004F075F9084801F02EFCA5
:10507000384604F06FF9B5469BE72437BD46BDE8D6
:10508000F08F00BFC0DD032068DD0320D0DD0320EA
:10509000D8FF0B00C6FF0B00F4DD03202DE9F84F0D
:1050A000D0E9008993466FF07043A9EB0802B3EB97
:1050B000E20F07468A464FEAE20402D1204807F091
:1050C00030FE012C224638BF0122A418A1EB0805AE
:1050D00031D294B39C4228BF1C46E000FEF7DBFFB0
:1050E000064673191CBFDBE90001C3E90001002D6E
:1050F00004DD2A464146304608F0E9FCA9EB0A09DE
:105100000835B9F1000F354404DD4A4651462846BA
:1051100008F0CFFC4D44B8F1000F05D0B968404607
:10512000A1EB0801FEF7BBFF06EBC404C7E900656D
:10513000BC60BDE8F88F1C46CFE72646D1E700BF2C
:1051400059FD0B002DE9F04FAFB0064604F008FF03
:105150008349142204F0FCFF8046002800F0FC8004
:10516000DFF8FCB1002404EBC4094FEA890909F116
:1051700008070BA85F4404F057FB01220BA938462F
:1051800005F0AEFE8246002856D076490BA804F002
:10519000A6FB054600284FD0082209A9384604F08E
:1051A000FBFCB21C53D107F0ADFA9DF82B300593F0
:1051B0009DF82A3004939DF8293003939DF82830F8
:1051C00002939DF82730684F01939DF826309DF893
:1051D000242066490093CDF818A09DF82530FFF7EC
:1051E0000DF97B689DF824103A68934205D012F8B7
:1051F000080B884208BF0025F7E7EDB1242202FB27
:1052000004B28DF88C1092F920202492BA6893424F
:1052100017D01BB1DDE9230183E803007B68083365
:105220007B6007F06FFAD7E900239B1A50499DF87D
:105230002420DB10FFF7E2F80134E4B2444592D3B6
:105240008AE0494823AA1946FFF728FFE9E7731CBB
:1052500003D09DF82430B342EED104F081FE0DF16D
:105260008C08444D014601230BEB0902404606F031
:105270006FFA239B249C2B606B689C4208D014B16E
:10528000636801336360686808B1FFF703F96C6015
:10529000404604F0D4FF374804F0D4FD0646002809
:1052A0005AD0354BDFF8FC9000221A70334B4FF088
:1052B000010A1F2210A9384683F800A004F06CFCF4
:1052C0002F4A30492B4805F0D7FE2F4A2F4929484D
:1052D00005F0D2FE2E4A2F49264805F0CDFE07F0F4
:1052E00011FA9DF840202C49FFF788F89DF84030CE
:1052F0002A488DF862A018A98DF86030FFF71CFBD2
:10530000D9E9007CDFF8A0E0BC4516D03D460FCDC2
:1053100044460FC40FCD0FC495E8070084E807008A
:105320009DF840209DF88C309A4202BF8DF88EA0E7
:10533000CEF8008000262C37E6E76EB107F0E2F9E0
:10534000174906F072FC174818A9FFF7F5FAD9F8C3
:105350000430154A2C3B13602FB0BDE8F08F00BF1E
:10536000E0DE0320C0DC032088DC0320F9FF0B0013
:105370002C000C00BCDE0320F6DD032035E6032004
:10538000E8DC0320D4DE0320D4DC0320CCDE0320C1
:1053900000DD0320C4DE03203E000C009CDC032063
:1053A00023FF0B00B4DC032084DC0320F0B53E496E
:1053B0003E4887B00022FFF7B1F8012448B93C4BC2
:1053C0001C7007F09FF93B4907B0BDE8F04006F0BC
:1053D0002CBC394F394D3A4AD2E900239B1A9B1015
:1053E0007B439C4254D8374A23460A2103A803F042
:1053F0005BFE002319460093012203A8FFF796F9EC
:1054000007F080F92B6830491A78FEF7F7FF4FF460
:105410007A7006F063FD2B681B78A3421ED007F05C
:1054200071F92A68294912782346FEF7E7FF04F04C
:1054300097FD05F0B3FB04F093FD04F03EFE30B998
:105440002046FFF77FFE322006F048FDF3E707F025
:1054500059F92B681E491A78FEF7D0FF07F052F968
:105460002B681C491A78124EFEF7C8FF00233370D0
:10547000642006F033FD3378002BF9D007F042F9B1
:105480002B6815491A780134FEF7B8FFE4B2A2E799
:105490001248037C13B1103001F018FA104B0022AF
:1054A0001A7007B0F0BD00BF52000C009CDD032055
:1054B0004ADE032054000C00A38B2EBA84DC0320A8
:1054C000B4DC032095000C009E000C00CB000C0007
:1054D00004010C0025010C0048010C008CDD0320A8
:1054E0004BDE03207FB5534B534C01221A70534BB4
:1054F0000022C3E90022A2F580329A60032003F063
:10550000DFFC4F494F4804F069FA4F494F4804F017
:1055100065FA4F494F4804F061FA4F494F4804F08B
:105520005DFA14257F26204604F073F904F1080083
:1055300005F09FF904F1140005F09BF9013D84F892
:10554000206004F12404EED14548464C04F07CFB75
:10555000454804F079FB454804F076FB444804F0E4
:105560004FFC4448072102F0EDFC2378BFF35B8F2A
:10557000DB070AD42046FEF7A1FD30B13E480121E9
:1055800003F016FE2046FEF79EFD3C4B3C4E3D4D83
:105590003D4803966422C3F860243C4AC3F8702453
:1055A0000122002483F87424334A5C60C3F83C442D
:1055B000C3F86844C3F87844A3F87C44C3F86C2467
:1055C000334B344A5C604FF47A7199601A601C6105
:1055D000314BC3E901411A601C61304BC3E9014101
:1055E0001A601C612E4BC3E900449C602D4BC3E93B
:1055F00000449C602C4BC3E900449C602B4B0093FF
:105600006A46234641F288310295FEF757FF684605
:10561000FEF702FF264B00936A4623464EF66021B2
:105620002448CDE90256FEF749FF6846FEF7F4FE2E
:1056300004B070BDFCDC0320E0DE0320A8DC032006
:105640006F010C00C0DC032094010C00D4DC0320AB
:10565000B9010C00E8DC0320DE010C0000DD0320B2
:10566000D4DE032078DC0320CCDE0320C4DE03205C
:10567000BCDE03204CDE03207CDC0320B0E10320F1
:1056800059430B0045430B0014DD03200C030C00B1
:10569000F8DD032034030C00C0DD03208CDD032083
:1056A000B4DC03209CDC032088DC0320E9400B00F1
:1056B0002D420B0030DD03202DE9F04F6B4C6C4B7D
:1056C0006C4F85B0002520461D7002F025FE6A490A
:1056D0002561204606F096FA012300930722032352
:1056E0007321204602F09FF9204603F083F8604BB7
:1056F0001E78002E40F0B7804FF4801323610F23F3
:1057000000931022232348212046019601F051FFE7
:10571000D7E90032D21A5949D2102046FEF76EFE60
:1057200006F0F0FFD7E90032D21A5549D210FEF741
:1057300065FE0123009307222B467321204602F0C9
:1057400011F8012D06D000966B1E0722732120460A
:1057500002F069F901352046EDB203F04BF8072D50
:1057600007D90025072300951A467321204601F02A
:10577000F9FF6FF00100FFF7E5FCFFF711FCFFF701
:105780003FF81C2007F03AFA0028B0D1D7E9006BA7
:105790003C4BDFF80CA14FF0FF38B3450DD0D6F8E5
:1057A00004904B4507DA96F8008006F0ABFF5146AF
:1057B00006F03BFA4B460836EFE7B8F1FF3FDFF85B
:1057C000E490DFF8E4A0DFF8E4B018BF012320463E
:1057D00018BF89F80030002602F09EFD2A49266194
:1057E000204606F00FFA4FF4801328492361424601
:1057F0002046FEF703FE204602F0FCFF8AF80080F8
:1058000099F800302BB34046FFF79CFCDBE90032EF
:1058100001369A42F6B213D1642E11D11C4B1D4AA7
:105820001B788DF8003002A81B493C2306F028FDA8
:10583000039808B1FEF72EFE642006F04FFBDFE769
:10584000C82E81BF002289F800201B788AF800301A
:10585000F2E7204602F060FD204602F0CBFF0F4B3E
:1058600001221A7043E705B0BDE8F08F4CDE03203B
:1058700035E6032088DC032003020C000D020C0037
:1058800016020C0019FCFFFF37020C0042020C004C
:10589000FCDC03204A020C00FEFC0B0034E6032073
:1058A00025020C00F6DD03204DDD0320B4DC0320CF
:1058B0002DE9F047022190B01C2007F075F9022174
:1058C0000E2007F071F90221072007F06DF902217F
:1058D0000F2007F069F902211220002407F064F973
:1058E00002211D2007F060F9724900944FF0FF3348
:1058F00002221C2006F02EFF6F4900944FF0FF3368
:1059000002220E2006F026FF6C4900944FF0FF3370
:105910000222072006F01EFF694900944FF0FF3372
:1059200002220F2006F016FF664900944FF0FF3365
:105930000222122006F00EFF0222634900944FF06B
:10594000FF331D2006F006FF03F046F85F4B604F63
:10595000186006F0D7FE4FF4E13106F0C7FE07F0FD
:105960007BF94FF4165106F0C1FFFEF7C7FE04F0B5
:10597000F7FA04F03FFB04F0F3FA322104F084FB61
:1059800004F0EEFA082104F03CFB524A524910465A
:1059900005F09CFB514A5249104605F097FB224600
:1059A00050495148CDE90044012303F03DFB4F4BE2
:1059B0001C704F4B1C704F4B1C704F4B4FF001092C
:1059C0001C7087F8009006F06BFA079006F05CFAFE
:1059D000054606F06DFA064606F032FA804606F0F5
:1059E0003BFA824606F044FA079B444A0095CDE90B
:1059F00003A01021CDE9016808A803F055FB404938
:105A0000404808F0CEF808A93E4808F0B1F83E49F1
:105A10003C4808F0ADF83D4802F0C2FA3B4802F0BD
:105A20007BFC3A4802F0E6FE394B0C9339483A4B7E
:105A30008DF834400CAA08210E93ADF83C90FEF787
:105A40001FFE044628B906F05DFE344906F0EDF865
:105A50003C702E4C0221204602F053FA00224FF0F7
:105A60000113C4E904232E49204606F0CBF8204652
:105A700002F0C0FE2B4B01224FF47A601A6006F050
:105A80002DFA06F03FFE0A225021044606F0D7F810
:105A9000204606F0BEF8FFF70FFE23486FF00041E6
:105AA000FEF75CFC21486FF00041FEF757FC10B098
:105AB000BDE8F08701420B00F9400B001D410B00CF
:105AC00069420B00D5420B0041410B0050DD032021
:105AD000F4DD0320D4DE0320114F0B00C4DE0320CD
:105AE0002D450B00C14E0B00FEFC0B004BDE0320CE
:105AF0004ADE0320DCDE032036E6032052020C00DF
:105B00006B020C0068DD032074020C004CDE0320E5
:105B10000C030C00B0E1032000127A007D020C009F
:105B2000A2020C0088DA032014DD032030DD0320FC
:105B30002DE9F74FDFF8CC9099F80030002B5AD0C0
:105B400000250F23CDE900352C48DFF8BC80DFF8B5
:105B5000BCA0DFF8BCB080232A46294601F029FD0D
:105B6000D8E900239B1A9B10EFB20AFB03F39F4274
:105B70003BD239464046FEF767FE07EBC706017881
:105B80009BF800301D4C7600721D99424FF00403C3
:105B900006F10106228263824FF00101204616D1F0
:105BA00002F0AFF90023636101220E23CDE9003238
:105BB0003146204601F0FDFC39464046FEF744FEE2
:105BC0000F4902782046FEF7E0FB0135C8E702F0F6
:105BD00098F94FF00113636101220E23CDE90032E1
:105BE0003146204601F058FDE6E7044802F002FE87
:105BF000002389F8003003B0BDE8F08F4CDE0320AD
:105C000022020C0084DA0320B4DC0320A38B2EBA1A
:105C10004DDD03202DE9F041394D2B788AB0A3B139
:105C2000384B1B68002B47D01A78374902A803F07D
:105C30002BFA364C2378009301231A46002102A840
:105C4000FEF774FD00232B702370FFF771FF06F041
:105C500059FD2F4B2F491A78FEF7D0FB2E4B1B789E
:105C600023B906F04FFD2D4905F0DFFF04F078F968
:105C700004F023FAA0B3072006F0C0FF034628B9BA
:105C80000090014601222648FEF750FD254B264E86
:105C9000D3E90047A74214D0D4F8188006F032FDAB
:105CA0000546404607F068FB02460B46284631464B
:105CB000FEF7A4FB2C34EDE71C4902A807F071FFA6
:105CC000B7E7FA2006F00AF9194B1B780BB1FFF77A
:105CD0006DFBFFF765F90AB0BDE8F041FEF790BD36
:105CE000144C02F079FE2368C01AB0F5FA6FEBD3BA
:105CF00002F072FE20604FF0FF30FFF723FAE3E777
:105D0000DCDE032094DC0320AD020C0036E6032029
:105D10004DDD0320C2020C00F4DD0320D4020C0090
:105D2000EF020C00B4DC0320F7020C00B8020C00F8
:105D30004BDE032088DD0320042904D800EB41005A
:105D4000B0F8010070470A299BBF01F1FF3100EB59
:105D500041000131C08884BF00EB4100808870475A
:105D600010B50446243000F0EDFE28B104F50C70A7
:105D7000BDE8104000F0E6BE10BD411E00F10A0370
:105D80000020420842EAC01011F8012F52FA80F0B8
:105D90008B42C0B2F5D1704738B5CB6804460D468A
:105DA00023B9BDE83840896800F0C7BB2422002130
:105DB00007F0A7FE102301202370A070AB68A3603A
:105DC000EB68236238BD00002DE9F047064610F865
:105DD000013B202BFAD06A4D8E600024335DC3B1A5
:105DE0002F2B16D05C2B02D10020BDE8F087A3F149
:105DF0002200C0B21D2803D825FA00F0C007F3D452
:105E000003F0BF003C28EFD0203B5E2BECD80134E0
:105E1000E4E733191846074610F8015B202DFAD045
:105E20002F2DF8D017604CB113F8012D2E2A01D078
:105E3000202A01D1013CF6E7FF2CD5DC4FF02033BE
:105E4000C1F811304C60C1F80D304B614FF00008C3
:105E500016F808302E2B01D0202B02D108F10108B2
:105E6000F6E7B8FA88F04009651E6B1C02D0735D36
:105E70002E2B14D14FF0000907274A46CA464FF08F
:105E8000080EA04568DA16F80830202B03D02E2B18
:105E900007D1A84512D0002008F10108F1E7013D23
:105EA000E3E7222B08D07C2B06D0A3F12A0CBCF10F
:105EB000050F0AD82D2B12D0A8455BD10A2F4AD046
:105EC0000A2708224FF0100EE6E7A3F13A0CBCF1C6
:105ED000050FF1D9A3F15B0CBCF1020FECD9A3F1D2
:105EE000210CBCF15D0FE7D8A845E7D0BA4230D805
:105EF000A3F1610CBCF1190F1AD8203B4EEA090935
:105F0000DBB25FFA89F902F1010C5FFA8CFC0A44FA
:105F1000BCF1060F537301D881F80CC06246BBE791
:105F2000A84518DCA8460A2708224FF0100EB2E751
:105F3000A3F1410CBCF1190F98BF4EEA0A0AE2E73F
:105F40000B7B0120087019447E234B7331238B7324
:105F50004BE70A2FE4D100204B7B202B3FF444AFCA
:105F60000028EDD01AEA090F18BF4FF0020981F896
:105F700000903AE7BA42ECD800205F23C3E700BFA5
:105F8000010100312DE9F0418AB00023019303782B
:105F9000190704460AD583789A0707D5016A39B9E3
:105FA0000121204600F0BAFA054638B9002048E041
:105FB000806800F0B8FE0028F2D1F7E7FFF7DDFEB9
:105FC000E5272F70002306462370A068FFF7C8FE60
:105FD0000028EBD0E378002B33D0214601A8FFF74F
:105FE000DBFE0028E2D00125E3785FFA85F843451F
:105FF000DCD3A188491B490101A800F084FB0028DB
:10600000D4D0002101A800F05FFB0028CED0C37AD5
:106010000F2BCBD1027802F01F034345C6D1437B3F
:10602000B342C3D10770A16891F8243043F0010353
:1060300081F82430530605F10105D5D5A068FFF796
:106040008FFE0AB0BDE8F0812DE9F84391F80C907D
:1060500006460C4602257E2701F10D086168A268FC
:106060006B189BB21144914206D012F8010B03EB5E
:10607000431343409BB2F6E7B9F1030F28BF4FF03B
:10608000030909F10402D2B203F00F01A018013A8A
:106090000929D2B294BF30313731914541734FEA6B
:1060A0001313F1D104EB090300215F73304600F0B4
:1060B0002AFB0121304600F007FB014628B9707821
:1060C000B0FA80F04009BDE8F88303786BB1C37A79
:1060D0001B07EED40B22404607F0DBFC0028E8D17A
:1060E0000135ADB2642DB9D1EDE70120EBE7000039
:1060F0002DE9F04F2DED028B8BB00D4606930B78FA
:10610000079013F0700F174605D100200BB0BDECBF
:10611000028BBDE8F08F079B1B78002BF5D15368ED
:10612000059313789C071FBF059B0C330D22B3FB0F
:10613000F2F31ABF0133DBB2012300212846039397
:1061400000F0E1FA07F10D034FF0000B08EE103AF2
:10615000DA465C465E46CDF810B0D9466B6901213F
:106160002846C3F34F1800F0AFFA0346002871D158
:106170006B78002BC9D1069B9A05C6D503F00303A3
:10618000013B012BC1D8049B002C08BF434604935C
:10619000039B9C42C0F0F180B9F1000F40F00A81EE
:1061A000049B2846590100F0AEFA0028ADD0039BAD
:1061B00003F1FF395FFA89F94E464FF0000A4FF0BC
:1061C0000F08002E00F00D810021284600F07CFA17
:1061D0000446002899D0AA6892F824304E4543F02E
:1061E00001030CBF46F0400BB34682F8243080F820
:1061F00000B080F80B8080F80CA007F10D00FFF7CD
:10620000BCFD84F81AA0607384F81BA00BF01F0378
:106210000D22013BD7F808C053430022059999424B
:1062200040F2D0801CF80310042A5FFA82FE02F1CB
:10623000010000F2CD8004EB4202A2F801100D280B
:1062400003F101030246E9D1013EF6B2B9E74FF08E
:10625000010983E70278E52A00D07AB90499002C75
:1062600008BF4146049103998C423CBF0134E4B21B
:10627000002A80D0E52A05D100266FE703998C42D9
:1062800038BF00242E2AF7D0D97A0F294AD116BB5D
:1062900012F040063FF462AF02F01F0693F80DB013
:1062A000B2460D220AF1FF3802FB08F8059A424572
:1062B000E2D9A2EB08020892002202EB0801099140
:1062C0001846D1B2FFF738FD08998A420DD100284F
:1062D00018BF002642E70AF1FF3A5FFA8AFA5245F0
:1062E000CAD15A7B5A45DCD0C6E7FF28C4D85FFA2A
:1062F00080FEAEF141011929B9689CBF0EF1200062
:106300005FFA80FE08460999415CA1F1410CBCF19D
:10631000190F9CBF2031C9B27145ADD101320D2A90
:10632000CBD11BE70807A7D45EB1BAF1010F7FF408
:10633000ECAE1846FFF721FD58457FF4E6AEB146B6
:106340000EE018EE101A0B22184607F0A2FB0028E8
:106350007FF404AF97F8009019F001097FF477AF4C
:10636000069B19053FF5D1AE069B0798CDF8009026
:106370004246294600F00AFAC8E60021284600F005
:10638000A3F9A0B96B78002B7FF4BFAE284600F0CC
:1063900087F800283FF4B9AEAB681B79012B3FF6B4
:1063A000FBAE039B1034E4B2A342EFD8F4E6013411
:1063B000E4B2EDE639462846FFF746FE00287FF4B2
:1063C000EFAEA2E614BF4FF0FF31002189B22BE7F8
:1063D000BEF10A0F94BF04EB420204EB400291802D
:1063E0002DE731462846D5F8148000F06DF90446B3
:1063F00000283FF48AAE2022314607F082FBD7F80E
:106400000D302360D7F811306360B7F81530238161
:10641000FB7DA3723B7803F0180323730F4B1B68BB
:106420009BB104F10E0104F110009847238A6382A6
:106430002383E389E382AA6892F8243043F00103BE
:10644000C8F34F1882F824308EE7212323742823C1
:1064500063740823A673E373E8E700BF38E60320FC
:1064600038B504460D462422002107F04AFBA560FA
:10647000EB79102B03D0202B06D0002038BD202331
:1064800001202370A070F9E74023F9E783780169C0
:1064900043F00403837000F11002806800F008BC30
:1064A0002DE9F041017811F02005044603D00026C3
:1064B0003046BDE8F0814269174B9A42F7D2FFF7A8
:1064C000E5FF06460028F2D02169A06800F085FBB0
:1064D0000746A06805223946243000F05BFB804661
:1064E0000028E4D029464FF4007207F00AFB01258A
:1064F000A3681A79AA4209D918684246E91900F036
:10650000B6FE0028D3D00135EDB2F1E7636903EBA5
:1065100042236361CCE700BF00FE1F0010B50446B4
:1065200080680A462430A16900F034FB20B1A388BA
:1065300003F00F0300EB431010BD03780BB9FFF716
:106540008FBF002070472DE9F74F03780446884637
:106550001546002B5DD08278D1075AD51A072DD564
:10656000C36942699B1A9D4228BF1D462E464FF0C3
:10657000000904F1100B002E00F08F80227863696F
:10658000A0689706C3F3080A4FEA53211FD5006A93
:106590000144A068BAF1000F42D1B6F5007F3FD3A5
:1065A000C36A99423CD0B6F5806F52D20068424629
:1065B00000F0D4FD68B34FF4007744E09B06D5D5D6
:1065C00083681A894369C3EB42139BB2CBE790F807
:1065D000059009EA0109BAF1000F08D1B9F1000FDD
:1065E00005D15BB951064CBF036A236A2361216957
:1065F000A06800F0F2FA09EB0001CAE721695A46E7
:1066000000F0F1FA002804DBF1D1237813F0700FC9
:1066100043D1637843F0020363704FF0FF303DE0F5
:10662000CAF50077B7424FF0000200F1240028BFFE
:10663000374600F0AFFA0028EBD000EB0A013A46EB
:10664000404607F036FA63693B44B8446361F61B81
:1066500091E7227892064FEA562A06D40279A2EBF5
:106660000902D2B2924528BF924699424FEA4A2780
:1066700008D2A06853460068424600F0B7FD0028E3
:10668000E1D1C6E753448B42F3D92430019100F0A5
:1066900059FA01990028ECD1BBE7A81B03B0BDE86B
:1066A000F08F73B501220DF10701D0E904560446BD
:1066B000FFF749FF01280ABF9DF807004FF0FF30A0
:1066C000C4E9045602B070BD37B5436913F4F07FD6
:1066D0000446C3F3431500D099B901220DF1070117
:1066E0002046FFF730FF40B2012802D0002003B05F
:1066F00030BD63691F33A0686361303000EB451023
:10670000F5E72033F7E72DE9F04102780769044601
:106710000D4662B14069884202D019B921616561B4
:10672000012006E0160706D5E3698B420BD22761EC
:106730000020BDE8F081910605D5A3681B89B5EB63
:10674000431FECD9F3E7D4F808C09CF80660431E59
:1067500006F109016E1ECB40CE40B34200D898B975
:1067600053064CBFDCF82030236A236104F1100883
:10677000002ED4D02169A068424600F034FA0028E7
:1067800006F1FF36F4DCD2E7F61AEFE7F8B50F466C
:1067900004461546002124221E4607F0B2F9B868C7
:1067A000A060A58005F00F053B6AE3606A0100EB7D
:1067B000451595F83B301F0744D403F017032370A9
:1067C00095F83B1011F0180F04BF43F00803237035
:1067D0009DF81830E37006F00303012B2CD0022B38
:1067E00028D07BBB71052DD40123A370A1788B0722
:1067F00004D52378DF0625D4DD0723D4B31123F095
:106800007F0306F008052B430B43A370C36AA36103
:106810008318B3F84420B3F84A1041EA02417205E4
:1068200013D559B9A37843F00403A370730410D4AB
:106830000120F8BD0323D8E70223D6E700F073FA5E
:106840000028EFD100202070F3E72162DB6CE361C8
:10685000ECE7E1692046FFF756FF0028E8D1F1E7B1
:1068600038B5037804460BB9012038BD83785A0740
:1068700023D50121FFF752FE054628B9637843F07E
:10688000010363700020F0E70378E52BF6D023784E
:106890001B0744BFE369C361236A4383638C83821C
:1068A000094B1B682BB100F11601183098472B8B50
:1068B0006B82A37823F00403A370A068FFF750FA5B
:1068C0000028DBD0D0E700BF38E6032010B504462F
:1068D000FFF7C6FF0023237010BDF0B593B01F462D
:1068E000002309930378019206460C4613B1002059
:1068F00013B0F0BD0B7813F0700FF8D013782F2B76
:1069000012D1019A13782F2B02D101320192F8E7AC
:10691000A1681BB93046FFF710FEE9E709A8FFF7A9
:106920009FFD0028E3D009AC019801AA03A9FFF755
:106930004BFA0028DBD0019B1B789BB1002303AAF4
:1069400021463046FFF7D4FB0028D0D035460FCD86
:1069500009AC0FC40FCD0FC42B6823603046FFF77E
:10696000B5FFE0E73B4603AA21463046FFF7C0FBF0
:10697000BEE700B58BB000230A4601930146012310
:1069800001A8FFF7AAFF10B101A8FFF7FBFA0BB0AF
:106990005DF804FB2DE9F0470378894619070446A2
:1069A00017465BD583789A0758D51B0751D463697E
:1069B000DB43BB4252D3B84604F1100A6669B8F112
:1069C000000F00F09180A0684379C6F3080513EA30
:1069D00056260ED16DB92169002946D0524600F0E5
:1069E00002F900283ADB04D12046FFF74FFD0028CA
:1069F00034D02169A06800F0F0F83118A06815B90A
:106A0000B8F5007F3FD2C5F50076464528BF46461B
:106A1000002D36D16269E3699A4234BF0122052212
:106A2000243000F0B7F8C8B128443246494635440E
:106A300007F03FF8B5F5007F04D1A068243000F0DE
:106A400081F858B1636933446361B144A8EB060827
:106A5000B4E7C169FFF757FE0028A8D1637843F077
:106A6000010363704FF0FF3050E0236A3BB92046CA
:106A7000FFF70CFD0028F1D023692362B9E72361F9
:106A8000B7E70122CCE7B8F5806FC26A1BD390F854
:106A900004C0ACEB0606F3B24FEA582E734528BF8C
:106AA000734691424FEA432607D31A448A4282BF73
:106AB0004FF0FF3280F82450C262A5684A46286829
:106AC00000F04BFCBDE7914202BF4FF0FF3380F86E
:106AD0002450C362A3684A46186800F0C8FB002827
:106AE000BCD04FF40076ADE7E269A378B24204D29D
:106AF000E66143F00403A37003E0084A1268002A29
:106B0000F7D194F90230002B02DB3846BDE8F0875C
:106B10002046FFF7A5FE0028F7D19FE738E60320BF
:106B200013B50446084659B1019107F060F823688F
:106B30000199DB680246204602B0BDE810401847C4
:106B400002B010BD37B50378DA07044620D5436894
:106B5000816800F10C021868019200F088FB019A2C
:106B6000054618B90025284603B030BD23789B0799
:106B700004D4237823F001032370F4E7D4E901302F
:106B800019690144186800F072FB0028F1D1E9E7A7
:106B90000125E8E770B583688B4204460E4615462A
:106BA00009D0FFF7CFFF08B9002070BD6B070AD5E9
:106BB00000232370A660227805F0030520461543C4
:106BC00000F80C5BF1E7636804F10C0218683146C9
:106BD00000F0C4FA0028EBD1E6E783794069023976
:106BE000994008447047012970B505460C46164681
:106BF00002D84FF0FF3070BDC3698B42F9D3C3791F
:106C0000202B16D18169022201EBD41100F50C7002
:106C1000FFF7C0FF0028ECD004F07F0450F82430C8
:106C200023F07043EA699A4226BF336001200020B6
:106C3000E1E7102BDDD1C1F307238169022219445A
:106C400000F50C70FFF7A6FF0028D2D0E4B230F8B0
:106C50001430E7E7012938B50C46154601D8002065
:106C600038BDC3698B42FAD3C379202B0FD1816918
:106C7000032201EBD41100F50C70FFF78BFF002805
:106C8000EDD004F07F0440F824500120E8E7102BF9
:106C9000E5D1C1F3072381690322194400F50C7083
:106CA000FFF778FF0028DAD0E4B220F81450ECE7C0
:106CB0002DE9F341C4688C4205460E46904601D347
:106CC000012701E00C460027EB690134A34202D200
:106CD000C7B9EC68F4E7A64214D001AA21462846B9
:106CE000FFF781FF00280DDBEED0019B002BEBD1DD
:106CF00007B1EC606FF0704221462846FFF7AAFF0B
:106D0000074620B90027384602B0BDE8F08116B921
:106D1000C8F80040F7E7224631462846FFF79AFFB9
:106D20000028F5D1EEE773B505460C4601AA2146C9
:106D30002846FFF758FF061E10DB00222146284692
:106D4000FFF788FF50B1EB68A34224BF04F1FF3482
:106D5000EC60019C002EE9D102B070BD0020FBE781
:106D6000012370B50022C3604FF0FF330446C271A7
:106D700000F12406806280F82420C362C0F8340247
:106D800080F83022C0F838320D46B9B1042901D953
:106D9000002070BD11463046FFF7FCFE0028F7D0FA
:106DA00000EB051393F8AE315B06F1D105F11B0141
:106DB00000EB0110D0F80650002DE9D00022294642
:106DC0003046FFF7E7FE0028E2D0B0F80B30B3F50D
:106DD000007FDDD1037C022BDAD1C389002BD7D011
:106DE000417B21714B1E63710023A371092601238E
:106DF000994207D0013ECBD0A2795B000132DBB2D1
:106E0000A271F5E7C18A01B9416A2161C3892B44A6
:106E1000A361B0F81120228103EB41032362B0F893
:106E20001110490101F2FF1103EB51236361B0F826
:106E3000132002B9026AE91AA3791144D9404B1C04
:106E4000E36140F6F473994202D80C23E3719FE7A3
:106E50004FF6F473994285BFC36A2362102320233F
:106E6000E371012095E700F0CBBA00F0AEBA000064
:106E700070B50E4E0D46144601F0A6FD3368C01ADB
:106E80000B4B984208D901F0A7FD0A4B186002F09D
:106E9000B3F801F099FD306001F09EFD80B2401B17
:106EA000A042D4BF0020012070BD00BF40E60320F7
:106EB000A086010040E7032038B5057A04464DB9A5
:106EC000406800F06BFA63682946187D05F07DFE86
:106ED0000123237238BD10B5037A04466BB14368B1
:106EE0000121187D05F071FE6068FF21FFF7BBFFEF
:106EF000606800F067FA0023237210BDF8B50446FD
:106F00000D46164601F068FD87B26068FFF7ADFFD9
:106F1000FF2860720ED14FF47A7239462046FFF78F
:106F2000A7FF0028F1D0552320462370FFF7D3FF99
:106F30000020F8BDFE2801D05023F5E760683246F6
:106F4000294600F047FA607208B16023ECE76068F8
:106F5000FFF78BFF6068FFF788FF0120E9E770B556
:106F600004460E4601F038FD85B2324629462046D9
:106F7000FFF77EFF30B96068FFF777FFFF28F4D195
:106F8000012070BD0020FCE7F7B5037A01920446AA
:106F90000D460BB9FFF790FF25B14FF496712046CF
:106FA000FFF7DDFF606845F04001FFF75CFF032657
:106FB00001AFB95D6068FFF756FF013EF9D2002DC1
:106FC00060680CBF95218721FFF74DFF6068FFF7D0
:106FD0004CFF0B256068FFF748FF0306607203D57E
:106FE000013D15F0FF05F5D103B0F0BD70B50446C5
:106FF0000D46164637210022FFF7C6FF32462946C6
:107000002046BDE87040FFF7BFBF00002DE9F0410A
:1070100000250572057085724160044690461E4643
:1070200001F0DAFC41460746606800F0BBF963688E
:10703000494A1D720125DA601D822046FFF73CFF98
:1070400063682946187D05F0C0FD0A256068FF21A8
:10705000013DFFF708FF15F0FF05F7D163682946EA
:10706000187D05F0B2FD0A25002211462046FFF7E3
:107070008BFF0128804618D0013D15F0FF0507D190
:10708000202320462370FFF726FF0020BDE8F08173
:107090006068FD21FFF7E7FE4FF402786068FFF7B4
:1070A000E4FEB8F10108F9D1DEE74FF4D57208210A
:1070B0002046FFF769FF052814D184F80A800025CF
:1070C000BFB22A4629212046FFF790FF0246D8B1D9
:1070D0004FF4FA6239462046FFF7CAFE0028F0D086
:1070E0004323CEE704256068FFF7BFFE013D15F09E
:1070F000FF056072F7D1AA2804D10223A3724FF0D2
:107100008045DDE72523BCE7A37A022B18D13A217D
:107110002046FFF739FF08B13723B2E76068FFF771
:10712000A4FE00F0C000C02804BF0323A37260685F
:10713000FFF79BFE6068FFF798FE6068FFF795FE1B
:107140002046FFF7C8FE63683079B168B2891A82B9
:107150001872D960012099E790D0030038B5837A7E
:10716000032B18BF490215460A4611210446FFF7B2
:107170000BFF30B1302323702046FFF7ACFE002513
:107180000BE029464FF400722046FFF7B7FE054694
:107190000028F1D02046FFF79EFE284638BD10B5E6
:1071A000837A032B0A4618BF4A0212210446FFF7CE
:1071B000EBFE30B1312320462370FFF78CFE002018
:1071C00010BD0120FCE710B500220C210446FFF79A
:1071D000DBFE30B1282320462370FFF77CFE002021
:1071E00010BD2046FFF777FE0120F9E7F8B5044609
:1071F00016461F46FFF7D3FF68B10025ABB29F428A
:1072000006EB452109D94FF400722046FFF776FEC0
:1072100001350028F2D10020F8BD2046BDE8F84035
:10722000FFF7D1BF38B5044615464068FFF71BFE8F
:107230004FF400726068294600F0E6F86068FF21AC
:10724000FFF711FE6068FF21FFF70DFE6068FFF792
:107250000CFE607200F01F00052806D05723204660
:107260002370FFF738FE002038BD0120FCE770B521
:10727000837A032B18BF490215460A461821044693
:10728000FFF782FE064630B1322323702046FFF717
:1072900022FE00251FE02A46FE212046FFF7C2FFFE
:1072A0000028F3D04FF4FA612046FFF758FE054658
:1072B00008B95A23E9E732460D212046FFF764FE5C
:1072C00008B12923E1E76068FFF7CFFD0028F8D176
:1072D0002046FFF700FE284670BD13B501914FF41C
:1072E000FA610446FFF73BFE019A30B95B23237035
:1072F0002046FFF7F0FD002005E0FC212046FFF7C7
:1073000091FF0028F4D002B010BD10B5837A032B92
:107310000A4618BF4A0219210446FFF735FE30B16C
:10732000332320462370FFF7D6FD002010BD012037
:10733000FCE738B54FF4FA610446FFF710FE054646
:1073400030B9562323702046FFF7C5FD284638BDC7
:107350006068FD21FFF787FDF5E7F8B5044616469E
:107360001F46FFF7D2FF70B10025BD4206EB452155
:10737000204604D0FFF7B1FF28B10135F5E7BDE89D
:10738000F840FFF7D6BF2046FFF7A5FD0020F8BD67
:10739000014B01221A70704744E60320011D00686A
:1073A00001F03EBF10B504460175006801F00AFF08
:1073B000207D012105F0F8FB207D0121BDE8104072
:1073C00005F003BC006801F011BF0068FF2101F067
:1073D00095BF000037B51346074A00920025074CB9
:1073E000006825700A46294601F08EFF2378002B9D
:1073F000FCD0002003B030BD91730B0044E60320A5
:10740000006801F07BBF000037B51346064A0092C2
:107410000025064C006825702A4601F075FF237888
:10742000002BFCD003B030BD91730B0044E6032069
:107430002DE9F04F85B01F46BDF93880BDF83C30CE
:10744000A8EB0209A7EB010AB9F1000FB8BFC9F117
:107450000009BAF1000FB8BFCAF1000AD14583464E
:107460000C46154604DD3A462C4647460D469046E6
:10747000BC4205DD2A464546904622463C46174614
:107480003E1BB2B20092A8EB050282EAE271A1EBC8
:10749000E271C6F3C03202FA86F64545B4BF012256
:1074A0004FF0FF32019176100292BC421CDCDBF8F7
:1074B00000200393D145D2F81880C7BF2946224641
:1074C0002A4621465846C047019A039BB61AB1B2D4
:1074D00036B2002E05DA029A1544009A56182DB2DB
:1074E00036B2013424B2E0E705B0BDE8F08F704752
:1074F00010B404682469A4465DF8044B604730B4B6
:107500000468BDF808500295A46BA44630BC6047DF
:1075100030B40468BDF808500295E46BA44630BC52
:10752000604770B4BDF90C50BDF810600468CDE937
:107530000356246CA44670BC60472DE9F3411C46F9
:107540000368BDF820805B6905461646013C34445B
:107550000F4624B298472B68CDF8048000949C6AAB
:1075600028463B4632463946A0472B68DB6A284608
:1075700002B0BDE8F04118472DE9F3411D4603680C
:10758000BDF820805B69044617460E469847CDE952
:10759000007822686B1E3344956A20461BB23A4637
:1075A0003146A8472368DB6A204602B0BDE8F041B7
:1075B00018472DE9F3471E460368BDF928905B691B
:1075C000BDF82C800C460546174698472644B44221
:1075D0002B680BDACDF80080D3F820A021464B466B
:1075E0003A4628460134D04724B2F0E7DB6A284601
:1075F00002B0BDE8F047184713B502680191B0F931
:107600000E100091146CB0F90C3000221146A04706
:1076100002B010BD2DE9F74399421646BDF9287016
:10762000BDF82C90026880460D461C4613D1BE4220
:10763000C8BF3346CDF82890C4BF3E461F467B1CCA
:10764000946B9B1B1BB2324629464046A44603B0AE
:10765000BDE8F0436047BE420AD19942C2BF0B4623
:1076600025461C46631CCDF82890D46B5B1BE9E7CC
:1076700053699847CDE90079D8F8003040469F6AB1
:10768000324623462946B847D8F80030DB6A4046E0
:1076900003B0BDE8F04318472DE9F3471D460368E2
:1076A000BDF82C805B69BDF9289004460F4616464C
:1076B00098472368CDF80080D3F824A032462B46A3
:1076C00039462046D0472368CDF8008009F1FF32C3
:1076D0003244D3F824A039462B46204612B2D04774
:1076E0002368CDF80080D3F820A032464B463946B7
:1076F0002046D0476B1ED9192368CDF800801D6A3B
:1077000020464B46324609B2A8472368DB6A20462A
:1077100002B0BDE8F0471847704701F00303B0F925
:107720000A208376C907B0F9083059BF8381C28126
:107730008281C3817047000030B54281C281074A0F
:10774000074D0181002481814FF0FF31C0E905120E
:107750004460056004610477046230BD01010001EA
:107760005C080C002DE9F04F9DB21646C5F10102F0
:1077700087B01F4613B2C5EBC5325200019313B256
:107780000268049304465269BDF840B089469047A8
:107790002168B3B215FA86F2D1F8188000934946F1
:1077A0005B4612B22046C047009B21685A1BD1F8A5
:1077B00018805B46494612B22046C047226815FA37
:1077C00089F11FFA89F85B46D2F8189009B232465F
:1077D0002046C8472268A8EB05015B46956909B2B7
:1077E00032462046A84700230393039BBB4276DA28
:1077F000019B002B0ADB049A023213B20493019B13
:1078000013FA82F2013F13B23FB20193039A216847
:10781000013213B20393019B8D6996B203EB4602CA
:10782000013213B20193009B08EB060A13FA87F2A8
:107830000FFA8AFA12B25B46029251462046A847D6
:10784000A8EB06092168029A8D690FFA89F95B464F
:1078500049462046A847BBB202932168009B029A82
:107860009A1A8B6912B21D4605925B465146204614
:10787000A8472168059AD1F818A05B4649462046DA
:10788000D047029B216808EB0309009BD1F818A0A0
:107890009A190FFA89F912B25B46059249462046B9
:1078A000D047029B2168059AD1F818A0A8EB0305E0
:1078B0002DB25B4629462046D047009B21689A1B83
:1078C00012B28E6902925B4649462046B047216853
:1078D000029A8E695B4629462046B04785E72368B1
:1078E000DB6A204607B0BDE8F04F18472DE9F04F9E
:1078F0008BB01C46BDF858300493A3B2C3F1010508
:10790000C3EBC3335B001BB20793BDF954300133A3
:107910009BB2059393B206938846059B9DF8501041
:1079200003930023029301F001030893DDF818A0EC
:1079300001F0020383462DB20993029BA3426FDA42
:10794000002D6BDB079B0233661E1AB215FA83F516
:1079500036B207922DB2029F01371FFA87F93BB268
:1079600005EB490501359E4202932DB229DB089BA8
:1079700093B104980090DBF800000699059B006A1B
:10798000B2B203EB42038A1A09EB080107461BB2A5
:1079900012B209B25846B847099B93B106990498A8
:1079A000059B0090B2B2DBF8000003EB42038A1A99
:1079B000A8EB09011BB2D0F8209012B209B25846C8
:1079C000C847B44220D0089B73B1DBF80030049A5A
:1079D000009208EB0401D3F82090BDF90C300FFAA7
:1079E0008AF209B25846C847099B6BB1DBF80030F0
:1079F000049A0092A8EB04010FFA8AF21C6ABDF9FE
:107A00000C3009B25846A0470AF1FF331FFA83FA37
:107A1000039B02339BB2039334468EE726469AE7D4
:107A20000BB0BDE8F08F2DE9F0411E4686B003682B
:107A3000059104465B69BDF8307015469847B2B2AF
:107A40002068009753000133AA1AD0F820800599C6
:107A500020461BB212B2C04703230022CDE90032F8
:107A600020463346059902972A46FFF73FFF2368D1
:107A7000DB6A204606B0BDE8F04118472DE9F04F1B
:107A800089B0CDE902120268BDF948800493BDF9BE
:107A90004C3052690593BDF850A00446904718F148
:107AA00007024FF0000648BF08F10E024FEAE20B52
:107AB00001963546039B019ABDF904109A18059B5F
:107AC0008B4212B227DD049B33444FF0000906932A
:107AD0000FFA89F080451FFA89F117DD4F0705BFBE
:107AE000069BC0106D001D5C18BFEDB22B060AD5B9
:107AF000029B206807921944836909B21F462046F9
:107B00005346B847079A09F10109E1E7019B0133A0
:107B100001935E44CEE72368DB6A204609B0BDE8E6
:107B2000F04F18472DE9F04F2DED028B91B016461E
:107B3000026ABDF874809DF878509DF87C400391EE
:107B40001F46BDF8703004938346002A40F0C5807C
:107B5000B0F90C308B4240F34C81B0F90E30B34297
:107B600040F34781062313FB0513002B40F34181AB
:107B700006EBC403002B40F33C81037F1BB9AF2FFE
:107B800084BF0137FFB2DBF8003058465B69984785
:107B90000522099200220592984A07EB8703D31821
:107BA0000C93B3B20693059A0C9B9B5C0793ABB204
:107BB0000B93BDF80C300893039B02FB05F919FAEF
:107BC00083F90FFA89F308EE103A08230A93039B0E
:107BD00002EB030A4FF000090FFA8AFA079ADBF862
:107BE0000030D20752D5012D1FFA89F23ED1012C67
:107BF0003CD19B6906991F46049B0A4412B2514628
:107C00005846B84709F101034FFA83F9079B5B080F
:107C100007930A9B013B13F0FF030A93DED1059FF4
:107C200001377BB20593099B013B13F0FF030993D6
:107C3000B9D1049B43450FD0012DDBF800303BD177
:107C4000012C39D10899CDF8008005311C6A3246E3
:107C5000082309B25846A047DBF80030DB6A5846D3
:107C600011B0BDEC028BBDE8F04F1847069914FB2C
:107C700002F20A44049901910094DB6918EE101A8B
:107C80001F4612B22B465846B847BBE7049A4245F6
:107C9000B8D0012D1FFA89F207D1012C05D19B69BB
:107CA00006991F460A444346A8E70699CDF8048082
:107CB00014FB02F20A44DFE70B9ACDF8048002EBD2
:107CC0008201089AE4000A4411460094DC693246B5
:107CD0002B4609B25846A047BEE7137A516812688E
:107CE0000B92FF1AFFB201EBC70331F8372006925F
:107CF0009A780992DA780C92012D93F9052093F97C
:107D000006A00A9201D8012C57D9BDF92830089352
:107D10000FFA8AF30793DBF8003058465B699847FF
:107D2000B3B24FF000080E931AFA86F3C1464746E5
:107D30000F930C9B9F428FD2079B0E9A3B4403FBF1
:107D40000423002205920F9A1BB202EB070A08EEE9
:107D5000103A0FFA8AFA4346099A0599914241D29C
:107D60005A1CD2B25B070D9207D1069B06990B9A5B
:107D700001339BB212F80190069319F0800F12D0D4
:107D8000012DDBF80030BDF80C101AD1012C18D1F0
:107D90000A9A9B691144059A11441E465246049B57
:107DA00009B25846B047059E0136F3B24FEA490979
:107DB00005935FFA89F90D9BCEE70023CDE90733E0
:107DC000A9E70598089A024402FB0511049ACDE937
:107DD0000042DB6918EE102A1E4609B22B465846AF
:107DE000B047E0E7099B013798445FFA88F8FFB293
:107DF0009FE711B0BDEC028BBDE8F08F54030C007F
:107E0000F0B5026A85B004460B46002A34D10A292F
:107E100008D1438A0282427E03EBC20363820120BF
:107E200005B0F0BD0D29FAD0E17E007E657E71B10E
:107E3000B4F91060062111FB0061B4F90C60B14285
:107E4000C1BFB4F91210228201EBC5026282E28A3C
:107E50000192A28A0092CDE90205B4F91220B4F988
:107E600010102046FFF75EFE237E228A03EB4303B9
:107E700002EB43032382D2E70A2907D100230382BE
:107E8000417E927A438A01FB0233C7E70D29C6D0AF
:107E9000157AA942C3D3517A9942C0D351685D1B68
:107EA000EDB201EBC505A87828B3E97819B3E17EF6
:107EB000267E677E91B195F905100844B4F910103B
:107EC00006FB0011B4F90C00814207DD002020827E
:107ED000B4F91210927A02FB07126282E28A0192CE
:107EE000A28A0092CDE90267B4F91220B4F9101009
:107EF0002046FFF717FE2979227E238A01FB0233F1
:107F0000B8E7012938BF01210176417670470000AA
:107F100010B5064B03600446006D08B100F060FE2A
:107F2000204600F087F8204610BD00BFB4080C00C2
:107F300010B50446FFF7ECFF20467021FCF7AFF8C0
:107F4000204610BD30B585B004460D4604F0C0FE95
:107F5000104A1149CDE901214FF0FF32802103463B
:107F600000922046202200F0DDF80C4B2360002315
:107F7000C4E9143504F1580000F03BF804F1600046
:107F800000F037F804F1680000F033F8204605B03F
:107F900030BD00BF801A0600A0860100B4080C00A6
:107FA00013B50446503000F013FE636DD90705D5B4
:107FB0000222042104F1580000F02FF8636D9A07A3
:107FC00005D50022032104F1600000F026F8636D5E
:107FD0005B0705D50222114604F1680000F01DF888
:107FE000012300933C220221204600F0A3F902B0B5
:107FF00010BD00210A22C0E900127047002310B50D
:108000000446C171837188B204F0F8FD08B10323FE
:10801000A37100F0E1FC206010BD38B50C460546A8
:108020001146A0B204F0C0FD21462846BDE8384004
:10803000FFF7E4BF10B5044B03600446C06A08B103
:1080400001F012F8204610BDAC0D0C0010B504462E
:10805000FFF7F0FF20465021FCF721F8204610BD25
:10806000002910B54BDBB0F90C408C4247DD002AEB
:1080700045DBB0F90E40944241DD847E022C1FD0D6
:10808000032C26D0012C04D10489D24314440A467F
:1080900021B2012B23D0022B32D083BB002A1346FE
:1080A0000489C06AB8BFD31DDB1013FB041102F0B2
:1080B000070201239340425C22EA030242541EE07D
:1080C0000489013C611A4489D243224409B212B2A4
:1080D000DFE74489013C641A114622B2D9E7002A3D
:1080E00004891346B8BFD31DDB1013FB0411C36A08
:1080F00002F0070001228240585C02435A5410BD2E
:10810000002A13460489C06AB8BFD31DDB1013FBD5
:10811000041102F00702012303FA02F2435C5A4001
:10812000CCE7000070B504461D460026FFF704FBAF
:10813000114B2360666215B904F0CAFD0546FF23A2
:1081400084F8333084F836309DF9103084F83730B5
:108150000A4BA363012384F83C30059BA3644FF6CC
:10816000FF72069BA286C4E90A562664A4F84460FE
:10817000E364204670BD00BFAC0D0C000C030C0086
:10818000F8B50446806A0D4690B194F9301004F0B9
:1081900011FCA06A036800219B689847A06A0368E5
:1081A00029469B689847A06ABDE8F84004F009BCDE
:1081B00094F93530014698B204F007FD606A20B1A9
:1081C0002946BDE8F84001F099B80826802794F9BF
:1081D000330005EA070180B204F0F7FC94F934009B
:1081E000012180B204F0F1FC94F93400002180B246
:1081F00004F0EBFC013E4FEA5707E8D1F8BD38B573
:108200000446806A0D4680B1A16C04F0C5FB002DC8
:10821000204614BFA721A621FFF7B2FFA06A88B1AC
:10822000E16CBDE8384004F0B7BB606A18B104F1F6
:10823000380100F0F5FF94F93600002180B204F017
:10824000C4FCE4E794F93600012180B204F0BDFCDF
:10825000606A18B1BDE8384000F0C8BF38BD2DE9EC
:10826000F8430446806A0D468F1840B394F93010E5
:1082700004F0A0FBA06A036800219B6898470126D0
:10828000AF42A06A17D01F2E0CD904F09AFB94F9C4
:108290003010A06A04F08EFBA06A036800219B687E
:1082A00098470126A06A15F8011B036801369B68F0
:1082B0009847F6B2E4E7BDE8F84304F082BB94F9CE
:1082C0003530014698B204F080FCBD4222D0606A8D
:1082D00015F8019B18B1494601F010F8F5E708269A
:1082E0004FF0800894F9330009EA080180B204F0E5
:1082F0006CFC94F93400012180B204F066FC94F91E
:108300003400002180B204F060FC013E4FEA5808BE
:10831000E8D1DAE7BDE8F883B0F90A30DA1D48BFE2
:1083200003F10E02B0F90830C06AD2105A4300219E
:1083300005F0E7BB2DE9FF411E46C36A9DF8288082
:1083400004460F461546C3B12046FFF7E5FFB4F9D2
:108350000A00B4F90810202821DC2023012220384B
:10836000CDE9013200EBD07073237339009301EB38
:10837000D171894B40F34F0221E0B0F90A30D81D8A
:1083800048BF03F10E00B4F90830C010584300F0A4
:1083900063FEE0620028D7D104B0BDE8F081403828
:1083A000C0F3C03202FA80F240230120CDE901304F
:1083B000522352390093794B01EBD1715210204670
:1083C00041F34F01FFF75AFBA06A84F8317000288F
:1083D00078D0002D74D1B4F90A30202B0CBF3C2585
:1083E0003D2584F83050B8F1000F01D004F0D8FAE0
:1083F000FEB194F9370000281BDB012180B204F0A4
:10840000D3FB94F93700012180B204F0DEFB012098
:1084100003F064FD94F93700002180B204F0D5FB2D
:108420000A2003F05BFD94F93700012180B204F0CB
:10843000CCFBA06A002874D0A16C04F0ADFA042231
:1084400057492046FFF70BFF61890139C9B2204621
:10845000FFF796FE534904222046FFF700FF94F9E8
:108460003130012B0CBF102114212046FFF788FE6C
:1084700004224D492046FFF7F2FEA3684B4A93427F
:108480005CD14B4904222046FFF7E9FED921204662
:10849000FFF776FE94F93130012B0CBF2221F12138
:1084A0002046FFF76DFE204642490622FFF7D7FE21
:1084B000A06A002863D0E16C04F06EFA01206BE73B
:1084C0006DB28EE794F93500012180B204F06CFBA7
:1084D00094F93600012180B204F066FB94F936006D
:1084E000012180B204F071FB656A3DB1B8F1000F63
:1084F0003FF47EAF284600F065FE79E794F933003B
:10850000012180B204F050FB94F93400012180B2C3
:1085100004F04AFB94F93400294680B204F055FB7C
:1085200066E7606A18B104F1380100F079FE94F949
:108530003600002180B204F048FB80E71E4A9342D7
:108540000ED11E4903222046FFF789FE94F93130EF
:10855000012B0CBF9F21CF212046FFF711FE95E78D
:10856000174A934292D1174903222046FFF777FE1C
:1085700094F93130012B0CBF1021AF21ECE794F9B5
:108580003600012180B204F020FB606A002895D0FB
:1085900000F02CFE92E700BFC40B0C0004090C0095
:1085A0000C0E0C00100E0C00140E0C0080002000AD
:1085B0001E0E0C00180E0C0080004000220E0C0055
:1085C00060001000250E0C0070B5002ABDF8105098
:1085D0003DDBB0F90A40944239DD0029BEBF5B188B
:1085E0001BB20021B0F90840CE18A642C4BF631ADE
:1085F0001BB2002B2BDDC06AD61014FB0611014400
:1086000002F0070001228240012DD2B216D0022DC5
:108610000BD0E5B9D243D2B20B44994217D011F82E
:10862000010B104001F8010CF7E70B4499420ED002
:1086300011F8010B504001F8010CF7E70B44994287
:1086400005D011F8010B104301F8010CF7E770BDDC
:10865000F0B50029BDF8145076DBB0F90860B142DE
:1086600072DA002ABEBF9B181BB20022B0F90A4082
:10867000D718A742C4BFA31A1BB2002B64DDC2F3F4
:10868000C404C76A16FB041612F00702DBB207EB3C
:10869000060423D0C2F10802D2B22D4993423CBF56
:1086A0004FF0FF0CA2EB030E895C3CBF4CFA0EFCB2
:1086B0000CEA0101012D07D0022D2ED04DB917F87B
:1086C00006C02CEA010103E017F806C041EA0C01DC
:1086D000B955934238D3B0F908100C449A1AD2B263
:1086E000072A0ED9022D1DD113462178C9432170C6
:1086F000083BB0F90810DBB2072B0C44F5D802F0A8
:1087000007020AB3134B012D9B5C1AD0022D1CD01B
:10871000D5B9227822EA030315E017F806C081EAEA
:108720000C01D5E7291E18BF01214942C9B21346E1
:108730002170083BB0F90860DBB2072B3444F7D84E
:10874000DDE7227813432370F0BD22785340FAE727
:10875000FC0D0C00040E0C0070B41446827EBDF8B3
:108760000C60022A0DD0032A18D0012A11D10289E7
:10877000E443144424B203960A46214670BCFFF732
:1087800067BF42890589E44319441444691A24B235
:1087900009B20396224670BCFFF716BF45891944FB
:1087A000691A09B2E7E730B41446827EBDF8085072
:1087B000022A0DD0032A18D0012A11D1E218048907
:1087C000A41A24B202950A46214630BCFFF7FCBE2B
:1087D0000289C9431144E2184489A41A09B224B297
:1087E0000295224630BCFFF733BF4289C94311448A
:1087F00009B2E7E72DE9F8430446806A002842D031
:10880000A16C04F0C9F8474905222046FFF727FD6F
:10881000218901392046C9B2FFF7B2FCB4F90A3008
:10882000DE1D48BF03F10E06D4E90A052389F610C0
:1088300013FB06F615FA86F600283AD094F93010A4
:1088400004F0B8F8A06A036840219B6898470127A4
:10885000B542A06A24D01F2F0CD904F0B2F894F9C5
:108860003010A06A04F0A6F8A06A036840219B6853
:1088700098470127A06A15F8011B036801379B6818
:108880009847FFB2E4E7606A18B104F1380100F0DC
:10889000C7FC94F93600002180B204F096F9B2E7E3
:1088A00004F08FF8A06A78B3E16CBDE8F84304F0F7
:1088B00073B894F93500012180B204F086F9AE4214
:1088C000F0D0606A15F8019B18B1494600F016FD1A
:1088D000F5E708274FF0800894F9330009EA08010A
:1088E00080B204F072F994F93400012180B204F0EE
:1088F0006CF994F93400002180B204F066F9013F6C
:108900004FEA5808E8D1DAE794F93600012180B23D
:1089100004F05BF9606A18B1BDE8F84300F066BC8A
:10892000BDE8F883280E0C0008B5024B1B689B6855
:10893000019308BD6802030008B5024B1B68DB68A1
:10894000019308BD6802030008B5024B1B689B68D1
:10895000019308BD2C02030008B5024B1B68DB68BD
:10896000019308BD2C02030008B5024B1B681B696C
:10897000019308BD2C02030008B5024B1B685B691C
:10898000019308BD2C02030008B5024B1B689B69CC
:10899000019308BD2C02030008B5024B1B68DB697C
:1089A000019308BD2C02030008B5024B1B685B68ED
:1089B000019308BD1802030008B5024B1B68DB6871
:1089C000019308BD1802030008B5024B1B681B6920
:1089D000019308BD1802030008B5024B1B685B69D0
:1089E000019308BD1802030008B5024B1B689B6D7C
:1089F000019308BD1802030008B5024B1B685B6EAB
:108A0000019308BD1802030008B5024B1B689B6860
:108A1000019308BD7802030008B5024B1B681B6C6C
:108A2000019308BD7802030008B5024B1B685B6F19
:108A3000019308BD7802030008B5024B1B689B6FC9
:108A4000019308BD7802030008B5024B1B68DB6F79
:108A5000019308BD7802030008B5034B1B68D3F8E7
:108A60008430019308BD00007802030008B5034B71
:108A70001B68D3F89830019308BD0000780203000A
:108A800008B5034B1B68D3F8B430019308BD000050
:108A90007802030008B5034B1B68D3F8BC30019380
:108AA00008BD00007802030008B5034B1B68D3F82B
:108AB000C430019308BD00007802030008B5034BE1
:108AC0001B68D3F8D830019308BD0000780203007A
:108AD00008B5034B1B68D3F8DC30019308BD0000D8
:108AE0007802030008B5034B1B68D3F8E03001930C
:108AF00008BD00007802030008B5034B1B68D3F8DB
:108B0000E430019308BD00007802030008B5034B70
:108B10001B68D3F8E830019308BD00007802030019
:108B200008B5034B1B68D3F8F030019308BD000073
:108B30007802030008B5034B1B68D3F8F4300193A7
:108B400008BD00007802030008B5034B1B68D3F88A
:108B50000031019308BD00007802030008B5034B03
:108B60001B68D3F80431019308BD000078020300AC
:108B700008B5024B1B68DB68019308BD480203007F
:108B800008B5024B1B68DB69019308BD480203006E
:108B900008B5024B1B681B6A019308BD480203001D
:108BA00008B5024B1B685B6A019308BD48020300CD
:108BB00008B5024B1B689B6A019308BD480203007D
:108BC00008B5024B1B68DB6A019308BD480203002D
:108BD00008B5024B1B681B6B019308BD48020300DC
:108BE00008B5024B1B685B6B019308BD480203008C
:108BF00008B5024B1B685B6C019308BD480203007B
:108C000008B5024B1B68DB6C019308BD48020300EA
:108C100008B5024B1B685B6D019308BD4802030059
:108C200008B5024B1B681B6F019308BD4802030087
:108C300008B5024B1B685B69019308BD6402030021
:108C400008B5024B1B68DB68019308BD3C020300BA
:108C500008B5024B1B681B69019308BD3C02030069
:108C600008B5024B1B685B69019308BD3C02030019
:108C700008B5024B1B689B69019308BD3C020300C9
:108C800008B5024B1B68DB69019308BD3C02030079
:108C900008B5024B1B681B6A019308BD3C02030028
:108CA00008B5024B1B689B6A019308BD3C02030098
:108CB00008B5024B1B68DB6A019308BD3C02030048
:108CC00008B5024B1B681B6C019308BD3C020300F6
:108CD00008B5024B1B681B68019308BD28020300FE
:108CE00008B5024B1B68DB68019308BD280203002E
:108CF00008B5024B1B689B69019308BD280203005D
:108D000008B5024B1B68DB69019308BD280203000C
:108D100008B5024B1B681B6A019308BD28020300BB
:108D200008B5024B1B685B6A019308BD280203006B
:108D300008B5024B1B689B6A019308BD280203001B
:108D400008B5024B1B68DB6A019308BD28020300CB
:108D500008B5024B1B681B6B019308BD280203007A
:108D600008B5024B1B685B6B019308BD280203002A
:108D700008B5024B1B681B6C019308BD2802030059
:108D800008B5024B1B681B68019308BD3002030045
:108D900008B5024B1B685B69019308BD30020300F4
:108DA00008B5024B1B68DB69019308BD3002030064
:108DB00008B5024B1B681B6A019308BD3002030013
:108DC00008B5024B1B685B6A019308BD30020300C3
:108DD00008B5024B1B689B6A019308BD3002030073
:108DE00008B5024B1B689B6B019308BD3002030062
:108DF00008B5024B1B68DB6B019308BD3002030012
:108E000008B5024B1B681B6C019308BD30020300C0
:108E100008B5024B1B685B6C019308BD3002030070
:108E200008B5024B1B681B68019308BD4C02030088
:108E300008B5024B1B685B68019308BD4C02030038
:108E400008B5024B1B681B69019308BD4C02030067
:108E500008B5024B1B685B69019308BD4C02030017
:108E600008B5024B1B689B69019308BD4C020300C7
:108E700008B5024B1B68DB69019308BD4C02030077
:108E800008B5024B1B681B6A019308BD4C02030026
:108E900008B5024B1B685B6B019308BD60020300C1
:108EA00008B5024B1B681B6D019308BD60020300EF
:108EB00008B5024B1B681B68019308BD2002030024
:108EC00008B5024B1B685B68019308BD20020300D4
:108ED00008B5024B1B685B69019308BD20020300C3
:108EE00008B5024B1B68DB6C019308BD2002030030
:108EF00008B5024B1B685B6D019308BD200203009F
:108F000008B5024B1B689B6D019308BD200203004E
:108F100008B5034B1B68D3F88830019308BD0000E7
:108F20002002030008B5034B1B68D3F8943001936B
:108F300008BD00002002030008B5024B1B685B68F7
:108F4000019308BD4002030008B5024B1B689B68F3
:108F5000019308BD4002030008B5024B1B68DB68A3
:108F6000019308BD4002030008B5024B1B681B6952
:108F7000019308BD4002030008B5024B1B685B6902
:108F8000019308BD4002030008B5024B1B689B69B2
:108F9000019308BD4002030008B5024B1B68DB6962
:108FA000019308BD4002030008B5024B1B681B6A11
:108FB000019308BD4002030008B5024B1B681B6B00
:108FC000019308BD4002030008B5024B1B685B6BB0
:108FD000019308BD4002030008B5024B1B681B6CDF
:108FE000019308BD4002030008B5024B1B685B6C8F
:108FF000019308BD4002030008B5024B1B689B6843
:10900000019308BD4402030008B5024B1B685B696D
:10901000019308BD4402030008B5024B1B681B6A9C
:10902000019308BD4402030008B5024B1B685B6A4C
:10903000019308BD4402030008B5024B1B681B6B7B
:10904000019308BD4402030008B5024B1B68DB6BAB
:10905000019308BD4402030008B5024B1B681B685E
:10906000019308BD1C02030008B5024B1B685B6836
:10907000019308BD1C02030008B5024B1B689B68E6
:10908000019308BD1C02030008B5024B1B68DB6896
:10909000019308BD1C02030008B5024B1B685B6905
:1090A000019308BD1C02030008B5024B1B68DB6975
:1090B000019308BD1C02030008B5024B1B685B6AE4
:1090C000019308BD1C02030008B5024B1B68DB6A54
:1090D000019308BD1C02030008B5024B1B681B6B03
:1090E000019308BD1C02030008B5024B1B68DB6B33
:1090F000019308BD1C02030008B5024B1B681B6CE2
:10910000019308BD1C02030008B5024B1B685B6C91
:10911000019308BD1C02030008B5024B1B68DB6C01
:10912000019308BD1C020300002240681146FFF7AE
:109130003BBF002240681146FFF746BF406800224F
:10914000FFF73ABF4068002281F00101FFF724BF1A
:10915000002340681A461946FFF716BF00234068EF
:109160001A461946FFF708BF002240681146FFF76C
:10917000FBBE002240681146FFF7E6BE40680022B1
:109180000221FFF7E9BE002340681A46FFF7D4BE6C
:10919000024B03225A60024A1A60704754E60320C9
:1091A000380E0C000021FFF733BE0021FFF728BE68
:1091B00010B5044608462170FFF7F2FD00236360F6
:1091C000204610BD13B504460078FFF7EEFF58B9EE
:1091D000207801904FF6FF71FFF7D2FD019802B0A1
:1091E000BDE81040FFF7DEBF02B010BD0078FFF70A
:1091F000D9BF0000400830B51860002418688842C4
:10920000E5B206D90134082C02D040081860F5E711
:109210000725024B5B5D137030BD00BF6C0E0C0068
:109220002DE9F04306468FB000780C46FFF7BDFFEE
:1092300000281BDB35781422002109A804F061FC0A
:109240000B23002209A92846ADF82430FFF7B8FD0A
:109250009DF82D3013B19DF82C5055B10027B9461B
:10926000B846012523795DB1C3B100200FB0BDE838
:10927000F083DDF830809DF834909DF83570F1E78B
:10928000002B35D1A368434508D18DF820908DF887
:109290002170BDF82020A3899A42E6D00023A1685E
:1092A0008DF80F300A9804AB0DF10F02FFF7A2FF03
:1092B000217985B989B9A36843450ED38DF82090EB
:1092C0008DF82170BDF82020A3899A4205D1049B16
:1092D000434502D1C9E70029F9D100230193637BFB
:1092E00000939DF80F20237B3078FFF781FDBCE7CA
:1092F000CDE900552B462A460121F5E708B500784F
:10930000FFF746FDC0B208BD30B587B004460A9DE0
:1093100000950078FFF75CFD3DB9207802A9FFF7C2
:109320005FFD9DF81430DB07F7D407B030BD0000B7
:10933000054B02221A60054B054A9A600020C3E9DA
:109340000000FFF7BDBD00BF68E603205CE6032018
:109350000000FFFF10B504460068FFF785FE2046B9
:1093600010BD10B50446006808B1FFF77DFE00236C
:10937000C4E90133236010BD38B504460D460068CA
:109380000131FFF779FE10B1C4E90005012038BDB5
:1093900010B50368044623B143688B4201D3012012
:1093A00010BD2046FFF7E8FF0028F9D0A368002B86
:1093B000F5D122681370F2E737B50D4611460192D8
:1093C0000446FFF7E5FF019A28B92046FFF7C9FFD9
:1093D000204603B030BDA2602946206804F069FB36
:1093E0002268A3680021D154F2E7002313B5C0E935
:1093F000003304468360037341B10846019104F0D1
:10940000F6FB019902462046FFF7D6FF204602B040
:1094100010BD38B5054600680C4668B16A688B68AF
:109420009A4207D3096804F0BCFBA368AB60002331
:10943000A36038BDFFF718FE23682B6063686B607C
:10944000A368AB600023C4E90033F1E710B5002343
:10945000C0E90033044683600373FFF7DAFF204658
:1094600010BD884210B5044605D00B682BB18A6840
:109470001946FFF7A1FF204610BDFFF772FFFAE77C
:1094800010B500230446C0E9003383600373FFF77F
:10949000E8FF204610BD13B5044659B108460191B6
:1094A00004F0A5FB019902462046FFF785FF204600
:1094B00002B010BDFFF755FFF9E770B505460E463F
:1094C00009B9002070BD6AB1846814442146FFF7D1
:1094D0005FFF0028F5D02868AB683146184404F0D7
:1094E00060FBAC600120EDE707B500238DF80410A8
:1094F000012201A98DF80530FFF7DFFF03B05DF809
:1095000004FB02680B46096862B141B9806860B12A
:1095100010787047986840B1097848427047104603
:1095200004F035BB0029F5D10846704708B58268BC
:109530008B689A4205D1FFF7E4FFB0FA80F040094A
:1095400008BD0020FCE783688B4203D9006810B196
:10955000405C704700207047FFF7F5BF70477047C9
:1095600070477047064B994210B500F10C0405D0C6
:10957000084603F0F9FB002808BF0024204610BD70
:10958000E4100C00064B994210B500F10C0405D014
:10959000084603F0E9FB002808BF0024204610BD60
:1095A000E4100C00064B994210B500F10C0405D0F4
:1095B000084603F0D9FB002808BF0024204610BD50
:1095C000E4100C0010B568210446FAF768FD204647
:1095D00010BD10B528210446FAF761FD204610BDE4
:1095E00010B530210446FAF75AFD204610BD682117
:1095F000FAF755BD2821FAF752BD3021FAF74FBDD1
:10960000F0B50025EC1C8C420DD86E1C445D875DC6
:10961000974205D12644B14205D31D60601CF0BDC0
:1096200001342544EEE70020F9E70000024A03492F
:109630000A20FFF72DBC00BFB9890B00740E0C0087
:1096400030B40D4611461A46036809682868D3E904
:109650000043A44630BC6047012A38B5044602D115
:109660000B68236003E0022A03D0032A0DD00020F8
:1096700038BD08200D68FAF70EFD03460028F0D02B
:1096800095E8030083E80300EBE700680028EED0CC
:109690000821FAF704FDEAE710B5836804462BB108
:1096A0000322014698470023C4E9023310BD10B5D8
:1096B000836804462BB10322014698470023C4E97E
:1096C000023310BD10B500238AB02022CDE9022359
:1096D0000446084A0092084902AA0120FFF7E0FB6D
:1096E000206806490088002322460AB0BDE81040E1
:1096F000FFF7D0B9960E0C008B0E0C0075B20B0064
:1097000010B5013802EB410110F8013F1B0903F1CC
:109710003004392C88BF03F1370402F8024B037878
:1097200003F00F0303F13004392C88BF03F1370431
:10973000914202F8014CE7D110BD10B504465830F3
:10974000FAF76AFE04F14800BDE81040FFF702BED8
:1097500038B503688B4205460C4608D011B14B68FA
:1097600001334B60286808B1FAF794FE2C6038BDCD
:10977000A0F13003DAB2092A01D818467047A0F1E7
:109780006103052B01D857387047A0F14103052B21
:1097900094BF37384FF0FF307047000010B50023FA
:1097A0000370044B04461868FFF72AFA012323705C
:1097B000204610BD70E6032010B5037804461BB1A7
:1097C000024B1868FFF724FA204610BD70E603200C
:1097D00082B00346086849686A4603C26A4603CAFB
:1097E00018601846596002B0704708B582798B79C5
:1097F0009A4206D1062204F04CF9B0FA80F04009F2
:1098000008BD0020FCE74FF0FF3303608380002099
:10981000704708B50246002101604160FFF7F3FF81
:109820009171104608BD000010B501230361054B7E
:10983000024603F1100153F8044B42F8044B8B42EB
:10984000F9D110BDF2100C000B7C13F0FD0330B504
:109850000DD103610C4B024603F1100453F8045B75
:1098600042F8045BA342F9D10B88838130BD012308
:10987000036101F11002034651F8044B43F8044B15
:109880009142F9D1F2E700BFF2100C0010B50B467F
:109890000446B1B1012A01F110020AD1014653F880
:1098A000040B41F8040B9342F9D1012323612046B4
:1098B00010BD411E12F8010D01F8010F9A42F9D1B5
:1098C000F3E7102204F01DF9F1E738B504460D4620
:1098D000FFF7AAFF00232361A581204638BD08B504
:1098E00002690B699A4206D1102204F0D2F8B0FA4C
:1098F00080F0400908BD0020FCE7000001232DE9AD
:10990000F3410361344B0C460646024603F1100155
:1099100053F8040B42F8040B8B42F9D144B32421D1
:10992000204604F093F904284FF0000523D1ADF848
:10993000045001AFA51C063415F8020CFFF718FF00
:10994000B0F1000812DB15F8010CFFF711FF002839
:109950000CDB023540EA0810A54207F8010BEBD1F9
:109960009DF8053033739DF8043073730023336121
:1099700002B0BDE8F0814FF010082421204604F029
:1099800065F9A84207D842460021304602B0BDE83A
:10999000F04104F0B6B8B8F1000FE9D0605DFFF710
:1099A000E7FE030615D4000108F1FF38C7B206F838
:1099B00008702421204604F049F90135A84208D94D
:1099C000605DFFF7D5FE40B20028A4BF384306F81B
:1099D00008000135D1E700BFF2100C0013B50446B2
:1099E0000191FFF721FF20460199FFF787FF2046ED
:1099F00002B010BD10B500F10F0301391C7801F859
:109A0000014F834203F1FF33F8D110BD2DE9F0413E
:109A10001F468EB00D4600295BD0DAB1D0F8108019
:109A2000541EB8F1000F19D18389CDF814805BBAA8
:109A300005AA022101A8ADF80430FFF761FE042C4D
:109A400028BF0424224605A9284604F032F805F868
:109A50000480621C10460EB0BDE8F08101A9FFF73A
:109A6000C9FF05AA7FB1102101A8FFF749FE242CE8
:109A700028BF2424224605A9284604F01AF800230A
:109A80002B55621CE6E704210DEB0100FFF738FEC1
:109A90002D260DF11D02022102A88DF81C60FFF792
:109AA0002FFE0DF1220202210DF10A008DF8216036
:109AB000FFF726FE0DF12702022103A88DF826608C
:109AC000FFF71EFE8DF82B600BAA06210DF10E008C
:109AD000CBE70A46BEE710B58AB00446002325222C
