:02000002B0004C
:1040000000400B007CEF0B000000060017000502CB
:084010000401A30F00000000F1
:04401800BCDD0B0000
:1040200009480A49884208B505D0094A824202D0A7
:10403000121A07F048FE0748074A0021121A07F033
:104040006AFE014808BD00BF18DB032078ED0B00B5
:10405000F4DC0320F8DC0320F1E7032070B5074E01
:10406000074C06F06FF9A41BA4080025AC4200D150
:1040700070BD56F8043B98470135F7E724ED0B0077
:1040800048ED0B0000F056BA08B501F067F9BDE83D
:10409000084006F00FB903F0BDB903F0BBB903F057
:1040A000C1B90078B0FA80F040097047012303706D
:1040B00070477047037C13F008031EBFC36A406A51
:1040C0001B1A002BACBF18466FF000407047000071
:1040D000014B01221A707047E4DE0320704710B5CF
:1040E00010210446FFF7DBFF204610BD10B5342138
:1040F0000446FFF7D4FF204610BD103002F052B83E
:10410000103001F070BF07B501220DF1070110302A
:1041100001F0BBFE01280CBF9DF807004FF0FF30F7
:1041200003B05DF804FB103002F0D6B807B50122E9
:104130008DF8071010300DF1070102F0CDF803B033
:104140005DF804FB436913B183690C30184770476D
:1041500013B500210446084602F020FF0023204644
:1041600001A9019302F032FF019C0CB101232371DC
:104170000021012002F012FF2CB1236820469B6829
:1041800098470023237102B010BD00000B4BD3E908
:1041900000300022834205D05969252928BF012219
:1041A0001833F7E742B1064A1378182B04D80133C5
:1041B0001370044B01221A70704700BF34DD0320D6
:1041C00018DD03203CE60320012A02D10160002013
:1041D0007047022A04BF0B680360F8E703681847BA
:1041E00073B5054680680E46144630B10023CDE90C
:1041F000002302211A4602F0F1FEA86830B1002324
:10420000CDE900632246194602F0E8FE02B070BD17
:104210000EB403B503AB002153F8042B019305F052
:10422000ECFE02B05DF804EB03B0704773B50446D2
:1042300008462279A36832B1A3B90B4902B0BDE8A0
:10424000704005F09FBE094A267B094D0949647BF1
:10425000012E18BF2946CDE900140749FFF7D8FF02
:1042600002B070BD054AEFE7E1DD0B0025E20B006F
:10427000DDDD0B00D9DD0B00F7DD0B00D0DD0B0021
:104280000EB403B503AB012153F8042B019305F0E1
:10429000B4FE02B05DF804EB03B0704710B583685C
:1042A000044613B1032201469847204610BD000082
:1042B00037B5134B036004468068C8B100256FF022
:1042C0000043CDE9003502212B462A4602F086FE46
:1042D000A068294602F0A2FE237903F0FF0513B17E
:1042E00002F054FEF8E7A068294602F067FEA560D8
:1042F00004F10C00FFF7D2FF204603B030BD00BF31
:10430000B4E30B0010B50446FFF7D2FF20461C2192
:10431000FFF7C5FE204610BD10B54368013B0446BB
:10432000436063B903689B689847A368013BA36037
:104330002BB923682046DB68BDE81040184710BD44
:10434000F0B58C460025144905710446856001606E
:1043500092E8030085B002AF04F10C0687E8030081
:1043600096E8030082E8030097E8030086E803006C
:104370009168A0696161D1689560D060A161CDE963
:104380000035064A2346614604F1080002F00EFE9D
:10439000204605B0F0BD00BFB4E30B0051410B0057
:1043A00013460A460149096801F039BF44E6032073
:1043B000F0B595B0044600AF0D461E22002107F16E
:1043C000300007F0A8FC2068616807F1280303C3E8
:1043D00097F82830662B6E4668D13E4907F12800D1
:1043E00007F0DFFC00283ED13B48037C13B11030BE
:1043F00001F00EFF234607F1280204F1200518689A
:104400005968144603C40833AB422246F7D11868F2
:1044100020609B88A3801E2207F130012F4807F0FF
:104420000CFD00232D4A2E497B60381D01F0F7FE5C
:1044300048B106F027FB2B49284AFFF721FF2749FF
:10444000274801F038FF06F01DFB244A2649FFF7F4
:1044500017FF2249254844F20222FFF7A1FF5437F3
:10446000B546BD46F0BD224907F1280007F099FC8A
:1044700068B906F007FB194A1E49FFF701FF164B02
:104480001B7C002BEBD0194801F0C2FEE7E71A496C
:1044900007F1280007F085FC40B906F0F3FA174948
:1044A00005F083FD164B01221A70E8E7EB1D23F09F
:1044B0000703ADEB030D2A462146684607F003FCCF
:1044C0006946054805F05EFD06F0DCFA694605F030
:1044D0006CFDC4E714DE0B0070DE0320A4DE0320B5
:1044E000F4E503201DDE0B0050DE0B0080DE032010
:1044F0006DDE0B0076DE0B008EDE0B0097DE0B0010
:10450000C2DE032008B506F03BFD0849FFF780FE38
:10451000142005F0A3FE06F033FD0549FFF778FEF1
:10452000BDE80840142005F099BE00BF24E20B004E
:10453000DDE20B002DE9F047032190B0102006F0DA
:10454000AFFC0321112006F0ABFC0121072006F08F
:10455000A7FC06F097FA4FF4E13106F087FA06F06F
:104560000FFD4FF4165106F055FBFFF7CBFF03F09C
:10457000D5FE03F01DFF474A4749484F104604F057
:1045800065FF474A47490024104604F05FFF224672
:1045900045494648CDE90044012302F023FF444B3E
:1045A0001C70444B1C70444B1C70444B01251C7008
:1045B0003D7005F035FE079005F026FE064605F035
:1045C00037FE804605F0FCFD814605F005FE82467B
:1045D00005F00EFE079B3A4A0096CDE903A0102194
:1045E000CDE9018908A802F03DFF3649364807F0B9
:1045F000E2FB08A9344807F0C5FB3449324807F00C
:10460000C1FB8DF83440324C324B0C9304F58C6670
:10461000314B0E9308220CAB04F26C413046ADF8DE
:104620003C5002F095F968B3266004F23C4001F07A
:10463000EFFD2946204602F035F804F23C450146DC
:10464000D8B1234901F23C4001F019FCD0B194F8F3
:104650003C3413F0700F15D0204B1D602048002211
:104660006FF00041FFF7BCFD1E4800226FF00041D3
:10467000FFF7B6FD10B0BDE8F087204602F012F853
:104680000028DED106F0FEF9174905F08EFC002364
:104690003B70E3E7DCDE03201D4E0B006CDE0320E5
:1046A000CCDE0320B1430B00CD4D0B00ADDE0B0083
:1046B000C3DE0320C2DE0320E4DE03203CE6032049
:1046C000B5DE0B00CEDE0B00E1DD0320D7DE0B00F4
:1046D000B8E10320A0E30B0000093D0044E60320FD
:1046E00094DD0320B0DD0320E0DE0B002DE9F04770
:1046F00084B002AF804691461E460D4607F081FB0E
:10470000093020F00701ADEB010D404607F079FBC1
:1047100097F828A0264902AC03464246204602F0FC
:1047200091FEBAF1000F01D1042D0DD1214B224988
:104730001B788DF8003038463C23224605F060FF98
:10474000786808B1FFF7E8FDB9F1000F01D1012D3C
:1047500021D103F0E3FD03F071FEE0B1204607F044
:1047600050FB073020F00700E846ADEB000D204677
:1047700007F047FB0DF1080902462146484607F0BD
:10478000A2FA204607F03DFB0023024649460B48AB
:1047900003F05EFCC5460EB9022D04D106F0F0FB15
:1047A000214605F002FC0837BD46BDE8F08700BF92
:1047B00005DF0B007CDD0320ADDE0B00D4DE032023
:1047C0002DE9F0410E4D0F4FD5E9004888B0A045C6
:1047D00013D02379E67814F8182B0393394605A8EB
:1047E00002F030FE0022039B0096114605A8FFF759
:1047F0007DFF6B68183B6B60E9E708B0BDE8F081AE
:104800001CDD03200CDF0B002DE9F84FD0E90089F7
:10481000294BA9EB0804E4105C43284B9C42074653
:104820008A46934602D1264806F00CFC012C22460B
:1048300038BF0122A418A1EB080538D2CCB39C42A2
:1048400028BF1C4618206043FFF725FC064616EBE0
:10485000050C1FBFBBE80F00ACE80F00DBE900014F
:10486000CCE90001002D04DD2A464146304607F020
:1048700038FAA9EB0A091835B9F1000F354404DDFF
:104880004A465146284607F01EFA4D44B8F1000F3B
:1048900005D0B9684046A1EB0801FFF700FC1820DD
:1048A00000FB0464C7E90065BC60BDE8F88F1C46E6
:1048B000C8E72646CBE700BFABAAAAAA55555505BF
:1048C00015DF0B0070B50A46D0E901139942064680
:1048D0000CD039B115460C460FCD0FC495E8030036
:1048E00084E8030073681833736070BDFFF78CFFB2
:1048F000FBE700002DE9F04F9DB08378412B02AF1C
:1049000006468A465DD1C378422B40F07981304615
:1049100007F077FA013820F00700E846ADEB000D0C
:10492000304607F06EFA02AD28444FF00009737864
:1049300000F8099C07F118003B7607F0B0F904462F
:10494000304687F8239007F05CFA304410F8023CB8
:104950003B77304607F055FA3044494610F8013CA1
:104960007B77102207F11C0087F81E9008F034F9BD
:1049700083465FFA8BFB06F085F8C8495B465A46CA
:10498000FFF77EFC4FF00409304607F03AFA023890
:1049900081451CD2B9F1060F9BBF07F168034B4458
:1049A00005EB090316F809208CBF16F8092003F857
:1049B0004C2C09F1010988BF03F8072C5FFA89F92B
:1049C000E2E7432B40F01C81C378432B9DE7584519
:1049D00042D006F057F80446304607F012FA821E1D
:1049E0002046AF4CAF495B46FFF74AFC237C6BBBCC
:1049F000AD4944F2022204F11000FFF7D1FCAB49AB
:104A000032462046FFF73CFC04F1100001F000FCA8
:104A100006F038F8A64905F0C8FA7378A3F1300219
:104A2000092A02D9432B40F0EA80327887F83820EF
:104A300087F839309F49A04807F1200307F1380271
:104A400002F000FD9D4B83F800A0D8E09749324664
:104A50002046FFF715FCDBE7994907F1200007F036
:104A6000A0F9002800F0CB80964907F12000E4B2BD
:104A700007F097F9002840F0C780934BDFF8909239
:104A80005A681E687A6101237A69B24274D032781A
:104A900094426FD107F1380A07F1280B07F124037C
:104AA00007F11B028949CDF804A0CDF800B02846D3
:104AB00002F0D0FC584607F0EFF8504687ED020BA5
:104AC00007F0EAF897F824A097F81BB087ED000BE1
:104AD00005F0D8FF7E4905F068FA05F0D3FF494696
:104AE00005F063FA05F0CEFF7A4905F05EFA05F0AD
:104AF000C9FF79492246FFF7C3FB05F0C3FF5A46B9
:104B00007649FFF7BDFB05F0BDFF754905F04DFA8D
:104B100005F0B8FFCAF340030AF00102714900939F
:104B2000CAF38003FFF7ACFB05F0ACFF6E4905F05C
:104B30003CFA05F0A7FF8246D7E9020107F038F8F2
:104B400006F0FCFC02460B46D7E90001C7E9022348
:104B500007F02EF806F0F2FCCDE90001D7E90223B8
:104B600062495046FFF78CFB05F08CFF494605F083
:104B70001CFA0023183687E7002B40D005F082FF8F
:104B80005B4905F012FA012387F83A3007F1280350
:104B900087F83840019307F124035649009307F141
:104BA0001A0207F11B03284602F054FCBB7E87F86B
:104BB0003930FB7E444803F0010287F83B20C3F301
:104BC000400287F83C20C3F3800287F83A20C3F301
:104BD000C00287F84020C3F3001287F83D20C3F3DA
:104BE0004012C3F3801387F83F307B6A7B6407F180
:104BF0003801BB6A87F83E20BB64FFF763FEC546F9
:104C00006C37BD46BDE8F08F3B4907F1200007F047
:104C1000C8F830B939480322294607F00EF9384B55
:104C200011E7384907F1200007F0BBF8002871D1DF
:104C3000254BD3E900200123824205D012F8181B2E
:104C4000A14208BF0023F7E7ABB105F01BFF2849DD
:104C500005F0ABF9BAF1010F11D187F83AA01A4863
:104C600087F8384007F13801FFF72CFE264807F196
:104C70003801FFF727FE254B01221A70BFE7BAF172
:104C8000020F4FF0010302D187F83C30E7E7BAF199
:104C9000030F08BF87F83B30E1E700BF2FDF0B00B1
:104CA00038DE032044DF0B00E1DD032061DF0B0071
:104CB0008DDF0B00AEDF0B00CDDD0320E0DD032038
:104CC000BADF0B00BEDF0B0034DD0320C2DF0B00B8
:104CD000CEDF0B00F8DF0B0013E00B002FE00B0022
:104CE0004BE00B0066E00B0084E00B009FE00B0044
:104CF000AFE00B00C8E00B00D4E00B00DDDD0320CB
:104D0000DCDD0320D8E00B001CDD0320CCDD03201C
:104D1000DDDF0B00254907F1200007F042F80028ED
:104D20007FF46DAF05F0AEFE294605F03EF944F282
:104D300002221F491F48FFF733FB1F4907F13800C4
:104D400002F031FD1D4907F1480002F02CFD1C491D
:104D500007F1580002F027FD07F1380303EB0A11B1
:104D600007F1280002F06AFD07F1280215491648EC
:104D7000FFF74EFA07F1280002F0CAFC2946124854
:104D800005F013F9052005F069FA0A4801F040FA28
:104D900007F1580002F0BCFC07F1480002F0B8FC33
:104DA00007F1380002F0B4FC29E700BFDCE00B009B
:104DB000E0E00B0080DE0320EDE00B00F1E00B00F3
:104DC000F6E00B0000E10B0070DE032010B50C468E
:104DD000002204212046FFF78DFD0B4B1B7893B179
:104DE0000A48037C2BB90A4944F202221030FFF72B
:104DF000D7FA224607490548FFF742FABDE81040B6
:104E0000054801F005BA10BD6CDE032038DE032032
:104E1000E1DD032015E10B0048DE0320B0B501F110
:104E2000080323F0070300AFADEB030D0C460A4661
:104E30000146684606F047FF0DEB04036D4613F884
:104E4000013C13B100230DF8043005F01BFE11499D
:104E500005F098F805F016FE294605F0A6F801229F
:104E600011462846FFF746FD0B4B1B7883B10B48D4
:104E7000037C2BB90A4944F202221030FFF790FA62
:104E8000084906482A46FFF7FBF9074801F0C0F930
:104E9000BD46B0BD35E10B006CDE032038DE0320DB
:104EA000E1DD032046E10B0048DE03202DE9F04F51
:104EB000DFF8EC80DFF8EC90354D89B000AF06F0FC
:104EC0005FF803681B69984700285CD006F058F823
:104ED0000A220146384605F0D7F8BB68073323F0AD
:104EE00007036E46ADEB030DEA460023B9681FFACF
:104EF00083FB8B4503F1010407D25946384602F083
:104F000009FD23460AF80B00F0E701290AD9013907
:104F1000384602F0FFFC0D2801BFBB685344002255
:104F200003F8012C012202215046FFF7E3FC05F0B3
:104F3000A9FD414605F039F805F0A4FD396805F0F2
:104F400034F899F80030CBB12B7C2BB911491248B9
:104F500044F20222FFF724FA394607F1100002F06A
:104F60006DFC0E4907F110022846FFF789F907F199
:104F7000100002F0CDFB084801F04AF9384602F073
:104F8000C7FBB5469BE72437BD46BDE8F08F00BFA1
:104F900038DE0320E1DD032048DE032078E10B004A
:104FA00066E10B006CDE03202DE9F84FD0E90089A3
:104FB00093466FF07043A9EB0802B3EBE20F07468C
:104FC0008A464FEAE20402D1204806F03BF8012C61
:104FD000224638BF0122A418A1EB080531D294B3B0
:104FE0009C4228BF1C46E000FFF755F8064673199F
:104FF0001CBFDBE90001C3E90001002D04DD2A46E6
:105000004146304606F06DFEA9EB0A090835B9F1B4
:10501000000F354404DD4A465146284606F053FE4B
:105020004D44B8F1000F05D0B9684046A1EB080126
:10503000FFF735F806EBC404C7E90065BC60BDE8BE
:10504000F88F1C46CFE72646D1E700BF15DF0B00DF
:105050002DE9F04F99B0054603F060F9604914223C
:1050600003F036FA0646002800F0B6805C4FDFF801
:10507000A8A1002407F1080904EBC40B4FEA8B0B2D
:105080000BF1080805A8B84402F0ACFD012205A9FF
:10509000404604F0E5F80822019003A9484602F0D2
:1050A00059FF019B2BB3514605A802F0F6FD00B352
:1050B000AA1C29D14B4A9DF80C10D2F804E01368C1
:1050C000734505D013F808CB8C4508BF0020F7E7DF
:1050D00078B18DF84010916897F9200011908B42BB
:1050E0000CD01BB10146109883E8030053680833C5
:1050F00053600134E4B2B442BED36DE0394810AA23
:105100001946FFF751FFF4E76B1C03D09DF80C30F4
:10511000AB42EED103F002F9334D0146012307EB18
:105120000B0210A804F0D4FC109B119C2B606B6840
:105130009C4208D014B1636801336360686808B1A9
:10514000FFF7EAF86C6010A803F039FA264803F07C
:1051500057F8044600283FD0244B254D00221A70F2
:1051600010A91F22404602F0F5FE224A22491E489D
:1051700004F042F9214A22491B4804F03DF9214A32
:105180002149194804F038F905F07CFC9DF84020CD
:105190001E49FFF775F868689DF840202B68984213
:1051A00005D013F8181B914208BF0024F7E79CB103
:1051B00005F068FC164904F0F8FE01238DF82A304A
:1051C0000B489DF840308DF828300AA9FFF77AFB8C
:1051D0006B68104A183B136019B0BDE8F08F00BF30
:1051E000E8DE032008DD0320C4DE03206DDE03209B
:1051F00034DD032068DD0320DCDE032054DD0320E2
:10520000D4DE032080DD0320CCDE032099E10B00F7
:10521000AFE00B0004DD032040DD0320F0B5404982
:10522000404887B00022FFF7BBF8012448B93E4B45
:105230001C7005F027FC3D4907B0BDE8F04004F0C4
:10524000B4BE3B4E3B4DD6E900239B1A3A4ADB10D5
:1052500053439C4259D86F46384A23460A21384660
:1052600002F000F997E8070003AB03C303A91A8013
:10527000334800230A2202F0EBFE05F003FC2B6802
:1052800030491A78FEF7FCFF4FF47A7004F0E6FF1D
:105290002B681B78A3421ED005F0F4FB2A682A492C
:1052A00012782346FEF7ECFF03F038F803F036FEE1
:1052B00003F034F803F0C2F830B92046FFF7C8FE17
:1052C000322004F0CBFFF3E705F0DCFB2B681F492D
:1052D0001A78FEF7D5FF05F0D5FB2B681C491A7824
:1052E000114FFEF7CDFF00233B70642004F0B6FFA2
:1052F0003B78002BF9D005F0C5FB2B6815491A78CF
:105300000134FEF7BDFFE4B29DE71348037C2BB1E7
:10531000103007B0BDE8F04000F07ABF07B0F0BD34
:10532000ADE10B0014DE0320C2DE0320AFE10B0071
:1053300034DD032004DD0320ABAAAAAAF0E10B00B0
:10534000D4DE0320F9E10B0026E20B005FE20B0044
:1053500080E20B00A3E20B0004DE0320F0B54B4D0E
:105360002B788BB0A3B14A4B1B68002B76D01A78F0
:10537000484902A802F066F8474C237800930123BD
:105380001A46002102A8FFF7B1F900232B70237001
:1053900002F0C4FF03F052F8404E0146002862D0EC
:1053A000112005F0A7FD08B101233370122005F08C
:1053B000B4FD0746122005F0B0FD06F0ADF8384BFD
:1053C000002206F03DFA06F0ABFB4FF47A7490FB36
:1053D000F4F505FB1405384606F09EF8304B002224
:1053E00006F02EFA06F09CFB2B462E4990FBF4F2B9
:1053F00002FB140202A802F025F805F043FB044664
:10540000122005F08AFD06F087F8254B002206F0F1
:1054100017FA06F085FB244902462046FEF730FFC6
:1054200005F030FB02A904F0C0FD002319460093EB
:10543000012202A8FFF75AF90720012105F041FDDA
:10544000FA2004F00BFF33780BB1FFF7E7FEFFF70C
:105450002DFD0BB0BDE8F040FFF7B2B9134902A82B
:1054600006F0A9FC88E70720114C05F02AFD01F0A1
:10547000D9FC2368C01AB0F5FA6FE4D301F0D2FC6E
:1054800020604FF0FF30FFF7E3FDDCE7E4DE0320B0
:1054900014DD0320CAE20B003CE60320C3DE032038
:1054A00000C03640DFE20B00EFE20B00D5E20B005C
:1054B00000DE03207FB5514B514C01221A70514B35
:1054C0000022C3E90022A2F580329A60032001F095
:1054D000D5FE4D494D4802F05FFC4D494D4802F064
:1054E0005BFC4D494D4802F057FC4D494D4802F0D8
:1054F00053FC14257F26204602F069FB04F10800C6
:1055000003F077FB04F1140003F073FB013D84F812
:10551000206004F12404EED14348444C02F072FDB3
:10552000434802F06FFD434802F06CFD424802F030
:1055300045FE2378BFF35B8FDB070AD42046FEF7D6
:10554000B0FD30B13D48012102F010F82046FEF7D1
:10555000ADFD3B4B3B4E3C4D3C4803966422C3F8AB
:1055600060243B4AC3F870240122002483F8742489
:10557000324A5C60C3F83C44C3F86844C3F87844DA
:10558000A3F87C44C3F86C24324B334A5C604FF47C
:105590007A7199601A601C61304BC3E901411A604D
:1055A0001C612F4BC3E901411A601C612D4BC3E9FB
:1055B00000449C602C4BC3E900449C602B4BC3E926
:1055C00000449C602A4B00936A46234641F288318E
:1055D0000295FEF7B5FE6846FEF760FE254B009388
:1055E0006A4623464EF660212348CDE90256FEF76F
:1055F000A7FE6846FEF752FE04B070BD7CDD0320B6
:10560000E8DE032028DD032001E30B0040DD03205A
:1056100026E30B0054DD03204BE30B0068DD032081
:1056200070E30B0080DD0320DCDE0320F8DC0320C8
:10563000D4DE0320CCDE0320C4DE0320FCDC032008
:10564000B8E10320DD410B00C9410B0094DD0320CC
:10565000A0E30B0070DE0320C8E30B0038DE03205C
:1056600004DE032034DD03201CDD032008DD0320DD
:10567000D1400B008D410B00B0DD0320042904D87C
:1056800000EB4100B0F8010070470A299BBF01F10F
:10569000FF3100EB41000131C08884BF00EB4100C5
:1056A0008088704710B50446243000F0EDFE28B124
:1056B00004F50C70BDE8104000F0E6BE10BD411EC0
:1056C00000F10A030020420842EAC01011F8012F3D
:1056D00052FA80F08B42C0B2F5D1704738B5CB6832
:1056E00004460D4623B9BDE83840896800F0C7BBC1
:1056F0002422002106F00FFB102301202370A0704C
:10570000AB68A360EB68236238BD00002DE9F04769
:10571000064610F8013B202BFAD06A4D8E6000241B
:10572000335DC3B12F2B16D05C2B02D10020BDE816
:10573000F087A3F12200C0B21D2803D825FA00F09B
:10574000C007F3D403F0BF003C28EFD0203B5E2B12
:10575000ECD80134E4E733191846074610F8015B2A
:10576000202DFAD02F2DF8D017604CB113F8012D51
:105770002E2A01D0202A01D1013CF6E7FF2CD5DCEE
:105780004FF02033C1F811304C60C1F80D304B613F
:105790004FF0000816F808302E2B01D0202B02D134
:1057A00008F10108F6E7B8FA88F04009651E6B1C9D
:1057B00002D0735D2E2B14D14FF0000907274A4603
:1057C000CA464FF0080EA04568DA16F80830202BBC
:1057D00003D02E2B07D1A84512D0002008F10108D4
:1057E000F1E7013DE3E7222B08D07C2B06D0A3F1A3
:1057F0002A0CBCF1050F0AD82D2B12D0A8455BD17D
:105800000A2F4AD00A2708224FF0100EE6E7A3F12C
:105810003A0CBCF1050FF1D9A3F15B0CBCF1020FFE
:10582000ECD9A3F1210CBCF15D0FE7D8A845E7D076
:10583000BA4230D8A3F1610CBCF1190F1AD8203B41
:105840004EEA0909DBB25FFA89F902F1010C5FFA4D
:105850008CFC0A44BCF1060F537301D881F80CC0CC
:105860006246BBE7A84518DCA8460A2708224FF085
:10587000100EB2E7A3F1410CBCF1190F98BF4EEA2C
:105880000A0AE2E70B7B0120087019447E234B7360
:1058900031238B734BE70A2FE4D100204B7B202B65
:1058A0003FF444AF0028EDD01AEA090F18BF4FF0BB
:1058B000020981F800903AE7BA42ECD800205F2351
:1058C000C3E700BF010100312DE9F0418AB0002398
:1058D00001930378190704460AD583789A0707D5F8
:1058E000016A39B90121204600F0BAFA054638B9F3
:1058F000002048E0806800F0B8FE0028F2D1F7E709
:10590000FFF7DDFEE5272F70002306462370A06811
:10591000FFF7C8FE0028EBD0E378002B33D02146F8
:1059200001A8FFF7DBFE0028E2D00125E3785FFA4B
:1059300085F84345DCD3A188491B490101A800F043
:1059400084FB0028D4D0002101A800F05FFB0028D0
:10595000CED0C37A0F2BCBD1027802F01F03434580
:10596000C6D1437BB342C3D10770A16891F82430FC
:1059700043F0010381F82430530605F10105D5D524
:10598000A068FFF78FFE0AB0BDE8F0812DE9F8436B
:1059900091F80C9006460C4602257E2701F10D0871
:1059A0006168A2686B189BB21144914206D012F84C
:1059B000010B03EB431343409BB2F6E7B9F1030F2E
:1059C00028BF4FF0030909F10402D2B203F00F011E
:1059D000A018013A0929D2B294BF3031373191452C
:1059E00041734FEA1313F1D104EB090300215F73F4
:1059F000304600F02AFB0121304600F007FB01464B
:105A000028B97078B0FA80F04009BDE8F8830378CF
:105A10006BB1C37A1B07EED40B22404606F043F964
:105A20000028E8D10135ADB2642DB9D1EDE70120F0
:105A3000EBE700002DE9F04F2DED028B8BB00D460A
:105A400006930B78079013F0700F174605D10020CE
:105A50000BB0BDEC028BBDE8F08F079B1B78002BD1
:105A6000F5D15368059313789C071FBF059B0C3332
:105A70000D22B3FBF2F31ABF0133DBB20123002185
:105A80002846039300F0E1FA07F10D034FF0000BF5
:105A900008EE103ADA465C465E46CDF810B0D946BC
:105AA0006B6901212846C3F34F1800F0AFFA034693
:105AB000002871D16B78002BC9D1069B9A05C6D5F9
:105AC00003F00303013B012BC1D8049B002C08BF4A
:105AD00043460493039B9C42C0F0F180B9F1000F50
:105AE00040F00A81049B2846590100F0AEFA0028D4
:105AF000ADD0039B03F1FF395FFA89F94E464FF0B1
:105B0000000A4FF00F08002E00F00D8100212846FA
:105B100000F07CFA0446002899D0AA6892F8243054
:105B20004E4543F001030CBF46F0400BB34682F8EC
:105B3000243080F800B080F80B8080F80CA007F1CA
:105B40000D00FFF7BCFD84F81AA0607384F81BA059
:105B50000BF01F030D22013BD7F808C0534300226E
:105B60000599994240F2D0801CF80310042A5FFA8C
:105B700082FE02F1010000F2CD8004EB4202A2F8A5
:105B800001100D2803F101030246E9D1013EF6B2EE
:105B9000B9E74FF0010983E70278E52A00D07AB926
:105BA0000499002C08BF4146049103998C423CBFE4
:105BB0000134E4B2002A80D0E52A05D100266FE73F
:105BC00003998C4238BF00242E2AF7D0D97A0F29A6
:105BD0004AD116BB12F040063FF462AF02F01F0636
:105BE00093F80DB0B2460D220AF1FF3802FB08F817
:105BF000059A4245E2D9A2EB08020892002202EB84
:105C0000080109911846D1B2FFF738FD08998A4278
:105C10000DD1002818BF002642E70AF1FF3A5FFACB
:105C20008AFA5245CAD15A7B5A45DCD0C6E7FF28CA
:105C3000C4D85FFA80FEAEF141011929B9689CBF52
:105C40000EF120005FFA80FE08460999415CA1F13F
:105C5000410CBCF1190F9CBF2031C9B27145ADD1C7
:105C600001320D2ACBD11BE70807A7D45EB1BAF1E8
:105C7000010F7FF4ECAE1846FFF721FD58457FF485
:105C8000E6AEB1460EE018EE101A0B22184606F0EA
:105C90000AF800287FF404AF97F8009019F0010982
:105CA0007FF477AF069B19053FF5D1AE069B0798A9
:105CB000CDF800904246294600F00AFAC8E60021D5
:105CC000284600F0A3F9A0B96B78002B7FF4BFAE93
:105CD000284600F087F800283FF4B9AEAB681B797E
:105CE000012B3FF6FBAE039B1034E4B2A342EFD886
:105CF000F4E60134E4B2EDE639462846FFF746FE05
:105D000000287FF4EFAEA2E614BF4FF0FF31002170
:105D100089B22BE7BEF10A0F94BF04EB420204EBF9
:105D2000400291802DE731462846D5F8148000F0D6
:105D30006DF9044600283FF48AAE2022314605F072
:105D4000EAFFD7F80D302360D7F811306360B7F859
:105D500015302381FB7DA3723B7803F01803237376
:105D60000F4B1B689BB104F10E0104F11000984722
:105D7000238A63822383E389E382AA6892F824302A
:105D800043F00103C8F34F1882F824308EE7212333
:105D90002374282363740823A673E373E8E700BF22
:105DA00040E6032038B504460D462422002105F0C4
:105DB000B2FFA560EB79102B03D0202B06D000207A
:105DC00038BD202301202370A070F9E74023F9E7B4
:105DD0008378016943F00403837000F11002806846
:105DE00000F008BC2DE9F041017811F020050446CF
:105DF00003D000263046BDE8F0814269174B9A4235
:105E0000F7D2FFF7E5FF06460028F2D02169A06827
:105E100000F085FB0746A06805223946243000F0D3
:105E20005BFB80460028E4D029464FF4007205F061
:105E300072FF0125A3681A79AA4209D91868424657
:105E4000E91900F0B6FE0028D3D00135EDB2F1E734
:105E5000636903EB42236361CCE700BF00FE1F00D0
:105E600010B5044680680A462430A16900F034FB6E
:105E700020B1A38803F00F0300EB431010BD03789B
:105E80000BB9FFF78FBF002070472DE9F74F03785C
:105E9000044688461546002B5DD08278D1075AD536
:105EA0001A072DD5C36942699B1A9D4228BF1D461A
:105EB0002E464FF0000904F1100B002E00F08F80E9
:105EC00022786369A0689706C3F3080A4FEA532152
:105ED0001FD5006A0144A068BAF1000F42D1B6F59F
:105EE000007F3FD3C36A99423CD0B6F5806F52D24F
:105EF0000068424600F0D4FD68B34FF4007744E0F8
:105F00009B06D5D583681A894369C3EB42139BB2BC
:105F1000CBE790F8059009EA0109BAF1000F08D122
:105F2000B9F1000F05D15BB951064CBF036A236A72
:105F300023612169A06800F0F2FA09EB0001CAE7C9
:105F400021695A4600F0F1FA002804DBF1D12378E8
:105F500013F0700F43D1637843F0020363704FF086
:105F6000FF303DE0CAF50077B7424FF0000200F184
:105F7000240028BF374600F0AFFA0028EBD000EB32
:105F80000A013A46404605F09EFE63693B44B84428
:105F90006361F61B91E7227892064FEA562A06D4EF
:105FA0000279A2EB0902D2B2924528BF92469942E9
:105FB0004FEA4A2708D2A06853460068424600F0DC
:105FC000B7FD0028E1D1C6E753448B42F3D9243012
:105FD000019100F059FA01990028ECD1BBE7A81B08
:105FE00003B0BDE8F08F73B501220DF10701D0E9D0
:105FF00004560446FFF749FF01280ABF9DF8070031
:106000004FF0FF30C4E9045602B070BD37B54369A4
:1060100013F4F07F0446C3F3431500D099B901226D
:106020000DF107012046FFF730FF40B2012802D0F2
:10603000002003B030BD63691F33A0686361303056
:1060400000EB4510F5E72033F7E72DE9F041027842
:10605000076904460D4662B14069884202D019B909
:1060600021616561012006E0160706D5E3698B42D0
:106070000BD227610020BDE8F081910605D5A36809
:106080001B89B5EB431FECD9F3E7D4F808C09CF8A3
:106090000660431E06F109016E1ECB40CE40B3429E
:1060A00000D898B953064CBFDCF82030236A23612E
:1060B00004F11008002ED4D02169A068424600F0F7
:1060C00034FA002806F1FF36F4DCD2E7F61AEFE7DF
:1060D000F8B50F4604461546002124221E4605F059
:1060E0001AFEB868A060A58005F00F053B6AE36062
:1060F0006A0100EB451595F83B301F0744D403F0C7
:106100001703237095F83B1011F0180F04BF43F0EC
:10611000080323709DF81830E37006F00303012B89
:106120002CD0022B28D07BBB71052DD40123A3706A
:10613000A1788B0704D52378DF0625D4DD0723D487
:10614000B31123F07F0306F008052B430B43A37024
:10615000C36AA3618318B3F84420B3F84A1041EA34
:106160000241720513D559B9A37843F00403A37013
:10617000730410D40120F8BD0323D8E70223D6E727
:1061800000F073FA0028EFD100202070F3E72162BD
:10619000DB6CE361ECE7E1692046FFF756FF00287E
:1061A000E8D1F1E738B5037804460BB9012038BDD2
:1061B00083785A0723D50121FFF752FE054628B9F7
:1061C000637843F0010363700020F0E70378E52B68
:1061D000F6D023781B0744BFE369C361236A438376
:1061E000638C8382094B1B682BB100F116011830B8
:1061F00098472B8B6B82A37823F00403A370A068CD
:10620000FFF750FA0028DBD0D0E700BF40E60320BC
:1062100010B50446FFF7C6FF0023237010BDF0B58C
:1062200093B01F46002309930378019206460C465B
:1062300013B1002013B0F0BD0B7813F0700FF8D03D
:1062400013782F2B12D1019A13782F2B02D1013200
:106250000192F8E7A1681BB93046FFF710FEE9E7A5
:1062600009A8FFF79FFD0028E3D009AC019801AA17
:1062700003A9FFF74BFA0028DBD0019B1B789BB1E9
:10628000002303AA21463046FFF7D4FB0028D0D0D4
:1062900035460FCD09AC0FC40FCD0FC42B6823605A
:1062A0003046FFF7B5FFE0E73B4603AA21463046FC
:1062B000FFF7C0FBBEE700B58BB000230A46019391
:1062C0000146012301A8FFF7AAFF10B101A8FFF7BB
:1062D000FBFA0BB05DF804FB2DE9F0470378894623
:1062E0001907044617465BD583789A0758D51B07CC
:1062F00051D46369DB43BB4252D3B84604F1100A60
:106300006669B8F1000F00F09180A0684379C6F388
:10631000080513EA56260ED16DB92169002946D029
:10632000524600F002F900283ADB04D12046FFF77C
:106330004FFD002834D02169A06800F0F0F8311832
:10634000A06815B9B8F5007F3FD2C5F5007646457F
:1063500028BF4646002D36D16269E3699A4234BFB0
:1063600001220522243000F0B7F8C8B12844324693
:106370004946354405F0A7FCB5F5007F04D1A06877
:10638000243000F081F858B1636933446361B1444B
:10639000A8EB0608B4E7C169FFF757FE0028A8D1AB
:1063A000637843F0010363704FF0FF3050E0236ADD
:1063B0003BB92046FFF70CFD0028F1D0236923628A
:1063C000B9E72361B7E70122CCE7B8F5806FC26A6D
:1063D0001BD390F804C0ACEB0606F3B24FEA582E7C
:1063E000734528BF734691424FEA432607D31A44A8
:1063F0008A4282BF4FF0FF3280F82450C262A56803
:106400004A46286800F04BFCBDE7914202BF4FF0BE
:10641000FF3380F82450C362A3684A46186800F02E
:10642000C8FB0028BCD04FF40076ADE7E269A37842
:10643000B24204D2E66143F00403A37003E0084AC9
:106440001268002AF7D194F90230002B02DB38469B
:10645000BDE8F0872046FFF7A5FE0028F7D19FE7AB
:1064600040E6032013B50446084659B1019105F0F2
:10647000C8FC23680199DB680246204602B0BDE8EB
:106480001040184702B010BD37B50378DA0704464C
:1064900020D54368816800F10C021868019200F071
:1064A00088FB019A054618B90025284603B030BD7F
:1064B00023789B0704D4237823F001032370F4E7A7
:1064C000D4E9013019690144186800F072FB002812
:1064D000F1D1E9E70125E8E770B583688B4204460E
:1064E0000E46154609D0FFF7CFFF08B9002070BD52
:1064F0006B070AD500232370A660227805F00305F8
:106500002046154300F80C5BF1E7636804F10C02C8
:106510001868314600F0C4FA0028EBD1E6E7837929
:1065200040690239994008447047012970B5054611
:106530000C46164602D84FF0FF3070BDC3698B423F
:10654000F9D3C379202B16D18169022201EBD41132
:1065500000F50C70FFF7C0FF0028ECD004F07F04BA
:1065600050F8243023F07043EA699A4226BF336022
:1065700001200020E1E7102BDDD1C1F30723816961
:106580000222194400F50C70FFF7A6FF0028D2D0B4
:10659000E4B230F81430E7E7012938B50C46154667
:1065A00001D8002038BDC3698B42FAD3C379202BB0
:1065B0000FD18169032201EBD41100F50C70FFF7B4
:1065C0008BFF0028EDD004F07F0440F82450012018
:1065D000E8E7102BE5D1C1F30723816903221944B1
:1065E00000F50C70FFF778FF0028DAD0E4B220F84D
:1065F0001450ECE72DE9F341C4688C4205460E4681
:10660000904601D3012701E00C460027EB690134D5
:10661000A34202D2C7B9EC68F4E7A64214D001AA9B
:1066200021462846FFF781FF00280DDBEED0019BB5
:10663000002BEBD107B1EC606FF070422146284689
:10664000FFF7AAFF074620B90027384602B0BDE889
:10665000F08116B9C8F80040F7E7224631462846CF
:10666000FFF79AFF0028F5D1EEE773B505460C4613
:1066700001AA21462846FFF758FF061E10DB00221C
:1066800021462846FFF788FF50B1EB68A34224BF9C
:1066900004F1FF34EC60019C002EE9D102B070BD22
:1066A0000020FBE7012370B50022C3604FF0FF33E9
:1066B0000446C27100F12406806280F82420C3627F
:1066C000C0F8340280F83022C0F838320D46B9B133
:1066D000042901D9002070BD11463046FFF7FCFEA9
:1066E0000028F7D000EB051393F8AE315B06F1D12B
:1066F00005F11B0100EB0110D0F80650002DE9D088
:10670000002229463046FFF7E7FE0028E2D0B0F825
:106710000B30B3F5007FDDD1037C022BDAD1C389C6
:10672000002BD7D0417B21714B1E63710023A371D5
:1067300009260123994207D0013ECBD0A2795B0004
:106740000132DBB2A271F5E7C18A01B9416A216168
:10675000C3892B44A361B0F81120228103EB4103CC
:106760002362B0F81110490101F2FF1103EB51232C
:106770006361B0F8132002B9026AE91AA3791144DF
:10678000D9404B1CE36140F6F473994202D80C23C4
:10679000E3719FE74FF6F473994285BFC36A2362A2
:1067A00010232023E371012095E700F0CBBA00F01D
:1067B000AEBA000070B50E4E0D46144600F02AFB2E
:1067C0003368C01A0B4B984208D900F02BFB0A4BD8
:1067D000186000F0EFFD00F01DFB306000F022FBC0
:1067E00080B2401BA042D4BF0020012070BD00BF7A
:1067F00048E60320A086010044E7032038B5057A67
:1068000004464DB9406800F06BFA63682946187D6C
:1068100004F057FB0123237238BD10B5037A0446F8
:106820006BB143680121187D04F04BFB6068FF21C8
:10683000FFF7BBFF606800F067FA0023237210BD0A
:10684000F8B504460D46164600F0ECFA87B26068CB
:10685000FFF7ADFFFF2860720ED14FF47A72394610
:106860002046FFF7A7FF0028F1D0552320462370CC
:10687000FFF7D3FF0020F8BDFE2801D05023F5E735
:1068800060683246294600F047FA607208B160231A
:10689000ECE76068FFF78BFF6068FFF788FF012077
:1068A000E9E770B504460E4600F0BCFA85B2324600
:1068B00029462046FFF77EFF30B96068FFF777FF73
:1068C000FF28F4D1012070BD0020FCE7F7B5037A62
:1068D000019204460D460BB9FFF790FF25B14FF426
:1068E00096712046FFF7DDFF606845F04001FFF735
:1068F0005CFF032601AFB95D6068FFF756FF013EFC
:10690000F9D2002D60680CBF95218721FFF74DFF5C
:106910006068FFF74CFF0B256068FFF748FF030630
:10692000607203D5013D15F0FF05F5D103B0F0BD50
:1069300070B504460D46164637210022FFF7C6FF04
:10694000324629462046BDE87040FFF7BFBF000031
:106950002DE9F041002505720570857241600446FD
:1069600090461E4600F05EFA41460746606800F019
:10697000BBF96368494A1D720125DA601D82204611
:10698000FFF73CFF63682946187D04F09AFA0A2550
:106990006068FF21013DFFF708FF15F0FF05F7D103
:1069A00063682946187D04F08CFA0A2500221146F6
:1069B0002046FFF78BFF0128804618D0013D15F0D7
:1069C000FF0507D1202320462370FFF726FF002074
:1069D000BDE8F0816068FD21FFF7E7FE4FF4027823
:1069E0006068FFF7E4FEB8F10108F9D1DEE74FF483
:1069F000D57208212046FFF769FF052814D184F8D5
:106A00000A800025BFB22A4629212046FFF790FFC1
:106A10000246D8B14FF4FA6239462046FFF7CAFE63
:106A20000028F0D04323CEE704256068FFF7BFFEBF
:106A3000013D15F0FF056072F7D1AA2804D10223A9
:106A4000A3724FF08045DDE72523BCE7A37A022B34
:106A500018D13A212046FFF739FF08B13723B2E7B2
:106A60006068FFF7A4FE00F0C000C02804BF032345
:106A7000A3726068FFF79BFE6068FFF798FE60688E
:106A8000FFF795FE2046FFF7C8FE63683079B168CE
:106A9000B2891A821872D960012099E790D0030058
:106AA00038B5837A032B18BF490215460A461121CF
:106AB0000446FFF70BFF30B1302323702046FFF769
:106AC000ACFE00250BE029464FF400722046FFF78C
:106AD000B7FE05460028F1D02046FFF79EFE284667
:106AE00038BD10B5837A032B0A4618BF4A0212211B
:106AF0000446FFF7EBFE30B1312320462370FFF749
:106B00008CFE002010BD0120FCE710B500220C21F6
:106B10000446FFF7DBFE30B1282320462370FFF741
:106B20007CFE002010BD2046FFF777FE0120F9E72C
:106B3000F8B5044616461F46FFF7D3FF68B1002597
:106B4000ABB29F4206EB452109D94FF400722046B3
:106B5000FFF776FE01350028F2D10020F8BD20466F
:106B6000BDE8F840FFF7D1BF38B504461546406888
:106B7000FFF71BFE4FF400726068294600F0E6F84C
:106B80006068FF21FFF711FE6068FF21FFF70DFE2F
:106B90006068FFF70CFE607200F01F00052806D049
:106BA000572320462370FFF738FE002038BD012010
:106BB000FCE770B5837A032B18BF490215460A46D5
:106BC00018210446FFF782FE064630B132232370B7
:106BD0002046FFF722FE00251FE02A46FE21204620
:106BE000FFF7C2FF0028F3D04FF4FA612046FFF709
:106BF00058FE054608B95A23E9E732460D212046DA
:106C0000FFF764FE08B12923E1E76068FFF7CFFDD5
:106C10000028F8D12046FFF700FE284670BD13B5C6
:106C200001914FF4FA610446FFF73BFE019A30B937
:106C30005B2323702046FFF7F0FD002005E0FC21D8
:106C40002046FFF791FF0028F4D002B010BD10B528
:106C5000837A032B0A4618BF4A0219210446FFF71C
:106C600035FE30B1332320462370FFF7D6FD0020D8
:106C700010BD0120FCE738B54FF4FA610446FFF778
:106C800010FE054630B9562323702046FFF7C5FD98
:106C9000284638BD6068FD21FFF787FDF5E7F8B5A8
:106CA000044616461F46FFF7D2FF70B10025BD42CD
:106CB00006EB4521204604D0FFF7B1FF28B101358E
:106CC000F5E7BDE8F840FFF7D6BF2046FFF7A5FD82
:106CD0000020F8BD014B01221A7070474CE60320DA
:106CE000011D006800F07ABC10B50446017500680B
:106CF00000F046FC207D012104F0D2F8207D012126
:106D0000BDE8104004F0DDB8006800F04DBC00683C
:106D1000FF2100F0D1BC000037B51346074A0092AE
:106D20000025074C006825700A46294600F0CAFC79
:106D30002378002BFCD0002003B030BDD56C0B00B5
:106D40004CE60320006800F0B7BC000037B51346DE
:106D5000064A00920025064C006825702A4600F07D
:106D6000B1FC2378002BFCD003B030BDD56C0B00F8
:106D70004CE6032008B5024B1B689B68019308BDD5
:106D80006802030008B5024B1B68DB68019308BD6D
:106D90006802030008B5024B1B685B68019308BDDD
:106DA0002C02030008B5024B1B689B68019308BDC9
:106DB0002C02030008B5024B1B68DB68019308BD79
:106DC0002C02030008B5024B1B681B69019308BD28
:106DD0002C02030008B5024B1B685B69019308BDD8
:106DE0002C02030008B5024B1B681B6B019308BD06
:106DF0002C02030008B5024B1B685B68019308BDB9
:106E00001802030008B5024B1B68DB68019308BD3C
:106E10001802030008B5024B1B681B69019308BDEB
:106E20001802030008B5024B1B685B69019308BD9B
:106E30001802030008B5024B1B689B6D019308BD47
:106E40001802030008B5024B1B685B6E019308BD76
:106E50001802030008B5024B1B689B68019308BD2C
:106E60007802030008B5024B1B68DB6F019308BD75
:106E70007802030008B5034B1B68D3F884300193F4
:106E800008BD00007802030008B5034B1B68D3F867
:106E90009830019308BD00007802030008B5034B49
:106EA0001B68D3F8B430019308BD000078020300DA
:106EB00008B5034B1B68D3F8BC30019308BD000034
:106EC0007802030008B5034B1B68D3F8C430019364
:106ED00008BD00007802030008B5034B1B68D3F817
:106EE000D830019308BD00007802030008B5034BB9
:106EF0001B68D3F8DC30019308BD00007802030062
:106F000008B5034B1B68D3F8E030019308BD0000BF
:106F10007802030008B5034B1B68D3F8E4300193F3
:106F200008BD00007802030008B5034B1B68D3F8C6
:106F3000E830019308BD00007802030008B5034B58
:106F40001B68D3F8F030019308BD000078020300FD
:106F500008B5034B1B68D3F8F430019308BD00005B
:106F60007802030008B5034B1B68D3F80031019386
:106F700008BD00007802030008B5034B1B68D3F876
:106F80000431019308BD00007802030008B5024BEC
:106F90001B68DB68019308BD4802030008B5024B7B
:106FA0001B68DB69019308BD4802030008B5024B6A
:106FB0001B681B6A019308BD4802030008B5024B19
:106FC0001B685B6A019308BD4802030008B5024BC9
:106FD0001B689B6A019308BD4802030008B5024B79
:106FE0001B68DB6A019308BD4802030008B5024B29
:106FF0001B685B6C019308BD4802030008B5024B97
:107000001B68DB6C019308BD4802030008B5024B06
:107010001B685B6D019308BD4802030008B5024B75
:107020001B681B6F019308BD4802030008B5024BA3
:107030001B685B69019308BD6402030008B5024B3D
:107040001B68DB68019308BD3C02030008B5024BD6
:107050001B681B69019308BD3C02030008B5024B85
:107060001B685B69019308BD3C02030008B5024B35
:107070001B689B69019308BD3C02030008B5024BE5
:107080001B68DB69019308BD3C02030008B5024B95
:107090001B681B6A019308BD3C02030008B5024B44
:1070A0001B689B6A019308BD3C02030008B5024BB4
:1070B0001B68DB6A019308BD3C02030008B5024B64
:1070C0001B681B6C019308BD3C02030008B5024B12
:1070D0001B681B6A019308BD2802030008B5024B18
:1070E0001B685B6A019308BD2802030008B5024BC8
:1070F0001B689B6A019308BD2802030008B5024B78
:107100001B68DB6A019308BD2802030008B5024B27
:107110001B681B6B019308BD2802030008B5024BD6
:107120001B685B6B019308BD2802030008B5024B86
:107130001B681B6C019308BD2802030008B5024BB5
:107140001B681B68019308BD3002030008B5024BA1
:107150001B685B69019308BD3002030008B5024B50
:107160001B68DB69019308BD3002030008B5024BC0
:107170001B681B6A019308BD3002030008B5024B6F
:107180001B685B6A019308BD3002030008B5024B1F
:107190001B689B6A019308BD3002030008B5024BCF
:1071A0001B689B6B019308BD3002030008B5024BBE
:1071B0001B68DB6B019308BD3002030008B5024B6E
:1071C0001B681B6C019308BD3002030008B5024B1D
:1071D0001B685B6C019308BD3002030008B5024BCD
:1071E0001B681B68019308BD4C02030008B5024BE5
:1071F0001B685B68019308BD4C02030008B5024B95
:107200001B681B69019308BD4C02030008B5024BC3
:107210001B685B69019308BD4C02030008B5024B73
:107220001B689B69019308BD4C02030008B5024B23
:107230001B68DB69019308BD4C02030008B5024BD3
:107240001B681B6A019308BD4C02030008B5024B82
:107250001B685B6B019308BD6002030008B5024B1D
:107260001B681B6D019308BD6002030008B5024B4B
:107270001B681B68019308BD2002030008B5024B80
:107280001B685B68019308BD2002030008B5024B30
:107290001B685B69019308BD2002030008B5024B1F
:1072A0001B68DB6C019308BD2002030008B5024B8C
:1072B0001B685B6D019308BD2002030008B5024BFB
:1072C0001B689B6D019308BD2002030008B5034BAA
:1072D0001B68D3F88830019308BD0000200203002A
:1072E00008B5034B1B68D3F89430019308BD000028
:1072F0002002030008B5024B1B685B68019308BDC0
:107300004002030008B5024B1B689B68019308BD4F
:107310004002030008B5024B1B68DB68019308BDFF
:107320004002030008B5024B1B681B69019308BDAE
:107330004002030008B5024B1B685B69019308BD5E
:107340004002030008B5024B1B689B69019308BD0E
:107350004002030008B5024B1B68DB69019308BDBE
:107360004002030008B5024B1B681B6A019308BD6D
:107370004002030008B5024B1B681B6B019308BD5C
:107380004002030008B5024B1B685B6B019308BD0C
:107390004002030008B5024B1B681B6C019308BD3B
:1073A0004002030008B5024B1B685B6C019308BDEB
:1073B0004002030008B5024B1B689B68019308BD9F
:1073C0004402030008B5024B1B685B69019308BDCA
:1073D0004402030008B5024B1B681B6A019308BDF9
:1073E0004402030008B5024B1B685B6A019308BDA9
:1073F0004402030008B5024B1B681B6B019308BDD8
:107400004402030008B5024B1B68DB6B019308BD07
:107410004402030008B5024B1B681B68019308BDBA
:107420001C02030008B5024B1B685B68019308BD92
:107430001C02030008B5024B1B689B68019308BD42
:107440001C02030008B5024B1B68DB68019308BDF2
:107450001C02030008B5024B1B685B69019308BD61
:107460001C02030008B5024B1B68DB69019308BDD1
:107470001C02030008B5024B1B685B6A019308BD40
:107480001C02030008B5024B1B68DB6A019308BDB0
:107490001C02030008B5024B1B681B6B019308BD5F
:1074A0001C02030008B5024B1B68DB6B019308BD8F
:1074B0001C02030008B5024B1B681B6C019308BD3E
:1074C0001C02030008B5024B1B685B6C019308BDEE
:1074D0001C02030008B5024B1B68DB6C019308BD5E
:1074E0001C020300002240681146FFF73BBF002248
:1074F00040681146FFF746BF40680022FFF73ABFD9
:107500004068002281F00101FFF724BF002340689A
:107510001A461946FFF716BF002340681A46194657
:10752000FFF708BF002240681146FFF7FBBE0022AC
:1075300040681146FFF7E6BE406800220221FFF7CF
:10754000E9BE002340681A46FFF7D4BE024B03226F
:107550005A60024A1A60704750E60320F0E30B00BD
:107560000021FFF733BE0021FFF728BE10B5044607
:1075700008462170FFF7F2FD00236360204610BD2E
:1075800013B504460078FFF7EEFF58B92078019054
:107590004FF6FF71FFF7D2FD019802B0BDE8104031
:1075A000FFF7DEBF02B010BD0078FFF7D9BF0000C3
:1075B000400830B51860002418688842E5B206D942
:1075C0000134082C02D040081860F5E70725024B6B
:1075D0005B5D137030BD00BF24E40B002DE9F04368
:1075E00006468FB000780C46FFF7BDFF00281BDB76
:1075F00035781422002109A804F08DFB0B2300220A
:1076000009A92846ADF82430FFF7B8FD9DF82D30C4
:1076100013B19DF82C5055B10027B946B846012545
:1076200023795DB1C3B100200FB0BDE8F083DDF870
:1076300030809DF834909DF83570F1E7002B35D1FE
:10764000A368434508D18DF820908DF82170BDF8CE
:107650002020A3899A42E6D00023A1688DF80F303C
:107660000A9804AB0DF10F02FFF7A2FF217985B94B
:1076700089B9A36843450ED38DF820908DF8217009
:10768000BDF82020A3899A4205D1049B434502D12D
:10769000C9E70029F9D100230193637B00939DF88A
:1076A0000F20237B3078FFF781FDBCE7CDE9005543
:1076B0002B462A460121F5E708B50078FFF746FD7D
:1076C000C0B208BD30B587B004460A9D0095007869
:1076D000FFF75CFD3DB9207802A9FFF75FFD9DF83B
:1076E0001430DB07F7D407B030BD0000054B022291
:1076F0001A60054B054A9A600020C3E90000FFF7B5
:10770000BDBD00BF64E6032058E603200000FFFF74
:1077100010B504460068FFF785FE204610BD10B581
:107720000446006808B1FFF77DFE0023C4E9013379
:10773000236010BD38B504460D4600680131FFF7DF
:1077400079FE10B1C4E90005012038BD10B5036809
:10775000044623B143688B4201D3012010BD20466B
:10776000FFF7E8FF0028F9D0A368002BF5D12268C5
:107770001370F2E737B50D46114601920446FFF744
:10778000E5FF019A28B92046FFF7C9FF204603B05C
:1077900030BDA2602946206804F095FA2268A368EB
:1077A0000021D154F2E7002313B5C0E900330446A9
:1077B0008360037341B10846019104F022FB0199F3
:1077C00002462046FFF7D6FF204602B010BD38B56E
:1077D000054600680C4668B16A688B689A4207D310
:1077E000096804F0E8FAA368AB600023A36038BD21
:1077F000FFF718FE23682B6063686B60A368AB60BB
:107800000023C4E90033F1E710B50023C0E90033D9
:10781000044683600373FFF7DAFF204610BD8842F9
:1078200010B5044605D00B682BB18A681946FFF7DE
:10783000A1FF204610BDFFF772FFFAE710B5002345
:107840000446C0E9003383600373FFF7E8FF204676
:1078500010BD13B5044659B10846019104F0D1FAA0
:10786000019902462046FFF785FF204602B010BD71
:10787000FFF755FFF9E770B505460E4609B9002038
:1078800070BD6AB1846814442146FFF75FFF002889
:10789000F5D02868AB683146184404F08CFAAC6027
:1078A0000120EDE707B500238DF80410012201A99E
:1078B0008DF80530FFF7DFFF03B05DF804FB0268C9
:1078C0000B46096862B141B9806860B110787047B1
:1078D000986840B1097848427047104604F061BA90
:1078E0000029F5D10846704708B582688B689A422E
:1078F00005D1FFF7E4FFB0FA80F0400908BD002091
:10790000FCE783688B4203D9006810B1405C704784
:1079100000207047FFF7F5BF70477047704770470A
:10792000064B994210B500F10C0405D0084603F04F
:107930008FFB002808BF0024204610BD9CE60B00EA
:10794000064B994210B500F10C0405D0084603F02F
:107950007FFB002808BF0024204610BD9CE60B00DA
:10796000064B994210B500F10C0405D0084603F00F
:107970006FFB002808BF0024204610BD9CE60B00CA
:1079800010B568210446FCF78AFB204610BD10B5EF
:1079900028210446FCF783FB204610BD10B530219A
:1079A0000446FCF77CFB204610BD6821FCF777BB42
:1079B0002821FCF774BB3021FCF771BBF0B5002522
:1079C000EC1C8C420DD86E1C445D875D974205D13E
:1079D0002644B14205D31D60601CF0BD013425442E
:1079E000EEE70020F9E70000024A03490A20FFF70A
:1079F0002DBC00BF056E0B002CE40B0030B40D460F
:107A000011461A46036809682868D3E90043A4466A
:107A100030BC6047012A38B5044602D10B682360A8
:107A200003E0022A03D0032A0DD0002038BD08202D
:107A30000D68FCF730FB03460028F0D095E8030002
:107A400083E80300EBE700680028EED00821FCF78C
:107A500026FBEAE710B5836804462BB103220146F2
:107A600098470023C4E9023310BD10B5836804466B
:107A70002BB10322014698470023C4E9023310BD0D
:107A800010B500238AB02022CDE902230446084A1B
:107A90000092084902AA0120FFF7E0FB206806498E
:107AA0000088002322460AB0BDE81040FFF700BA64
:107AB0004EE40B0043E40B00F5950B0010B50138C4
:107AC00002EB410110F8013F1B0903F13004392C8E
:107AD00088BF03F1370402F8024B037803F00F0369
:107AE00003F13004392C88BF03F13704914202F8C6
:107AF000014CE7D110BD10B504465830FCF7CEFB61
:107B000004F14800BDE81040FFF702BE38B5036835
:107B10008B4205460C4608D011B14B6801334B60CF
:107B2000286808B1FCF7F8FB2C6038BDA0F13003E1
:107B3000DAB2092A01D818467047A0F16103052B73
:107B400001D857387047A0F14103052B94BF37384F
:107B50004FF0FF307047000010B500230370044B56
:107B600004461868FFF74AFA01232370204610BD27
:107B70006CE6032010B5037804461BB1024B18686D
:107B8000FFF744FA204610BD6CE6032082B003469E
:107B9000086849686A4603C26A4603CA18601846FC
:107BA000596002B0704708B582798B799A4206D144
:107BB000062204F078F8B0FA80F0400908BD0020F1
:107BC000FCE74FF0FF33036083800020704708B567
:107BD0000246002101604160FFF7F3FF91711046FA
:107BE00008BD000010B501230361054B024603F1F7
:107BF000100153F8044B42F8044B8B42F9D110BDED
:107C0000AAE60B000B7C13F0FD0330B50DD1036128
:107C10000C4B024603F1100453F8045B42F8045B7A
:107C2000A342F9D10B88838130BD0123036101F1A7
:107C30001002034651F8044B43F8044B9142F9D12A
:107C4000F2E700BFAAE60B0010B50B460446B1B13F
:107C5000012A01F110020AD1014653F8040B41F840
:107C6000040B9342F9D101232361204610BD411E2C
:107C700012F8010D01F8010F9A42F9D1F3E7102231
:107C800004F049F8F1E738B504460D46FFF7AAFFBE
:107C900000232361A581204638BD08B502690B6920
:107CA0009A4206D1102203F0FEFFB0FA80F040099C
:107CB00008BD0020FCE7000001232DE9F34103612A
:107CC000344B0C460646024603F1100153F8040BF0
:107CD00042F8040B8B42F9D144B32421204604F02E
:107CE000BFF804284FF0000523D1ADF8045001AFD0
:107CF000A51C063415F8020CFFF718FFB0F10008B8
:107D000012DB15F8010CFFF711FF00280CDB023520
:107D100040EA0810A54207F8010BEBD19DF80530A9
:107D200033739DF8043073730023336102B0BDE8F0
:107D3000F0814FF010082421204604F091F8A84269
:107D400007D842460021304602B0BDE8F04103F0BA
:107D5000E2BFB8F1000FE9D0605DFFF7E7FE030670
:107D600015D4000108F1FF38C7B206F808702421C5
:107D7000204604F075F80135A84208D9605DFFF788
:107D8000D5FE40B20028A4BF384306F808000135EC
:107D9000D1E700BFAAE60B0013B504460191FFF737
:107DA00021FF20460199FFF787FF204602B010BD52
:107DB00010B500F10F0301391C7801F8014F83421F
:107DC00003F1FF33F8D110BD2DE9F0411F468EB00D
:107DD0000D4600295BD0DAB1D0F81080541EB8F1FE
:107DE000000F19D18389CDF814805BBA05AA02214E
:107DF00001A8ADF80430FFF761FE042C28BF04246D
:107E0000224605A9284603F05EFF05F80480621C9F
:107E100010460EB0BDE8F08101A9FFF7C9FF05AA21
:107E20007FB1102101A8FFF749FE242C28BF24248C
:107E3000224605A9284603F046FF00232B55621C65
:107E4000E6E704210DEB0100FFF738FE2D260DF1CA
:107E50001D02022102A88DF81C60FFF72FFE0DF114
:107E6000220202210DF10A008DF82160FFF726FEA3
:107E70000DF12702022103A88DF82660FFF71EFEF0
:107E80008DF82B600BAA06210DF10E00CBE70A46F8
:107E9000BEE710B58AB0044600232522084669468D
:107EA000FFF792FF69462046FFF77DFC20460AB0A7
:107EB00010BDF7B5054616461F460A4601ABD0E988
:107EC0000001FFF77BFD30F002040CD0841EBC42A1
:107ED00028BF3C463EB101992B6802312246194425
:107EE000304603F0F0FE204603B0F0BD37B5134630
:107EF0000C4601920A4608210546FFF7DAFF40B911
:107F0000019B22460921284603B0BDE83040FFF717
:107F1000D0BF03B030BD0000F0B50C4689B00C49AD
:107F20000546FFF740FC1F2269462046FFF7DEFFAB
:107F3000064650B16C46002714F8011B2846FFF78F
:107F4000B1FC10B10137BE42F6D1284609B0F0BDF0
:107F500025E20B0013460A46FF21FFF7AABF07B52B
:107F6000022301AA1921FFF7A4FF08B1BDF80400FC
:107F700003B05DF804FB000038B54FF6FF73002531
:107F8000044643800E22294605700571063003F031
:107F9000C2FE04F11400FFF725FE04F12800FFF7EC
:107FA00021FE044904F13C00FFF7FDFB6565204616
:107FB00038BD00BF25E20B0038B50D680446014608
:107FC00005F12800FFF769FE40B1AB89A28A9A4209
:107FD00005D8E08A984234BF0020012038BD002037
:107FE000FCE710B5D0E9063203EBC2029342184613
:107FF00006D0046824888C4203F10803F6D110BD32
:108000000020FCE7002370B5036005466820FCF7FC
:1080100042F8041E04F10C0607D00123C4E9013321
:10802000044B23603046FFF7A7FFC5E900642846EC
:1080300070BD00BF50E60B0070B50C6814340646E6
:1080400005460FCC0FC523682B60304670BD00007D
:10805000F0B5064685B01F460D46002950D0002ACF
:108060004ED004682378F42A28BFF42243B323793E
:10807000980709D5A08903920023FEF70FFF002877
:10808000039A03DA05B0F0BD6FF077003468237906
:10809000D90609D5012F07D0A0890023294605B0AC
:1080A000BDE8F040FEF75EBF9B06EBD5022FE9D09E
:1080B000A0890023294605B0BDE8F040FEF75CBF6B
:1080C00060884FF6FF7188421CD021794E0701D598
:1080D000012F04D10B0709D46FF07700D2E7A189F3
:1080E000009313462A46FEF701FFCBE7022FF3D099
:1080F0000023A189009313462A46FEF7EDFEC1E74F
:108100000248BFE76FF0D100BCE700BFF2FEFFFFFF
:1081100010B503681A7886B052BB5C884FF6FF70C2
:10812000844225D0188A30B3CDE903220592134A40
:108130000092134ACDE901235A88ADF80C201A8A1F
:10814000ADF80E209A89ADF8102059B11A7992062F
:1081500044BF022205921B79DB0642BF059B43F018
:108160000103059300216846FEF7F2FE06B010BD3C
:108170006FF0D100FAE76FF07700F7E7030018001F
:1081800055830B00F8B50026066005462820FBF74E
:1081900082FF041E04F10C070AD00123C4E9013355
:1081A000054B23603846FFF71DFD266284F82460E6
:1081B000C5E900742846F8BD6CE60B0070B50025D3
:1081C000056006463020FBF766FF044688B10123B0
:1081D000C0E90133094B03604FF6FF7383810E3012
:1081E000FFF7F5FCC4E90655C4E90855C4E90A558A
:1081F000A57574600C343460304670BD88E60B00A1
:1082000013B5044601A8FFF7A7FC23681C884FF6A6
:10821000FF73E41A01A818BF0124FFF7ABFC204646
:1082200002B010BD37B505460C4601A8FFF794FC17
:108230002A682368C2F802306368C2F8063001A8D1
:10824000FFF798FC03B030BD37B50D46044601A8D2
:10825000FFF782FC2A68D2F802302360D2F8063099
:10826000636001A8FFF786FC204603B030BD30B53F
:10827000054687B00C4601A8FFF76EFC2A68236804
:1082800012881B889A420DD1294602A8FFF7DCFF0D
:10829000214604A8FFF7D8FF04A902A8FFF783FC32
:1082A000044600B9002401A8FFF764FC204607B08B
:1082B00030BD000010B504466420FBF7ECFE68B149
:1082C0000023C0E90033C0E90233C0E90433C0E948
:1082D00006330362C362C363C364C365206020B90D
:1082E0000A4A0B490A20FEF7B1FF0020FEF7B2FD53
:1082F00020B1064A07490A20FEF7A8FF2168064870
:108300000022FEF71BFE204610BD00BF056E0B00CD
:108310002CE40B006AE40B00258D0B0010B50A4C11
:108320002378BFF35B8FDB070CD42046FBF7B9FE45
:1083300040B10648FFF7BEFF2046FBF7B7FE0448F2
:1083400003F0A4FC014810BD68E6032070E603209A
:1083500029860B0030B50368093B012B8DB004461C
:108360000D4611D8FFF7DAFFA1880068FFF739FE44
:10837000034658B92022CDE904200B4A00920B494C
:1083800004AA3220FEF76AFF0DB030BD6A6D002AE4
:10839000FAD0D4E9032105F14C00CDE90312AC6D0C
:1083A00004AA03A9A047EFE7ACE40B0043E40B00E9
:1083B00008B50020FEF74EFD00EAE07008BD0000A1
:1083C00070B5044618300E461546FFF743FB04F11E
:1083D0002800FFF74AFBC4E9036500222146034851
:1083E000FEF740FD0028A8BF606970BD319D0B00FD
:1083F00010B504464069FFF715F8A068FFF712F8BA
:10840000204610BD002247F67F71C0E90022C0E976
:108410000222C0E90422C0E90E22C0E91022C0E90C
:108420001222C0E91422C0E91622C0E91822C0E9CC
:108430001B2202620263A0F8681070470368D869C3
:108440000028D4BF00200120704770B5D0E9005348
:10845000044605EB0316AE4204D02846FFF758F950
:108460001035F8E72068FEF7DDFF204670BD10B537
:1084700004460068FEF7D6FF204610BD70B50446DE
:10848000C06DFEF7CFFF206DFEF7CCFF04F138057D
:1084900004F14400FFF7EBFF2846FFF7D6FF04F195
:1084A0002800FBF7FBFE04F11800FBF7F7FED4E908
:1084B0000053242606FB0356AE4204D02846FFF79D
:1084C00097FF2435F8E72068FEF7ACFF204670BD23
:1084D00030B515469FB00C4679B172B101A8FFF7CF
:1084E00091FF21462A4601A8FFF76AFF044601A82A
:1084F000FFF7C4FF20461FB030BD014CFAE700BFB4
:10850000F2FEFFFF38B5141E4368054602DB621811
:108510009A4200DD5C1A2A68501801191A44521A4E
:1085200003F0DFFB6A68121B6A6038BD38B50023B0
:108530000446836008200D46FBF7ADFD18B12B689B
:1085400003606B684360034BE360034B2060A360F0
:10855000204638BDFD790B00157A0B000B680360CF
:1085600013B15A6801325A60704710B551F8043B94
:10857000044640F8043BFFF7F1FF23680BB9FFF70F
:1085800033FA204610BD10B551F8043B044640F8BC
:10859000043BFFF7E3FF204610BD10B551F8043B44
:1085A000044640F8043BFFF7D9FF204610BD10B544
:1085B0000446006808B1FBF7AFFE204610BD10B5B9
:1085C00004460430FFF7F3FF204610BD70B5D0E934
:1085D0000053044605EBC306AE4204D0281DFFF746
:1085E000E6FF0835F8E72068FEF71CFF204670BD5F
:1085F00070B5D0E90053044605EBC306AE4204D083
:10860000281DFFF7D4FF0835F8E72068FEF70AFFBA
:10861000204670BD10B504462430FFF7E9FF04F191
:108620001800FFF7D3FF10BD70B5174B1C6854B38B
:1086300004F15400FBF732FE04F14400FBF72EFE78
:1086400004F13400FBF72AFE04F12400FBF726FEB8
:10865000D4E9065305EBC306AE4204D0281DFFF74C
:10866000A6FF0835F8E7A069FEF7DCFE04F10C0070
:10867000FFF7BEFF2046FFF7A9FF20466421BDE8B3
:108680007040FBF70CBD70BD70E60320826810B52A
:108690000AB902F0DAFCBDE81040C36818472DE9BA
:1086A000F0470023C0E900338360D1F80480984587
:1086B00005460F464ADD4FEA0810FEF7ABFE0646B8
:1086C000002843D0D5E90041A04204EB011A16D995
:1086D000504515D2AAF1100AA4F11009AAEB04041E
:1086E0000444D1451DD01CB151462046FFF78CF8FB
:1086F0005046FFF70DF8AAF1100A103CF1E710D030
:10870000B146A2450DD0B9F1000F03D0214648462D
:10871000FFF77AF82046FEF7FBFF103409F1100945
:10872000EFE72868FEF77EFEC5F808802E60D7E9DF
:10873000004304EB0318A04506D021463046FFF75E
:108740007DF810341036F6E77B686B602846BDE88C
:10875000F08730B58DB00C4600F1380101A8FFF765
:108760009EFF029B002B2FDD04F1140104A8FFF7EC
:10877000D3FB04F1080108A8FFF7CEFB0A9A069B79
:1087800013431FD0DDE9014504EB0515AC4219D0B8
:1087900004A92046FFF7A8F860B1012408A8FEF755
:1087A000B7FF04A8FEF7B4FF01A8FFF74EFE20466E
:1087B0000DB030BD204608A9FFF796F81034002808
:1087C000E4D0EAE70024E9E70124EDE7F8B5002367
:1087D000C0E9003383604F689F4205460E463EDD88
:1087E000F800FEF717FE0446C8B3D5E9000384423B
:1087F00000EBC30310D99C420FD2083B1A1AA0F118
:10880000080C22449C4518D01AB1196811605968A7
:108810005160083B083AF5E70FD0014622468B42EB
:108820000BD03AB1D1F800C0C2F800C0D1F804C0F2
:10883000C2F804C008310832F1E7FEF7F3FD2C60FE
:10884000AF60D6E9003103EBC100984206D01A6848
:1088500022605A68626008330834F6E76960284687
:10886000F8BD70B504460020C4E90000A0604E6861
:1088700086420D4612DD7100FEF7DCFD70B120600E
:10888000A660D5E9003203EB42029A4204D033F8E5
:10889000021B20F8021BF8E76B686360204670BD7E
:1088A00010B50379044623B90368186808B1FEF7C8
:1088B000B9FD204610BD10B50379044623B90368FD
:1088C000186808B1FEF7AEFD204610BD2DE9F04353
:1088D000D0F86C808FB00F46B8F1000F72D0056FE2
:1088E000002D6FD001F114091F230022FF214846FB
:1088F000FFF7DFFA0837FF230446002219463846FF
:10890000FFF7D7FAAC42064606D0AE4230D000247C
:1089100020460FB0BDE8F0832046FEF77BFD03AB99
:1089200004930023044603908DF8143070B920237B
:10893000CDE90630244B00932449034606AA322091
:10894000FEF78CFC04A8FFF7ABFFE1E70246FF212E
:108950002B464846FFF7ADFA03982A46414603F0F6
:10896000A2F918B104A8FFF79BFFCEE70124E9E7BD
:108970002846FEF74FFD002403AB06460390049300
:108980008DF8144078B92023CDE906300E4B0093C2
:108990000E49034606AA3220FEF760FC344604A8BE
:1089A000FFF789FFB4E70246FF212B463846FFF761
:1089B00080FA03982A46414603F075F90028EED163
:1089C0000124ECE70124A3E7C4E40B0043E40B001B
:1089D00038B50D1E0446006803DDFEF72BFD18B9FF
:1089E00038BDFEF71FFD00202060A5600120F7E7DD
:1089F00008B583688B4202DAFFF7EAFF08BD012061
:108A0000FCE738B50023C0E9003383600D464968B0
:108A10009942044610DDFFF7DBFF68B1D5E900316C
:108A200022681944994205D00AB1187810700133B0
:108A30000132F7E76B686360204638BD38B50B68D4
:108A400003604B68436004460D4608300831FFF769
:108A5000D8FF05F1140104F11400FFF7D2FF95F8D7
:108A6000203084F82030204638BD1FB5044601A8C8
:108A7000FFF7C7FF019B029A20682360636862606A
:108A8000039A0293A368A26001900393FEF7CAFCC5
:108A900004B010BD2DE9F0410F4641681D46194450
:108AA000836899420446904612DC266862683E4418
:108AB000D21B3146701903F014F92A46414630465C
:108AC00003F001F963682B4463600120BDE8F08185
:108AD000FFF77EFF0028E8D1F8E713460A46002199
:108AE00010B50446416002B10BB9002010BDFF2B48
:108AF00028BFFF23FFF7CEFF0028F7D06068F5E717
:108B0000F8B50D46D0E901139942044616460BDA32
:108B1000276862687919521B481C03F0E2F87E55F9
:108B2000636801336360F8BD0131FFF751FF00282E
:108B3000EED1F8E70A464168FFF7E2BF2DE9F743B7
:108B400004461D460F4601AB90460A46D0E9000197
:108B50009DF82890FEF732FFAE1C63680246B9F11B
:108B6000000F26D128B333441B1AFF2B09D80199D3
:108B70002046FFF7C7FC616820463144FFF738FF05
:108B800018B9606803B0BDE8F0836A1C0199D2B2DD
:108B90002046FFF7B5FF01993A4601312046FFF71D
:108BA000AFFF01992B46424602312046FFF772FF84
:108BB000E7E7F118FF29E4D82046FFF719FF00285E
:108BC000DFD0691CC9B22046FFF7B4FF3946204602
:108BD000FFF7B0FF61682B464246E6E730B49DF8E8
:108BE00008501AB1029530BCFFF7A8BF406830BCEE
:108BF00070471FB50023C0E900338360062200934D
:108C000001238DF80F2019460DF10F020446FFF7DE
:108C1000E5FF204604B010BD8842F8B504460D4675
:108C2000164614D9904213D2A2F10806751AA1F182
:108C300008072C44B74218D01CB131462046FFF734
:108C4000ACFC301DFFF7B3FC083E083CF2E70CD04B
:108C5000B5420AD01CB129462046FFF79EFC281DCC
:108C6000FFF7A5FC08350834F2E7F8BDF7B5044670
:108C700046686846FFF791FCD4E901739F4212DB16
:108C80000137002F29DDF800FEF7C4FB0546F0B1DF
:108C9000D4E9001201EBC202FFF7BEFF2068FEF725
:108CA000C1FB2560A7602368626803EBC60603EB7F
:108CB000C202314606F10800FFF7AEFF1EB1694659
:108CC0003046FFF76AFC636801336360012501A841
:108CD000FFF76DFC284603B0F0BD0025DEE7F8B5D0
:108CE000D0E9004305460F4604EBC306A64205D073
:108CF00039462046FFF7BBFA08B114B9F8BD08346D
:108D0000F4E7201DFFF753FCD5E9003204F1080118
:108D100003EBC2022046FFF77FFF6B68013B6B60ED
:108D2000ECE700002DE9F04105468EB003A80C46A3
:108D3000FEF712FF2E68F31E0D2B3CD8DFE813F070
:108D40000E0053003B00D1003B003B003B003B00CA
:108D50003B009B009B009B009B009B0004A8FFF72F
:108D60002DFA049BAA891A80696804980831023098
:108D7000FEF70CFF04A906A8FFF70FFC06A904F1F3
:108D80001800FFF773FF054607A8FFF710FC202324
:108D90000693B5B95D4B5E49009332202B4606AA77
:108DA0000795FEF75BFA049B29461888FEF76CF8D6
:108DB00005A8FFF7FCFB03A8FEF7DCFE0EB0BDE83C
:108DC000F081544A009200235149079306AA0120DA
:108DD000FEF744FAE36A002BEAD004A904F1240068
:108DE000FFF754FCE4E7A9892046FFF7FAF80646A6
:108DF0000028E0D00568D5E906324FF6FF712980DA
:108E000003EBC2029A4203D053F8080B4180F9E702
:108E1000D5E9037307EBC308B84504D0381DFFF745
:108E2000C6FB0837F8E700232B61D5E9067307EB8B
:108E3000C308B84504D0381DFFF7B9FB0837F8E779
:108E40000023EB61AB72E36B23B1314604F13400D4
:108E5000FFF71CFC00232022CDE906232E4A0092B6
:108E60002B4906AA0120FEF7F9F9314604F1180052
:108E7000FFF735FF9FE7A9892046FFF7B2F80028E2
:108E800099D0E36C002B96D000230D2EADF8163050
:108E900001D0102E17D1002369681A4606258DF8D7
:108EA000153004918DF814200690DDE9040109AB1A
:108EB0008DF81C60089583E80300236D06A904F172
:108EC0004400984777E70F2E01BF2B7A696803F0BB
:108ED000010208250FBFC3F340031A4619461D4679
:108EE000DDE7A9892046FFF77CF8014600283FF41A
:108EF00062AFE36D002B3FF45EAF6B68069306AA8A
:108F0000236E04F15400984755E700BFDFE40B00DF
:108F100043E40B0005E50B0022E50B002DE9F043CF
:108F200007468BB06846FEF717FE3B68D3E9064557
:108F300004EBC505AC4235D02422002101A802F083
:108F4000EAFE23680022188801A9FDF7EDFF064616
:108F500008B10834EEE79DF80880B8F1010FF8D1A8
:108F6000DFF84890D9F80000FEF750F88DF800605F
:108F7000236831461888FDF787FF051E0BDBD9F8FB
:108F80000000FEF73BF838688DF800802146183065
:108F9000FFF7A5FE35466846FEF7ECFD28460BB008
:108FA000BDE8F0836FF0A905F5E700BF6CE603208C
:108FB00038B50D1E0446006805DD14216943FEF72F
:108FC00039FA18B938BDFEF72DFA00202060A560E7
:108FD0000120F7E72DE9F8430024C0E9004484604C
:108FE00088464968A14207461ADDFFF7E1FFB8B19C
:108FF000D8E900934FF0140CD7F800E00CFB039C69
:1090000009EB0405AC4508D01EEB04061FBF0FCDCD
:109010000FC62B6833601434F2E7D8F804307B6055
:109020003846BDE8F8832DE9F843D1E90087456863
:109030008368E9199942044617DC1423266862689C
:109040005D4303FB07F95A432E44521B314606EB9E
:10905000090002F046FE4A464146304602F033FE21
:1090600063683B446360BDE8F883FFF7A1FF002815
:10907000E3D1F8E782B070B50C4604A981E80C0092
:10908000D0E901139942054617DA142303FB04F1D2
:109090006A682C685A430C44521AE018214604AE00
:1090A00002F01FFE0FCE0FC4336823606B680133DC
:1090B0006B60BDE8704002B070470131FFF778FF88
:1090C0000028E2D1F5E72DE9F04F002493B0931E7C
:1090D000C0E90044DBB205460F4690468460059324
:1090E00079688C4272DA386807AB4246091B204423
:1090F000FEF764FC0646002868D0059B012B2FD89C
:10910000A0F1020B4FEA5B0B4FF000090DF13C0A96
:10911000079BCB45234455D03A6803EB49031344DE
:1091200008A8D9789B7843EA0121FEF7ACFD0DF140
:10913000200EBEE80F000DF1340CACE80F00DEF895
:109140000030CCF800309AE807008DE807000DAB3E
:109150000CCB69682846FFF78DFF09F10109D7E7B5
:10916000A8F10603012B2DD8A0F1020B4FEA1B1B1F
:109170004FF000090DF13C0ACB45079B22D002338A
:109180003968234403EB09130122194408A8FEF7A8
:109190005BFD0DF1200EBEE80F000DF1340CACE8C4
:1091A0000F00DEF80030CCF800309AE807008DE8B8
:1091B0000700DDE90D2369682846FFF75BFF09F129
:1091C0000109D9E7079B1C44344489E7284613B0BA
:1091D000BDE8F08F30B5002385B0C0E9003383606F
:1091E0000446022201A80D46FFF76DFF01A92046A3
:1091F000FFF719FF01A8FFF73AF90222294601A853
:10920000FFF761FF01A92046FFF70DFF01A8FFF757
:109210002EF90322294601A8FFF755FF01A9204690
:10922000FFF701FF01A8FFF722F90622294601A84E
:10923000FFF749FF01A92046FFF7F5FE01A8FFF758
:1092400016F90722294601A8FFF73DFF01A920468C
:10925000FFF7E9FE01A8FFF70AF9204605B030BD87
:109260002DE9F04385B08846014601A89146FFF7F5
:10927000B1FF019E029B4FF0140E0EFB036C002702
:10928000B4450DD0B94506F1140609D0A6F1140570
:109290000FCD0EFB07840FC42B6823600137EFE767
:1092A00001A8FFF7E4F8384605B0BDE8F0832DE9E2
:1092B000F04F8BB00C4600F1440101A8FFF78AFE85
:1092C000029B002B4ADD04F1140104A8FFF782FF82
:1092D00004F1080107A8FFF77DFF059D089E002DFA
:1092E00001DC002E38DD019A029FDDF81080DDF8E8
:1092F0001C90142303FB072703FB058503FB06963D
:109300009246BA4528D0C346AB4515D0594650467B
:10931000FEF7C3FC0BF1140B04460028F4D007A899
:10932000FFF7A5F804A8FFF7A2F801A8FFF79FF838
:1093300020460BB0BDE8F08FCB46B34509D0594667
:109340005046FEF7AAFC0BF1140B04460028F4D09B
:10935000E5E70AF1140AD4E70024E0E70124E4E792
:1093600013B50B460246D0E900016C4684E80300C1
:1093700093E8030082E8030094E8030083E8030015
:1093800002B010BD38B505460C46FFF7E9FFAB68E3
:10939000A268AA60A360EB68E268EA60E36038BD97
:1093A00030B585B0002302938B6805460C4633B177
:1093B000022268469847E3680393A368029329460C
:1093C0006846FFF7DFFF6846FAF768FF05B030BD73
:1093D00038B50D4601684B6D044623B128684C3101
:1093E0004C30FFF7DDFF20462B6840F8043B6968EE
:1093F000FEF78CFB204638BD2DE9F043044687B0CC
:1094000068460E461746FEF7A7FB2368D3E90643D6
:1094100004EBC3084445A14616D0214601A8FEF737
:109420000BFE394601A8FEF738FC08340546002833
:10943000F0D049463046FFF7CBFF6846FEF79AFB6F
:10944000284607B0BDE8F0830025F6E710B50468AC
:109450008AB04C34B9B1CDE9001202A86946FFF7D1
:1094600065F8002306A902A80893FFF78BFF2146A1
:1094700006A8FFF787FF06A8FAF710FF02A8FAF779
:109480000DFF0AB010BD0491EBE78842F8B5044621
:109490000D46164614D9904213D2A2F10806751A49
:1094A000A1F108072C44B74218D01CB13146204620
:1094B000FFF769F8301DFFF77AF8083E083CF2E73D
:1094C0000CD0B5420AD01CB129462046FFF75BF804
:1094D000281DFFF76CF808350834F2E7F8BD70B5C1
:1094E0000E1E054611DDF000FDF794FF044658B14D
:1094F000D5E9001201EBC202FFF7C7FF2868FDF7AC
:1095000091FF2C60AE60012070BD0024F6E72DE9CC
:10951000F0410023C0E9003383600D464968994259
:10952000044613DDFFF7DBFF80B1D5E90063276850
:1095300006EBC308B04507D01FB131463846FFF7E8
:1095400022F808360837F5E76B6863602046BDE807
:10955000F08137B50D46044601A8FEF7FDFA2968EB
:1095600020460C31FFF7D3FF01A8FEF703FB20468E
:1095700003B030BD38B50B689B7A05460C4633B94D
:109580000846FEF77DFA10B9236801229A72284630
:109590002146FFF7DEFF284638BD73B5044645680F
:1095A0006846FEF7F0FFD4E90113994210DA236808
:1095B000626803EBC50503EBC202294605F108000A
:1095C000FFF763FF8DB9636801336360012606E02E
:1095D00001312046FFF783FF06460028E7D101A8A6
:1095E000FEF7E5FF304602B070BD69462846FEF73B
:1095F000CAFFE8E72DE9F04FDFF8B890DFF8B8A030
:1096000093B00546884600272B68BB424ED903A875
:10961000FEF7B8FD1C266A68039C7E4332440DF1B8
:10962000140C131DE346143218685968E646AEE878
:10963000030008339342F446F6D11868CEF80000D0
:1096400059460AA8FEF7DEFA0DF1280CBCE80F0017
:109650000FC4DCF8003023606B68039A334403A91D
:109660001B8B93826B6833445B8BD382D8F80000EA
:1096700000F10C040AA8FEF786FF20460AA9FFF7AE
:109680008CFF04460BA8FEF792FF54B92023CDE9C6
:109690000A34CDF8009023460AAA51463220FDF73D
:1096A000DDFD04A8FEF783FF0137ADE713B0BDE889
:1096B000F08F00BF41E50B0043E40B008842F8B592
:1096C00004460D46164614D9904213D2A2F108065C
:1096D000751AA1F108072C44B74218D01CB13146C5
:1096E0002046FEF742FF301DFEF761FF083E083CB2
:1096F000F2E70CD0B5420AD01CB129462046FEF74D
:1097000034FF281DFEF753FF08350834F2E7F8BD93
:1097100070B50E1E054611DDF000FDF77BFE044618
:1097200058B1D5E9001201EBC202FFF7C7FF286864
:10973000FDF778FE2C60AE60012070BD0024F6E7D6
:109740002DE9F0410023C0E9003383600D464968EC
:109750009942044613DDFFF7DBFF80B1D5E90063D2
:10976000276806EBC308B04507D01FB1314638461D
:10977000FEF7FBFE08360837F5E76B6863602046A6
:10978000BDE8F08137B50D46044601A8FEF7E4F9BF
:10979000296820461831FFF7D3FF01A8FEF7EAF940
:1097A000204603B030BD73B5044645686846FEF7F1
:1097B000DCFED4E90113994210DA2368626803EBF6
:1097C000C50503EBC202294605F10800FFF776FF45
:1097D0008DB9636801336360012606E001312046DC
:1097E000FFF796FF06460028E7D101A8FEF7DFFE47
:1097F000304602B070BD69462846FEF7B6FEE8E77F
:10980000F0B585B0054601A80C461746FEF7A4F949
:109810000023C5E90033AB602368D3E9064604EBB7
:10982000C606B44211D038682146FEF7C5FB50B1D8
:10983000214602A8FEF799FE02A92846FFF7B3FFCA
:1098400003A8FEF7B4FE0834EBE701A8FEF792F98F
:10985000284605B0F0BD00002DE9F0430B689B7A67
:1098600091B006460F46904633B9C0E90033836095
:10987000304611B0BDE8F08311680D7E002D58D13F
:1098800020232A4603A8CDE90835FEF702FB039BF7
:1098900001932B4B2B49009308AA2B460120FDF77F
:1098A000DDFC03A8FDF734FF1C23ADF82230D8F807
:1098B00000309A8AADF83820DB8AADF83A303B6840
:1098C000214A1888009508A9FDF7FCFA002830DB2A
:1098D0003B68D3E9064304EBC3090834A4F1080349
:1098E000994522D054F8083CDB89002BF5D0102292
:1098F00000210DEB0200039502F00DFA54F8083C2C
:10990000D9893B6803AA188800951323FDF7F8FA54
:109910000028E2D010AB184403A900F8345C54F8D6
:10992000080C3C30FDF795FFD7E7D8F8003001224E
:109930001A76424639463046FFF762FF98E700BF85
:1099400066E50B0043E40B00F19A0B00F0B50B68E1
:109950009B7A85B006460D462BB901A8FFF70AFE93
:1099600001A8FEF733FE2B68D3E9034704EBC707D2
:10997000BC4209D02246294601A8FFF76DFF01A885
:10998000FEF736FE0834F3E730462946FFF7FAFEC5
:10999000304605B0F0BD00002DE9F043054693B018
:1099A000086807920F46496898460AAC414B0493F1
:1099B00003C405AB4FF0000983E80300CDE9089923
:1099C000FEF7ACFC3C4B0893FEF7A8FC2968036843
:1099D00009934A4604A8FDF79DFA0AAE044638B139
:1099E0002B684FF6FF721A80204613B0BDE8F08353
:1099F00039462846FEF716FC03A8FEF7ADF8FEF739
:109A00008DFC0768294618373046FEF7C6FD3146FB
:109A10003846FFF72BF907460BA8FEF7C8FD4FF0B5
:109A200020091FBB3246254B254E26490093322084
:109A30002346CDE90A94FDF711FC3068FDF7E6FAFC
:109A40002B688DF80C40214618881F4CFDF71CFA36
:109A50003068FDF7D3FA01238DF80C302B684FF6F0
:109A6000FF721A8003A8FEF785F8BDE703A8FEF78A
:109A700081F8164B00931349234632460120CDE965
:109A80000A94FDF7EBFBB8F1000FADD02946304644
:109A9000FFF75CFFDDE90A5305EBC307BD4205D0C4
:109AA00028460121FEF734FB0835F7E73046FEF77C
:109AB0009FFD99E703001800258D0B0098E50B002A
:109AC0006CE6032043E40B00FCFEFFFFB4E50B0053
:109AD00013B50446CDE90032FEF770FB009B0199F7
