:02000002D0002C
:1040000000400D00E4F90D00000006001700050156
:084010000401E80500000000B6
:04401800BCEA0D00F1
:1040200009480A49884208B505D0094A824202D0A7
:10403000121A08F0DCFA0748074A0021121A08F0A1
:10404000FCFA014808BD00BF60D30320B4F80D009E
:1040500068D4032068D40320F0E7032070B507F08C
:104060007BFA074C074BE41AA40800251E46A5421C
:1040700004D056F8253098470135F8E770BD00BFE9
:10408000A4F80D0024F80D0001F054B808B500F0B4
:10409000F1FFBDE8084007F021BA03F0CBBF03F001
:1040A000D1BF03F0CFBF000008B5034A00210C20A8
:1040B00003F0E2FEFEE700BF197B0D000078B0FAC6
:1040C00080F0400970470123037070477047006A11
:1040D0000368DB6818477047037C03F00803024657
:1040E00003F0FF002BB1D36A506A181A48BF6FF073
:1040F000004070470D4B1A780D4B1B789B0043EA2C
:1041000042030C4A127813430B4A127843EAC20363
:104110000A4A127843EA0213094A127843EA421320
:10412000084A1370084B01221A70704732DB0320D3
:1041300031DB03202EDA0320CCE2032014E203203B
:1041400084D40320D4E20320B8E203200368184794
:10415000012A02D0022A02D004E0016002E00B68CA
:1041600000B1036000207047704700007FB5024631
:1041700008461379956833B13DB90C4904B0BDE8E0
:10418000704006F001BD0A4B00E00A4B167B0A4C5A
:104190000A49527B0292012E08BF214601910095E7
:1041A000074A002106F02DFD04B070BD6DEB0D0037
:1041B00085EF0D005CEB0D0065EB0D0069EB0D006C
:1041C00083EB0D0010B53421044607F096FA204623
:1041D00010BD436913B183690C3018477047103024
:1041E00002F014B907B502AB012203F8011D10302B
:1041F000194602F00BF903B05DF804FB103002F031
:1042000079B8103001F050BF07B501220DF1070158
:10421000103001F096FE01280CBF9DF807004FF00A
:10422000FF3003B05DF804FB13B5002104460846D7
:1042300003F01AFC02A90023204641F8043D03F0D4
:104240002BFC019C0CB1012323710021012003F000
:104250000BFC2CB1236820469B68984700232371F0
:1042600002B010BD10B50446006808B103F0EAFEC4
:10427000204610BD10B5054B00220446114640F8FB
:10428000043B03F019FE204610BD00BF10EB0D00EB
:1042900010B50446FFF7EEFF2046202107F02DFA67
:1042A000204610BD0A4B10B50446036005F074FCAF
:1042B000214605F061FE07F0CDF807F0BFF8204673
:1042C000044B40F8043B05F05DFD204610BD00BFE7
:1042D00024EB0D00F8EA0D0010B50446FFF7E2FFED
:1042E0002046242107F009FA204610BD10B5836846
:1042F000044613B1032201469847204610BD0368C7
:10430000C9B29B6818470000F0B500258E461549D4
:104310000571856045610160044692E8030085B03F
:1043200002AF04F10C0687E8030096E8030082E878
:10433000030097E8030086E80300916860699060D5
:104340006161D168A069D060A1618DE82800064A4A
:104350002346714604F1080003F08EFB204605B0A9
:10436000F0BD00BFE4EA0D0029420D0007B58068EA
:10437000002338B18DE80A00022103F095FBB0FA62
:1043800080F0400903B05DF804FB000038B5104B25
:10439000036083680446A3B16FF000410022FFF779
:1043A000E5FF0021A06803F0A7FB237903F0FF05D8
:1043B00013B103F041FBF8E72946A06803F064FB62
:1043C000A56004F10C00FFF791FF204638BD00BF47
:1043D000E4EA0D0010B50446FFF7D8FF20461C2183
:1043E00007F08BF9204610BD37B5054600220C4674
:1043F0001146FFF7BBFFA868002340B1019300946A
:104400001A46194603F050FBB0FA80F0400903B099
:1044100030BD10B504460022407C03F077FD637C7C
:104420000F2B18BF208310BDF8B52E4B2E4D1B78D7
:1044300033B16B7C0F2B4FD1FF236B611E2147E003
:104440002A4B1B785BB92A4B1B785BB9294B1B782D
:10445000002B15BF0A2714270226032604E0142781
:10446000022601E014270126234A244B14781B78E6
:10447000A40044EA4304224B1B781C4364B206F0B8
:10448000E9FF23461F4A0121013C06F0BAFB062C36
:1044900014D8DFE804F0100E0B09060416001A4BBE
:1044A00011E06FF07F430EE0FF230CE04FF47F43F9
:1044B00009E0164B07E04FF0FF1304E04FF47F03D1
:1044C00001E04FF6FF736A7C0F2A08D16B61394611
:1044D0000548FFF79EFFF8BD02236B74ACE7024A64
:1044E0005674F3E7CCE20320C8DA032084D4032017
:1044F00033DB032014E2032031DB032032DB032013
:104500002EDA0320A1EB0D0000FFFF000060FF008A
:1045100013460A460149096801F029BF0CE303204C
:1045200030B585B01C4B009313798DF80430936837
:104530000293137B8DF80C3000F58C65537B8DF85E
:104540000D3004460A466B4600F26C41284602F0E4
:1045500059FEF0B1256004F23C45284601F000FF09
:104560000121204602F0F2FC014668B121462846AE
:1045700001F0CFFC68B194F83C3413F0700316BF1F
:10458000064B18461D6005E0204602F0DFFC0028BF
:10459000ECD1002005B030BDD8EA0D000CE30320BB
:1045A000014801F0BBBB00BF90D4032013B5002429
:1045B00001940094012322460349044803F0D2FCED
:1045C000034B1C7002B010BDE14A0D00ACEB0D00B6
:1045D0002EDA032010B506F0B1FE0C4A002106F0D9
:1045E00010FB142003F05EFD06F0A8FE084A00212F
:1045F00006F007FB142003F055FD06F09FFE012393
:10460000044A0021BDE8104006F0FBBA84EF0D001B
:104610006BEB0D00B2EB0D0010B507F043F8074C43
:104620000146204603F03DF8204603F05BF807F012
:1046300039F80349BDE8104004F0C4BE30E203205D
:10464000801A060008B5074803F06CF9064B187D80
:1046500030B1064A99691160DA69054B01201A6088
:1046600008BD00BF30E2032090D40320E8DA032025
:1046700008DB032038B5046805467CB16368013B5C
:1046800063605BB9236820469B689847A368013B39
:10469000A3601BB923682046DB689847284638BDCD
:1046A00030B5084B1B788FB053B100250FCD01AC4E
:1046B0000FC40FCD0FC40FCD0FC42B682380FFDEB6
:1046C0000FB030BD30DB032070B50468436814269A
:1046D000054606FB0346A64204D0204606F044FCED
:1046E0001434F8E7286803F0ADFC284670BDF0B537
:1046F0000E4691B000210446016041600BAD1946A1
:1047000006A8174603F05AFE1699284603F056FEEF
:1047100010AA3B7802F82C3D189B0293179B01933B
:104720002046009506AB314604F0B6FB204611B09A
:10473000F0BD13460A46012106F063BA10B5002207
:10474000ACB053495348FFF7E3FE80B303F0C4FF16
:1047500004F05BF80446F0B903F0BEFF22464E4970
:1047600004F036F80A2003F09DFCEFE7262201460C
:1047700009A807F062FF494909A807F0C0FF2346CE
:10478000262209A9464803F0F5FE962003F08AFC8C
:10479000444801F0E5FD00223E49424801F06BFD2E
:1047A00040B103F099FF04F030F8C8B902E03E4B85
:1047B00018706BE0374801F0D3FD2622002109A8CC
:1047C00007F03BFF394909A807F099FF002326228B
:1047D00009A9334803F0CEFE334B00221A7055E08E
:1047E0001E2201A92F4801F005FF06F033FE3049D3
:1047F00001AAFFF79EFF01A807F089FF01AB04386B
:10480000184407F08DFF2B4907F0D2FF0028BFD0D6
:104810002622002109A807F010FF274909A807F060
:104820006EFF01A909A807F039FF06F013FE09AAD7
:104830002249FFF77EFF0023262209A9184803F02A
:1048400099FE06F007FE01AA1D49FFF772FF9620A8
:1048500003F028FC1B48FFF73FFC0446002885D0E6
:104860006422002113A807F0E8FE13AA64230D2197
:10487000144806F036FB0023642213A9084803F00D
:1048800079FE4FF4FA7003F047F9E3E72CB010BD5E
:10489000DBEB0D00A8D9032074D9032021EC0D0017
:1048A00088D4032040DA0320CCE203202AEC0D0058
:1048B00033EC0D005CEC0D00DDEB0D00E6EB0D00C4
:1048C000F9EB0D0030DA03202DE9F04385B0837851
:1048D000412B00AF0646894602D1C378422B04E043
:1048E000422B40F09680C378312B40F092803046C6
:1048F00007F00DFF20F00700E846ADEB000D6C4619
:104900000425304607F003FF854211D2062D9BBFD8
:1049100007F110035B196319725D8CBF725D03F8B8
:10492000102C05F1010588BF03F8072CEDB2E8E76C
:104930003A49381D07F0D9FE002865D03849381D9E
:1049400007F0D3FEB8B923783B7263787B72A37803
:10495000BB72E3783B7323797B7307F108006379BB
:10496000BB7307F01CFD2F4C207007F10C0007F003
:1049700016FD207048E02C49381D07F0B6FE18B926
:104980002A4B83F800903FE02949381D07F0ADFE1F
:10499000F0B9284D06F05EFD214606F008F92B7CA3
:1049A00083B944F20222244905F11000FFF7B0FD5B
:1049B000224622492846FFF7BCFE05F1100001F00F
:1049C000CFFC21E022461D492846FFF7B2FE1BE03E
:1049D0001B49381D07F089FEB0B11A49381D07F090
:1049E00084FE88B11849381D07F07FFE60B9174B67
:1049F00001221A70164B5A7C0F2A07D1FF221E2162
:104A000013485A61FFF705FDC54602E002225A74B9
:104A1000F4E71437BD46BDE8F08300BF61EC0D003C
:104A200065EC0D00C1E2032069EC0D0030DB0320D2
:104A30006DEC0D00D8E2032008DA032071EC0D00C4
:104A400094EC0D0098EC0D009CEC0D00CCE20320E2
:104A5000C8DA032098B5CB1D23F0070300AFADEBF8
:104A6000030D6C4600238B4203D0C25CE254013339
:104A7000F9E706F0EFFC134906F099F806F0EAFCB6
:104A8000214606F094F8012211462046FFF71CFF4C
:104A900003F052F80C4B18600C4B1B7883B10C4898
:104AA000037C2BB944F202220A491030FFF730FD93
:104AB000224609490648FFF73CFE084801F050FC31
:104AC000BD4698BDA0EC0D00CCD903201CE203200C
:104AD000D8E2032008DA0320B0EC0D00E8E203205E
:104AE00010B50C46002204212046FFF7EDFE0B4BCB
:104AF0001B7893B10A48037C2BB944F2022209497E
:104B00001030FFF705FD224607490548FFF711FE63
:104B10000648BDE8104001F023BC10BD1CE2032094
:104B2000D8E2032008DA0320D0EC0D00E8E20320ED
:104B30002DE9F043304EDFF8D88089B000AF06F0A1
:104B4000FDFB03681B699847002850D006F0F6FB70
:104B50000A220146384606F0DFF9BB68073323F026
:104B600007036D46ADEB030DE9466C46BB68C9EB28
:104B700004018B4205D9384606F0A8FA04F8010B67
:104B8000F4E7012202214846FFF79EFE06F062FC90
:104B90001A4906F00CF806F05DFC396806F007F8D3
:104BA00002F0CAFF98F800303060DBB11448037C93
:104BB0002BB944F2022213491030FFF7A9FC394601
:104BC00007F1100006F039FA07F110030E4A0C48FD
:104BD000012106F016F807F1100006F0C5F90B48A0
:104BE00001F0BEFB384606F0BFF9AD46A7E7243713
:104BF000BD46BDE8F08300BFBCE20320F0EC0D0031
:104C0000D8E2032008DA032002ED0D00E8E20320D9
:104C10001CE2032013460A46012105F0F2BF000002
:104C200010B503F097F9294C08B1012310E023785F
:104C30007BB12748037C2BB944F20222254910306E
:104C4000FFF766FC1E2224492148FFF7E3FF0023FB
:104C5000237002F071FF214B214C1B68C01A47F2F0
:104C60003053984211D923786BB11948037C2BB982
:104C700044F2022217491030FFF74AFC1E2216495F
:104C80001348FFF7C7FF002300E00123237002F061
:104C900053FF144B144C1B68C01A47F23053984210
:104CA00011D923786BB10A48037C2BB944F2022254
:104CB00008491030FFF72CFC1E220C490448FFF76E
:104CC000A9FF002300E00123237010BD2EDA03208A
:104CD000D8E2032008DA032023ED0D00BCE2032014
:104CE00032DB0320CCD9032031DB032074ED0D002F
:104CF00037B5044610EE100A0D4606F0C7FF2A46E7
:104D0000CDE900010121204605F07BFF03B030BD55
:104D10002DE9F04F8A4DA9B002F00EFF2B688342B7
:104D20001AD2884E3378002B63D115E023A807F000
:104D300033FB51EC100B07F0DFFA074606F08AFB55
:104D400000EE107A8049FFF7D3FF804B86F8009081
:104D50001B78002B40F006817D4C02F0EDFE2368AD
:104D6000834280F06B8102F0E7FE00F6C410206001
:104D700002F0E2FE00F23930286006F093FC632175
:104D800004F05FFB06F08EFC7221FFF7B8FA06F024
:104D900089FC04F05DFB06F085FC642104F051FB06
:104DA00006F080FC7221FFF7AAFA06F07BFC04F003
:104DB0004FFB06F077FC652104F043FB06F072FC24
:104DC0007221FFF79CFA06F06DFC04F041FB06F03F
:104DD00069FC662104F035FB06F064FC7221FFF7E4
:104DE0008EFA06F05FFC04F033FB564B01221A707A
:104DF00024E106F057FC01231422632104F008FB90
:104E000006F050FC03685B6998470DF14F0406F00B
:104E100049FC03681B69984738B106F043FC0368F6
:104E20005B69984704F8010FF1E714A807F0B4FA9A
:104E300051EC100B07F060FA464C206006F00AFBBC
:104E400094ED000A4449FFF753FF06F02BFC0123C1
:104E50001422642104F0DCFA06F024FC03685B6988
:104E600098470DF1630706F01DFC03681B6998471E
:104E700038B106F017FC03685B69984707F8010F23
:104E8000F1E719A807F088FA8DED0E0B06F0E2FAAB
:104E90009DED0E0B074651EC100B07F02DFA2F4934
:104EA00000EE100A3846FFF723FF06F0FBFB012354
:104EB0001422652104F0ACFA06F0F4FB03685B6988
:104EC00098470DF1770706F0EDFB03681B699847DB
:104ED00038B106F0E7FB03685B69984707F8010FF4
:104EE000F1E71EA807F058FA51EC100B07F004FA8E
:104EF000804606F0AFFA00EE108A1949FFF7F8FE77
:104F000006F0D0FB01231422662104F081FA06F09A
:104F1000C9FB03685B6998470DF18B0706F0C2FB7C
:104F200003681B699847814600283FF4FFAE06F0EE
:104F3000B9FB03685B69984707F8010FEEE700BF0C
:104F40006CD90320C0E20320E8ED0D0033DB032021
:104F500070D90320D0D90320C3ED0D00CAED0D0098
:104F6000D7ED0D0006F068F9064606F05BF98146BC
:104F700006F06AF9824606F037F9834606F03EF9F4
:104F80000E9006F045F90E9B049003938DE8000EF9
:104F900033462F4A102110A803F06CF82D48037CEB
:104FA0002BB944F202222C491030FFF7B1FA4046E7
:104FB00006F06CFECDE90C01284B186806F066FE81
:104FC000CDE90A01264B186806F060FECDE908011C
:104FD000206806F05BFECDE90601384606F056FE75
:104FE000CDE904011F4B186807EE900AF8EEE77A46
:104FF00017EE900A06F04AFE13A3D3E9002306F049
:10500000C3FFCDE90201184B186807EE900AF8EECD
:10501000E77A17EE900A06F039FE0BA3D3E90023D6
:1050200006F0B2FF10ABCDE90001104A094801219A
:1050300005F0E7FD0E4801F093F98DE629B0BDE8D3
:10504000F08F00BFAFF300800000000080842E418D
:10505000F8ED0D0030DA032054DB032050DB032091
:10506000D0E2032008DB0320E8DA032011EE0D0074
:1050700040DA032008B5FFF7E5FAA8B1124B9FED1F
:10508000137AD3ED007A124BF8EEE77AC7EE876A0F
:10509000C3ED006A0F4BD3ED007A0F4BF8EEE77AC1
:1050A000C7EE876AC3ED006AFFF732FEFFF740FDE7
:1050B0000A4B1B780BB1FFF741FBFFF7F1FA6420B5
:1050C000BDE8084002F0EEBFE8DA0320002474498E
:1050D00018E2032008DB032074DB0320CCE203206A
:1050E00038B5094D296811F001040AD12846FEF7A8
:1050F000E5FF30B12146054805F0D8FD2846FEF70A
:10510000E2FF024838BD00BF78D403207CD40320DE
:1051100008B5FFF7E5FF4FF6FF72002105F0E1FD4E
:10512000FFF7DEFF01220249BDE8084005F076BE28
:1051300040420F002DE9F0478C488D4D037C8D4C8B
:1051400003F0030343F0780392B0037400220121BB
:10515000043002F0B1FE03F0BFFA03F003FB06F0E7
:1051600079F94FF4165106F065F906F0E7F80422D4
:105170004FF4165106F0D4F8FFF7CAFFFFF72AFAEA
:10518000FFF74AFAFFF712FA7B4B01271F7002F074
:10519000D3FC7A4B186002F0CFFC794B2F7018606B
:1051A000784B277000261E70774B1E70774B1E7051
:1051B00003F092FA764A01460DA803F021FF0DA8EC
:1051C00003F049FB03F088FA724A01460DA803F088
:1051D00017FF0DA803F03FFB03F07EFA6E4A01466D
:1051E0000DA803F00DFF0DA803F035FB6B4906A8D1
:1051F00007F085FA31238DF82130694B1F70694B18
:105200000DA8196803F0DAF80DA803F023F8074693
:105210000DA847B903F03CF80097ADF8240002232D
:1052200009AA032105E003F038F80096102302468E
:1052300007215D4803F0E5F80023082258495A4841
:1052400003F040F903F048FA0022574903F0C0FA8E
:1052500006F028FA04F0BAF806F024FA534904F0EC
:10526000B1F805F0E9FF064605F0DCFF074605F05A
:10527000EBFF804605F0B8FF814605F0BFFF824690
:1052800005F0C6FF33464A4A049010218DE8800796
:1052900009A802F0EFFE4749474807F030FA09A98C
:1052A000454807F0FBF94449444807F028FA4449C7
:1052B000414807F0F3F94349404807F0EFF906F099
:1052C000C9F83D4905F073FC06F0C4F83B4905F008
:1052D0006EFC6FF000413C48FFF786F86FF000412C
:1052E0003A48FFF781F83A4A3A4B0F9201220D9360
:1052F0008DF8402000230DAA082137488DF838305A
:105300008DF84130FFF70CF9064630B906F0A2F8E7
:10531000324905F04CFC2E7026702B787BB130485A
:10532000037C2BB944F2022223491030FFF7F0F836
:105330002C492B4805F03BFC2B4801F011F8237851
:1053400083B12A48037C2BB944F202221B49103056
:10535000FFF7DEF8012226492448FFF75BFC2548C9
:1053600000F0FEFF12B0BDE8F08700BFC8DA0320EE
:1053700033DB03201CE2032014E2032070D9032056
:105380006CD90320C0E20320CCE2032030DB0320F1
:10539000D4D40320E0D4032088D4032029EE0D00C8
:1053A00026DA032064D3032074D90320801A060070
:1053B000F8ED0D0033EE0D0054DB032008DA032076
:1053C0005CEC0D003CEE0D0034DB0320ECDA032036
:1053D00000093D00D8EA0D00E8D4032045EE0D0099
:1053E00030DA03206AEE0D0040DA0320D8E2032011
:1053F000C0EE0D00E8E203208842F8B506460C46F0
:10540000154616D9904215D2A2F114056C1AA1F1D5
:1054100014070444AF421CD02CB12946204605F0A5
:1054200093FD2B7C2374284605F09EFD143D143C0F
:10543000F0E70ED0AC420CD02EB12146304605F03C
:1054400083FD237C3374204605F08EFD143414361E
:10545000F0E7F8BD2DE9F04100230360436083606D
:105460004E689E4204460F4624DD4FF0140808FBA8
:1054700006F002F0DFFD0546E0B194E8060008FB07
:105480000212FFF7B9FF206802F0DCFD2560A6607C
:105490003E687B6808FB0368464509D02DB131465C
:1054A000284605F0CAFD337C2B7414361435F3E717
:1054B0007B6863602046BDE8F081000070B5AF4BAB
:1054C000AF4C92B001251D7002F04EFB002323600B
:1054D000A380A37123814FF6FF736381032002F041
:1054E000FDFCA84AA849204606F002F9A74CA849A5
:1054F000A848642200F006FBA74802F0ABF8236836
:10550000DB070AD42046FEF7D9FD30B12946A3486F
:1055100005F0CCFB2046FEF7D6FDA14BA148A24DDD
:10552000A2490560642283F86024A14AC3F870246C
:105530000122002483F874244FF47A76974AC3F842
:105540006C24DC7183F83C4483F83D4483F86A445E
:10555000C3F8784483F87C4483F87D448660894AA4
:1055600004744474446006F0C3F89248854A866027
:105570008E49047444744460056006F0B9F88E489E
:10558000804A8A498660047444744460056006F069
:10559000AFF805940694079405F05CFF05A906464C
:1055A00008A8864DFFF756FF08A90BA8FFF752FF82
:1055B000834B2B600BA90EA8FFF74CFF0EAA1E21F0
:1055C000281D04F040FE0EA8FFF77EF80BA8FFF799
:1055D0007BF87C4B2B602E6208A8FFF775F87A4B9E
:1055E0002B6005F037FF4FF4165105F023FF04F050
:1055F000D3FA294604F0BAFD05A8FFF765F8614A19
:1056000072492846724D06F073F8029401942B6893
:105610000093704B70491B68704810260EAA8DF8D5
:105620003860FFF764F8574A6D496C4806F060F837
:1056300004238DF838306B4B029401932B68009350
:10564000694B6A491B686A480EAAFFF750F84D4A31
:105650006349674806F04CF8029401942B68009364
:10566000644B65491B6865488DF838600EAAFFF7E2
:105670003EF8444A5A496148614D06F039F8281904
:1056800002F08AFD04F10800284402F001FF04F151
:105690002C002844543402F0FBFEB4F5D26FEED156
:1056A0005848594D594C03F0CDFB364A4C495548A2
:1056B00006F01EF8564803F0C5FB324A48495448E4
:1056C00006F016F8534803F0BDFB2E4A44495148F2
:1056D00006F00EF8504803F01FF92A4A4F494E4889
:1056E00006F006F84E4802F0D3FE4E4B0E930EAA7B
:1056F000002343F698214C4811951094FEF704FEC0
:105700000EA8FEF7F3FD1F4A4849474805F0F0FF91
:10571000474B0E930EAA00234FF47A71454811951A
:105720001094FEF7F1FD0EA8FEF7E0FD154A3F4983
:10573000404805F0DDFF404B0E930EAA002341F2D6
:1057400088313E4811951094FEF7DEFD0EA8FEF755
:10575000CDFD0C4A3549394805F0CAFF0022142115
:10576000012002F0D3FB01221423019200936FF079
:105770007F410346324804F0B1F863E0DCD40320F3
:1057800008E2032068D4032065420D006CD4032096
:1057900064DA032090D4032030E2032070D4032085
:1057A000E8D4032030DA03203CEB0D0069410D0002
:1057B000D8EA0D00D8E2032098D90320E4D90320C9
:1057C000F8EA0D0084F30D0024EB0D00A5420D0056
:1057D00064D303206CD30320E5EE0D00D4D4032062
:1057E00057880D00554A0D0060D30320E8EE0D00E8
:1057F000E0D4032068D30320EBEE0D0088D403200F
:1058000078DB032028DB03204D410D0051410D00C2
:10581000C4E2032020E2032028E2032065880D0073
:1058200074D90320214C0D0034DB03208D430D007F
:1058300029440D00ECDA0320F5400D000CDB0320B9
:10584000C8DA0320074A0849084805F051FF08490B
:10585000084805F0D0FB034A0749064805F048FF11
:1058600012B070BD68D4032075420D00C8DA032061
:1058700085EF0D00D4D9032069AF0D002A2807D089
:1058800030B10D2804D0A0F10A03584258417047A6
:105890000120704770B590B10446254614F8016B9D
:1058A0003046FFF7EBFF48B92C2EF6D16878FFF7AA
:1058B000E5FF00280CBF2046002070BD002070BD11
:1058C00010B500230A240139C9B2FF2905D010F808
:1058D000012B04FB0323303BF5E7184610BD2DE9EF
:1058E000F0410C461646074697F8008040463D4674
:1058F000013706F067FD0028F6D1B8F12D0F03D16E
:105900003D464FF0FF3E05E0B8F12B0F08BF3D4686
:105910004FF0010E00220A232F78A7F13001092948
:10592000284605F1010503D9214601230A2503E094
:1059300003FB0272303AEFE70139C9B2FF2901D007
:105940006B43F9E72E2F03FB02F31ED1451C002207
:105950000A272978A1F1300CBCF1090F284605F17E
:10596000010502D901250A2706E05CB107FB0212F6
:10597000013C303AE4B2ECE7013CE4B2FF2C02D047
:105980007D43F9E7012505FB023303FB0EF416B155
:10599000FFF780FF30602046BDE8F081F8B503785E
:1059A0002C2B06460F46144605D112B1FFF772FFA5
:1059B00020600020F8BDFFF783FF064D22464543D7
:1059C0000621F019FFF78BFF3C2290FBF2F02844F0
:1059D000F8BD00BF40420F002DE9F8430C46914648
:1059E00010B90020BDE8F88306460025374616F8B2
:1059F000018BB8F12C0F11D04046FFF73FFFC0B923
:105A000054B14D4505F1010301DB1D4604E084F866
:105A1000008001341D46E9E72B46FBE734B14D45D4
:105A2000BCBF002323703B782C2BDAD1781CBDE857
:105A3000F883002CF3D1D4E710B50378242B08BFEA
:105A4000013002460023104612F8014B1CB12A2CEB
:105A500001D06340F7E769B11A09092A03F00F037F
:105A60008CBF37323032092BD2B28CBF3733303350
:105A70000A704B7010BD07B501A9FFF7DDFF037871
:105A80002A2B0BD142789DF804309A4206D18378B4
:105A90009DF805001B1A5842584100E0002003B051
:105AA0005DF804FB02704160816032B100220A702F
:105AB000037841680B4403F8012C7047FF2280F8FB
:105AC00039200F4A8261C2614FF000420023C26256
:105AD000826202626322C37480F83830037580F8F2
:105AE000243080F8333080F83230038680F8362056
:105AF00080F8352080F8342080F83730704700BFB8
:105B0000C0878B3B38B500230373C0F80D30A0F875
:105B10001130C3630364FFF7C5FFFFF7CFFF38BD44
:105B200038B50B782C2B05460C4601D1084619E0F8
:105B300002212046FFF7C4FE022185F834006018D8
:105B4000FFF7BEFE022185F83500201DFFF7B8FEE5
:105B5000022185F83600E01DFFF7B2FE85F8370018
:105B600004F10900BDE83840FFF794BE38B50B7862
:105B70002C2B05460C4601D1084613E00221204695
:105B8000FFF79EFE022185F833006018FFF798FEAC
:105B9000022185F83200201DFFF792FE00F5FA6021
:105BA0002886A01DBDE83840FFF774BE13B5037BFF
:105BB000C37404460191FFF7B3FF019008B90020B8
:105BC00056E001AA0221FFF7E9FE019BA061002B2C
:105BD000F5D01A782C2A01D1013304E0532A04BFEE
:105BE0004042A0610233019301AA03210198FFF70B
:105BF000D5FE019BE061002BE1D01A782C2A01D15F
:105C0000013304E0572A04BF4042E06102330193AC
:105C1000019810F8023B0190313B042B8CBF00230C
:105C20000123237501AA0021FFF759FEFF28DABFDF
:105C300020EAE070C0B2FF2084F838000198002804
:105C4000BDD001AA0121FFF74AFEFF2828BFFF208F
:105C500084F8390001980028B1D001AA0321FFF788
:105C60003EFE019B2062002BA9D0012084F8240075
:105C700002B010BD37B5037BC37404460191FFF732
:105C80004FFF019008B9002045E010F8023B02AD3B
:105C9000A3F14102534245F8040D534123752A46AE
:105CA0000221FFF77BFE019BA061002BEBD01A784D
:105CB0002C2A01D1013304E0532A04BF4042A061E1
:105CC000023301932A4603210198FFF767FE019BE7
:105CD000E061002BD7D01A782C2A01D1013304E0DF
:105CE000572A04BF4042E061023301932A46032150
:105CF0000198FFF7F4FDA06201980028C3D00321AA
:105D00002A46FFF7ECFD0199E0620029BBD020464E
:105D1000FFF72CFF012003B030BD000070B54368D1
:105D2000044603B30378F3B10D29826811D842F217
:105D30000143CB4003F0010383F001064BB1167021
:105D40004068A0600378242B0FD1FFF794FEC8B9F8
:105D50000BE0117023786168A268013B0B449A4202
:105D60003CBF0132A260002070BDE36B23B16268CA
:105D700012780AB12046984763681878003018BF37
:105D8000012070BD60684378472B04F10D0505D1F3
:105D90008378237306222946033003E02673062204
:105DA00029460130FFF718FE0646A8B10C492846DF
:105DB00006F09BFC28B931462046BDE87040FFF74D
:105DC000F5BE0849284606F090FC28B93146204621
:105DD000BDE87040FFF74EBF236C002BCAD1CBE764
:105DE00086EF0D008AEF0D0001F0BEBE01F0BCBED3
:105DF00010B50446243000F09AFF28B104F50C7069
:105E0000BDE8104000F093BF10BD8378016943F0F6
:105E10000403837000F11002806801F03EB80000B6
:105E20002DE9F041037803F02003044603F0FF0559
:105E30000BB100262EE04269184B9A42F9D8FFF7C1
:105E4000E4FF06460028F4D02169A06800F0BAFFFC
:105E50000746A06805223946243000F08FFF8046AF
:105E60000028E6D029464FF4007206F0E6FB012533
:105E7000A3681A79AA4209D94246E919186801F0BB
:105E8000FFFA0028D5D00135EDB2F1E7636903EBE5
:105E9000422363613046BDE8F08100BFFFFD1F0073
:105EA00010B5044680680A462430A16900F066FFF8
:105EB00020B1A38803F00F0300EB431010BDF0B531
:105EC0000024451E082623462E2715F8012F202AD8
:105ED00018D0082C02BFCF545A1CD3B22A78A2F192
:105EE000410E08BF1026BEF1190F06D890F80CE03D
:105EF00016EA0E0F1CBF2032D2B203F1010ECA54B3
:105F00005FFA8EF301340B2CDFD10022CA541846FD
:105F1000F0BD70B5047805460E4684B924222146AA
:105F200006F08BFBAE60F379102B03D0202B06D14B
:105F3000402300E0202301202B70A87070BD0020BA
:105F400070BD2DE9F74F03780446894615464BB1DD
:105F50008278D10706D50CE05A46216900F038FF57
:105F600000283DDA637843F0020363704FF0FF309E
:105F700097E01A0703D5E36962699B1A07E09A065E
:105F800008D5A3681A896369C3EB42139BB29D428B
:105F900028BF1D462E464FF0000804F1100B002EBE
:105FA00035D022786369A06812F0200FC3F3080A85
:105FB0004FEA532102D0036A19441DE090F805808E
:105FC00001EA0808BAF1000F10D1B8F1000F0DD1A5
:105FD000002BC1D153064CBF036A236A236105E03D
:105FE00004D1237813F0700F11D1BBE72169A068A9
:105FF00000F0E8FE08EB0001A068BAF1000F35D10F
:10600000B6F5007F32D3C36A994202D12EE0A81BB5
:1060100047E0B6F5806F1BD3227897064FEA562AE1
:1060200006D40279C8EB0202D2B2924528BF92464A
:1060300099424FEA4A2707D2A06853464A46006869
:1060400001F0DCF960B98DE75344994221D3F3E7BD
:106050004A46006801F08AF9002883D04FF400779F
:1060600063693B44B9446361F61B98E7002224301E
:1060700000F084FE00283FF475AFCAF50077B74200
:1060800028BF374600EB0A013A46484606F0AFFA09
:10609000E6E72430019100F04AFE01990028CBD1B7
:1060A00060E703B0BDE8F08F73B501220DF1070181
:1060B000044646690569FFF744FF012805BF9DF8BE
:1060C000070066614FF0FF30256102B070BD37B543
:1060D0004369C3F34315044605B169B901220DF1C3
:1060E00007012046FFF72DFF40B2012801D0002014
:1060F00008E063691F3300E02033A068636130303B
:1061000000EB451003B030BD2DE9F0410E4601789B
:1061100007690446002939D04569B5423AD00EB91D
:10612000066131E00B0703D5C3699E422ED807E014
:10613000880605D5A3681B89B6EB431F26D823E044
:10614000D4F808E09EF806306A1E03F10900731EB9
:10615000C240C3409A4200D84DB94A064CBFDEF84F
:106160002020226A22611D4604F110080AE09B1AD1
:10617000F9E742462169A06800F02AFE002805F1EF
:10618000FF3503DD002DF4D1666103E027610020B7
:10619000BDE8F0810120BDE8F081F8B50F46154655
:1061A0000021242204461E4606F047FAB868A06083
:1061B00005F00F02A58000F1300152013B6AE36057
:1061C0001144CB7A1D074CD4831893F83B3003F06D
:1061D00017032370C97A11F0180F04BF43F00803A6
:1061E00023709DF81830E37006F00303012B09D0EB
:1061F000022B05D0002B34D1710532D4012302E0EB
:10620000032300E00223A370A1788B0703D5237832
:1062100013F0110F25D14BB216F4005F06F0080100
:1062200014BF6FF07F07002719433943A170C36A79
:10623000A36102447505B2F84410B2F84A3043EA4B
:10624000014104D581B100F063FE68B909E0216223
:10625000D36CE36173040CD5E1692046FFF754FF6A
:1062600038B900202070F8BDA37843F00403A37070
:10627000F0E70120F8BD2DE9F743037806460D4607
:10628000174653BB0B7813F0700F26D04C6914F0EF
:106290001F0422D1A04600212846D5F81490FFF70C
:1062A00016FFD0B10378C3B12E2B01D10024F2E741
:1062B000E52BFBD0C17A11F0080F05D17CB100F0BD
:1062C00073F9804509D10AE00F29EFD15906E2D5CB
:1062D00003F01F0490F80D80DDE7002007E0009434
:1062E0003B46C9F34F1229463046FFF756FF03B02D
:1062F000BDE8F08338B5037804460BB9012038BDFA
:1063000083785A0723D50121FFF7CAFD054628B92E
:10631000637843F001036370002038BD0378E52BF8
:10632000F6D023781B0744BFE369C361238C438302
:10633000638C8382094B1B682BB100F11601183066
:1063400098472B8B6B82A37823F00403A370A0687B
:10635000FFF74EFD0028DBD0D0E700BF10E303209D
:1063600010B50446FFF7C6FF0023237010BDF0B53B
:1063700093B01F4600238DF824308DF82530037824
:10638000019206460C460BB100203DE00B7813F05D
:10639000700FF9D013782F2B12D1019B1A782F2A66
:1063A00002D101330193F8E7A1681AB93046FFF72B
:1063B000B0FD29E009A8FFF7ACFD0028E4D009AC46
:1063C00001AA03A9019800F08FF90028DCD0019BF5
:1063D0001B789BB1002303AA2146304600F0C6FA81
:1063E0000028D1D035460FCD09AC0FC40FCD0FC456
:1063F0002B6823603046FFF7B3FFE0E73B4603AA74
:106400002146304600F0B2FA13B0F0BD2DE9F04756
:106410000378894619070446904608D583789A0779
:1064200005D51B070BD5E169FFF76EFE38B9637818
:1064300043F0010363704FF0FF30BDE8F0876369FC
:10644000DB439845F3D846464FF0000A6369002EB7
:1064500000F08180A068427912EA5325C3F308074F
:106460001CD1DFB9216971B104F1100200F0B0FC58
:106470000028DCDB40F08E802046FFF7C6FC0028B9
:1064800040F08880D3E7236A3BB92046FFF7BDFC84
:106490000028CCD02369236200E023612169A06831
:1064A00000F090FC291817B9B6F5007F21D2C7F586
:1064B0000075B54228BF354637B96369E269934232
:1064C00034BF0122052200E00122A068243000F040
:1064D00055FC0028ABD038442A4649462F4406F0E4
:1064E00086F8B7F5007F30D1A068243000F01FFC9B
:1064F00017E0B6F5806FA06815D30279521B730AB6
:10650000D2B2934228BF1346C26A91424FEA432552
:1065100002D31A44914237D3A7684A46386801F03B
:1065200021F890B983E7C36A994202BF4FF0FF3365
:1065300080F824A0C362A3684A46186800F0A0FF50
:1065400000283FF474AF4FF4007563692B44636116
:10655000A944761B7AE7E269934201D9E36102E03C
:106560000F4B1B681BB1A37843F00403A37094F98D
:106570000230002B02DB4046BDE8F0872046FFF7E3
:10658000B9FE0028F7D152E74FF0FF3280F824A07F
:10659000C262C1E72169A06800F014FC014683E7EC
:1065A00010E3032001F0E0BA411E00F10A020020CE
:1065B000430843EAC01011F8013F53FA80F08A42C1
:1065C000C0B2F5D1704738B5CB6804460D4623B943
:1065D0008968BDE83840FFF79CBC2422002106F002
:1065E0002CF8102301202370A070AB68A360EB6827
:1065F000236238BD2DE9F0438BB003780025804637
:106600000E4617468DF804508DF8055063B10C2ADC
:106610000AD90EE0414601A8FFF7D5FF20B10124B9
:1066200098F80330A3420BD24FF0000986F800908F
:1066300055E0C378002BEDD100F060FB81464EE0C1
:10664000B8F80410091B490101A8FFF75DFD814658
:106650000028E9D0002101A8FFF739FD0028E3D088
:10666000C37A0F2BE0D1037803F01F039C42DBD1E8
:10667000631E0D225A4306EB020E0023042BD9B2EF
:1066800004D800EB4301B1F801100BE00A2995BFD3
:1066900003F1FF31591C00EB410100EB410194BFB4
:1066A000C988898861B1974210D97E2994BFC9B23F
:1066B0003F210EF8031001330D2B02F10102DDD151
:1066C000974203D90378590648BFB554F31903F824
:1066D000015C03785B0602D40134E4B2A0E74846CB
:1066E0000BB0BDE8F08300002DE9F0470378202BC4
:1066F00000F1010401D12046F8E7704F886005469B
:106700002C1A2E4615F8013B0BB32F2B01D1031980
:1067100017E05C2B02D10020BDE8F087A3F1220432
:10672000E4B21D2C03D827FA04F4E407F3D403F0F1
:10673000BF043C2CEFD0203B5E2BE1D9EBE72F2DA3
:1067400005D11E4613F8015B202DF8D1F9E716603C
:1067500003199842C0EB030809D013F8012D2E2A23
:10676000F7D0202AF5D0B8F1FF0FD4DC01E04FF0CC
:106770000008C1F8048001F10C0301F11702202484
:1067800003F8014F9342FBD103461A1A13F8014B49
:106790002E2CFAD0202CF8D0B2FA82F4640908F139
:1067A000FF36731C07D100274FF0070E3D46BA464F
:1067B0004FF0080909E0835D2E2BF4D0013EF0E78D
:1067C000835C202B04D1002401324245F8DB4BE0EE
:1067D0002E2B02D1B242F6D103E0222B17D07C2B14
:1067E00015D0A3F12A0CBCF1050F01D82D2B0ED129
:1067F000A3F13A0CBCF1050F09D9A3F15B0CBCF174
:10680000020F04D9A3F1210CBCF15D0F02D9B242F1
:106810000ED149E0B24247D0754521D8A3F1610CB1
:10682000BCF1190F08D8203BDBB249EA07070AE0A0
:10683000754515D800245F23A3F1410CBCF1190F55
:1068400098BF49EA0A0A05F1010C5FFA8CFC0D4475
:10685000BCF1060F6B7301D881F80CC06546B3E735
:10686000BEF10A0F17D100244B7B202B3FF453AF0E
:106870003CB11AEA070F18BF02270F700120BDE8CC
:10688000F0870B7B0120087019447E234B73312362
:106890008B73BDE8F087B242E5DC32464FF00A0E5A
:1068A00008254FF010098EE7BEF10A0FDBD0324603
:1068B0004FF00A0E08254FF0100985E7010100315D
:1068C0002DE9F84391F80C9006460D4602247E27E8
:1068D00001F10D086968AA6863189BB211449142DE
:1068E00006D012F8010B03EB431343409BB2F6E7CB
:1068F000B9F1030F28BF4FF0030909F10402D2B226
:1069000003F00F01A818013A0929D2B294BF30311F
:106910003731914541734FEA1313F1D305EB090366
:1069200000215F733046FFF7EFFB01213046FFF790
:10693000CEFB014628B97078B0FA80F04009BDE876
:10694000F88303784BB1C37A1B07EED40B22404681
:1069500005F03EFE0028E8D102E00120BDE8F88302
:106960000134A4B2642CB5D1BDE8F8832DE9F04F11
:106970009B460B7889B013F0700F05900E46914638
:1069800001D10020A0E1059B1B78002BF9D15368B1
:10699000029313789B0700F08D81029B0D270C3327
:1069A000B3FBF7F70137FFB200213046FFF7ACFB2E
:1069B0004FF0000809F10D02CDF80C804346444623
:1069C0004546CDF810800692726907930121304642
:1069D000C2F34F1AFFF77BFB079B20B97378002B9C
:1069E00000F09080CDE70278E52A00D042B9002C73
:1069F00008BFD046BC423CBF0134E4B222B981E0BA
:106A0000BC4238BF002403E0E52A01D10025DBE7C2
:106A10002E2AFBD0C17A0F2952D13DB95106D3D5C8
:106A2000437B039302F01F052B4607E0013BDBB2DB
:106A30009A42EBD1427B03999142E7D15A1E4FF023
:106A40000D0C0CFB02FC029A6245DFD94FF0000EE0
:106A5000BEF1040F5FFA8EF204D800EB4E02B2F8DA
:106A600001200CE00A2A95BF0EF1FF320EF101025F
:106A700000EB420200EB420294BFD2889288029956
:106A8000614503D1002A18BF00259DE7FF2ABDD824
:106A9000D2B2A2F141011929D9F8081011F80C104D
:106AA00098BF20320CF1010AA1F1410C98BFD2B27B
:106AB000BCF1190F9CBF2031C9B29142A6D1FBE0B5
:106AC0000907A3D44DB1012B7FF45BAFFFF76CFD39
:106AD000039B83427FF455AF0FE00B220699079387
:106AE00005F076FD079B00287FF46EAF99F8002033
:106AF000D20702D50122049266E71BF4006F00F072
:106B0000D1803EE71BF4007F3FF43BAF0BF0030363
:106B1000013B012B3FF635AF002C08BFD046BC42ED
:106B200002D3049BCBB91FE000213046FFF7CFFA18
:106B300010B973785BB124E70134E4B2EFE7B368CE
:106B40001B79012BEDD81034E4B2A742E9D93046C5
:106B5000FFF766F90028F2D113E749463046FFF700
:106B6000AFFE00283FF40DAF4FEA48113046FFF763
:106B7000CBFA00283FF405AF7D1EEDB22C464FF056
:106B8000000A4FF00F0841E000213046FFF79FFA5E
:106B9000074600283FF4F5AEB26892F82430AC42C4
:106BA00043F0010382F824300CBF44F04002224637
:106BB000027080F80B8080F80CA009F10D000392A0
:106BC000FFF7F2FC039A787387F81AA087F81BA0E6
:106BD00002F01F020D23013AD9F808E05A430023BE
:106BE0000299914215D91EF80210042B5FFA83FC1A
:106BF00003F1010013D807EB4303A3F801100D289C
:106C000002F101020346EBD1013CE4B2002CBBD1FE
:106C10000EE014BF4FF0FF31002189B2E5E7BCF16F
:106C20000A0F94BF07EB430307EB40039980E6E7A5
:106C3000736921463046C3F34F1AFFF748FA0746F7
:106C400000283FF49EAE2022214605F0F6FC4B467C
:106C500053F80D2F3A605A687A601A893A819B7A04
:106C6000BB7299F8003003F018033B73184B1B6894
:106C70002BB107F10E0107F11000984706E0212320
:106C80003B7428237B740823BC73FB733B8A7B8291
:106C90003B83FB89FB82B26892F8243043F0010306
:106CA00082F8243000955B46524631460598FFF73E
:106CB00074FA09E0012777E60EF1010EBEF10D0F1F
:106CC0003FF482AED446C3E609B0BDE8F08F00BF02
:106CD00010E3032000F048BF70B505460C46084697
:106CE00049B105F014FD2B68024621462846DB68B1
:106CF000BDE87040184770BD00F036BF10B50C46B7
:106D0000017809B9002010BD11F0600104D02F23D3
:106D100023700023637006E0FFF7C2F80028F1D06B
:106D20002146FFF7CCF8012010BD00F01DBF70B563
:106D30000378DA0704461ED54368816800F10C0623
:106D40003246186800F09CFB054608B9002513E0A0
:106D500023789B0704D4237823F0010323700BE0EE
:106D60006368A068196932460144186800F088FB1E
:106D70000028F0D1EAE70125284670BD70B5836888
:106D80008B4204460E46154614D0FFF7D0FF08B9D3
:106D9000002070BD6B0703D500232370A66009E0B7
:106DA000636804F10C023146186800F0DFFA00282D
:106DB000F2D1EDE72378204605F003051D4300F8E6
:106DC0000C5B70BD83794069023999400844704773
:106DD000012970B505460C46164602D84FF0FF3023
:106DE00070BDC3699942F9D8C379202B10D181694C
:106DF000022201EBD41100F50C70FFF7BFFF002851
:106E0000ECD004F07F0450F8243023F070430FE0FE
:106E1000102BE3D18369C1F307210222194400F545
:106E20000C70FFF7ABFF0028D8D0E4B230F8143074
:106E3000EA6993429ABF33600120002070BD0129A6
:106E400038B50C46154601D8002038BDC3699942B3
:106E5000FAD8C379202B0ED18169032201EBD4111A
:106E600000F50C70FFF78AFF0028EDD004F07F04D6
:106E700040F824500FE0102BE6D18369C1F30721BD
:106E80000322194400F50C70FFF778FF0028DBD0CF
:106E9000E4B220F81450012038BD2DE9F341C46854
:106EA0008C4205460E46904607D20C460027EB69F9
:106EB00001349C4203D9CFB9EC680127F7E7A64219
:106EC00014D001AA21462846FFF782FF00280DDBD7
:106ED000EDD0019B002BEAD107B1EC606FF070425E
:106EE00021462846FFF7ABFF074608B900270BE00D
:106EF00016B9C8F8004007E0224631462846FFF799
:106F00009EFF0028F5D1F1E7384602B0BDE8F081D8
:106F100073B505460C4601AA21462846FFF758FFDF
:106F2000061E01DA00200FE0002221462846FFF766
:106F300086FF0028F6D0EB689C429CBF04F1FF342A
:106F4000EC60019C002EE6D102B070BD70B501234B
:106F500004460022C3604FF0FF33C2710D46A062A9
:106F600080F82420C362C4F8340280F83022C0F8CC
:106F70003832A1B104295DD811462430FFF7FEFE56
:106F8000002857D000EB051393F8AE315B0651D1C2
:106F90001B3500EB0515D5F80650002D4AD0002210
:106FA000294604F12400FFF7E9FE002842D0B0F89A
:106FB0000B30B3F5007F3DD1037C022B3AD1C3895E
:106FC000002B37D0417B21714B1E63710023A371CD
:106FD000092601238B4207D0013E2BD0A2795B000A
:106FE0000132DBB2A271F5E7C28A02B9426A2261BC
:106FF000C6892E44A661B0F81130238106EB420108
:107000002162B0F81120520102F2FF1201EB62225C
:107010006261B0F8133003B9036AAD1A2B44A57945
:1070200023FA05F56B1CE36140F6F4739D4203D827
:107030000C23E371002070BD4FF6F4739D4285BFB1
:10704000C36A236210232023E371012070BD00F086
:107050008BBD00F089BD00F087BD00F085BD00F05C
:1070600083BD000070B50E4C0E46154600F05CFD69
:107070002368C01A0B4B984208D900F05DFD0A4BFB
:10708000186000F05FFF00F04FFD206000F054FD3D
:1070900080B2801BA842D4BF0020012070BD00BF79
:1070A00014E30320A086010008E7032038B5057A21
:1070B00004464DB9406800F07DFA63682946187DA2
:1070C00004F0BDFA0123237238BD10B5037A0446DB
:1070D0006BB143680121187D04F0B1FAFF216068AB
:1070E00000F09AFA606800F079FA0023237210BD6C
:1070F000F8B504460D46164600F01EFD87B26068DE
:1071000000F06FFAFF28607209D14FF47A723946A5
:107110002046FFF7A7FF0028F1D055230BE0FE28FB
:1071200001D0502307E032462946606800F05EFA3D
:10713000607230B1602320462370FFF7C6FF002045
:10714000F8BD606800F04DFA606800F04AFA01206E
:10715000F8BD70B504460E4600F0EEFC85B232462E
:1071600029462046FFF77EFF30B9606800F039FA03
:10717000FF28F4D1012070BD002070BDF7B5037A5F
:10718000019204460D460BB9FFF790FF25B14FF46D
:1071900096712046FFF7DDFF45F04001606800F082
:1071A0003BFA0DF107060DF1030716F801196068A7
:1071B00000F032FABE42F8D1002D0CBF9521872194
:1071C000606800F029FA606800F00BFA0B2560682F
:1071D00000F007FA0306607203D5013D15F0FF05C4
:1071E000F5D103B0F0BD70B504460D461646372103
:1071F0000022FFF7C3FF324629462046BDE8704013
:10720000FFF7BCBF2DE9F0410025057205708572BE
:107210004160044690461E4600F08EFC41460746FB
:10722000606800F0CBF963684F4A1D724FF00108A7
:10723000DA605D7483F810802046FFF737FF6368DB
:107240004146187D04F0FBF90A25FF216068013DE5
:1072500000F0E2F915F0FF05F7D163682946187DC3
:1072600004F0EDF90A25002211462046FFF786FFBB
:107270000128804612D0013D15F0FF0501D12023E1
:1072800057E0FD21606800F0C7F94FF402786068AC
:1072900000F0A7F9B8F10108F9D1E4E74FF4D5728D
:1072A00008212046FFF76AFF052802D184F80A80EA
:1072B0000FE00425606800F094F9013D15F0FF052A
:1072C0006072F7D1AA2802D10223A37201E025231C
:1072D0002FE0A37A022B0CBF4FF080450025BFB2F0
:1072E0002A4629212046FFF77EFF024648B14FF487
:1072F000FA6239462046FFF7B5FE0028F0D0432356
:1073000017E0A37A022B0ED02046FFF7DEFE63685B
:10731000B0683479317B727B5A74D8601C721974EE
:107320000120BDE8F0813A212046FFF727FF38B160
:10733000372320462370FFF7C8FE0020BDE8F08108
:10734000606800F04EF900F0C000C02804BF0323BD
:10735000A372606800F045F9606800F042F9606867
:1073600000F03FF9D0E700BF90D0030038B5837A32
:10737000032B18BF490215460A4611210446FFF7A0
:10738000FDFE10B1302323700BE029464FF400724C
:107390002046FFF7ADFE054618B12046FFF795FEE3
:1073A00003E02046FFF791FE0025284638BD10B5C2
:1073B000837A032B0A4618BF4A0212210446FFF7BC
:1073C000DDFE30B1312320462370FFF77EFE002022
:1073D00010BD012010BD10B500220C210446FFF79E
:1073E000CDFE30B1282320462370FFF76EFE00202B
:1073F00010BD2046FFF769FE012010BDF8B5054617
:1074000016461F46FFF7D3FF98B10024A3B29F4250
:1074100006EB442108D94FF400722846FFF768FEB6
:1074200001340028F2D104E02846BDE8F840FFF717
:10743000D2BF0020F8BD38B504461546406800F0BC
:10744000EBF84FF400722946606800F0E9F8FF217C
:10745000606800F0E1F8FF21606800F0DDF8606826
:1074600000F0BFF8607200F01F00052806D0572317
:1074700020462370FFF729FE002038BD012038BDCB
:1074800070B5837A032B18BF490215460A461821A6
:107490000446FFF773FE064608B132231DE02A4674
:1074A000FE212046FFF7C7FFC0B14FF4FA61204626
:1074B000FFF74FFE054608B95A230EE032460D216C
:1074C0002046FFF75BFE38B9606800F08AF818B90B
:1074D0002046FFF7FAFD05E0292323702046FFF739
:1074E000F4FD0025284670BD38B50D464FF4FA610D
:1074F0000446FFF72EFE10B95B23237005E02A46F1
:10750000FC212046FFF797FF18B92046FFF7DDFD65
:10751000002038BD10B5837A032B0A4618BF4A02F3
:1075200019210446FFF72AFE30B133232046237089
:10753000FFF7CBFD002010BD012010BD38B54FF482
:10754000FA610446FFF705FE054620B1FD2160689B
:1075500000F062F801E0562323702046FFF7B5FDE6
:10756000284638BDF8B5054616461F46FFF7D2FF38
:1075700070B10024BC4206EB4421284604D0FFF73A
:10758000B3FF28B10134F5E7BDE8F840FFF7D6BFF7
:107590002846FFF79AFD0020F8BD00F0E5BA00F09C
:1075A000E3BA00F0E1BA0000014B01221A70704703
:1075B00018E30320011D006803F0C0BB10B50446AA
:1075C0000175006803F07CFB207D012104F026F8A2
:1075D000207D0121BDE8104004F031B8006803F0BF
:1075E00094BBFF21006803F04BBC000037B5084B8B
:1075F00000930025074C0068257013460A4629466B
:1076000003F044FC2378002BFCD0002003B030BDF5
:10761000A9750D0018E30320006803F031BC0000D9
:1076200037B5074B00930025064C006825701346BC
:107630002A4603F02BFC2378002BFCD003B030BD8E
:10764000A9750D0018E3032000F08EBA00F08CBA83
:1076500000F08ABA70B54223002510260446058141
:107660008572C572057345610376324629465C30E2
:1076700004F0E3FF04F1190363663246294604F17E
:107680006C0004F0DAFF04F11B036367192384F82C
:107690007C30C4F8805084F88450A4F8865020468A
:1076A00070BD10B50023037304460161084601F064
:1076B0008DFE4223237610BD704710B50B78052B45
:1076C0000FD14B78012B0CD18A6890F86C1014788C
:1076D0008C4206D1517890F86D20914208BF80F815
:1076E000843010BD10B50446017E006901F0A5FE8E
:1076F000206901F0ADFEB0FA80F0400910BD0A78B3
:10770000487830B510444D88C3B25C19E4B21A44CD
:1077100004EB1520C0B2A318034408734B73002276
:1077200093B2AB420AD28B68985C0B7B0344487BD4
:10773000DBB20B7303444B730132F1E730BDF8B594
:10774000137906460D4614460BB921702CE0012B27
:1077500001D1617028E0022B04D0032B04D153889F
:1077600043EA012565801FE05288111D8B4201D13B
:10777000257319E00532934212D12146277BFFF78A
:10778000BEFF0023B372237BBB420DD1637BAB42B0
:107790000AD10123A37321463046FFF78EFF03E091
:1077A000A268134403F8045C237901332371F8BD04
:1077B000837A012B10B510D8B52904D1002380F8A5
:1077C0008530022308E0242901D1012304E0D329D4
:1077D00003D10023038103238372837A022B2ED1EA
:1077E00090F8853023B9B52918D00022827215E0AF
:1077F000012B01D16229F7E7022B0FD105294FF0A8
:10780000000201BF0124C47280F8602080F86A2061
:107810001EBFC37280F8702080F87A20013380F890
:107820008530C37A012B02D100F15C0203E0022B08
:107830000ED100F16C02BDE81040FFF780BF012BB4
:1078400002D1FCF7ADFE10BD032B01D1FFF734FFD1
:1078500010BDF8B5044600F06FF9D4F88030C01AB6
:1078600094F87C3098421CD3217E206901F0E5FD1C
:10787000FD212069FCF743FD0021206901F0E4FDB2
:1078800008B10020F8BD0222217E206901F0D2FD5E
:10789000206903681B69984728B900F04DF9C4F8BE
:1078A00080000120F8BD206903685B6998470546A0
:1078B000206903685B6998472D0205F47F43C0B2D5
:1078C00050EA0305E9D0217E206901F0B6FDFF21D1
:1078D0002069FCF714FD0021206901F0B5FD064682
:1078E0000028CED1202D2F4628BF20273A46217EC2
:1078F000206901F09FFD206903681B6998470028F3
:10790000BFD0206903685B6998470136C1B2204641
:10791000FFF74EFFB3B29F42F3D8ED1BADB2002D7F
:10792000D1D1BEE7037B0BB9FFF793BF704700F0DF
:107930001BB9000008B5024B1B689B68019308BD8A
:107940007802030008B5024B1B681B6D019308BD4C
:107950007802030008B5024B1B689B6D019308BDBC
:107960007802030008B5024B1B681B6E019308BD2B
:107970007802030008B5034B1B68D3F898300193D5
:1079800008BD00007802030008B5034B1B68D3F85C
:10799000A830019308BD00007802030008B5034B2E
:1079A0001B68D3F8B430019308BD000078020300CF
:1079B00008B5034B1B68D3F8D830019308BD00000D
:1079C0007802030008B5034B1B68D3F8DC30019341
:1079D00008BD00007802030008B5034B1B68D3F80C
:1079E000EC30019308BD00007802030008B5034B9A
:1079F0001B68D3F8F030019308BD00007802030043
:107A000008B5034B1B68D3F80031019308BD000093
:107A10007802030008B5034B1B68D3F804310193C7
:107A200008BD00007802030008B5024B1B689B6884
:107A3000019308BD4802030008B5024B1B68DB68D0
:107A4000019308BD4802030008B5024B1B681B697F
:107A5000019308BD4802030008B5024B1B685B692F
:107A6000019308BD4802030008B5024B1B68DB699F
:107A7000019308BD4802030008B5024B1B681B6A4E
:107A8000019308BD4802030008B5024B1B685B6AFE
:107A9000019308BD4802030008B5024B1B689B6AAE
:107AA000019308BD4802030008B5024B1B68DB6A5E
:107AB000019308BD4802030008B5024B1B685B6CCC
:107AC000019308BD4802030008B5024B1B689B6C7C
:107AD000019308BD4802030008B5024B1B68DB6C2C
:107AE000019308BD4802030008B5024B1B685B6D9B
:107AF000019308BD4802030008B5024B1B681B6FC9
:107B0000019308BD4802030008B5024B1B685B687F
:107B1000019308BD1802030008B5024B1B68DB681F
:107B2000019308BD1802030008B5024B1B681B69CE
:107B3000019308BD1802030008B5024B1B685B697E
:107B4000019308BD1802030008B5024B1B68DB69EE
:107B5000019308BD1802030008B5024B1B689B6D1A
:107B6000019308BD1802030008B5024B1B681B688F
:107B7000019308BD2C02030008B5024B1B689B68EB
:107B8000019308BD2C02030008B5024B1B68DB689B
:107B9000019308BD2C02030008B5024B1B681B694A
:107BA000019308BD2C02030008B5024B1B681B683B
:107BB000019308BD2802030008B5024B1B68DB686F
:107BC000019308BD2802030008B5024B1B689B699E
:107BD000019308BD2802030008B5024B1B68DB694E
:107BE000019308BD2802030008B5024B1B681B6AFD
:107BF000019308BD2802030008B5024B1B685B6AAD
:107C0000019308BD2802030008B5024B1B689B6A5C
:107C1000019308BD2802030008B5024B1B68DB6A0C
:107C2000019308BD2802030008B5024B1B681B6BBB
:107C3000019308BD2802030008B5024B1B685B6B6B
:107C4000019308BD2802030008B5024B1B681B6C9A
:107C5000019308BD2802030008B5024B1B681B6D89
:107C6000019308BD2802030008B5024B1B685B693D
:107C7000019308BD6402030008B5024B1B689B68B2
:107C8000019308BD6802030008B5024B1B68DB685E
:107C9000019308BD6802030008B5024B1B681B680E
:107CA000019308BD3002030008B5024B1B681B6935
:107CB000019308BD3002030008B5024B1B685B69E5
:107CC000019308BD3002030008B5024B1B68DB6955
:107CD000019308BD3002030008B5024B1B681B6A04
:107CE000019308BD3002030008B5024B1B685B6AB4
:107CF000019308BD3002030008B5024B1B689B6A64
:107D0000019308BD3002030008B5024B1B68DB6A13
:107D1000019308BD3002030008B5024B1B689B6B42
:107D2000019308BD3002030008B5024B1B68DB6BF2
:107D3000019308BD3002030008B5024B1B681B6CA1
:107D4000019308BD3002030008B5024B1B685B6C51
:107D5000019308BD3002030008B5024B1B681B6885
:107D6000019308BD3C02030008B5024B1B689B68E9
:107D7000019308BD3C02030008B5024B1B68DB6899
:107D8000019308BD3C02030008B5024B1B681B6948
:107D9000019308BD3C02030008B5024B1B685B69F8
:107DA000019308BD3C02030008B5024B1B689B69A8
:107DB000019308BD3C02030008B5024B1B68DB6958
:107DC000019308BD3C02030008B5024B1B681B6A07
:107DD000019308BD3C02030008B5024B1B689B6A77
:107DE000019308BD3C02030008B5024B1B68DB6A27
:107DF000019308BD3C02030008B5024B1B681B68D9
:107E0000019308BD4C02030008B5024B1B685B6878
:107E1000019308BD4C02030008B5024B1B689B6828
:107E2000019308BD4C02030008B5024B1B681B6997
:107E3000019308BD4C02030008B5024B1B685B6947
:107E4000019308BD4C02030008B5024B1B689B69F7
:107E5000019308BD4C02030008B5024B1B68DB69A7
:107E6000019308BD4C02030008B5024B1B681B6A56
:107E7000019308BD4C02030008B5024B1B685B6B05
:107E8000019308BD6002030008B5024B1B681B6D1F
:107E9000019308BD6002030008B5024B1B68DB6E4E
:107EA000019308BD6002030008B5024B1B681B6FFD
:107EB000019308BD6002030008B5034B1B68D3F8AB
:107EC0008030019308BD00006002030008B5024B3A
:107ED0001B681B68019308BD2002030008B5024B14
:107EE0001B685B68019308BD2002030008B5024BC4
:107EF0001B685B69019308BD2002030008B5024BB3
:107F00001B689B6D019308BD2002030008B5024B5E
:107F10001B68DB6F019308BD2002030008B5034B0B
:107F20001B68D3F88830019308BD000020020300CD
:107F300008B5034B1B68D3F89430019308BD0000CB
:107F40002002030008B5024B1B689B68019308BD23
:107F50004402030008B5024B1B685B69019308BD2E
:107F60004402030008B5024B1B685B6A019308BD1D
:107F70004402030008B5024B1B681B6B019308BD4C
:107F80004402030008B5024B1B68DB6B019308BD7C
:107F90004402030008B5024B1B685B68019308BDEF
:107FA0004002030008B5024B1B689B68019308BDA3
:107FB0004002030008B5024B1B68DB68019308BD53
:107FC0004002030008B5024B1B681B69019308BD02
:107FD0004002030008B5024B1B685B69019308BDB2
:107FE0004002030008B5024B1B689B69019308BD62
:107FF0004002030008B5024B1B68DB69019308BD12
:108000004002030008B5024B1B681B6A019308BDC0
:108010004002030008B5024B1B681B6B019308BDAF
:108020004002030008B5024B1B685B6B019308BD5F
:108030004002030008B5024B1B681B68019308BD92
:108040001C02030008B5024B1B685B68019308BD66
:108050001C02030008B5024B1B689B68019308BD16
:108060001C02030008B5024B1B689B69019308BD05
:108070001C02030008B5024B1B68DB69019308BDB5
:108080001C02030008B5024B1B685B6A019308BD24
:108090001C02030008B5024B1B681B6B019308BD53
:1080A0001C0203000021FFF721BF7047002070472A
:1080B00070470020704770470020704710B51421AA
:1080C000044603F01AFB204610BD10B514210446E7
:1080D00003F013FB204610BD10B51421044603F035
:1080E0000CFB204610BDFBF7DABFFBF7D8BFFBF750
:1080F000D6BF10B50446006808B1FFF7E5FC20467E
:1081000010BD000008B50A20024A0021FFF7B4FEA6
:1081100008BD00BF197B0D0010B5036804469B68BD
:108120009847A368013BA3602BB923682046DB680E
:10813000BDE81040184710BDA0F13003DAB2092A9B
:1081400001D818467047A0F16103052B01D85738B4
:108150007047A0F14103052B94BF37384FF0FF3033
:108160007047000010B500230370044B04461868E4
:10817000FFF7B2FC01232370204610BD28E3032043
:1081800010B5037804461BB1024B1868FFF7ACFC2E
:10819000204610BD28E303200022026042607047A1
:1081A00008B582798B799A4206D1062204F010FA3A
:1081B000B0FA80F0400908BD002008BD10B50123C9
:1081C0000361054B024603F1100153F8044B42F8DA
:1081D000044B8B42F9D110BD94F10D0010B50B4644
:1081E0000446B9B1012A09D1034601F1100251F840
:1081F000040B43F8040B9142F9D108E0411E0F2211
:10820000985C01F8010F013AD2B2FF2AF8D101239C
:10821000236102E0102204F010FA204610BD38B5A8
:10822000054614461A46FFF7D9FF2C73240A6C73CF
:10823000284638BD08B502690AB9808903E01022D2
:10824000034904F0C5F9003018BF012008BD00BF84
:1082500094F10D000069704738B50C4614220021D6
:10826000054604F0EAF923692BB9627B237B43EAD4
:1082700002232B800AE001232B7404F110022B4609
:1082800054F8041B43F8041B9442F9D1284638BD26
:10829000427B007B40EA02207047704710B50B69B3
:1082A000036101F11002034651F8044B43F8044BFB
:1082B0009142F9D110BD10B586B00446012201A843
:1082C000FFF78CFF01A92046FFF7E8FF06B010BDBD
:1082D00008B502690B699A4206D1102204F078F9B8
:1082E000B0FA80F0400908BD002008BD0123F7B5B1
:1082F0000361314B0E460546024603F1100153F867
:10830000040B42F8040B8B42F9D1002E51D02421EA
:10831000304604F02EFA042810D00027102424211F
:10832000304604F026FAB84201D944BB41E02C445F
:108330000023A5423DD004F8013DFAE73078FFF76D
:10834000FBFE041E18DB7078FFF7F6FE002813DB37
:1083500040EA04108DF80400B078FFF7EDFE041E2B
:108360000ADBF078FFF7E8FE0028A1BF40EA04101E
:108370009DF8043028736B7300232B6119E0F05DC6
:10838000FFF7DAFE030612D4013C00012855242130
:10839000304604F0EEF90137874208D2F05DFFF76E
:1083A000CBFE40B20028A2BF2B5D184328550137F1
:1083B000B5E703B0F0BD00BF94F10D0038B5044639
:1083C0000D46FFF7FBFE20462946FFF78FFF2046AC
:1083D00038BDF0B58BB10024E51C8D420FD8661C6A
:1083E000055D875D974205D12E44B14207D31C60DD
:1083F000681CF0BD01352C44EEE71846F0BD0020A6
:10840000F0BD2DE9F74304460E461D461746002AE7
:108410003AD00A4601AB016AFFF7DBFF9DF828302E
:10842000226A03BBF8B1961C2E44361A1F2E2BD895
:10843000DDF8048008F10209C8EB0202121A00EB11
:10844000080105EB090092B22144204404F0DAF857
:108450006B1C04F808302A46394604EB090004F086
:10846000C6F8266210E0901C2B181F2B0CD86B1C32
:10847000A354224420623946567020442A4604F010
:10848000B6F8226A2A442262206A03B0BDE8F0836B
:108490001FB50446034600F11F02002003F8010B3C
:1084A00093424FF00001F9D104AA062302F8013DDE
:1084B00001232162009120461946FFF7A2FF2046C2
:1084C00004B010BD07B5009313460A46FF21FFF71D
:1084D00098FF03B05DF804FB73B50A460E4601AB86
:1084E000016A0446FFF775FF054678B10198226AD4
:1084F0002918121A521B2144204404F078F8236AE8
:108500005D1B256231462046FFF7E6FF02B070BDD5
:1085100038B500254FF6FF73044643800E222946E6
:1085200005700571063004F088F804F11400FFF7B7
:1085300045FE04F12800FFF741FE044904F13C0028
:1085400002F059FDE5642565204638BD85EF0D0034
:1085500010B58369C26903EBC2029342184606D084
:10856000046824888C4203F10803F6D110BD002072
:1085700010BD00002DE9F34180461F460E4669B349
:1085800062B3F42A056828BFF42214462A78A2B1FF
:108590002B79980707D500232246A889FFF7FEF913
:1085A000002802DA43E06FF07700D8F800502B790A
:1085B000DA0618D5012F23D115E068884FF6FF732E
:1085C00098420DD02B79590723D5012F21D0A989A5
:1085D000009223463246FFF7F5F928E0154826E0D9
:1085E0006FF0D10023E09A0621D5022F1FD0A88971
:1085F00000232246314602B0BDE8F041FFF70ABA37
:10860000A88900232246314602B0BDE8F041FFF7B9
:10861000F7B91B0701D5022F02D16FF0770006E0F2
:108620000023A989009332462346FFF7C1F902B01F
:10863000BDE8F081F2FEFFFF10B50A6852F8023F74
:1086400003605368436010BD1FB502680B68128851
:108650001B889A420C460CD101466846FFF7ECFF96
:10866000214602A8FFF7E8FF02A96846FFF798FD38
:1086700000B9002004B010BD10B504463420FBF74B
:108680000CFD014668B10023036043608360C36052
:10869000036143618361C361036243628362C362B6
:1086A0000363216019B90A4A0A20FFF7E5FB00209D
:1086B000FFF740F920B1064A00210A20FFF7DCFB52
:1086C000002221680348FFF791F9204610BD00BF42
:1086D000197B0D00F18A0D0010B50A4C2368DB07E9
:1086E0000ED42046FBF7EAFC50B10748FFF7C4FF61
:1086F0002046FBF7E8FC054A0549034802F0F8FF6D
:10870000014810BD20E303201CE3032068D40320AC
:10871000D9880D0070B50368093B012B8AB0044667
:108720000E4619D8FFF7D8FFA1880068FFF710FFA1
:10873000024658B920230293084B0390009302AAE3
:10874000034607493220FFF79FFB05E0F56C1DB19A
:10875000336DE1682069A8470AB070BD3EF00D0096
:10876000F4EF0D0013B501A8FFF7FCFC0020FFF7A4
:10877000E1F8044601A8FFF703FD04EAE47002B043
:1087800010BD084609B90A4601E0096A0022FFF750
:10879000D9B810B50C4611B90A46084606E00121C1
:1087A0002046FFF799FE216A00222046BDE81040CE
:1087B000FFF7D0B813B501A8FFF7D4FC0020FFF7EE
:1087C000D1F8044601A8FFF7DBFC204602B010BD3B
:1087D00073B505460C4601A81646FFF7C3FC2146B3
:1087E0002846FFF7CEFF002808DB31462846FFF772
:1087F000D0FF002802DB2846FFF7DCFF044601A873
:10880000FFF7BEFC204602B070BD0368D86900289F
:10881000D4BF0020012070470B68036013B15A6871
:1088200001325A60704710B551F8043B044640F8D5
:10883000043BFFF7F1FF23680BB9FFF763FC204609
:1088400010BD10B551F8043B044640F8043BFFF757
:10885000E3FF204610BD10B504460430FBF70AFFC5
:10886000204610BD10B504460430FBF703FF204638
:1088700010BD70B504684368054604EBC306A64204
:1088800004D0201DFBF7F6FE0834F8E72868FFF750
:10889000D9FB284670BD70B504684368054604EBF3
:1088A000C306A64204D0201DFBF7E4FE0834F8E717
:1088B0002868FFF7C7FB284670BD10B5046904F1AE
:1088C0001800FFF7E8FF04F10C00FFF7D2FF204685
:1088D000BDE81040FBF7E3BBF8B504680746C4B138
:1088E000A569E36905EBC306AE4204D0281DFBF77A
:1088F000C1FE0835F8E7A069FFF7A4FB04F10C00FE
:10890000FFF7C9FF2046FFF7B4FF3421204602F0ED
:10891000F4FE3846F8BD000073B5002505604560DB
:1089200006462420FBF7B9FB044678B103464FF610
:10893000FF7223F8022BC0F802505D608572C57289
:10894000C560056145618561C5610562002314202C
:108950000193FBF7A2FB034628B10122426082602B
:10896000084A0260046102A8726840F8042D73602E
:108970003460FBF77FFE33680BB9FFF7C3FB30466B
:1089800002B070BDD0EF0D0038B50C6803689C4292
:1089900005460CD014B1636801336360286828B1C0
:1089A0004368013B43600BB9FFF7B6FB2C602846D8
:1089B00038BD884270B515461AD9904219D2A1F136
:1089C0000806511A0439151F44182B1F9E4225D042
:1089D000042C07D055F8043C44F8043C29462046B2
:1089E000FFF71AFF2846FBF745FE083D083CECE779
:1089F00014D00C1D061D231F9D420FD0042E07D03E
:108A000054F8043C46F8043C21463046FFF704FF86
:108A10002046FBF72FFE08340836ECE770BD2DE941
:108A2000F041046843680546884604EBC307A74243
:108A300018D041462046FFF707FE064608B908341D
:108A4000F5E78CB1201DFBF715FE2B686A6804F171
:108A5000080103EBC2022046FFF7ABFF6B68013B46
:108A60006B6002E0002600E026463046BDE8F0815B
:108A7000F7B5044651F8043B4768009301A8FFF797
:108A8000CBFE6668A3689E4214DB0136002E0BDD28
:108A9000F000FFF7CFFA054618B394E8060001EBA3
:108AA000C202FFF786FF00E000252068FFF7CAFA40
:108AB0002560A6602668626806EBC70506EBC20261
:108AC000294605F10800FFF774FF35B1009B46F811
:108AD000373001A9281DFFF79FFE636801336360EB
:108AE000012501A8FBF7C6FD284603B0F0BD000034
:108AF0002DE9F04104468EB003A80D46FFF732FB86
:108B00002368032B02D0042B42D087E004A8FFF790
:108B100003FF049B22891A806268049952F8083F77
:108B2000C1F802305368C1F8063007A8049B0693C9
:108B300005A9FFF771FE06A905F11800FFF798FFD8
:108B4000044607A8FBF796FD2023069374B9364B1D
:108B5000009306AA2346354907943220FFF794F97B
:108B6000049B21461888FEF705FF0DE0304A00926D
:108B7000002306AA2D4907930120FFF785F96B6AA8
:108B800013B1E96A04A8984705A8FBF773FD45E00F
:108B900021892846FFF7DCFC074600283ED0046800
:108BA000A369E1694FF6FF72228003EBC10199428C
:108BB00003D053F8080B4280F9E7E668236906EB17
:108BC000C308B04504D0301DFBF754FD0836F8E764
:108BD00000232361A669E36906EBC308B04504D00E
:108BE000301DFBF747FD0836F8E70023E361A37269
:108BF000E372AB6A13B1296B3846984720230D4ABC
:108C000006930092002309490793012006AAFFF763
:108C10003BF9394605F11800FFF701FF03A8FFF7FC
:108C2000AFFA0EB0BDE8F08156F00D00F4EF0D0084
:108C30007CF00D0099F00D008842F8B506460C4610
:108C4000154614D9904213D2A2F108056C1AA1F16D
:108C500008070444AF4218D01CB129462046FFF74C
:108C6000F0FD281DFBF706FD083D083CF2E70CD09F
:108C7000AC420AD01EB121463046FFF7E2FD201D6E
:108C8000FBF7F8FC08340836F2E7F8BD70B50E1EA5
:108C900005460BDDF000FFF7CDF9044670B195E80D
:108CA000060001EBC202FFF7C7FF00E000242868BE
:108CB000FFF7C8F92C60AE60012070BD70BD73B5C0
:108CC000044645686846FFF7BCFD6168A3689942A1
:108CD00005DB01312046FFF7D9FF064698B123682E
:108CE000626803EBC50503EBC202294605F10800E3
:108CF000FFF7A2FF1DB169462846FFF7A2FD636892
:108D000001336360012601A8FBF7B4FC304602B0D2
:108D100070BD8842F8B506460C46154614D99042F7
:108D200013D2A2F108056C1AA1F108070444AF425E
:108D300018D01CB129462046FFF775FD281DFBF70A
:108D400099FC083D083CF2E70CD0AC420AD01EB1B9
:108D500021463046FFF767FD201DFBF78BFC0834EA
:108D60000836F2E7F8BD70B50E1E05460BDDF000C3
:108D7000FFF760F9044670B195E8060001EBC20206
:108D8000FFF7C7FF00E000242868FFF75BF92C60BD
:108D9000AE60012070BD70BD73B50446456868467D
:108DA000FFF741FD6168A368994205DB0131204668
:108DB000FFF7D9FF064698B12368626803EBC50543
:108DC00003EBC202294605F10800FFF7A2FF1DB11F
:108DD00069462846FFF727FD636801336360012673
:108DE00001A8FBF747FC304602B070BD10B5044641
:108DF000406808B1FBF753F9204610BD07B5036979
:108E00000C308DE8090003F13C0002F0ADF8684633
:108E1000FFF7ECFF03B05DF804FB000038B500235A
:108E20000446036014200D46FBF737F928B10123EF
:108E300043608360024B036005612060204638BDBB
:108E400098EF0D0070B5002586B0056045600446BA
:108E50005420FBF722F9CDF810D00646059008B152
:108E6000FFF756FB314601AB02AA03A80595FFF7B1
:108E7000D5FF039B62682660636003A80392FBF73B
:108E8000F9FB04A8FFF7B2FF23680BB9FFF73AF923
:108E9000204606B070BD00002DE9F04188B00546BF
:108EA0001E46542000230F46904604930593FBF77B
:108EB000F4F8CDF818D004460790C0B198F80080B7
:108EC000FFF726FB394604F13C0084F8048002F0E9
:108ED000BFF80F9BE3643146109B236504F1140037
:108EE000FFF7DCF90E9904F12800FFF7D7F92146C6
:108EF000002601AB02AA03A80796FFF78FFF039B8A
:108F0000059A039203A805930494FBF7B3FB06A804
:108F1000FFF76CFF049B2968059A2B6008A86B6813
:108F200006916A6040F8043D05960496FBF7A2FBA3
:108F300005A8FBF79FFB296819B9034A0A20FEF729
:108F40009BFF08B0BDE8F081197B0D0010B5044609
:108F5000406808B1FBF7A3F8204610BD07B50369C8
:108F60000C308DE809006846FFF7F0FF03B05DF8AC
:108F700004FB000038B500230446036014200D46AE
:108F8000FBF78BF828B1012343608360024B036039
:108F900005612060204638BDB4EF0D00F0B5002615
:108FA00087B006604660044618200F46FBF775F848
:108FB000CDF810D00546059038B1FFF7FFF83946D7
:108FC0002846AE82EE82FFF769F900232946059311
:108FD00002AA01AB03A8FFF7CDFF039B62682560DF
:108FE000636003A80392FBF745FB04A8FFF7AEFFFD
:108FF00023680BB9FFF786F8204607B0F0BD0000E4
:109000002DE9F04F1746A1B080460AA80E46FFF79B
:10901000A9F83C682379002B00F0DE803368DD6816
:109020001B6905EBC303039304F1140A04F1280B35
:10903000039BAB4223D0D5F80090504609F11401B0
:10904000FFF746F9002800F0CC8009F128015846C6
:10905000FFF73EF9002800F0C480236823F47F4125
:10906000D9F8003023F47F43994240F0BA8020239E
:10907000604A159300230092169315AAA8E004F104
:1090800028094846FFF7D6F818B95B494846FFF764
:1090900012F933681D685B6805EBC30A55454946FC
:1090A00005D02868FFF714F958BB0835F6E70BA878
:1090B000FFF774FF494615A8FFF7CEF80B9A002377
:1090C000143215A90120FEF75FFC002878D135681D
:1090D0000BA90DA8FFF7B5FB28460DA9FFF7EFFD7B
:1090E00005460EA8FBF7C6FA002D69D03268556810
:1090F00005F100531568013B0CA805EBC305FBF710
:10910000B9FA04F114094846FFF794F868B93B4BE3
:1091100039491A88013292B21A8015A80123FFF743
:109120007EF815A94846FFF7B9F84FF02C0A5246C9
:10913000002115A803F081FA0123494604A8ADF8DF
:109140005430ADF856A0FFF787F804AB18AA0DF11C
:10915000200C186859689646AEE80300083363454A
:109160007246F6D11868CEF8000023798DF8583091
:109170002B689B8AADF87430E36B17930022204B69
:109180001E93A11D15A81F94FEF726FC20BB0123EA
:109190002370346839460C340DA8FFF744FB204691
:1091A0000DA9FFF7F9FD04460EA8FBF763FA9CB979
:1091B00020230D93134B00930E9423460DAA07E032
:1091C00039464046FFF72FFB0CA8FBF753FA0AE09D
:1091D0000D493220FEF758FE39464046FFF723FB83
:1091E00001E0083524E70AA8FEF7CAFF404621B08F
:1091F000BDE8F08F69F10D00E4EF0D0024E30320DA
:1092000015870D0042F10D00F4EF0D0010B5064C6E
:10921000002320462360FEF74FFC2046034A044902
:10922000BDE8104002F064BA28E3032068D40320AC
:10923000F3800D00002211464068FEF7C3BE0022F5
:1092400011464068FEF7DEBE002211464068FEF778
:10925000E9BE00224068FEF7DDBE002281F0010178
:109260004068FEF7C7BE00231A4619464068FEF75D
:10927000B9BE00231A4619464068FEF7ABBE00226D
:1092800011464068FEF78EBE002202214068FEF7BC
:1092900091BE00231A464068FEF77CBE38B5084CE4
:1092A00028252A460021204603F0C7F94FF0FF3356
:1092B0006360044B258004225A60034A1A6038BD5B
:1092C00034E303202CE30320ACF10D00002211460F
:1092D0004068FEF797BE002211464068FEF7A2BE26
:1092E00000224068FEF796BE002281F0010140682E
:1092F000FEF780BE00231A4619464068FEF772BE8C
:1093000000231A4619464068FEF764BE0022114643
:109310004068FEF757BE002211464068FEF742BE85
:10932000002202214068FEF745BE00231A4640682D
:10933000FEF730BE024B03225A60024A1A607047A1
:109340005CE30320E0F10D007047F8B506461546D2
:109350000C468F18BC4206D0336814F8011B9B687A
:1093600030469847F6E72846F8BD0022007CFEF715
:109370003BBC0021007CFEF73FBC0021007CFEF7D7
:1093800043BC0021007CFEF747BC0021007CFEF7B7
:109390004BBC10B51421044602F0AFF9204610BDB5
:1093A00010B50446002363604FF47A73A360044B46
:1093B0002174084623601146FEF746FC204610BD86
:1093C00014F20D000022007CFEF7EEBB00231A46CB
:1093D0001946007CFEF7F0BB70B50C4686B014252C
:1093E00006462A46002101A803F027F923788DF8C4
:1093F000083063680393E36804930022237A307C87
:10940000ADF8045001A90593FEF726FC06B070BD27
:109410001FB500338DF800104FF06401039118BFA1
:109420000123694601928DF80830FFF7D5FF05B09A
:109430005DF804FB0123FFF7EBBF0022007CFEF781
:10944000C3BBC9B2FFF7F9BF0022007CFEF7C4BB63
:109450000121FFF7F9BF0021007CFEF7EDBB70474B
:1094600010B51821044602F048F9204610BDF0B5A9
:10947000037D062B8DB00E4600F104074FF000046B
:1094800002D000F1080518E00CAD394605F8304D62
:109490002F232A460A20FEF7E7FB284603F037F978
:1094A00033680246DB682946304698470FE024B10E
:1094B0002E21304601F06CFB044415F8011D0A22F0
:1094C000304601F07EFBBD420444F0D120460DB091
:1094D000F0BD000010B5054B0446112240F8043BD6
:1094E000002103F0AAF8204610BD00BF3CF20D0099
:1094F0000346074A10B543F8042B01F1100251F856
:10950000044B43F8044B9142F9D10A781A7010BD0C
:109510003CF20D0010B59DF8084044EA032343EAED
:10952000024242EA016104234160037510BD37B570
:109530000D788B784A78C97800912946FFF7EAFFC1
:1095400003B030BD00F11002012312F8101C0129F4
:10955000104604D152F8041C03EB410304E0022935
:1095600004BF52F8041C5B18013B02F11002ECD15D
:1095700070470EB42DE9F04187B000AF07F1340415
:10958000054654F8046B7C6023463246102107F1EF
:109590000800FEF777FD0F2816D900F1080323F025
:1095A0000703E846ADEB030D3246411C23466846EF
:1095B0007C60FEF767FD021E04DD2B6869469B6830
:1095C00028469847C54607E030B12B6802469B689D
:1095D00007F10801284698471C37BD46BDE8F04111
:1095E00003B0704713B502AB026803F8011D94681D
:1095F00019460122A04702B010BD8368FBB11A785A
:10960000032A1AD8DFE802F00417021D052070476C
:1096100002685B685268D05C2D2814D0A0F130033A
:10962000092B10D9742810D066280ED0A0F16E0333
:10963000584258417047062070470020704718462E
:10964000704704207047032070470220704710B510
:109650000446FFF7D2FF02280DD016D3042814D8F1
:109660002268A36850685B680A2200211844BDE89C
:10967000104003F063BF2268A36852685B68D05C47
:10968000A0F174035842584110BD002010BD10B520
:10969000436904465BB18068E060013B1030A06024
:1096A000206163612BB1FFF74DFFA06001E0184618
:1096B00010BD012010BD10B57D210446FFF792FFBB
:1096C00001232371204610BD08B50379012B02D078
:1096D000022B02D008BD2C2100E03A21FFF782FFC7
:1096E00008BD10B50446FFF7EFFF20467B21FFF7CA
:1096F00079FF00232371204610BD000038B50446D1
:109700000D46FFF7E1FF23680449DB6820462A463F
:10971000984701232371204638BD00BFA9EB0D00F7
:1097200038B504460D46FFF7CFFF23680449DB68D0
:1097300020462A46984701232371204638BD00BFA2
:1097400057F20D00F8B50D461746222104462F4466
:10975000FFF748FF2A462946BA4238D0164616F87F
:10976000015B222D03D05C2D01D01F2D2DD8236845
:10977000521A9B68204698475C212046FFF732FF2B
:109780000C2D19D007D8092D0FD00A2D12D0082D75
:1097900014D162210AE0222D05D05C2D03D00D2DBD
:1097A0000CD1722102E0294600E074212046FFF727
:1097B00019FF09E06E21F9E76621F7E723680A49F6
:1097C000DB682A462046984731463246C4E7914234
:1097D00004D02368521A9D682046A84722212046BB
:1097E000FFF700FFF8BD00BF68F20D0070B504463A
:1097F0000D461646FFF768FF204632462946FFF71A
:10980000A1FF02232371204670BD70B504460D46AA
:109810001646FFF759FF204632462946FFF792FFCA
:1098200001232371204670BD10B500230446036058
:1098300043601048A060E360D1B10B78032B06D0E1
:10984000B3B9136858684B68C35C6E2B08D01368B3
:1098500058684B680344A3608B6849685B1AE360EF
:109860001146204651F8043B40F8043BFFF78CF8C2
:10987000204610BD85EF0D00002310B5044603609F
:1098800043608360C3600361436171B10B78012B56
:109890000BD101F110038360CB684361114651F88D
:1098A000043B40F8043BFFF76FF8204610BD00234F
:1098B00010B5044603604360816031B1114651F830
:1098C000043B40F8043BFFF75FF8204610BD0A68F0
:1098D0000B469268014618461047000070B50E4CC2
:1098E00004601C2444609DF814409DF8106004F04E
:1098F000030444EA86040025E4B2047442748574C7
:109900004161427C85600F2A08BF044BC56006BFD9
:109910008361C061038370BD10EB0D00CF980D0013
:1099200080680368DB681847704719B10B68084600
:109930005B681847704719B10B6808465B681847A1
:10994000704770477047704738B504460D46006849
:109950002E2102F0C0FE2368C31A2B6023B10378C6
:1099600003B1013023682060184638BD10B50C21C2
:10997000044601F0C2FE204610BD10B50421044685
:1099800001F0BBFE204610BD10B50421044601F0D5
:10999000B4FE204610BD38B50C46054601F05AFD10
:1099A00084420DD001F0CAFC844205D101F0C6FC0E
:1099B000BDE8384001F0BBBC21462846FFF7BBFF9D
:1099C00038BD08B502F091FEB0FA80F0400908BD3C
:1099D00038B5054608460C4602F099FE2146024677
:1099E0002846BDE83840FFF710BF0068FEF774B89E
:1099F00070B5044608460D4602F089FE236802460B
:109A000029462046DB68BDE87040184713B502AB15
:109A1000026803F8011DD46819460122A04702B06C
:109A200010BD00002DE9F04F4568076885B09146EC
:109A3000142255430193AB10194D02925D438B469E
:109A40003C460123002D039323DD029B6E1003FB94
:109A500006F004EB00084A46B8F804A02058D145A7
:109A600028BF5246594602F06FFE039B48B9D145C4
:109A700003D1019A13703546E4E78CBF0120002022
:109A800000E0C00F0028F6D0AE1B08F11404013E20
:109A9000F1E7E41B0248A410604305B0BDE8F08F75
:109AA000CDCCCCCCF0B585B003690191067E13B363
:109AB00009B304AF002347F8043D00F10C041D4630
:109AC000394601A8FFF740FF0146A0B104AB039A55
:109AD00003F8055D2046FFF7A5FF9DF80B3053B155
